S01900006275696C642F7A69676265782F6D61696E2E737265636F
S11300000C9468000C94641D0C946E1D0C94961D45
S11300100C94A01D0C94AA1D0C94B41D0C94BE1D2C
S11300200C94EE1D0C9485000C9485000C94A9216D
S11300300C9404210C9493210C9481220C94E21CC2
S11300400C94221D0C94A2220C945D1E0C94850029
S11300500C946B1E0C94F81D0C9485000C94850074
S11300600C949E210C9485000C9485000C948500BE
S11300700C9485000C9485000C94BC1E0C94850093
S11300800C94B3200C9485000C9485005C11DC1155
S113009065139713EC135F147014B414D714FF1A78
S11300A0E414711545168316B716C916DB164517E1
S11300B04C1752178317F8172718DB18E518E71899
S11300C0EF18F6180F191E19DC1900081C18141063
S11300D011241FBECFEFD0E1DEBFCDBF12E0A0E000
S11300E0B1E0E8E2F7E500E00BBF02C007900D9233
S11300F0A236B107D9F717E0A2E6B2E001C01D921B
S1130100AB36B107E1F70C94431B0C9400008FB796
S1130110F894992708958FBF0895982F8FB7F8946E
S1130120282FE92FFF27E050F94F80818F3FB1F44A
S113013080912207891791F08091F7068F3F19F477
S11301409093F70607C080912207E82FFF27E0501D
S1130150F94F90839093220780E001C085E02FBF80
S113016099270895882311F06E9A08956E9808953A
S113017080916502882319F480E090E0089581E07D
S113018090E008952F923F924F925F926F927F92E8
S11301908F929F92AF92BF92CF92DF92EF92FF9293
S11301A00F931F93CF93DF93CDB7DEB72A970FB684
S11301B0F894DEBF0FBECDBF8FB7F894282F332736
S11301C029873A872090750430907604409077040C
S11301D05090780466242EE4A22E93E8B92EC62CFF
S11301E0D62CE62CF62C062D162D222D332D442D3F
S11301F0552D662D762D862D962D0E942F2429832C
S11302003A834B835C836D837E838F839887822EAE
S1130210932EA42EB52EC62ED72EE82EF92E240109
S11302203501769467945794479400E2282D392D2C
S11302304A2D5B2D6C2D7D2D8E2D9F2D0E943925F1
S1130240A22EB32EC42ED52EC601B501640D751D84
S1130250861D971D97FF05C09F776F5F7F4F8F4F58
S11302609F4F609375047093760480937704909302
S1130270780439853FBF2A960FB6F894DEBF0FBEC7
S1130280CDBFDF91CF911F910F91FF90EF90DF9041
S1130290CF90BF90AF909F908F907F906F905F9022
S11302A04F903F902F900895EF920F931F93AE2D90
S11302B099E0899FF0011124EF54FD4F408351834D
S11302C0628373830483158326833783A1708085B7
S11302D08E7F8A2B8260808783E00E948D001F912D
S11302E00F91EF900895CF93DF938FB7F894682F11
S11302F07727A091E805B091E905C091EA05D0916E
S1130300EB0582B706B600FE04C01196C11DD11DCF
S113031082B7282F33274427552788279A2FAB2FB6
S1130320BC2F822B932BA42BB52B6FBFBC01CD010B
S1130330DF91CF910895AF92BF92CF92DF92EF9267
S1130340FF920F931F93F82E5A016B010E947301C1
S1130350DC01CB01E1E0EE2E96018501AC01BD018B
S11303608F2D0E9454011F910F91FF90EF90DF9009
S1130370CF90BF90AF900895AF92BF92CF92DF928B
S1130380EF920F931F935B016C010E947301DC01D8
S1130390CB01F1E0EF2E96018501AC01BD0180E0B7
S11303A00E9454011F910F91EF90DF90CF90BF9066
S11303B0AF900895FC018285992708958FB7F8942A
S11303C0682F77278091F9039091FA032CB53DB5F6
S11303D006B602FE03C001962CB53DB5AA27BB277D
S11303E044275527DC0199278827822B932BA42B9C
S11303F0B52B6FBFBC01CD010895282F8695869536
S11304008695E82FFF27E550FC4F277081E090E0A8
S113041002C0880F991F2A95E2F720812823822F92
S113042099270895FF920F931F93CF93DF93082F7B
S11304308FB7F894F82E80917902833009F054C074
S113044080910901801709F04FC08091FB03882334
S113045009F03EC081E090E0892BE9F510917A0221
S1130460C12FDD272196C330D10511F4C0E0D0E0BF
S11304708C2F0E94FD01882381F4812F9927C817AE
S1130480D90781F78FEF90E08093770581E080931F
S1130490790283E10E948D0024C08C2F8695869575
S11304A08695E82FFF27E550FC4F2C2F277081E01D
S11304B090E002C0880F991F2A95E2F7982F909533
S11304C0808189238083C0937A028C2F9927DCCF83
S11304D080E090E0C1CF83E080930901109279021B
S11304E03798002309F4C698FFBE81E090E0DF91BD
S11304F0CF911F910F91FF9008951F93CF93DF9396
S1130500C82F8FB7F894282F3327122F80917902A0
S1130510882301F18C2F0E94FD018823B1F48C2FD4
S1130520869586958695E82FFF27E550FC4FC77082
S113053081E090E002C0880F991FCA95E2F72081FC
S1130540282B208380E090E002C085E090E01FBF6C
S1130550992719C081E080937902C09377052FBF52
S11305608FB7F8949927379A8FBF8FB7F894C82F0D
S1130570DD2780910901833019F483E10E948D0005
S1130580CFBF80E090E0DF91CF911F91089520913B
S11305906106822F99278130910559F082309105A7
S11305A01CF4009731F004C0029711F481E001C0FB
S11305B08FE1582F822F99278130910541F08230A5
S11305C091051CF4892B19F004C0029711F428E05A
S11305D001C020E033278FB7F894E82F80911F07DC
S11305E08E7F80931F07322F27B160E070E0922F37
S11305F0929596959695937080E0891749F4852F86
S11306008850863118F42F71521711F461E070E0AC
S1130610862F880F20911F072D7F282B852F8F7100
S1130620982F990F990F2378292B20931F07806205
S1130630992787B9406C21702295220F207E4F7D27
S1130640422B4861383059F58091F3059091F405B7
S113065021E08638920718F087E090E01FC0833CC1
S1130660910518F086E090E019C08136910518F0E4
S113067085E090E013C08033910518F084E090E0A9
S11306800DC08831910518F083E090E007C00C9705
S113069018F082E090E002C080E090E0382F3770DC
S11306A0487F432B842F992786B9EFBF0895AF92D3
S11306B0BF92CF92DF92EF920F931F935B016C0175
S11306C00E947301DC01CB01E1E0EE2E960185016D
S11306D0AC01BD018BE00E9454011F910F91EF907A
S11306E0DF90CF90BF90AF90089580E00E947D028C
S11306F09927089597E087FF02C0919A01C09198C5
S1130700880F909A9098915097FFF5CF0895982F5D
S11307108FB7F894282F89B78D7F89BF82E088BF6F
S113072080916A00886080936A00992321F0809107
S11307306A00846003C080916A008B7F80936A00A2
S113074089B7826089BF2FBF80E090E008952F921F
S11307503F924F925F926F927F928F929F92AF924D
S1130760BF92CF92DF92EF92FF920F931F938B0170
S1130770882309F0DDC08FB7F894992770935E063B
S113078060935D068FBFE090DA03F090DB03CB014A
S1130790AA2797FDA095BA2FBC01CD010E94F32989
S11307A03B014C0117FF08C020E030E040E857E46B
S11307B00E9446293B014C01C701AA2797FDA09539
S11307C0BA2FBC01CD010E94F329F7FE06C020E038
S11307D030E040E857E40E9446292AE037ED43E23E
S11307E05CE30E94622ADC01CB0120E030E040E2BD
S11307F052E4BC01CD010E9445291B012C0122EACF
S113080037EE4BE356EBC401B3010E94622ADC01CC
S1130810CB01A4019301BC01CD010E94622A7B019A
S11308208C0124E533EE45E25DE3C401B3010E948B
S1130830622ADC01CB019C01AD01C801B7010E9411
S11308404629DC01CB0120E030E040E850ECBC015B
S1130850CD010E9446295B016C0120E030E048ECA8
S113086051E4C201B1010E9445297B018C012CEAAB
S113087035EC47EA58E3C401B3010E94622ADC0163
S1130880CB012AE037ED43E25CE3BC01CD010E94D9
S11308904629DC01CB019C01AD01C801B7010E94CE
S11308A0622ADC01CB01A6019501BC01CD010E94A5
S11308B046297B018C0120E030E048EC52E40E94A0
S11308C0002A181654F40F2EF0E0EF2EF0E0FF2E5D
S11308D0F8EC0F2FF2E41F2FF02D2DEC3CEC4CEC38
S11308E05DE3C801B7010E94FD29882354F40F2E4B
S11308F0FDECEF2EFCECFF2EFCEC0F2FFDE31F2F85
S1130900F02DC201B1010E94D629DC01CB019093E4
S1130910F8058093F705C801B7010E94D629DC01C8
S1130920CB019093DE038093DD0382E00E947D027D
S11309301F910F91FF90EF90DF90CF90BF90AF90F9
S11309409F908F907F906F905F904F903F902F90EB
S11309500895982F8FB7F894282F3327422F80912A
S11309607D02882301F1E92FFF27E75DF84F80819D
S11309708F3FA1F4E0910B01E91781F080910C0104
S11309808F3F19F490930C0104C0FF27E75DF84FE3
S1130990908390930B0180E090E002C085E090E0AA
S11309A04FBF9927089541E040937D029093F70447
S11309B02FBF80917C02882321F481E10E948D0065
S11309C002C040937B0280E090E00895882359F4AC
S11309D08FB7F89499277093DB036093DA038FBF82
S11309E083E00E94A904089530E0232F909A80B3F5
S11309F099279695879580FD3160273009F0330F4C
S1130A0090982F5F283090F3899A9198909A9098B3
S1130A108998919A832F99270895899A919A909AFF
S1130A2090980895AF92BF92CF92DF92EF92FF9287
S1130A300F931F93F82E5A016B010E947301DC017E
S1130A40CB01EE2496018501AC01BD018F2D0E94DE
S1130A5054011F910F91FF90EF90DF90CF90BF90C2
S1130A60AF9008959091D206980F9093D8039F3F2A
S1130A7011F41092D8030895AF92BF92CF92DF92EF
S1130A80EF920F931F935B016C010E947301DC01D1
S1130A90CB0111E0E12E96018501AC01BD0186E098
S1130AA00E9454011F910F91EF90DF90CF90BF905F
S1130AB0AF900895CF93982F8FB7F894C82F809153
S1130AC07D028330A1F580910A01891781F520E028
S1130AD030E080910C018F3F11F421E030E0232BB2
S1130AE0D9F48F3F81F0282F3327F901E75DF84FC0
S1130AF0808180930C018F3F11F480930B018FEF61
S1130B008083C90102C08FEF90E08093F70481E0F5
S1130B1080937D0280E109C084E080930A011092F1
S1130B207D0281E080937C0282E10E948D00CFBF30
S1130B3081E090E0CF91089580E88093D9031092EA
S1130B405A061092E705109225070895AF92BF92B6
S1130B50CF92DF92EF920F931F9301E000937E05F3
S1130B601091D3031123D1F4682F772761157105F0
S1130B7011F461E070E060936C0480E797E10E94F7
S1130B80F52ACB017093EE056093ED05DA98AA2758
S1130B90BB27BC01CD010E943C0545C0113001F5C5
S1130BA0682F77276115710511F461E070E0609397
S1130BB06D0480E797E10E94F52A7093F005609335
S1130BC0EF05D9985B01CC24DD240E947301DC017C
S1130BD0CB01E12E96018501AC01BD0184E021C069
S1130BE0123009F5682F77276115710511F461E05A
S1130BF070E060936E0480E797E10E94F52A709399
S1130C00F2056093F105D8985B01CC24DD240E94A1
S1130C107301DC01CB01E02E96018501AC01BD011D
S1130C2085E00E9454011F910F91EF90DF90CF90C7
S1130C30BF90AF900895AF92BF92CF92DF92EF92A0
S1130C40FF920F931F93CF93DF930E947301FC01D4
S1130C50EB012091E3043091E4044091E5045091C8
S1130C60E6047B018C01E21AF30A040B150B1092C3
S1130C70E8048091790490917A04A0917B04B09166
S1130C807C04E816F9060A071B07C0F0EE24FF24CB
S1130C908701280F391F4A1F5B1F2093E3043093F9
S1130CA0E4044093E5045093E604E0927904F0925E
S1130CB07A0400937B0410937C0463C05C016D018F
S1130CC0AE18BF08C00AD10A8601750161E0A616F4
S1130CD061E0B60660E0C60660E0D60690F080E00B
S1130CE0A81680E0B80681E0C80680E0D80610F0B7
S1130CF08FEF04C0BB27AD2D9C2D8B2D8093E80472
S1130D0058C061E8A616B104C104D10430F1C0583A
S1130D10DF4FEF4FFF4FC093E304D093E404E0931D
S1130D20E504F093E604C058D040E040F04080E889
S1130D309FEFAFEFBFEFE80EF91E0A1F1B1FE092F3
S1130D407904F0927A0400937B0410937C0400E805
S1130D50E02EF12C012D112D14C0280F391F4A1F2C
S1130D605B1F2093E3043093E4044093E504509321
S1130D70E6041092790410927A0410927B04109283
S1130D807C046E2D82B7282F8C1B8E5F8E1518F075
S1130D90622F6E5F01C06C0F662309F461E061503D
S1130DA000B601FCFDCF61BF82E086BF87B78260D9
S1130DB087BFDF91CF911F910F91FF90EF90DF904C
S1130DC0CF90BF90AF9008950F931F93DC01CB0198
S1130DD06FB7F894062F11278093E3049093E404EB
S1130DE0A093E504B093E6042093790430937A0445
S1130DF040937B0450937C040E941B060FBF1F91F9
S1130E000F910895282F8FB7F89499272CB95E9ADB
S1130E108FBF08959C0180916F02909170028F376B
S1130E20910520F01092700210926F026623E1F097
S1130E30D90180916D0290916E028F37910520F057
S1130E4010926E0210926D0280916D0290916E026A
S1130E50FC01E850FB4F2D912083019690936E0284
S1130E6080936D02615029F780917102882361F4A7
S1130E7081E080937102E0916F02F0917002E8507A
S1130E80FB4F80810E9402070895982F8FB7F89432
S1130E90282F332790939C0080919B00806480933B
S1130EA09B002FBF08959C01809176029091770258
S1130EB08036910520F01092770210927602662314
S1130EC0E1F0D90180917402909175028036910508
S1130ED020F0109275021092740280917402909125
S1130EE07502FC01E45FFB4F2D91208301969093E2
S1130EF0750280937402615029F7809178028823E7
S1130F0061F481E080937802E0917602F0917702B7
S1130F10E45FFB4F80810E9445070895CF93DF93E0
S1130F20D9019EE79093E1039093F80329E030E020
S1130F303093E3032093E20399279093E50380938E
S1130F40E4036093E6034093E703E8EEF3E080E113
S1130F50EF010D9009928A95E1F737976091DA06CF
S1130F60CF010E945307DF91CF9108959EE790939C
S1130F70E1039093F80322E030E03093E3032093FD
S1130F80E20399279093E5038093E4031092E60328
S1130F906091DA0681EE93E00E9453070895AF92C0
S1130FA0BF92CF92DF92EF92FF920F931F93CF9352
S1130FB0DF930E94DE01FC01EB0180917E0490919D
S1130FC07F04A0918004B0918104A090F206B090B7
S1130FD0F306C090F406D090F5069C01AD012A0DED
S1130FE03B1D4C1D5D1D79018A01EC1AFD0A0E0B97
S1130FF01F0BC817D907EA07FB0730F02817390772
S11310004A075B0770F005C0281739074A075B07D2
S113101028F4C217D307E407F50718F0EE24FF24D9
S1131020870121E0E21620E8F20620E0020720E032
S1131030120730F1C050D048EF4FFF4FC0937E04E9
S1131040D0937F04E0938004F0938104C050D0488F
S1131050E040F04080E090E8AFEFBFEFE80EF91E0B
S11310600A1F1B1FE092F206F092F3060093F406A7
S11310701093F506E12C90E8F92E012D112D14C0E2
S11310808A0D9B1DAC1DBD1D80937E0490937F042F
S1131090A0938004B09381041092F2061092F30698
S11310A01092F4061092F506B7012CB53DB5C901AE
S11310B08C1B9D0B03968E159F0520F0B9016D5F67
S11310C07F4F02C06C0F7D1F6115710511F461E043
S11310D070E0615070407BBD6ABD80E186BF87B718
S11310E0806187BFDF91CF911F910F91FF90EF90A7
S11310F0DF90CF90BF90AF9008950F931F93DC01C2
S1131100CB016FB7F894062F112780937E04909338
S11311107F04A0938004B09381042093F20630935B
S1131120F3064093F4065093F5060E94CF070FBFD1
S11311301F910F910895EF92FF920F931F93CF93F6
S11311408FB7F894C82F0E94C200DC01CB019C0128
S1131150277030702F5F3F4FC1F0C90143E0880F03
S1131160991F4A95E1F7820F931F820F931F7C0109
S1131170002711270E94DE01DC01CB01A8019701A1
S1131180BC01CD010E947D0806C081E090E09093EF
S1131190640280936302CFBFCF911F910F91FF90A0
S11311A0EF90089597B79F7D97BF90E296BF8823ED
S11311B019F08EB5806402C08EB58F7B8EBD87B763
S11311C0806287BF80E090E008958FB9779BFECF5F
S11311D08FB1992708950F931F938B010E94E508FF
S11311E0812F99270E94E508802F0E94E5089927FE
S11311F01F910F910895DF92EF92FF920F931F9327
S1131200CF937A01C22FDD248C01060F111D802F8C
S113121080680E94E50816950795802F807C0E94BF
S1131220E508CC2341F0F70181917F010E94E50894
S1131230D82EC150F6CF8D2D9927CF911F910F91A4
S1131240FF90EF90DF900895882311F06F9A08952E
S11312506F9808951F9310E0812F0E94B200BA9AEC
S1131260BB98B99AB89A6C9AC098812F0E942409A5
S1131270709A6B986A98689881E00E94B2001F91F6
S113128008950F931F93CF93082F8FB7F894282FA7
S11312903327122F80916702882321F02FBF85E026
S11312A090E021C090916502992341F482E08093FB
S11312B065029093020180E090E002C081E090E03A
S11312C09927C82F882311F40E942A098C2F992763
S11312D0282F882329F40093050181E08093670275
S11312E01FBF822F9927CF911F910F910895CF93FC
S11312F0C82F0E94B800882311F40E942A09809103
S11313006502882359F481E080936502C0935C06EA
S11313108DE10E948D0080E090E01EC0EC2FFF273D
S1131320EB52FC4F80818F3FA1F4E0910301EC1755
S113133081F0809104018F3F19F4C093040104C02B
S1131340FF27EB52FC4FC083C093030180E090E081
S113135002C085E090E099279927CF910895CF9313
S1131360282F8FB7F894C82F90916702992369F0BA
S113137081E090E002C0880F991F2A95E2F720913E
S11313806602282B2093660208C02093050181E0A1
S113139080936702892F0E947709CFBF80E090E095
S11313A0CF910895CF9382E00E9441099927C82FD5
S11313B0882319F082E00E94AF098C2F9927CF91DE
S11313C008951F93CF93DF93982F8FB7F894282F06
S11313D03327122F80910501891721F02FBF81E057
S11313E090E071C04FEF4093050180916502823017
S11313F009F03FC0909102019923D9F520E030E033
S113140080910401841711F421E030E0232B69F565
S11314108F3F79F0282F3327F901EB52FC4F80815D
S1131420809304018F3F11F4409303014083C90169
S113143002C08FEF90E080935C0681E080936502A8
S11314408DE10E948D0015C02093050181E090E09C
S113145002C0880F991F4A95E2F78095382330938C
S1131460660280E00E9477092BC0409302019093AA
S113147065020E94B800C82FDD27CC2331F48C2FDD
S11314800E94B200C0932307C09A309166023323AE
S1131490A9F0209105012F5F632F7727243008F0EE
S11314A020E0422F5527CB01042E02C09595879545
S11314B00A94E2F780FDC8CF2F5FF0CF1092670245
S11314C01FBF80E090E0DF91CF911F910895CF93EB
S11314D0C1E0C0988091E704882311F085E001C041
S11314E084E00E94E50883FD05C080E00E94E508D1
S11314F083FDC0E08FB7F894CC2319F023E030E0EB
S113150002C025E030E030936402209363028FBF71
S1131510C09ACC2329F082E00E94E1090E949B0832
S1131520CF9108958F929F92AF92BF92CF92DF9204
S1131530EF92FF920F931F93CF93DF938FB7F8949B
S1131540C090E904D090EA048090D6039090D70329
S1131550C091FE03D091FF03AE01465F5F4F20911F
S11315605F06309160062417350708F09A018FBF93
S113157059010894A108B108CA15DB05E8F47E01F5
S1131580E80CF91C8E010C0D1D1DC114D10419F0B9
S1131590F801808101C080E00E94E5088114910473
S11315A011F0F701808321960F5F1F4F0894E11C0F
S11315B0F11CCA15DB0548F381E00E9424098FB7AA
S11315C0F894982FC114D10431F0CC0EDD1EF6012D
S11315D080818FB901C01FB8D093FF03C093FE036D
S11315E09FBF80E090E0DF91CF911F910F91FF901A
S11315F0EF90DF90CF90BF90AF909F908F90089521
S11316009C018FB7F89499273093EA042093E90456
S11316107093D7036093D6035093600640935F069C
S11316201092FF031092FE038FBF8FB10E94920AA3
S1131630992708950F931F93C0980091AF021091BA
S1131640B0028FE790E0909391068093900680918A
S113165090060E94E50841E050E0B80180E090E087
S11316600E94000B1F910F91089582E090E09093E7
S113167073048093720483E00E944109882319F45F
S11316800E941A0B089583E00E94AF090895CF9336
S11316908FB7F894282F3327C22F8091720490912A
S11316A07304892B11F42FBF26C020912507222310
S11316B041F080E090E0B79B02C081E090E0892B8C
S11316C049F481B1992776E0969587957A95E1F763
S11316D080FD08C0222319F02150209325070E9481
S11316E0350B08C081E090E09093730480937204FA
S11316F010922507CFBFCF9108951F93CF93DF9307
S1131700C0919E04D0919F048FA19927182F8823FC
S113171009F41FE1C0988091F606811741F0812FEA
S11317209927806E9068BC0185E10E94EB081093B4
S1131730F606188111508EE390E090939106809301
S11317409006809190060E94E508812F9927AC01AC
S113175060E070E0CE010E94000BDF91CF911F91F9
S113176008958998919A909A80B399279695879528
S113177080FF03C081E090E00895909880E090E0BD
S11317800895AF92BF92CF92DF92EF920F931F937F
S11317905B016C010E947301DC01CB01F1E0EF2ECF
S11317A096018501AC01BD018CE00E9454011F919A
S11317B00F91EF90DF90CF90BF90AF9008951F935B
S11317C0889A90988998919A89B78D7F89BF899AC8
S11317D0919A909888E0909A9098815087FFFBCFD7
S11317E0899A919A9098909A91989098909A919AAF
S11317F0909880912707909128078F71907090930B
S1131800280780932707809127070E947A030E9464
S1131810B10B882329F01092800281E090E048C047
S113182020912707309128072630310561F12730B0
S1131830310538F42330310579F02530310561F074
S113184035C02730310599F02E31310579F56BE03B
S113185070E080E090E008C08998919A0E94870324
S11318606EE571E080E090E00E94C10B1FC00E9411
S1131870F404182F0E94F4040E940D0510937F02B3
S11318808EE00E948D0080917A050E947A030E9466
S1131890B10B882321F081E080937E0204C0809103
S11318A07A0580937F028EE00E948D0080E090E0B4
S11318B01F910895282F80910D01882319F484E045
S11318C090E0089580918002882319F085E090E0EB
S11318D0089581E08093800283E090E0909328074C
S11318E0809327072093F8060E94DF0B9927089519
S11318F0282F80910D01882319F484E090E0089545
S113190080918002882319F085E090E0089581E0B9
S11319108093800285E090E09093280780932707C6
S11319202093F8060E94DF0B992708951F93CF9305
S1131930DF93162FEA01992781309105E9F082306F
S113194091051CF4892B21F017C0029771F014C083
S113195080E00E945A05112321F4D0931501C0930D
S1131960140181E00E94A90407C082E00E945A0584
S1131970BE01812F0E94E604DF91CF911F9108954B
S11319801F93CF93DF93162FEA0199278130910596
S113199049F082309105CCF082309105B1F0039783
S11319A069F013C081E00E945A05112321F4D093F9
S11319B01301C09312010E94750307C083E00E94C3
S11319C05A05BE01812F0E94A703DF91CF911F9179
S11319D008952F923F924F925F926F927F928F92CF
S11319E09F92AF92BF92CF92DF92EF92FF920F93AA
S11319F01F93CF93DF93CDB7DEB7CE54D0400FB64D
S1131A00F894DEBF0FBECDBF1B012C012D961FAE77
S1131A102D978824992441EB642E42E0742EF3011F
S1131A20608561FFFEC22081318142815381D201F0
S1131A30C101821B930BA40BB50BE480F5800681D6
S1131A4017818E159F05A007B10708F4EAC260FF4D
S1131A5003C06D7F60870AC02E0D3F1D401F511FBC
S1131A60D3012D933D934D935C931397B7E08B165D
S1131A70910409F490C0E8E08E16910414F5F3E0A3
S1131A808F16910409F454C024E08216910474F46E
S1131A9081E08816910409F447C092E08916910404
S1131AA00CF044C081149104A9F1BBC2A5E08A16CC
S1131AB0910409F44CC0B6E08B1691040CF054C0A8
S1131AC039C0EBE08E16910409F456C1FCE08F1680
S1131AD091045CF429E08216910409F44BC18AE074
S1131AE0881691040CF0FAC0F1C09EE089169104A6
S1131AF009F487C1AFE08A16910434F4BCE08B1674
S1131B00910409F457C18DC2EFE08E16910409F4D3
S1131B1013C287C282E00E94A90460E47FE180E0EE
S1131B2090E00E94BC017DC2D99A7BC2D89A79C246
S1131B30DA9A77C2DA9A80916D04815080936D04A9
S1131B40882331F18091EF059091F00519C0DA9A5C
S1131B5080916E04815080936E048823C9F0809133
S1131B60F1059091F2050CC0DA9A80916C048150D1
S1131B7080936C04882361F08091ED059091EE05CB
S1131B80DA98AA27BB27BC01CD010E943C0549C2B3
S1131B9080937E0546C289E0898389E090E08A8348
S1131BA09B8385E090E08C839D838091AE028823A3
S1131BB009F04EC08E8380917C05882339F488E136
S1131BC091E02F968EAF9FAF2F9711C0813039F4DB
S1131BD0AEE1B1E02F96AEAFBFAF2F9708C0823011
S1131BE031F4E4E2F1E02F96EEAFFFAF2F972F969A
S1131BF08EAD9FAD2F979F938F938AE291E09F9331
S1131C008F938E01085E1F4F1F930F930E94EE2542
S1131C10ADB7BEB716960FB6F894BEBF0FBEADBF34
S1131C2080E1FE013896D8010D9001928A95E1F782
S1131C3087E1DE011196EBEDF6E00D9001928A95B5
S1131C40E1F78BE00E948D0081E08093AE02E9C150
S1131C5081E08E8380917805909179059F938F938D
S1131C6080917004909171049F938F9380919C0450
S1131C7090919D049F938F9388E391E09F938F931A
S1131C808E01085E1F4F1F930F930E94EE25EDB740
S1131C90FEB73A960FB6F894FEBF0FBEEDBF80E1D3
S1131CA0FE013896D8010D9001928A95E1F787E1FB
S1131CB0DE011196EBEDF6E00D9001928A95E1F7C5
S1131CC08BE00E948D001092AE02ABC182E0809343
S1131CD0D40382E18093F90586E02BC18091D2067A
S1131CE08F5F8093D2068F3F11F41092D2069091A9
S1131CF0D2068091D803981709F093C1809181028C
S1131D0099279F938F9380911601909117019F9328
S1131D108F9384E491E09F938F9387EC95E09F9356
S1131D208F930E94EE25EDB7FEB738960FB6F89460
S1131D30FEBF0FBEEDBF809181028630B8F48F5F85
S1131D40809381028630B0F0FE01F89680E1DF01D5
S1131D501D928A95E9F79F0140E065E18091F905BC
S1131D600E948E078EE10E9432055BC110928102AF
S1131D70109286028AE0DDC08FB7F894082F1127ED
S1131D80902F80910A01843099F480917D028130F2
S1131D9021F480E10E948D0009C0823049F48091D1
S1131DA0F70480930A0183E080937D020FBF39C159
S1131DB09FBF37C1809127079091280785309105EF
S1131DC0B1F08630910518F4039739F02AC14E9783
S1131DD009F027C11092800224C11092800240E0D1
S1131DE050E061E08091F8060E94960C1AC11092AE
S1131DF0800240E050E061E08091F8060E94C00C4F
S1131E0010C18FB7F8949927A0906802AA2011F006
S1131E108FBF07C18FBF80B3992736E0969587950A
S1131E203A95E1F7C82EB1E0CB2280917D059091DF
S1131E30D203891709F47AC0C91609F077C084E07F
S1131E4090E090936A02809369028E01085B1F4FB1
S1131E508091060190910701F8018083892F9927C9
S1131E6081838091FE069091FF068283892F9927B2
S1131E7083838FB7F8949927DB2EB09368028FBFC2
S1131E808CE10E948D0060E070E08DE10E94EB081F
S1131E9024E0A8016A2D88E691E00E94FB08C09A1C
S1131EA0C0988FB7F894E82EFF248D2D0E94D20895
S1131EB001E010E01093640200936302A0926202B6
S1131EC0A092F606EFBE8FB7F894E82EFF240E9486
S1131ED09C05109373040093720489B78F7B89BFA8
S1131EE080E488BF8AB780628ABF8AB78F7E8ABF40
S1131EF089B7806489BFEFBE8FB7F894082F112784
S1131F008091690290916A02049719F483E00E9417
S1131F10E5080FBF8FB7F894082F1127C09A80E007
S1131F200E94E1090FBF87E10E948D00C0927D05E8
S1131F308BE10E948D0075C08091FA069927AA272B
S1131F40BB27182F0027FF24EE248091FB06992736
S1131F50AA27BB27DC0199278827E82AF92A0A2B14
S1131F601B2B8091FC069927AA27BB27BA2FA92FE0
S1131F70982F8827E82AF92A0A2B1B2B8091FD0623
S1131F809927AA27BB27E82AF92A0A2B1B2B08948E
S1131F90E11CF11C011D111DE092FD06AF2CB02EB9
S1131FA0C12EDD24A092FC069801442755272093D6
S1131FB0FB06812F9927AA27BB278093FA06992726
S1131FC0AA27BB27B82FAA2799278827332744276E
S1131FD05527A90133272227822B932BA42BB52B1A
S1131FE02A2D332744275527542F432F322F2227B6
S1131FF0822B932BA42BB52B2E2D33274427552727
S1132000822B932BA42BB52B805A9648A140B04029
S113201041F4809140038D7F8093400381E080935D
S11320207D042D962FAD2D972F5F2D962FAF2D97D5
S113203089E090E0680E791E0894811C911C20317F
S113204008F4EDCC83E00E948D00C25BDF4F0FB635
S1132050F894DEBF0FBECDBFDF91CF911F910F91DA
S1132060FF90EF90DF90CF90BF90AF909F908F90B4
S11320707F906F905F904F903F902F9008952F9294
S11320803F924F925F926F927F928F929F92AF9204
S1132090BF92CF92DF92EF92FF920F931F93CF9351
S11320A0DF93CDB7DEB726970FB6F894DEBF0FBE29
S11320B0CDBF4C01C401AA2797FDA095BA2F8983EF
S11320C09A83AB83BC83BC01CD010E94F3292B010D
S11320D03C0197FE08C020E030E040E857E40E944D
S11320E046292B013C018091D303082F11271801A5
S11320F0220C331C220C331C6FE9A62E62E0B62E90
S1132100A20CB31CD501CD90DD90ED90FC90A701FD
S11321109601C301B2010E9445292B013C01F8013B
S1132120E555FD4F10811F5F1083E12FFF27ED83DD
S1132130FE83CF01AA2797FDA095BA2FBC01CD013C
S11321400E94F329DC01CB019C01AD01C301B20162
S11321500E949029DC01CB019C01AD01C701B601AD
S11321600E9446296B017C01D5016D937D938D936B
S11321709C931397113009F45CC069817A818B8137
S11321809C810E94F32997FE06C020E030E040E8DD
S113219057E40E944629A70196010E944529DC01C3
S11321A0CB0157E8C52E52E0D52EC20CD31C9C019E
S11321B0AD01C301B2010E94622ADC01CB01F60128
S11321C0E080F180028113819C01AD01C801B70157
S11321D00E9446297B018C01D6016D937D938D93DA
S11321E09C9313976101E3E9F2E0CE0EDF1E2D818B
S11321F03E8121503040C901AA2797FDA095BA2FEE
S1132200BC01CD010E94F329DC01CB019C01AD018D
S1132210C801B7010E949029DC01CB01BC01CD01AA
S11322200E94B02ADC01CB01F60180839183A28352
S1132230B38326960FB6F894DEBF0FBECDBFDF91F1
S1132240CF911F910F91FF90EF90DF90CF90BF90AF
S1132250AF909F908F907F906F905F904F903F9042
S11322602F9008952F923F924F925F926F927F9298
S11322708F929F92AF92BF92CF92DF92EF92FF9292
S11322800F931F93CF93DF93CDB7DEB72C970FB681
S1132290F894DEBF0FBECDBF9927AA27BB27FC0148
S11322A04F9710F00C94FF1AEA5BFF4FEE0FFF1FDD
S11322B00590F491E02D09948091FA069927AA27B4
S11322C0BB27582F4427332722278091FB069927C1
S11322D0AA27BB27DC0199278827282B392B4A2BCF
S11322E05B2B8091FC069927AA27BB27BA2FA92F1D
S11322F0982F8827282B392B4A2B5B2B8091FD069E
S11323009927AA27BB27282B392B4A2B5B2B2093F1
S1132310EE04BB27A52F942F832F8093ED04CA01CD
S1132320AA27BB278093EC04852F9927AA27BB27CC
S11323308093EB04809104049927982F8827209197
S113234005043327822B932B8093F004892F99273C
S11323508093EF04809106049927982F8827209171
S113236007043327822B932B8093F204892F992718
S11323708093F104809108049927982F882720914D
S113238009043327822B932B8093F404892F9927F4
S11323908093F30480910A049927982F8827209129
S11323A00B043327822B932B8093F604892F9927D0
S11323B08093F50486E1E2C780917E05813009F4BB
S11323C0DDC78091EC054CE0849F900111242E5BC5
S11323D03C4F992701966CE070E00E94092B809392
S11323E0EC052115310511F40C94FF1AE0E0F4E03A
S11323F0D9010D9001924A95E1F78091040499273F
S1132400582E4424809105049927482A592A8091FA
S113241006049927782E6624809107049927682A50
S1132420792A809108049927982E88248091090498
S11324309927882A992A8FB7F894A82E8091D303D4
S1132440882309F068C0C2010E943F10C201AA2774
S113245097FDA095BA2FBC01CD010E94F3297B0101
S11324608C0157FE08C020E030E040E857E40E94A9
S113247046297B018C018091D303E82FFF27EE0FBF
S1132480FF1FEE0FFF1FE156FD4F80819181A28156
S1132490B3819C01AD01C801B7010E944529DC014B
S11324A0CB01BC01CD010E94D629DC01CB010E94E5
S11324B0A605B090D3030B2D1127000F111F000F99
S11324C0111FF801E156FD4F80819181A281B381F2
S11324D0BC01CD010E94D6296B017C01F801ED56A7
S11324E0FD4F80819181A281B381BC01CD010E9405
S11324F0D629DC01CB01B0927C0550929D04409218
S11325009C04D0927104C0927004909379058093D6
S1132510780581E06AC0813009F06AC0C3010E9475
S11325203F10C301AA2797FDA095BA2FBC01CD0186
S11325300E94F3297B018C0177FE08C020E030E083
S113254040E857E40E9446297B018C018091D30323
S1132550E82FFF27EE0FFF1FEE0FFF1FE156FD4F81
S113256080819181A281B3819C01AD01C801B70131
S11325700E944529DC01CB01BC01CD010E94D62972
S1132580DC01CB010E94A605B090D3030B2D1127CB
S1132590000F111F000F111FF801E156FD4F80813C
S11325A09181A281B381BC01CD010E94D6296B0126
S11325B07C01F801ED56FD4F80819181A281B381A8
S11325C0BC01CD010E94D629DC01CB01B0927C056F
S11325D070929D0460929C04D0927104C092700425
S11325E0909379058093780582E08093D3036BC040
S11325F0823009F068C0C4010E943F10C401AA27B8
S113260097FDA095BA2FBC01CD010E94F3297B014F
S11326108C0197FE08C020E030E040E857E40E94B7
S113262046297B018C018091D303E82FFF27EE0F0D
S1132630FF1FEE0FFF1FE156FD4F80819181A281A4
S1132640B3819C01AD01C801B7010E944529DC0199
S1132650CB01BC01CD010E94D629DC01CB010E9433
S1132660A605B090D3030B2D1127000F111F000FE7
S1132670111FF801E156FD4F80819181A281B38140
S1132680BC01CD010E94D6296B017C01F801ED56F5
S1132690FD4F80819181A281B381BC01CD010E9453
S11326A0D629DC01CB01B0927C0590929D048092E6
S11326B09C04D0927104C092700490937905809325
S11326C078051092D303AFBE9AC7409141034423C7
S11326D039F58FB7F894282F3327E090E304F0906E
S11326E0E4040091E5041091E6048091790490914A
S11326F07A04A0917B04B0917C04E80EF91E0A1FB1
S11327001B1F2FBF8091D6069091D706A091D806A3
S1132710B091D9069C01AD01C801B7010E94E4063D
S11327200E947301DC01CB01BC01CD0140C00E94B9
S113273073017B018C01AFEFAA2EAFEFBA2EAFEF7E
S1132740CA2EAFE7DA2E70E087B78D7F87BFE1EB43
S1132750F2E06FE0808581FF1CC080819181A281BD
S1132760B381A8019701281B390B4A0B5B0BDA01D3
S1132770C9012481358146815781281B390B4A0BB5
S11327805B0B2A153B054C055D051CF459016A01D8
S113279071E06150399667FFDDCF772309F42FC7C5
S11327A01A141B041C041D042CF0C801B7010E9458
S11327B0E90C25C7A092D606B092D706C092D806D7
S11327C0D092D90681E080934103A6019501C80106
S11327D0B7010E94E40613C780EA94E09093FD03D6
S11327E08093FC0382E08093D40382E18093F90513
S11327F088EB9BE09093830480938204109285027B
S1132800109284021092830210928202109281022A
S1132810109278021092770210927602109275024A
S11328201092740280919A00806480939A0080913F
S11328309A00886080939A0080919A0080688093BF
S11328409A0080919A00806180939A0080919A0006
S1132850886080939A0080919A00806180939A00A6
S113286088E18093DA0688E4809374041EE7109369
S1132870E1031093F80310937F051093C60548E114
S113288050E060E070E081EE93E00E94E725109351
S1132890E10383E090E09093E3038093E2031093D9
S11328A0F8036091DA0681EE93E00E94530740EA50
S11328B05FE060E070E088E00E949B01A0C688EBC6
S11328C09BE0909383048093820480910A038D7F1C
S11328D080930A0348EB5BE060E070E089E071C03C
S11328E0809101038D7F80930103E090D403F090E5
S11328F0F9058F2D99279F938F938E2D99279F9359
S11329008F9380911601909117019F938F938DE57A
S113291091E09F938F9302E916E01F930F930E9417
S1132920EE254DB75EB7465F5F4F0FB6F8945EBFB6
S11329300FBE4DBFF80101900020E9F73197E01B6D
S1132940F10B6E2FC8010E940A0755E0F51611F02D
S113295084E014C5E0927B05F092F90644EF51E05F
S113296060E070E087E02DC08091A40499279F93D4
S11329708F938DE791E09F938F9302E916E01F9365
S11329800F930E94EE258DB79EB706960FB6F89466
S11329909EBF0FBE8DBFF80101900020E9F731976B
S11329A0E01BF10B6E2FC8010E940A0728C6809114
S11329B013038D7F8093130344E650E060E070E0DE
S11329C08AE00E9412051BC68091F9058231E9F460
S11329D082E190E09F938F9380911601909117016B
S11329E09F938F938AE891E09F938F9387EC95E070
S11329F09F938F930E94EE25ADB7BEB718960FB67E
S1132A00F894BEBF0FBEADBF97C0863019F08D30AD
S1132A1009F047C08091860299279F938F938091F4
S1132A20F90599279F938F9380911601909117012F
S1132A309F938F938DE991E09F938F9387EC95E01B
S1132A409F938F930E94EE25EDB7FEB73A960FB68B
S1132A50F894FEBF0FBEEDBF8091F9058D3019F4D7
S1132A6084E00E9432052091F905309186028EE7B8
S1132A708093E1038093F8038AE090E09093E3036A
S1132A808093E203822F99279093E5038093E403D4
S1132A903093E6036091DA0681EE93E00E945307D7
S1132AA0AEC5893009F4ABC599279F938F93809164
S1132AB01601909117019F938F9388EB91E09F9358
S1132AC08F9387EC95E09F938F930E94EE252DB70B
S1132AD03EB7285F3F4F0FB6F8943EBF0FBE2DBFE1
S1132AE02DC08091DC069091DD06029761F58091FE
S1132AF0DE069091DF069F938F938091160190914B
S1132B0017019F938F938BEC91E09F938F9387ECA6
S1132B1095E09F938F930E94EE254DB75EB7485F73
S1132B205F4F0FB6F8945EBF0FBE4DBF8091DE06B7
S1132B309091DF06429711F480E06EC18091F9050F
S1132B400E94B6075CC58091DB0607EC15E0209176
S1132B50DE063091DF06882309F03FC080918204AD
S1132B60909183048217930789F030938304209310
S1132B70820480910A038D7F80930A03C901AA27E6
S1132B80BB27AC01BD0189E00E9412058091DE06DD
S1132B909091DF069F938F938091DD0699279F93F1
S1132BA08F938091DC0699279F938F9380911601D0
S1132BB0909117019F938F938FED91E09F938F9343
S1132BC01F930F930E94EE258DB79EB70C960FB6F8
S1132BD0F8949EBF0FBE8DBF12C58091E106992760
S1132BE09F938F938091E00699279F938F933F93B0
S1132BF02F9380911601909117019F938F938CEFDF
S1132C0091E09F938F931F930F930E94EE25ADB78E
S1132C10BEB71C960FB6F894BEBF0FBEADBF809171
S1132C20F9054091E1066091E006A2EEB6E0893034
S1132C3041F58EE78093E1038093F80389E090E007
S1132C409093E3038093E2039093E5038093E4037A
S1132C506093E6034093E70328EE33E080E1F90153
S1132C600D9001928A95E1F76091DA06C901079700
S1132C700E9453078AE090E09093E3038093E20379
S1132C80BEC49D010E948E07BAC482E08093DC0317
S1132C90E091FC03F091FD038091D4038083E091E3
S1132CA0FC03F091FD038091F9058183E091FC031D
S1132CB0F091FD0380918204909183048283938335
S1132CC08091140190911501848395838091120160
S1132CD09091130186839783809110019091110143
S1132CE08087918780910E0190910F01828793874D
S1132CF014861586168617868091DC03825F80937E
S1132D00DC0387E03BC380918002882309F477C405
S1132D10809125038D7F809325030E94F4049927D5
S1132D20182F00270E94F4049927082B192B0E94BE
S1132D30F4040E940D0580912707909128078330A1
S1132D40910519F0059751F05AC410928002A80118
S1132D5060E08091F8060E94960C51C410928002A3
S1132D60A80160E08091F8060E94C00C48C48091DC
S1132D702707909128078630910531F0079709F0CD
S1132D803EC4109280023BC41092800210927E02D4
S1132D9036C480917B02813031F46BE070E080E0D6
S1132DA090E00E9457038FB7F894992710927B0202
S1132DB010927C0219C28FB7F89499272091F704D6
S1132DC020930A01E3E0FE2EF0927D028FBF022FD2
S1132DD011270130110519F10230110524F40115F0
S1132DE0110541F00CC40230110569F103301105DD
S1132DF0D9F105C480E00E945A0CE82EFF24EE208D
S1132E0009F4FDC380E00E945A05EE2021F41093DA
S1132E1015010093140181E00E94A904F0C381E02C
S1132E200E94780C082F1127002309F4E8C381E0DD
S1132E300E945A05002321F41092130110921201EA
S1132E400E947503DCC382E00E945A0C082F1127EC
S1132E50002309F4D4C382E00E945A0560E070E0C4
S1132E60802F0E94E604CBC38F2D0E94780C082F7C
S1132E701127002309F4C3C38F2D0E945A0560E073
S1132E8070E0802F0E94A703BAC36BE070E080E07B
S1132E9090E00E945703B3C38898909889989198BA
S1132EA08FE06CC28FB7F894282F33279091770561
S1132EB09093090183E0809379022FBF892F99278A
S1132EC0009711F4BE9AC69A8130910579F0823048
S1132ED091051CF4892B21F092C3029759F08FC3FA
S1132EE081E080935B06109261060AC081E08093C2
S1132EF05B0604C081E080935B0682E080936106F8
S1132F000E94C7027CC310925B0680916106E09028
S1132F10DF03F090E003082F11270130110569F059
S1132F200230110524F40115110529F00BC00230FB
S1132F30110529F007C080E003C081E001C082E0F0
S1132F400E94120201301105B9F0023011051CF47F
S1132F50012B29F054C302301105C9F050C376E0A7
S1132F60F694E7947A95E1F7F0921101E09210015A
S1132F7081E00E947D0243C366E0F694E7946A957B
S1132F80E1F7F0920F01E0920E018CE0F7C156E0F8
S1132F90F694E7945A95E1F78091F7059091F80536
S1132FA02091DD033091DE0380930504892F992756
S1132FB08093040420930704832F992780930604A5
S1132FC0E09209048F2D9927809308048091F505D8
S1132FD09091F6059C0101969093F6058093F50572
S1132FE020930B04832F992780930A0480E0C6C1A1
S1132FF080916C02813049F582E080936C020E94DA
S1133000C200DC01CB018093D5068FB7F894282F3A
S113301033278091690290916A02892B11F02FBFA6
S113302014C081E090E090936A02809369022FBFFC
S1133030DD9A0E94DE01DC01CB0124E130E040E0B6
S113304050E0BC01CD010E947D0885E197C140E0BC
S113305050E068E377E08CE02BEE34E0DB01F9012B
S113306001900D928A95E1F76B50704083E980934B
S113307037078FEF9FEF809333078FEF90E08093B4
S1133080340782E290E080933107409332078FB790
S1133090F894282F332780916C02833021F02FBFBE
S11330A081E090E054C085E080936C027093210726
S11330B0609320078091D5068F5F8093D506809317
S11330C030072FBF8DE080932D0780912E078072EB
S11330D099278164986880932E07892F9927809374
S11330E02F07809100019091010180933507892F6A
S11330F09927809336074093580740935507409388
S1133100560740935A07409359078FB7F894282FCE
S113311033278091630290916402019711F02FBFCD
S113312014C082E090E0909364028093630281E093
S11331308093E70470939F0460939E042FBF0E94C2
S1133140D209882311F40E947D0B80E090E0892B42
S113315019F086E10E948D0080917D04882321F47A
S11331608091400381FF4BC2DA9848EC50E060E064
S113317070E083E00E949B01D9980E947301DC01F6
S1133180CB01F1E0EF2E08EC10E020E030E0AC01E0
S1133190BD018E2D0E945401D8980E947301DC0158
S11331A0CB0108EC10E020E030E0AC01BD0182E08E
S11331B00E94540124C283E080936C0268EE73E0A1
S11331C080E090E00E94BC011AC281E005C08FB784
S11331D0F89499278FBF83E080936C0210C28FB755
S11331E0F894992710926F048FBF09C28FB7F8948F
S11331F0C82EDD2480916802882379F40E9473012B
S1133200DC01CB01E1E0EE2E01E010E020E030E053
S1133210AC01BD018EE00E945401CFBEF0C18FB756
S1133220F894282F332780916802882329F080910D
S113323037038D7F809337032FBFE1C18FB7F89495
S1133240282F332790915C069093020182E08093AB
S113325065022FBF992309F0D2C18FB7F89499273B
S1133260209105018FBF33272130310509F453C064
S1133270223031051CF4232B51F0C1C12230310519
S113328009F47FC02330310509F493C0B8C1C09854
S11332908FB7F894E82EFF248091690290916A0216
S11332A00297B9F583E090E090936A0280936902F3
S11332B068E170E08DE10E94EB0811E01093D20305
S11332C01092680280B3992776E0969587957A954F
S11332D0E1F7812380937D058BE10E948D00812F8E
S11332E00E94E5086FE772E08CE10E94EB08909180
S11332F0080185E0989FC0011124825D9E4F90646F
S1133300BC0188E10E94EB0862EF7AE281E10E944D
S1133310EB08EFBE74C18FB7F894282F3327409180
S113332008018E010F5F1F4F8091060190910701E4
S11333308983892F9927F80181838091FE069091D2
S1133340FF068B83892F99278C832FBFC09885E034
S1133350489FC0011124825D9E4F9064BC0188E1A6
S11333600E94EB0824E0A80160E088E691E00E9456
S1133370FB08C09A81E00E94E1098AE10E948D0065
S11333803EC18FB7F8949927209163028FBF3327EA
S11333902230310521F02430310521F006C00E948D
S11333A07D0B2DC10E94670A2AC182E00E94E109B7
S11333B026C10E941A0B23C1A091AF02B091B002A2
S11333C08C919D01280F311DF9018081881F882768
S11333D0881FFD0182A7F90182919F012F5F3F4F52
S11333E0FD0180A7F90180818F77FD0181A72091DC
S11333F0AF023091B00229873A87255F3F4F2B8770
S11334003C87E985FA8587819927382F2227868189
S11334109927282B392B80910001909101012817BD
S1133420390721F02F5F3F4F09F0E1C089859A8564
S11334300E94DA01833909F0DAC0E985FA858385C7
S11334409927AA27BB27D82ECC24BB24AA24EB85F2
S1133450FC8581819927AA27BB27DC019927882726
S1133460A82AB92ACA2ADB2A82819927AA27BB2734
S1133470BA2FA92F982F8827A82AB92ACA2ADB2A63
S113348083819927AA27BB27A82AB92ACA2ADB2A13
S1133490A8862B2C3C2C4D2C55242F8236018824B5
S11334A099246E822D2D3327442755272D8380910F
S11334B0FA069927AA27BB27182F0027FF24EE24F2
S11334C08091FB069927AA27BB27DC019927882727
S11334D0E82AF92A0A2B1B2B8091FC069927AA2794
S11334E0BB27BA2FA92F982F8827E82AF92A0A2B55
S11334F01B2B8091FD069927AA27BB27E82AF92AC6
S11335000A2B1B2B822F9927AA27BB27B82FAA2760
S113351099278827262D332744275527A9013327A0
S11335202227822B932BA42BB52B222D3327442720
S11335305527542F432F322F2227822B932BA42B32
S1133540B52B2A2D332744275527822B932BA42BC5
S1133550B52BE816F9060A071B0708F048C0809146
S1133560400381FF03C08D7F809340032B853C85FE
S113357021153105C9F1F90182859927582F44276E
S1133580E985FA8586899927482B592B80910A0465
S11335909927982F882720910B043327822B932B6C
S11335A08417950708F55093F6054093F505809127
S11335B02407282F33274CE050E0249FF001259F57
S11335C0F00D349FF00D1124EE5BFC4F8CE0AB85C5
S11335D0BC850D9001928A95E1F7C9010196BA0163
S11335E00E94092B8093240781E00E948D00E985C5
S11335F0FA85F093B002E093AF020E94470B2C9639
S11336000FB6F894DEBF0FBECDBFDF91CF911F91EF
S11336100F91FF90EF90DF90CF90BF90AF909F906D
S11336208F907F906F905F904F903F902F90089570
S11336308091F7068F3FD1F09091F7068091F706BD
S1133640E82FFF27E050F94F80818093F70680919F
S1133650F7068F3F11F480932207892F9927FC01E5
S1133660E050F94F2FEF20839C0102C02FEF30E090
S11336702F3F19F480E090E00895822F0E943211C8
S113368081E090E00895CFEFD0E1DEBFCDBF8FB7EA
S1133690F894C82F4FE150E06FEF70E080E097E0BE
S11336A00E94E7258FEF8093F7068093220781E03D
S11336B08EBD88E080BF83E083BF2CB53DB54AE76B
S11336C08CB59DB58217930708F441509C0144239F
S11336D0B9F792B782B78917E9F32CB53DB592B71C
S11336E082B78917E9F38CB59DB5821B930B40967D
S11336F065E0969587956A95E1F79093F405809334
S1133700F30513BE83B78EBD8EB580BF12BE1DBC3C
S11337101CBC8FEF86BF86B780937C0080B7282FB0
S113372033272770307021153105C1F7D29AD19A09
S1133730D09ADA9AD99AD89A25BB8FEF84BBD498B9
S1133740DC983DBD2CBD87B7846087BF8EB5887F6C
S113375084608EBD16B880B7886080BF80E285BF64
S11337600E94181B8823E1F780911601909117019C
S11337700196AA27BB278093750490937604A0939F
S11337807704B09378048FEF8093D50380916C0213
S1133790882319F481E080936C02B89AD69AD59A5A
S11337A080910001909101019093FF068093FE06A1
S11337B08E98B89A8C9882E696E09093B0028093A3
S11337C0AF020091F3051091F405C801AA27BB27A5
S11337D05CE0880F991FAA1FBB1F5A95D1F7BC0143
S11337E0CD0120E031EE40E050E00E941C2BDA01D4
S11337F0C901019789B9892F99278093900082E0A4
S11338008BB986E0809395001AB8C801AA27BB2714
S11338103CE0880F991FAA1FBB1F3A95D1F7BC0142
S1133820CD0120E031EE40E050E00E941C2BDA0193
S1133830C901019780939900892F99278093980053
S113384082E080939B0086E080939D0010929A0012
S11338501092FB038FEF9FEFAFEFBFEF8093290729
S113386090932A07A0932B07B0932C0700B602FC71
S1133870FDCF12BE87B7816087BF83B7887F83601F
S113388000B600FCFDCF83BF0E94181B9927882334
S1133890D9F7CFBF7894809371021092700210927E
S11338A06F0210926E0210926D02569A539A579AB2
S11338B0549A539A549A84E00E948D004BE650E047
S11338C060E070E08FE00E94120585E10E948D00A7
S11338D08FB7F894482F4AC087B79927887B892BDC
S11338E041F480917D00282F33272B7F211531054A
S11338F019F020E030E02AC06F9928C08AB1807C9A
S113390029F580919A00807C09F5379B03C021E05A
S113391030E01CC087B7992783709070892BA1F081
S113392080B7992787709070892BD1F781B792B7A8
S1133930891B8C3018F082B7853F18F022E030E004
S113394005C023E030E002C025E030E0E5E02E17BA
S113395008F4E22F85B7837EFF27E653FF4F949147
S1133960892B806285BF78948895F8948091F706B6
S11339708F3FC9F09091F7068091F706E82FFF2753
S1133980E050F94F80818093F7068091F7068F3FCE
S113399011F480932207892F9927FC01E050F94FF5
S11339A02FEF208302C08FEF90E08F3F09F494CF74
S11339B04FBF0E9432118CCF83B783BF00B600FC87
S11339C0FDCF08951F920F920FB60F9211242F93DB
S11339D03F934F935F936F937F938F939F93AF9393
S11339E0BF93CF93EF93FF930E94DC1C87B78D7F27
S11339F087BF78948FB7F894C82F809179049091F9
S1133A007A04A0917B04B0917C040097A105B105D0
S1133A1021F482E00E948D0002C00E941B06CFBFE9
S1133A20FF91EF91CF91BF91AF919F918F917F9132
S1133A306F915F914F913F912F910F900FBE0F9017
S1133A401F9018951F920F920FB60F9211242F9367
S1133A503F934F935F936F937F938F939F93AF9312
S1133A60BF93EF93FF930E94DC1C8091E805909133
S1133A70E905A091EA05B091EB050196A11DB11DE0
S1133A808093E8059093E905A093EA05B093EB05CC
S1133A908091E804882339F081508093E8048823D6
S1133AA011F40E941B06FF91EF91BF91AF919F917A
S1133AB08F917F916F915F914F913F912F910F90D3
S1133AC00FBE0F901F9018951F920F920FB60F9272
S1133AD011240F900FBE0F901F9018951F920F92F4
S1133AE00FB60F9211242F933F934F935F936F93CD
S1133AF07F938F939F93AF93BF93EF93FF9389B774
S1133B008D7F89BF8DE00E948D00FF91EF91BF9161
S1133B10AF919F918F917F916F915F914F913F9161
S1133B202F910F900FBE0F901F9018951F920F9218
S1133B300FB60F9211240F900FBE0F901F9018957F
S1133B401F920F920FB60F9211240F900FBE0F9079
S1133B501F9018951F920F920FB60F9211240F9079
S1133B600FBE0F901F9018951F920F920FB60F92D1
S1133B7011240F900FBE0F901F9018951F920F9253
S1133B800FB60F9211242F933F934F935F936F932C
S1133B907F938F939F93AF93BF93EF93FF93809102
S1133BA0720490917304019719F40E94350B05C0B7
S1133BB0809125078F5F80932507FF91EF91BF9137
S1133BC0AF919F918F917F916F915F914F913F91B1
S1133BD02F910F900FBE0F901F9018951F920F9268
S1133BE00FB60F9211240F900FBE0F901F901895CF
S1133BF01F920F920FB60F9211242F933F934F935E
S1133C005F936F937F938F939F93AF93BF93EF9340
S1133C10FF9364B175B178948FB7F894282F332744
S1133C2080911F07482F469541702FBF282F217080
S1133C3080FD1CC0339880915B06992781309105E3
S1133C4019F0029759F028C0442351F07093E0030F
S1133C506093DF0384E10E948D001EC0442319F4A5
S1133C600E94C70219C020935B0616C08FB7F89450
S1133C7099278FBF8FB7F894482F552786B1806155
S1133C808777282F332726B98F7B282F332726B908
S1133C908068992786B94FBFFF91EF91BF91AF918B
S1133CA09F918F917F916F915F914F913F912F9150
S1133CB00F900FBE0F901F9018951F920F920FB682
S1133CC00F9211248F935F998CB18F910F900FBE37
S1133CD00F901F90189578941F920F920FB60F9221
S1133CE011242F933F934F935F936F937F938F93FD
S1133CF09F93AF93BF93EF93FF9380916F02909143
S1133D00700201969093700280936F028F37910531
S1133D1020F01092700210926F0280916D029091C7
S1133D206E028F37910520F010926E0210926D0290
S1133D30E0916F02F091700280916D0290916E0299
S1133D40E817F90731F0E850FB4F80810E94020721
S1133D5002C010927102FF91EF91BF91AF919F91B8
S1133D608F917F916F915F914F913F912F910F9020
S1133D700FBE0F901F9018951F920F920FB60F92BF
S1133D8011242F933F934F935F936F937F938F935C
S1133D909F93AF93BF93EF93FF9380919B0087FF13
S1133DA0D1C140919C0080917202882321F44E3746
S1133DB009F0C8C106C020917302233050F44E3775
S1133DC041F481E0809372024093FA058093730278
S1133DD0B9C1E22FFF27E650FA4F40832F5F2093AB
S1133DE073029091FB05933049F58091DA06281708
S1133DF009F098C1109272024E3709F09BC180916C
S1133E00FD058093F905863021F0893011F08D305D
S1133E1081F48AE08093D4038091F9058D3061F4B4
S1133E208FEF8093D8031092D20688E00E948D0011
S1133E3003C082E08093D40386E071C1923009F01C
S1133E404CC08091DA06281709F06CC110927202F6
S1133E504E3709F06FC19093DC03E091FC03F091BD
S1133E60FD038091D4038083E091FC03F091FD0372
S1133E708091F9058183E091FC03F091FD03809129
S1133E8082049091830482839383809101069091AC
S1133E9002068483958380910306909104068683A9
S1133EA0978380910506909106068087918780917B
S1133EB0070690910806828793878091090690915E
S1133EC00A068487958780910B0690910C06868755
S1133ED097878091DC03825F1FC1993009F09DC0F0
S1133EE08091DA06281709F01DC1109272024E372C
S1133EF009F020C182E08093DC038091F9058D30C4
S1133F00F1F48091FF05833109F016C18091160107
S1133F10909117019F938F9389E192E09F938F93E0
S1133F2087EC95E09F938F930E94EE258DB79EB703
S1133F3006960FB6F8949EBF0FBE8DBFFDC08930A4
S1133F4059F488E1AAEFB5E0E4E8F4E00D900192B9
S1133F508A95E1F7892FE3C08E3029F0843019F077
S1133F60853009F0E9C0E091FC03F091FD038091F4
S1133F70D4038083E091FC03F091FD038091F90563
S1133F808183E091FC03F091FD0380918204909180
S1133F908304828393838091010690910206848333
S1133FA0958380910306909104068683978380917C
S1133FB00506909106068087918780910706909167
S1133FC00806828793878091090690910A06848760
S1133FD0958780910B0690910C0686879787809130
S1133FE0DC03825F8093DC038091160190911701BA
S1133FF09F938F9380E392E09F938F9387EC95E058
S11340009F938F930E94EE258DB79EB706960FB6A9
S1134010F8949EBF0FBE8DBF81C0913019F09A30C5
S113402009F08AC080917404281709F07BC01092AB
S113403072024E3709F07EC082E08093DC03E09187
S1134040FC03F091FD038091D4038083E091FC0391
S1134050F091FD038091F90581838091F9058D30FC
S113406009F03FC0109281028FEF8093D8038091B2
S1134070FF0599279F938F938091160190911701C3
S11340809F938F938AE492E09F938F9387EC95E0BC
S11340909F938F930E94EE258DB79EB708960FB617
S11340A0F8949EBF0FBE8DBF9091FF05903F19F409
S11340B01092860216C0809101068A3029F48091FC
S11340C002068A3A39F00AC08A3A41F4809102061B
S11340D08A3021F484E00E94320503C09F5F9093EC
S11340E08602E091FC03F091FD0380910006828337
S11340F02091FC033091FD03809100069927AC01C7
S113410061E076E0C90103960E94DE258091DC031C
S113411090910006890F8F5F8093DC0387E00E94F3
S11341208D000AC09927029733278217930724F436
S11341304E3711F41092720280917302813610F09E
S113414010927202FF91EF91BF91AF919F918F9165
S11341507F916F915F914F913F912F910F900FBE7F
S11341600F901F90189578941F920F920FB60F928C
S113417011242F933F934F935F936F937F938F9368
S11341809F93AF93BF93EF93FF93809176029091A7
S11341907702019690937702809376028036910598
S11341A020F010927702109276028091740290911E
S11341B075028036910520F01092750210927402F7
S11341C0E0917602F09177028091740290917502E9
S11341D0E817F90731F0E45FFB4F80810E9445073F
S11341E002C010927802FF91EF91BF91AF919F911D
S11341F08F917F916F915F914F913F912F910F908C
S11342000FBE0F901F90189578941F920F920FB6BF
S11342100F9211242F933F934F935F936F937F9348
S11342208F939F93AF93BF93CF93EF93FF9387B7EE
S11342308F7E87BF78948FB7F894C82F8091F20649
S11342409091F306A091F406B091F5060097A105AC
S1134250B10509F053C080916302909164028430E7
S1134260910541F18530910518F4039721F034C08C
S1134270079739F131C080B3992776E096958795F1
S11342807A95E1F780FF13C084E090E09093640294
S1134290809363020E94DE01DC01CB0127E030E061
S11342A040E050E0BC01CD010E947D0815C00E9491
S11342B09B0812C00E94D209882371F40E94670AE5
S11342C00BC081E090E090936402809363021092AB
S11342D06B0289E10E948D008091690290916A02CB
S11342E0019771F482E090E090936A0280936902EE
S11342F0DE98DE9A80E00E94AF0902C00E94CF07D8
S1134300CFBFFF91EF91CF91BF91AF919F918F91CB
S11343107F916F915F914F913F912F910F900FBEBD
S11343200F901F90189578941F920F920FB60F92CA
S113433011240F900FBE0F901F90189578941F9220
S11343400F920FB60F9211240F900FBE0F901F9073
S1134350189578941F920F920FB60F9211241F9301
S11343602F933F934F935F936F937F938F939F9379
S1134370AF93BF93CF93DF93EF93FF93CCB5DDB5AA
S113438080E286BF8FB7F894182F809163029091D2
S113439064028530910519F0069739F157C080E021
S11343A00E94D20882E00E94E10987B78F7E87BF0E
S11343B086E090E09093640280936302E0919E040F
S11343C0F0919F048181992787709070019721F45F
S11343D0C5A78D2F992784A780B39927A4E0969524
S11343E08795AA95E1F780FD77C081E00E94D20805
S11343F0E0919E04F0919F04818185FF13C087E0C2
S113440090E090936402809363020E94DE01DC01D9
S1134410CB0120E830E040E050E0BC01CD010E9437
S11344207D080BC081E090E0909364028093630266
S113443010926B0289E10E948D0080B39927F4E009
S113444096958795FA95E1F780FF46C080916202C0
S1134450882351F50E94D20840915A064830A0F4AE
S11344608091E705840F912D911D9C01887F9370A5
S1134470281BE22FFF27EE0FFF1FE55AF84FC083DA
S1134480D1834F5F40935A0681E080936202D093B8
S1134490D406C093D30680B39927E4E09695879514
S11344A0EA95E1F780FD18C0809162028823A1F0AB
S11344B081E00E94D208109262028091D30690910A
S11344C0D406C81BD90B2A9738F480915A0688233E
S11344D019F0815080935A061FBFFF91EF91DF912D
S11344E0CF91BF91AF919F918F917F916F915F9188
S11344F04F913F912F911F910F900FBE0F901F90DE
S1134500189578941F920F920FB60F9211242F933F
S11345103F938F939F938FB7F894282F33278091DD
S1134520F9039091FA0301969093FA038093F903A7
S11345302FBF9F918F913F912F910F900FBE0F909E
S11345401F9018951F920F920FB60F921124EF929D
S1134550FF920F931F932F933F934F935F936F9308
S11345607F938F939F93AF93BF93CF93DF93EF93F7
S1134570FF938FB1282F3327E091D603F091D7030F
S1134580309739F08091FE039091FF03E80FF91FF3
S113459020838091FE039091FF0301969093FF0383
S11345A08093FE0380E00E9424092091FE03309151
S11345B0FF0380915F06909160062817390718F46D
S11345C00E94920A35C1E090D603F090D70310926E
S11345D0D7031092D6031092EA041092E9041092C1
S11345E0600610925F061092FF031092FE038FB1D3
S11345F080919006909191062091900686FFD3C0F9
S11346002F7B822F99278E33910509F411C1CF97FF
S113461009F00EC1C091AF02D091B002188180910F
S11346207204909173048230910521F0039709F488
S113463044C0B4C083E090E0909373048093720408
S1134640412F55279A012F5F3F4F6091D903862F41
S11346509927821793077CF40E949C05C09AC098FE
S113466088E00E94E50888E00E94E508C09A83E09B
S11346700E94E10990C080E090E0B79B02C081E015
S113468090E0892B69F481B1992726E09695879566
S11346902A95E1F780FD04C0611B61506093D90342
S11346A0193220F4BE016F5F7F4F02C060E070E0FA
S11346B080E090E00E94000BBBC0C09A83E00E949F
S11346C0E10980915A06882309F11B3028F1809171
S11346D0E705E82FFF27EE0FFF1FE55AF84F80810B
S11346E091818DA7892F99278CA78091E705992718
S11346F001969C01287F3170821B930B8093E70500
S113470080915A06815080935A0606C08FEF9FEF1E
S11347108DA78FEF90E08CA7FE01E10FF11D808142
S113472087FF39C0EF28B9F169816770E091AF0262
S1134730F091B002623049F5A0919E04B0919F04BB
S113474020818091630290916402079721F5ED0125
S11347509B8183818917F9F487B78F7E87BF81E0B6
S11347608BA7E20FF11D8291319688A780818F7704
S113477089A781E090E09093640280936302109291
S11347806B0289E10E948D0006C0613021F48EE144
S11347900E948D004DC00E94470B4AC0C09A83E01E
S11347A00E94E10945C02E3309F042C0C09A8091AD
S11347B0630290916402089739F481E090E0909349
S11347C064028093630234C08091E704882349F42F
S11347D084E090E090936402809363020E94670AED
S11347E027C082E00E94E10983E090E09093640294
S11347F0809363020E94C200DC01CB018F71907030
S113480001969C01C3E0220F331FCA95E1F7280FDC
S1134810391F280F391F7901002711270E94DE0153
S1134820DC01CB01A8019701BC01CD010E947D08E8
S1134830FF91EF91DF91CF91BF91AF919F918F91B4
S11348407F916F915F914F913F912F911F910F91A4
S1134850FF90EF900F900FBE0F901F901895A0E35C
S1134860B0E0E5E3F4E20C945D2B222E332E442ECB
S1134870552E662E772E882E992E2A2D3B2DA8E0B4
S1134880FE013196AA2E1192AA94E9F729823A825E
S11348904B825C826D827E828F829886FE0139967D
S11348A0BA2E1192BA94E9F729873A87CB86DC8627
S11348B0ED86FE860F87188BFE0171961192AA95DC
S11348C0E9F7C980DA80EB80FC80C9A6DAA6EBA6FA
S11348D0FCA6870176018FEF9FEFA0E0B0E0E8220D
S11348E0F9220A231B23A9A4BAA4CBA4DCA416018D
S11348F04424552489859A85AB85BC858DA79EA7BC
S1134900AFA7B8AB5C016D018FEF9FEFA0E0B0E003
S1134910A822B922CA22DB228DA59EA5AFA5B8A9DB
S11349203D0188249924C801B701A60195010E947C
S11349303E2B69A37AA38BA39CA3C801B701A4014E
S113494093010E943E2B6DA37EA38FA398A7C2015F
S1134950B101A60195010E943E2B7B018C01C2018D
S1134960B101A40193010E943E2B9B01AC01A9A0BB
S1134970BAA0CBA0DCA0C601AA27BB27ADA0BEA0CD
S1134980CFA0D8A4A80EB91ECA1EDB1EAE0CBF1C35
S1134990C01ED11EADA2BEA2CFA2D8A6AE14BF0423
S11349A0C006D10620F4205030404F4F5F4FCDA0B9
S11349B0DEA0EFA0F8A4C701AA27BB27820F931F8C
S11349C0A41FB51F8D8F9E8FAF8FB8A3A601332769
S11349D0222789A19AA1ABA1BCA1A070B070280F15
S11349E0391F4A1F5B1F298F3A8F4B8F5C8FA98C0D
S11349F0BA8CCB8CDC8CED8CFE8C0F8D18A1ED8ADF
S1134A00FE8A0F8B188F2D853E854F85588969A5A1
S1134A107AA58BA59CA50E943E2B3B014C018D8160
S1134A209E81AF81B885BC01CD012DA53EA54FA5C2
S1134A3058A90E943E2BDC01CB01680E791E8A1E08
S1134A409B1E8D899E89AF89B88D860D971DA81DE3
S1134A50B91D8D8B9E8BAF8BB88F6D897E898F89A5
S1134A60988D2A2D3B2D4C2D5D2DE2E1E0960C9482
S1134A70792B8F929F92AF92BF92CF92DF92EF9257
S1134A80FF920F93CF93DF93CDB7DEB768970FB63E
S1134A90F894DEBF0FBECDBFE82E002349F4298B66
S1134AA03A8B4B8B5C8B6D8B7E8B8F8B988F6CC012
S1134AB088E0FE01319611928A95E9F729833A83B9
S1134AC04B835C836D837E83EF82988740E2401B37
S1134AD014160CF041C08D819E81AF81B8856C01A4
S1134AE07D0104C0CC0CDD1CEE1CFF1C4A95D2F7E2
S1134AF0202F332727FD3095022E04C0B695A795A5
S1134B00979587950A94D2F78D879E87AF87B88B40
S1134B1089819A81AB81BC8104C0B695A79597958C
S1134B2087952A95D2F78C299D29AE29BF29898793
S1134B309A87AB87BC8729853A854B855C856D85CB
S1134B407E858F859889298B3A8B4B8B5C8B6D8BFB
S1134B507E8B8F8B988F18C01D861E861F86188AA1
S1134B60842F992787FD909522273327281B390BFB
S1134B708D819E81AF81B88504C0B695A795979520
S1134B8087952A95D2F7D3CF29893A894B895C89AD
S1134B906D897E898F89988D68960FB6F894DEBFEB
S1134BA00FBECDBFDF91CF910F91FF90EF90DF90BB
S1134BB0CF90BF90AF909F908F900895FB01DC0140
S1134BC002C001900D9241505040D8F70895DC0185
S1134BD001C06D9341505040E0F708950F931F9327
S1134BE0CF93DF93CDB7DEB72C970FB6F894DEBF23
S1134BF00FBECDBF0B891C892D893E8946E04C83AD
S1134C0009831A838FEF9FE78D839E83AE01495EEC
S1134C105F4FB901CE0101960E941E26EF81F885EF
S1134C20E00FF11F10822C960FB6F894DEBF0FBE72
S1134C30CDBFDF91CF911F910F9108952F923F9295
S1134C404F925F926F927F928F929F92AF92BF9298
S1134C50CF92DF92EF92FF920F931F93CF93DF9344
S1134C60CDB7DEB762970FB6F894DEBF0FBECDBFE7
S1134C70EE24FF2487011C016D877E872A01CC2442
S1134C80DD24FC01C682D782838181FD80C28FEF3F
S1134C909FEF90C28D859E8501968D879E87C0FE6D
S1134CA063C28F8580538A30D0F49F85903339F462
S1134CB0662029F4C3FC03C0E0E0F1E093C08AE07D
S1134CC0689E602C1124FF856F0E20ED620E67FE36
S1134CD002C0EFE76E2EC3FC5AC2762C58C296016E
S1134CE073E0369527957A95E1F720FF04C0662096
S1134CF011F461E0662E4F85842F992787FD9095E6
S1134D00883691058CF5853691050CF06EC0833597
S1134D10910509F493C084359105CCF48B32910547
S1134D2009F449C08C3291054CF48032910509F4A0
S1134D3046C08332910509F44AC010C28D329105F0
S1134D4009F440C08E32910509F444C007C2833689
S1134D50910509F450C0843691050CF08AC0883559
S1134D60910509F4BCC0FAC18037910509F4B1C0BA
S1134D708137910584F48C36910591F18D36910536
S1134D802CF48936910509F474C0E8C18F36910575
S1134D9009F49CC0E3C18537910509F4A2C08637A4
S1134DA0910524F48337910571F1D8C188379105B1
S1134DB009F495C0D3C180E190E0C82AD92AE0E281
S1134DC0F0E010C080E890E0C82AD92AE0C1E0E40D
S1134DD0F0E008C088E090E0C82AD92A6624D7C148
S1134DE0E4E0F0E0CE2ADF2AD2C15FE3E52E7A9434
S1134DF0F3E6FF8744C1F20182E090E0480E591EB9
S1134E00E0807A943CC1F20182E090E0480E591EA1
S1134E10A081B1817D0120FF09C0862D992787FDDE
S1134E209095BC01CD010E942F291FC0FD01019066
S1134E300020E9F73197EA1BE88B18C0F20182E001
S1134E4090E0480E591E0190F081E02D7F0120FF73
S1134E5009C0862D992787FD9095BC01CF010E943A
S1134E603A2903C0CF010E942629888B9889791A90
S1134E7006C1C2FE0AC0F20184E090E0480E591E49
S1134E8020813181428153810CC0F20182E090E0A3
S1134E90480E591E808191819C01442737FD40951D
S1134EA0542F79018A0157FF0CC0E2E0F0E0CE2ACA
S1134EB0DF2A10950095F094E094E11CF11C011D8B
S1134EC0111D8FEB9FEFC822D92227C098E0988B41
S1134ED008C0E0E4F0E0CE2ADF2AF8E7FF8720E10B
S1134EE0288BC2FE0AC0F20184E090E0480E591EED
S1134EF020813181428153810AC0F20182E090E035
S1134F00480E591E808191819C01442755277901BF
S1134F108A01EFECFFEFCE22DF22CE010196898BCE
S1134F209A8B9889892E9924AA24BB24C801B70195
S1134F30A50194010E941C2BDC01CB01E989FA89AB
S1134F4080838A3024F0FF858F0F815201C0805DF9
S1134F50E989FA898193E98BFA8BC801B701A50124
S1134F6094010E941C2B79018A0121153105410508
S1134F705105E1F6E98881E090E08C0F9D1FE81A65
S1134F80C60182739070892B09F07A94C6FE0DC015
S1134F90872D992787FD9095E889E03121F44EEF1C
S1134FA0742E780E02C0782E7A94C3FE0FC0262D7C
S1134FB0332727FD30958E2D9927821793072CF0E0
S1134FC087EF9FEFC822D92201C06E18560133E043
S1134FD0B694A7943A95E1F7A0FE02C0761801C0F2
S1134FE07E18C60180789170892B51F4872D7A94AC
S1134FF0181634F4B10180E290E00E94F328F6CF51
S1135000C1FE04C0B1018DE290E00BC0C4FE04C037
S1135010B1018BE290E005C0C5FE05C0B10180E29C
S113502090E00E94F328C6FE10C0B10180E390E036
S11350300E94F3289889903141F4B101EF858E2FB5
S1135040992787FD90950E94F3288D2D992780FF3D
S11350500AC0872D7A94181634F4B10180E390E0E5
S11350600E94F328F6CFA0FE0AC0862D6A94181673
S113507034F4B10180E390E00E94F328F6CF5601A6
S1135080AA0CAB2CAA1CBB08B194A0FC0AC0872DA7
S11350907A94181634F4B10180E290E00E94F32867
S11350A0F6CFFF85F33641F48E2DB101992787FDA4
S11350B090950E94F32846C02F852337B9F4488978
S11350C04150488B4F3F09F43DC0F701808108945B
S11350D0E11CF11CB101992787FD90950E94F328EA
S11350E088898150888B8F3F81F72CC09F859335A9
S11350F0A1F4E889E150E88BEF3F21F1F7018491B5
S1135100B10199270E94F3280894E11CF11CF88945
S1135110F150F88BFF3F91F715C06E010894C11C44
S1135120D11C89899A898C159D0561F0E989FA89D0
S11351308291E98BFA8BB101992787FD90950E94A2
S1135140F328EFCFA0FE0DC0872D7A9418164CF4E7
S1135150B10180E290E00E94F328F6CFB1010E94F1
S1135160F328CC24DD2413C09F85953241F481E0DB
S1135170C82ED12C6624762CEAE0E88B08C0B10155
S1135180FF858F2F992787FD90950E94F328F101C1
S1135190838183FF04C0ED85FE85F49103C0ED8512
S11351A0FE85F081FF872F85222309F073CDF1015D
S11351B08681978162960FB6F894DEBF0FBECDBF8D
S11351C0DF91CF911F910F91FF90EF90DF90CF90DF
S11351D0BF90AF909F908F907F906F905F904F9013
S11351E03F902F9008950F931F93CF93DF938C01DB
S11351F0EB018B81992781FF22C082FF14C02E818D
S11352003F818C819D81281739073CF4E881F9811D
S11352100193E883F9832E813F812F5F3F4F2E83D3
S11352203F83C8010EC0E885F985802F0995892B35
S113523031F4AE81BF811196AE83BF83F2CF8FEF7D
S11352409FEFDF91CF911F910F910895FC0105907D
S11352500020E9F7809590958E0F9F1F0895FC011B
S11352606150704001900110D8F7809590958E0F91
S11352709F1F0895FC016150704005900110D8F7FC
S1135280809590958E0F9F1F08955058192EF7D032
S113529001D0DAC0BA176207730784079507B1F122
S11352A088F40EF410940B2EBA2FA02D062E622F24
S11352B0202D072E732F302D082E842F402D092EDC
S11352C0952F502DFF275523B9F0591B49F0573E10
S11352D098F0469537952795A795F0405395C9F7CB
S11352E076F0BA0F621F731F841F30F48795779589
S11352F06795B795F040939517FA0F2E0895BF1B45
S1135300BB27BA0B620B730B840BF6CFDEF6D4C04B
S1135310592F482F372F262F9FE380E877276627BA
S1135320AED001D091C0552359F0992369F09F570D
S11353305F57951B33F442F4903811F4915805C02B
S11353409BC091589F3F09F4B7C0BB271124621733
S11353507307840730F4660F771F881FBB1F9150B3
S113536098F311D00F920FD00F920DD0A0E826170A
S1135370370748071B0609F0A048BA2F602D7F9114
S11353808F9100240895A0E800246217730784070E
S1135390B10528F0621B730B840BB1090A2A660F4E
S11353A0771F881FBB1FA69581F7089597FB73D0BD
S11353B09F3738F0FEE9F91B982F872F762F6B2F34
S11353C005C077C09695879577956795F150D0F786
S11353D03EF490958095709561957F4F8F4F9F4FC8
S11353E00895E89403C097FB0EF4F3DFB62F672FFC
S11353F0782F892F9EE9002427C00ED05EF004C0C8
S11354000BD026F001C008D019F020F48FEF0895D6
S113541080E0089581E0089597FB092E052600F8A1
S1135420689430D0E89407FC07C0621773078407B8
S1135430950721F008F400940794989408959A9598
S1135440BB0F661F771F881F11249923A1F088239F
S1135450B2F79F3F59F0BB0F48F421F4002011F438
S113546060FF04C06F5F7F4F8F4F9F4F881F9795DA
S1135470879597F908951DC09FEF80EC0895052E38
S1135480092607FA440F551F5F3F79F0AA27A5178D
S113549008F051E04795880F991F9F3F31F0BB27D3
S11354A0B91708F091E0879508959F919F91112471
S11354B0E3CF66277727882799270895592F482F00
S11354C0372F262FDCDF01D0BFCF992339F05523A6
S11354D029F09F575F57950F13F4CAF1EDCF9158F8
S11354E09F3FE1F3A62F00241124BB2766275527ED
S11354F0F8E0A69520F4020E131EB41F651F220FB8
S1135500331F441F551FFA95A1F7F8E0E72F7727BB
S1135510F8E0E69520F4130EB41F651F7A1F330FCD
S1135520441F551FAA1FFA95A1F7F82F8827F6954F
S113553020F4B40F651F7A1F8E1F440F551FAA1F36
S1135540EE1FFF23A1F788231AF4939539F494CF1F
S1135550000C111CBB1F661F771F881F01280895AC
S113556097FD8ACF482F9923F9F195DFF92FFF573B
S1135570F5959F1B9F1BFF93405847953327222780
S113558040685FE7E894FF92EF92DF92CF92BF9278
S1135590AF929F928F92C92ED82EE72EF62E6F2DA2
S11355A07E2D8D2D9C2D852E942EA32EB22EBBDE0A
S11355B0582D492D3A2D2B2D11246CDE9A95592FF7
S11355C0482F372F262FB216A3069406850639F7DF
S11355D08F909F90AF90BF90CF90DF90EF90FF900F
S11355E00F90900D002430CF0895AA1BBB1B51E1EE
S11355F007C0AA1FBB1FA617B70710F0A61BB70B3F
S1135600881F991F5A95A9F780959095BC01CD01E3
S1135610089597FB092E07260AD077FD04D0E5DF0D
S113562006D000201AF4709561957F4F0895F6F71F
S1135630909581959F4F0895A1E21A2EAA1BBB1B3A
S1135640FD010DC0AA1FBB1FEE1FFF1FA217B3074A
S1135650E407F50720F0A21BB30BE40BF50B661F60
S1135660771F881F991F1A9469F760957095809524
S113567090959B01AC01BD01CF010895629FD001BB
S1135680739FF001829FE00DF11D649FE00DF11DF9
S1135690929FF00D839FF00D749FF00D659FF00DA8
S11356A09927729FB00DE11DF91F639FB00DE11D95
S11356B0F91FBD01CF01112408952F923F924F92FB
S11356C05F926F927F928F929F92AF92BF92CF928E
S11356D0DF92EF92FF920F931F93CF93DF93CDB797
S11356E0DEB7CA1BDB0B0FB6F894DEBF0FBECDBF0F
S11356F009942A88398848885F846E847D848C84E0
S11357009B84AA84B984C884DF80EE80FD800C81E8
S11357101B81AA81B981CE0FD11D0FB6F894DEBFCB
S10B57200FBECDBFED01089599
S11357280100FFFFFFFF22001A0304FFFF01FFFF30
S1135738FFFFFFFFFFFF010054454D50200048556F
S11357484D4944005552656420002573204156474D
S1135758205374446576200025346420253464205D
S113576825366400256420433332385F52657365F7
S1135778745F54696D65723A25640D0A00256420C6
S11357886D79417070547970653A25582C206D797B
S11357984F7074547970653A25580D0A00544C4377
S11357A8442053573A25640D0A002564206765741C
S11357B853466972655F423A25640D0A00256420E0
S11357C867657453466972655F4C3A25582C2053B3
S11357D865713A25640D0A0025642067657453468B
S11357E86972655F533A25640D0A00256420522DB9
S11357F8476574532D434D445B25645D0D0A0025AC
S11358086420522D53432D434D442121205B2564AC
S11358182C2025642C2025645D0D0A002564205263
S11358282D4F432D434D442121205B25642C2025F5
S1135838642C2025645D0D0A002564207265637656
S113584820535542434D44315F4641494C0D0A00AB
S1135858256420726563762070617273696E675F70
S1135868636F6E74726F6C0D0A0025642070617228
S113587873696E675F6C6F6E6744543A25640D0AEA
S105588800001A
S9030000FC
