S01900006275696C642F7A69676265782F6D61696E2E737265636F
S11300000C945F000C944D130C9457130C947F13B1
S11300100C9489130C9493130C949D130C94A713B0
S11300200C94B1130C947C000C947C000C947C0014
S11300300C947C000C947C000C947C000C94CB12EB
S11300400C940B130C947C000C9420140C947C00E2
S11300500C942E140C94BB130C947C000C947C0014
S11300600C947C000C947C000C947C000C947C001C
S11300700C947C000C947C000C947F140C947C00F5
S11300800C9476160C947C000C947C002B0B5D0B6A
S1130090B60BDA0BF10B130C8E0C9F0CE20C050D56
S11300A04411120D9F0D730EB10EE50EF70E0A0FDB
S11300B0730F7A0F800FB10F00081C18141011244D
S11300C01FBECFEFD0E1DEBFCDBF12E0A0E0B1E0B4
S11300D0EEE4F8E300E00BBF02C007900D92A835F0
S11300E0B107D9F715E0A8E5B2E001C01D92A93E19
S11300F0B107E1F70C947E110C9400008FB7F894CB
S1130100992708958FBF0895282F869586958695FB
S1130110E82FFF27E25CFC4F277081E090E002C0EB
S1130120880F991F2A95E2F720812823822F992787
S11301300895982F8FB7F894282FE92FFF27E653B7
S1130140FA4F80818F3FB1F48091E105891791F0D6
S11301508091C7058F3F19F49093C70507C080911C
S1130160E105E82FFF27E653FA4F90839093E105CA
S113017080E001C085E02FBF99270895EF920F9387
S11301801F93AE2D99E0899FF0011124E656FD4F8F
S11301904083518362837383048315832683378367
S11301A0A17080858E7F8A2B8260808781E00E9487
S11301B099001F910F91EF900895CF93DF938FB71C
S11301C0F894682F7727A091FD04B091FE04C091A4
S11301D0FF04D091000582B706B600FE04C0119654
S11301E0C11DD11D82B7282F3327442755278827BF
S11301F09A2FAB2FBC2F822B932BA42BB52B6FBF25
S1130200BC01CD01DF91CF910895AF92BF92CF92FF
S1130210DF92EF920F931F935B016C010E94DD004C
S1130220DC01CB0121E0E22E96018501AC01BD0188
S113023084E00E94BE001F910F91EF90DF90CF9059
S1130240BF90AF900895AF92BF92CF92DF92EF929A
S11302500F931F935B016C010E94DD00DC01CB0155
S113026031E0E32E96018501AC01BD0185E00E94D9
S1130270BE001F910F91EF90DF90CF90BF90AF9091
S11302800895AF92BF92CF92DF92EF920F931F9394
S113029090911903992309F5282F882309F421E063
S11302A084E080930B04332788EE93E0B9010E9425
S11302B0DE1B60933B03A62EBB24CC24DD240E94CA
S11302C0DD00DC01CB0141E0E42E96018501AC01A7
S11302D0BD0186E00E94BE0033C09130C1F4282FD6
S11302E0882309F4292F84E080930C04332788EEB3
S11302F093E0B9010E94DE1BCB0160933C03992774
S1130300AA27BB27BC01CD010E94050119C0923068
S1130310B9F4282F882309F421E084E080930D04A4
S1130320332788EE93E0B9010E94DE1BCB01609372
S11303303D039927AA27BB27BC01CD010E942301B5
S11303401F910F91EF90DF90CF90BF90AF900895E1
S1130350FF920F931F93CF93DF93082F8FB7F894D7
S1130360F82E80916402833009F054C0809100011A
S1130370801709F04FC080913E03882309F03EC0E6
S113038081E090E0892BE9F510916502C12FDD270A
S11303902196C330D10511F4C0E0D0E08C2F0E9427
S11303A08400882381F4812F9927C817D90781F7FE
S11303B08FEF90E080938F0481E08093640284E166
S11303C00E94990024C08C2F869586958695E82FE7
S11303D0FF27E25CFC4F2C2F277081E090E002C0E5
S11303E0880F991F2A95E2F7982F90958081892389
S11303F08083C09365028C2F9927DCCF80E090E046
S1130400C1CF83E0809300011092640237980023E7
S113041009F4C698FFBE81E090E0DF91CF911F916F
S11304200F91FF9008951F93CF93DF93C82F8FB739
S1130430F894282F3327122F80916402882301F126
S11304408C2F0E9484008823B1F48C2F8695869586
S11304508695E82FFF27E25CFC4FC77081E090E0AF
S113046002C0880F991FCA95E2F72081282B2083A8
S113047080E090E002C085E090E01FBF992719C09A
S113048081E080936402C0938F042FBF8FB7F894E8
S11304909927379A8FBF8FB7F894C82FDD2780919B
S11304A00001833019F484E10E949900CFBF80E0F9
S11304B090E0DF91CF911F91089520916905822FDB
S11304C099278130910559F0823091051CF40097E9
S11304D031F004C0029711F481E001C08FE1582F7C
S11304E0822F99278130910541F0823091051CF4C7
S11304F0892B19F004C0029711F428E001C020E010
S113050033278FB7F894E82F8091E0058E7F80938E
S1130510E005322F27B160E070E0922F9295969516
S11305209695937080E0891749F4852F8850863119
S113053018F42F71521711F461E070E0862F880FC0
S11305402091E0052D7F282B852F8F71982F990FEF
S1130550990F2378292B2093E0058062992787B986
S1130560406C21702295220F207E4F7D422B4861E2
S1130570383059F5809101059091020521E08638C3
S1130580920718F087E090E01FC0833C910518F0B3
S113059086E090E019C08136910518F085E090E07E
S11305A013C08033910518F084E090E00DC08831C9
S11305B0910518F083E090E007C00C9718F082E0F2
S11305C090E002C080E090E0382F3770487F432BE2
S11305D0842F992786B9EFBF0895AF92BF92CF9227
S11305E0DF92EF920F931F935B016C010E94DD0079
S11305F0DC01CB0151E0E52E96018501AC01BD0182
S11306008BE00E94BE001F910F91EF90DF90CF907E
S1130610BF90AF90089580E00E9413029927089537
S113062097E087FF02C0919A01C09198880F909A31
S11306309098915097FFF5CF0895982F8FB7F8941D
S1130640282F89B78D7F89BF82E088BF80916A0097
S1130650886080936A00992321F080916A00846005
S113066003C080916A008B7F80936A0089B782609F
S113067089BF2FBF80E090E008952F923F924F9260
S11306805F926F927F928F929F92AF92BF92CF921E
S1130690DF92EF92FF920F931F938B01882309F04F
S11306A0DDC08FB7F8949927709368056093670548
S11306B08FBFE0901C03F0901D03CB01AA2797FD88
S11306C0A095BA2FBC01CD010E94DC1A3B014C015C
S11306D017FF08C020E030E040E857E40E942F1ADA
S11306E03B014C01C701AA2797FDA095BA2FBC0175
S11306F0CD010E94DC1AF7FE06C020E030E040E89D
S113070057E40E942F1A2AE037ED43E25CE30E948B
S11307104B1BDC01CB0120E030E040E252E4BC01A1
S1130720CD010E942E1A1B012C0122EA37EE4BE365
S113073056EBC401B3010E944B1BDC01CB01A401A5
S11307409301BC01CD010E944B1B7B018C0124E56C
S113075033EE45E25DE3C401B3010E944B1BDC01AF
S1130760CB019C01AD01C801B7010E942F1ADC0125
S1130770CB0120E030E040E850ECBC01CD010E9408
S11307802F1A5B016C0120E030E048EC51E4C20117
S1130790B1010E942E1A7B018C012CEA35EC47EA48
S11307A058E3C401B3010E944B1BDC01CB012AE0D6
S11307B037ED43E25CE3BC01CD010E942F1ADC015A
S11307C0CB019C01AD01C801B7010E944B1BDC01A8
S11307D0CB01A6019501BC01CD010E942F1A7B011A
S11307E08C0120E030E048EC52E40E94E91A18162B
S11307F054F40F2EF0E0EF2EF0E0FF2EF8EC0F2F64
S1130800F2E41F2FF02D2DEC3CEC4CEC5DE3C80121
S1130810B7010E94E61A882354F40F2EFDECEF2E44
S1130820FCECFF2EFCEC0F2FFDE31F2FF02DC2017B
S1130830B1010E94BF1ADC01CB019093040580939F
S11308400305C801B7010E94BF1ADC01CB019093D4
S1130850200380931F0382E00E9413021F910F91D3
S1130860FF90EF90DF90CF90BF90AF909F908F90CC
S11308707F906F905F904F903F902F900895982FA6
S11308808FB7F894282F3327422F8091680288234A
S113089001F1E92FFF27EB51FA4F80818F3FA1F43B
S11308A0E0910201E91781F0809103018F3F19F46F
S11308B09093030104C0FF27EB51FA4F9083909368
S11308C0020180E090E002C085E090E04FBF9927EC
S11308D0089541E04093680290930F042FBF8091E4
S11308E06702882321F482E10E94990002C04093A8
S11308F0660280E090E00895882359F48FB7F89455
S1130900992770931D0360931C038FBF83E00E949B
S11309103F04089530E0232F909A80B39927969549
S1130920879580FD3160273009F0330F90982F5F51
S1130930283090F3899A9198909A90988998919AEE
S1130940832F99270895899A919A909A9098089557
S1130950AF92BF92CF92DF92EF92FF920F931F93C9
S1130960F82E5A016B010E94DD00DC01CB01EE245C
S113097096018501AC01BD018F2D0E94BE001F911F
S11309800F91FF90EF90DF90CF90BF90AF900895BC
S11309909091AA05980F90931B039F3F11F4109216
S11309A01B030895AF92BF92CF92DF92EF920F9301
S11309B01F935B016C010E94DD00DC01CB0171E03F
S11309C0E72E96018501AC01BD0180E00E94BE00C6
S11309D01F910F91EF90DF90CF90BF90AF9008954B
S11309E08FB7F894282F33278BB392E089278BBBDA
S11309F02FBF0895CF93982F8FB7F894C82F809165
S1130A0068028330A1F580910101891781F520E006
S1130A1030E0809103018F3F11F421E030E0232B7B
S1130A20D9F48F3F81F0282F3327F901EB51FA4F86
S1130A308081809303018F3F11F4809302018FEF33
S1130A408083C90102C08FEF90E080930F0481E09E
S1130A508093680281E109C084E0809301011092CF
S1130A60680281E08093670283E10E949900CFBF0E
S1130A7081E090E0CF910895AF92BF92CF92DF9240
S1130A80EF92FF920F931F93CF93DF930E94DD00A9
S1130A90FC01EB0120910704309108044091090402
S1130AA050910A047B018C01E21AF30A040B150B22
S1130AB010920E048091A4039091A503A091A60323
S1130AC0B091A703E816F9060A071B07C0F0EE2445
S1130AD0FF248701280F391F4A1F5B1F2093070437
S1130AE0309308044093090450930A04E092A40349
S1130AF0F092A5030093A6031093A70363C05C01BF
S1130B006D01AE18BF08C00AD10A8601750161E003
S1130B10A61661E0B60660E0C60660E0D60690F070
S1130B2080E0A81680E0B80681E0C80680E0D80618
S1130B3010F08FEF04C0BB27AD2D9C2D8B2D80931F
S1130B400E0458C061E8A616B104C104D10430F102
S1130B50C058DF4FEF4FFF4FC0930704D0930804F2
S1130B60E0930904F0930A04C058D040E040F040F8
S1130B7080E89FEFAFEFBFEFE80EF91E0A1F1B1FBF
S1130B80E092A403F092A5030093A6031093A70395
S1130B90E0E8EE2EF12C012D112D14C0280F391F81
S1130BA04A1F5B1F209307043093080440930904F1
S1130BB050930A041092A4031092A5031092A60362
S1130BC01092A7036E2D82B7282F8C1B8E5F8E1573
S1130BD018F0622F6E5F01C06C0F662309F461E0A8
S1130BE0615000B601FCFDCF61BF82E086BF87B7CC
S1130BF0826087BFDF91CF911F910F91FF90EF909B
S1130C00DF90CF90BF90AF9008950F931F93DC01B6
S1130C10CB016FB7F894062F1127809307049093A4
S1130C200804A0930904B0930A042093A403309306
S1130C30A5034093A6035093A7030E943C050FBF4E
S1130C401F910F910895282F8FB7F89499272CB9E5
S1130C505E9A8FBF08959C0180915A0290915B0225
S1130C608F37910520F010925B0210925A0266238E
S1130C70E1F0D90180915802909159028F37910582
S1130C8020F01092590210925802809158029091CB
S1130C905902FC01E05FFB4F2D9120830196909354
S1130CA0590280935802615029F780915C0288238D
S1130CB061F481E080935C02E0915A02F0915B025E
S1130CC0E05FFB4F80810E9423060895982F8FB721
S1130CD0F894282F332790939C0080919B00806484
S1130CE080939B002FBF08959C0180916102909195
S1130CF062028036910520F0109262021092610225
S1130D006623E1F0D90180915F0290916002803600
S1130D10910520F01092600210925F0280915F02B0
S1130D2090916002FC01EF5BFC4F2D9120830196B2
S1130D309093600280935F02615029F7809163026F
S1130D40882361F481E080936302E0916102F09171
S1130D506202EF5BFC4F80810E9466060895CF9388
S1130D60DF93D9019EE79093230390933A0329E0FC
S1130D7030E030932503209324039927909327038D
S1130D80809326036093280340932903EAE2F3E067
S1130D9080E1EF010D9009928A95E1F73797609110
S1130DA0AF05CF010E947406DF91CF9108959EE7AD
S1130DB09093230390933A0322E030E03093250389
S1130DC0209324039927909327038093260310925A
S1130DD028036091AF0583E293E00E9474060895AE
S1130DE02F923F924F925F926F927F928F929F9237
S1130DF0AF92BF92CF92DF92EF92FF920F931F9325
S1130E00CF93DF93CDB7DEB726970FB6F894DEBF46
S1130E100FBECDBF4C01C401AA2797FDA095BA2FE0
S1130E2089839A83AB83BC83BC01CD010E94DC1A05
S1130E302B013C0197FE08C020E030E040E857E475
S1130E400E942F1A2B013C0180911903082F1127AE
S1130E501801220C331C220C331C8AE8A82E82E0D1
S1130E60B82EA20CB31CD501CD90DD90ED90FC9072
S1130E70A7019601C301B2010E942E1A2B013C0165
S1130E80F801EA56FD4F10811F5F1083E12FFF2701
S1130E90ED83FE83CF01AA2797FDA095BA2FBC014D
S1130EA0CD010E94DC1ADC01CB019C01AD01C30120
S1130EB0B2010E94791ADC01CB019C01AD01C7018A
S1130EC0B6010E942F1A6B017C01D5016D937D93AD
S1130ED08D939C931397113009F45CC069817A81D6
S1130EE08B819C810E94DC1A97FE06C020E030E0D2
S1130EF040E857E40E942F1AA70196010E942E1A77
S1130F00DC01CB0112E7C12E12E0D12EC20CD31C9E
S1130F109C01AD01C301B2010E944B1BDC01CB015A
S1130F20F601E080F180028113819C01AD01C801CA
S1130F30B7010E942F1A7B018C01D6016D937D931A
S1130F408D939C9313976101EEE7F2E0CE0EDF1EC2
S1130F502D813E8121503040C901AA2797FDA095DB
S1130F60BA2FBC01CD010E94DC1ADC01CB019C012B
S1130F70AD01C801B7010E94791ADC01CB01BC01A3
S1130F80CD010E94991BDC01CB01F6018083918382
S1130F90A283B38326960FB6F894DEBF0FBECDBFEF
S1130FA0DF91CF911F910F91FF90EF90DF90CF9041
S1130FB0BF90AF909F908F907F906F905F904F9075
S1130FC03F902F9008958998919A909A80B3992789
S1130FD09695879580FF03C081E090E008959098EE
S1130FE080E090E00895AF92BF92CF92DF92EF92AB
S1130FF00F931F935B016C010E94DD00DC01CB01A8
S113100031E0E32E96018501AC01BD018CE00E9424
S1131010BE001F910F91EF90DF90CF90BF90AF90E3
S113102008951F93889A90988998919A89B78D7F8B
S113103089BF899A919A909888E0909A9098815063
S113104087FFFBCF899A919A9098909A919890985B
S1131050909A919A90988091E3059091E4058F710C
S113106090709093E4058093E3058091E3050E94DA
S113107010030E94E307882329F010926B0281E099
S113108090E048C02091E3053091E4052630310515
S113109061F12730310538F42330310579F02530FA
S11310A0310561F035C02730310599F02E31310515
S11310B079F56BE070E080E090E008C08998919A3F
S11310C00E941D036EE571E080E090E00E94F3074A
S11310D01FC00E948A04182F0E948A040E94A3043D
S11310E010936A028FE00E949900809192040E94FA
S11310F010030E94E307882321F081E080936902B2
S113110004C08091920480936A028FE00E94990047
S113111080E090E01F910895282F80910401882396
S113112019F484E090E0089580916B02882319F00B
S113113085E090E0089581E080936B0283E090E085
S11311409093E4058093E3052093C8050E94110859
S113115099270895282F80910401882319F484E0A5
S113116090E0089580916B02882319F085E090E067
S1131170089581E080936B0285E090E09093E4050C
S11311808093E3052093C8050E94110899270895C8
S11311901F93CF93DF93162FEA019927813091058E
S11311A0E9F0823091051CF4892B21F017C00297D5
S11311B071F014C080E00E94FA04112321F4D0934A
S11311C00C01C0930B0181E00E943F0407C082E040
S11311D00E94FA04BE01812F0E947C04DF91CF910A
S11311E01F9108951F93CF93DF93162FEA01992738
S11311F08130910549F082309105CCF0823091051F
S1131200B1F0039769F013C081E00E94FA0411233E
S113121021F4D0930A01C09309010E940B0307C073
S113122083E00E94FA04BE01812F0E943D03DF91F6
S1131230CF911F9108953F924F925F926F927F9248
S11312408F929F92AF92BF92CF92DF92EF92FF92D2
S11312500F931F93CF93DF93CDB7DEB7C754D0401E
S11312600FB6F894DEBF0FBECDBF3B014C01332453
S1131270CC24DD247AE9A72E72E0B72EF50160852F
S113128061FFA4C12081318142815381D401C30112
S1131290821B930BA40BB50BE480F58006811781A8
S11312A08E159F05A007B10708F490C160FF03C025
S11312B06D7F60870AC02E0D3F1D401F511FD50151
S11312C02D933D934D935C931397B6E0CB16D104C5
S11312D009F44EC0E7E0CE16D104CCF4F2E0CF1608
S11312E0D104F1F183E0C816D10444F4C114D1044B
S11312F089F191E0C916D10489F168C1A4E0CA1644
S1131300D10491F1B5E0CB16D10484F52BC0E9E00A
S1131310CE16D10409F413C1FAE0CF16D10454F463
S113132087E0C816D10431F198E0C916D10409F454
S1131330B2C04CC1ABE0CA16D10409F404C1BBE08D
S1131340CB16D1040CF4AFC0ECE0CE16D10409F4F2
S113135018C13CC182E00E943F0438C1D99A36C109
S1131360D89A34C1DA9A32C183E0EAC084E0E8C092
S113137082E0E6C089E0898389E090E08A839B83E8
S113138085E090E08C839D8380919902882309F005
S113139044C08E8380919404882329F46FE0462E00
S11313A061E0562E0DC0813029F455E1452E51E0FF
S11313B0552E06C0823021F44BE1442E41E0542ED8
S11313C05F924F9281E291E09F938F938E01085E2A
S11313D01F4F1F930F930E94D7168DB79EB7069683
S11313E00FB6F8949EBF0FBE8DBF80E1FE01389604
S11313F0D8010D9001928A95E1F787E1DE011196FB
S1131400E0EBF5E00D9001928A95E1F78CE00E9403
S1131410990081E080939902D9C081E08E83809104
S11314209004909191049F938F938091A103909144
S1131430A2039F938F938091C2039091C3039F93C0
S11314408F938FE291E09F938F938E01085E1F4FDD
S11314501F930F930E94D716EDB7FEB73A960FB6B7
S1131460F894FEBF0FBEEDBF80E1FE013896D801AF
S11314700D9001928A95E1F787E1DE011196E0EB88
S1131480F5E00D9001928A95E1F78CE00E949900B5
S1131490109299029BC082E080931A0382E18093A8
S11314A0050587E04DC08091AA058F5F8093AA054A
S11314B08F3F11F41092AA059091AA0580911B0305
S11314C0981709F083C080916C0299279F938F939A
S11314D080910D0190910E019F938F938BE391E086
S11314E09F938F938DED94E09F938F930E94D716D3
S11314F0EDB7FEB738960FB6F894FEBF0FBEEDBF3A
S113150080916C028630B8F48F5F80936C028630D1
S1131510B0F0FE01F89680E1DF011D928A95E9F7AB
S11315209F0140E065E1809105050E94AF068EE1D0
S11315300E94C8044BC010926C02109271028BE09E
S11315400E94990043C08FB7F894082F1127902F59
S113155080910101843099F480916802813021F4F2
S113156081E10E94990009C0823049F480910F04FE
S11315708093010183E0809368020FBF27C09FBF5F
S113158025C08091E3059091E40585309105A9F08B
S11315908630910518F4039731F018C04E97B1F4D2
S11315A010926B0213C010926B0240E050E061E0B5
S11315B08091C8050E94C80809C010926B0240E0DF
S11315C050E061E08091C8050E94F2083394E9E09C
S11315D0F0E0AE0EBF1E0894C11CD11CFDE0F31553
S11315E008F04CCE81E00E949900C95BDF4F0FB632
S11315F0F894DEBF0FBECDBFDF91CF911F910F9145
S1131600FF90EF90DF90CF90BF90AF909F908F901E
S11316107F906F905F904F903F9008956F927F926C
S11316208F929F92AF92BF92CF92DF92EF92FF92EE
S11316300F931F93CF93DF939927AA27BB27FC010E
S1131640469708F021C6EA5BFF4FEE0FFF1F059097
S1131650F491E02D099440911803442339F58FB790
S1131660F894282F3327E0900704F09008040091A1
S1131670090410910A048091A4039091A503A091F8
S1131680A603B091A703E80EF91E0A1F1B1F2FBF64
S11316908091AB059091AC05A091AD05B091AE05DC
S11316A09C01AD01C801B7010E9405060E94DD003E
S11316B0DC01CB01BC01CD0144C00E94DD007B01F3
S11316C08C01AFEF6A2EAFEF7A2EAFEF8A2EAFE721
S11316D09A2EBB2487B78D7F87BF6AE972E0FDE04D
S11316E0CF2EEB01888581FF1DC088819981AA8155
S11316F0BB81A8019701281B390B4A0B5B0BDA014C
S1131700C9012C813D814E815F81281B390B4A0B15
S11317105B0B261537054805590524F439014A01A0
S1131720E1E0BE2ECA94675F7F4FC7FEDACFBB20CD
S113173009F4AAC516141704180419042CF0C801D6
S1131740B7010E941B09A0C56092AB057092AC055D
S11317508092AD059092AE0581E080931803A401B8
S11317609301C801B7010E9405068EC58FB7F8948E
S1131770282F33278BB394E089278BBB2FBF80910D
S11317800B04815080930B048F3F91F080913B03B5
S1131790A82EBB24CC24DD240E94DD00DC01CB0177
S11317A071E0E72E96018501AC01BD0186E0B3C06E
S11317B0DA9A32C00E94F00480910C048150809324
S11317C00C048F3F61F00E94F00480913C03992740
S11317D0AA27BB27BC01CD010E94050155C5D99A92
S11317E01BC08FB7F894282F33278BB391E0892738
S11317F08BBB2FBF80910D04815080930D048F3FCC
S113180051F080913D039927AA27BB27BC01CD0144
S11318100E94230139C5D89A68EB7BE080E090E010
S11318200E94D20431C584EC93E0909340038093EA
S11318303F0382E080931A0382E18093050588EBDD
S11318409BE09093A9038093A803109270021092D6
S11318506F0210926E0210926D0210926C0210923E
S1131860630210926202109261021092600210925E
S11318705F0280919A00806480939A0080919A001C
S1131880886080939A0080919A00806880939A007F
S113189080919A00806180939A0080919A00886078
S11318A080939A0080919A00806180939A0088E1E5
S11318B08093AF0588E48093A3031EE7109323036A
S11318C010933A03109395041093DC0448E150E01C
S11318D060E070E083E293E00E94D016109323034B
S11318E083E090E0909325038093240310933A03BC
S11318F06091AF0583E293E00E9474060E94DD00CC
S1131900DC01CB0161E0E62E00EA1FE020E030E0DC
S1131910AC01BD0188E00E94BE00B6C488EB9BE028
S11319209093A9038093A8038091F3028D7F809301
S1131930F30248EB5BE060E070E089E070C0809106
S1131940EA028D7F8093EA02F0901A03C0910505A4
S11319508C2F99279F938F938F2D99279F938F93E4
S113196080910D0190910E019F938F9384E591E0F6
S11319709F938F930AE615E01F930F930E94D71647
S11319804DB75EB7465F5F4F0FB6F8945EBF0FBEAC
S11319904DBFF80101900020E9F73197E01BF10BEE
S11319A06E2FC8010E942B06C53011F085E01CC3C0
S11319B0F0929304C093C90544EF51E060E070E0F5
S11319C087E02DC08091C80399279F938F9384E764
S11319D091E09F938F930AE615E01F930F930E9463
S11319E0D7168DB79EB706960FB6F8949EBF0FBE56
S11319F08DBFF80101900020E9F73197E01BF10B4E
S1131A006E2FC8010E942B063FC48091FC028D7F7B
S1131A108093FC0244E650E060E070E08AE00E94BB
S1131A20A80432C4809105058231E9F482E190E092
S1131A309F938F9380910D0190910E019F938F93AB
S1131A4081E891E09F938F938DED94E09F938F9322
S1131A500E94D716CDB7DEB728960FB6F894DEBF2E
S1131A600FBECDBF97C0863019F08D3009F047C046
S1131A708091710299279F938F93809105059927EF
S1131A809F938F9380910D0190910E019F938F935B
S1131A9084E991E09F938F938DED94E09F938F93CE
S1131AA00E94D716EDB7FEB73A960FB6F894FEBF6C
S1131AB00FBEEDBF809105058D3019F484E00E94BE
S1131AC0C80420910505309171028EE780932303A9
S1131AD080933A038AE090E0909325038093240353
S1131AE0822F99279093270380932603309328030A
S1131AF06091AF0583E293E00E947406C5C3893008
S1131B0009F4C2C399279F938F9380910D019091FB
S1131B100E019F938F938FEA91E09F938F938DEDA6
S1131B2094E09F938F930E94D7162DB73EB7285FFA
S1131B303F4F0FB6F8943EBF0FBE2DBF2DC080910E
S1131B40B1059091B205029761F58091B30590912A
S1131B50B4059F938F9380910D0190910E019F93F3
S1131B608F9382EC91E09F938F938DED94E09F93FC
S1131B708F930E94D7164DB75EB7485F5F4F0FB67D
S1131B80F8945EBF0FBE4DBF8091B3059091B4052C
S1131B90429711F480E06EC1809105050E94D7063A
S1131BA073C38091B005CDEDD4E02091B30530919D
S1131BB0B405882309F03FC08091A8039091A9033C
S1131BC08217930789F03093A9032093A803809187
S1131BD0F3028D7F8093F302C901AA27BB27AC01CE
S1131BE0BD0189E00E94A8048091B3059091B405D9
S1131BF09F938F938091B20599279F938F938091A0
S1131C00B10599279F938F9380910D0190910E01B7
S1131C109F938F9386ED91E09F938F93DF93CF9360
S1131C200E94D7168DB79EB70C960FB6F8949EBF38
S1131C300FBE8DBF29C38091B60599279F938F93BB
S1131C408091B50599279F938F933F932F9380910C
S1131C500D0190910E019F938F9383EF91E09F93D9
S1131C608F93DF93CF930E94D716CDB7DEB72C9610
S1131C700FB6F894DEBF0FBECDBF8091050540912D
S1131C80B6056091B505A7EBB5E0893041F58EE75F
S1131C908093230380933A0389E090E09093250393
S1131CA0809324039093270380932603609328034F
S1131CB040932903EAE2F3E080E1EF010D900992F9
S1131CC08A95E1F76091AF05CF0107970E947406EA
S1131CD08AE090E09093250380932403D5C29D016C
S1131CE00E94AF06D1C282E080931E03E0913F03BD
S1131CF0F091400380911A038083E0913F03F091B7
S1131D004003809105058183E0913F03F0914003F6
S1131D108091A8039091A9038283938380910B01FE
S1131D2090910C01848395838091090190910A011B
S1131D30868397838091070190910801808791871A
S1131D4080910501909106018287938714861586F8
S1131D501686178680911E03825F80931E0388E097
S1131D6043C180916B02882309F48EC280910E03D3
S1131D708D7F80930E030E948A049927182F0027D1
S1131D800E948A049927082B192B0E948A040E9416
S1131D90A3048091E3059091E4058330910519F043
S1131DA0059751F071C210926B02A80160E0809116
S1131DB0C8050E94C80868C210926B02A80160E0BE
S1131DC08091C8050E94F2085FC28091E30590915A
S1131DD0E4058630910531F0079709F055C2109259
S1131DE06B0252C210926B02109269024DC2809132
S1131DF06602813031F46BE070E080E090E00E9494
S1131E00ED028FB7F8949927109266021092670238
S1131E108FBF3AC28FB7F894992720910F0420936B
S1131E200101C3E0C09368028FBF022F1127013064
S1131E30110519F10230110524F40115110541F0C1
S1131E4023C20230110569F103301105D9F11CC216
S1131E5080E00E948C08E82EFF24EE2009F414C2CE
S1131E6080E00E94FA04EE2021F410930C01009308
S1131E700B0181E00E943F0407C281E00E94AA088E
S1131E80082F1127002309F4FFC181E00E94FA04FE
S1131E90002321F410920A01109209010E940B03FD
S1131EA0F3C182E00E948C08082F1127002309F453
S1131EB0EBC182E00E94FA0460E070E0802F0E948F
S1131EC07C04E2C18C2F0E94AA08082F112700234A
S1131ED009F4DAC18C2F0E94FA0460E070E0802FCC
S1131EE00E943D03D1C16BE070E080E090E00E946D
S1131EF0ED02CAC1889890988998919880E174C03D
S1131F008FB7F894282F332790918F049093000172
S1131F1083E0809364022FBF892F9927009711F4DF
S1131F20BE9AC69A8130910579F0823091051CF4ED
S1131F30892B21F0A9C1029759F0A6C181E08093B1
S1131F406605109269050AC081E08093660504C0A5
S1131F5081E08093660582E0809369050E945D02BA
S1131F6093C11092660580916905E0902103F09079
S1131F702203082F11270130110569F002301105E1
S1131F8024F40115110529F00BC00230110529F0C4
S1131F9007C080E003C081E001C082E00E94A80184
S1131FA001301105B9F0023011051CF4012B29F0A0
S1131FB06BC102301105D9F067C146E0F694E7948D
S1131FC04A95E1F7F0920801E092070181E00E944E
S1131FD013025AC136E0F694E7943A95E1F7F09289
S1131FE00601E09205018DE00E9499004DC1370180
S1131FF026E0769467942A95E1F7C0910305D09181
S1132000040580901F03909020038FB7F894A82EA6
S113201080911903882309F068C0CE010E94F0065C
S1132020CE01AA2797FDA095BA2FBC01CD010E942D
S1132030DC1A7B018C01D7FF08C020E030E040E8C7
S113204057E40E942F1A7B018C0180911903E82F19
S1132050FF27EE0FFF1FEE0FFF1FE657FD4F808196
S11320609181A281B3819C01AD01C801B7010E9495
S11320702E1ADC01CB01BC01CD010E94BF1ADC0188
S1132080CB010E944101B09019030B2D1127000FC1
S1132090111F000F111FF801E657FD4F8081918138
S11320A0A281B381BC01CD010E94BF1A6B017C01E6
S11320B0F801E258FD4F80819181A281B381BC0176
S11320C0CD010E94BF1ADC01CB01B0929404D093DD
S11320D0C303C093C203D092A203C092A1039093FE
S11320E091048093900481E06AC0813009F06AC051
S11320F0C4010E94F006C401AA2797FDA095BA2F37
S1132100BC01CD010E94DC1A7B018C0197FE08C042
S113211020E030E040E857E40E942F1A7B018C0154
S113212080911903E82FFF27EE0FFF1FEE0FFF1F0B
S1132130E657FD4F80819181A281B3819C01AD015D
S1132140C801B7010E942E1ADC01CB01BC01CD01EC
S11321500E94BF1ADC01CB010E944101B090190317
S11321600B2D1127000F111F000F111FF801E65747
S1132170FD4F80819181A281B381BC01CD010E9478
S1132180BF1A6B017C01F801E258FD4F80819181F7
S1132190A281B381BC01CD010E94BF1ADC01CB0135
S11321A0B09294049092C3038092C203D092A2038B
S11321B0C092A103909391048093900482E0809351
S11321C0190361C0823009F05EC0C3010E94F006A9
S11321D0C301AA2797FDA095BA2FBC01CD010E9487
S11321E0DC1A7B018C0180911903E82FFF27EE0F85
S11321F0FF1FEE0FFF1FE657FD4F80819181A281E3
S1132200B3819C01AD01C801B7010E942E1ADC0103
S1132210CB01BC01CD010E94BF1ADC01CB010E949D
S11322204101B09019030B2D1127000F111F000F4E
S1132230111FF801E657FD4F80819181A281B3817E
S1132240BC01CD010E94BF1A6B017C01F801E25868
S1132250FD4F80819181A281B381BC01CD010E9497
S1132260BF1ADC01CB01B09294047092C303609254
S1132270C203D092A203C092A103909391048093CD
S1132280900410921903AFBEDF91CF911F910F916B
S1132290FF90EF90DF90CF90BF90AF909F908F9082
S11322A07F906F9008958091C7058F3FD1F09091F2
S11322B0C7058091C705E82FFF27E653FA4F8081B1
S11322C08093C7058091C7058F3F11F48093E10582
S11322D0892F9927FC01E653FA4F2FEF20839C01A5
S11322E002C02FEF30E02F3F19F480E090E0089512
S11322F0822F0E940E0B81E090E00895CFEFD0E191
S1132300DEBFCDBF8FB7F894F82E46E150E06FEFF3
S113231070E08AEC95E00E94D0168FEF8093C70599
S11323208093E10581E08EBD88E080BF83E083BFB8
S11323302CB53DB54AE78CB59DB58217930708F4D3
S113234041509C014423B9F792B782B78917E9F346
S11323502CB53DB592B782B78917E9F38CB59DB515
S1132360821B930B409635E0969587953A95E1F755
S1132370909302058093010513BE83B78EBD8EB57D
S113238080BF12BE1DBC1CBC8FEF86BF86B7809376
S11323907C0080B79927877090700097D1F7D29A04
S11323A0D19AD09ADA9AD99AD89A85BB8FEF84BBFE
S11323B0D498DC9816B880B7886080BF80E285BF67
S11323C00E945311C82FDD27CC23D1F712E006E079
S11323D08091010590910205AA27BB272CE0880F64
S11323E0991FAA1FBB1F2A95D1F7BC01CD0120E07C
S11323F031EE40E050E00E94F11BDA01C90101977F
S113240089B9492F5527409390001BB90093950033
S1132410CAB920E030E0809399004093980010936B
S11324209B0000939D0020939A0020933E038FEF1E
S11324309FEFAFEFBFEF8093E5059093E605A09380
S1132440E705B093E80500B602FCFDCF12BE87B7DE
S1132450816087BF83B7887F836000B600FCFDCFAF
S113246083BF0E94531199278823D9F7FFBE78941C
S113247080935C0210925B0210925A0210925902ED
S113248010925802569A539A579A549A539A549AB5
S113249085E00E94990068EB7BE080E090E00E9478
S11324A0D2048FB7F894482F4AC087B79927887BFE
S11324B0892B41F480917D00282F33272B7F211510
S11324C0310519F020E030E02AC06F9928C08AB1A4
S11324D0807C29F580919A00807C09F5379B03C0A4
S11324E021E030E01CC087B7992783709070892B56
S11324F0A1F080B7992787709070892BD1F781B7A5
S113250092B7891B8C3018F082B7853F18F022E00F
S113251030E005C023E030E002C025E030E0E5E033
S11325202E1708F4E22F85B7837EFF27E854FF4F68
S11325309491892B806285BF78948895F8948091D2
S1132540C7058F3FC9F09091C7058091C705E82F53
S1132550FF27E653FA4F80818093C7058091C70512
S11325608F3F11F48093E105892F9927FC01E653ED
S1132570FA4F2FEF208302C08FEF90E08F3F09F4D2
S113258094CF4FBF0E940E0B8CCF83B783BF00B68E
S113259000FCFDCF08951F920F920FB60F921124E5
S11325A02F933F934F935F936F937F938F939F9357
S11325B0AF93BF93CF93EF93FF930E94C51287B756
S11325C08D7F87BF78948FB7F894C82F8091A40328
S11325D09091A503A091A603B091A7030097A1052C
S11325E0B10521F480E00E94990002C00E943C05DC
S11325F0CFBFFF91EF91CF91BF91AF919F918F91F9
S11326007F916F915F914F913F912F910F900FBEEA
S11326100F901F9018951F920F920FB60F921124CE
S11326202F933F934F935F936F937F938F939F93D6
S1132630AF93BF93EF93FF930E94C5128091FD0463
S11326409091FE04A091FF04B09100050196A11D94
S1132650B11D8093FD049093FE04A093FF04B093F6
S1132660000580910E04882339F0815080930E0474
S1132670882311F40E943C05FF91EF91BF91AF9123
S11326809F918F917F916F915F914F913F912F9186
S11326900F900FBE0F901F9018951F920F920FB6B8
S11326A00F9211240F900FBE0F901F9018951F9238
S11326B00F920FB60F9211242F933F934F935F9372
S11326C06F937F938F939F93AF93BF93EF93FF93F6
S11326D089B78D7F89BF8EE00E949900FF91EF91A9
S11326E0BF91AF919F918F917F916F915F914F9126
S11326F03F912F910F900FBE0F901F9018951F922E
S11327000F920FB60F9211240F900FBE0F901F90CF
S113271018951F920F920FB60F9211240F900FBEAF
S11327200F901F9018951F920F920FB60F921124BD
S11327300F900FBE0F901F9018951F920F920FB617
S11327400F9211240F900FBE0F901F9018951F9297
S11327500F920FB60F9211240F900FBE0F901F907F
S113276018951F920F920FB60F9211240F900FBE5F
S11327700F901F9018951F920F920FB60F9211246D
S11327802F933F934F935F936F937F938F939F9375
S1132790AF93BF93EF93FF9364B175B178948FB700
S11327A0F894282F33278091E005482F46954170EF
S11327B02FBF282F217080FD1CC03398809166059F
S11327C099278130910519F0029759F028C04423C4
S11327D051F0709322036093210385E10E949900D4
S11327E01EC0442319F40E945D0219C0209366059B
S11327F016C08FB7F89499278FBF8FB7F894482FD6
S1132800552786B180618777282F332726B98F7B98
S1132810282F332726B98068992786B94FBFFF919F
S1132820EF91BF91AF919F918F917F916F915F9144
S11328304F913F912F910F900FBE0F901F901895BD
S11328401F920F920FB60F9211248F935F998CB140
S11328508F910F900FBE0F901F90189578941F9230
S11328600F920FB60F9211242F933F934F935F93C0
S11328706F937F938F939F93AF93BF93EF93FF9344
S113288080915A0290915B02019690935B0280932F
S11328905A028F37910520F010925B0210925A026F
S11328A080915802909159028F37910520F010922F
S11328B0590210925802E0915A02F0915B02809101
S11328C0580290915902E817F90731F0E05FFB4F85
S11328D080810E94230602C010925C02FF91EF9156
S11328E0BF91AF919F918F917F916F915F914F9124
S11328F03F912F910F900FBE0F901F9018951F922C
S11329000F920FB60F9211242F933F934F935F931F
S11329106F937F938F939F93AF93BF93EF93FF93A3
S113292080919B0087FFD1C140919C0080915D0202
S1132930882321F44E3709F0C8C106C020915E02F5
S1132940233050F44E3741F481E080935D0240938C
S1132950060580935E02B9C1E22FFF27EA5FFA4FB2
S113296040832F5F20935E0230910705333049F591
S11329708091AF05281709F098C110925D024E3777
S113298009F09BC18091090580930505863021F0EB
S1132990893011F08D3081F48AE080931A0380919C
S11329A005058D3061F48FEF80931B031092AA0507
S11329B089E00E94990003C082E080931A0387E0B3
S11329C071C1323009F04CC08091AF05281709F06D
S11329D06CC110925D024E3709F06FC130931E0333
S11329E0E0913F03F091400380911A038083E091CA
S11329F03F03F0914003809105058183E0913F03FB
S1132A00F09140038091A8039091A903828393835A
S1132A1080910D0590910E058483958380910F0517
S1132A2090911005868397838091110590911205EA
S1132A3080879187809113059091140582879387ED
S1132A4080911505909116058487958780911705C7
S1132A50909118058687978780911E03825F1FC116
S1132A60393009F09DC08091AF05281709F01DC1C8
S1132A7010925D024E3709F020C182E080931E035C
S1132A80809105058D30F1F480910B05833109F0B7
S1132A9016C180910D0190910E019F938F9380E157
S1132AA092E09F938F938DED94E09F938F930E9478
S1132AB0D7168DB79EB706960FB6F8949EBF0FBE75
S1132AC08DBFFDC0893059F488E1A6E0B5E0EAEA9B
S1132AD0F3E00D9001928A95E1F78AE0E3C08E302D
S1132AE029F0843019F0853009F0E9C0E0913F0302
S1132AF0F091400380911A038083E0913F03F091A9
S1132B004003809105058183E0913F03F0914003E8
S1132B108091A8039091A9038283938380910D05EA
S1132B2090910E058483958380910F0590911005F3
S1132B3086839783809111059091120580879187F0
S1132B4080911305909114058287938780911505D0
S1132B5090911605848795878091170590911805A3
S1132B608687978780911E03825F80931E038091DE
S1132B700D0190910E019F938F9387E292E09F93B2
S1132B808F938DED94E09F938F930E94D7168DB70A
S1132B909EB706960FB6F8949EBF0FBE8DBF81C038
S1132BA0313019F03A3009F08AC08091A303281714
S1132BB009F07BC010925D024E3709F07EC082E0BE
S1132BC080931E03E0913F03F091400380911A0328
S1132BD08083E0913F03F091400380910505818358
S1132BE0809105058D3009F03FC010926C028FEF83
S1132BF080931B0380910B0599279F938F9380915A
S1132C000D0190910E019F938F9381E492E09F9325
S1132C108F938DED94E09F938F930E94D7168DB779
S1132C209EB708960FB6F8949EBF0FBE8DBF9091C5
S1132C300B05903F19F41092710216C080910D0596
S1132C408A3029F480910E058A3A39F00AC08A3A0A
S1132C5041F480910E058A3021F484E00E94C80476
S1132C6003C09F5F90937102E0913F03F091400392
S1132C7080910C05828320913F0330914003809121
S1132C800C059927AC016DE075E0C90103960E941B
S1132C90C71680911E0390910C05890F8F5F809356
S1132CA01E0388E00E9499000AC0992702973327DF
S1132CB08217930724F44E3711F410925D02809129
S1132CC05E02813610F010925D02FF91EF91BF9188
S1132CD0AF919F918F917F916F915F914F913F91B0
S1132CE02F910F900FBE0F901F90189578941F92FC
S1132CF00F920FB60F9211242F933F934F935F932C
S1132D006F937F938F939F93AF93BF93EF93FF93AF
S1132D108091610290916202019690936202809385
S1132D2061028036910520F01092620210926102D5
S1132D3080915F02909160028036910520F010929C
S1132D40600210925F02E0916102F0916202809150
S1132D505F0290916002E817F90731F0EF5BFC4FD6
S1132D6080810E94660602C010926302FF91EF9177
S1132D70BF91AF919F918F917F916F915F914F918F
S1132D803F912F910F900FBE0F901F901895FB014C
S1132D90DC0102C001900D9241505040D8F70895D3
S1132DA0DC0101C06D9341505040E0F708950F934A
S1132DB01F93CF93DF93CDB7DEB72C970FB6F8945C
S1132DC0DEBF0FBECDBF0B891C892D893E8946E02D
S1132DD04C8309831A838FEF9FE78D839E83AE0113
S1132DE0495E5F4FB901CE0101960E940717EF813A
S1132DF0F885E00FF11F10822C960FB6F894DEBF11
S1132E000FBECDBFDF91CF911F910F9108952F92E7
S1132E103F924F925F926F927F928F929F92AF9266
S1132E20BF92CF92DF92EF92FF920F931F93CF93B3
S1132E30DF93CDB7DEB762970FB6F894DEBF0FBE4F
S1132E40CDBFEE24FF2487011C016D877E872A01F4
S1132E50CC24DD24FC01C682D782838181FD80C21B
S1132E608FEF9FEF90C28D859E8501968D879E87FB
S1132E70C0FE63C28F8580538A30D0F49F8590331F
S1132E8039F4662029F4C3FC03C0E0E0F1E093C008
S1132E908AE0689E602C1124FF856F0E20ED620E7F
S1132EA067FE02C0EFE76E2EC3FC5AC2762C58C2EE
S1132EB0960173E0369527957A95E1F720FF04C0D3
S1132EC0662011F461E0662E4F85842F992787FDD3
S1132ED09095883691058CF5853691050CF06EC079
S1132EE08335910509F493C084359105CCF48B3274
S1132EF0910509F449C08C3291054CF48032910556
S1132F0009F446C08332910509F44AC010C28D32D7
S1132F10910509F440C08E32910509F444C007C2FA
S1132F208336910509F450C0843691050CF08AC0AB
S1132F308835910509F4BCC0FAC18037910509F4BC
S1132F40B1C08137910584F48C36910591F18D36A9
S1132F5091052CF48936910509F474C0E8C18F36C3
S1132F60910509F49CC0E3C18537910509F4A2C019
S1132F708637910524F48337910571F1D8C18837D8
S1132F80910509F495C0D3C180E190E0C82AD92AFB
S1132F90E0E2F0E010C080E890E0C82AD92AE0C15D
S1132FA0E0E4F0E008C088E090E0C82AD92A66246A
S1132FB0D7C1E4E0F0E0CE2ADF2AD2C15FE3E52EF8
S1132FC07A94F3E6FF8744C1F20182E090E0480E70
S1132FD0591EE0807A943CC1F20182E090E0480EF0
S1132FE0591EA081B1817D0120FF09C0862D99273A
S1132FF087FD9095BC01CD010E94181A1FC0FD01E8
S113300001900020E9F73197EA1BE88B18C0F20120
S113301082E090E0480E591E0190F081E02D7F017E
S113302020FF09C0862D992787FD9095BC01CF010B
S11330300E94231A03C0CF010E940F1A888B98891B
S1133040791A06C1C2FE0AC0F20184E090E0480E7B
S1133050591E20813181428153810CC0F20182E0EA
S113306090E0480E591E808191819C01442737FDD0
S11330704095542F79018A0157FF0CC0E2E0F0E03B
S1133080CE2ADF2A10950095F094E094E11CF11CFF
S1133090011D111D8FEB9FEFC822D92227C098E094
S11330A0988B08C0E0E4F0E0CE2ADF2AF8E7FF8737
S11330B020E1288BC2FE0AC0F20184E090E0480EB1
S11330C0591E20813181428153810AC0F20182E07C
S11330D090E0480E591E808191819C014427552718
S11330E079018A01EFECFFEFCE22DF22CE010196B7
S11330F0898B9A8B9889892E9924AA24BB24C80188
S1133100B701A50194010E94F11BDC01CB01E989FF
S1133110FA8980838A3024F0FF858F0F815201C0A1
S1133120805DE989FA898193E98BFA8BC801B7013B
S1133130A50194010E94F11B79018A012115310531
S113314041055105E1F6E98881E090E08C0F9D1F6F
S1133150E81AC60182739070892B09F07A94C6FE2E
S11331600DC0872D992787FD9095E889E03121F4DA
S11331704EEF742E780E02C0782E7A94C3FE0FC0E0
S1133180262D332727FD30958E2D992782179307F7
S11331902CF087EF9FEFC822D92201C06E18560188
S11331A033E0B694A7943A95E1F7A0FE02C07618EE
S11331B001C07E18C60180789170892B51F4872D47
S11331C07A94181634F4B10180E290E00E94DC197C
S11331D0F6CFC1FE04C0B1018DE290E00BC0C4FE85
S11331E004C0B1018BE290E005C0C5FE05C0B10189
S11331F080E290E00E94DC19C6FE10C0B10180E3B9
S113320090E00E94DC199889903141F4B101EF8576
S11332108E2F992787FD90950E94DC198D2D992773
S113322080FF0AC0872D7A94181634F4B10180E324
S113323090E00E94DC19F6CFA0FE0AC0862D6A94A5
S1133240181634F4B10180E390E00E94DC19F6CF43
S11332505601AA0CAB2CAA1CBB08B194A0FC0AC052
S1133260872D7A94181634F4B10180E290E00E941C
S1133270DC19F6CFFF85F33641F48E2DB101992781
S113328087FD90950E94DC1946C02F852337B9F439
S113329048894150488B4F3F09F43DC0F701808174
S11332A00894E11CF11CB101992787FD90950E94B7
S11332B0DC1988898150888B8F3F81F72CC09F85CA
S11332C09335A1F4E889E150E88BEF3F21F1F70150
S11332D08491B10199270E94DC190894E11CF11C26
S11332E0F889F150F88BFF3F91F715C06E010894EF
S11332F0C11CD11C89899A898C159D0561F0E989C5
S1133300FA898291E98BFA8BB101992787FD90950F
S11333100E94DC19EFCFA0FE0DC0872D7A941816F9
S11333204CF4B10180E290E00E94DC19F6CFB101C7
S11333300E94DC19CC24DD2413C09F85953241F40E
S113334081E0C82ED12C6624762CEAE0E88B08C0F4
S1133350B101FF858F2F992787FD90950E94DC1975
S1133360F101838183FF04C0ED85FE85F49103C0E0
S1133370ED85FE85F081FF872F85222309F073CD2B
S1133380F1018681978162960FB6F894DEBF0FBE75
S1133390CDBFDF91CF911F910F91FF90EF90DF9000
S11333A0CF90BF90AF909F908F907F906F905F90E1
S11333B04F903F902F9008950F931F93CF93DF93D7
S11333C08C01EB018B81992781FF22C082FF14C0FD
S11333D02E813F818C819D81281739073CF4E88137
S11333E0F9810193E883F9832E813F812F5F3F4F59
S11333F02E833F83C8010EC0E885F985802F099587
S1133400892B31F4AE81BF811196AE83BF83F2CF95
S11334108FEF9FEFDF91CF911F910F910895FC01E2
S113342005900020E9F7809590958E0F9F1F0895D1
S1133430FC016150704001900110D8F7809590957F
S11334408E0F9F1F0895FC0161507040059001107C
S1133450D8F7809590958E0F9F1F08955058192E78
S1133460F7D001D0DAC0BA1762077307840795074B
S1133470B1F188F40EF410940B2EBA2FA02D062E61
S1133480622F202D072E732F302D082E842F402DD0
S1133490092E952F502DFF275523B9F0591B49F0BC
S11334A0573E98F0469537952795A795F040539544
S11334B0C9F776F0BA0F621F731F841F30F4879523
S11334C077956795B795F040939517FA0F2E089561
S11334D0BF1BBB27BA0B620B730B840BF6CFDEF654
S11334E0D4C0592F482F372F262F9FE380E8772702
S11334F06627AED001D091C0552359F0992369F0C5
S11335009F575F57951B33F442F4903811F4915848
S113351005C09BC091589F3F09F4B7C0BB27112435
S113352062177307840730F4660F771F881FBB1F69
S1133530915098F311D00F920FD00F920DD0A0E8B4
S11335402617370748071B0609F0A048BA2F602D35
S11335507F918F9100240895A0E8002462177307D7
S11335608407B10528F0621B730B840BB1090A2A86
S1133570660F771F881FBB1FA69581F7089597FBD9
S113358073D09F3738F0FEE9F91B982F872F762FD9
S11335906B2F05C077C09695879577956795F15001
S11335A0D0F73EF490958095709561957F4F8F4F3D
S11335B09F4F0895E89403C097FB0EF4F3DFB62FF2
S11335C0672F782F892F9EE9002427C00ED05EF044
S11335D004C00BD026F001C008D019F020F48FEFFE
S11335E0089580E0089581E0089597FB092E05264B
S11335F000F8689430D0E89407FC07C0621773079A
S11336008407950721F008F400940794989408958A
S11336109A95BB0F661F771F881F11249923A1F069
S11336208823B2F79F3F59F0BB0F48F421F40020E0
S113363011F460FF04C06F5F7F4F8F4F9F4F881F4F
S11336409795879597F908951DC09FEF80EC08958D
S1133650052E092607FA440F551F5F3F79F0AA2764
S1133660A51708F051E04795880F991F9F3F31F047
S1133670BB27B91708F091E0879508959F919F9112
S11336801124E3CF66277727882799270895592F90
S1133690482F372F262FDCDF01D0BFCF992339F0F5
S11336A0552329F09F575F57950F13F4CAF1EDCFB7
S11336B091589F3FE1F3A62F00241124BB276627CE
S11336C05527F8E0A69520F4020E131EB41F651FBB
S11336D0220F331F441F551FFA95A1F7F8E0E72F77
S11336E07727F8E0E69520F4130EB41F651F7A1FC0
S11336F0330F441F551FAA1FFA95A1F7F82F8827E7
S1133700F69520F4B40F651F7A1F8E1F440F551FC2
S1133710AA1FEE1FFF23A1F788231AF4939539F407
S113372094CF000C111CBB1F661F771F881F012834
S1133730089597FD8ACF482F9923F9F195DFF92F42
S1133740FF57F5959F1B9F1BFF93405847953327C1
S1133750222740685FE7E894FF92EF92DF92CF92CE
S1133760BF92AF929F928F92C92ED82EE72EF62E3B
S11337706F2D7E2D8D2D9C2D852E942EA32EB22E55
S1133780BBDE582D492D3A2D2B2D11246CDE9A9534
S1133790592F482F372F262FB216A30694068506D5
S11337A039F78F909F90AF90BF90CF90DF90EF90BC
S11337B0FF900F90900D002430CF089597FB092EB1
S11337C007260AD077FD04D02ED006D000201AF4A4
S11337D0709561957F4F0895F6F7909581959F4F69
S11337E00895A1E21A2EAA1BBB1BFD010DC0AA1F3E
S11337F0BB1FEE1FFF1FA217B307E407F50720F056
S1133800A21BB30BE40BF50B661F771F881F991FD0
S11338101A9469F760957095809590959B01AC0119
S1133820BD01CF010895AA1BBB1B51E107C0AA1F0C
S1133830BB1FA617B70710F0A61BB70B881F991F4D
S11138405A95A9F780959095BC01CD01089585
S113384E0304FFFF01FFFFFFFFFFFFFFFF01005413
S113385E454D50200048554D49440055526564204D
S113386E0025732041564720537444657620002565
S113387E34642025346420253664002564204333C3
S113388E32385F52657365745F54696D65723A259B
S113389E640D0A002564206D794170705479706549
S11338AE3A25582C206D794F7074547970653A25E9
S11338BE580D0A00544C43442053573A25640D0ABC
S11338CE0025642067657453466972655F423A2524
S11338DE640D0A0025642067657453466972655F3A
S11338EE4C3A25582C205365713A25640D0A00254F
S11338FE642067657453466972655F533A25640D97
S113390E0A00256420522D476574532D434D445BA4
S113391E25645D0D0A00256420522D53432D434D1D
S113392E442121205B25642C2025642C2025645DF4
S113393E0D0A00256420522D4F432D434D44212161
S113394E205B25642C2025642C2025645D0D0A0043
S113395E2564207265637620535542434D44315F8E
S113396E4641494C0D0A0025642072656376207029
S113397E617273696E675F636F6E74726F6C0D0A3A
S113398E0025642070617273696E675F6C6F6E6779
S10B399E44543A25640D0A00AB
S9030000FC
