S01900006275696C642F7A69676265782F6D61696E2E737265636F
S11300000C9468000C94AE1D0C94B81D0C94E01D67
S11300100C94EA1D0C94F41D0C94FE1D0C94081E03
S11300200C94381E0C9485000C9485000C94F321D8
S11300300C944E210C94DD210C94CB220C942C1D99
S11300400C946C1D0C94EC220C94A71E0C9485004B
S11300500C94B51E0C94421E0C9485000C948500DF
S11300600C94E8210C9485000C9485000C94850074
S11300700C9485000C9485000C94061F0C94850048
S11300800C94FD200C9485000C94850085110612B7
S11300909013C21317148A149B1411151B15491BB2
S11300A02815B4158916C716FB160D171F178917BF
S11300B090179617C7173C186B1825192F19311963
S11300C03919401959196819261A00081C181410EE
S11300D011241FBECFEFD0E1DEBFCDBF12E0A0E000
S11300E0B1E0ECEBF7E500E00BBF02C007900D9226
S11300F0A636B107D9F717E0A6E6B2E001C01D9213
S1130100A437B107E1F70C948D1B0C9400008FB752
S1130110F894992708958FBF0895982F8FB7F8946E
S1130120282FE92FFF27EB5FF84F80818F3FB1F431
S113013080912707891791F08091FC068F3F19F46D
S11301409093FC0607C080912707E82FFF27EB5FF9
S1130150F84F90839093270780E001C085E02FBF7C
S113016099270895882311F06E9A08956E9808953A
S113017080916902882319F480E090E0089581E079
S113018090E008952F923F924F925F926F927F92E8
S11301908F929F92AF92BF92CF92DF92EF92FF9293
S11301A00F931F93CF93DF93CDB7DEB72A970FB684
S11301B0F894DEBF0FBECDBF8FB7F894282F332736
S11301C029873A8720907A0430907B0440907C04FD
S11301D050907D0466242EE4A22E93E8B92EC62CFA
S11301E0D62CE62CF62C062D162D222D332D442D3F
S11301F0552D662D762D862D962D0E9479242983E2
S11302003A834B835C836D837E838F839887822EAE
S1130210932EA42EB52EC62ED72EE82EF92E240109
S11302203501769467945794479400E2282D392D2C
S11302304A2D5B2D6C2D7D2D8E2D9F2D0E948325A7
S1130240A22EB32EC42ED52EC601B501640D751D84
S1130250861D971D97FF05C09F776F5F7F4F8F4F58
S11302609F4F60937A0470937B0480937C049093F3
S11302707D0439853FBF2A960FB6F894DEBF0FBEC2
S1130280CDBFDF91CF911F910F91FF90EF90DF9041
S1130290CF90BF90AF909F908F907F906F905F9022
S11302A04F903F902F900895EF920F931F93AE2D90
S11302B099E0899FF0011124EA54FD4F4083518352
S11302C0628373830483158326833783A1708085B7
S11302D08E7F8A2B8260808783E00E948D001F912D
S11302E00F91EF900895CF93DF938FB7F894682F11
S11302F07727A091ED05B091EE05C091EF05D0915F
S1130300F00582B706B600FE04C01196C11DD11DCA
S113031082B7282F33274427552788279A2FAB2FB6
S1130320BC2F822B932BA42BB52B6FBFBC01CD010B
S1130330DF91CF910895AF92BF92CF92DF92EF9267
S1130340FF920F931F93F82E5A016B010E947301C1
S1130350DC01CB01E1E0EE2E96018501AC01BD018B
S11303608F2D0E9454011F910F91FF90EF90DF9009
S1130370CF90BF90AF900895AF92BF92CF92DF928B
S1130380EF920F931F935B016C010E947301DC01D8
S1130390CB01F1E0EF2E96018501AC01BD0180E0B7
S11303A00E9454011F910F91EF90DF90CF90BF9066
S11303B0AF900895FC018285992708958FB7F8942A
S11303C0682F77278091FE039091FF032CB53DB5EC
S11303D006B602FE03C001962CB53DB5AA27BB277D
S11303E044275527DC0199278827822B932BA42B9C
S11303F0B52B6FBFBC01CD010895282F8695869536
S11304008695E82FFF27E050FC4F277081E090E0AD
S113041002C0880F991F2A95E2F720812823822F92
S113042099270895FF920F931F93CF93DF93082F7B
S11304308FB7F894F82E80917D02833009F054C070
S113044080910901801709F04FC08091000488232E
S113045009F03EC081E090E0892BE9F510917E021D
S1130460C12FDD272196C330D10511F4C0E0D0E0BF
S11304708C2F0E94FD01882381F4812F9927C817AE
S1130480D90781F78FEF90E080937C0581E080931A
S11304907D0283E10E948D0024C08C2F8695869571
S11304A08695E82FFF27E050FC4F2C2F277081E022
S11304B090E002C0880F991F2A95E2F7982F909533
S11304C0808189238083C0937E028C2F9927DCCF7F
S11304D080E090E0C1CF83E08093090110927D0217
S11304E03798002309F4C698FFBE81E090E0DF91BD
S11304F0CF911F910F91FF9008951F93CF93DF9396
S1130500C82F8FB7F894282F3327122F80917D029C
S1130510882301F18C2F0E94FD018823B1F48C2FD4
S1130520869586958695E82FFF27E050FC4FC77087
S113053081E090E002C0880F991FCA95E2F72081FC
S1130540282B208380E090E002C085E090E01FBF6C
S1130550992719C081E080937D02C0937C052FBF49
S11305608FB7F8949927379A8FBF8FB7F894C82F0D
S1130570DD2780910901833019F483E10E948D0005
S1130580CFBF80E090E0DF91CF911F91089520913B
S11305906606822F99278130910559F082309105A2
S11305A01CF4009731F004C0029711F481E001C0FB
S11305B08FE1582F822F99278130910541F08230A5
S11305C091051CF4892B19F004C0029711F428E05A
S11305D001C020E033278FB7F894E82F80912407D7
S11305E08E7F80932407322F27B160E070E0922F32
S11305F0929596959695937080E0891749F4852F86
S11306008850863118F42F71521711F461E070E0AC
S1130610862F880F209124072D7F282B852F8F71FB
S1130620982F990F990F2378292B20932407806200
S1130630992787B9406C21702295220F207E4F7D27
S1130640422B4861383059F58091F8059091F905AD
S113065021E08638920718F087E090E01FC0833CC1
S1130660910518F086E090E019C08136910518F0E4
S113067085E090E013C08033910518F084E090E0A9
S11306800DC08831910518F083E090E007C00C9705
S113069018F082E090E002C080E090E0382F3770DC
S11306A0487F432B842F992786B9EFBF0895AF92D3
S11306B0BF92CF92DF92EF920F931F935B016C0175
S11306C00E947301DC01CB01E1E0EE2E960185016D
S11306D0AC01BD018BE00E9454011F910F91EF907A
S11306E0DF90CF90BF90AF90089580E00E947D028C
S11306F09927089597E087FF02C0919A01C09198C5
S1130700880F909A9098915097FFF5CF0895982F5D
S11307108FB7F894282F89B78D7F89BF82E088BF6F
S113072080916A00886080936A00992321F0809107
S11307306A00846003C080916A008B7F80936A00A2
S113074089B7826089BF2FBF80E090E008952F921F
S11307503F924F925F926F927F928F929F92AF924D
S1130760BF92CF92DF92EF92FF920F931F938B0170
S1130770882309F0DDC08FB7F89499277093630636
S1130780609362068FBFE090DF03F090E003CB013B
S1130790AA2797FDA095BA2FBC01CD010E943D2A3E
S11307A03B014C0117FF08C020E030E040E857E46B
S11307B00E9490293B014C01C701AA2797FDA095EF
S11307C0BA2FBC01CD010E943D2AF7FE06C020E0ED
S11307D030E040E857E40E9490292AE037ED43E2F4
S11307E05CE30E94AC2ADC01CB0120E030E040E273
S11307F052E4BC01CD010E948F291B012C0122EA85
S113080037EE4BE356EBC401B3010E94AC2ADC0182
S1130810CB01A4019301BC01CD010E94AC2A7B0150
S11308208C0124E533EE45E25DE3C401B3010E948B
S1130830AC2ADC01CB019C01AD01C801B7010E94C7
S11308409029DC01CB0120E030E040E850ECBC0111
S1130850CD010E9490295B016C0120E030E048EC5E
S113086051E4C201B1010E948F297B018C012CEA61
S113087035EC47EA58E3C401B3010E94AC2ADC0119
S1130880CB012AE037ED43E25CE3BC01CD010E94D9
S11308909029DC01CB019C01AD01C801B7010E9484
S11308A0AC2ADC01CB01A6019501BC01CD010E945B
S11308B090297B018C0120E030E048EC52E40E9456
S11308C04A2A181654F40F2EF0E0EF2EF0E0FF2E13
S11308D0F8EC0F2FF2E41F2FF02D2DEC3CEC4CEC38
S11308E05DE3C801B7010E94472A882354F40F2E00
S11308F0FDECEF2EFCECFF2EFCEC0F2FFDE31F2F85
S1130900F02DC201B1010E94202ADC01CB01909399
S1130910FD058093FC05C801B7010E94202ADC0173
S1130920CB019093E3038093E20382E00E947D0273
S11309301F910F91FF90EF90DF90CF90BF90AF90F9
S11309409F908F907F906F905F904F903F902F90EB
S11309500895982F8FB7F894282F3327422F80912A
S11309608102882301F1E92FFF27EE5CF84F808193
S11309708F3FA1F4E0910B01E91781F080910C0104
S11309808F3F19F490930C0104C0FF27EE5CF84FDD
S1130990908390930B0180E090E002C085E090E0AA
S11309A04FBF9927089541E0409381029093FC043E
S11309B02FBF80918002882321F481E10E948D0061
S11309C002C040937F0280E090E00895882359F4A8
S11309D08FB7F89499277093E0036093DF038FBF78
S11309E083E00E94A904089530E0232F909A80B3F5
S11309F099279695879580FD3160273009F0330F4C
S1130A0090982F5F283090F3899A9198909A9098B3
S1130A108998919A832F99270895899A919A909AFF
S1130A2090980895AF92BF92CF92DF92EF92FF9287
S1130A300F931F93F82E5A016B010E947301DC017E
S1130A40CB01EE2496018501AC01BD018F2D0E94DE
S1130A5054011F910F91FF90EF90DF90CF90BF90C2
S1130A60AF9008959091D706980F9093DD039F3F20
S1130A7011F41092DD030895282F8FB7F894992765
S1130A802CB95E9A8FBF0895AF92BF92CF92DF9236
S1130A90EF920F931F935B016C010E947301DC01C1
S1130AA0CB0111E0E12E96018501AC01BD0186E088
S1130AB00E9454011F910F91EF90DF90CF90BF904F
S1130AC0AF900895CF93982F8FB7F894C82F809143
S1130AD081028330A1F580910A01891781F520E014
S1130AE030E080910C018F3F11F421E030E0232BA2
S1130AF0D9F48F3F81F0282F3327F901EE5CF84FAA
S1130B00808180930C018F3F11F480930B018FEF50
S1130B108083C90102C08FEF90E08093FC0481E0E0
S1130B208093810280E109C084E080930A011092DD
S1130B30810281E08093800282E10E948D00CFBF18
S1130B4081E090E0CF91089580E88093DE031092D5
S1130B505F061092EC0510922A070895CF93DF9355
S1130B60CDB7DEB767970FB6F894DEBF0FBECDBF23
S1130B70282FDB0189E0898389E090E08A839B83C5
S1130B8085E090E08C839D83222311F0213009F4C9
S1130B902E8380E1FE0138960D9001928A95E1F74B
S1130BA087E1DE011196E0EEF6E00D9001928A9560
S1130BB0E1F78BE00E948D0067960FB6F894DEBFD4
S1130BC00FBECDBFDF91CF910895AF92BF92CF9268
S1130BD0DF92EF920F931F9301E00093830510912E
S1130BE0D8031123D1F4682F77276115710511F407
S1130BF061E070E06093710480E797E10E943F2B0D
S1130C00CB017093F3056093F205DA98AA27BB270A
S1130C10BC01CD010E94440545C0113001F5682F87
S1130C2077276115710511F461E070E06093720437
S1130C3080E797E10E943F2B7093F5056093F405DC
S1130C40D9985B01CC24DD240E947301DC01CB0123
S1130C50E12E96018501AC01BD0184E021C0123072
S1130C6009F5682F77276115710511F461E070E0CB
S1130C706093730480E797E10E943F2B7093F7051C
S1130C806093F605D8985B01CC24DD240E9473019F
S1130C90DC01CB01E02E96018501AC01BD0185E0AC
S1130CA00E9454011F910F91EF90DF90CF90BF905D
S1130CB0AF900895AF92BF92CF92DF92EF92FF92DE
S1130CC00F931F93CF93DF930E947301FC01EB01F9
S1130CD02091E8043091E9044091EA045091EB0436
S1130CE07B018C01E21AF30A040B150B1092ED043C
S1130CF080917E0490917F04A0918004B09181043E
S1130D00E816F9060A071B07C0F0EE24FF24870142
S1130D10280F391F4A1F5B1F2093E8043093E9040E
S1130D204093EA045093EB04E0927E04F0927F0433
S1130D30009380041093810463C05C016D01AE18BC
S1130D40BF08C00AD10A8601750161E0A61661E0F8
S1130D50B60660E0C60660E0D60690F080E0A8160D
S1130D6080E0B80681E0C80680E0D80610F08FEF76
S1130D7004C0BB27AD2D9C2D8B2D8093ED0458C052
S1130D8061E8A616B104C104D10430F1C058DF4FA4
S1130D90EF4FFF4FC093E804D093E904E093EA04D3
S1130DA0F093EB04C058D040E040F04080E89FEF5F
S1130DB0AFEFBFEFE80EF91E0A1F1B1FE0927E047F
S1130DC0F0927F04009380041093810400E8E02EE5
S1130DD0F12C012D112D14C0280F391F4A1F5B1F40
S1130DE02093E8043093E9044093EA045093EB041D
S1130DF010927E0410927F04109280041092810459
S1130E006E2D82B7282F8C1B8E5F8E1518F0622FE3
S1130E106E5F01C06C0F662309F461E0615000B697
S1130E2001FCFDCF61BF82E086BF87B7826087BFC8
S1130E30DF91CF911F910F91FF90EF90DF90CF90B2
S1130E40BF90AF9008950F931F93DC01CB016FB750
S1130E50F894062F11278093E8049093E904A09353
S1130E60EA04B093EB0420937E0430937F04409310
S1130E708004509381040E945A060FBF1F910F9162
S1130E800895982F8FB7F894282F332790939C00B8
S1130E9080919B00806480939B002FBF08959C01E8
S1130EA080917A0290917B028036910520F0109215
S1130EB07B0210927A026623E1F0D90180917802D4
S1130EC0909179028036910520F010927902109267
S1130ED078028091780290917902FC01EF5EFB4FD9
S1130EE02D9120830196909379028093780261502A
S1130EF029F780917C02882361F481E080937C024D
S1130F00E0917A02F0917B02EF5EFB4F80810E94B8
S1130F1041070895CF93DF93D9019EE79093E603A9
S1130F209093FD0329E030E03093E8032093E70336
S1130F3099279093EA038093E9036093EB0340932A
S1130F40EC03EDEEF3E080E1EF010D9009928A9558
S1130F50E1F737976091DF06CF010E944F07DF91D9
S1130F60CF9108959EE79093E6039093FD0322E0CA
S1130F7030E03093E8032093E70399279093EA0342
S1130F808093E9031092EB036091DF0686EE93E011
S1130F900E944F070895AF92BF92CF92DF92EF92D3
S1130FA0FF920F931F93CF93DF930E94DE01FC0106
S1130FB0EB018091830490918404A0918504B09105
S1130FC08604A090F706B090F806C090F906D09079
S1130FD0FA069C01AD012A0D3B1D4C1D5D1D7901D6
S1130FE08A01EC1AFD0A0E0B1F0BC817D907EA0772
S1130FF0FB0730F0281739074A075B0770F005C074
S1131000281739074A075B0728F4C217D307E407F0
S1131010F50718F0EE24FF24870121E0E21620E80A
S1131020F20620E0020720E0120730F1C050D04859
S1131030EF4FFF4FC0938304D0938404E09385045F
S1131040F0938604C050D048E040F04080E090E83F
S1131050AFEFBFEFE80EF91E0A1F1B1FE092F70661
S1131060F092F8060093F9061093FA06E12C90E842
S1131070F92E012D112D14C08A0D9B1DAC1DBD1D13
S11310808093830490938404A0938504B09386048E
S11310901092F7061092F8061092F9061092FA06CA
S11310A0B7012CB53DB5C9018C1B9D0B03968E155C
S11310B09F0520F0B9016D5F7F4F02C06C0F7D1F4B
S11310C06115710511F461E070E0615070407BBD01
S11310D06ABD80E186BF87B7806187BFDF91CF910A
S11310E01F910F91FF90EF90DF90CF90BF90AF9042
S11310F008950F931F93DC01CB016FB7F894062F6B
S113110011278093830490938404A0938504B0935F
S113111086042093F7063093F8064093F90650931B
S1131120FA060E94CB070FBF1F910F910895EF920B
S1131130FF920F931F93CF938FB7F894C82F0E94F9
S1131140C200DC01CB019C01277030702F5F3F4F40
S1131150C1F0C90143E0880F991F4A95E1F7820F56
S1131160931F820F931F7C01002711270E94DE0129
S1131170DC01CB01A8019701BC01CD010E947908D3
S113118006C081E090E09093680280936702CFBF2D
S1131190CF911F910F91FF90EF90089597B79F7D86
S11311A097BF90E296BF882319F08EB5806402C081
S11311B08EB58F7B8EBD87B7806287BF80E090E05D
S11311C008958FB9779BFECF8FB1992708950F9318
S11311D01F938B010E94E108812F99270E94E10847
S11311E0802F0E94E10899271F910F910895DF92A3
S11311F0EF92FF920F931F93CF937A01C22FDD24B6
S11312008C01060F111D802F80680E94E10816953D
S11312100795802F807C0E94E108CC2341F0F701E0
S113122081917F010E94E108D82EC150F6CF8D2D07
S11312309927CF911F910F91FF90EF90DF90089520
S1131240882311F06F9A08956F9808951F9310E002
S1131250812F0E94B200BA9ABB98B99AB89A6C9A34
S1131260C098812F0E942009709A6B986A98689898
S113127081E00E94B2001F9108950F931F93CF93B2
S1131280082F8FB7F894282F3327122F80916B02E1
S1131290882321F02FBF85E090E021C0909169025E
S11312A0992341F482E0809369029093020180E0E3
S11312B090E002C081E090E09927C82F882311F4C0
S11312C00E9426098C2F9927282F882329F400931C
S11312D0050181E080936B021FBF822F9927CF9174
S11312E01F910F910895CF93C82F0E94B8008823AF
S11312F011F40E94260980916902882359F481E03F
S113130080936902C09361068DE10E948D0080E0A4
S113131090E01EC0EC2FFF27E652FC4F80818F3FE8
S1131320A1F4E0910301EC1781F0809104018F3F57
S113133019F4C093040104C0FF27E652FC4FC08394
S1131340C093030180E090E002C085E090E099271B
S11313509927CF910895CF93282F8FB7F894C82F4A
S113136090916B02992369F081E090E002C0880FAC
S1131370991F2A95E2F720916A02282B20936A028A
S113138008C02093050181E080936B02892F0E949D
S11313907309CFBF80E090E0CF910895CF9382E0AE
S11313A00E943D099927C82F882319F082E00E94E2
S11313B0AB098C2F9927CF9108951F93CF93DF9377
S11313C0982F8FB7F894282F3327122F8091050177
S11313D0891721F02FBF81E090E071C04FEF409357
S11313E0050180916902823009F03FC090910201A9
S11313F09923D9F520E030E080910401841711F499
S113140021E030E0232B69F58F3F79F0282F332733
S1131410F901E652FC4F8081809304018F3F11F45F
S1131420409303014083C90102C08FEF90E0809391
S1131430610681E0809369028DE10E948D0015C0F0
S11314402093050181E090E002C0880F991F4A951E
S1131450E2F78095382330936A0280E00E94730992
S11314602BC040930201909369020E94B800C82FD8
S1131470DD27CC2331F48C2F0E94B200C0932807BF
S1131480C09A30916A023323A9F0209105012F5F9D
S1131490632F7727243008F020E0422F5527CB0113
S11314A0042E02C0959587950A94E2F780FDC8CF73
S11314B02F5FF0CF10926B021FBF80E090E0DF91AE
S11314C0CF911F910895CF93C1E0C0988091EC040F
S11314D0882311F085E001C084E00E94E10883FDC7
S11314E005C080E00E94E10883FDC0E08FB7F89456
S11314F0CC2319F023E030E002C025E030E0309343
S11315006802209367028FBFC09ACC2329F082E03F
S11315100E94DD090E949708CF9108958F929F92AF
S1131520AF92BF92CF92DF92EF92FF920F931F93ED
S1131530CF93DF938FB7F894C090EE04D090EF046C
S11315408090DB039090DC03C0910304D0910404E9
S1131550AE01465F5F4F2091640630916506241703
S1131560350708F09A018FBF59010894A108B10802
S1131570CA15DB05E8F47E01E80CF91C8E010C0D9C
S11315801D1DC114D10419F0F801808101C080E04F
S11315900E94E1088114910411F0F70180832196DF
S11315A00F5F1F4F0894E11CF11CCA15DB0548F3BB
S11315B081E00E9420098FB7F894982FC114D104B8
S11315C031F0CC0EDD1EF60180818FB901C01FB849
S11315D0D0930404C09303049FBF80E090E0DF91A4
S11315E0CF911F910F91FF90EF90DF90CF90BF901C
S11315F0AF909F908F9008959C018FB7F89499278E
S11316003093EF042093EE047093DC036093DB03C8
S113161050936506409364061092040410920304E8
S11316208FBF8FB10E948E0A992708950F931F933D
S1131630C0980091B4021091B5028FE790E09093A6
S1131640960680939506809195060E94E10841E0F4
S113165050E0B80180E090E00E94FC0A1F910F91D5
S1131660089582E090E0909378048093770483E077
S11316700E943D09882319F40E94160B089583E003
S11316800E94AB090895CF938FB7F894282F33277E
S1131690C22F8091770490917804892B11F42FBF85
S11316A026C020912A07222341F080E090E0B79BD6
S11316B002C081E090E0892B49F481B1992776E05A
S11316C0969587957A95E1F780FD08C0222319F055
S11316D0215020932A070E94310B08C081E090E03A
S11316E0909378048093770410922A07CFBFCF9108
S11316F008951F93CF93DF93C091A304D091A404C2
S11317008FA19927182F882309F41FE1C09880918D
S1131710FB06811741F0812F9927806E9068BC01E8
S113172085E10E94E7081093FB06188111508EE3AF
S113173090E09093960680939506809195060E947A
S1131740E108812F9927AC0160E070E0CE010E948E
S1131750FC0ADF91CF911F9108958998919A909AEC
S113176080B399279695879580FF03C081E090E028
S11317700895909880E090E00895AF92BF92CF9240
S1131780DF92EF920F931F935B016C010E94730130
S1131790DC01CB01F1E0EF2E96018501AC01BD0126
S11317A08CE00E9454011F910F91EF90DF90CF9035
S11317B0BF90AF9008951F93889A90988998919AB2
S11317C089B78D7F89BF899A919A909888E0909A79
S11317D09098815087FFFBCF899A919A9098909A1C
S11317E091989098909A919A9098809130079091BE
S11317F031078F71907090933107809330078091F7
S113180030070E947A030E94AD0B882329F01092BE
S1131810840281E090E048C0209130073091310784
S11318202630310561F12730310538F42330310594
S113183079F02530310561F035C02730310599F054
S11318402E31310579F56BE070E080E090E008C05E
S11318508998919A0E9487036EE571E080E090E098
S11318600E94BD0B1FC00E94F404182F0E94F404B0
S11318700E940D05109383028EE00E948D008091DA
S11318807F050E947A030E94AD0B882321F081E03A
S11318908093820204C080917F05809383028EE04E
S11318A00E948D0080E090E01F910895282F809180
S11318B00D01882319F484E090E008958091840256
S11318C0882319F085E090E0089581E080938402F4
S11318D083E090E090933107809330072093FD06D6
S11318E00E94DB0B99270895282F80910D018823EE
S11318F019F484E090E0089580918402882319F01B
S113190085E090E0089581E08093840285E090E092
S113191090933107809330072093FD060E94DB0BE0
S1131920992708951F93CF93DF93162FEA019927E0
S113193081309105E9F0823091051CF4892B21F066
S113194017C0029771F014C080E00E946205112351
S113195021F4D0931501C093140181E00E94A904DD
S113196007C082E00E946205BE01812F0E94E60446
S1131970DF91CF911F9108951F93CF93DF93162F7B
S1131980EA0199278130910549F082309105CCF024
S113199082309105B1F0039769F013C081E00E9491
S11319A06205112321F4D0931301C09312010E9404
S11319B0750307C083E00E946205BE01812F0E9467
S11319C0A703DF91CF911F9108952F923F924F92D9
S11319D05F926F927F928F929F92AF92BF92CF92BB
S11319E0DF92EF92FF920F931F93CF93DF93CDB7C4
S11319F0DEB7EB970FB6F894DEBF0FBECDBF6DAB6D
S1131A007EAB8FAB98AF19AE4424552436EB232E0E
S1131A1032E0332EF101608561FF31C320813181D1
S1131A20428153818DA99EA9AFA9B8AD821B930BA6
S1131A30A40BB50BE480F580068117818E159F05F4
S1131A40A007B10708F41BC360FF03C06D7F608764
S1131A500AC02E0D3F1D401F511FD1012D933D93F0
S1131A604D935C931397B7E04B16510409F490C05F
S1131A70E8E04E16510414F5F3E04F16510409F44E
S1131A8054C084E04816510474F491E0491651049A
S1131A9009F447C0A2E04A1651040CF044C04114B2
S1131AA05104A9F1ECC2B5E04B16510409F44CC041
S1131AB0E6E04E1651040CF054C039C0FBE04F165A
S1131AC0510409F475C18CE0481651045CF499E0A2
S1131AD04916510409F46AC1AAE04A1651040CF0EB
S1131AE019C110C1BEE04B16510409F4A6C1EFE0C0
S1131AF04E16510434F4FCE04F16510409F476C137
S1131B00BEC28FE04816510409F430C2B8C282E064
S1131B100E94A90460E47FE180E090E00E94BC019F
S1131B20AEC2D99AACC2D89AAAC2DA9AA8C2DA9A30
S1131B3080917204815080937204882331F18091E2
S1131B40F4059091F50519C0DA9A809173048150D7
S1131B50809373048823C9F08091F6059091F7056A
S1131B600CC0DA9A809171048150809371048823A7
S1131B7061F08091F2059091F305DA98AA27BB27CA
S1131B80BC01CD010E9444057AC28093830577C2CB
S1131B90F090160191E0F91609F063C08E010F5F11
S1131BA01F4F8091B202882399F580918105882383
S1131BB029F4A9E1B1E0AAAFBBAF0DC0813029F48B
S1131BC0EEE1F1E0EAAFFBAF06C0823021F484E23B
S1131BD091E08AAF9BAFAAADBBADBF93AF9389E24F
S1131BE091E09F938F931F930F930E943826EDB734
S1131BF0FEB736960FB6F894FEBF0FBEEDBFB80120
S1131C008091B2020E94AE0581E08093B20229C0A5
S1131C1080917D0590917E059F938F9380917504AB
S1131C20909176049F938F938091A1049091A20444
S1131C309F938F9388E391E09F938F931F930F93C8
S1131C400E9438268DB79EB70A960FB6F8949EBFA9
S1131C500FBE8DBFB8018091B2020E94AE05F09212
S1131C60B20280911601823009F009C28E010F5F21
S1131C701F4F80912B079927AA27BB27B82FAA2784
S1131C809927882720912C07332744275527A90112
S1131C9033272227822B932BA42BB52B20912D079E
S1131CA0332744275527542F432F322F2227822BA3
S1131CB0932BA42BB52B20912E073327442755278C
S1131CC0822B932BA42BB52BBF93AF939F938F930E
S1131CD084E491E09F938F938EE491E09F938F939C
S1131CE01F930F930E943826ADB7BEB71A960FB64E
S1131CF0F894BEBF0FBEADBFB8018091B3020E947D
S1131D00AE05BDC182E08093D90382E18093FE05D4
S1131D1086E029C18091D7068F5F8093D7068F3FD5
S1131D2011F41092D7069091D7068091DD0398178D
S1131D3009F0A5C18091850299279F938F93809183
S1131D401701909118019F938F9386E591E09F93DB
S1131D508F938CEC95E09F938F930E943826EDB778
S1131D60FEB738960FB6F894FEBF0FBEEDBF809154
S1131D7085028630B8F48F5F809385028630B0F098
S1131D80FE01B19680E1DF011D928A95E9F79F017A
S1131D9040E065E18091FE050E948A078EE10E9481
S1131DA032056DC11092850210928A028AE0DBC06E
S1131DB08FB7F894082F1127902F80910A0184304F
S1131DC099F480918102813021F480E10E948D0098
S1131DD009C0823049F48091FC0480930A0183E0B5
S1131DE0809381020FBF4BC19FBF49C180913007CF
S1131DF09091310785309105B1F08630910518F442
S1131E00039739F03CC14E9709F039C1109284020E
S1131E1036C11092840240E050E061E08091FD06FA
S1131E200E94920C2CC11092840240E050E061E0C8
S1131E308091FD060E94BC0C22C18FB7F8949927AB
S1131E40A0906C02AA2011F08FBF19C18FBF80B37C
S1131E50992776E0969587957A95E1F7682EB1E013
S1131E606B22809182059091D703891709F478C079
S1131E70691609F075C084E090E090936E02809337
S1131E806D02809106019091070189AB892F9927F2
S1131E908AAB80910307909104078BAB892F992714
S1131EA08CAB8FB7F89499271B2FB0936C028FBF1C
S1131EB08CE10E948D0060E070E08DE10E94E708F3
S1131EC024E0AE014F5C5F4F6A2D88E691E00E94EA
S1131ED0F708C09AC0988FB7F894E82EFF24812F92
S1131EE00E94CE0801E010E010936802009367029C
S1131EF0A0926602A092FB06EFBE8FB7F894E82E7C
S1131F00FF240E94A405109378040093770489B7F2
S1131F108F7B89BF80E488BF8AB780628ABF8AB713
S1131F208F7E8ABF89B7806489BFEFBE8FB7F8946C
S1131F30082F112780916D0290916E02049719F475
S1131F4083E00E94E1080FBF8FB7F894082F112790
S1131F50C09A80E00E94DD090FBF87E10E948D00D6
S1131F60609282058BE10E948D0089C08091FF06FA
S1131F709927AA27BB27182F0027FF24EE24809136
S1131F8000079927AA27BB27DC0199278827E82A75
S1131F90F92A0A2B1B2B809101079927AA27BB2713
S1131FA0BA2FA92F982F8827E82AF92A0A2B1B2B46
S1131FB0809102079927AA27BB27E82AF92A0A2B26
S1131FC01B2B0894E11CF11C011D111DE09202075A
S1131FD06F2C702E812E9924609201075801CC2415
S1131FE0DD24A0920007812F9927AA27BB2780937D
S1131FF0FF069927AA27BB27582F442733272227D0
S11320008A2D9927AA27BB27DC0199278827282B03
S1132010392B4A2B5B2B862D9927AA27BB27BA2F4E
S1132020A92F982F8827282B392B4A2B5B2B8E2DF1
S11320309927AA27BB27282B392B4A2B5B2B2093C4
S11320402E07BB27A52F942F832F80932D07CA011A
S1132050AA27BB2780932C07852F9927AA27BB275C
S113206080932B07205A36484140504041F48091D8
S113207045038D7F8093450381E080938204F9AD0D
S1132080FF5FF9AF89E090E0280E391E0894411CE7
S1132090511CF03108F4BECC83E00E948D00EB9615
S11320A00FB6F894DEBF0FBECDBFDF91CF911F9165
S11320B00F91FF90EF90DF90CF90BF90AF909F90E3
S11320C08F907F906F905F904F903F902F900895E6
S11320D02F923F924F925F926F927F928F929F9234
S11320E0AF92BF92CF92DF92EF92FF920F931F9322
S11320F0CF93DF93CDB7DEB726970FB6F894DEBF44
S11321000FBECDBF4C01C401AA2797FDA095BA2FDD
S113211089839A83AB83BC83BC01CD010E943D2A91
S11321202B013C0197FE08C020E030E040E857E472
S11321300E9490292B013C018091D803082F11277C
S11321401801220C331C220C331C53EAA52E52E036
S1132150B52EA20CB31CD501CD90DD90ED90FC9072
S1132160A7019601C301B2010E948F292B013C01F2
S1132170F801E155FD4F10811F5F1083E12FFF2708
S1132180ED83FE83CF01AA2797FDA095BA2FBC014A
S1132190CD010E943D2ADC01CB019C01AD01C301AC
S11321A0B2010E94DA29DC01CB019C01AD01C70117
S11321B0B6010E9490296B017C01D5016D937D933A
S11321C08D939C931397113009F45CC069817A81D3
S11321D08B819C810E943D2A97FE06C020E030E05E
S11321E040E857E40E949029A70196010E948F2994
S11321F0DC01CB014BE8C42E42E0D42EC20CD31C2C
S11322009C01AD01C301B2010E94AC2ADC01CB01E7
S1132210F601E080F180028113819C01AD01C801C7
S1132220B7010E9490297B018C01D6016D937D93A7
S11322308D939C9313976101E7E9F2E0CE0EDF1EC4
S11322402D813E8121503040C901AA2797FDA095D8
S1132250BA2FBC01CD010E943D2ADC01CB019C01B7
S1132260AD01C801B7010E94DA29DC01CB01BC0130
S1132270CD010E94FA2ADC01CB01F601808391830F
S1132280A283B38326960FB6F894DEBF0FBECDBFEC
S1132290DF91CF911F910F91FF90EF90DF90CF903E
S11322A0BF90AF909F908F907F906F905F904F9072
S11322B03F902F9008952F923F924F925F926F928A
S11322C07F928F929F92AF92BF92CF92DF92EF92C2
S11322D0FF920F931F93CF93DF93CDB7DEB72C9765
S11322E00FB6F894DEBF0FBECDBF9927AA27BB2730
S11322F0FC014F9710F00C94491BEA5BFF4FEE0F63
S1132300FF1F0590F491E02D09948091FF06992711
S1132310AA27BB27582F4427332722278091000759
S11323209927AA27BB27DC0199278827282B392B33
S11323304A2B5B2B809101079927AA27BB27BA2F29
S1132340A92F982F8827282B392B4A2B5B2B809178
S113235002079927AA27BB27282B392B4A2B5B2B4B
S11323602093F304BB27A52F942F832F8093F2048B
S1132370CA01AA27BB278093F104852F9927AA278E
S1132380BB278093F004809109049927982F88270C
S113239020910A043327822B932B8093F504892FF1
S11323A099278093F40480910B049927982F882708
S11323B020910C043327822B932B8093F704892FCD
S11323C099278093F60480910D049927982F8827E4
S11323D020910E043327822B932B8093F904892FA9
S11323E099278093F80480910F049927982F8827C0
S11323F0209110043327822B932B8093FB04892F85
S113240099278093FA0486E10C94081A8091830535
S1132410813011F40C94081A8091F1054CE0849FEA
S113242090011124295B3C4F992701966CE070E0E0
S11324300E94532B8093F1052115310511F40C945E
S1132440491BE5E0F4E0D9010D9001924A95E1F7CA
S1132450809109049927582E442480910A049927CD
S1132460482A592A80910B049927782E6624809152
S11324700C049927682A792A80910D049927982EAB
S1132480882480910E049927882A992A8FB7F89472
S1132490A82E8091D803882309F068C0C2010E9445
S11324A06810C201AA2797FDA095BA2FBC01CD01DF
S11324B00E943D2A7B018C0157FE08C020E030E0D9
S11324C040E857E40E9490297B018C018091D80355
S11324D0E82FFF27EE0FFF1FEE0FFF1FED55FD4FF7
S11324E080819181A281B3819C01AD01C801B701B2
S11324F00E948F29DC01CB01BC01CD010E94202A5E
S1132500DC01CB010E94E505B090D8030B2D112707
S1132510000F111F000F111FF801ED55FD4F8081B1
S11325209181A281B381BC01CD010E94202A6B015B
S11325307C01F801E956FD4F80819181A281B3812C
S1132540BC01CD010E94202ADC01CB01B09281059F
S11325505092A2044092A104D0927604C0927504D1
S113256090937E0580937D0581E06AC0813009F0F7
S11325706AC0C3010E946810C301AA2797FDA095F1
S1132580BA2FBC01CD010E943D2A7B018C0177FE4C
S113259008C020E030E040E857E40E9490297B0125
S11325A08C018091D803E82FFF27EE0FFF1FEE0F59
S11325B0FF1FED55FD4F80819181A281B3819C0164
S11325C0AD01C801B7010E948F29DC01CB01BC0118
S11325D0CD010E94202ADC01CB010E94E505B090C8
S11325E0D8030B2D1127000F111F000F111FF80125
S11325F0ED55FD4F80819181A281B381BC01CD0154
S11326000E94202A6B017C01F801E956FD4F80816C
S11326109181A281B381BC01CD010E94202ADC01F9
S1132620CB01B09281057092A2046092A104D09271
S11326307604C092750490937E0580937D0582E0B4
S11326408093D8036BC0823009F068C0C4010E9433
S11326506810C401AA2797FDA095BA2FBC01CD012B
S11326600E943D2A7B018C0197FE08C020E030E0E7
S113267040E857E40E9490297B018C018091D803A3
S1132680E82FFF27EE0FFF1FEE0FFF1FED55FD4F45
S113269080819181A281B3819C01AD01C801B70100
S11326A00E948F29DC01CB01BC01CD010E94202AAC
S11326B0DC01CB010E94E505B090D8030B2D112756
S11326C0000F111F000F111FF801ED55FD4F808100
S11326D09181A281B381BC01CD010E94202A6B01AA
S11326E07C01F801E956FD4F80819181A281B3817B
S11326F0BC01CD010E94202ADC01CB01B0928105EE
S11327009092A2048092A104D0927604C09275049F
S113271090937E0580937D051092D803AFBEB9C710
S113272040914603442339F58FB7F894282F332773
S1132730E090E804F090E9040091EA041091EB04BD
S113274080917E0490917F04A0918004B0918104D3
S1132750E80EF91E0A1F1B1F2FBF8091DB06909104
S1132760DC06A091DD06B091DE069C01AD01C80136
S1132770B7010E9423070E947301DC01CB01BC0155
S1132780CD0140C00E9473017B018C018FEFA82E04
S11327908FEFB82E8FEFC82E8FE7D82E70E087B753
S11327A08D7F87BFE6EBF2E06FE0808581FF1CC080
S11327B080819181A281B381A8019701281B390BE3
S11327C04A0B5B0BDA01C9012481358146815781AB
S11327D0281B390B4A0B5B0B2A153B054C055D0581
S11327E01CF459016A0171E06150399667FFDDCF2D
S11327F0772309F44EC71A141B041C041D042CF07F
S1132800C801B7010E94E50C44C7A092DB06B09250
S1132810DC06C092DD06D092DE0681E0809346039A
S1132820A6019501C801B7010E94230732C785EAB2
S113283094E0909302048093010482E08093D9038E
S113284082E18093FE0588EB9BE09093880480935B
S113285087041092890210928802109287021092C3
S113286086021092850210927C0210927B021092D2
S11328707A02109279021092780280919A00806410
S113288080939A0080919A00886080939A00809146
S11328909A00806880939A0080919A008061809366
S11328A09A0080919A00886080939A0080919A009F
S11328B0806180939A0088E18093DF0688E48093A6
S11328C079041EE71093E6031093FD031093840527
S11328D01093CB0548E150E060E070E086EE93E0B1
S11328E00E9431261093E60383E090E09093E8037E
S11328F08093E7031093FD036091DF0686EE93E077
S11329000E944F0740EA5FE060E070E088E00E94C8
S11329109B01BFC688EB9BE0909388048093870457
S113292080910F038D7F80930F0348EB5BE060E0A1
S113293070E089E08AC0809106038D7F809306034E
S1132940E090D903F090FE058F2D99279F938F93E4
S11329508E2D99279F938F93809117019091180141
S11329609F938F938FE691E09F938F9307E916E0EF
S11329701F930F930E9438264DB75EB7465F5F4F93
S11329800FB6F8945EBF0FBE4DBFF8010190002052
S1132990E9F73197E01BF10B809173029091740277
S11329A08F37910520F01092740210927302EE2377
S11329B0C9F02091710230917202D8014E2F2F3745
S11329C0310510F020E030E0F901E350FB4F8D9128
S11329D08083C90101969C01415089F7909372024A
S11329E08093710280917502882361F481E0809361
S11329F07502E0917302F0917402E350FB4F808101
S1132A000E943C0555E0F51611F084E001C5E09202
S1132A108005F092FE0644EF51E060E070E087E04C
S1132A2014C08091A904813019F0823009F031C6B4
S1132A30809316012EC6809118038D7F809318030E
S1132A4044E650E060E070E08AE00E94120521C68E
S1132A508091FE058231E9F482E190E09F938F93A7
S1132A6080911701909118019F938F938FE891E0C3
S1132A709F938F938CEC95E09F938F930E943826BD
S1132A808DB79EB708960FB6F8949EBF0FBE8DBF44
S1132A9096C0863019F08D3009F047C080918A02C3
S1132AA099279F938F938091FE0599279F938F93E6
S1132AB080911701909118019F938F9382EA91E07E
S1132AC09F938F938CEC95E09F938F930E9438266D
S1132AD0ADB7BEB71A960FB6F894BEBF0FBEADBF62
S1132AE08091FE058D3019F484E00E943205209116
S1132AF0FE0530918A028EE78093E6038093FD03FE
S1132B008AE090E09093E8038093E703822F99276B
S1132B109093EA038093E9033093EB036091DF061B
S1132B2086EE93E00E944F07B4C5893009F4B1C51D
S1132B3099279F938F9380911701909118019F93E8
S1132B408F938DEB91E09F938F938CEC95E09F9303
S1132B508F930E943826EDB7FEB738960FB6F894D7
S1132B60FEBF0FBEEDBF2DC08091E1069091E2063D
S1132B70029761F58091E3069091E4069F938F9309
S1132B8080911701909118019F938F9380ED91E0AC
S1132B909F938F938CEC95E09F938F930E9438269C
S1132BA02DB73EB7285F3F4F0FB6F8943EBF0FBE18
S1132BB02DBF8091E3069091E406429711F480E0E2
S1132BC06FC18091FE050E94B20763C58091E00643
S1132BD00CEC15E02091E3063091E406882309F01B
S1132BE040C080918704909188048217930789F0EC
S1132BF0309388042093870480910F038D7F809302
S1132C000F03C901AA27BB27AC01BD0189E00E94BB
S1132C1012058091E3069091E4069F938F9380912F
S1132C20E20699279F938F938091E10699279F93BA
S1132C308F9380911701909118019F938F9384EE45
S1132C4091E09F938F931F930F930E9438264DB763
S1132C505EB7445F5F4F0FB6F8945EBF0FBE4DBFC3
S1132C6018C58091E60699279F938F938091E50676
S1132C7099279F938F933F932F938091170190915E
S1132C8018019F938F9381E092E09F938F931F93FA
S1132C900F930E9438268DB79EB70C960FB6F89402
S1132CA09EBF0FBE8DBF8091FE054091E6066091E8
S1132CB0E506A7EEB6E0893041F58EE78093E6039A
S1132CC08093FD0389E090E09093E8038093E70309
S1132CD09093EA038093E9036093EB034093EC033E
S1132CE02DEE33E080E1F9010D9001928A95E1F730
S1132CF06091DF06C90107970E944F078AE090E0C0
S1132D009093E8038093E703C4C49D010E948A075B
S1132D10C0C482E08093E103E0910104F0910204D5
S1132D208091D9038083E0910104F09102048091A1
S1132D30FE058183E0910104F091020480918704EF
S1132D40909188048283938380911401909115015A
S1132D5084839583809112019091130186839783D4
S1132D6080911001909111018087918780910E01CB
S1132D7090910F018287938714861586168617868D
S1132D808091E103825F8093E10387E041C38091F6
S1132D908402882309F47DC480912A038D7F809363
S1132DA02A030E94F4049927182F00270E94F40490
S1132DB09927082B192B0E94F4040E940D05809179
S1132DC03007909131078330910519F0059751F040
S1132DD060C410928402A80160E08091FD060E9404
S1132DE0920C57C410928402A80160E08091FD0601
S1132DF00E94BC0C4EC480913007909131078630FC
S1132E00910531F0079709F044C41092840241C43B
S1132E1010928402109282023CC480917F0281301D
S1132E2031F46BE070E080E090E00E9457038FB7CC
S1132E30F894992710927F02109280021FC28FB7D4
S1132E40F89499272091FC0420930A01B3E0FB2E07
S1132E50F09281028FBF022F11270130110519F161
S1132E600230110524F40115110541F012C4023099
S1132E70110569F103301105D9F10BC480E00E94FA
S1132E80560CE82EFF24EE2009F403C480E00E94CF
S1132E906205EE2021F4109315010093140181E0E2
S1132EA00E94A904F6C381E00E94740C082F112724
S1132EB0002309F4EEC381E00E946205002321F49B
S1132EC010921301109212010E947503E2C382E072
S1132ED00E94560C082F1127002309F4DAC382E05C
S1132EE00E94620560E070E0802F0E94E604D1C376
S1132EF08F2D0E94740C082F1127002309F4C9C3D5
S1132F008F2D0E94620560E070E0802F0E94A7036D
S1132F10C0C36BE070E080E090E00E945703B9C347
S1132F2088989098899891988FE072C28FB7F89496
S1132F30282F332790917C059093090183E0809397
S1132F407D022FBF892F9927009711F4BE9AC69A44
S1132F508130910579F0823091051CF4892B21F0A0
S1132F6098C3029759F095C381E08093600610924C
S1132F7066060AC081E08093600604C081E0809305
S1132F80600682E0809366060E94C70282C31092A4
S1132F90600680916606E090E403F090E503082F54
S1132FA011270130110569F00230110524F40115CF
S1132FB0110529F00BC00230110529F007C080E08B
S1132FC003C081E001C082E00E94120201301105B9
S1132FD0B9F0023011051CF4012B29F05AC3023058
S1132FE01105C9F056C3A6E0F694E794AA95E1F753
S1132FF0F0921101E092100181E00E947D0249C328
S1133000F6E0F694E794FA95E1F7F0920F01E09276
S11330100E018CE0FDC1E6E0F694E794EA95E1F751
S11330208091FC059091FD052091E2033091E3032A
S113303080930A04892F99278093090420930C0410
S1133040832F992780930B04E0920E048F2D9927E8
S113305080930D048091FA059091FB059C010196E3
S11330609093FB058093FA0520931004832F9927EE
S113307080930F0480E0CCC180917002813049F5C7
S113308082E0809370020E94C200DC01CB01809335
S1133090DA068FB7F894282F332780916D02909128
S11330A06E02892B11F02FBF14C081E090E0909341
S11330B06E0280936D022FBFDD9A0E94DE01DC0157
S11330C0CB0124E130E040E050E0BC01CD010E949E
S11330D0790885E19DC140E050E061E477E08CE04F
S11330E020EF34E0DB01F90101900D928A95E1F7BC
S11330F06B50704083E9809340078FEF9FEF80937C
S11331003C078FEF90E080933D0782E290E080934C
S11331103A0740933B078FB7F894282F33278091C1
S11331207002833021F02FBF81E090E054C085E02D
S11331308093700270932607609325078091DA06C6
S11331408F5F8093DA06809339072FBF8DE08093D9
S11331503607809137078072992781649868809335
S11331603707892F99278093380780910001909120
S1133170010180933E07892F992780933F0740934D
S1133180610740935E0740935F0740936307409352
S113319062078FB7F894282F3327809167029091A4
S11331A06802019711F02FBF14C082E090E0909361
S11331B068028093670281E08093EC047093A40416
S11331C06093A3042FBF0E94CE09882311F40E94A8
S11331D0790B80E090E0892B19F086E10E948D0044
S11331E080918204882321F48091450381FF51C298
S11331F0DA980E947301DC01CB0111E0E12E08ECA6
S113320010E020E030E0AC01BD0183E00E945401F5
S1133210D9980E947301DC01CB0108EC10E020E096
S113322030E0AC01BD018E2D0E945401D8980E945B
S11332307301DC01CB0108EC10E020E030E0AC01CC
S1133240BD0182E00E94540124C283E08093700295
S113325068EE73E080E090E00E94BC011AC281E055
S113326005C08FB7F89499278FBF83E080937002CD
S113327010C28FB7F8949927109274048FBF09C2B3
S11332808FB7F894C82EDD2480916C02882379F4DA
S11332900E947301DC01CB01F1E0EF2E01E010E0AC
S11332A020E030E0AC01BD018EE00E945401CFBEAD
S11332B0F0C18FB7F894282F332780916C028823AC
S11332C029F080913C038D7F80933C032FBFE1C1A3
S11332D08FB7F894282F33279091610690930201B9
S11332E082E0809369022FBF992309F0D2C18FB77E
S11332F0F8949927209105018FBF33272130310598
S113330009F453C0223031051CF4232B51F0C1C100
S11333102230310509F47FC02330310509F493C00C
S1133320B8C1C0988FB7F894E82EFF2480916D023D
S113333090916E020297B9F583E090E090936E024B
S113334080936D0268E170E08DE10E94E70811E06E
S11333501093D70310926C0280B39927E6E09695F8
S11333608795EA95E1F78123809382058BE10E949A
S11333708D00812F0E94E1086FE772E08CE10E94CA
S1133380E7089091080185E0989FC0011124825DAF
S11333909E4F9064BC0188E10E94E70862EF7AE2E4
S11333A081E10E94E708EFBE74C18FB7F894282F1B
S11333B03327409108018E010F5F1F4F8091060152
S11333C0909107018983892F9927F801818380913E
S11333D00307909104078B83892F99278C832FBF30
S11333E0C09885E0489FC0011124825D9E4F90647F
S11333F0BC0188E10E94E70824E0A80160E088E6B7
S113340091E00E94F708C09A81E00E94DD098AE1F8
S11334100E948D003EC18FB7F894992720916702CE
S11334208FBF33272230310521F02430310521F0BC
S113343006C00E94790B2DC10E94630A2AC182E052
S11334400E94DD0926C10E94160B23C1A091B4027B
S1133450B091B5028C919D01280F311DF901808135
S1133460881F8827881FFD0182A7F90182919F0187
S11334702F5F3F4FFD0180A7F90180818F77FD0108
S113348081A72091B4023091B50229873A87255F3C
S11334903F4F2B873C87E985FA8587819927382F09
S11334A0222786819927282B392B8091000190911E
S11334B001012817390721F02F5F3F4F09F0E1C0C0
S11334C089859A850E94DA01833909F0DAC0E98591
S11334D0FA8583859927AA27BB27D82ECC24BB2419
S11334E0AA24EB85FC8581819927AA27BB27DC01C7
S11334F099278827A82AB92ACA2ADB2A82819927E8
S1133500AA27BB27BA2FA92F982F8827A82AB92A18
S1133510CA2ADB2A83819927AA27BB27A82AB92A82
S1133520CA2ADB2AA8862B2C3C2C4D2C55242F820E
S11335303601882499246E822D2D3327442755275C
S11335402D838091FF069927AA27BB27182F0027D0
S1133550FF24EE24809100079927AA27BB27DC01CA
S113356099278827E82AF92A0A2B1B2B809101071F
S11335709927AA27BB27BA2FA92F982F8827E82A8B
S1133580F92A0A2B1B2B809102079927AA27BB270C
S1133590E82AF92A0A2B1B2B822F9927AA27BB2753
S11335A0B82FAA2799278827262D3327442755275C
S11335B0A90133272227822B932BA42BB52B222D51
S11335C0332744275527542F432F322F2227822B6A
S11335D0932BA42BB52B2A2D332744275527822B35
S11335E0932BA42BB52BE816F9060A071B0708F042
S11335F048C08091450381FF03C08D7F80934503BC
S11336002B853C8521153105C9F1F901828599275E
S1133610582F4427E985FA8586899927482B592B01
S113362080910F049927982F88272091100433271D
S1133630822B932B8417950708F55093FB05409331
S1133640FA0580912907282F33274CE050E0249F66
S1133650F001259FF00D349FF00D1124E95BFC4F20
S11336608CE0AB85BC850D9001928A95E1F7C90188
S11336700196BA010E94532B8093290781E00E948E
S11336808D00E985FA85F093B502E093B4020E94B7
S1133690430B2C960FB6F894DEBF0FBECDBFDF915F
S11336A0CF911F910F91FF90EF90DF90CF90BF903B
S11336B0AF909F908F907F906F905F904F903F90CE
S11336C02F9008958091FC068F3FD1F09091FC06D5
S11336D08091FC06E82FFF27EB5FF84F80818093F1
S11336E0FC068091FC068F3F11F480932707892FF5
S11336F09927FC01EB5FF84F2FEF20839C0102C058
S11337002FEF30E02F3F19F480E090E00895822FEE
S11337100E945B1181E090E00895CFEFD0E1DEBF1D
S1133720CDBF8FB7F894C82F4FE150E06FEF70E032
S113373085E097E00E9431268FEF8093FC0680930A
S1133740270781E08EBD88E080BF83E083BF2CB56E
S11337503DB54AE78CB59DB58217930708F44150EF
S11337609C014423B9F792B782B78917E9F32CB5C2
S11337703DB592B782B78917E9F38CB59DB5821B25
S1133780930B409665E0969587956A95E1F790933B
S1133790F9058093F80513BE83B78EBD8EB580BF3F
S11337A012BE1DBC1CBC8FEF86BF86B780937C0005
S11337B080B7282F33272770307021153105C1F7C2
S11337C0D29AD19AD09ADA9AD99AD89A25BB8FEFFD
S11337D084BBD498DC983DBD2CBD87B7846087BF7B
S11337E08EB5887F84608EBD16B880B7886080BF30
S11337F080E285BF0E94621B8823E1F78091170154
S1133800909118010196AA27BB2780937A0490937C
S11338107B04A0937C04B0937D048FEF8093DA0340
S113382080917002882319F481E080937002B89A21
S1133830D69AD59A80910001909101019093040742
S1133840809303078E98B89A8C9887E696E09093B5
S1133850B5028093B4020091F8051091F905C801EE
S1133860AA27BB275CE0880F991FAA1FBB1F5A9584
S1133870D1F7BC01CD0120E031EE40E050E00E94E0
S1133880662BDA01C901019789B9892F9927809399
S1133890900082E08BB986E0809395001AB8C80145
S11338A0AA27BB273CE0880F991FAA1FBB1F3A9584
S11338B0D1F7BC01CD0120E031EE40E050E00E94A0
S11338C0662BDA01C901019780939900892F992702
S11338D08093980082E080939B0086E080939D0013
S11338E010929A00109200048FEF9FEFAFEFBFEF9A
S11338F08093320790933307A0933407B09335072E
S113390000B602FCFDCF12BE87B7816087BF83B7C4
S1133910887F836000B600FCFDCF83BF0E94621BDA
S113392099278823D9F7CFBF789480937502109292
S11339307402109273021092720210927102569ADB
S1133940539A579A549A539A549A84E00E948D0039
S11339504BE650E060E070E08FE00E94120585E1E4
S11339600E948D008FB7F894482F4AC087B79927D3
S1133970887B892B41F480917D00282F33272B7F6E
S11339802115310519F020E030E02AC06F9928C0D4
S11339908AB1807C29F580919A00807C09F5379B57
S11339A003C021E030E01CC087B799278370907072
S11339B0892BA1F080B7992787709070892BD1F754
S11339C081B792B7891B8C3018F082B7853F18F005
S11339D022E030E005C023E030E002C025E030E022
S11339E0E5E02E1708F4E22F85B7837EFF27E65320
S11339F0FF4F9491892B806285BF78948895F894C1
S1133A008091FC068F3FC9F09091FC068091FC06E2
S1133A10E82FFF27EB5FF84F80818093FC068091AD
S1133A20FC068F3F11F480932707892F9927FC0107
S1133A30EB5FF84F2FEF208302C08FEF90E08F3FB2
S1133A4009F494CF4FBF0E945B118CCF83B783BF1F
S1133A5000B600FCFDCF08951F920F920FB60F928F
S1133A6011242F933F934F935F936F937F938F937F
S1133A709F93AF93BF93CF93EF93FF930E94261D21
S1133A8087B78D7F87BF78948FB7F894C82F8091BC
S1133A907E0490917F04A0918004B09181040097EA
S1133AA0A105B10521F482E00E948D0002C00E94AC
S1133AB05A06CFBFFF91EF91CF91BF91AF919F91E4
S1133AC08F917F916F915F914F913F912F910F90C3
S1133AD00FBE0F901F9018951F920F920FB60F9262
S1133AE011242F933F934F935F936F937F938F93FF
S1133AF09F93AF93BF93EF93FF930E94261D8091F2
S1133B00ED059091EE05A091EF05B091F0050196B9
S1133B10A11DB11D8093ED059093EE05A093EF05D3
S1133B20B093F0058091ED04882339F0815080939F
S1133B30ED04882311F40E945A06FF91EF91BF917E
S1133B40AF919F918F917F916F915F914F913F9131
S1133B502F910F900FBE0F901F9018951F920F92E8
S1133B600FB60F9211240F900FBE0F901F9018954F
S1133B701F920F920FB60F9211242F933F934F93DE
S1133B805F936F937F938F939F93AF93BF93EF93C1
S1133B90FF9389B78D7F89BF8DE00E948D00FF91CF
S1133BA0EF91BF91AF919F918F917F916F915F91B1
S1133BB04F913F912F910F900FBE0F901F9018952A
S1133BC01F920F920FB60F9211240F900FBE0F90F9
S1133BD01F9018951F920F920FB60F9211240F90F9
S1133BE00FBE0F901F9018951F920F920FB60F9251
S1133BF011240F900FBE0F901F9018951F920F92D3
S1133C000FB60F9211240F900FBE0F901F901895AE
S1133C101F920F920FB60F9211242F933F934F933D
S1133C205F936F937F938F939F93AF93BF93EF9320
S1133C30FF938091770490917804019719F40E947E
S1133C40310B05C080912A078F5F80932A07FF916B
S1133C50EF91BF91AF919F918F917F916F915F9100
S1133C604F913F912F910F900FBE0F901F90189579
S1133C701F920F920FB60F9211240F900FBE0F9048
S1133C801F9018951F920F920FB60F9211242F9325
S1133C903F934F935F936F937F938F939F93AF93D0
S1133CA0BF93EF93FF9364B175B178948FB7F89491
S1133CB0282F332780912407482F469541702FBF22
S1133CC0282F217080FD1CC03398809160069927AD
S1133CD08130910519F0029759F028C0442351F01E
S1133CE07093E5036093E40384E10E948D001EC099
S1133CF0442319F40E94C70219C02093600616C019
S1133D008FB7F89499278FBF8FB7F894482F55270A
S1133D1086B180618777282F332726B98F7B282F98
S1133D20332726B98068992786B94FBFFF91EF9151
S1133D30BF91AF919F918F917F916F915F914F91BF
S1133D403F912F910F900FBE0F901F9018951F92C7
S1133D500F920FB60F9211248F935F998CB18F91AC
S1133D600F900FBE0F901F90189578941F920F928A
S1133D700FB60F9211242F933F934F935F936F933A
S1133D807F938F939F93AF93BF93EF93FF93809110
S1133D90730290917402019690937402809373025B
S1133DA08F37910520F01092740210927302809163
S1133DB07102909172028F37910520F01092720275
S1133DC010927102E0917302F09174028091710279
S1133DD090917202E817F90731F0E350FB4F8081AC
S1133DE00E943C0502C010927502FF91EF91BF91B1
S1133DF0AF919F918F917F916F915F914F913F917F
S1133E002F910F900FBE0F901F9018951F920F9235
S1133E100FB60F9211242F933F934F935F936F9399
S1133E207F938F939F93AF93BF93EF93FF9380916F
S1133E309B0087FFD1C140919C008091760288232A
S1133E4021F44E3709F0C8C106C02091770223300F
S1133E5050F44E3741F481E0809376024093FF059D
S1133E6080937702B9C1E22FFF27E150FA4F4083D4
S1133E702F5F2093770290910006933049F580914B
S1133E80DF06281709F098C1109276024E3709F020
S1133E909BC1809102068093FE05863021F0893013
S1133EA011F08D3081F48AE08093D9038091FE056E
S1133EB08D3061F48FEF8093DD031092D70688E094
S1133EC00E948D0003C082E08093D90386E071C113
S1133ED0923009F04CC08091DF06281709F06CC1BC
S1133EE0109276024E3709F06FC19093E103E0918E
S1133EF00104F09102048091D9038083E0910104CC
S1133F00F09102048091FE058183E0910104F09117
S1133F100204809187049091880482839383809122
S1133F2006069091070684839583809108069091F4
S1133F3009068683978380910A0690910B068087F1
S1133F40918780910C0690910D06828793878091CA
S1133F500E0690910F0684879587809110069091A4
S1133F601106868797878091E103825F1FC199308C
S1133F7009F09DC08091DF06281709F01DC1109239
S1133F8076024E3709F020C182E08093E1038091EC
S1133F90FE058D30F1F480910406833109F016C1D9
S1133FA080911701909118019F938F938EE192E075
S1133FB09F938F938CEC95E09F938F930E94382668
S1133FC08DB79EB706960FB6F8949EBF0FBE8DBFF1
S1133FD0FDC0893059F488E1AFEFB5E0E9E8F4E0D9
S1133FE00D9001928A95E1F7892FE3C08E3029F074
S1133FF0843019F0853009F0E9C0E0910104F091B2
S113400002048091D9038083E0910104F0910204B9
S11340108091FE058183E0910104F0910204809176
S113402087049091880482839383809106069091FB
S113403007068483958380910806909109068683F8
S1134040978380910A0690910B06808791878091CF
S11340500C0690910D068287938780910E069091AD
S11340600F068487958780911006909111068687A4
S113407097878091E103825F8093E1038091170128
S1134080909118019F938F9385E392E09F938F9370
S11340908CEC95E09F938F930E9438268DB79EB742
S11340A006960FB6F8949EBF0FBE8DBF81C09130A7
S11340B019F09A3009F08AC080917904281709F020
S11340C07BC0109276024E3709F07EC082E0809366
S11340D0E103E0910104F09102048091D90380830B
S11340E0E0910104F09102048091FE0581838091A6
S11340F0FE058D3009F03FC0109285028FEF80934A
S1134100DD038091040699279F938F938091170173
S1134110909118019F938F938FE492E09F938F93D4
S11341208CEC95E09F938F930E9438268DB79EB7B1
S113413008960FB6F8949EBF0FBE8DBF90910406EB
S1134140903F19F410928A0216C0809106068A30B4
S113415029F4809107068A3A39F00AC08A3A41F470
S1134160809107068A3021F484E00E94320503C05E
S11341709F5F90938A02E0910104F0910204809180
S11341800506828320910104309102048091050682
S11341909927AC0166E076E0C90103960E942826BF
S11341A08091E10390910506890F8F5F8093E1036D
S11341B087E00E948D000AC099270297332782174F
S11341C0930724F44E3711F410927602809177020B
S11341D0813610F010927602FF91EF91BF91AF916A
S11341E09F918F917F916F915F914F913F912F910B
S11341F00F900FBE0F901F90189578941F920F92F6
S11342000FB60F9211242F933F934F935F936F93A5
S11342107F938F939F93AF93BF93EF93FF9380917B
S11342207A0290917B02019690937B0280937A02AA
S11342308036910520F010927B0210927A028091D0
S11342407802909179028036910520F010927902DB
S113425010927802E0917A02F0917B0280917802C8
S113426090917902E817F90731F0EF5EFB4F8081F6
S11342700E94410702C010927C02FF91EF91BF910E
S1134280AF919F918F917F916F915F914F913F91EA
S11342902F910F900FBE0F901F90189578941F9236
S11342A00F920FB60F9211242F933F934F935F9366
S11342B06F937F938F939F93AF93BF93CF93EF931A
S11342C0FF9387B78F7E87BF78948FB7F894C82FF2
S11342D08091F7069091F806A091F906B091FA063C
S11342E00097A105B10509F053C080916702909130
S11342F068028430910541F18530910518F40397E3
S113430021F034C0079739F131C080B3992776E0A2
S1134310969587957A95E1F780FF13C084E090E045
S113432090936802809367020E94DE01DC01CB0156
S113433027E030E040E050E0BC01CD010E94790864
S113434015C00E94970812C00E94CE09882371F4F8
S11343500E94630A0BC081E090E09093680280930E
S1134360670210926F0289E10E948D0080916D02B4
S113437090916E02019771F482E090E090936E0246
S113438080936D02DE98DE9A80E00E94AB0902C041
S11343900E94CB07CFBFFF91EF91CF91BF91AF9117
S11343A09F918F917F916F915F914F913F912F9149
S11343B00F900FBE0F901F90189578941F920F9234
S11343C00FB60F9211240F900FBE0F901F901895E7
S11343D078941F920F920FB60F9211240F900FBE74
S11343E00F901F90189578941F920F920FB60F920A
S11343F011241F932F933F934F935F936F937F9356
S11344008F939F93AF93BF93CF93DF93EF93FF93D8
S1134410CCB5DDB580E286BF8FB7F894182F8091B4
S11344206702909168028530910519F0069739F179
S113443057C080E00E94CE0882E00E94DD0987B761
S11344408F7E87BF86E090E0909368028093670236
S1134450E091A304F091A40481819927877090705E
S1134460019721F4C5A78D2F992784A780B3992795
S1134470A4E096958795AA95E1F780FD77C081E041
S11344800E94CE08E091A304F091A404818185FFE9
S113449013C087E090E090936802809367020E94C3
S11344A0DE01DC01CB0120E830E040E050E0BC015B
S11344B0CD010E9479080BC081E090E090936802DE
S11344C08093670210926F0289E10E948D0080B38D
S11344D09927F4E096958795FA95E1F780FF46C011
S11344E080916602882351F50E94CE0840915F06B0
S11344F04830A0F48091EC05840F912D911D9C010E
S1134500887F9370281BE22FFF27EE0FFF1FEC59C3
S1134510F84FC083D1834F5F40935F0681E080935F
S11345206602D093D906C093D80680B39927E4E0F5
S113453096958795EA95E1F780FD18C0809166020B
S11345408823A1F081E00E94CE0810926602809137
S1134550D8069091D906C81BD90B2A9738F48091B4
S11345605F06882319F0815080935F061FBFFF9177
S1134570EF91DF91CF91BF91AF919F918F917F91F7
S11345806F915F914F913F912F911F910F900FBEAB
S11345900F901F90189578941F920F920FB60F9258
S11345A011242F933F938F939F938FB7F894282FC1
S11345B033278091FE039091FF0301969093FF03AC
S11345C08093FE032FBF9F918F913F912F910F9066
S11345D00FBE0F901F9018951F920F920FB60F9257
S11345E01124EF92FF920F931F932F933F934F93B6
S11345F05F936F937F938F939F93AF93BF93CF9367
S1134600DF93EF93FF938FB1282F3327E091DB03E0
S1134610F091DC03309739F0809103049091040405
S1134620E80FF91F208380910304909104040196FC
S1134630909304048093030480E00E942009209155
S11346400304309104048091640690916506281750
S1134650390718F40E948E0A35C1E090DB03F0900C
S1134660DC031092DC031092DB031092EF0410922F
S1134670EE041092650610926406109204041092DF
S113468003048FB18091950690919606209195062A
S113469086FFD3C02F7B822F99278E33910509F48F
S11346A011C1CF9709F00EC1C091B402D091B502E7
S11346B0188180917704909178048230910521F0DB
S11346C0039709F444C0B4C083E090E09093780465
S11346D080937704412F55279A012F5F3F4F6091B4
S11346E0DE03862F9927821793077CF40E94A40582
S11346F0C09AC09888E00E94E10888E00E94E1081E
S1134700C09A83E00E94DD0990C080E090E0B79BEE
S113471002C081E090E0892B69F481B1992726E0F9
S1134720969587952A95E1F780FD04C0611B615039
S11347306093DE03193220F4BE016F5F7F4F02C025
S113474060E070E080E090E00E94FC0ABBC0C09A88
S113475083E00E94DD0980915F06882309F11B3004
S113476028F18091EC05E82FFF27EE0FFF1FEC598D
S1134770F84F808191818DA7892F99278CA78091EB
S1134780EC05992701969C01287F3170821B930BBD
S11347908093EC0580915F06815080935F0606C08C
S11347A08FEF9FEF8DA78FEF90E08CA7FE01E10FB5
S11347B0F11D808187FF39C0EF28B9F169816770E5
S11347C0E091B402F091B502623049F5A091A304DE
S11347D0B091A404208180916702909168020797A8
S11347E021F5ED019B8183818917F9F487B78F7EC9
S11347F087BF81E08BA7E20FF11D8291319688A7D4
S113480080818F7789A781E090E0909368028093FC
S1134810670210926F0289E10E948D0006C0613028
S113482021F48EE10E948D004DC00E94430B4AC0CA
S1134830C09A83E00E94DD0945C02E3309F042C0CE
S1134840C09A8091670290916802089739F481E0D8
S113485090E0909368028093670234C08091EC04E6
S1134860882349F484E090E090936802809367027F
S11348700E94630A27C082E00E94DD0983E090E081
S113488090936802809367020E94C200DC01CB010E
S11348908F71907001969C01C3E0220F331FCA955B
S11348A0E1F7280F391F280F391F79010027112735
S11348B00E94DE01DC01CB01A8019701BC01CD01FE
S11348C00E947908FF91EF91DF91CF91BF91AF9151
S11348D09F918F917F916F915F914F913F912F9114
S11348E01F910F91FF90EF900F900FBE0F901F90AC
S11348F01895A0E3B0E0EFE7F4E20C94A72B222E86
S1134900332E442E552E662E772E882E992E2A2D40
S11349103B2DA8E0FE013196AA2E1192AA94E9F744
S113492029823A824B825C826D827E828F82988653
S1134930FE013996BA2E1192BA94E9F729873A877B
S1134940CB86DC86ED86FE860F87188BFE0171967A
S11349501192AA95E9F7C980DA80EB80FC80C9A698
S1134960DAA6EBA6FCA6870176018FEF9FEFA0E005
S1134970B0E0E822F9220A231B23A9A4BAA4CBA4F9
S1134980DCA416014424552489859A85AB85BC850D
S11349908DA79EA7AFA7B8AB5C016D018FEF9FEF0A
S11349A0A0E0B0E0A822B922CA22DB228DA59EA5F0
S11349B0AFA5B8A93D0188249924C801B701A6016F
S11349C095010E94882B69A37AA38BA39CA3C80199
S11349D0B701A40193010E94882B6DA37EA38FA32A
S11349E098A7C201B101A60195010E94882B7B0101
S11349F08C01C201B101A40193010E94882B9B0187
S1134A00AC01A9A0BAA0CBA0DCA0C601AA27BB27F1
S1134A10ADA0BEA0CFA0D8A4A80EB91ECA1EDB1E8E
S1134A20AE0CBF1CC01ED11EADA2BEA2CFA2D8A682
S1134A30AE14BF04C006D10620F4205030404F4FBE
S1134A405F4FCDA0DEA0EFA0F8A4C701AA27BB2723
S1134A50820F931FA41FB51F8D8F9E8FAF8FB8A396
S1134A60A6013327222789A19AA1ABA1BCA1A070DA
S1134A70B070280F391F4A1F5B1F298F3A8F4B8F45
S1134A805C8FA98CBA8CCB8CDC8CED8CFE8C0F8D5E
S1134A9018A1ED8AFE8A0F8B188F2D853E854F85D0
S1134AA0588969A57AA58BA59CA50E94882B3B01F2
S1134AB04C018D819E81AF81B885BC01CD012DA5AE
S1134AC03EA54FA558A90E94882BDC01CB01680E96
S1134AD0791E8A1E9B1E8D899E89AF89B88D860D8D
S1134AE0971DA81DB91D8D8B9E8BAF8BB88F6D89BB
S1134AF07E898F89988D2A2D3B2D4C2D5D2DE2E1E9
S1134B00E0960C94C32B8F929F92AF92BF92CF9258
S1134B10DF92EF92FF920F93CF93DF93CDB7DEB77F
S1134B2068970FB6F894DEBF0FBECDBFE82E002302
S1134B3049F4298B3A8B4B8B5C8B6D8B7E8B8F8BE3
S1134B40988F6CC088E0FE01319611928A95E9F73E
S1134B5029833A834B835C836D837E83EF829887BA
S1134B6040E2401B14160CF041C08D819E81AF8140
S1134B70B8856C017D0104C0CC0CDD1CEE1CFF1C4F
S1134B804A95D2F7202F332727FD3095022E04C0F3
S1134B90B695A795979587950A94D2F78D879E87A2
S1134BA0AF87B88B89819A81AB81BC8104C0B695EB
S1134BB0A795979587952A95D2F78C299D29AE2993
S1134BC0BF2989879A87AB87BC8729853A854B8516
S1134BD05C856D857E858F859889298B3A8B4B8B77
S1134BE05C8B6D8B7E8B8F8B988F18C01D861E8679
S1134BF01F86188A842F992787FD909522273327AB
S1134C00281B390B8D819E81AF81B88504C0B69570
S1134C10A795979587952A95D2F7D3CF29893A896D
S1134C204B895C896D897E898F89988D68960FB6CA
S1134C30F894DEBF0FBECDBFDF91CF910F91FF90EF
S1134C40EF90DF90CF90BF90AF909F908F9008959A
S1134C50FB01DC0102C001900D9241505040D8F795
S1134C600895DC0101C06D9341505040E0F7089570
S1134C700F931F93CF93DF93CDB7DEB72C970FB667
S1134C80F894DEBF0FBECDBF0B891C892D893E89E8
S1134C9046E04C8309831A838FEF9FE78D839E83BD
S1134CA0AE01495E5F4FB901CE0101960E946826AC
S1134CB0EF81F885E00FF11F10822C960FB6F8945F
S1134CC0DEBF0FBECDBFDF91CF911F910F9108952D
S1134CD02F923F924F925F926F927F928F929F9208
S1134CE0AF92BF92CF92DF92EF92FF920F931F93F6
S1134CF0CF93DF93CDB7DEB762970FB6F894DEBFDC
S1134D000FBECDBFEE24FF2487011C016D877E8773
S1134D102A01CC24DD24FC01C682D782838181FD53
S1134D2080C28FEF9FEF90C28D859E8501968D87FF
S1134D309E87C0FE63C28F8580538A30D0F49F85DE
S1134D40903339F4662029F4C3FC03C0E0E0F1E0B9
S1134D5093C08AE0689E602C1124FF856F0E20EDBD
S1134D60620E67FE02C0EFE76E2EC3FC5AC2762CB9
S1134D7058C2960173E0369527957A95E1F720FF9E
S1134D8004C0662011F461E0662E4F85842F9927B4
S1134D9087FD9095883691058CF5853691050CF044
S1134DA06EC08335910509F493C084359105CCF424
S1134DB08B32910509F449C08C3291054CF4803250
S1134DC0910509F446C08332910509F44AC010C222
S1134DD08D32910509F440C08E32910509F444C026
S1134DE007C28336910509F450C0843691050CF04E
S1134DF08AC08835910509F4BCC0FAC18037910591
S1134E0009F4B1C08137910584F48C36910591F190
S1134E108D3691052CF48936910509F474C0E8C1E6
S1134E208F36910509F49CC0E3C18537910509F4D7
S1134E30A2C08637910524F48337910571F1D8C156
S1134E408837910509F495C0D3C180E190E0C82A60
S1134E50D92AE0E2F0E010C080E890E0C82AD92A1C
S1134E60E0C1E0E4F0E008C088E090E0C82AD92A74
S1134E706624D7C1E4E0F0E0CE2ADF2AD2C15FE3A2
S1134E80E52E7A94F3E6FF8744C1F20182E090E0D4
S1134E90480E591EE0807A943CC1F20182E090E011
S1134EA0480E591EA081B1817D0120FF09C0862DC5
S1134EB0992787FD9095BC01CD010E9479291FC0D7
S1134EC0FD0101900020E9F73197EA1BE88B18C037
S1134ED0F20182E090E0480E591E0190F081E02D2D
S1134EE07F0120FF09C0862D992787FD9095BC017D
S1134EF0CF010E94842903C0CF010E947029888BAE
S1134F009889791A06C1C2FE0AC0F20184E090E0D1
S1134F10480E591E20813181428153810CC0F20117
S1134F2082E090E0480E591E808191819C014427C3
S1134F3037FD4095542F79018A0157FF0CC0E2E0F8
S1134F40F0E0CE2ADF2A10950095F094E094E11C5D
S1134F50F11C011D111D8FEB9FEFC822D92227C020
S1134F6098E0988B08C0E0E4F0E0CE2ADF2AF8E766
S1134F70FF8720E1288BC2FE0AC0F20184E090E0A2
S1134F80480E591E20813181428153810AC0F201A9
S1134F9082E090E0480E591E808191819C01442753
S1134FA0552779018A01EFECFFEFCE22DF22CE01F3
S1134FB00196898B9A8B9889892E9924AA24BB24DB
S1134FC0C801B701A50194010E94662BDC01CB0145
S1134FD0E989FA8980838A3024F0FF858F0F815212
S1134FE001C0805DE989FA898193E98BFA8BC80154
S1134FF0B701A50194010E94662B79018A0121154C
S1135000310541055105E1F6E98881E090E08C0F16
S11350109D1FE81AC60182739070892B09F07A9457
S1135020C6FE0DC0872D992787FD9095E889E0314C
S113503021F44EEF742E780E02C0782E7A94C3FEBB
S11350400FC0262D332727FD30958E2D99278217E3
S113505093072CF087EF9FEFC822D92201C06E1866
S1135060560133E0B694A7943A95E1F7A0FE02C046
S1135070761801C07E18C60180789170892B51F48E
S1135080872D7A94181634F4B10180E290E00E94DE
S11350903D29F6CFC1FE04C0B1018DE290E00BC002
S11350A0C4FE04C0B1018BE290E005C0C5FE05C09A
S11350B0B10180E290E00E943D29C6FE10C0B1011A
S11350C080E390E00E943D299889903141F4B10138
S11350D0EF858E2F992787FD90950E943D298D2D70
S11350E0992780FF0AC0872D7A94181634F4B101E9
S11350F080E390E00E943D29F6CFA0FE0AC0862DF1
S11351006A94181634F4B10180E390E00E943D29BA
S1135110F6CF5601AA0CAB2CAA1CBB08B194A0FC78
S11351200AC0872D7A94181634F4B10180E290E015
S11351300E943D29F6CFFF85F33641F48E2DB1014F
S1135140992787FD90950E943D2946C02F852337D6
S1135150B9F448894150488B4F3F09F43DC0F701E9
S113516080810894E11CF11CB101992787FD909579
S11351700E943D2988898150888B8F3F81F72CC0FC
S11351809F859335A1F4E889E150E88BEF3F21F145
S1135190F7018491B10199270E943D290894E11CEB
S11351A0F11CF889F150F88BFF3F91F715C06E019F
S11351B00894C11CD11C89899A898C159D0561F0BC
S11351C0E989FA898291E98BFA8BB101992787FDE4
S11351D090950E943D29EFCFA0FE0DC0872D7A94B3
S11351E018164CF4B10180E290E00E943D29F6CFFC
S11351F0B1010E943D29CC24DD2413C09F85953242
S113520041F481E0C82ED12C6624762CEAE0E88BA8
S113521008C0B101FF858F2F992787FD90950E94C3
S11352203D29F101838183FF04C0ED85FE85F4915E
S113523003C0ED85FE85F081FF872F85222309F0C9
S113524073CDF1018681978162960FB6F894DEBF23
S11352500FBECDBFDF91CF911F910F91FF90EF90C3
S1135260DF90CF90BF90AF909F908F907F906F9082
S11352705F904F903F902F9008950F931F93CF937B
S1135280DF938C01EB018B81992781FF22C082FF80
S113529014C02E813F818C819D81281739073CF4ED
S11352A0E881F9810193E883F9832E813F812F5F9F
S11352B03F4F2E833F83C8010EC0E885F985802FB8
S11352C00995892B31F4AE81BF811196AE83BF83DA
S11352D0F2CF8FEF9FEFDF91CF911F910F91089540
S11352E0FC0105900020E9F7809590958E0F9F1F93
S11352F00895FC016150704001900110D8F7809529
S113530090958E0F9F1F0895FC0161507040059089
S11353100110D8F7809590958E0F9F1F08955058CF
S1135320192EF7D001D0DAC0BA17620773078407C1
S11353309507B1F188F40EF410940B2EBA2FA02D1A
S1135340062E622F202D072E732F302D082E842F2A
S1135350402D092E952F502DFF275523B9F0591BA9
S113536049F0573E98F0469537952795A795F04014
S11353705395C9F776F0BA0F621F731F841F30F478
S1135380879577956795B795F040939517FA0F2E03
S11353900895BF1BBB27BA0B620B730B840BF6CFAC
S11353A0DEF6D4C0592F482F372F262F9FE380E8ED
S11353B077276627AED001D091C0552359F09923A1
S11353C069F09F575F57951B33F442F4903811F4FA
S11353D0915805C09BC091589F3F09F4B7C0BB27A3
S11353E0112462177307840730F4660F771F881F30
S11353F0BB1F915098F311D00F920FD00F920DD084
S1135400A0E82617370748071B0609F0A048BA2F5B
S1135410602D7F918F9100240895A0E800246217E5
S113542073078407B10528F0621B730B840BB10961
S11354300A2A660F771F881FBB1FA69581F7089558
S113544097FB73D09F3738F0FEE9F91B982F872F0D
S1135450762F6B2F05C077C09695879577956795BE
S1135460F150D0F73EF490958095709561957F4FFB
S11354708F4F9F4F0895E89403C097FB0EF4F3DF1A
S1135480B62F672F782F892F9EE9002427C00ED0CE
S11354905EF004C00BD026F001C008D019F020F44F
S11354A08FEF089580E0089581E0089597FB092E19
S11354B0052600F8689430D0E89407FC07C062170A
S11354C073078407950721F008F4009407949894CF
S11354D008959A95BB0F661F771F881F112499237F
S11354E0A1F08823B2F79F3F59F0BB0F48F421F491
S11354F0002011F460FF04C06F5F7F4F8F4F9F4FF8
S1135500881F9795879597F908951DC09FEF80ECA4
S11355100895052E092607FA440F551F5F3F79F0B9
S1135520AA27A51708F051E04795880F991F9F3FB8
S113553031F0BB27B91708F091E0879508959F9142
S11355409F911124E3CF6627772788279927089509
S1135550592F482F372F262FDCDF01D0BFCF9923B7
S113556039F0552329F09F575F57950F13F4CAF16B
S1135570EDCF91589F3FE1F3A62F00241124BB27C0
S113558066275527F8E0A69520F4020E131EB41FD3
S1135590651F220F331F441F551FFA95A1F7F8E02A
S11355A0E72F7727F8E0E69520F4130EB41F651F64
S11355B07A1F330F441F551FAA1FFA95A1F7F82F1E
S11355C08827F69520F4B40F651F7A1F8E1F440FA9
S11355D0551FAA1FEE1FFF23A1F788231AF49395E2
S11355E039F494CF000C111CBB1F661F771F881F52
S11355F00128089597FD8ACF482F9923F9F195DF63
S1135600F92FFF57F5959F1B9F1BFF934058479514
S11356103327222740685FE7E894FF92EF92DF92F6
S1135620CF92BF92AF929F928F92C92ED82EE72E1F
S1135630F62E6F2D7E2D8D2D9C2D852E942EA32E32
S1135640B22EBBDE582D492D3A2D2B2D11246CDEA4
S11356509A95592F482F372F262FB216A306940652
S1135660850639F78F909F90AF90BF90CF90DF90D1
S1135670EF90FF900F90900D002430CF0895AA1B57
S1135680BB1B51E107C0AA1FBB1FA617B70710F029
S1135690A61BB70B881F991F5A95A9F7809590955B
S11356A0BC01CD01089597FB092E07260AD077FD8A
S11356B004D0E5DF06D000201AF4709561957F4F81
S11356C00895F6F7909581959F4F0895A1E21A2EBB
S11356D0AA1BBB1BFD010DC0AA1FBB1FEE1FFF1F92
S11356E0A217B307E407F50720F0A21BB30BE40BE2
S11356F0F50B661F771F881F991F1A9469F7609529
S11357007095809590959B01AC01BD01CF010895E2
S1135710629FD001739FF001829FE00DF11D649F91
S1135720E00DF11D929FF00D839FF00D749FF00D1D
S1135730659FF00D9927729FB00DE11DF91F639FBE
S1135740B00DE11DF91FBD01CF01112408952F9261
S11357503F924F925F926F927F928F929F92AF92FD
S1135760BF92CF92DF92EF92FF920F931F93CF934A
S1135770DF93CDB7DEB7CA1BDB0B0FB6F894DEBFE1
S11357800FBECDBF09942A88398848885F846E8407
S11357907D848C849B84AA84B984C884DF80EE8051
S11357A0FD800C811B81AA81B981CE0FD11D0FB65A
S10F57B0F894DEBF0FBECDBFED010895DC
S11357BC0100FFFFFFFF22001A0304FFFF01FFFF9C
S11357CCFFFFFFFFFFFF01010054454D50004855FA
S11357DC4D494400555265640025357320415647A4
S11357EC20537444657620002534642025346420C9
S11357FC253664005052494F524954593A002539C0
S113580C732025366400256420433332385F526597
S113581C7365745F54696D65723A25640D0A0025CD
S113582C64206D79417070547970653A25582C2038
S113583C6D794F7074547970653A25580D0A0025AA
S113584C642067657453466972655F423A25640D3A
S113585C0A0025642067657453466972655F4C3A87
S113586C25582C205365713A25640D0A00256420B3
S113587C67657453466972655F533A25640D0A0073
S113588C256420522D476574532D434D445B256488
S113589C5D0D0A00256420522D53432D434D4421A4
S11358AC21205B25642C2025642C2025645D0D0AA5
S11358BC00256420522D4F432D434D442121205B60
S11358CC25642C2025642C2025645D0D0A00256498
S11358DC207265637620535542434D44315F4641F3
S11358EC494C0D0A00256420726563762070617240
S11358FC73696E675F636F6E74726F6C0D0A00254B
S113590C642070617273696E675F6C6F6E67445468
S109591C3A25640D0A00A7
S9030000FC
