S01900006275696C642F7A69676265782F6D61696E2E737265636F
S11300000C946A000C94621B0C946C1B0C94941B4F
S11300100C949E1B0C94A81B0C94B21B0C94BC1B3C
S11300200C94EC1B0C9487000C9487000C94A71F71
S11300300C94021F0C94911F0C947F200C94E01AD2
S11300400C94201B0C94A0200C945B1C0C94870033
S11300500C94691C0C94F61B0C9487000C94870078
S11300600C949C1F0C9487000C9487000C948700BC
S11300700C9487000C9487000C94BA1C0C94870091
S11300800C94B11E0C9487000C9487002411561113
S1130090AB11C711DE1100127B128C12D012F312B5
S11300A0031900138D1361149F14D314E514F7146A
S11300B0611568156E159F153117601783179E1704
S11300C0A317A517AD17B417CD17DC179A18000896
S11300D01C18141011241FBECFEFD0E1DEBFCDBF1A
S11300E012E0A0E0B1E0E4E2F3E500E00BBF02C0FF
S11300F007900D92A236B107D9F716E0A2E6B2E056
S113010001C01D92AA3BB107E1F70C9445190C9468
S113011000008FB7F894992708958FBF0895982FFA
S11301208FB7F894282FE92FFF27E25BF94F8081DE
S11301308F3FB1F480917206891791F08091470640
S11301408F3F19F49093470607C080917206E82FF9
S1130150FF27E25BF94F90839093720680E001C021
S113016085E02FBF99270895882311F06E9A08958A
S11301706E98089580916502882319F480E090E0D8
S1130180089581E090E008952F923F924F925F92FC
S11301906F927F928F929F92AF92BF92CF92DF9293
S11301A0EF92FF920F931F93CF93DF93CDB7DEB7F8
S11301B02A970FB6F894DEBF0FBECDBF8FB7F89461
S11301C0282F332729873A872090D1033090D203F0
S11301D04090D3035090D40366242EE4A22E93E8D7
S11301E0B92EC62CD62CE62CF62C062D162D222D37
S11301F0332D442D552D662D762D862D962D0E945A
S11302002D2229833A834B835C836D837E838F8382
S11302109887822E932EA42EB52EC62ED72EE82E86
S1130220F92E24013501769467945794479400E29B
S1130230282D392D4A2D5B2D6C2D7D2D8E2D9F2D36
S11302400E943723A22EB32EC42ED52EC601B5018B
S1130250640D751D861D971D97FF05C09F776F5F01
S11302607F4F8F4F9F4F6093D1037093D20380933E
S1130270D3039093D40339853FBF2A960FB6F894DD
S1130280DEBF0FBECDBFDF91CF911F910F91FF90C5
S1130290EF90DF90CF90BF90AF909F908F907F9022
S11302A06F905F904F903F902F900895EF920F932F
S11302B01F93AE2D99E0899FF0011124EF54FD4F57
S11302C04083518362837383048315832683378336
S11302D0A17080858E7F8A2B8260808781E00E9456
S11302E08F001F910F91EF900895CF93DF938FB7F5
S11302F0F894682F7727A0914105B0914205C091E9
S11303004305D091440582B706B600FE04C0119699
S1130310C11DD11D82B7282F33274427552788278D
S11303209A2FAB2FBC2F822B932BA42BB52B6FBFF3
S1130330BC01CD01DF91CF910895FC0182859927FD
S11303400895DC01FB01672B19F08C918C5080839C
S1130350CD010B9608958FB7F894682F7727809175
S11303606003909161032CB53DB506B602FE03C04F
S113037001962CB53DB5AA27BB2744275527DC0198
S113038099278827822B932BA42BB52B6FBFBC01F5
S1130390CD010895282F869586958695E82FFF2709
S11303A0EA59FC4F277081E090E002C0880F991F42
S11303B02A95E2F720812823822F99270895AF9266
S11303C0BF92CF92DF92EF920F931F935B016C0168
S11303D00E947501DC01CB01F1E0EF2E960185014D
S11303E0AC01BD0186E00E9456011F910F91EF9070
S11303F0DF90CF90BF90AF900895AF92BF92CF920D
S1130400DF92EF920F931F935B016C010E947501C1
S1130410DC01CB0111E0E12E96018501AC01BD01A7
S113042084E00E9456011F910F91EF90DF90CF90CE
S1130430BF90AF900895AF92BF92CF92DF92EF92A8
S11304400F931F935B016C010E947501DC01CB01CA
S113045001E0E02E96018501AC01BD0185E00E941A
S113046056011F910F91EF90DF90CF90BF90AF9006
S1130470089590913A039923C1F4282F882309F40D
S113048021E084E080934204332788EE93E0B901AD
S11304900E94F328CB01609362039927AA27BB2704
S11304A0BC01CD010E94DF0108959130C1F4282FD1
S11304B0882309F4292F84E080934304332788EEAA
S11304C093E0B9010E94F328CB0160936303992759
S11304D0AA27BB27BC01CD010E94FD0108959230DB
S11304E0B9F4282F882309F421E084E0809344049C
S11304F0332788EE93E0B9010E94F328CB0160937F
S113050064039927AA27BB27BC01CD010E941B02C3
S11305100895FF920F931F93CF93DF93082F8FB704
S1130520F894F82E80917902833009F054C08091B8
S11305300A01801709F04FC080916603882309F0EF
S11305403EC081E090E0892BE9F510917A02C12F39
S1130550DD272196C330D10511F4C0E0D0E08C2F03
S11305600E94CA01882381F4812F9927C817D907CB
S113057081F78FEF90E08093D10481E0809379023A
S113058084E10E948F0024C08C2F869586958695E1
S1130590E82FFF27EA59FC4F2C2F277081E090E0C9
S11305A002C0880F991F2A95E2F7982F90958081B1
S11305B089238083C0937A028C2F9927DCCF80E033
S11305C090E0C1CF83E080930A01109279023798BA
S11305D0002309F4C698FFBE81E090E0DF91CF913B
S11305E01F910F91FF9008951F93CF93DF93C82F0E
S11305F08FB7F894282F3327122F809179028823FC
S113060001F18C2F0E94CA018823B1F48C2F8695A6
S113061086958695E82FFF27EA59FC4FC77081E03D
S113062090E002C0880F991FCA95E2F72081282B19
S1130630208380E090E002C085E090E01FBF99270E
S113064019C081E080937902C093D1042FBF8FB782
S1130650F8949927379A8FBF8FB7F894C82FDD275E
S113066080910A01833019F484E10E948F00CFBF86
S113067080E090E0DF91CF911F9108952091B10522
S1130680822F99278130910559F0823091051CF40D
S1130690009731F004C0029711F481E001C08FE1AA
S11306A0582F822F99278130910541F0823091058E
S11306B01CF4892B19F004C0029711F428E001C03E
S11306C020E033278FB7F894E82F80916F068E7F50
S11306D080936F06322F27B160E070E0922F9295DD
S11306E096959695937080E0891749F4852F8850E4
S11306F0863118F42F71521711F461E070E0862FDF
S1130700880F20916F062D7F282B852F8F71982FAE
S1130710990F990F2378292B20936F0680629927CC
S113072087B9406C21702295220F207E4F7D422B89
S11307304861383059F5809145059091460521E08E
S11307408638920718F087E090E01FC0833C91053B
S113075018F086E090E019C08136910518F085E024
S113076090E013C08033910518F084E090E00DC050
S11307708831910518F083E090E007C00C9718F0D9
S113078082E090E002C080E090E0382F3770487F2C
S1130790432B842F992786B9EFBF0895AF92BF9258
S11307A0CF92DF92EF920F931F935B016C010E9433
S11307B07501DC01CB0121E0E22E96018501AC013B
S11307C0BD018BE00E9456011F910F91EF90DF90C5
S11307D0CF90BF90AF90089580E00E94F4029927D3
S11307E0089597E087FF02C0919A01C09198880FFD
S11307F0909A9098915097FFF5CF0895982F8FB7BE
S1130800F894282F89B78D7F89BF82E088BF8091B3
S11308106A00886080936A00992321F080916A00BD
S1130820846003C080916A008B7F80936A0089B7DB
S1130830826089BF2FBF80E090E008952F923F929D
S11308404F925F926F927F928F929F92AF92BF92DC
S1130850CF92DF92EF92FF920F931F938B01882325
S113086009F0DDC08FB7F89499277093AE056093B3
S1130870AD058FBFE0904103F0904203CB01AA275E
S113088097FDA095BA2FBC01CD010E94F1273B0131
S11308904C0117FF08C020E030E040E857E40E9414
S11308A044273B014C01C701AA2797FDA095BA2F05
S11308B0BC01CD010E94F127F7FE06C020E030E024
S11308C040E857E40E9444272AE037ED43E25CE322
S11308D00E946028DC01CB0120E030E040E252E4D9
S11308E0BC01CD010E9443271B012C0122EA37EEF3
S11308F04BE356EBC401B3010E946028DC01CB0139
S1130900A4019301BC01CD010E9460287B018C01EC
S113091024E533EE45E25DE3C401B3010E9460289F
S1130920DC01CB019C01AD01C801B7010E94442741
S1130930DC01CB0120E030E040E850ECBC01CD010B
S11309400E9444275B016C0120E030E048EC51E454
S1130950C201B1010E9443277B018C012CEA35ECD2
S113096047EA58E3C401B3010E946028DC01CB01CB
S11309702AE037ED43E25CE3BC01CD010E94442749
S1130980DC01CB019C01AD01C801B7010E946028C4
S1130990DC01CB01A6019501BC01CD010E944427D5
S11309A07B018C0120E030E048EC52E40E94FE27F9
S11309B0181654F40F2EF0E0EF2EF0E0FF2EF8ECB2
S11309C00F2FF2E41F2FF02D2DEC3CEC4CEC5DE3EB
S11309D0C801B7010E94FB27882354F40F2EFDECB5
S11309E0EF2EFCECFF2EFCEC0F2FFDE31F2FF02D60
S11309F0C201B1010E94D427DC01CB0190934805C8
S1130A0080934705C801B7010E94D427DC01CB01BC
S1130A10909345038093440382E00E94F4021F9163
S1130A200F91FF90EF90DF90CF90BF90AF909F9089
S1130A308F907F906F905F904F903F902F9008958C
S1130A40982F8FB7F894282F3327422F80917D0257
S1130A50882301F1E92FFF27E858F94F80818F3F60
S1130A60A1F4E0910C01E91781F080910D018F3F11
S1130A7019F490930D0104C0FF27E858F94F9083AF
S1130A8090930C0180E090E002C085E090E04FBFBD
S1130A909927089541E040937D02909351042FBF1C
S1130AA080917C02882321F482E10E948F0002C09D
S1130AB040937B0280E090E00895882359F48FB737
S1130AC0F894992770934203609341038FBF83E0A6
S1130AD00E942005089530E0232F909A80B399272F
S1130AE09695879580FD3160273009F0330F9098F3
S1130AF02F5F283090F3899A9198909A90988998CA
S1130B00919A832F99270895899A919A909A909807
S1130B100895AF92BF92CF92DF92EF92FF920F931C
S1130B201F93F82E5A016B010E947501DC01CB0161
S1130B30EE2496018501AC01BD018F2D0E94560162
S1130B401F910F91FF90EF90DF90CF90BF90AF90E7
S1130B50089590912206980F90933F039F3F11F4BC
S1130B6010923F030895AF92BF92CF92DF92EF921B
S1130B700F931F935B016C010E947501DC01CB0193
S1130B8051E0E52E96018501AC01BD0180E00E9493
S1130B9056011F910F91EF90DF90CF90BF90AF90CF
S1130BA008958FB7F894282F33278BB392E08927C1
S1130BB08BBB2FBF0895CF93982F8FB7F894C82F6E
S1130BC080917D028330A1F580910B01891781F515
S1130BD020E030E080910D018F3F11F421E030E0FE
S1130BE0232BD9F48F3F81F0282F3327F901E858BC
S1130BF0F94F808180930D018F3F11F480930C0194
S1130C008FEF8083C90102C08FEF90E0809351047D
S1130C1081E080937D0281E109C084E080930B012F
S1130C2010927D0281E080937C0283E10E948F0018
S1130C30CFBF81E090E0CF91089580E88093400396
S1130C401092AA0510924005109274060895AF926E
S1130C50BF92CF92DF92EF92FF920F931F93CF93A5
S1130C60DF930E947501FC01EB0120913E04309159
S1130C703F0440914004509141047B018C01E21AED
S1130C80F30A040B150B109246048091D50390913E
S1130C90D603A091D703B091D803E816F9060A0742
S1130CA01B07C0F0EE24FF248701280F391F4A1FB9
S1130CB05B1F20933E0430933F04409340045093C1
S1130CC04104E092D503F092D6030093D703109326
S1130CD0D80363C05C016D01AE18BF08C00AD10A15
S1130CE08601750161E0A61661E0B60660E0C606FD
S1130CF060E0D60690F080E0A81680E0B80681E0B7
S1130D00C80680E0D80610F08FEF04C0BB27AD2DD5
S1130D109C2D8B2D8093460458C061E8A616B1041F
S1130D20C104D10430F1C058DF4FEF4FFF4FC093DF
S1130D303E04D0933F04E0934004F0934104C05830
S1130D40D040E040F04080E89FEFAFEFBFEFE80E07
S1130D50F91E0A1F1B1FE092D503F092D6030093DD
S1130D60D7031093D80360E8E62EF12C012D112D42
S1130D7014C0280F391F4A1F5B1F20933E04309371
S1130D803F0440934004509341041092D5031092C1
S1130D90D6031092D7031092D8036E2D82B7282F52
S1130DA08C1B8E5F8E1518F0622F6E5F01C06C0F66
S1130DB0662309F461E0615000B601FCFDCF61BF18
S1130DC082E086BF87B7826087BFDF91CF911F9192
S1130DD00F91FF90EF90DF90CF90BF90AF90089568
S1130DE00F931F93DC01CB016FB7F894062F1127E3
S1130DF080933E0490933F04A0934004B093410435
S1130E002093D5033093D6034093D7035093D8034C
S1130E100E9427060FBF1F910F910895282F8FB7A7
S1130E20F89499272CB95E9A8FBF08959C018091FC
S1130E306F02909170028F37910520F0109270022A
S1130E4010926F026623E1F0D90180916D029091B6
S1130E506E028F37910520F010926E0210926D028F
S1130E6080916D0290916E02FC01EE5AFB4F2D9120
S1130E702083019690936E0280936D02615029F74E
S1130E8080917102882361F481E080937102E09182
S1130E906F02F0917002EE5AFB4F80810E940E07A0
S1130EA00895982F8FB7F894282F332790939C0098
S1130EB080919B00806480939B002FBF08959C01C8
S1130EC080917602909177028036910520F01092FD
S1130ED07702109276026623E1F0D90180917402C0
S1130EE0909175028036910520F01092750210924F
S1130EF074028091740290917502FC01E559FC4FD3
S1130F002D91208301969093750280937402615011
S1130F1029F780917802882361F481E08093780234
S1130F20E0917602F0917702E559FC4F80810E94AE
S1130F3051070895CF93DF93D9019EE79093480317
S1130F4090935F0329E030E030934A0320934903F0
S1130F50992790934C0380934B0360934D034093E4
S1130F604E03EFE4F3E080E1EF010D9009928A95DE
S1130F70E1F7379760912A06CF010E945F07DF915E
S1130F80CF9108959EE79093480390935F0322E0E6
S1130F9030E030934A0320934903992790934C03FC
S1130FA080934B0310924D0360912A0688E493E0EA
S1130FB00E945F070895AF92BF92CF92DF92EF92A3
S1130FC0FF920F931F93CF93DF930E94AB01FC0119
S1130FD0EB018091D9039091DA03A091DB03B091E6
S1130FE0DC03A0904206B0904306C0904406D09023
S1130FF045069C01AD012A0D3B1D4C1D5D1D79016B
S11310008A01EC1AFD0A0E0B1F0BC817D907EA0751
S1131010FB0730F0281739074A075B0770F005C053
S1131020281739074A075B0728F4C217D307E407D0
S1131030F50718F0EE24FF24870121E0E21620E8EA
S1131040F20620E0020720E0120730F1C050D04839
S1131050EF4FFF4FC093D903D093DA03E093DB0340
S1131060F093DC03C050D048E040F04080E090E8CA
S1131070AFEFBFEFE80EF91E0A1F1B1FE0924206F6
S1131080F09243060093440610934506E12CE0E8F1
S1131090FE2E012D112D14C08A0D9B1DAC1DBD1DEE
S11310A08093D9039093DA03A093DB03B093DC031A
S11310B0109242061092430610924406109245067E
S11310C0B7012CB53DB5C9018C1B9D0B03968E153C
S11310D09F0520F0B9016D5F7F4F02C06C0F7D1F2B
S11310E06115710511F461E070E0615070407BBDE1
S11310F06ABD80E186BF87B7806187BFDF91CF91EA
S11311001F910F91FF90EF90DF90CF90BF90AF9021
S113111008950F931F93DC01CB016FB7F894062F4A
S113112011278093D9039093DA03A093DB03B09340
S1131130DC032093420630934306409344065093C5
S113114045060E94DB070FBF1F910F910895EF9290
S1131150FF920F931F93CF938FB7F894C82F0E94D9
S1131160C400DC01CB019C01277030702F5F3F4F1E
S1131170C1F0C901F3E0880F991FFA95E1F7820FD6
S1131180931F820F931F7C01002711270E94AB013C
S1131190DC01CB01A8019701BC01CD010E948908A3
S11311A006C081E090E09093640280936302CFBF15
S11311B0CF911F910F91FF90EF90089597B79F7D66
S11311C097BF90E296BF882319F08EB5806402C061
S11311D08EB58F7B8EBD87B7806287BF80E090E03D
S11311E008958FB9779BFECF8FB1992708950F93F8
S11311F01F938B010E94F108812F99270E94F10807
S1131200802F0E94F10899271F910F910895DF9272
S1131210EF92FF920F931F93CF937A01C22FDD2495
S11312208C01060F111D802F80680E94F10816950D
S11312300795802F807C0E94F108CC2341F0F701B0
S113124081917F010E94F108D82EC150F6CF8D2DD7
S11312509927CF911F910F91FF90EF90DF90089500
S1131260882311F06F9A08956F9808951F9310E0E2
S1131270812F0E94B400BA9ABB98B99AB89A6C9A12
S1131280C098812F0E943009709A6B986A98689868
S113129081E00E94B4001F9108950F931F93CF9390
S11312A0082F8FB7F894282F3327122F80916702C5
S11312B0882321F02FBF85E090E021C09091650242
S11312C0992341F482E0809365029093020180E0C7
S11312D090E002C081E090E09927C82F882311F4A0
S11312E00E9436098C2F9927282F882329F40093EC
S11312F0050181E0809367021FBF822F9927CF9158
S11313001F910F910895CF93C82F0E94BA0088238C
S113131011F40E94360980916502882359F481E012
S113132080936502C093AC058FE10E948F0080E03A
S113133090E01EC0EC2FFF27E45CFC4F80818F3FC0
S1131340A1F4E0910301EC1781F0809104018F3F37
S113135019F4C093040104C0FF27E45CFC4FC0836C
S1131360C093030180E090E002C085E090E09927FB
S11313709927CF910895CF93282F8FB7F894C82F2A
S113138090916702992369F081E090E002C0880F90
S1131390991F2A95E2F720916602282B2093660272
S11313A008C02093050181E080936702892F0E9481
S11313B08309CFBF80E090E0CF910895CF9382E07E
S11313C00E944D099927C82F882319F082E00E94B2
S11313D0BB098C2F9927CF9108951F93CF93DF9347
S11313E0982F8FB7F894282F3327122F8091050157
S11313F0891721F02FBF81E090E071C04FEF409337
S1131400050180916502823009F03FC0909102018C
S11314109923D9F520E030E080910401841711F478
S113142021E030E0232B69F58F3F79F0282F332713
S1131430F901E45CFC4F8081809304018F3F11F437
S1131440409303014083C90102C08FEF90E0809371
S1131450AC0581E0809365028FE10E948F0015C086
S11314602093050181E090E002C0880F991F4A95FE
S1131470E2F7809538233093660280E00E94830966
S11314802BC040930201909365020E94BA00C82FBA
S1131490DD27CC2331F48C2F0E94B400C093730653
S11314A0C09A309166023323A9F0209105012F5F81
S11314B0632F7727243008F020E0422F5527CB01F3
S11314C0042E02C0959587950A94E2F780FDC8CF53
S11314D02F5FF0CF109267021FBF80E090E0DF9192
S11314E0CF911F910895CF93C1E0C0988091450496
S11314F0882311F085E001C084E00E94F10883FD97
S113150005C080E00E94F10883FDC0E08FB7F89425
S1131510CC2319F023E030E002C025E030E0309322
S11315206402209363028FBFC09ACC2329F082E027
S11315300E94ED090E94A708CF9108958F929F926F
S1131540AF92BF92CF92DF92EF92FF920F931F93CD
S1131550CF93DF938FB7F894C0904704D09048049A
S113156080903D0390903E03C0916903D0916A033B
S1131570AE01465F5F4F2091AF053091B00524174F
S1131580350708F09A018FBF59010894A108B108E2
S1131590CA15DB05E8F47E01E80CF91C8E010C0D7C
S11315A01D1DC114D10419F0F801808101C080E02F
S11315B00E94F1088114910411F0F70180832196AF
S11315C00F5F1F4F0894E11CF11CCA15DB0548F39B
S11315D081E00E9430098FB7F894982FC114D10488
S11315E031F0CC0EDD1EF60180818FB901C01FB829
S11315F0D0936A03C09369039FBF80E090E0DF91BA
S1131600CF911F910F91FF90EF90DF90CF90BF90FB
S1131610AF909F908F9008959C018FB7F89499276D
S1131620309348042093470470933E0360933D0332
S11316305093B0054093AF0510926A03109269036A
S11316408FBF8FB10E949E0A992708950F931F930D
S1131650C0980091AF021091B0028FE790E0909390
S1131660E1058093E0058091E0050E94F10841E0E6
S113167050E0B80180E090E00E940C0B1F910F91A4
S1131680089582E090E09093CF038093CE0383E0AB
S11316900E944D09882319F40E94260B089583E0C3
S11316A00E94BB090895CF938FB7F894282F33274E
S11316B0C22F8091CE039091CF03892B11F42FBFB9
S11316C026C020917406222341F080E090E0B79B6D
S11316D002C081E090E0892B49F481B1992736E07A
S11316E0969587953A95E1F780FD08C0222319F075
S11316F02150209374060E94410B08C081E090E0C1
S11317009093CF038093CE0310927406CFBFCF91F2
S113171008951F93CF93DF93C091F903D091FA03F7
S11317208FA19927182F882309F41FE1C09880916D
S11317304606811741F0812F9927806E9068BC017D
S113174085E10E94F70810934606188111508EE334
S113175090E09093E1058093E0058091E0050E947C
S1131760F108812F9927AC0160E070E0CE010E945E
S11317700C0BDF91CF911F910895CF93DF93DA0182
S1131780EA018A876E83872F99278F8382E290E00C
S11317908C8360E070E06D83245F8FB7F894482FEA
S11317A0552780916C02833021F04FBF81E090E097
S11317B059C085E080936C02B0937106A0937006C3
S11317C0809125068F5F80932506FD0183834FBF9B
S11317D02193ED0189819927807290708983892FE3
S11317E0992781839927982F882729813327822B4A
S11317F0932B816498688983892F992781838091A9
S11318000001909101018887892F992789876BA707
S113181068A769A71DA66CA7409170065091710630
S11318208FB7F894282F3327809163029091640234
S1131830019711F02FBF14C082E090E090936402EE
S11318408093630281E0809345045093FA034093AC
S1131850F9032FBF0E94DE09882311F40E94890B2B
S113186080E090E09927DF91CF9108952F923F92E5
S11318704F925F926F927F928F929F92AF92BF929C
S1131880CF92DF92EF92FF920F931F93CF93DF9348
S1131890CDB7DEB726970FB6F894DEBF0FBECDBF27
S11318A04C01C401AA2797FDA095BA2F89839A8376
S11318B0AB83BC83BC01CD010E94F1272B013C0109
S11318C097FE08C020E030E040E857E40E94442737
S11318D02B013C0180913A03082F11271801220C97
S11318E0331C220C331C3FE9A32E32E0B32EA20C8E
S11318F0B31CD501CD90DD90ED90FC90A70196012D
S1131900C301B2010E9443272B013C01F801E555B4
S1131910FD4F10811F5F1083E12FFF27ED83FE83AE
S1131920CF01AA2797FDA095BA2FBC01CD010E9433
S1131930F127DC01CB019C01AD01C301B2010E947E
S11319408E27DC01CB019C01AD01C701B6010E94C9
S113195044276B017C01D5016D937D938D939C93FA
S11319601397113009F45CC069817A818B819C8161
S11319700E94F12797FE06C020E030E040E857E4DB
S11319800E944427A70196010E944327DC01CB0152
S113199027E8C22E22E0D22EC20CD31C9C01AD013A
S11319A0C301B2010E946028DC01CB01F601E08092
S11319B0F180028113819C01AD01C801B7010E942D
S11319C044277B018C01D6016D937D938D939C9369
S11319D013976101E3E9F2E0CE0EDF1E2D813E8113
S11319E021503040C901AA2797FDA095BA2FBC0108
S11319F0CD010E94F127DC01CB019C01AD01C8019E
S1131A00B7010E948E27DC01CB01BC01CD010E94ED
S1131A10AE28DC01CB01F60180839183A283B383DA
S1131A2026960FB6F894DEBF0FBECDBFDF91CF91DF
S1131A301F910F91FF90EF90DF90CF90BF90AF90E8
S1131A409F908F907F906F905F904F903F902F90DA
S1131A5008958998919A909A80B399279695879535
S1131A6080FF03C081E090E00895909880E090E0CA
S1131A700895AF92BF92CF92DF92EF920F931F938C
S1131A805B016C010E947501DC01CB0161E0E62E73
S1131A9096018501AC01BD018CE00E9456011F91A5
S1131AA00F91EF90DF90CF90BF90AF9008951F9368
S1131AB0889A90988998919A89B78D7F89BF899AD5
S1131AC0919A909888E0909A9098815087FFFBCFE4
S1131AD0899A919A9098909A91989098909A919ABC
S1131AE0909880917606909177068F71907090937C
S1131AF0770680937606809176060E94F1030E9411
S1131B00290D882329F01092800281E090E048C0DA
S1131B1020917606309177062630310561F1273021
S1131B20310538F42330310579F02530310561F081
S1131B3035C02730310599F02E31310579F56BE048
S1131B4070E080E090E008C08998919A0E94FE03BA
S1131B506EE571E080E090E00E94390D1FC00E94A4
S1131B606B05182F0E946B050E94840510937F0259
S1131B708FE00E948F008091D4040E94F1030E94A0
S1131B80290D882321F081E080937E0204C0809196
S1131B90D40480937F028FE00E948F0080E090E065
S1131BA01F910895282F80910E01882319F484E051
S1131BB090E0089580918002882319F085E090E0F8
S1131BC0089581E08093800283E090E0909377060B
S1131BD080937606209348060E94570D992708950E
S1131BE0282F80910E01882319F484E090E0089551
S1131BF080918002882319F085E090E0089581E0C7
S1131C008093800285E090E0909377068093760637
S1131C10209348060E94570D992708951F93CF9348
S1131C20DF93162FEA01992781309105E9F082307C
S1131C3091051CF4892B21F017C0029771F014C090
S1131C4080E00E94DB05112321F4D0931601C09398
S1131C50150181E00E94200507C082E00E94DB0597
S1131C60BE01812F0E945D05DF91CF911F910895E0
S1131C701F93CF93DF93162FEA01992781309105A3
S1131C8049F082309105CCF082309105B1F0039790
S1131C9069F013C081E00E94DB05112321F4D09385
S1131CA01401C09313010E94EC0307C083E00E9457
S1131CB0DB05BE01812F0E941E04DF91CF911F918D
S1131CC008952F923F924F925F926F927F928F92DC
S1131CD09F92AF92BF92CF92DF92EF92FF920F93B7
S1131CE01F93CF93DF93CDB7DEB7CD54D0400FB65B
S1131CF0F894DEBF0FBECDBF1B012C018824AA249B
S1131D00BB2411EB612E12E0712EF301608561FF9B
S1131D104AC22081318142815381D201C101821B97
S1131D20930BA40BB50BE480F580068117818E1507
S1131D309F05A007B10708F436C260FF03C06D7F9A
S1131D4060870AC02E0D3F1D401F511FD3012D93E4
S1131D503D934D935C931397B6E0AB16B10409F42D
S1131D6050C0E7E0AE16B104D4F4F2E0AF16B1040B
S1131D7009F43FC083E0A816B10444F4A114B104EB
S1131D8091F191E0A916B10491F10DC2A4E0AA1653
S1131D90B10499F1B5E0AB16B1048CF52CC0EAE0BE
S1131DA0AE16B10409F4D2C0FBE0AF16B1045CF482
S1131DB088E0A816B10409F4C1C099E0A916B104D9
S1131DC00CF010C120C0ACE0AA16B10409F42AC179
S1131DD0BCE0AB16B1040CF407C1EEE0AE16B104DE
S1131DE009F447C1E0C182E00E942005DCC1D99A10
S1131DF0DAC1D89AD8C1DA9AD6C183E0D2C184E0D4
S1131E00D0C182E0CEC189E0898389E090E08A83F1
S1131E109B8385E090E08C839D838091AE02882330
S1131E2009F04EC08E838091D604882339F489E169
S1131E3091E02E968EAF9FAF2E9711C0813039F46A
S1131E40AFE1B1E02E96AEAFBFAF2E9708C082309F
S1131E5031F4E5E2F1E02E96EEAFFFAF2E972E9629
S1131E608EAD9FAD2E979F938F938BE291E09F93BE
S1131E708F938E01085E1F4F1F930F930E94EC23D4
S1131E80ADB7BEB716960FB6F894BEBF0FBEADBFC2
S1131E9080E1FE013896D8010D9001928A95E1F710
S1131EA087E1DE011196EBE2F6E00D9001928A954E
S1131EB0E1F78CE00E948F0081E08093AE0273C151
S1131EC081E08E838091D2049091D3049F938F9369
S1131ED08091CC039091CD039F938F938091F703CE
S1131EE09091F8039F938F9389E391E09F938F934D
S1131EF08E01085E1F4F1F930F930E94EC23EDB7D2
S1131F00FEB73A960FB6F894FEBF0FBEEDBF80E160
S1131F10FE013896D8010D9001928A95E1F787E188
S1131F20DE011196EBE2F6E00D9001928A95E1F75D
S1131F308CE00E948F001092AE0235C182E0809343
S1131F403B0382E18093490587E02BC180912206FF
S1131F508F5F809322068F3F11F410922206909196
S1131F60220680913F03981709F01DC180918102D8
S1131F7099279F938F9380911701909118019F93B4
S1131F808F9385E491E09F938F9380E295E09F93F4
S1131F908F930E94EC23EDB7FEB738960FB6F894F2
S1131FA0FEBF0FBEEDBF809181028630B8F48F5F13
S1131FB0809381028630B0F0FE01F89680E1DF0163
S1131FC01D928A95E9F79F0140E065E180914905FA
S1131FD00E949A078EE10E94A905E5C01092810231
S1131FE0109286028BE0DDC08FB7F894082F11277A
S1131FF0902F80910B01843099F480917D0281307F
S113200021F481E10E948F0009C0823049F480915B
S1132010510480930B0183E080937D020FBFC3C002
S11320209FBFC1C080917606909177068530910557
S1132030B1F08630910518F4039739F0B4C04E9787
S113204009F0B1C010928002AEC01092800240E04C
S113205050E061E0809148060E940E0EA4C01092E8
S1132060800240E050E061E0809148060E94380E12
S11320709AC08FB7F8949927C0906802CC2011F0C9
S11320808FBF91C08FBF80B39927B6E0969587958F
S1132090BA95E1F7982EB1E09B228091D7049091F4
S11320A03903891709F47AC0991609F077C084E0D6
S11320B090E090936A02809369028E01085B1F4F3F
S11320C08091060190910701F8018083892F992757
S11320D0818380914C0690914D068283892F9927A4
S11320E083838FB7F8949927DB2EB09368028FBF50
S11320F08EE10E948F0060E070E08DE10E94F7089D
S113210024E0A8016C2D88E691E00E940709C09A9A
S1132110C0988FB7F894E82EFF248D2D0E94DE0816
S113212001E010E01093640200936302C092620223
S1132130C0924606EFBE8FB7F894E82EFF240E94A3
S11321401D061093CF030093CE0389B78F7B89BFFD
S113215080E488BF8AB780628ABF8AB78F7E8ABFCD
S113216089B7806489BFEFBE8FB7F894082F112711
S11321708091690290916A02049719F483E00E94A5
S1132180F1080FBF8FB7F894082F1127C09A80E089
S11321900E94ED090FBF89E10E948F009092D7043D
S11321A08DE10E948F00839489E090E0680E791E8F
S11321B00894A11CB11C9EE0981508F0A6CD81E0FE
S11321C00E948F00C35BDF4F0FB6F894DEBF0FBED3
S11321D0CDBFDF91CF911F910F91FF90EF90DF90D2
S11321E0CF90BF90AF909F908F907F906F905F90B3
S11321F04F903F902F9008954F925F926F927F92ED
S11322008F929F92AF92BF92CF92DF92EF92FF9202
S11322100F931F93CF93DF93CDB7DEB724970FB6F9
S1132220F894DEBF0FBECDBF9927AA27BB27FC01B8
S1132230819710F00C940319EA5BFF4FEE0FFF1F18
S11322400590F491E02D099440913803442339F525
S11322508FB7F894282F3327E0903E04F0903F0482
S113226000914004109141048091D5039091D603CC
S1132270A091D703B091D803E80EF91E0A1F1B1FC3
S11322802FBF8091260690912706A0912806B09131
S113229029069C01AD01C801B7010E94F0060E9405
S11322A07501DC01CB01BC01CD0140C00E94750168
S11322B07B018C018FEFA82E8FEFB82E8FEFC82EE5
S11322C08FE7D82E70E087B78D7F87BFE1EBF2E010
S11322D06EE0808581FF1CC080819181A281B381E1
S11322E0A8019701281B390B4A0B5B0BDA01C901C2
S11322F02481358146815781281B390B4A0B5B0B9E
S11323002A153B054C055D051CF459016A0171E071
S11323106150399667FFDDCF772309F474C71A1427
S11323201B041C041D042CF0C801B7010E94610E9B
S11323306AC7A0922606B0922706C0922806D092B9
S1132340290681E080933803A6019501C801B701ED
S11323500E94F00658C78FB7F894282F33278BB301
S113236094E089278BBB2FBF8091420481508093D6
S113237042048F3F51F0809162039927AA27BB271B
S1132380BC01CD010E94DF013EC7DA9A32C00E942F
S1132390D105809143048150809343048F3F61F0C1
S11323A00E94D105809163039927AA27BB27BC010A
S11323B0CD010E94FD0127C7D99A1BC08FB7F8949D
S11323C0282F33278BB391E089278BBB2FBF8091B4
S11323D044048150809344048F3F51F080916403FE
S11323E09927AA27BB27BC01CD010E941B020BC75A
S11323F0D89A68EB7BE080E090E00E94B30503C7C5
S11324008BEF93E0909368038093670382E080935B
S11324103B0382E18093490588EB9BE09093DE03C4
S11324208093DD031092850210928402109283023D
S11324301092820210928102109278021092770216
S113244010927602109275021092740280919A0092
S1132450806480939A0080919A00886080939A00A7
S113246080919A00806880939A0080919A0080619C
S113247080939A0080919A00886080939A0080915A
S11324809A00806180939A0088E180932A0688E408
S11324908093D0031EE71093480310935F031093B7
S11324A0D80410931F0548E150E060E070E088E430
S11324B093E00E94E5231093480383E090E0909317
S11324C04A038093490310935F0360912A0688E4CA
S11324D093E00E945F070E947501DC01CB0111E0CB
S11324E0E12E00EA1FE020E030E0AC01BD0188E00D
S11324F00E94560188C688EB9BE09093DE0380938C
S1132500DD0380910A038D7F80930A0348EB5BE02F
S113251060E070E089E071C0809101038D7F809359
S11325200103E0903B03F09049058F2D99279F9379
S11325308F938E2D99279F938F938091170190915C
S113254018019F938F938EE591E09F938F9302EEF2
S113255015E01F930F930E94EC234DB75EB7465FBF
S11325605F4F0FB6F8945EBF0FBE4DBFF8010190E8
S11325700020E9F73197E01BF10B6E2FC8010E9490
S1132580160755E0F51611F0852FB6C5E092D5046F
S1132590F092490644EF51E060E070E087E02DC01E
S11325A08091FF0399279F938F938EE791E09F93E8
S11325B08F9302EE15E01F930F930E94EC238DB7C7
S11325C09EB706960FB6F8949EBF0FBE8DBFF80156
S11325D001900020E9F73197E01BF10B6E2FC80141
S11325E00E94160710C6809113038D7F80931303F6
S11325F044E650E060E070E08AE00E94890503C68A
S1132600809149058231E9F482E190E09F938F93B0
S113261080911701909118019F938F938BE891E01B
S11326209F938F9380E295E09F938F930E94EC2376
S1132630ADB7BEB718960FB6F894BEBF0FBEADBF08
S113264097C0863019F08D3009F047C0809186021A
S113265099279F938F938091490599279F938F93EF
S113266080911701909118019F938F938EE991E0C7
S11326709F938F9380E295E09F938F930E94EC2326
S1132680EDB7FEB73A960FB6F894FEBF0FBEEDBF96
S1132690809149058D3019F484E00E94A9052091A8
S11326A04905309186028EE78093480380935F0347
S11326B08AE090E090934A0380934903822F9927FC
S11326C090934C0380934B0330934D0360912A06FF
S11326D088E493E00E945F0796C5893009F493C5A6
S11326E099279F938F9380911701909118019F933D
S11326F08F9389EB91E09F938F9380E295E09F9372
S11327008F930E94EC232DB73EB7285F3F4F0FB63F
S1132710F8943EBF0FBE2DBF2DC080912C06909122
S11327202D06029761F580912E0690912F069F93B6
S11327308F9380911701909118019F938F938CEC44
S113274091E09F938F9380E295E09F938F930E94F3
S1132750EC234DB75EB7485F5F4F0FB6F8945EBF8A
S11327600FBE4DBF80912E0690912F06429711F413
S113277080E06EC1809149050E94C20744C58091E2
S11327802B0600E215E020912E0630912F068823B7
S113279009F03FC08091DD039091DE038217930717
S11327A089F03093DE032093DD0380910A038D7F4B
S11327B080930A03C901AA27BB27AC01BD0189E0A4
S11327C00E94890580912E0690912F069F938F93E6
S11327D080912D0699279F938F9380912C0699279A
S11327E09F938F9380911701909118019F938F93DA
S11327F080EE91E09F938F931F930F930E94EC239D
S11328008DB79EB70C960FB6F8949EBF0FBE8DBFC2
S1132810FAC48091310699279F938F938091300653
S113282099279F938F933F932F93809117019091B2
S113283018019F938F938DEF91E09F938F931F9334
S11328400F930E94EC23ADB7BEB71C960FB6F89455
S1132850BEBF0FBEADBF8091490540913106609166
S11328603006A2E3B6E0893041F58EE78093480351
S113287080935F0389E090E090934A038093490337
S113288090934C0380934B0360934D0340934E030A
S11328902FE433E080E1F9010D9001928A95E1F78C
S11328A060912A06C90107970E945F078AE090E0B9
S11328B090934A0380934903A6C49D010E949A07FA
S11328C0A2C482E080934303E0916703F09168031C
S11328D080913B038083E0916703F09168038091CA
S11328E049058183E0916703F09168038091DD03DA
S11328F09091DE0382839383809115019091160158
S11329008483958380911301909114018683978326
S113291080911101909112018087918780910F011C
S113292090911001828793871486158616861786E0
S113293080914303825F8093430388E0DDC38091E9
S11329408002882309F45FC4809125038D7F8093DE
S113295025030E946B059927182F00270E946B05F9
S11329609927082B192B0E946B050E9484058091DE
S11329707606909177068330910519F0059751F00A
S113298042C410928002A80160E0809148060E942F
S11329900E0E39C410928002A80160E080914806AE
S11329A00E94380E30C48091760690917706863066
S11329B0910531F0079709F026C41092800223C4D0
S11329C01092800210927E021EC480917B0281309C
S11329D031F46BE070E080E090E00E94CE038FB7AA
S11329E0F894992710927B0210927C02BBC28FB795
S11329F0F89499272091510420930B01E3E0FE2ED3
S1132A00F0927D028FBF022F11270130110519F1B9
S1132A100230110524F40115110541F0F4C302300C
S1132A20110569F103301105D9F1EDC380E00E946D
S1132A30D20DE82EFF24EE2009F4E5C380E00E94C5
S1132A40DB05EE2021F4109316010093150181E0BB
S1132A500E942005D8C381E00E94F00D082F1127A1
S1132A60002309F4D0C381E00E94DB05002321F494
S1132A7010921401109213010E94EC03C4C382E06B
S1132A800E94D20D082F1127002309F4BCC382E051
S1132A900E94DB0560E070E0802F0E945D05B3C3F7
S1132AA08F2D0E94F00D082F1127002309F4ABC3CA
S1132AB08F2D0E94DB0560E070E0802F0E941E04D1
S1132AC0A2C36BE070E080E090E00E94CE039BC361
S1132AD0889890988998919880E10EC38FB7F8945C
S1132AE0282F33279091D10490930A0183E0809397
S1132AF079022FBF892F9927009711F4BE9AC69A9D
S1132B008130910579F0823091051CF4892B21F0F4
S1132B107AC3029759F077C381E08093AB05109292
S1132B20B1050AC081E08093AB0504C081E08093C5
S1132B30AB0582E08093B1050E943E0364C310920A
S1132B40AB058091B105E0904603F0904703082F50
S1132B5011270130110569F00230110524F4011523
S1132B60110529F00BC00230110529F007C080E0DF
S1132B7003C081E001C082E00E9489020130110596
S1132B80B9F0023011051CF4012B29F03CC30230CA
S1132B901105C9F038C376E0F694E7947A95E1F725
S1132BA0F0921201E092110181E00E94F4022BC321
S1132BB066E0F694E7946A95E1F7F0921001E092EA
S1132BC00F018DE099C2270156E0569447945A9517
S1132BD0E1F7809047059090480560904403709019
S1132BE045038FB7F894A82E80913A03882309F0FF
S1132BF068C0C4010E94360CC401AA2797FDA095A1
S1132C00BA2FBC01CD010E94F1277B018C0197FEF4
S1132C1008C020E030E040E857E40E9444277B01EC
S1132C208C0180913A03E82FFF27EE0FFF1FEE0F70
S1132C30FF1FE156FD4F80819181A281B3819C01E8
S1132C40AD01C801B7010E944327DC01CB01BC01DF
S1132C50CD010E94D427DC01CB010E943902B0903F
S1132C603A030B2D1127000F111F000F111FF8013C
S1132C70E156FD4F80819181A281B381BC01CD01D8
S1132C800E94D4276B017C01F801ED56FD4F808131
S1132C909181A281B381BC01CD010E94D427DC01C2
S1132CA0CB01B092D6049092F8038092F703D092AD
S1132CB0CD03C092CC039093D3048093D20481E0DB
S1132CC06AC0813009F06AC0C3010E94360CC30196
S1132CD0AA2797FDA095BA2FBC01CD010E94F12728
S1132CE07B018C0177FE08C020E030E040E857E427
S1132CF00E9444277B018C0180913A03E82FFF272F
S1132D00EE0FFF1FEE0FFF1FE156FD4F80819181F3
S1132D10A281B3819C01AD01C801B7010E94432780
S1132D20DC01CB01BC01CD010E94D427DC01CB0125
S1132D300E943902B0903A030B2D1127000F111F86
S1132D40000F111FF801E156FD4F80819181A2818E
S1132D50B381BC01CD010E94D4276B017C01F80131
S1132D60ED56FD4F80819181A281B381BC01CD01DB
S1132D700E94D427DC01CB01B092D6047092F803F0
S1132D806092F703D092CD03C092CC039093D30406
S1132D908093D20482E080933A0361C0823009F0C8
S1132DA05EC0C2010E94360CC201AA2797FDA095FD
S1132DB0BA2FBC01CD010E94F1277B018C018091C7
S1132DC03A03E82FFF27EE0FFF1FEE0FFF1FE15618
S1132DD0FD4F80819181A281B3819C01AD01C80125
S1132DE0B7010E944327DC01CB01BC01CD010E9445
S1132DF0D427DC01CB010E943902B0903A030B2D99
S1132E001127000F111F000F111FF801E156FD4F8C
S1132E1080819181A281B381BC01CD010E94D4271C
S1132E206B017C01F801ED56FD4F80819181A281F7
S1132E30B381BC01CD010E94D427DC01CB01B09247
S1132E40D6045092F8034092F703D092CD03C09277
S1132E50CC039093D3048093D20410923A03AFBE70
S1132E60D2C180916C02813049F582E080936C027A
S1132E700E94C400DC01CB01809325068FB7F8942F
S1132E80282F33278091690290916A02892B11F0CF
S1132E902FBF14C081E090E090936A02809369028E
S1132EA02FBFDD9A0E94AB01DC01CB0124E130E0AD
S1132EB040E050E0BC01CD010E94890886E11CC1BC
S1132EC00E94C400DC01CB0180934B06892F992713
S1132ED080934A0660E070E08CE796E00E94A101CE
S1132EE0FC0180914A0690914B068083918321E0F6
S1132EF04CE756E06FEF7FEF83E90E94BD0B882318
S1132F0009F481C11EC060E070E08CE796E00E9485
S1132F10A10128E0E9E4F4E0DC0101900D922A9596
S1132F20E1F721E04CE756E06FEF7FEF83E90E9481
S1132F30BD0B882309F467C188E1DEC083E0809378
S1132F406C0287E1D9C081E005C08FB7F894992756
S1132F508FBF83E080936C0256C18FB7F894992792
S1132F601092CB038FBF4FC18FB7F894C82EDD24C6
S1132F7080916802882379F40E947501DC01CB01F9
S1132F80F1E0EF2E01E010E020E030E0AC01BD0103
S1132F908EE00E945601CFBE36C18FB7F894282F19
S1132FA0332780916802882329F0809137038D7F2D
S1132FB0809337032FBF27C18FB7F894282F332767
S1132FC09091AC059093020182E0809365022FBF3B
S1132FD0992309F018C18FB7F89499272091050116
S1132FE08FBF33272130310509F453C02230310516
S1132FF01CF4232B51F007C12230310509F47FC0A2
S11330002330310509F493C0FEC0C0988FB7F894FB
S1133010E82EFF248091690290916A020297B9F523
S113302083E090E090936A028093690268E170E023
S11330308DE10E94F70811E01093390310926802A1
S113304080B39927E6E096958795EA95E1F7812381
S11330508093D7048DE10E948F00812F0E94F10894
S11330606FE772E08CE10E94F7089091080185E017
S1133070989FC0011124825D9E4F9064BC0188E139
S11330800E94F70862EF7AE281E10E94F708EFBE3E
S1133090BAC08FB7F894282F3327409108018E01C6
S11330A00F5F1F4F80910601909107018983892F3B
S11330B09927F801818380914C0690914D068B836A
S11330C0892F99278C832FBFC09885E0489FC00122
S11330D01124825D9E4F9064BC0188E10E94F70830
S11330E024E0A80160E088E691E00E940709C09A04
S11330F081E00E94ED098CE10E948F0084C08FB7AB
S1133100F8949927209163028FBF33272230310529
S113311021F02430310521F006C00E94890B73C0D0
S11331200E94730A70C082E00E94ED096CC00E9484
S1133130260B69C0A091AF02B091B0028C919D01A1
S1133140280F311DF9018081881F8827881FFD0100
S113315082A7F90182919F012F5F3F4FFD0180A754
S1133160F90180818F77FD0181A70091AF02109151
S1133170B0025BE0E52EF12CE00EF11EF801878130
S11331809927382F222786819927282B392B80913C
S11331900001909101012817390719F02F5F3F4F63
S11331A061F5C8010E949D01833939F580910901B7
S11331B0882319F180914A069927582F4427809132
S11331C04B069927482B592BF80183859927382FCB
S11331D02227F70181819927282B392B421753077E
S11331E021F487E10E948F0008C0421753072CF492
S11331F081E080936503109209011093B00200935B
S1133200AF020E94530B24960FB6F894DEBF0FBE94
S1133210CDBFDF91CF911F910F91FF90EF90DF9081
S1133220CF90BF90AF909F908F907F906F905F9062
S11332304F900895809147068F3FD1F090914706B3
S113324080914706E82FFF27E25BF94F8081809346
S11332504706809147068F3F11F480937206892FA9
S11332609927FC01E25BF94F2FEF20839C0102C0F8
S11332702FEF30E02F3F19F480E090E00895822F83
S11332800E94FC1081E090E00895CFEFD0E1DEBF12
S1133290CDBF8FB7F894C82F41E250E06FEF70E0D4
S11332A08EE496E00E94E5238FEF80934706809397
S11332B0720681E08EBD88E080BF83E083BF2CB5B9
S11332C03DB54AE78CB59DB58217930708F4415084
S11332D09C014423B9F792B782B78917E9F32CB557
S11332E03DB592B782B78917E9F38CB59DB5821BBA
S11332F0930B409665E0969587956A95E1F79093D0
S113330046058093450513BE83B78EBD8EB580BF39
S113331012BE1DBC1CBC8FEF86BF86B780937C0099
S113332080B7282F33272770307021153105C1F756
S1133330D29AD19AD09ADA9AD99AD89A25BB8FEF91
S113334084BBD498DC983DBD2CBD87B7846087BF0F
S11333508EB5887F84608EBD16B880B7886080BFC4
S113336080E285BF0E941A198823E1F78091170132
S1133370909118010196AA27BB278093D1039093BB
S1133380D203A093D303B093D4038FEF80933C0371
S113339080916C02882319F481E080936C02B89ABE
S11333A0D69AD59A809100019091010190934D068F
S11333B080934C068E98B89A8C9882EB95E0909303
S11333C0B0028093AF020091450510914605C801F3
S11333D0AA27BB275CE0880F991FAA1FBB1F5A9519
S11333E0D1F7BC01CD0120E031EE40E050E00E9475
S11333F00629DA01C901019789B9892F9927809390
S1133400900082E08BB986E0809395001AB8C801D9
S1133410AA27BB273CE0880F991FAA1FBB1F3A9518
S1133420D1F7BC01CD0120E031EE40E050E00E9434
S11334300629DA01C901019780939900892F9927F8
S11334408093980082E080939B0086E080939D00A7
S113345010929A00109266038FEF9FEFAFEFBFEFC9
S11334608093780690937906A0937A06B0937B06AE
S113347000B602FCFDCF12BE87B7816087BF83B759
S1133480887F836000B600FCFDCF83BF0E941A19B9
S113349099278823D9F7CFBF78948093710210922B
S11334A0700210926F0210926E0210926D02569A80
S11334B0539A579A549A539A549A85E00E948F00CB
S11334C068EB7BE080E090E00E94B3058FB7F8944E
S11334D0482F4AC087B79927887B892B41F480916C
S11334E07D00282F33272B7F2115310519F020E08B
S11334F030E02AC06F9928C08AB1807C29F5809178
S11335009A00807C09F5379B03C021E030E01CC0A1
S113351087B7992783709070892BA1F080B799277A
S113352087709070892BD1F781B792B7891B8C3043
S113353018F082B7853F18F022E030E005C023E0A0
S113354030E002C025E030E0E5E02E1708F4E22F79
S113355085B7837EFF27E253FF4F9491892B8062C6
S113356085BF78948895F894809147068F3FC9F079
S11335709091470680914706E82FFF27E25BF94FB9
S1133580808180934706809147068F3F11F4809392
S11335907206892F9927FC01E25BF94F2FEF2083F4
S11335A002C08FEF90E08F3F09F494CF4FBF0E9489
S11335B0FC108CCF83B783BF00B600FCFDCF089509
S11335C01F920F920FB60F9211242F933F934F9394
S11335D05F936F937F938F939F93AF93BF93CF9397
S11335E0EF93FF930E94DA1A87B78D7F87BF789491
S11335F08FB7F894C82F8091D5039091D603A091EA
S1133600D703B091D8030097A105B10521F480E058
S11336100E948F0002C00E942706CFBFFF91EF9146
S1133620CF91BF91AF919F918F917F916F915F9156
S11336304F913F912F910F900FBE0F901F901895AF
S11336401F920F920FB60F9211242F933F934F9313
S11336505F936F937F938F939F93AF93BF93EF93F6
S1133660FF930E94DA1A8091410590914205A0913E
S11336704305B09144050196A11DB11D80934105F8
S113368090934205A0934305B0934405809146046A
S1133690882339F0815080934604882311F40E94D2
S11336A02706FF91EF91BF91AF919F918F917F91E9
S11336B06F915F914F913F912F910F900FBE0F909B
S11336C01F9018951F920F920FB60F9211240F900E
S11336D00FBE0F901F9018951F920F920FB60F9266
S11336E011242F933F934F935F936F937F938F9303
S11336F09F93AF93BF93EF93FF9389B78D7F89BF58
S11337008EE00E948F00FF91EF91BF91AF919F9146
S11337108F917F916F915F914F913F912F910F9076
S11337200FBE0F901F9018951F920F920FB60F9215
S113373011240F900FBE0F901F9018951F920F9297
S11337400FB60F9211240F900FBE0F901F90189573
S11337501F920F920FB60F9211240F900FBE0F906D
S11337601F9018951F920F920FB60F9211240F906D
S11337700FBE0F901F9018951F920F920FB60F92C5
S113378011242F933F934F935F936F937F938F9362
S11337909F93AF93BF93EF93FF938091CE03909148
S11337A0CF03019719F40E94410B05C08091740660
S11337B08F5F80937406FF91EF91BF91AF919F91BA
S11337C08F917F916F915F914F913F912F910F90C6
S11337D00FBE0F901F9018951F920F920FB60F9265
S11337E011240F900FBE0F901F9018951F920F92E7
S11337F00FB60F9211242F933F934F935F936F93C0
S11338007F938F939F93AF93BF93EF93FF9364B191
S113381075B178948FB7F894282F332780916F0669
S1133820482F469541702FBF282F217080FD1CC062
S113383033988091AB0599278130910519F002974F
S113384059F028C0442351F0709347036093460312
S113385085E10E948F001EC0442319F40E943E0398
S113386019C02093AB0516C08FB7F89499278FBF62
S11338708FB7F894482F552786B180618777282F12
S1133880332726B98F7B282F332726B980689927B9
S113389086B94FBFFF91EF91BF91AF919F918F91E7
S11338A07F916F915F914F913F912F910F900FBE38
S11338B00F901F9018951F920F920FB60F9211241C
S11338C08F935F998CB18F910F900FBE0F901F90C3
S11338D0189578941F920F920FB60F9211242F937C
S11338E03F934F935F936F937F938F939F93AF9384
S11338F0BF93EF93FF9380916F02909170020196B2
S11339009093700280936F028F37910520F010928C
S1133910700210926F0280916D0290916E028F3747
S1133920910520F010926E0210926D02E0916F02E8
S1133930F091700280916D0290916E02E817F90780
S113394031F0EE5AFB4F80810E940E0702C01092A4
S11339507102FF91EF91BF91AF919F918F917F91F0
S11339606F915F914F913F912F910F900FBE0F90E8
S11339701F9018951F920F920FB60F9211242F9338
S11339803F934F935F936F937F938F939F93AF93E3
S1133990BF93EF93FF9380919B0087FFD1C1409128
S11339A09C0080917202882321F44E3709F0C8C12B
S11339B006C020917302233050F44E3741F481E065
S11339C08093720240934A0580937302B9C1E22F37
S11339D0FF27E65BFA4F40832F5F209373023091F9
S11339E04B05333049F580912A06281709F098C110
S11339F0109272024E3709F09BC180914D0580935D
S1133A004905863021F0893011F08D3081F48AE047
S1133A1080933B03809149058D3061F48FEF80934F
S1133A203F031092220689E00E948F0003C082E0C7
S1133A3080933B0387E071C1323009F04CC0809120
S1133A402A06281709F06CC1109272024E3709F049
S1133A506FC130934303E0916703F0916803809151
S1133A603B038083E0916703F091680380914905EB
S1133A708183E0916703F09168038091DD03909165
S1133A80DE03828393838091510590915205848350
S1133A9095838091530590915405868397838091F3
S1133AA0550590915605808791878091570590918F
S1133AB05805828793878091590590915A05848788
S1133AC0958780915B0590915C05868797878091A7
S1133AD04303825F1FC1393009F09DC080912A06DB
S1133AE0281709F01DC1109272024E3709F020C147
S1133AF082E080934303809149058D30F1F48091F5
S1133B004F05833109F016C1809117019091180176
S1133B109F938F938AE192E09F938F9380E295E045
S1133B209F938F930E94EC238DB79EB706960FB692
S1133B30F8949EBF0FBE8DBFFDC0893059F488E153
S1133B40AAE4B5E0EFEDF3E00D9001928A95E1F778
S1133B508AE0E3C08E3029F0843019F0853009F012
S1133B60E9C0E0916703F091680380913B0380838F
S1133B70E0916703F0916803809149058183E091A6
S1133B806703F09168038091DD039091DE038283E3
S1133B9093838091510590915205848395838091FC
S1133BA05305909154058683978380915505909190
S1133BB05605808791878091570590915805828793
S1133BC093878091590590915A05848795878091B0
S1133BD05B0590915C058687978780914303825F9C
S1133BE08093430380911701909118019F938F93C1
S1133BF081E392E09F938F9380E295E09F938F936C
S1133C000E94EC238DB79EB706960FB6F8949EBF1C
S1133C100FBE8DBF81C0313019F03A3009F08AC02F
S1133C208091D003281709F07BC0109272024E379E
S1133C3009F07EC082E080934303E0916703F09132
S1133C40680380913B038083E0916703F0916803EC
S1133C50809149058183809149058D3009F03FC0E9
S1133C60109281028FEF80933F0380914F05992733
S1133C709F938F9380911701909118019F938F9335
S1133C808BE492E09F938F9380E295E09F938F93D0
S1133C900E94EC238DB79EB708960FB6F8949EBF8A
S1133CA00FBE8DBF90914F05903F19F4109286027C
S1133CB016C0809151058A3029F4809152058A3AC0
S1133CC039F00AC08A3A41F4809152058A3021F4CD
S1133CD084E00E94A90503C09F5F90938602E0914F
S1133CE06703F091680380915005828320916703F4
S1133CF030916803809150059927AC0161E575E026
S1133D00C90103960E94DC238091430390915005DE
S1133D10890F8F5F8093430388E00E948F000AC05D
S1133D209927029733278217930724F44E3711F407
S1133D301092720280917302813610F01092720216
S1133D40FF91EF91BF91AF919F918F917F916F916F
S1133D505F914F913F912F910F900FBE0F901F9045
S1133D60189578941F920F920FB60F9211242F93E7
S1133D703F934F935F936F937F938F939F93AF93EF
S1133D80BF93EF93FF93809176029091770201960F
S1133D9090937702809376028036910520F01092FA
S1133DA077021092760280917402909175028036A7
S1133DB0910520F01092750210927402E09176023F
S1133DC0F09177028091740290917502E817F907D7
S1133DD031F0E559FC4F80810E94510702C01092D6
S1133DE07802FF91EF91BF91AF919F918F917F9155
S1133DF06F915F914F913F912F910F900FBE0F9054
S1133E001F90189578941F920F920FB60F92112459
S1133E102F933F934F935F936F937F938F939F93CE
S1133E20AF93BF93CF93EF93FF9387B78F7E87BFF3
S1133E3078948FB7F894C82F8091420690914306E6
S1133E40A0914406B09145060097A105B10509F07B
S1133E5053C080916302909164028430910541F1D2
S1133E608530910518F4039721F034C0079739F190
S1133E7031C080B3992776E0969587957A95E1F7D6
S1133E8080FF13C084E090E0909364028093630207
S1133E900E94AB01DC01CB0127E030E040E050E0C0
S1133EA0BC01CD010E94890815C00E94A70812C058
S1133EB00E94DE09882371F40E94730A0BC081E01A
S1133EC090E0909364028093630210926B028BE102
S1133ED00E948F008091690290916A02019771F4A7
S1133EE082E090E090936A0280936902DE98DE9A01
S1133EF080E00E94BB0902C00E94DB07CFBFFF9194
S1133F00EF91CF91BF91AF919F918F917F916F91DD
S1133F105F914F913F912F910F900FBE0F901F9083
S1133F20189578941F920F920FB60F9211240F9048
S1133F300FBE0F901F90189578941F920F920FB692
S1133F400F9211240F900FBE0F901F901895789424
S1133F501F920F920FB60F9211241F932F933F932A
S1133F604F935F936F937F938F939F93AF93BF937D
S1133F70CF93DF93EF93FF93CCB5DDB580E286BF9B
S1133F808FB7F894182F8091630290916402853062
S1133F90910519F0069739F157C080E00E94DE08B8
S1133FA082E00E94ED0987B78F7E87BF86E090E0AC
S1133FB09093640280936302E091F903F091FA0311
S1133FC08181992787709070019721F4C5A78D2F5F
S1133FD0992784A780B39927A4E096958795AA95F5
S1133FE0E1F780FD77C081E00E94DE08E091F903EB
S1133FF0F091FA03818185FF13C087E090E09093EC
S11340006402809363020E94AB01DC01CB0120E8CF
S113401030E040E050E0BC01CD010E9489080BC0B3
S113402081E090E0909364028093630210926B02AB
S11340308BE10E948F0080B39927F4E096958795D1
S1134040FA95E1F780FF46C080916202882351F51A
S11340500E94DE084091AA054830A0F480914005F2
S1134060840F912D911D9C01887F9370281BE22F52
S1134070FF27EE0FFF1FE655F94FC083D1834F5F33
S11340804093AA0581E080936202D0932406C093F2
S1134090230680B39927E4E096958795EA95E1F79E
S11340A080FD18C0809162028823A1F081E00E9403
S11340B0DE08109262028091230690912406C81BA8
S11340C0D90B2A9738F48091AA05882319F08150D6
S11340D08093AA051FBFFF91EF91DF91CF91BF910C
S11340E0AF919F918F917F916F915F914F913F918C
S11340F02F911F910F900FBE0F901F9018957894D9
S11341001F920F920FB60F9211242F933F938F9308
S11341109F938FB7F894282F332780916003909151
S11341206103019690936103809360032FBF9F9175
S11341308F913F912F910F900FBE0F901F90189564
S11341401F920F920FB60F921124EF92FF920F93CA
S11341501F932F933F934F935F936F937F938F930B
S11341609F93AF93BF93CF93DF93EF93FF938FB15D
S1134170282F3327E0913D03F0913E03309739F027
S11341808091690390916A03E80FF91F208380915D
S1134190690390916A03019690936A03809369037B
S11341A080E00E9430092091690330916A03809174
S11341B0AF059091B0052817390718F40E949E0A9C
S11341C035C1E0903D03F0903E0310923E031092FF
S11341D03D0310924804109247041092B0051092C7
S11341E0AF0510926A03109269038FB18091E005C4
S11341F09091E1052091E00586FFD3C02F7B822FAB
S113420099278E33910509F411C1CF9709F00EC196
S1134210C091AF02D091B00218818091CE039091E9
S1134220CF038230910521F0039709F444C0B4C050
S113423083E090E09093CF038093CE03412F5527E2
S11342409A012F5F3F4F60914003862F9927821771
S113425093077CF40E941D06C09AC09888E00E94CF
S1134260F10888E00E94F108C09A83E00E94ED09F9
S113427090C080E090E0B79B02C081E090E0892B81
S113428069F481B1992726E0969587952A95E1F7F7
S113429080FD04C0611B615060934003193220F417
S11342A0BE016F5F7F4F02C060E070E080E090E08D
S11342B00E940C0BBBC0C09A83E00E94ED09809160
S11342C0AA05882309F11B3028F180914005E82FC5
S11342D0FF27EE0FFF1FE655F94F808191818DA7CF
S11342E0892F99278CA780914005992701969C01D5
S11342F0287F3170821B930B809340058091AA051F
S113430081508093AA0506C08FEF9FEF8DA78FEF92
S113431090E08CA7FE01E10FF11D808187FF39C079
S1134320EF28B9F169816770E091AF02F091B002B2
S1134330623049F5A091F903B091FA03208180918C
S1134340630290916402079721F5ED019B818381BB
S11343508917F9F487B78F7E87BF81E08BA7E20FB7
S1134360F11D8291319688A780818F7789A781E09A
S113437090E0909364028093630210926B028BE14D
S11343800E948F0006C0613021F480E20E948F00F9
S11343904DC00E94530B4AC0C09A83E00E94ED09AD
S11343A045C02E3309F042C0C09A809163029091B7
S11343B06402089739F481E090E09093640280935A
S11343C0630234C080914504882349F484E090E07A
S11343D090936402809363020E94730A27C082E070
S11343E00E94ED0983E090E090936402809363025D
S11343F00E94C400DC01CB018F71907001969C0176
S1134400C3E0220F331FCA95E1F7280F391F280F85
S1134410391F7901002711270E94AB01DC01CB0170
S1134420A8019701BC01CD010E948908FF91EF9179
S1134430DF91CF91BF91AF919F918F917F916F91B8
S11344405F914F913F912F911F910F91FF90EF90AA
S11344500F900FBE0F901F901895A0E3B0E0E3E318
S1134460F2E20C945B29222E332E442E552E662E16
S1134470772E882E992E2A2D3B2DA8E0FE01319609
S1134480AA2E1192AA94E9F729823A824B825C827D
S11344906D827E828F829886FE013996BA2E1192A1
S11344A0BA94E9F729873A87CB86DC86ED86FE86BF
S11344B00F87188BFE0171961192AA95E9F7C980AE
S11344C0DA80EB80FC80C9A6DAA6EBA6FCA68701FD
S11344D076018FEF9FEFA0E0B0E0E822F9220A23F3
S11344E01B23A9A4BAA4CBA4DCA4160144245524F8
S11344F089859A85AB85BC858DA79EA7AFA7B8ABE8
S11345005C016D018FEF9FEFA0E0B0E0A822B9221B
S1134510CA22DB228DA59EA5AFA5B8A93D0188249A
S11345209924C801B701A60195010E94282969A30D
S11345307AA38BA39CA3C801B701A40193010E9491
S113454028296DA37EA38FA398A7C201B101A60158
S113455095010E9428297B018C01C201B101A401AB
S113456093010E9428299B01AC01A9A0BAA0CBA069
S1134570DCA0C601AA27BB27ADA0BEA0CFA0D8A4AB
S1134580A80EB91ECA1EDB1EAE0CBF1CC01ED11E57
S1134590ADA2BEA2CFA2D8A6AE14BF04C006D10657
S11345A020F4205030404F4F5F4FCDA0DEA0EFA04D
S11345B0F8A4C701AA27BB27820F931FA41FB51F06
S11345C08D8F9E8FAF8FB8A3A6013327222789A191
S11345D09AA1ABA1BCA1A070B070280F391F4A1FCB
S11345E05B1F298F3A8F4B8F5C8FA98CBA8CCB8C35
S11345F0DC8CED8CFE8C0F8D18A1ED8AFE8A0F8B5E
S1134600188F2D853E854F85588969A57AA58BA578
S11346109CA50E9428293B014C018D819E81AF817C
S1134620B885BC01CD012DA53EA54FA558A90E9472
S11346302829DC01CB01680E791E8A1E9B1E8D89F8
S11346409E89AF89B88D860D971DA81DB91D8D8BC8
S11346509E8BAF8BB88F6D897E898F89988D2A2D1B
S11346603B2D4C2D5D2DE2E1E0960C9477298F9241
S11346709F92AF92BF92CF92DF92EF92FF920F93ED
S1134680CF93DF93CDB7DEB768970FB6F894DEBF4C
S11346900FBECDBFE82E002349F4298B3A8B4B8BF8
S11346A05C8B6D8B7E8B8F8B988F6CC088E0FE014A
S11346B0319611928A95E9F729833A834B835C8377
S11346C06D837E83EF82988740E2401B14160CF0C2
S11346D041C08D819E81AF81B8856C017D0104C08C
S11346E0CC0CDD1CEE1CFF1C4A95D2F7202F33277F
S11346F027FD3095022E04C0B695A795979587950A
S11347000A94D2F78D879E87AF87B88B89819A8167
S1134710AB81BC8104C0B695A795979587952A95DA
S1134720D2F78C299D29AE29BF2989879A87AB871F
S1134730BC8729853A854B855C856D857E858F850B
S11347409889298B3A8B4B8B5C8B6D8B7E8B8F8BF3
S1134750988F18C01D861E861F86188A842F992755
S113476087FD909522273327281B390B8D819E8145
S1134770AF81B88504C0B695A795979587952A9576
S1134780D2F7D3CF29893A894B895C896D897E898F
S11347908F89988D68960FB6F894DEBF0FBECDBF93
S11347A0DF91CF910F91FF90EF90DF90CF90BF906A
S11347B0AF909F908F900895FB01DC0102C001909F
S11347C00D9241505040D8F70895DC0101C06D931B
S11347D041505040E0F708950F931F93CF93DF9318
S11347E0CDB7DEB72C970FB6F894DEBF0FBECDBFA2
S11347F00B891C892D893E8946E04C8309831A83E1
S11348008FEF9FE78D839E83AE01495E5F4FB901B1
S1134810CE0101960E941C24EF81F885E00FF11F60
S113482010822C960FB6F894DEBF0FBECDBFDF9179
S1134830CF911F910F9108952F923F924F925F92C3
S11348406F927F928F929F92AF92BF92CF92DF929C
S1134850EF92FF920F931F93CF93DF93CDB7DEB701
S113486062970FB6F894DEBF0FBECDBFEE24FF24CF
S113487087011C016D877E872A01CC24DD24FC017D
S1134880C682D782838181FD80C28FEF9FEF90C261
S11348908D859E8501968D879E87C0FE63C28F8518
S11348A080538A30D0F49F85903339F4662029F4FC
S11348B0C3FC03C0E0E0F1E093C08AE0689E602C92
S11348C01124FF856F0E20ED620E67FE02C0EFE734
S11348D06E2EC3FC5AC2762C58C2960173E03695EC
S11348E027957A95E1F720FF04C0662011F461E072
S11348F0662E4F85842F992787FD909588369105DC
S11349008CF5853691050CF06EC08335910509F45C
S113491093C084359105CCF48B32910509F449C0D8
S11349208C3291054CF48032910509F446C08332EF
S1134930910509F44AC010C28D32910509F440C0B2
S11349408E32910509F444C007C28336910509F4F7
S113495050C0843691050CF08AC08835910509F45D
S1134960BCC0FAC18037910509F4B1C08137910503
S113497084F48C36910591F18D3691052CF48936A9
S1134980910509F474C0E8C18F36910509F49CC0FF
S1134990E3C18537910509F4A2C08637910524F453
S11349A08337910571F1D8C18837910509F495C011
S11349B0D3C180E190E0C82AD92AE0E2F0E010C037
S11349C080E890E0C82AD92AE0C1E0E4F0E008C019
S11349D088E090E0C82AD92A6624D7C1E4E0F0E050
S11349E0CE2ADF2AD2C15FE3E52E7A94F3E6FF876D
S11349F044C1F20182E090E0480E591EE0807A94AE
S1134A003CC1F20182E090E0480E591EA081B181C0
S1134A107D0120FF09C0862D992787FD9095BC0153
S1134A20CD010E942D271FC0FD0101900020E9F750
S1134A303197EA1BE88B18C0F20182E090E0480E3F
S1134A40591E0190F081E02D7F0120FF09C0862DC1
S1134A50992787FD9095BC01CF010E94382703C098
S1134A60CF010E942427888B9889791A06C1C2FE37
S1134A700AC0F20184E090E0480E591E2081318181
S1134A80428153810CC0F20182E090E0480E591E2D
S1134A90808191819C01442737FD4095542F7901F1
S1134AA08A0157FF0CC0E2E0F0E0CE2ADF2A10951D
S1134AB00095F094E094E11CF11C011D111D8FEB95
S1134AC09FEFC822D92227C098E0988B08C0E0E461
S1134AD0F0E0CE2ADF2AF8E7FF8720E1288BC2FE28
S1134AE00AC0F20184E090E0480E591E2081318111
S1134AF0428153810AC0F20182E090E0480E591EBF
S1134B00808191819C014427552779018A01EFEC2A
S1134B10FFEFCE22DF22CE010196898B9A8B9889F2
S1134B20892E9924AA24BB24C801B701A5019401A4
S1134B300E940629DC01CB01E989FA8980838A3045
S1134B4024F0FF858F0F815201C0805DE989FA89C5
S1134B508193E98BFA8BC801B701A50194010E94E6
S1134B60062979018A012115310541055105E1F62E
S1134B70E98881E090E08C0F9D1FE81AC6018273DA
S1134B809070892B09F07A94C6FE0DC0872D992761
S1134B9087FD9095E889E03121F44EEF742E780E6C
S1134BA002C0782E7A94C3FE0FC0262D332727FD2A
S1134BB030958E2D9927821793072CF087EF9FEF5E
S1134BC0C822D92201C06E18560133E0B694A794C6
S1134BD03A95E1F7A0FE02C0761801C07E18C6011E
S1134BE080789170892B51F4872D7A94181634F4B7
S1134BF0B10180E290E00E94F126F6CFC1FE04C02C
S1134C00B1018DE290E00BC0C4FE04C0B1018BE29F
S1134C1090E005C0C5FE05C0B10180E290E00E94AD
S1134C20F126C6FE10C0B10180E390E00E94F12697
S1134C309889903141F4B101EF858E2F992787FD32
S1134C4090950E94F1268D2D992780FF0AC0872D0B
S1134C507A94181634F4B10180E390E00E94F126AE
S1134C60F6CFA0FE0AC0862D6A94181634F4B1015A
S1134C7080E390E00E94F126F6CF5601AA0CAB2CFB
S1134C80AA1CBB08B194A0FC0AC0872D7A941816FC
S1134C9034F4B10180E290E00E94F126F6CFFF8562
S1134CA0F33641F48E2DB101992787FD90950E942A
S1134CB0F12646C02F852337B9F448894150488BE3
S1134CC04F3F09F43DC0F70180810894E11CF11CB9
S1134CD0B101992787FD90950E94F126888981501A
S1134CE0888B8F3F81F72CC09F859335A1F4E88989
S1134CF0E150E88BEF3F21F1F7018491B10199274D
S1134D000E94F1260894E11CF11CF889F150F88BFB
S1134D10FF3F91F715C06E010894C11CD11C89890D
S1134D209A898C159D0561F0E989FA898291E98B4C
S1134D30FA8BB101992787FD90950E94F126EFCF58
S1134D40A0FE0DC0872D7A9418164CF4B10180E2B0
S1134D5090E00E94F126F6CFB1010E94F126CC2406
S1134D60DD2413C09F85953241F481E0C82ED12CF7
S1134D706624762CEAE0E88B08C0B101FF858F2F0A
S1134D80992787FD90950E94F126F101838183FF85
S1134D9004C0ED85FE85F49103C0ED85FE85F081A8
S1134DA0FF872F85222309F073CDF1018681978136
S1134DB062960FB6F894DEBF0FBECDBFDF91CF91E0
S1134DC01F910F91FF90EF90DF90CF90BF90AF9025
S1134DD09F908F907F906F905F904F903F902F9017
S1134DE008950F931F93CF93DF938C01EB018B8175
S1134DF0992781FF22C082FF14C02E813F818C81BC
S1134E009D81281739073CF4E881F9810193E883EF
S1134E10F9832E813F812F5F3F4F2E833F83C8014B
S1134E200EC0E885F985802F0995892B31F4AE8170
S1134E30BF811196AE83BF83F2CF8FEF9FEFDF91D7
S1134E40CF911F910F910895FC0105900020E9F77F
S1134E50809590958E0F9F1F0895FC0161507040BE
S1134E6001900110D8F7809590958E0F9F1F08959B
S1134E70FC016150704005900110D8F78095909521
S1134E808E0F9F1F08955058192EF7D001D0DAC005
S1134E90BA176207730784079507B1F188F40EF413
S1134EA010940B2EBA2FA02D062E622F202D072E24
S1134EB0732F302D082E842F402D092E952F502D21
S1134EC0FF275523B9F0591B49F0573E98F04695F2
S1134ED037952795A795F0405395C9F776F0BA0F03
S1134EE0621F731F841F30F4879577956795B79574
S1134EF0F040939517FA0F2E0895BF1BBB27BA0BEA
S1134F00620B730B840BF6CFDEF6D4C0592F482FF7
S1134F10372F262F9FE380E877276627AED001D06E
S1134F2091C0552359F0992369F09F575F57951BFA
S1134F3033F442F4903811F4915805C09BC0915851
S1134F409F3F09F4B7C0BB27112462177307840776
S1134F5030F4660F771F881FBB1F915098F311D050
S1134F600F920FD00F920DD0A0E8261737074807ED
S1134F701B0609F0A048BA2F602D7F918F91002461
S1134F800895A0E80024621773078407B10528F088
S1134F90621B730B840BB1090A2A660F771F881FE3
S1134FA0BB1FA69581F7089597FB73D09F3738F000
S1134FB0FEE9F91B982F872F762F6B2F05C077C03A
S1134FC09695879577956795F150D0F73EF490952F
S1134FD08095709561957F4F8F4F9F4F0895E8940A
S1134FE003C097FB0EF4F3DFB62F672F782F892FBA
S1134FF09EE9002427C00ED05EF004C00BD026F03A
S113500001C008D019F020F48FEF089580E00895CE
S113501081E0089597FB092E052600F8689430D0A6
S1135020E89407FC07C0621773078407950721F00B
S113503008F400940794989408959A95BB0F661FFA
S1135040771F881F11249923A1F08823B2F79F3F6B
S113505059F0BB0F48F421F4002011F460FF04C0A0
S11350606F5F7F4F8F4F9F4F881F9795879597F955
S113507008951DC09FEF80EC0895052E092607FAB8
S1135080440F551F5F3F79F0AA27A51708F051E098
S11350904795880F991F9F3F31F0BB27B91708F038
S11350A091E0879508959F919F911124E3CF6627FE
S11350B07727882799270895592F482F372F262F88
S11350C0DCDF01D0BFCF992339F0552329F09F5756
S11350D05F57950F13F4CAF1EDCF91589F3FE1F359
S11350E0A62F00241124BB2766275527F8E0A69590
S11350F020F4020E131EB41F651F220F331F441F1A
S1135100551FFA95A1F7F8E0E72F7727F8E0E69521
S113511020F4130EB41F651F7A1F330F441F551F4D
S1135120AA1FFA95A1F7F82F8827F69520F4B40F53
S1135130651F7A1F8E1F440F551FAA1FEE1FFF23E2
S1135140A1F788231AF4939539F494CF000C111C19
S1135150BB1F661F771F881F0128089597FD8ACFFC
S1135160482F9923F9F195DFF92FFF57F5959F1BE8
S11351709F1BFF93405847953327222740685FE7DA
S1135180E894FF92EF92DF92CF92BF92AF929F92F8
S11351908F92C92ED82EE72EF62E6F2D7E2D8D2DB3
S11351A09C2D852E942EA32EB22EBBDE582D492D78
S11351B03A2D2B2D11246CDE9A95592F482F372F19
S11351C0262FB216A3069406850639F78F909F9072
S11351D0AF90BF90CF90DF90EF90FF900F90900D25
S11351E0002430CF089597FB092E07260AD077FDB7
S11351F004D04DD006D000201AF4709561957F4FED
S11352000895F6F7909581959F4F0895A1E21A2E7F
S1135210AA1BBB1BFD010DC0AA1FBB1FEE1FFF1F56
S1135220A217B307E407F50720F0A21BB30BE40BA6
S1135230F50B661F771F881F991F1A9469F76095ED
S11352407095809590959B01AC01BD01CF010895A7
S1135250629FD001739FF001829FE00DF11D649F56
S1135260E00DF11D929FF00D839FF00D749FF00DE2
S1135270659FF00D9927729FB00DE11DF91F639F83
S1135280B00DE11DF91FBD01CF0111240895AA1B22
S1135290BB1B51E107C0AA1FBB1FA617B70710F01D
S11352A0A61BB70B881F991F5A95A9F7809590954F
S11352B0BC01CD0108952F923F924F925F926F925D
S11352C07F928F929F92AF92BF92CF92DF92EF9292
S11352D0FF920F931F93CF93DF93CDB7DEB7CA1B13
S11352E0DB0B0FB6F894DEBF0FBECDBF09942A883E
S11352F0398848885F846E847D848C849B84AA84E6
S1135300B984C884DF80EE80FD800C811B81AA8172
S1135310B981CE0FD11D0FB6F894DEBF0FBECDBF3D
S1075320ED010895FA
S11353240100FFFFFFFF22001A010304FFFF01FF36
S1135334FFFFFFFFFFFFFF010054454D50200048CD
S1135344554D494400555265642000257320415647
S1135354472053744465762000253464202534643E
S11353642025366400256420433332385F52657344
S113537465745F54696D65723A25640D0A00256489
S1135384206D79417070547970653A25582C206DDC
S1135394794F7074547970653A25580D0A00544C49
S11353A443442053573A25640D0A00256420676555
S11353B47453466972655F423A25640D0A00256494
S11353C42067657453466972655F4C3A25582C20EE
S11353D45365713A25640D0A002564206765745386
S11353E4466972655F533A25640D0A0025642052A8
S11353F42D476574532D434D445B25645D0D0A00AC
S1135404256420522D53432D434D442121205B25F3
S1135414642C2025642C2025645D0D0A0025642059
S1135424522D4F432D434D442121205B25642C20D0
S113543425642C2025645D0D0A00256420726563AF
S11354447620535542434D44315F4641494C0D0A3D
S113545400256420726563762070617273696E67D7
S11354645F636F6E74726F6C0D0A00256420706143
S11354747273696E675F6C6F6E6744543A25640D8A
S10554840A0018
S9030000FC
