S01900006275696C642F7A69676265782F6D61696E2E737265636F
S11300000C946C000C94AF1C0C94B91C0C94E11C63
S11300100C94EB1C0C94F51C0C94FF1C0C94091D03
S11300200C94391D0C9489000C9489000C94F520CF
S11300300C944F200C94DF200C94CD210C942D1C97
S11300400C946D1C0C94EE210C94A81D0C94890046
S11300500C94B61D0C94431D0C9489000C948900D7
S11300600C94EA200C9489000C9489000C94890067
S11300700C9489000C9489000C94071E0C9489003C
S11300800C94FE1F0C9489000C9489008411DD11DA
S11300906F13A113F613121429144714C214D314A2
S11300A017153A15521A4715D415A816E6161A1735
S11300B02C173E17A817AF17B517E6174B187A1861
S11300C09D18B818BD18BF18C718CE18E718F61829
S11300D0B41900081C18141011241FBECFEFD0E16E
S11300E0DEBFCDBF12E0A0E0B1E0E0ECF5E500E05A
S11300F00BBF02C007900D92A236B107D9F717E0E3
S1130100A2E6B2E001C01D92A133B107E1F70C945D
S1130110951A0C9400008FB7F894992708958FBF0F
S11301200895982F8FB7F894282FE92FFF27EE53BF
S1130130F94F80818F3FB1F48091E806891791F0DF
S11301408091BB068F3F19F49093BB0607C0809142
S1130150E806E82FFF27EE53F94F90839093E806C3
S113016080E001C085E02FBF99270895EF920F9397
S11301701F93AE2D99E0899FF0011124EF54FD4F98
S11301804083518362837383048315832683378377
S1130190A17080858E7F8A2B8260808783E00E9495
S11301A091001F910F91EF900895CF93DF938FB734
S11301B0F894682F7727A091B405B091B505C09144
S11301C0B605D091B70582B706B600FE04C01196F5
S11301D0C11DD11D82B7282F3327442755278827CF
S11301E09A2FAB2FBC2F822B932BA42BB52B6FBF35
S11301F0BC01CD01DF91CF910895AF92BF92CF9210
S1130200DF92EF92FF920F931F93F82E5A016B0126
S11302100E94D500DC01CB0121E0E22E960185018C
S1130220AC01BD018F2D0E94B6001F910F91FF906C
S1130230EF90DF90CF90BF90AF900895882311F096
S11302406E9A08956E98089580916502882319F432
S113025080E090E0089581E090E008952F923F922D
S11302604F925F926F927F928F929F92AF92BF92C2
S1130270CF92DF92EF92FF920F931F93CF93DF936E
S1130280CDB7DEB72A970FB6F894DEBF0FBECDBF49
S11302908FB7F894282F332729873A87209043046F
S11302A030904404409045045090460466245EE433
S11302B0A52E43E8B42EC62CD62CE62CF62C062DFF
S11302C0162D222D332D442D552D662D762D862D5C
S11302D0962D0E947B2329833A834B835C836D8311
S11302E07E838F839887822E932EA42EB52EC62EBE
S11302F0D72EE82EF92E240135017694679457946D
S1130300479400E2282D392D4A2D5B2D6C2D7D2D2F
S11303108E2D9F2D0E948524A22EB32EC42ED52E61
S1130320C601B501640D751D861D971D97FF05C097
S11303309F776F5F7F4F8F4F9F4F609343047093FE
S11303404404809345049093460439853FBF2A961C
S11303500FB6F894DEBF0FBECDBFDF91CF911F91D2
S11303600F91FF90EF90DF90CF90BF90AF909F9050
S11303708F907F906F905F904F903F902F90089553
S1130380FC01828599270895DC01FB01672B19F094
S11303908C918C508083CD010B9608958FB7F8947F
S11303A0682F77278091CA039091CB032CB53DB574
S11303B006B602FE03C001962CB53DB5AA27BB279D
S11303C044275527DC0199278827822B932BA42BBC
S11303D0B52B6FBFBC01CD010895282F8695869556
S11303E08695E82FFF27E053FC4F277081E090E0CB
S11303F002C0880F991F2A95E2F720812823822FB3
S113040099270895FF920F931F93CF93DF93082F9B
S11304108FB7F894F82E80917902833009F054C094
S113042080910A01801709F04FC08091D00388237E
S113043009F03EC081E090E0892BE9F510917A0241
S1130440C12FDD272196C330D10511F4C0E0D0E0DF
S11304508C2F0E94ED01882381F4812F9927C817DE
S1130460D90781F78FEF90E08093430581E0809373
S1130470790286E10E94910024C08C2F869586958E
S11304808695E82FFF27E053FC4F2C2F277081E03F
S113049090E002C0880F991F2A95E2F7982F909553
S11304A0808189238083C0937A028C2F9927DCCFA3
S11304B080E090E0C1CF83E080930A01109279023A
S11304C03798002309F4C698FFBE81E090E0DF91DD
S11304D0CF911F910F91FF9008951F93CF93DF93B6
S11304E0C82F8FB7F894282F3327122F80917902C1
S11304F0882301F18C2F0E94ED018823B1F48C2F05
S1130500869586958695E82FFF27E053FC4FC770A4
S113051081E090E002C0880F991FCA95E2F720811C
S1130520282B208380E090E002C085E090E01FBF8C
S1130530992719C081E080937902C09343052FBFA6
S11305408FB7F8949927379A8FBF8FB7F894C82F2D
S1130550DD2780910A01833019F486E10E9491001D
S1130560CFBF80E090E0DF91CF911F91089520915B
S11305702506822F99278130910559F08230910503
S11305801CF4009731F004C0029711F481E001C01B
S11305908FE1582F822F99278130910541F08230C5
S11305A091051CF4892B19F004C0029711F428E07A
S11305B001C020E033278FB7F894E82F8091E50637
S11305C08E7F8093E506322F27B160E070E0922F92
S11305D0929596959695937080E0891749F4852FA6
S11305E08850863118F42F71521711F461E070E0CD
S11305F0862F880F2091E5062D7F282B852F8F715C
S1130600982F990F990F2378292B2093E506806260
S1130610992787B9406C21702295220F207E4F7D47
S1130620422B4861383059F58091B9059091BA054B
S113063021E08638920718F087E090E01FC0833CE1
S1130640910518F086E090E019C08136910518F004
S113065085E090E013C08033910518F084E090E0C9
S11306600DC08831910518F083E090E007C00C9725
S113067018F082E090E002C080E090E0382F3770FC
S1130680487F432B842F992786B9EFBF0895AF92F3
S1130690BF92CF92DF92EF920F931F935B016C0195
S11306A00E94D500DC01CB01E1E0EE2E960185012C
S11306B0AC01BD018BE00E94B6001F910F91EF9039
S11306C0DF90CF90BF90AF90089580E00E946D02BC
S11306D09927089597E087FF02C0919A01C09198E5
S11306E0880F909A9098915097FFF5CF0895982F7E
S11306F08FB7F894282F89B78D7F89BF82E088BF90
S113070080916A00886080936A00992321F0809127
S11307106A00846003C080916A008B7F80936A00C2
S113072089B7826089BF2FBF80E090E008952F923F
S11307303F924F925F926F927F928F929F92AF926D
S1130740BF92CF92DF92EF92FF920F931F938B0190
S1130750882309F0DDC08FB7F89499277093220697
S1130760609321068FBFE090AB03F090AC03CB0104
S1130770AA2797FDA095BA2FBC01CD010E943F295D
S11307803B014C0117FF08C020E030E040E857E48B
S11307900E9492283B014C01C701AA2797FDA0950E
S11307A0BA2FBC01CD010E943F29F7FE06C020E00C
S11307B030E040E857E40E9492282AE037ED43E213
S11307C05CE30E94AE29DC01CB0120E030E040E292
S11307D052E4BC01CD010E9491281B012C0122EAA4
S11307E037EE4BE356EBC401B3010E94AE29DC01A2
S11307F0CB01A4019301BC01CD010E94AE297B0170
S11308008C0124E533EE45E25DE3C401B3010E94AB
S1130810AE29DC01CB019C01AD01C801B7010E94E6
S11308209228DC01CB0120E030E040E850ECBC0130
S1130830CD010E9492285B016C0120E030E048EC7D
S113084051E4C201B1010E9491287B018C012CEA80
S113085035EC47EA58E3C401B3010E94AE29DC0138
S1130860CB012AE037ED43E25CE3BC01CD010E94F9
S11308709228DC01CB019C01AD01C801B7010E94A3
S1130880AE29DC01CB01A6019501BC01CD010E947A
S113089092287B018C0120E030E048EC52E40E9475
S11308A04C29181654F40F2EF0E0EF2EF0E0FF2E32
S11308B0F8EC0F2FF2E41F2FF02D2DEC3CEC4CEC58
S11308C05DE3C801B7010E944929882354F40F2E1F
S11308D0FDECEF2EFCECFF2EFCEC0F2FFDE31F2FA5
S11308E0F02DC201B1010E942229DC01CB019093B9
S11308F0BC058093BB05C801B7010E942229DC0115
S1130900CB019093AF038093AE0382E00E946D020B
S11309101F910F91FF90EF90DF90CF90BF90AF9019
S11309209F908F907F906F905F904F903F902F900B
S11309300895982F8FB7F894282F3327422F80914A
S11309407D02882301F1E92FFF27E151F94F8081CE
S11309508F3FA1F4E0910C01E91781F080910D0122
S11309608F3F19F490930D0104C0FF27E151F94F13
S1130970908390930C0180E090E002C085E090E0C9
S11309804FBF9927089541E040937D029093C3049B
S11309902FBF80917C02882321F484E10E9491007E
S11309A002C040937B0280E090E00895882359F4CC
S11309B08FB7F89499277093AC036093AB038FBF00
S11309C083E00E949904089530E0232F909A80B325
S11309D099279695879580FD3160273009F0330F6C
S11309E090982F5F283090F3899A9198909A9098D4
S11309F08998919A832F99270895899A919A909A20
S1130A0090980895AF92BF92CF92DF92EF92FF92A7
S1130A100F931F93F82E5A016B010E94D500DC013D
S1130A20CB01EE2496018501AC01BD018F2D0E94FE
S1130A30B6001F910F91FF90EF90DF90CF90BF9081
S1130A40AF90089590919606980F9093A8039F3FB6
S1130A5011F41092A8030895AF92BF92CF92DF923F
S1130A60EF920F931F935B016C010E94D500DC0190
S1130A70CB0111E0E12E96018501AC01BD0185E0B9
S1130A800E94B6001F910F91EF90DF90CF90BF901E
S1130A90AF9008958FB7F894282F33278BB392E043
S1130AA089278BBB2FBF0895AF92BF92CF92DF925D
S1130AB0EF920F931F935B016C010E94D500DC0140
S1130AC0CB0101E0E02E96018501AC01BD0184E07B
S1130AD00E94B6001F910F91EF90DF90CF90BF90CE
S1130AE0AF900895AF92BF92CF92DF92EF920F939F
S1130AF01F935B016C010E94D500DC01CB0121E056
S1130B00E22E96018501AC01BD0186E00E94B6008B
S1130B101F910F91EF90DF90CF90BF90AF90089509
S1130B20AF92BF92CF92DF92EF920F931F935B012C
S1130B306C010E94D500DC01CB0131E0E32E96016B
S1130B408501AC01BD0180E00E94B6001F910F91A8
S1130B50EF90DF90CF90BF90AF900895CF93982FF0
S1130B608FB7F894C82F80917D028330A1F58091CE
S1130B700B01891781F520E030E080910D018F3F52
S1130B8011F421E030E0232BD9F48F3F81F0282F9A
S1130B903327F901E151F94F808180930D018F3F93
S1130BA011F480930C018FEF8083C90102C08FEF91
S1130BB090E08093C30481E080937D0283E109C0C7
S1130BC084E080930B0110927D0281E080937C028B
S1130BD085E10E949100CFBF81E090E0CF9108951C
S1130BE080E88093AA0310921E061092B305109217
S1130BF0EB060895889F9001899F300D989F300DD2
S1130C001124C9019C0144275527DA01C9018C59D3
S1130C109F4FAF4FBF4F895E9340A040B04018F044
S1130C2084E690E0089588EE93E0821B930B089588
S1130C302091A3032223B9F4282F3327211531054A
S1130C4011F421E030E084E08093B404C9010E94EF
S1130C50FA058093CC039927AA27BB27BC01CD01B1
S1130C600E94720508952130B9F4282F33272115E5
S1130C70310511F421E030E084E08093B504C9012A
S1130C800E94FA058093CD039927AA27BB27BC01AC
S1130C90CD010E94540508952230B1F4282F332742
S1130CA02115310511F421E030E084E08093B6048D
S1130CB0C9010E94FA058093CE039927AA27BB276E
S1130CC0BC01CD010E942C050895AF92BF92CF9232
S1130CD0DF92EF92FF920F931F93CF93DF930E94C3
S1130CE0D500FC01EB012091B0043091B104409196
S1130CF0B2045091B3047B018C01E21AF30A040B91
S1130D00150B1092B8048091470490914804A09167
S1130D104904B0914A04E816F9060A071B07C0F013
S1130D20EE24FF248701280F391F4A1F5B1F2093DD
S1130D30B0043093B1044093B2045093B304E092EE
S1130D404704F09248040093490410934A0463C092
S1130D505C016D01AE18BF08C00AD10A8601750195
S1130D6061E0A61661E0B60660E0C60660E0D6065D
S1130D7090F080E0A81680E0B80681E0C80680E024
S1130D80D80610F08FEF04C0BB27AD2D9C2D8B2D02
S1130D908093B80458C061E8A616B104C104D10414
S1130DA030F1C058DF4FEF4FFF4FC093B004D093E2
S1130DB0B104E093B204F093B304C058D040E040CF
S1130DC0F04080E89FEFAFEFBFEFE80EF91E0A1F77
S1130DD01B1FE0924704F0924804009349041093C7
S1130DE04A0440E8E42EF12C012D112D14C0280FE3
S1130DF0391F4A1F5B1F2093B0043093B104409302
S1130E00B2045093B3041092470410924804109211
S1130E10490410924A046E2D82B7282F8C1B8E5FD2
S1130E208E1518F0622F6E5F01C06C0F662309F4F3
S1130E3061E0615000B601FCFDCF61BF82E086BF76
S1130E4087B7826087BFDF91CF911F910F91FF9089
S1130E50EF90DF90CF90BF90AF9008950F931F93C2
S1130E60DC01CB016FB7F894062F11278093B004EF
S1130E709093B104A093B204B093B30420934704B5
S1130E80309348044093490450934A040E946506F1
S1130E900FBF1F910F910895282F8FB7F8949927AA
S1130EA02CB95E9A8FBF08959C0180916F02909136
S1130EB070028F37910520F01092700210926F0229
S1130EC06623E1F0D90180916D0290916E028F3713
S1130ED0910520F010926E0210926D0280916D02C5
S1130EE090916E02FC01EC53FB4F2D9120830196EF
S1130EF090936E0280936D02615029F78091710284
S1130F00882361F481E080937102E0916F02F09193
S1130F107002EC53FB4F80810E944C070895982F78
S1130F208FB7F894282F332790939C0080919B00CF
S1130F30806480939B002FBF08959C01809176026A
S1130F40909177028036910520F0109277021092EA
S1130F5076026623E1F0D9018091740290917502C2
S1130F608036910520F010927502109274028091DF
S1130F70740290917502FC01E352FC4F2D91208381
S1130F8001969093750280937402615029F78091C1
S1130F907802882361F481E080937802E0917602FC
S1130FA0F0917702E352FC4F80810E948F070895ED
S1130FB0CF93DF93D9019EE79093B2039093C90333
S1130FC029E030E03093B4032093B303992790933E
S1130FD0B6038093B5036093B7034093B803E9EB7A
S1130FE0F3E080E1EF010D9009928A95E1F73797DC
S1130FF060919E06CF010E949D07DF91CF910895D5
S11310009EE79093B2039093C90322E030E03093BB
S1131010B4032093B30399279093B6038093B50345
S11310201092B70360919E0682EB93E00E949D07A5
S11310300895AF92BF92CF92DF92EF92FF920F93F7
S11310401F93CF93DF930E94CE01FC01EB018091AB
S11310504B0490914C04A0914D04B0914E04A09087
S1131060B606B090B706C090B806D090B9069C01F9
S1131070AD012A0D3B1D4C1D5D1D79018A01EC1A41
S1131080FD0A0E0B1F0BC817D907EA07FB0730F040
S1131090281739074A075B0770F005C02817390776
S11310A04A075B0728F4C217D307E407F50718F0CB
S11310B0EE24FF24870121E0E21620E8F20620E076
S11310C0020720E0120730F1C050D048EF4FFF4F25
S11310D0C0934B04D0934C04E0934D04F0934E041E
S11310E0C050D048E040F04080E090E8AFEFBFEF60
S11310F0E80EF91E0A1F1B1FE092B606F092B7060F
S11311000093B8061093B906E12C60E8F62E012D81
S1131110112D14C08A0D9B1DAC1DBD1D80934B0465
S113112090934C04A0934D04B0934E041092B606D1
S11311301092B7061092B8061092B906B7012CB5F2
S11311403DB5C9018C1B9D0B03968E159F0520F0A0
S1131150B9016D5F7F4F02C06C0F7D1F6115710572
S113116011F461E070E0615070407BBD6ABD80E1C4
S113117086BF87B7806187BFDF91CF911F910F91A1
S1131180FF90EF90DF90CF90BF90AF9008950F93B2
S11311901F93DC01CB016FB7F894062F11278093BE
S11311A04B0490934C04A0934D04B0934E042093AD
S11311B0B6063093B7064093B8065093B9060E941A
S11311C019080FBF1F910F910895EF92FF920F938B
S11311D01F93CF938FB7F894C82F0E942E01DC0180
S11311E0CB019C01277030702F5F3F4FC1F0C901C4
S11311F073E0880F991F7A95E1F7820F931F820F8E
S1131200931F7C01002711270E94CE01DC01CB0132
S1131210A8019701BC01CD010E94C70806C081E066
S113122090E09093640280936302CFBFCF911F91AB
S11312300F91FF90EF90089597B79F7D97BF90E22D
S113124096BF882319F08EB5806402C08EB58F7B5B
S11312508EBD87B7806287BF80E090E008958FB924
S1131260779BFECF8FB1992708950F931F938B011E
S11312700E942F09812F99270E942F09802F0E94F5
S11312802F0999271F910F910895DF92EF92FF92F2
S11312900F931F93CF937A01C22FDD248C01060F85
S11312A0111D802F80680E942F0916950795802FA5
S11312B0807C0E942F09CC2341F0F70181917F01AA
S11312C00E942F09D82EC150F6CF8D2D9927CF918A
S11312D01F910F91FF90EF90DF900895882311F0F4
S11312E06F9A08956F9808951F9310E0812F0E94BC
S11312F01E01BA9ABB98B99AB89A6C9AC098812F71
S11313000E946E09709A6B986A98689881E00E94AE
S11313101E011F9108950F931F93CF93082F8FB72A
S1131320F894282F3327122F80916702882321F005
S11313302FBF85E090E021C090916502992341F48C
S113134082E0809365029093020180E090E002C005
S113135081E090E09927C82F882311F40E94740932
S11313608C2F9927282F882329F40093050181E0E5
S1131370809367021FBF822F9927CF911F910F91EE
S11313800895CF93C82F0E942401882311F40E944A
S1131390740980916502882359F481E08093650281
S11313A0C093200681E20E94910080E090E01EC07C
S11313B0EC2FFF27EB55FC4F80818F3FA1F4E09188
S11313C00301EC1781F0809104018F3F19F4C0935D
S11313D0040104C0FF27EB55FC4FC083C0930301F5
S11313E080E090E002C085E090E099279927CF91B2
S11313F00895CF93282F8FB7F894C82F9091670240
S1131400992369F081E090E002C0880F991F2A9522
S1131410E2F720916602282B2093660208C02093ED
S1131420050181E080936702892F0E94C109CFBF23
S113143080E090E0CF910895CF9382E00E948B09E1
S11314409927C82F882319F082E00E94F9098C2F6C
S11314509927CF9108951F93CF93DF93982F8FB738
S1131460F894282F3327122F80910501891721F032
S11314702FBF81E090E071C04FEF40930501809150
S11314806502823009F03FC0909102019923D9F599
S113149020E030E080910401841711F421E030E071
S11314A0232B69F58F3F79F0282F3327F901EB556A
S11314B0FC4F8081809304018F3F11F4409303011A
S11314C04083C90102C08FEF90E08093200681E041
S11314D08093650281E20E94910015C0209305016A
S11314E081E090E002C0880F991F4A95E2F7809549
S11314F038233093660280E00E94C1092BC04093D8
S11315000201909365020E942401C82FDD27CC2399
S113151031F48C2F0E941E01C093E906C09A3091C9
S113152066023323A9F0209105012F5F632F7727EB
S1131530243008F020E0422F5527CB01042E02C0AE
S1131540959587950A94E2F780FDC8CF2F5FF0CF79
S1131550109267021FBF80E090E0DF91CF911F914E
S11315600895CF93C1E0C0988091B704882311F007
S113157085E001C084E00E942F0983FD05C080E05E
S11315800E942F0983FDC0E08FB7F894CC2319F093
S113159023E030E002C025E030E030936402209381
S11315A063028FBFC09ACC2329F082E00E942B0AE9
S11315B00E94E508CF9108958F929F92AF92BF92B7
S11315C0CF92DF92EF92FF920F931F93CF93DF930B
S11315D08FB7F894C090B904D090BA048090A60351
S11315E09090A703C091D303D091D403AE01465F7A
S11315F05F4F20912306309124062417350708F005
S11316009A018FBF59010894A108B108CA15DB05D6
S1131610E8F47E01E80CF91C8E010C0D1D1DC114AB
S1131620D10419F0F801808101C080E00E942F09E3
S11316308114910411F0F701808321960F5F1F4FED
S11316400894E11CF11CCA15DB0548F381E00E94F3
S11316506E098FB7F894982FC114D10431F0CC0ED1
S1131660DD1EF60180818FB901C01FB8D093D40369
S1131670C093D3039FBF80E090E0DF91CF911F918F
S11316800F91FF90EF90DF90CF90BF90AF909F901D
S11316908F9008959C018FB7F89499273093BA04DA
S11316A02093B9047093A7036093A6035093240670
S11316B0409323061092D4031092D3038FBF8FB1AB
S11316C00E94DC0A992708950F931F93C0980091F4
S11316D0AF021091B0028FE790E09093550680938B
S11316E05406809154060E942F0941E050E0B8014D
S11316F080E090E00E944A0B1F910F91089582E0D0
S113170090E0909341048093400483E00E948B090D
S1131710882319F40E94640B089583E00E94F90958
S11317200895CF938FB7F894282F3327C22F809131
S1131730400490914104892B11F42FBF26C02091BD
S1131740EB06222341F080E090E0B79B02C081E0E9
S113175090E0892B49F481B19927A6E09695879565
S1131760AA95E1F780FD08C0222319F021502093A7
S1131770EB060E947F0B08C081E090E09093410447
S1131780809340041092EB06CFBFCF9108951F932E
S1131790CF93DF93C0916B04D0916C048FA19927F0
S11317A0182F882309F41FE1C0988091BA06811785
S11317B041F0812F9927806E9068BC0185E10E94D9
S11317C035091093BA06188111508EE390E0909376
S11317D0550680935406809154060E942F09812F48
S11317E09927AC0160E070E0CE010E944A0BDF91C2
S11317F0CF911F910895CF93DF93DA01EA018A878D
S11318006E83872F99278F8382E290E08C8360E038
S113181070E06D83245F8FB7F894482F552780912B
S11318206C02833021F04FBF81E090E059C085E025
S113183080936C02B093E706A093E6068091990624
S11318408F5F80939906FD0183834FBF2193ED0140
S113185089819927807290708983892F9927818340
S11318609927982F882729813327822B932B8164EA
S113187098688983892F99278183809100019091A9
S113188001018887892F992789876BA768A769A78A
S11318901DA66CA74091E6065091E7068FB7F89411
S11318A0282F33278091630290916402019711F0ED
S11318B02FBF14C082E090E090936402809363028F
S11318C081E08093B70450936C0440936B042FBF62
S11318D00E941C0A882311F40E94C70B80E090E048
S11318E09927DF91CF9108958998919A909A80B31E
S11318F099279695879580FF03C081E090E008952D
S1131900909880E090E00895AF92BF92CF92DF92DA
S1131910EF920F931F935B016C010E94D500DC01D1
S1131920CB0171E0E72E96018501AC01BD018CE08D
S11319300E94B6001F910F91EF90DF90CF90BF905F
S1131940AF9008951F93889A90988998919A89B72F
S11319508D7F89BF899A919A909888E0909A9098FF
S1131960815087FFFBCF899A919A9098909A919889
S11319709098909A919A90988091ED069091EE06A5
S11319808F7190709093EE068093ED068091ED0632
S11319900E946A030E94740C882329F0109280022A
S11319A081E090E048C02091ED063091EE062630AB
S11319B0310561F12730310538F42330310579F0F0
S11319C02530310561F035C02730310599F02E31CD
S11319D0310579F56BE070E080E090E008C089980B
S11319E0919A0E9477036EE571E080E090E00E9496
S11319F0840C1FC00E94E404182F0E94E4040E9477
S1131A00FD0410937F0281E10E94910080914605BC
S1131A100E946A030E94740C882321F081E0809361
S1131A207E0204C08091460580937F0281E10E947A
S1131A30910080E090E01F910895282F80910E017D
S1131A40882319F484E090E008958091800288232B
S1131A5019F085E090E0089581E08093800283E0AE
S1131A6090E09093EE068093ED062093BC060E94CE
S1131A70A20C99270895282F80910E01882319F428
S1131A8084E090E0089580918002882319F085E035
S1131A9090E0089581E08093800285E090E0909347
S1131AA0EE068093ED062093BC060E94A20C9927B3
S1131AB008951F93CF93DF93162FEA01992781305E
S1131AC09105E9F0823091051CF4892B21F017C0AF
S1131AD0029771F014C080E00E94AE05112321F436
S1131AE0D0931601C093150181E00E94990407C0A8
S1131AF082E00E94AE05BE01812F0E94D604DF91D0
S1131B00CF911F9108951F93CF93DF93162FEA016E
S1131B1099278130910549F082309105CCF08230CB
S1131B209105B1F0039769F013C081E00E94AE05FE
S1131B30112321F4D0931401C09313010E9465036F
S1131B4007C083E00E94AE05BE01812F0E94970367
S1131B50DF91CF911F9108952F923F924F925F9200
S1131B606F927F928F929F92AF92BF92CF92DF92A9
S1131B70EF92FF920F931F93CF93DF93CDB7DEB70E
S1131B80CD54D0400FB6F894DEBF0FBECDBF1B01BD
S1131B902C018824AA24BB2441EB642E42E0742E39
S1131BA0F301608561FF6BC22081318142815381E1
S1131BB0D201C101821B930BA40BB50BE480F58009
S1131BC0068117818E159F05A007B10708F457C237
S1131BD060FF03C06D7F60870AC02E0D3F1D401F4C
S1131BE0511FD3012D933D934D935C931397B7E00D
S1131BF0AB16B10409F468C0E8E0AE16B10414F5FC
S1131C00F3E0AF16B10409F457C084E0A816B10498
S1131C1074F491E0A916B10409F44AC0A2E0AA162A
S1131C20B1040CF047C0A114B104A9F128C2B5E075
S1131C30AB16B10409F444C0E6E0AE16B1040CF0EE
S1131C4041C03CC0FBE0AF16B10409F42EC18CE0E6
S1131C50A816B1045CF499E0A916B10409F423C1EF
S1131C60AAE0AA16B1040CF0D2C0C9C0BEE0AB16FB
S1131C70B10409F45FC1EFE0AE16B10434F4FCE042
S1131C80AF16B10409F42FC1FAC18FE0A816B1044C
S1131C9009F4EBC1F4C18091A903813009F0EFC1CB
S1131CA082E00E94990460E47FE180E090E0E5C175
S1131CB0D99AE5C1D89AE3C1DA9AE1C185E0D2C1E3
S1131CC086E0D0C184E0CEC189E0898389E090E0D8
S1131CD08A839B8385E090E08C839D838091AE0210
S1131CE0882309F04EC08E8380914805882339F4F7
S1131CF0A9E1B1E02E96AEAFBFAF2E9711C08130EF
S1131D0039F4EFE1F1E02E96EEAFFFAF2E9708C065
S1131D10823031F485E291E02E968EAF9FAF2E97FC
S1131D202E96AEADBFAD2E97BF93AF938BE291E0ED
S1131D309F938F938E01085E1F4F1F930F930E94F2
S1131D403A25EDB7FEB736960FB6F894FEBF0FBE30
S1131D50EDBF80E1FE013896D8010D9001928A957D
S1131D60E1F787E1DE011196EFE9F6E00D900192CB
S1131D708A95E1F78EE00E94910081E08093AE02A3
S1131D807EC181E08E8380914405909145059F93A7
S1131D908F9380913E0490913F049F938F93809101
S1131DA0690490916A049F938F9389E391E09F93D0
S1131DB08F938E01085E1F4F1F930F930E943A2545
S1131DC0EDB7FEB73A960FB6F894FEBF0FBEEDBF5F
S1131DD080E1FE013896D8010D9001928A95E1F7D1
S1131DE087E1DE011196EFE9F6E00D9001928A9504
S1131DF0E1F78EE00E9491001092AE0240C182E0B1
S1131E008093A40382E18093BD0589E02BC1809176
S1131E1096068F5F809396068F3F11F41092960674
S1131E20909196068091A803981709F028C1809193
S1131E30810299279F938F938091170190911801A4
S1131E409F938F9385E491E09F938F9383E995E02B
S1131E509F938F930E943A25EDB7FEB738960FB63D
S1131E60F894FEBF0FBEEDBF809181028630B8F4B6
S1131E708F5F809381028630B0F0FE01F89680E196
S1131E80DF011D928A95E9F79F0140E065E18091A9
S1131E90BD050E94D8078EE10E942205F0C0109271
S1131EA08102109286028DE0DDC08FB7F894082F6E
S1131EB01127902F80910B01843099F480917D0239
S1131EC0813021F483E10E94910009C0823049F4F9
S1131ED08091C30480930B0183E080937D020FBF44
S1131EE0CEC09FBFCCC08091ED069091EE068530A8
S1131EF09105B1F08630910518F4039739F0BFC00D
S1131F004E9709F0BCC010928002B9C010928002B2
S1131F1040E050E061E08091BC060E94590DAFC0E2
S1131F201092800240E050E061E08091BC060E9483
S1131F30830DA5C08FB7F8949927C0906802CC2070
S1131F4011F08FBF9CC08FBF80B3992736E0969560
S1131F5087953A95E1F7982EB1E09B228091490547
S1131F609091A203891709F47AC0991609F077C0F1
S1131F7084E090E090936A02809369028E01085B8A
S1131F801F4F8091060190910701F8018083892FEA
S1131F90992781838091C0069091C1068283892FFD
S1131FA0992783838FB7F8949927DB2EB09368021F
S1131FB08FBF80E20E94910060E070E08DE10E949A
S1131FC0350924E0A8016C2D88E691E00E944509BA
S1131FD0C09AC0988FB7F894E82EFF248D2D0E94E4
S1131FE01C0901E010E01093640200936302C092A4
S1131FF06202C092BA06EFBE8FB7F894E82EFF24AF
S11320000E94F005109341040093400489B78F7B2C
S113201089BF80E488BF8AB780628ABF8AB78F7E0F
S11320208ABF89B7806489BFEFBE8FB7F894082F41
S113203011278091690290916A02049719F483E050
S11320400E942F090FBF8FB7F894082F1127C09A49
S113205080E00E942B0A0FBF8BE10E9491009092B6
S113206049058FE10E9491000AC08091CF038093BB
S1132070A90368EE73E080E090E00E9490058394E9
S113208089E090E0680E791E0894A11CB11C9FE0C1
S1132090981508F085CD83E00E949100C35BDF4F63
S11320A00FB6F894DEBF0FBECDBFDF91CF911F9165
S11320B00F91FF90EF90DF90CF90BF90AF909F90E3
S11320C08F907F906F905F904F903F902F900895E6
S11320D02F923F924F925F926F927F928F929F9234
S11320E0AF92BF92CF92DF92EF92FF920F931F9322
S11320F0CF93DF93CDB7DEB726970FB6F894DEBF44
S11321000FBECDBF4C01C401AA2797FDA095BA2FDD
S113211089839A83AB83BC83BC01CD010E943F2990
S11321202B013C0197FE08C020E030E040E857E472
S11321300E9492282B013C018091A303082F1127B0
S11321401801220C331C220C331C6FE9A62E62E00A
S1132150B62EA20CB31CD501CD90DD90ED90FC9071
S1132160A7019601C301B2010E9491282B013C01F1
S1132170F801E555FD4F10811F5F1083E12FFF2704
S1132180ED83FE83CF01AA2797FDA095BA2FBC014A
S1132190CD010E943F29DC01CB019C01AD01C301AB
S11321A0B2010E94DC28DC01CB019C01AD01C70116
S11321B0B6010E9492286B017C01D5016D937D9339
S11321C08D939C931397113009F45CC069817A81D3
S11321D08B819C810E943F2997FE06C020E030E05D
S11321E040E857E40E949228A70196010E94912892
S11321F0DC01CB0157E8C52E52E0D52EC20CD31C0E
S11322009C01AD01C301B2010E94AE29DC01CB01E6
S1132210F601E080F180028113819C01AD01C801C7
S1132220B7010E9492287B018C01D6016D937D93A6
S11322308D939C9313976101E3E9F2E0CE0EDF1EC8
S11322402D813E8121503040C901AA2797FDA095D8
S1132250BA2FBC01CD010E943F29DC01CB019C01B6
S1132260AD01C801B7010E94DC28DC01CB01BC012F
S1132270CD010E94FC29DC01CB01F601808391830E
S1132280A283B38326960FB6F894DEBF0FBECDBFEC
S1132290DF91CF911F910F91FF90EF90DF90CF903E
S11322A0BF90AF909F908F907F906F905F904F9072
S11322B03F902F9008953F924F925F926F927F923A
S11322C08F929F92AF92BF92CF92DF92EF92FF9242
S11322D00F931F93CF93DF93CDB7DEB724970FB639
S11322E0F894DEBF0FBECDBF9927AA27BB27FC01F8
S11322F0839710F00C94521AEA5BFF4FEE0FFF1F06
S11323000590F491E02D0994DA9848EC50E060E0EF
S113231070E083E00E94FD00D99848EC50E060E052
S113232070E081E00E94FD00D89848EC50E060E045
S113233070E082E00E94FD008091D5039927982FD8
S113234088272091D6033327822B932B8093BC04B8
S1132350892F99278093BB048091D7039927982FBD
S113236088272091D8033327822B932B8093BE0494
S1132370892F99278093BD048091D9039927982F99
S113238088272091DA033327822B932B8093C00470
S1132390892F99278093BF048091DB039927982F75
S11323A088272091DC033327822B932B8093C2044C
S11323B0892F99278093C104D9C680914A05813019
S11323C011F40E9491008091B80599279C0173E053
S11323D0220F331F7A95E1F72E5B3C4F01966CE098
S11323E070E00E94412A8093B8052115310511F44B
S11323F00C94521A88E0E5EDF3E0D9010D900192B6
S11324008A95E1F78091D5039927582E4424809129
S1132410D6039927482A592A8091D7039927782ED9
S113242066248091D8039927682A792A8091D90350
S11324309927982E88248091DA039927882A992A43
S11324408FB7F894382E31E0A32EA0924A058091DC
S1132450A303882309F069C0C2010E946810C20165
S1132460AA2797FDA095BA2FBC01CD010E943F2950
S11324707B018C0157FE08C020E030E040E857E4BF
S11324800E9492287B018C018091A303E82FFF27EF
S1132490EE0FFF1FEE0FFF1FE156FD4F808191816C
S11324A0A281B3819C01AD01C801B7010E949128AA
S11324B0DC01CB01BC01CD010E942229DC01CB014E
S11324C00E941806B090A3030B2D1127000F111FB3
S11324D0000F111FF801E156FD4F80819181A28107
S11324E0B381BC01CD010E9422296B017C01F8015A
S11324F0ED56FD4F80819181A281B381BC01CD0154
S11325000E942229DC01CB01B092480550926A0452
S113251040926904D0923F04C0923E0490934505D2
S113252080934405A092A303D8C0813009F06AC007
S1132530C3010E946810C301AA2797FDA095BA2F72
S1132540BC01CD010E943F297B018C0177FE08C0AC
S113255020E030E040E857E40E9492287B018C019F
S11325608091A303E82FFF27EE0FFF1FEE0FFF1F3D
S1132570E156FD4F80819181A281B3819C01AD011F
S1132580C801B7010E949128DC01CB01BC01CD0137
S11325900E942229DC01CB010E941806B090A303FB
S11325A00B2D1127000F111F000F111FF801E15609
S11325B0FD4F80819181A281B381BC01CD010E9434
S11325C022296B017C01F801ED56FD4F8081918138
S11325D0A281B381BC01CD010E942229DC01CB017F
S11325E0B092480570926A0460926904D0923F04E4
S11325F0C0923E04909345058093440582E0809305
S1132600A3036BC0823009F068C0C4010E94681043
S1132610C401AA2797FDA095BA2FBC01CD010E9441
S11326203F297B018C0197FE08C020E030E040E8A0
S113263057E40E9492287B018C018091A303E82F28
S1132640FF27EE0FFF1FEE0FFF1FE156FD4F8081A6
S11326509181A281B3819C01AD01C801B7010E949F
S11326609128DC01CB01BC01CD010E942229DC01AF
S1132670CB010E941806B090A3030B2D1127000F65
S1132680111F000F111FF801E156FD4F8081918148
S1132690A281B381BC01CD010E9422296B017C017E
S11326A0F801ED56FD4F80819181A281B381BC0177
S11326B0CD010E942229DC01CB01B0924805909201
S11326C06A0480926904D0923F04C0923E049093BD
S11326D04505809344051092A3033FBEE3C6409191
S11326E04103442339F58FB7F894282F3327E0901A
S11326F0B004F090B1040091B2041091B30480913D
S1132700470490914804A0914904B0914A04E80E0A
S1132710F91E0A1F1B1F2FBF80919A0690919B06DA
S1132720A0919C06B0919D069C01AD01C801B70122
S11327300E942E070E94D500DC01CB01BC01CD0113
S113274040C00E94D5007B018C016FEFA62E6FEF75
S1132750B62E6FEFC62E6FE7D62E70E087B78D7F4B
S113276087BFE1EBF2E06FE0808581FF1CC08081D0
S11327709181A281B381A8019701281B390B4A0BCF
S11327805B0BDA01C9012481358146815781281BFD
S1132790390B4A0B5B0B2A153B054C055D051CF4F4
S11327A059016A0171E06150399667FFDDCF7723E3
S11327B009F478C61A141B041C041D042CF0C80167
S11327C0B7010E94AC0D6EC6A0929A06B0929B0609
S11327D0C0929C06D0929D0681E080934103A6019D
S11327E09501C801B7010E942E075CC68FB7F89403
S11327F0282F33278BB394E089278BBB2FBF80917D
S1132800B40481508093B4048F3F51F08091CC0381
S11328109927AA27BB27BC01CD010E94720542C695
S1132820DA9A32C00E944A058091B504815080939F
S1132830B5048F3F61F00E944A058091CD0399272A
S1132840AA27BB27BC01CD010E9454052BC6D99AE7
S11328501BC08FB7F894282F33278BB391E08927B7
S11328608BBB2FBF8091B60481508093B6048F3FF9
S113287051F08091CE039927AA27BB27BC01CD0133
S11328800E942C050FC6D89A10924A050BC68DE6F5
S113289094E09093D2038093D10382E08093A403C5
S11328A082E18093BD0588EB9BE090935004809374
S11328B04F041092850210928402109283021092A7
S11328C08202109281021092780210927702109282
S11328D07602109275021092740280919A008064BC
S11328E080939A0080919A00886080939A008091E6
S11328F09A00806880939A0080919A008061809306
S11329009A0080919A00886080939A0080919A003E
S1132910806180939A0088E180939E0688E4809386
S113292042041EE71093B2031093C90310934B059E
S11329301093920548E150E060E070E082EB93E090
S11329400E9433251093B20383E090E09093B40384
S11329508093B3031093C90360919E0682EB93E0C6
S11329600E949D070E94D500DC01CB0151E0E52EB9
S113297000EA1FE020E030E0AC01BD0188E00E94E5
S1132980B60090C588EB9BE09093500480934F046D
S113299080910A038D7F80930A0348EB5BE060E03B
S11329A070E089E071C0809101038D7F8093010301
S11329B0E090A403F090BD058F2D99279F938F93EA
S11329C08E2D99279F938F938091170190911801D1
S11329D09F938F938EE591E09F938F9306E516E086
S11329E01F930F930E943A254DB75EB7465F5F4F22
S11329F00FB6F8945EBF0FBE4DBFF80101900020E2
S1132A00E9F73197E01BF10B6E2FC8010E945407C0
S1132A1055E0F51611F087E089C4E0924705F0927D
S1132A20BD0644EF51E060E070E087E02DC0809186
S1132A30710499279F938F938EE791E09F938F93CF
S1132A4006E516E01F930F930E943A258DB79EB7B3
S1132A5006960FB6F8949EBF0FBE8DBFF801019085
S1132A600020E9F73197E01BF10B6E2FC8010E949B
S1132A70540718C5809113038D7F8093130344E694
S1132A8050E060E070E08AE00E9402050BC580918E
S1132A90BD058231E9F482E190E09F938F938091A8
S1132AA01701909118019F938F938BE891E09F9366
S1132AB08F9383E995E09F938F930E943A25ADB756
S1132AC0BEB718960FB6F894BEBF0FBEADBF97C081
S1132AD0863019F08D3009F047C08091860299271D
S1132AE09F938F938091BD0599279F938F93809196
S1132AF01701909118019F938F938EE991E09F9312
S1132B008F9383E995E09F938F930E943A25EDB7C5
S1132B10FEB73A960FB6F894FEBF0FBEEDBF809194
S1132B20BD058D3019F484E00E9422052091BD0575
S1132B30309186028EE78093B2038093C9038AE0C2
S1132B4090E09093B4038093B303822F99279093DA
S1132B50B6038093B5033093B70360919E0682EB6E
S1132B6093E00E949D079EC4893009F49BC4992771
S1132B709F938F9380911701909118019F938F9346
S1132B8089EB91E09F938F9383E995E09F938F93D3
S1132B900E943A252DB73EB7285F3F4F0FB6F894F1
S1132BA03EBF0FBE2DBF2DC08091A0069091A106FF
S1132BB0029761F58091A2069091A3069F938F934B
S1132BC080911701909118019F938F938CEC91E061
S1132BD09F938F9383E995E09F938F930E943A2567
S1132BE04DB75EB7485F5F4F0FB6F8945EBF0FBE38
S1132BF04DBF8091A2069091A306429711F480E004
S1132C006EC18091BD050E9400084CC480919F064E
S1132C1003E915E02091A2063091A306882309F068
S1132C203FC080914F04909150048217930789F01C
S1132C303093500420934F0480910A038D7F809336
S1132C400A03C901AA27BB27AC01BD0189E00E9480
S1132C5002058091A2069091A3069F938F93809181
S1132C60A10699279F938F938091A00699279F93FC
S1132C708F9380911701909118019F938F9380EE09
S1132C8091E09F938F931F930F930E943A258DB7E2
S1132C909EB70C960FB6F8949EBF0FBE8DBF02C4AC
S1132CA08091A50699279F938F938091A4069927D5
S1132CB09F938F933F932F938091170190911801C5
S1132CC09F938F938DEF91E09F938F931F930F9317
S1132CD00E943A25ADB7BEB71C960FB6F894BEBF96
S1132CE00FBEADBF8091BD054091A5066091A406BD
S1132CF0A6EAB6E0893041F58EE78093B20380936B
S1132D00C90389E090E09093B4038093B303909354
S1132D10B6038093B5036093B7034093B80329EBDC
S1132D2033E080E1F9010D9001928A95E1F7609119
S1132D309E06C90107970E949D078AE090E0909340
S1132D40B4038093B303AEC39D010E94D807AAC302
S1132D5082E08093AD03E091D103F091D20380919E
S1132D60A4038083E091D103F091D2038091BD0547
S1132D708183E091D103F091D20380914F0490912B
S1132D80500482839383809115019091160184836A
S1132D909583809113019091140186839783809188
S1132DA01101909112018087918780910F01909178
S1132DB0100182879387148615861686178680915C
S1132DC0AD03825F8093AD038AE0B0C2809180023C
S1132DD0882309F467C3809125038D7F809325039D
S1132DE00E94E4049927182F00270E94E4049927DD
S1132DF0082B192B0E94E4040E94FD048091ED0627
S1132E009091EE068330910519F0059751F04AC36D
S1132E1010928002A80160E08091BC060E94590DC6
S1132E2041C310928002A80160E08091BC060E9418
S1132E30830D38C38091ED069091EE06863091059E
S1132E4031F0079709F02EC3109280022BC3109221
S1132E50800210927E0226C380917B02813031F47D
S1132E606BE070E080E090E00E9447038FB7F89435
S1132E70992710927B0210927C028EC18FB7F8942E
S1132E8099272091C30420930B0133E0F32EF09291
S1132E907D028FBF022F11270130110519F1023075
S1132EA0110524F40115110541F0FCC2023011058D
S1132EB069F103301105D9F1F5C280E00E941D0DBE
S1132EC0E82EFF24EE2009F4EDC280E00E94AE0556
S1132ED0EE2021F4109316010093150181E00E9465
S1132EE09904E0C281E00E943B0D082F11270023C2
S1132EF009F4D8C281E00E94AE05002321F41092A7
S1132F001401109213010E946503CCC282E00E9456
S1132F101D0D082F1127002309F4C4C282E00E946A
S1132F20AE0560E070E0802F0E94D604BBC28F2DF6
S1132F300E943B0D082F1127002309F4B3C28F2DE3
S1132F400E94AE0560E070E0802F0E949703AAC241
S1132F506BE070E080E090E00E944703A3C2889891
S1132F6090988998919882E1E1C18FB7F894282FBD
S1132F7033279091430590930A0183E0809379026B
S1132F802FBF892F9927009711F4BE9AC69A8130D2
S1132F90910579F0823091051CF4892B21F082C2CD
S1132FA0029759F07FC281E080931F061092250694
S1132FB00AC081E080931F0604C081E080931F064D
S1132FC082E0809325060E94B7026CC210921F060D
S1132FD080912506E090B003F090B103082F1127EB
S1132FE00130110569F00230110524F401151105B1
S1132FF029F00BC00230110529F007C080E003C09E
S113300081E001C082E00E94020201301105B9F0A2
S1133010023011051CF4012B29F044C202301105C1
S1133020C9F040C296E0F694E7949A95E1F7F092DD
S11330301201E092110181E00E946D0233C286E028
S1133040F694E7948A95E1F7F0921001E0920F016B
S11330508FE06CC106E0F694E7940A95E1F780915D
S1133060BB059091BC052091AE033091AF038093D2
S1133070D603892F99278093D5032093D803832FD0
S113308099278093D703E092DA038F2D99278093B1
S1133090D90380E04BC180916C02813049F582E014
S11330A080936C020E942E01DC01CB01809399066F
S11330B08FB7F894282F33278091690290916A0280
S11330C0892B11F02FBF14C081E090E090936A0225
S11330D0809369022FBFDD9A0E94CE01DC01CB01EF
S11330E024E130E040E050E0BC01CD010E94C7087B
S11330F088E11CC10E942E01DC01CB018093BF0634
S1133100892F99278093BE0660E070E083EF96E0F4
S11331100E94C401FC018091BE069091BF06808389
S1133120918321E043EF56E06FEF7FEF83E90E9444
S1133130FB0B882309F4B6C11EC060E070E083EF86
S113314096E00E94C401EBEBF4E028E0DC0101907E
S11331500D922A95E1F721E043EF56E06FEF7FEF00
S113316083E90E94FB0B882309F49CC18AE1DEC039
S113317083E080936C0289E1D9C081E005C08FB7F8
S1133180F89499278FBF83E080936C028BC18FB72B
S1133190F894992710923D048FBF84C18FB7F89497
S11331A0C82EDD2480916802882379F40E94D5001A
S11331B0DC01CB01E1E0EE2E01E010E020E030E0A4
S11331C0AC01BD018EE00E94B600CFBE6BC18FB7CB
S11331D0F894282F332780916802882329F080915E
S11331E037038D7F809337032FBF5CC18FB7F8946B
S11331F0282F3327909120069093020182E0809338
S113320065022FBF992309F04DC18FB7F894992710
S1133210209105018FBF33272130310509F453C0B4
S1133220223031051CF4232B51F03CC122303105EE
S113323009F47FC02330310509F493C033C1C09829
S11332408FB7F894E82EFF248091690290916A0266
S11332500297B9F583E090E090936A028093690243
S113326068E170E08DE10E94350911E01093A2033A
S11332701092680280B3992776E0969587957A959F
S1133280E1F78123809349058FE10E949100812F0A
S11332900E942F096FE772E08CE10E94350990913A
S11332A0080185E0989FC0011124825D9E4F9064BF
S11332B0BC0188E10E94350962EF7AE281E10E9453
S11332C03509EFBEEFC08FB7F894282F332740910C
S11332D008018E010F5F1F4F809106019091070135
S11332E08983892F9927F80181838091C006909161
S11332F0C1068B83892F99278C832FBFC09885E0C3
S1133300489FC0011124825D9E4F9064BC0188E1F6
S11333100E94350924E0A80160E088E691E00E945B
S11333204509C09A81E00E942B0A8EE10E94910017
S1133330B9C08FB7F8949927209163028FBF3327C0
S11333402230310521F02430310521F006C00E94DD
S1133350C70BA8C00E94B10AA5C082E00E942B0A34
S1133360A1C00E94640B9EC0A091AF02B091B002B4
S11333708C919D01280F311DF9018081881F8827B8
S1133380881FFD0182A7F90182919F012F5F3F4FA2
S1133390FD0180A7F90180818F77FD0181A7C0908D
S11333A0AF02D090B0028601055F1F4FF6018781FE
S11333B09927382F222786819927282B392B80910A
S11333C00001909101012817390721F02F5F3F4F29
S11333D009F062C0C6010E94C001833909F05CC0D3
S11333E0809109018823A1F18091BE069927582F65
S11333F044278091BF069927482B592BF6018385D2
S11334009927382F2227F80181819927282B392BD6
S11334104217530711F489E13DC04217530724F4BE
S113342081E08093CF0302C01092CF031092090170
S11334300E94D500DC01CB0111E0E12E08EE13E07F
S113344020E030E0AC01BD018FE00E94B60024C052
S11334508091A903882301F501151105D1F080910C
S1133460EA06282F3327F901A3E0EE0FFF1FAA95E0
S1133470E1F7EE5BFC4F88E0D8010D9001928A954C
S1133480E1F7C90101966CE070E00E94412A809343
S1133490EA0681E00E949100D092B002C092AF028D
S11334A00E94910B24960FB6F894DEBF0FBECDBFD9
S11334B0DF91CF911F910F91FF90EF90DF90CF900C
S11334C0BF90AF909F908F907F906F905F904F9040
S11334D03F9008958091BB068F3FD1F09091BB0639
S11334E08091BB06E82FFF27EE53F94F808180932C
S11334F0BB068091BB068F3F11F48093E806892FA9
S11335009927FC01EE53F94F2FEF20839C0102C051
S11335102FEF30E02F3F19F480E090E00895822FE0
S11335200E945B1181E090E00895CFEFD0E1DEBF0F
S1133530CDBF8FB7F894C82F43E250E06FEF70E02F
S113354082EC96E00E9433258FEF8093BB06809334
S1133550E80681E08EBD88E080BF83E083BF2CB5A0
S11335603DB54AE78CB59DB58217930708F44150E1
S11335709C014423B9F792B782B78917E9F32CB5B4
S11335803DB592B782B78917E9F38CB59DB5821B17
S1133590930B4096E5E096958795EA95E1F790932D
S11335A0BA058093B90513BE83B78EBD8EB580BFAF
S11335B012BE1DBC1CBC8FEF86BF86B780937C00F7
S11335C080B7282F33272770307021153105C1F7B4
S11335D0D29AD19AD09ADA9AD99AD89A25BB8FEFEF
S11335E084BBD498DC983DBD2CBD87B7846087BF6D
S11335F08EB5887F84608EBD16B880B7886080BF22
S113360080E285BF0E946A1A8823E1F7809117013E
S1133610909118010196AA27BB27809343049093A5
S11336204404A0934504B09346048FEF8093A5030C
S113363080916C02882319F481E080936C02B89A1B
S1133640D69AD59A80910001909101019093C10678
S11336508093C0068E98B89A8C9886E296E09093F0
S1133660B0028093AF020091B9051091BA05C80168
S1133670AA27BB277CE0880F991FAA1FBB1F7A9536
S1133680D1F7BC01CD0120E031EE40E050E00E94D2
S1133690542ADA01C901019789B9892F992780939E
S11336A0900082E08BB986E0809395001AB8C80137
S11336B0AA27BB275CE0880F991FAA1FBB1F5A9536
S11336C0D1F7BC01CD0120E031EE40E050E00E9492
S11336D0542ADA01C901019780939900892F992707
S11336E08093980082E080939B0086E080939D0005
S11336F010929A001092D0038FEF9FEFAFEFBFEFBD
S11337008093EF069093F006A093F106B093F2062F
S113371000B602FCFDCF12BE87B7816087BF83B7B6
S1133720887F836000B600FCFDCF83BF0E946A1AC5
S113373099278823D9F7CFBF789480937102109288
S1133740700210926F0210926E0210926D02569ADD
S1133750539A579A549A539A549A87E00E94910024
S113376088E10E9491008FB7F894482F4AC087B728
S11337709927887B892B41F480917D00282F33275A
S11337802B7F2115310519F020E030E02AC06F9914
S113379028C08AB1807C29F580919A00807C09F543
S11337A0379B03C021E030E01CC087B799278370A2
S11337B09070892BA1F080B7992787709070892B1E
S11337C0D1F781B792B7891B8C3018F082B7853F47
S11337D018F022E030E005C023E030E002C025E02C
S11337E030E0E5E02E1708F4E22F85B7837EFF274B
S11337F0EE52FF4F9491892B806285BF789488950F
S1133800F8948091BB068F3FC9F09091BB068091DC
S1133810BB06E82FFF27EE53F94F80818093BB0648
S11338208091BB068F3F11F48093E806892F992776
S1133830FC01EE53F94F2FEF208302C08FEF90E08D
S11338408F3F09F494CF4FBF0E945B118CCF83B795
S113385083BF00B600FCFDCF08951F920F920FB6F0
S11338600F9211242F933F934F935F936F937F9302
S11338708F939F93AF93BF93CF93EF93FF930E9444
S1133880271C87B78D7F87BF78948FB7F894C82F8C
S11338908091470490914804A0914904B0914A044E
S11338A00097A105B10521F482E00E94910002C0B5
S11338B00E946506CFBFFF91EF91CF91BF91AF9169
S11338C09F918F917F916F915F914F913F912F9134
S11338D00F900FBE0F901F9018951F920F920FB666
S11338E00F9211242F933F934F935F936F937F9382
S11338F08F939F93AF93BF93EF93FF930E94271CE3
S11339008091B4059091B505A091B605B091B70525
S11339100196A11DB11D8093B4059093B505A093A4
S1133920B605B093B7058091B804882339F0815067
S11339308093B804882311F40E946506FF91EF91E7
S1133940BF91AF919F918F917F916F915F914F91B3
S11339503F912F910F900FBE0F901F9018951F92BB
S11339600F920FB60F9211240F900FBE0F901F905D
S113397018951F920F920FB60F9211242F933F9315
S11339804F935F936F937F938F939F93AF93BF9363
S1133990EF93FF9389B78D7F89BF80E10E949100E7
S11339A0FF91EF91BF91AF919F918F917F916F9113
S11339B05F914F913F912F910F900FBE0F901F90E9
S11339C018951F920F920FB60F9211240F900FBEED
S11339D00F901F9018951F920F920FB60F921124FB
S11339E00F900FBE0F901F9018951F920F920FB655
S11339F00F9211240F900FBE0F901F9018951F92D5
S1133A000F920FB60F9211240F900FBE0F901F90BC
S1133A1018951F920F920FB60F9211242F933F9374
S1133A204F935F936F937F938F939F93AF93BF93C2
S1133A30EF93FF938091400490914104019719F40E
S1133A400E947F0B05C08091EB068F5F8093EB068D
S1133A50FF91EF91BF91AF919F918F917F916F9162
S1133A605F914F913F912F910F900FBE0F901F9038
S1133A7018951F920F920FB60F9211240F900FBE3C
S1133A800F901F9018951F920F920FB60F9211244A
S1133A902F933F934F935F936F937F938F939F9352
S1133AA0AF93BF93EF93FF9364B175B178948FB7DD
S1133AB0F894282F33278091E506482F46954170C6
S1133AC02FBF282F217080FD1CC0339880911F06C2
S1133AD099278130910519F0029759F028C04423A1
S1133AE051F07093B1036093B00387E10E94910099
S1133AF01EC0442319F40E94B70219C020931F0664
S1133B0016C08FB7F89499278FBF8FB7F894482FB2
S1133B10552786B180618777282F332726B98F7B75
S1133B20282F332726B98068992786B94FBFFF917C
S1133B30EF91BF91AF919F918F917F916F915F9121
S1133B404F913F912F910F900FBE0F901F9018959A
S1133B501F920F920FB60F9211248F935F998CB11D
S1133B608F910F900FBE0F901F90189578941F920D
S1133B700F920FB60F9211242F933F934F935F939D
S1133B806F937F938F939F93AF93BF93EF93FF9321
S1133B9080916F02909170020196909370028093CD
S1133BA06F028F37910520F01092700210926F020D
S1133BB080916D0290916E028F37910520F01092E2
S1133BC06E0210926D02E0916F02F091700280918A
S1133BD06D0290916E02E817F90731F0EC53FB4F38
S1133BE080810E944C0702C010927102FF91EF91F4
S1133BF0BF91AF919F918F917F916F915F914F9101
S1133C003F912F910F900FBE0F901F9018951F9208
S1133C100F920FB60F9211242F933F934F935F93FC
S1133C206F937F938F939F93AF93BF93EF93FF9380
S1133C3080919B0087FFD1C140919C0080917202CA
S1133C40882321F44E3709F0C8C106C020917302BD
S1133C50233050F44E3741F481E080937202409354
S1133C60BE0580937302B9C1E22FFF27E254FA4FD5
S1133C7040832F5F209373023091BF05333049F5A1
S1133C8080919E06281709F098C1109272024E374F
S1133C9009F09BC18091C1058093BD05863021F058
S1133CA0893011F08D3081F48AE08093A4038091EF
S1133CB0BD058D3061F48FEF8093A80310929606B2
S1133CC08BE00E94910003C082E08093A40389E00A
S1133CD071C1323009F04CC080919E06281709F05A
S1133CE06CC1109272024E3709F06FC13093AD036C
S1133CF0E091D103F091D2038091A4038083E091F9
S1133D00D103F091D2038091BD058183E091D10369
S1133D10F091D20380914F04909150048283938355
S1133D208091C5059091C605848395838091C705CC
S1133D309091C805868397838091C9059091CA059F
S1133D40808791878091CB059091CC05828793875A
S1133D508091CD059091CE05848795878091CF057C
S1133D609091D005868797878091AD03825F1FC1AC
S1133D70393009F09DC080919E06281709F01DC1B5
S1133D80109272024E3709F020C182E08093AD0395
S1133D908091BD058D30F1F48091C305833109F024
S1133DA016C180911701909118019F938F938AE116
S1133DB092E09F938F9383E995E09F938F930E9462
S1133DC03A258DB79EB706960FB6F8949EBF0FBEE0
S1133DD08DBFFDC0893059F488E1AEEBB5E0E1E573
S1133DE0F4E00D9001928A95E1F78CE0E3C08E3007
S1133DF029F0843019F0853009F0E9C0E091D1034D
S1133E00F091D2038091A4038083E091D103F091D7
S1133E10D2038091BD058183E091D103F091D20357
S1133E2080914F0490915004828393838091C505BF
S1133E309091C605848395838091C7059091C805A8
S1133E40868397838091C9059091CA05808791875D
S1133E508091CB059091CC05828793878091CD0585
S1133E609091CE05848795878091CF059091D00558
S1133E70868797878091AD03825F8093AD0380919D
S1133E801701909118019F938F9381E392E09F9380
S1133E908F9383E995E09F938F930E943A258DB782
S1133EA09EB706960FB6F8949EBF0FBE8DBF81C015
S1133EB0313019F03A3009F08AC080914204281751
S1133EC009F07BC0109272024E3709F07EC082E086
S1133ED08093AD03E091D103F091D2038091A403C8
S1133EE08083E091D103F091D2038091BD05818359
S1133EF08091BD058D3009F03FC0109281028FEF93
S1133F008093A8038091C30599279F938F938091F1
S1133F101701909118019F938F938BE492E09F93E4
S1133F208F9383E995E09F938F930E943A258DB7F1
S1133F309EB708960FB6F8949EBF0FBE8DBF9091A2
S1133F40C305903F19F41092860216C08091C505EE
S1133F508A3029F48091C6058A3A39F00AC08A3A2F
S1133F6041F48091C6058A3021F484E00E94220540
S1133F7003C09F5F90938602E091D103F091D20336
S1133F808091C40582832091D1033091D203809122
S1133F90C4059927AC0165EC75E0C90103960E943C
S1133FA02A258091AD039091C405890F8F5F80937A
S1133FB0AD038AE00E9491000AC099270297332733
S1133FC08217930724F44E3711F4109272028091F1
S1133FD07302813610F010927202FF91EF91BF913B
S1133FE0AF919F918F917F916F915F914F913F918D
S1133FF02F910F900FBE0F901F90189578941F92D9
S11340000F920FB60F9211242F933F934F935F9308
S11340106F937F938F939F93AF93BF93EF93FF938C
S11340208091760290917702019690937702809323
S113403076028036910520F0109277021092760273
S113404080917402909175028036910520F010924F
S1134050750210927402E0917602F09177028091D9
S1134060740290917502E817F90731F0E352FC4F9E
S113407080810E948F0702C010927802FF91EF9115
S1134080BF91AF919F918F917F916F915F914F916C
S11340903F912F910F900FBE0F901F901895789419
S11340A01F920F920FB60F9211242F933F934F93A9
S11340B05F936F937F938F939F93AF93BF93CF93AC
S11340C0EF93FF9387B78F7E87BF78948FB7F89469
S11340D0C82F8091B6069091B706A091B806B0910A
S11340E0B9060097A105B10509F054C08091630297
S11340F0909164028430910549F18530910518F45A
S1134100039721F035C0079741F132C080B3992756
S1134110689415F8969587951694E1F780FF13C077
S113412084E090E090936402809363020E94CE0145
S1134130DC01CB0127E030E040E050E0BC01CD01E0
S11341400E94C70815C00E94E50812C00E941C0AFC
S1134150882371F40E94B10A0BC081E090E090932F
S113416064028093630210926B028DE10E949100BD
S11341708091690290916A02019771F482E090E063
S113418090936A0280936902DE98DE9A80E00E942E
S1134190F90902C00E941908CFBFFF91EF91CF9196
S11341A0BF91AF919F918F917F916F915F914F914B
S11341B03F912F910F900FBE0F901F9018957894F8
S11341C01F920F920FB60F9211240F900FBE0F90F3
S11341D01F90189578941F920F920FB60F92112486
S11341E00F900FBE0F901F90189578941F920F9206
S11341F00FB60F9211241F932F933F934F935F9306
S11342006F937F938F939F93AF93BF93CF93DF93DA
S1134210EF93FF93CCB5DDB580E286BF8FB7F894FA
S1134220182F80916302909164028530910519F0F2
S1134230069739F157C080E00E941C0982E00E9471
S11342402B0A87B78F7E87BF86E090E09093640245
S113425080936302E0916B04F0916C04818199274F
S113426087709070019721F4C5A78D2F992784A793
S113427080B3992724E0969587952A95E1F780FDE8
S113428077C081E00E941C09E0916B04F0916C04FA
S1134290818185FF13C087E090E09093640280934E
S11342A063020E94CE01DC01CB0120E830E040E053
S11342B050E0BC01CD010E94C7080BC081E090E032
S11342C0909364028093630210926B028DE10E94CA
S11342D0910080B39927B4E096958795BA95E1F754
S11342E080FF46C080916202882351F50E941C0918
S11342F040911E064830A0F48091B305840F912D9F
S1134300911D9C01887F9370281BE22FFF27EE0FDD
S1134310FF1FEF5DF84FC083D1834F5F40931E06AC
S113432081E080936202D0939806C093970680B38D
S11343309927A4E096958795AA95E1F780FD18C082
S1134340809162028823A1F081E00E941C091092EE
S113435062028091970690919806C81BD90B2A9700
S113436038F480911E06882319F0815080931E062C
S11343701FBFFF91EF91DF91CF91BF91AF919F91BB
S11343808F917F916F915F914F913F912F911F91E9
S11343900F900FBE0F901F90189578941F920F9254
S11343A00FB60F9211242F933F938F939F938FB740
S11343B0F894282F33278091CA039091CB03019658
S11343C09093CB038093CA032FBF9F918F913F910A
S11343D02F910F900FBE0F901F9018951F920F9260
S11343E00FB60F921124EF92FF920F931F932F9306
S11343F03F934F935F936F937F938F939F93AF9369
S1134400BF93CF93DF93EF93FF938FB1282F33277D
S1134410E091A603F091A703309739F08091D3037C
S11344209091D403E80FF91F20838091D3039091D6
S1134430D40301969093D4038093D30380E00E9425
S11344406E092091D3033091D40380912306909177
S113445024062817390718F40E94DC0A35C1E090B5
S1134460A603F090A7031092A7031092A60310923C
S1134470BA041092B90410922406109223061092E2
S1134480D4031092D3038FB18091540690915506B2
S11344902091540686FFD3C02F7B822F99278E3319
S11344A0910509F411C1CF9709F00EC1C091AF0273
S11344B0D091B002188180914004909141048230DF
S11344C0910521F0039709F444C0B4C083E090E05F
S11344D09093410480934004412F55279A012F5F04
S11344E03F4F6091AA03862F9927821793077CF484
S11344F00E94F005C09AC09888E00E942F0988E0C5
S11345000E942F09C09A83E00E942B0A90C080E089
S113451090E0B79B02C081E090E0892B69F481B1FF
S1134520992776E0969587957A95E1F780FD04C002
S1134530611B61506093AA03193220F4BE016F5FBE
S11345407F4F02C060E070E080E090E00E944A0B80
S1134550BBC0C09A83E00E942B0A80911E06882368
S113456009F11B3028F18091B305E82FFF27EE0FE6
S1134570FF1FEF5DF84F808191818DA7892F9927C7
S11345808CA78091B305992701969C01287F3170EF
S1134590821B930B8093B30580911E0681508093F8
S11345A01E0606C08FEF9FEF8DA78FEF90E08CA7BC
S11345B0FE01E10FF11D808187FF39C0EF28B9F1B9
S11345C069816770E091AF02F091B002623049F501
S11345D0A0916B04B0916C0420818091630290914E
S11345E06402079721F5ED019B8183818917F9F412
S11345F087B78F7E87BF81E08BA7E20FF11D829181
S1134600319688A780818F7789A781E090E0909385
S113461064028093630210926B028DE10E94910008
S113462006C0613021F482E20E9491004DC00E94D4
S1134630910B4AC0C09A83E00E942B0A45C02E33D6
S113464009F042C0C09A8091630290916402089775
S113465039F481E090E0909364028093630234C063
S11346608091B704882349F484E090E09093640235
S1134670809363020E94B10A27C082E00E942B0A41
S113468083E090E090936402809363020E942E0181
S1134690DC01CB018F71907001969C0143E0220FE5
S11346A0331F4A95E1F7280F391F280F391F790165
S11346B0002711270E94CE01DC01CB01A80197013C
S11346C0BC01CD010E94C708FF91EF91DF91CF910A
S11346D0BF91AF919F918F917F916F915F914F9116
S11346E03F912F911F910F91FF90EF900F900FBE6C
S11346F00F901F901895A0E3B0E0E1E8F3E20C946A
S1134700A92A222E332E442E552E662E772E882E3D
S1134710992E2A2D3B2DA8E0FE013196AA2E119246
S1134720AA94E9F729823A824B825C826D827E8266
S11347308F829886FE013996BA2E1192BA94E9F7BF
S113474029873A87CB86DC86ED86FE860F87188B11
S1134750FE0171961192AA95E9F7C980DA80EB807F
S1134760FC80C9A6DAA6EBA6FCA6870176018FEF2A
S11347709FEFA0E0B0E0E822F9220A231B23A9A4BA
S1134780BAA4CBA4DCA416014424552489859A85B3
S1134790AB85BC858DA79EA7AFA7B8AB5C016D01A7
S11347A08FEF9FEFA0E0B0E0A822B922CA22DB225B
S11347B08DA59EA5AFA5B8A93D0188249924C8015B
S11347C0B701A60195010E94762A69A37AA38BA357
S11347D09CA3C801B701A40193010E94762A6DA38A
S11347E07EA38FA398A7C201B101A60195010E94DF
S11347F0762A7B018C01C201B101A40193010E94BC
S1134800762A9B01AC01A9A0BAA0CBA0DCA0C6016A
S1134810AA27BB27ADA0BEA0CFA0D8A4A80EB91EBE
S1134820CA1EDB1EAE0CBF1CC01ED11EADA2BEA292
S1134830CFA2D8A6AE14BF04C006D10620F42050DF
S113484030404F4F5F4FCDA0DEA0EFA0F8A4C701CA
S1134850AA27BB27820F931FA41FB51F8D8F9E8F7E
S1134860AF8FB8A3A6013327222789A19AA1ABA1B0
S1134870BCA1A070B070280F391F4A1F5B1F298F7D
S11348803A8F4B8F5C8FA98CBA8CCB8CDC8CED8CE3
S1134890FE8C0F8D18A1ED8AFE8A0F8B188F2D8543
S11348A03E854F85588969A57AA58BA59CA50E944C
S11348B0762A3B014C018D819E81AF81B885BC0174
S11348C0CD012DA53EA54FA558A90E94762ADC014D
S11348D0CB01680E791E8A1E9B1E8D899E89AF8925
S11348E0B88D860D971DA81DB91D8D8B9E8BAF8B22
S11348F0B88F6D897E898F89988D2A2D3B2D4C2DFB
S11349005D2DE2E1E0960C94C52A8F929F92AF92BE
S1134910BF92CF92DF92EF92FF920F93CF93DF93E8
S1134920CDB7DEB768970FB6F894DEBF0FBECDBF24
S1134930E82E002349F4298B3A8B4B8B5C8B6D8BCF
S11349407E8B8F8B988F6CC088E0FE01319611921C
S11349508A95E9F729833A834B835C836D837E834D
S1134960EF82988740E2401B14160CF041C08D8101
S11349709E81AF81B8856C017D0104C0CC0CDD1C27
S1134980EE1CFF1C4A95D2F7202F332727FD3095C4
S1134990022E04C0B695A795979587950A94D2F7E9
S11349A08D879E87AF87B88B89819A81AB81BC81C3
S11349B004C0B695A795979587952A95D2F78C2923
S11349C09D29AE29BF2989879A87AB87BC8729850A
S11349D03A854B855C856D857E858F859889298B85
S11349E03A8B4B8B5C8B6D8B7E8B8F8B988F18C027
S11349F01D861E861F86188A842F992787FD909509
S1134A0022273327281B390B8D819E81AF81B885DE
S1134A1004C0B695A795979587952A95D2F7D3CFD5
S1134A2029893A894B895C896D897E898F89988D1A
S1134A3068960FB6F894DEBF0FBECDBFDF91CF915D
S1134A400F91FF90EF90DF90CF90BF90AF909F9029
S1134A508F900895FB01DC0102C001900D9241503A
S1134A605040D8F70895DC0101C06D934150504087
S1134A70E0F708950F931F93CF93DF93CDB7DEB77D
S1134A802C970FB6F894DEBF0FBECDBF0B891C89DF
S1134A902D893E8946E04C8309831A838FEF9FE773
S1134AA08D839E83AE01495E5F4FB901CE010196AD
S1134AB00E946A25EF81F885E00FF11F10822C9681
S1134AC00FB6F894DEBF0FBECDBFDF91CF911F911B
S1134AD00F9108952F923F924F925F926F927F921F
S1134AE08F929F92AF92BF92CF92DF92EF92FF92FA
S1134AF00F931F93CF93DF93CDB7DEB762970FB6B3
S1134B00F894DEBF0FBECDBFEE24FF2487011C0145
S1134B106D877E872A01CC24DD24FC01C682D782DE
S1134B20838181FD80C28FEF9FEF90C28D859E852A
S1134B3001968D879E87C0FE63C28F8580538A301D
S1134B40D0F49F85903339F4662029F4C3FC03C064
S1134B50E0E0F1E093C08AE0689E602C1124FF85B8
S1134B606F0E20ED620E67FE02C0EFE76E2EC3FCEF
S1134B705AC2762C58C2960173E0369527957A95D9
S1134B80E1F720FF04C0662011F461E0662E4F8532
S1134B90842F992787FD9095883691058CF5853665
S1134BA091050CF06EC08335910509F493C08435EA
S1134BB09105CCF48B32910509F449C08C329105EE
S1134BC04CF48032910509F446C08332910509F40E
S1134BD04AC010C28D32910509F440C08E3291054D
S1134BE009F444C007C28336910509F450C08436E1
S1134BF091050CF08AC08835910509F4BCC0FAC14E
S1134C008037910509F4B1C08137910584F48C365D
S1134C10910591F18D3691052CF48936910509F4AD
S1134C2074C0E8C18F36910509F49CC0E3C185378F
S1134C30910509F4A2C08637910524F483379105C0
S1134C4071F1D8C18837910509F495C0D3C180E1C9
S1134C5090E0C82AD92AE0E2F0E010C080E890E0B1
S1134C60C82AD92AE0C1E0E4F0E008C088E090E076
S1134C70C82AD92A6624D7C1E4E0F0E0CE2ADF2A84
S1134C80D2C15FE3E52E7A94F3E6FF8744C1F201D3
S1134C9082E090E0480E591EE0807A943CC1F20113
S1134CA082E090E0480E591EA081B1817D0120FF71
S1134CB009C0862D992787FD9095BC01CD010E94DE
S1134CC07B281FC0FD0101900020E9F73197EA1B02
S1134CD0E88B18C0F20182E090E0480E591E019062
S1134CE0F081E02D7F0120FF09C0862D992787FDE3
S1134CF09095BC01CF010E94862803C0CF010E9479
S1134D007228888B9889791A06C1C2FE0AC0F201FA
S1134D1084E090E0480E591E208131814281538104
S1134D200CC0F20182E090E0480E591E808191810E
S1134D309C01442737FD4095542F79018A0157FF80
S1134D400CC0E2E0F0E0CE2ADF2A10950095F09442
S1134D50E094E11CF11C011D111D8FEB9FEFC82293
S1134D60D92227C098E0988B08C0E0E4F0E0CE2A6E
S1134D70DF2AF8E7FF8720E1288BC2FE0AC0F20190
S1134D8084E090E0480E591E208131814281538194
S1134D900AC0F20182E090E0480E591E80819181A0
S1134DA09C014427552779018A01EFECFFEFCE22BD
S1134DB0DF22CE010196898B9A8B9889892E9924BA
S1134DC0AA24BB24C801B701A50194010E94542A56
S1134DD0DC01CB01E989FA8980838A3024F0FF85DC
S1134DE08F0F815201C0805DE989FA898193E98B33
S1134DF0FA8BC801B701A50194010E94542A7901D4
S1134E008A012115310541055105E1F6E98881E062
S1134E1090E08C0F9D1FE81AC60182739070892B55
S1134E2009F07A94C6FE0DC0872D992787FD9095C9
S1134E30E889E03121F44EEF742E780E02C0782E0A
S1134E407A94C3FE0FC0262D332727FD30958E2D6F
S1134E509927821793072CF087EF9FEFC822D92256
S1134E6001C06E18560133E0B694A7943A95E1F761
S1134E70A0FE02C0761801C07E18C6018078917029
S1134E80892B51F4872D7A94181634F4B10180E2F9
S1134E9090E00E943F28F6CFC1FE04C0B1018DE22C
S1134EA090E00BC0C4FE04C0B1018BE290E005C0E9
S1134EB0C5FE05C0B10180E290E00E943F28C6FE15
S1134EC010C0B10180E390E00E943F28988990319E
S1134ED041F4B101EF858E2F992787FD90950E94AB
S1134EE03F288D2D992780FF0AC0872D7A941816A4
S1134EF034F4B10180E390E00E943F28F6CFA0FE95
S1134F000AC0862D6A94181634F4B10180E390E047
S1134F100E943F28F6CF5601AA0CAB2CAA1CBB0852
S1134F20B194A0FC0AC0872D7A94181634F4B10108
S1134F3080E290E00E943F28F6CFFF85F33641F4EB
S1134F408E2DB101992787FD90950E943F2846C078
S1134F502F852337B9F448894150488B4F3F09F4D2
S1134F603DC0F70180810894E11CF11CB10199272F
S1134F7087FD90950E943F2888898150888B8F3FB8
S1134F8081F72CC09F859335A1F4E889E150E88B23
S1134F90EF3F21F1F7018491B10199270E943F2845
S1134FA00894E11CF11CF889F150F88BFF3F91F74C
S1134FB015C06E010894C11CD11C89899A898C156D
S1134FC09D0561F0E989FA898291E98BFA8BB10137
S1134FD0992787FD90950E943F28EFCFA0FE0DC032
S1134FE0872D7A9418164CF4B10180E290E00E9467
S1134FF03F28F6CFB1010E943F28CC24DD2413C002
S11350009F85953241F481E0C82ED12C6624762CFC
S1135010EAE0E88B08C0B101FF858F2F992787FD4F
S113502090950E943F28F101838183FF04C0ED85A0
S1135030FE85F49103C0ED85FE85F081FF872F8501
S1135040222309F073CDF1018681978162960FB610
S1135050F894DEBF0FBECDBFDF91CF911F910F91AA
S1135060FF90EF90DF90CF90BF90AF909F908F9084
S11350707F906F905F904F903F902F9008950F9383
S11350801F93CF93DF938C01EB018B81992781FFD1
S113509022C082FF14C02E813F818C819D812817FC
S11350A039073CF4E881F9810193E883F9832E817F
S11350B03F812F5F3F4F2E833F83C8010EC0E88599
S11350C0F985802F0995892B31F4AE81BF81119622
S11350D0AE83BF83F2CF8FEF9FEFDF91CF911F910C
S11350E00F910895FC0105900020E9F780959095B3
S11350F08E0F9F1F0895FC016150704001900110B4
S1135100D8F7809590958E0F9F1F0895FC016150EC
S1135110704005900110D8F7809590958E0F9F1FD1
S113512008955058192EF7D001D0DAC0BA17620783
S1135130730784079507B1F188F40EF410940B2ECD
S1135140BA2FA02D062E622F202D072E732F302D5F
S1135150082E842F402D092E952F502DFF275523DF
S1135160B9F0591B49F0573E98F046953795279565
S1135170A795F0405395C9F776F0BA0F621F731FD5
S1135180841F30F4879577956795B795F04093958C
S113519017FA0F2E0895BF1BBB27BA0B620B730BB4
S11351A0840BF6CFDEF6D4C0592F482F372F262F85
S11351B09FE380E877276627AED001D091C05523BE
S11351C059F0992369F09F575F57951B33F442F4C4
S11351D0903811F4915805C09BC091589F3F09F431
S11351E0B7C0BB27112462177307840730F4660F16
S11351F0771F881FBB1F915098F311D00F920FD0C7
S11352000F920DD0A0E82617370748071B0609F0B0
S1135210A048BA2F602D7F918F9100240895A0E8B3
S11352200024621773078407B10528F0621B730B0F
S1135230840BB1090A2A660F771F881FBB1FA69526
S113524081F7089597FB73D09F3738F0FEE9F91B77
S1135250982F872F762F6B2F05C077C0969587954B
S113526077956795F150D0F73EF4909580957095B9
S113527061957F4F8F4F9F4F0895E89403C097FB2C
S11352800EF4F3DFB62F672F782F892F9EE90024C1
S113529027C00ED05EF004C00BD026F001C008D0A9
S11352A019F020F48FEF089580E0089581E00895C7
S11352B097FB092E052600F8689430D0E89407FC83
S11352C007C0621773078407950721F008F4009458
S11352D00794989408959A95BB0F661F771F881FAB
S11352E011249923A1F08823B2F79F3F59F0BB0FF3
S11352F048F421F4002011F460FF04C06F5F7F4F75
S11353008F4F9F4F881F9795879597F908951DC0D4
S11353109FEF80EC0895052E092607FA440F551FC8
S11353205F3F79F0AA27A51708F051E04795880F49
S1135330991F9F3F31F0BB27B91708F091E087957B
S113534008959F919F911124E3CF6627772788279B
S113535099270895592F482F372F262FDCDF01D0A6
S1135360BFCF992339F0552329F09F575F57950FE5
S113537013F4CAF1EDCF91589F3FE1F3A62F002417
S11353801124BB2766275527F8E0A69520F4020EC2
S1135390131EB41F651F220F331F441F551FFA9598
S11353A0A1F7F8E0E72F7727F8E0E69520F4130E4D
S11353B0B41F651F7A1F330F441F551FAA1FFA9588
S11353C0A1F7F82F8827F69520F4B40F651F7A1FEC
S11353D08E1F440F551FAA1FEE1FFF23A1F788231A
S11353E01AF4939539F494CF000C111CBB1F661F5B
S11353F0771F881F0128089597FD8ACF482F992386
S1135400F9F195DFF92FFF57F5959F1B9F1BFF932C
S1135410405847953327222740685FE7E894FF9276
S1135420EF92DF92CF92BF92AF929F928F92C92E4A
S1135430D82EE72EF62E6F2D7E2D8D2D9C2D852EAC
S1135440942EA32EB22EBBDE582D492D3A2D2B2D92
S113545011246CDE9A95592F482F372F262FB21618
S1135460A3069406850639F78F909F90AF90BF905E
S1135470CF90DF90EF90FF900F90900D002430CFED
S1135480089597FB092E07260AD077FD04D04DD046
S113549006D000201AF4709561957F4F0895F6F7B1
S11354A0909581959F4F0895A1E21A2EAA1BBB1BCC
S11354B0FD010DC0AA1FBB1FEE1FFF1FA217B307DC
S11354C0E407F50720F0A21BB30BE40BF50B661FF2
S11354D0771F881F991F1A9469F7609570958095B6
S11354E090959B01AC01BD01CF010895629FD0014D
S11354F0739FF001829FE00DF11D649FE00DF11D8B
S1135500929FF00D839FF00D749FF00D659FF00D39
S11355109927729FB00DE11DF91F639FB00DE11D26
S1135520F91FBD01CF0111240895AA1BBB1B51E132
S113553007C0AA1FBB1FA617B70710F0A61BB70BFF
S1135540881F991F5A95A9F780959095BC01CD01A4
S113555008952F923F924F925F926F927F928F9213
S11355609F92AF92BF92CF92DF92EF92FF920F93EE
S11355701F93CF93DF93CDB7DEB7CA1BDB0B0FB6F8
S1135580F894DEBF0FBECDBF09942A8839884888B5
S11355905F846E847D848C849B84AA84B984C8844B
S11355A0DF80EE80FD800C811B81AA81B981CE0F42
S11355B0D11D0FB6F894DEBF0FBECDBFED01089527
S11355C00100FFFFFFFF22001A010304FFFF01FF98
S11355D0FFFFFFFFFFFFFF010054454D502000482F
S11355E0554D4944005552656420002573204156A9
S11355F047205374446576200025346420253464A0
S11356002025366400256420433332385F526573A5
S113561065745F54696D65723A25640D0A002564EA
S1135620206D79417070547970653A25582C206D3D
S1135630794F7074547970653A25580D0A00544CAA
S113564043442053573A25640D0A002564206765B6
S11356507453466972655F423A25640D0A002564F5
S11356602067657453466972655F4C3A25582C204F
S11356705365713A25640D0A0025642067657453E7
S1135680466972655F533A25640D0A002564205209
S11356902D476574532D434D445B25645D0D0A000D
S11356A0256420522D53432D434D442121205B2555
S11356B0642C2025642C2025645D0D0A00256420BB
S11356C0522D4F432D434D442121205B25642C2032
S11356D025642C2025645D0D0A0025642072656311
S11356E07620535542434D44315F4641494C0D0A9F
S11356F000256420726563762070617273696E6739
S11357005F636F6E74726F6C0D0A002564207061A4
S11357107273696E675F6C6F6E6744543A25640DEB
S10557200A0079
S9030000FC
