S01900006275696C642F7A69676265782F6D61696E2E737265636F
S11300000C946C000C94481E0C94521E0C947A1E92
S11300100C94841E0C948E1E0C94981E0C94A21E98
S11300200C94D21E0C9489000C9489000C94A42284
S11300300C94E8210C948E220C9493230C94C61DEA
S11300400C94061E0C94B4230C94411F0C94890048
S11300500C944F1F0C94DC1E0C9489000C948900A2
S11300600C9499220C9489000C9489000C948900B6
S11300700C9489000C9489000C94A01F0C948900A2
S11300800C9497210C9489000C9489000D134C1442
S11300905614E914531558158A15DF1552166316AC
S11300A0D916F716F61B041790176518A318D71856
S11300B0E918FB1865196C197219A319081A311A71
S11300C0811A8B1A8F1AA91AB01AC11AD01A8B1B4B
S11300D0EA1B00081C18141011241FBECFEFD0E136
S11300E0DEBFCDBF12E0A0E0B1E0E0E5F9E500E05D
S11300F00BBF02C007900D92A03BB107D9F717E0E0
S1130100A0EBB2E001C01D92AC32B107E1F70C9450
S1130110381C0C9400008FB7F894992708958FBF6A
S11301200895982F8FB7F894282FE92FFF27EA54C2
S1130130F94F80818F3FB1F48091DC06891791F0EB
S11301408091B1068F3F19F49093B10607C0809156
S1130150DC06E82FFF27EA54F94F90839093DC06DE
S113016080E001C085E02FBF99270895FC018081BC
S11301708C5099270895FC0187819927382F2227CD
S113018086819927822B932B0895882311F06E9AE8
S113019008956E9808958091B302882319F480E03D
S11301A090E0089581E090E008952F923F924F925D
S11301B05F926F927F928F929F92AF92BF92CF92F3
S11301C0DF92EF92FF920F931F93CF93DF93CDB7FC
S11301D0DEB72A970FB6F894DEBF0FBECDBF8FB738
S11301E0F894282F332729873A87209026043090C3
S11301F02704409028045090290466245EE4A52E28
S113020043E8B42EC62CD62CE62CF62C062D162D3F
S1130210222D332D442D552D662D762D862D962D8C
S11302200E94562529833A834B835C836D837E83A6
S11302308F839887822E932EA42EB52EC62ED72E6A
S1130240E82EF92E24013501769467945794479447
S113025000E2282D392D4A2D5B2D6C2D7D2D8E2D00
S11302609F2D0E946026A22EB32EC42ED52EC60129
S1130270B501640D751D861D971D97FF05C09F77F9
S11302806F5F7F4F8F4F9F4F6093260470932704B7
S1130290809328049093290439853FBF2A960FB68A
S11302A0F894DEBF0FBECDBFDF91CF911F910F91A8
S11302B0FF90EF90DF90CF90BF90AF909F908F9082
S11302C07F906F905F904F903F902F900895EF92A2
S11302D00F931F93AE2D99E0899FF0011124EE5FD7
S11302E0FC4F408351836283738304831583268385
S11302F03783A17080858E7F8A2B8260808786E019
S11303000E9491001F910F91EF900895CF93DF9376
S11303108FB7F894682F7727A0918B05B0918C053F
S1130320C0918D05D0918E0582B706B600FE04C03B
S11303301196C11DD11D82B7282F33274427552775
S113034088279A2FAB2FBC2F822B932BA42BB52B52
S11303506FBFBC01CD01DF91CF9108950E9486014A
S1130360DC01CB01BC01CD010895AF92BF92CF92C5
S1130370DF92EF92FF920F931F93F82E5A016B01B5
S11303800E948601DC01CB01E1E0EE2E960185019D
S1130390AC01BD018F2D0E9467011F910F91FF9049
S11303A0EF90DF90CF90BF90AF900895AF92BF923F
S11303B0CF92DF92EF920F931F935B016C010E9427
S11303C08601DC01CB01F1E0EF2E96018501AC0141
S11303D0BD0180E00E9467011F910F91EF90DF90B3
S11303E0CF90BF90AF9008958FB7F894682F772778
S11303F08091B3039091B4032CB53DB506B602FECB
S113040003C001962CB53DB5AA27BB274427552721
S1130410DC0199278827822B932BA42BB52B6FBF44
S1130420BC01CD010895282F869586958695E82FE1
S1130430FF27EB54FC4F277081E090E002C0880F47
S1130440991F2A95E2F720812823822F992708955E
S1130450FF920F931F93CF93DF93082F8FB7F894D6
S1130460F82E8091C702833009F054C080910A01AC
S1130470801709F04FC08091B503882309F03EC06E
S113048081E090E0892BE9F51091C802C12FDD27A6
S11304902196C330D10511F4C0E0D0E08C2F0E9426
S11304A01302882381F4812F9927C817D90781F76C
S11304B08FEF90E080931B0581E08093C70286E173
S11304C00E94910024C08C2F869586958695E82FEE
S11304D0FF27EB54FC4F2C2F277081E090E002C0E3
S11304E0880F991F2A95E2F7982F90958081892388
S11304F08083C093C8028C2F9927DCCF80E090E0E2
S1130500C1CF83E080930A011092C7023798002379
S113051009F4C698FFBE81E090E0DF91CF911F916E
S11305200F91FF9008951F93CF93DF93C82F8FB738
S1130530F894282F3327122F8091C702882301F1C2
S11305408C2F0E9413028823B1F48C2F86958695F4
S11305508695E82FFF27EB54FC4FC77081E090E0AD
S113056002C0880F991FCA95E2F72081282B2083A7
S113057080E090E002C085E090E01FBF992719C099
S113058081E08093C702C0931B052FBF8FB7F894F7
S11305909927379A8FBF8FB7F894C82FDD2780919A
S11305A00A01833019F486E10E949100CFBF80E0F4
S11305B090E0DF91CF911F91089520911306822F2F
S11305C099278130910559F0823091051CF40097E8
S11305D031F004C0029711F481E001C08FE1582F7B
S11305E0822F99278130910541F0823091051CF4C6
S11305F0892B19F004C0029711F428E001C020E00F
S113060033278FB7F894E82F8091D9068E7F809393
S1130610D906322F27B160E070E0922F929596951B
S11306209695937080E0891749F4852F8850863118
S113063018F42F71521711F461E070E0862F880FBF
S11306402091D9062D7F282B852F8F71982F990FF4
S1130650990F2378292B2093D9068062992787B98B
S1130660406C21702295220F207E4F7D422B4861E1
S1130670383059F58091990590919A0521E0863892
S1130680920718F087E090E01FC0833C910518F0B2
S113069086E090E019C08136910518F085E090E07D
S11306A013C08033910518F084E090E00DC08831C8
S11306B0910518F083E090E007C00C9718F082E0F1
S11306C090E002C080E090E0382F3770487F432BE1
S11306D0842F992786B9EFBF0895AF92BF92CF9226
S11306E0DF92EF920F931F935B016C010E948601CE
S11306F0DC01CB01E1E0EE2E96018501AC01BD01E8
S11307008BE00E9467011F910F91EF90DF90CF90D3
S1130710BF90AF90089580E00E94930299270895B6
S113072097E087FF02C0919A01C09198880F909A30
S11307309098915097FFF5CF0895982F8FB7F8941C
S1130740282F89B78D7F89BF82E088BF80916A0096
S1130750886080936A00992321F080916A00846004
S113076003C080916A008B7F80936A0089B782609E
S113077089BF2FBF80E090E008952F923F924F925F
S11307805F926F927F928F929F92AF92BF92CF921D
S1130790DF92EF92FF920F931F938B01882309F04E
S11307A0DDC08FB7F8949927709308066093070605
S11307B08FBFE0909403F0909503CB01AA2797FD97
S11307C0A095BA2FBC01CD010E941A2B3B014C010C
S11307D017FF08C020E030E040E857E40E946D2A8B
S11307E03B014C01C701AA2797FDA095BA2FBC0174
S11307F0CD010E941A2BF7FE06C020E030E040E84D
S113080057E40E946D2A2AE037ED43E25CE30E943C
S1130810892BDC01CB0120E030E040E252E4BC0152
S1130820CD010E946C2A1B012C0122EA37EE4BE316
S113083056EBC401B3010E94892BDC01CB01A40156
S11308409301BC01CD010E94892B7B018C0124E51D
S113085033EE45E25DE3C401B3010E94892BDC0160
S1130860CB019C01AD01C801B7010E946D2ADC01D6
S1130870CB0120E030E040E850ECBC01CD010E9407
S11308806D2A5B016C0120E030E048EC51E4C201C8
S1130890B1010E946C2A7B018C012CEA35EC47EAF9
S11308A058E3C401B3010E94892BDC01CB012AE087
S11308B037ED43E25CE3BC01CD010E946D2ADC010B
S11308C0CB019C01AD01C801B7010E94892BDC0159
S11308D0CB01A6019501BC01CD010E946D2A7B01CB
S11308E08C0120E030E048EC52E40E94272B1816DB
S11308F054F40F2EF0E0EF2EF0E0FF2EF8EC0F2F63
S1130900F2E41F2FF02D2DEC3CEC4CEC5DE3C80120
S1130910B7010E94242B882354F40F2EFDECEF2EF4
S1130920FCECFF2EFCEC0F2FFDE31F2FF02DC2017A
S1130930B1010E94FD2ADC01CB0190939C058093B8
S11309409B05C801B7010E94FD2ADC01CB019093ED
S113095098038093970382E00E9493021F910F9162
S1130960FF90EF90DF90CF90BF90AF909F908F90CB
S11309707F906F905F904F903F902F900895982FA5
S11309808FB7F894282F3327422F8091CB028823E6
S113099001F1E92FFF27EE51F94F80818F3FA1F438
S11309A0E0910C01E91781F080910D018F3F19F45A
S11309B090930D0104C0FF27EE51F94F908390935B
S11309C00C0180E090E002C085E090E04FBF9927E1
S11309D0089541E04093CB0290939B042FBF8091F4
S11309E0CA02882321F484E10E94910002C040934A
S11309F0C90280E090E00895882359F48FB7F894F1
S1130A00992770939503609394038FBF83E00E94AA
S1130A10BF04089530E0232F909A80B399279695C8
S1130A20879580FD3160273009F0330F90982F5F50
S1130A30283090F3899A9198909A90988998919AED
S1130A40832F99270895899A919A909A9098089556
S1130A50AF92BF92CF92DF92EF92FF920F931F93C8
S1130A60F82E5A016B010E948601DC01CB01EE24B1
S1130A7096018501AC01BD018F2D0E9467011F9174
S1130A800F91FF90EF90DF90CF90BF90AF900895BB
S1130A9090918C06980F909392039F3F11F41092BB
S1130AA092030895282F8FB7F89499272CB95E9A4A
S1130AB08FBF0895AF92BF92CF92DF92EF92FF92D1
S1130AC00F931F935B016C01A1E0FA2E0E94860133
S1130AD0DC01CB01EF2C96018501AC01BD018F2D0A
S1130AE00E9467011F910F91FF90EF90DF90CF90CC
S1130AF0BF90AF900895AF92BF92CF92DF92EF92E2
S1130B000F931F935B016C010E948601DC01CB01F2
S1130B1011E0E12E96018501AC01BD0182E00E9445
S1130B2067011F910F91EF90DF90CF90BF90AF902E
S1130B300895AF92BF92CF92DF92EF920F931F93DB
S1130B405B016C010E948601DC01CB0101E0E02E17
S1130B5096018501AC01BD0183E00E9467011F91EC
S1130B600F91EF90DF90CF90BF90AF900895CF9307
S1130B70982F8FB7F894C82F8091CB028330A1F5BA
S1130B8080910B01891781F520E030E080910D01FF
S1130B908F3F11F421E030E0232BD9F48F3F81F013
S1130BA0282F3327F901EE51F94F808180930D01ED
S1130BB08F3F11F480930C018FEF8083C90102C031
S1130BC08FEF90E080939B0481E08093CB0283E1DC
S1130BD009C084E080930B011092CB0281E08093E2
S1130BE0CA0285E10E949100CFBF81E090E0CF91DD
S1130BF0089580E8809393031092FE0510928A056D
S1130C001092DE060895CF93DF93CDB7DEB76797D2
S1130C100FB6F894DEBF0FBECDBF282FDB0189E0ED
S1130C20898389E090E08A839B8385E090E08C83CC
S1130C309D83222311F0213009F42E8380E1FE01EB
S1130C4038960D9001928A95E1F787E1DE011196BD
S1130C50E5E9F6E00D9001928A95E1F78EE00E94B5
S1130C60910067960FB6F894DEBF0FBECDBFDF913B
S1130C70CF910895DA988091930590919405AA27CD
S1130C80BB27BC01CD010E9499050895D998809194
S1130C90950590919605AA27BB27BC01CD010E941A
S1130CA05A050895D8988091970590919805AA2798
S1130CB0BB27BC01CD010E947B050895982F80912C
S1130CC0B803882319F481E08093B8039093200536
S1130CD070934D0460934C04509322044093210478
S1130CE030931D0520931C05089590918B0399233F
S1130CF0C1F4682F77276115710511F461E070E084
S1130D0060931D0480E797E10E941C2CCB01709333
S1130D10940560939305AA27BB27AC01BD0186E027
S1130D2019C09130D1F4682F77276115710511F43A
S1130D3061E070E060931E0480E797E10E941C2C40
S1130D40CB017093960560939505AA27BB27AC0148
S1130D50BD0184E00E94280508959230D9F4682FDB
S1130D6077276115710511F461E070E060931F0449
S1130D7080E797E10E941C2CCB0170939805609347
S1130D80970596958795AA27BB27AC01BD0185E0F9
S1130D900E9428050895AF92BF92CF92DF92EF92FE
S1130DA0FF920F931F93CF93DF930E948601FC0160
S1130DB0EB01209193043091940440919504509157
S1130DC096047B018C01E21AF30A040B150B1092B2
S1130DD0980480912A0490912B04A0912C04B09142
S1130DE02D04E816F9060A071B07C0F0EE24FF24B9
S1130DF08701280F391F4A1F5B1F209393043093E8
S1130E0094044093950450939604E0922A04F0923B
S1130E102B0400932C0410932D0463C05C016D011A
S1130E20AE18BF08C00AD10A8601750161E0A61692
S1130E3061E0B60660E0C60660E0D60690F080E0A9
S1130E40A81680E0B80681E0C80680E0D80610F055
S1130E508FEF04C0BB27AD2D9C2D8B2D8093980460
S1130E6058C061E8A616B104C104D10430F1C058D9
S1130E70DF4FEF4FFF4FC0939304D0939404E0935C
S1130E809504F0939604C058D040E040F04080E8C8
S1130E909FEFAFEFBFEFE80EF91E0A1F1B1FE09292
S1130EA02A04F0922B0400932C0410932D0430E8B0
S1130EB0E32EF12C012D112D14C0280F391F4A1FC8
S1130EC05B1F2093930430939404409395045093B0
S1130ED0960410922A0410922B0410922C0410925F
S1130EE02D046E2D82B7282F8C1B8E5F8E1518F063
S1130EF0622F6E5F01C06C0F662309F461E06150DC
S1130F0000B601FCFDCF61BF82E086BF87B7826077
S1130F1087BFDF91CF911F910F91FF90EF90DF90EA
S1130F20CF90BF90AF9008950F931F93DC01CB0136
S1130F306FB7F894062F1127809393049093940429
S1130F40A0939504B093960420932A0430932B0421
S1130F5040932C0450932D040E94CB060FBF1F9185
S1130F600F910895982F8FB7F894282F33279093D3
S1130F709C0080919B00806480939B002FBF089508
S1130F809C018091C4029091C5028036910520F0A5
S1130F901092C5021092C4026623E1F0D901809137
S1130FA0C2029091C3028036910520F01092C302D0
S1130FB01092C2028091C2029091C302FC01E354D8
S1130FC0FC4F2D91208301969093C3028093C2021B
S1130FD0615029F78091C602882361F481E08093EF
S1130FE0C602E091C402F091C502E354FC4F808133
S1130FF00E94B2070895CF93DF93D9019EE790939F
S11310009B039093B20329E030E030939D03209337
S11310109C03992790939F0380939E036093A0035E
S11310204093A103E2EAF3E080E1EF010D9009921D
S11310308A95E1F7379760919406CF010E94C00723
S1131040DF91CF9108959EE790939B039093B20311
S113105022E030E030939D0320939C0399279093E2
S11310609F0380939E031092A003609194068BE9E2
S113107093E00E94C0070895AF92BF92CF92DF928F
S1131080EF92FF920F931F93CF93DF930E94F4018B
S1131090FC01EB0180912E0490912F04A091300467
S11310A0B0913104A090AC06B090AD06C090AE06ED
S11310B0D090AF069C01AD012A0D3B1D4C1D5D1D5A
S11310C079018A01EC1AFD0A0E0B1F0BC817D90708
S11310D0EA07FB0730F0281739074A075B0770F067
S11310E005C0281739074A075B0728F4C217D30736
S11310F0E407F50718F0EE24FF24870121E0E21647
S113110020E8F20620E0020720E0120730F1C05088
S1131110D048EF4FFF4FC0932E04D0932F04E09399
S11311203004F0933104C050D048E040F04080E0F7
S113113090E8AFEFBFEFE80EF91E0A1F1B1FE09205
S1131140AC06F092AD060093AE061093AF06E12C08
S113115050E8F52E012D112D14C08A0D9B1DAC1DD8
S1131160BD1D80932E0490932F04A0933004B0935C
S113117031041092AC061092AD061092AE06109295
S1131180AF06B7012CB53DB5C9018C1B9D0B039669
S11311908E159F0520F0B9016D5F7F4F02C06C0F63
S11311A07D1F6115710511F461E070E061507040BC
S11311B07BBD6ABD80E186BF87B7806187BFDF9151
S11311C0CF911F910F91FF90EF90DF90CF90BF9040
S11311D0AF900895CF92DF92EF92FF920F931F93F7
S11311E07B018C010E94F401DC01CB012FB7F89440
S11311F0C22EDD2480932E0490932F04A0933004F8
S1131200B0933104E092AC06F092AD060093AE06C2
S11312101093AF060E943C08CFBE1F910F91FF9020
S1131220EF90DF90CF900895CF92DF92EF92FF92EC
S11312300F931F93CF938FB7F894C82F0E94D500B4
S1131240DC01CB019C01277030702F5F3F4F49F1C7
S1131250C90163E0880F991F6A95E1F7820F931F14
S1131260820F931F7C01002711270E94F401DC01E7
S1131270CB012FB7F894C22EDD2480932E049093D3
S11312802F04A0933004B0933104E092AC06F092A2
S1131290AD060093AE061093AF060E943C08CFBE85
S11312A006C081E090E09093B2028093B102CFBF78
S11312B0CF911F910F91FF90EF90DF90CF90089501
S11312C097B79F7D97BF90E296BF882319F08EB59C
S11312D0806402C08EB58F7B8EBD87B7806287BF66
S11312E080E090E008958FB9779BFECF8FB1992766
S11312F008950E947309992708950F931F938B01F2
S11313000E947309812F99270E947309802F0E94DC
S1131310730999271F910F910895DF92EF92FF921D
S11313200F931F93CF937A01C22FDD248C01060FF4
S1131330111D802F80680E94730916950795802FD0
S1131340807C0E947309CC2341F0F70181917F01D5
S11313500E947309D82EC150F6CF8D2D9927CF91B5
S11313601F910F91FF90EF90DF900895882311F063
S11313706F9A08956F9808951F9310E0812F0E942B
S1131380C500BA9ABB98B99AB89A6C9AC098812F3A
S11313900E94B609709A6B986A98689881E00E94D6
S11313A0C5001F9108950F931F93CF93082F8FB7F4
S11313B0F894282F3327122F8091B502882321F027
S11313C02FBF85E090E021C09091B302992341F4AE
S11313D082E08093B3029093030180E090E002C026
S11313E081E090E09927C82F882311F40E94BC095A
S11313F08C2F9927282F882329F40093060181E054
S11314008093B5021FBF822F9927CF911F910F910F
S11314100895CF93C82F0E94CB00882311F40E9413
S1131420BC098091B302882359F481E08093B3020C
S1131430C093000680E20E94910080E090E01EC00C
S1131440EC2FFF27E157FC4F80818F3FA1F4E091FF
S11314500401EC1781F0809105018F3F19F4C093CA
S1131460050104C0FF27E157FC4FC083C09304016A
S113147080E090E002C085E090E099279927CF9121
S11314800895CF93282F8FB7F894C82F9091B50261
S1131490992369F081E090E002C0880F991F2A9592
S11314A0E2F72091B402282B2093B40208C02093C1
S11314B0060181E08093B502892F0E94090ACFBFFB
S11314C080E090E0CF910895CF9382E00E94D30909
S11314D09927C82F882319F082E00E94410A8C2F93
S11314E09927CF9108951F93CF93DF93982F8FB7A8
S11314F0F894282F3327122F80910601891721F0A1
S11315002FBF81E090E071C04FEF409306018091BE
S1131510B302823009F03FC0909103019923D9F5B9
S113152020E030E080910501841711F421E030E0DF
S1131530232B69F58F3F79F0282F3327F901E157E1
S1131540FC4F8081809305018F3F11F44093040187
S11315504083C90102C08FEF90E08093000681E0D0
S11315608093B30280E20E94910015C0209306018B
S113157081E090E002C0880F991F4A95E2F78095B8
S113158038233093B40280E00E94090A2BC04093B0
S113159003019093B3020E94CB00C82FDD27CC2314
S11315A031F48C2F0E94C500C093DD06C09A30919F
S11315B0B4023323A9F0209106012F5F632F77270C
S11315C0243008F020E0422F5527CB01042E02C01E
S11315D0959587950A94E2F780FDC8CF2F5FF0CFE9
S11315E01092B5021FBF80E090E0DF91CF911F9170
S11315F0089582E00E94730A99270895CF93C1E069
S1131600C09880919704882311F085E001C084E09C
S11316100E94730983FD05C080E00E94730983FD65
S1131620C0E08FB7F894CC2319F023E030E002C077
S113163025E030E03093B2022093B1028FBFC09A0C
S1131640CC2329F082E00E94730A0E941409CF91EE
S113165008958F929F92AF92BF92CF92DF92EF92B2
S1131660FF920F931F93CF93DF938FB7F894C0909B
S11316709904D0909A048090900390909103C09123
S1131680B903D091BA03AE01465F5F4F20911106B2
S1131690309112062417350708F09A018FBF5901BB
S11316A00894A108B108CA15DB05E8F47E01E80C2A
S11316B0F91C8E010C0D1D1DC114D10419F0F80183
S11316C0808101C080E00E9473098114910411F0AB
S11316D0F701808321960F5F1F4F0894E11CF11CD2
S11316E0CA15DB0548F381E00E94B6098FB7F89468
S11316F0982FC114D10431F0CC0EDD1EF601808187
S11317008FB901C01FB8D093BA03C093B9039FBF68
S113171080E090E0DF91CF911F910F91FF90EF90C7
S1131720DF90CF90BF90AF909F908F9008959C01D1
S11317308FB7F894992730939A042093990470935F
S113174091036093900350931206409311061092F4
S1131750BA031092B9038FBF8FB10E94290B992746
S113176008950F931F93C0980091000310910103F3
S11317708FE790E09093430680934206809142065F
S11317800E94730941E050E0B80180E090E00E94BB
S1131790970B1F910F91089582E090E09093240499
S11317A08093230483E00E94D309882319F40E94C0
S11317B0B10B089583E00E94410A0895CF938FB737
S11317C0F894282F3327C22F809123049091240466
S11317D0892B11F42FBF26C02091DE06222341F06D
S11317E080E090E0B79B02C081E090E0892B49F44F
S11317F081B19927F6E096958795FA95E1F780FDF2
S113180008C0222319F021502093DE060E94CC0B3D
S113181008C081E090E09093240480932304109204
S1131820DE06CFBFCF9108951F93CF93DF93C0916E
S11318304E04D0914F048FA19927182F882309F4BF
S11318401FE1C0988091B006811741F0812F99273C
S1131850806E9068BC0185E10E947D091093B006FA
S1131860188111508EE390E09093430680934206D2
S1131870809142060E947309812F9927AC0160E090
S113188070E0CE010E94970BDF91CF911F910895D4
S1131890CF93DF93DA01EA018A876E83872F992732
S11318A08F8382E290E08C8360E070E06D83245F3C
S11318B08FB7F894482F55278091BA02833021F0CE
S11318C04FBF81E090E059C085E08093BA02B093A5
S11318D0DB06A093DA0680918F068F5F80938F06D4
S11318E0FD0183834FBF2193ED0189819927807284
S11318F090708983892F992781839927982F882726
S113190029813327822B932B816498688983892FBB
S11319109927818380910101909102018887892F01
S1131920992789876BA768A769A71DA66CA740910B
S1131930DA065091DB068FB7F894282F332780916D
S1131940B1029091B202019711F02FBF14C082E04E
S113195090E09093B2028093B10281E08093970467
S113196050934F0440934E042FBF0E94640A88236F
S113197011F40E94140C80E090E09927DF91CF913C
S11319800895CF92DF92EF92FF920F931F932091CD
S113199000012F3F09F420E03327C90101962817DD
S11319A0390748F480918C0390918D03892B19F0A9
S11319B01092000103C08FEF80930001E0910001B9
S11319C0EF3FF1F0FF27EE0FFF1FE457FC4F0081BC
S11319D01181F8018285C82EDD24C8010E94BB0054
S11319E07C01C8010E94B6009927282FA801B701DD
S11319F08C2D0E94480C882319F082E20E949100E9
S1131A001F910F91FF90EF90DF90CF9008958998E8
S1131A10919A909A80B399279695879580FF03C0F1
S1131A2081E090E00895909880E090E00895AF926E
S1131A30BF92CF92DF92EF920F931F935B016C01E1
S1131A400E948601DC01CB0161E0E62E960185014E
S1131A50AC01BD018CE00E9467011F910F91EF90D2
S1131A60DF90CF90BF90AF9008951F93889A90987D
S1131A708998919A89B78D7F89BF899A919A90980C
S1131A8088E0909A9098815087FFFBCF899A919A29
S1131A909098909A91989098909A919A9098809111
S1131AA0E0069091E1068F7190709093E106809327
S1131AB0E0068091E0060E9490030E94070D8823AF
S1131AC029F01092CE0281E090E048C02091E00617
S1131AD03091E1062630310561F12730310538F4C3
S1131AE02330310579F02530310561F035C02730D8
S1131AF0310599F02E31310579F56BE070E080E025
S1131B0090E008C08998919A0E949D036EE571E067
S1131B1080E090E00E94170D1FC00E940A05182F54
S1131B200E940A050E9423051093CD0281E10E94C0
S1131B30910080911E050E9490030E94070D882346
S1131B4021F081E08093CC0204C080911E05809333
S1131B50CD0281E10E94910080E090E01F91089500
S1131B60282F80910E01882319F484E090E00895D1
S1131B708091CE02882319F085E090E0089581E0F9
S1131B808093CE0283E090E09093E1068093E00698
S1131B902093B2060E94350D99270895282F80912D
S1131BA00E01882319F484E090E008958091CE0218
S1131BB0882319F085E090E0089581E08093CE02B7
S1131BC085E090E09093E1068093E0062093B206CE
S1131BD00E94350D992708951F93CF93DF93162FF5
S1131BE0EA01992781309105E9F0823091051CF4CE
S1131BF0892B21F017C0029771F014C080E00E9475
S1131C00B705112321F4D0931601C093150181E087
S1131C100E94BF0407C082E00E94B705BE01812F65
S1131C200E94FC04DF91CF911F9108951F93CF93DD
S1131C30DF93162FEA0199278130910549F082300C
S1131C409105CCF082309105B1F0039769F013C08F
S1131C5081E00E94B705112321F4D0931401C093AD
S1131C6013010E948B0307C083E00E94B705BE01E5
S1131C70812F0E94BD03DF91CF911F9108952F9270
S1131C803F924F925F926F927F928F929F92AF9208
S1131C90BF92CF92DF92EF92FF920F931F93CF9355
S1131CA0DF93CDB7DEB7E5970FB6F894DEBF0FBE6E
S1131CB0CDBF1B012C011DAAAA24BB2492E0892EAE
S1131CC093E0992EF401608561FF6BC3208131811B
S1131CD042815381D201C101821B930BA40BB50B2A
S1131CE0E480F580068117818E159F05A007B10752
S1131CF008F457C360FF03C06D7F60870AC02E0DD0
S1131D003F1D401F511FD4012D933D934D935C9370
S1131D101397B6E0AB16B10409F485C0E7E0AE163C
S1131D20B104DCF4F2E0AF16B10409F446C083E078
S1131D30A816B10444F4A114B10499F191E0A916D0
S1131D40B104C9F12EC3A4E0AA16B104D1F1B5E0DF
S1131D50AB16B1040CF04EC032C0EAE0AE16B104CA
S1131D6009F4F4C1FBE0AF16B1045CF488E0A816F2
S1131D70B10409F4E3C199E0A916B1040CF032C22C
S1131D806BC0ACE0AA16B10409F44CC2BCE0AB16BB
S1131D90B1040CF429C2EEE0AE16B10409F469C230
S1131DA000C382E00E94BF0460E47FE180E090E031
S1131DB00E94D601F6C2D99AF4C2D89AF2C2DA9A2B
S1131DC0F0C2D9988091950590919605AA27BB27D2
S1131DD0BC01CD010E945A0580911E04815080935C
S1131DE01E04882309F0DDC280912E038D7F809329
S1131DF02E03D7C2D8988091970590919805AA2769
S1131E00BB27BC01CD010E947B0580911F0481503A
S1131E1080931F04882309F0C4C2809137038D7F07
S1131E2080933703BEC2DA9880919305909194050C
S1131E30AA27BB27BC01CD010E94990580911D04EE
S1131E40815080931D04882309F0ABC28091400324
S1131E508D7F80934003A5C28091B8038823A1F4A9
S1131E609091FC02992381F4AE014F5F5F4F80E1B2
S1131E7029E131E0DA01F90101900D928A95E1F747
S1131E80BA01892F0E9403068091B803813009F0BA
S1131E9073C08091FD02882309F042C0809120051F
S1131EA0882329F489E2682E81E0782E1BC08130D2
S1131EB029F40EE2602E01E0702E14C0823029F461
S1131EC014E3612E11E0712E0DC0833029F4B9E3BF
S1131ED06B2EB1E07B2E06C0843021F4AEE36A2E73
S1131EE0A1E07A2E7F926F9286E491E09F938F9384
S1131EF08E010F5F1F4F1F930F930E9415278DB7FD
S1131F009EB706960FB6F8949EBF0FBE8DBFB8015C
S1131F108091FD020E94030681E08093FD022CC0A3
S1131F2080911C0590911D059F938F9380912104AE
S1131F30909122049F938F9380914C0490914D042F
S1131F409F938F9385E591E09F938F938E010F5F0D
S1131F501F4F1F930F930E941527ADB7BEB71A9654
S1131F600FB6F894BEBF0FBEADBFB8018091FD029D
S1131F700E9403061092FD028091B803823009F09A
S1131F8051C08091FE028E010F5F1F4F882349F5D7
S1131F9080918F0590919005A0919105B091920543
S1131FA0BF93AF939F938F9381E691E09F938F9319
S1131FB08BE691E09F938F931F930F930E941527B5
S1131FC0EDB7FEB73A960FB6F894FEBF0FBEEDBF5D
S1131FD0B8018091FE020E94030681E08093FE0214
S1131FE021C08091BB039091BC039F938F9384E79E
S1131FF091E09F938F938EE791E09F938F931F932C
S11320000F930E9415278DB79EB708960FB6F894C4
S11320109EBF0FBE8DBFB8018091FE020E940306D1
S11320201092FE028091B803833009F0BAC1809106
S1132030FF028E010F5F1F4F26E831E0882309F06D
S11320403FC08091080699279F938F93809107063C
S113205099279F938F938091060699279F938F9337
S11320608091050699279F938F9380910406992761
S11320709F938F938091030699279F938F938091C9
S1132080020699279F938F938091010699279F9326
S11320908F933F932F931F930F930E941527ADB7F0
S11320A0BEB754960FB6F894BEBF0FBEADBFB8010D
S11320B08091FF020E94030681E08093FF0271C1B8
S11320C08091100699279F938F9380910F069927EB
S11320D09F938F9380910E0699279F938F9380915E
S11320E00D0699279F938F9380910C0699279F93B0
S11320F08F9380910B0699279F938F9380910A0663
S113210099279F938F938091090699279F938F9383
S11321103F932F931F930F930E941527EDB7FEB79C
S113212074960FB6F894FEBF0FBEEDBFB801809150
S1132130FF020E9403061092FF0233C182E08093E3
S11321408E0382E180939D0589E029C180918C06EC
S11321508F5F80938C068F3F11F410928C069091C0
S11321608C0680919203981709F01BC18091CF02CD
S113217099279F938F9380911701909118019F93B2
S11321808F938FE991E09F938F938AE695E09F93D5
S11321908F930E9415278DB79EB708960FB6F894B3
S11321A09EBF0FBE8DBF8091CF028630B8F48F5F83
S11321B08093CF028630B0F0FE01B19680E1DF015A
S11321C01D928A95E9F79F0140E065E180919D05A4
S11321D00E94FB078EE10E944805E3C01092CF02E3
S11321E01092D4028DE0DBC08FB7F894082F11272A
S11321F0902F80910B01843099F48091CB0281302F
S113220021F483E10E94910009C0823049F4809155
S11322109B0480930B0183E08093CB020FBFC1C06A
S11322209FBFBFC08091E0069091E1068530910583
S1132230B1F08630910518F4039739F0B2C04E9787
S113224009F0AFC01092CE02ACC01092CE0240E0B2
S113225050E061E08091B2060E94EC0DA2C01092A1
S1132260CE0240E050E061E08091B2060E94160E7A
S113227098C08FB7F8949927D090B602DD2011F05A
S11322808FBF8FC08FBF80B39927F6E0969587954F
S1132290FA95E1F7C82EB1E0CB2280912105909107
S11322A08A03891709F478C0C91609F075C084E057
S11322B090E09093B8028093B702809107019091C7
S11322C0080189AB892F99278AAB8091B406909134
S11322D0B5068BAB892F99278CAB8FB7F8949927C8
S11322E01B2FB093B6028FBF8FE10E94910060E074
S11322F070E08DE10E947D0924E0AE014F5C5F4FE8
S11323006D2D88E691E00E948D09C09AC0988FB720
S1132310F894E82EFF24812F0E94600901E010E068
S11323201093B2020093B102D092B002D092B006E0
S1132330EFBE8FB7F894E82EFF240E94F90510939E
S113234024040093230489B78F7B89BF80E488BF6A
S11323508AB780628ABF8AB78F7E8ABF89B7806452
S113236089BFEFBE8FB7F894082F11278091B70269
S11323709091B802049719F483E00E9473090FBF87
S11323808FB7F894082F1127C09A80E00E94730A2F
S11323900FBF8AE10E949100C09221058EE10E9444
S11323A09100EDA9EF5FEDAB89E090E0880E991EF6
S11323B00894A11CB11CEF3008F484CC86E00E9480
S11323C09100E5960FB6F894DEBF0FBECDBFDF9146
S11323D0CF911F910F91FF90EF90DF90CF90BF901E
S11323E0AF909F908F907F906F905F904F903F90B1
S11323F02F9008952F923F924F925F926F927F9207
S11324008F929F92AF92BF92CF92DF92EF92FF9200
S11324100F931F93CF93DF93CDB7DEB726970FB6F5
S1132420F894DEBF0FBECDBF4C01062FC401AA270E
S113243097FDA095BA2F89839A83AB83BC83BC0193
S1132440CD010E941A2B97FE06C020E030E040E840
S113245057E40E946D2A11271801220C331C220C08
S1132460331C3DEEA32E32E0B32EA20CB31CD501D7
S1132470CD90DD90ED90FC90A70196010E946C2A0E
S11324802B013C01F801E750FD4F10811F5F1083C1
S1132490E12FFF27ED83FE83CF01AA2797FDA095A7
S11324A0BA2FBC01CD010E941A2BDC01CB019C0187
S11324B0AD01C301B2010E94B72ADC01CB019C012A
S11324C0AD01C701B6010E946D2A6B017C01D501E3
S11324D06D937D938D939C931397113009F45CC095
S11324E069817A818B819C810E941A2B97FE06C098
S11324F020E030E040E857E40E946D2AA7019601ED
S11325000E946C2ADC01CB0125EDC22E22E0D22EE2
S1132510C20CD31C9C01AD01C301B2010E94892BE2
S1132520DC01CB01F601E080F180028113819C0182
S1132530AD01C801B7010E946D2A7B018C01D6014F
S11325406D937D938D939C9313976101E1EEF2E07B
S1132550CE0EDF1E2D813E8121503040C901AA27B5
S113256097FDA095BA2FBC01CD010E941A2BDC0166
S1132570CB019C01AD01C801B7010E94B72ADC015F
S1132580CB01BC01CD010E94D72BDC01CB01F601AC
S113259080839183A283B38326960FB6F894DEBF1B
S11325A00FBECDBFDF91CF911F910F91FF90EF90A0
S11325B0DF90CF90BF90AF909F908F907F906F905F
S11325C05F904F903F902F9008954F925F926F923B
S11325D07F928F929F92AF92BF92CF92DF92EF92AF
S11325E0FF920F931F93CF93DF93CDB7DEB7A497DA
S11325F00FB6F894DEBF0FBECDBF9927AA27BB271D
S1132600FC01839710F00C94F61BEA5BFF4FEE0F6E
S1132610FF1F0590F491E02D0994809124079927D8
S1132620582E4424809125079927482A592A8091B5
S113263026079927782E6624809127079927682AE8
S1132640792A809128079927982E88248091290730
S11326509927882A992A60E0C2010E94FA1161E050
S1132660C3010E94FA1162E0C4010E94FA11809130
S11326708B03882309F057C0C201AA2797FDA095B0
S1132680BA2FBC01CD010E941A2B7B018C0157FE8D
S113269008C020E030E040E857E40E946D2A7B0146
S11326A08C018091ED029091EE02A091EF02B09125
S11326B0F0029C01AD01C801B7010E946C2ADC0143
S11326C0CB01BC01CD010E94FD2ADC01CB010E949B
S11326D07506B0908B030B2D1127000F111F000FEF
S11326E0111FF801E351FD4F80819181A281B381D3
S11326F0BC01CD010E94FD2A6B017C01F801EF5160
S1132700FD4F80819181A281B381BC01CD010E94E2
S1132710FD2ADC01CB019C01A601B2018B2D0E9494
S11327205E0681E059C0813009F05AC0C301AA276E
S113273097FDA095BA2FBC01CD010E941A2B7B01F5
S11327408C0177FE08C020E030E040E857E40E94A6
S11327506D2A7B018C018091F1029091F202A0918B
S1132760F302B091F4029C01AD01C801B7010E94CB
S11327706C2ADC01CB01BC01CD010E94FD2ADC01E5
S1132780CB010E947506B0908B030B2D1127000F0F
S1132790111F000F111FF801E351FD4F808191813A
S11327A0A281B381BC01CD010E94FD2A6B017C0191
S11327B0F801EF51FD4F80819181A281B381BC0169
S11327C0CD010E94FD2ADC01CB019C01A601B301CD
S11327D08B2D0E945E0682E080938B030C94F61B83
S11327E0823011F00C94F61BC401AA2797FDA09522
S11327F0BA2FBC01CD010E941A2B7B018C0197FEDC
S113280008C020E030E040E857E40E946D2A7B01D4
S11328108C018091F5029091F602A091F702B0919B
S1132820F8029C01AD01C801B7010E946C2ADC01C9
S1132830CB01BC01CD010E94FD2ADC01CB010E9429
S11328407506B0908B030B2D1127000F111F000F7D
S1132850111FF801E351FD4F80819181A281B38161
S1132860BC01CD010E94FD2A6B017C01F801EF51EE
S1132870FD4F80819181A281B381BC01CD010E9471
S1132880FD2ADC01CB019C01A601B4018B2D0E9421
S11328905E0610928B03AAC788E0A9E0B6E0E4E8DC
S11328A0F6E00D9001928A95E1F729C6AE014F5FDB
S11328B05F4F82E190E0FA01818320E030E02983D8
S11328C084E390E08C832B8386E590E08E832D83D4
S11328D088E790E088872F8388E0FE013996DA0143
S11328E00D9001928A95E1F789819927382F222743
S11328F0FA0181819927282B392B8B819927F82E6E
S1132900EE248C819927E82AF92A8D819927182F9A
S113291000278E819927082B192B2231310511F0BC
S11329200E943A06F4E3EF16F10411F00E943A060D
S11329300635110511F00E943A0689859927982FCA
S113294088272A853327822B932B429711F00E94E4
S113295046068B859927982F88272C853327822B29
S1132960932BC49711F00E9446068D859927982FC2
S113297088272E853327822B932B8635910511F0DA
S11329800E94460689859927982F88272A85332708
S1132990822B932B429711F00E9452068B85992724
S11329A0982F88272C853327822B932BC49711F0DB
S11329B00E9452068D859927982F88272E853327C4
S11329C0822B932B8635910509F410C70E94520679
S11329D00DC782E190E08A8B20E030E0298B84E30C
S11329E090E08C8B2B8B86E590E08E8B2D8B88E78B
S11329F090E0888F2F8B88E0DE015196FE01799656
S1132A000D9001928A95E1F7898D9927982F88274F
S1132A102A8D3327822B932B429711F00E943A067A
S1132A208B8D9927982F88272C8D3327822B932BD6
S1132A30C49711F00E943A068D8D9927982F882704
S1132A402E8D3327822B932B8635910511F00E940E
S1132A503A06898D9927382F22278A8D9927282B82
S1132A60392B8B8D9927F82EEE248C8D9927E82A03
S1132A70F92A8D8D9927182F00278E8D9927082BD9
S1132A80192B2231310511F00E94460624E3E21687
S1132A90F10411F00E9446060635110509F4A6C694
S1132AA00E944606A3C682E00E94910083E016C6F7
S1132AB040918903442339F58FB7F894282F33279D
S1132AC0E0909304F090940400919504109196047E
S1132AD080912A0490912B04A0912C04B0912D0490
S1132AE0E80EF91E0A1F1B1F2FBF809190069091BC
S1132AF09106A0919206B09193069C01AD01C80184
S1132B00B7010E9494070E94AE01DC01CB01BC0115
S1132B10CD0140C00E94AE017B018C01AFEFAA2E13
S1132B20AFEFBA2EAFEFCA2EAFE7DA2E70E087B759
S1132B308D7F87BFE2E0F3E06EE0808581FF1CC0FB
S1132B4080819181A281B381A8019701281B390B4F
S1132B504A0B5B0BDA01C901248135814681578117
S1132B60281B390B4A0B5B0B2A153B054C055D05ED
S1132B701CF459016A0171E06150399667FFDDCF99
S1132B80772309F433C61A141B041C041D042CF007
S1132B90C801B7010E943F0E29C6A0929006B092C8
S1132BA09106C0929206D092930681E080938903A5
S1132BB0A6019501C801B7010E94940717C680E5D4
S1132BC094E09093B7038093B60382E080938E03DE
S1132BD082E180939D0588EB9BE09093330480937E
S1132BE032041092D3021092D2021092D1021092A7
S1132BF0D0021092CF021092C6021092C502109217
S1132C00C4021092C3021092C20280919A0080649E
S1132C1080939A0080919A00886080939A008091B2
S1132C209A00806880939A0080919A0080618093D2
S1132C309A0080919A00886080939A0080919A000B
S1132C40806180939A0088E18093940688E480935D
S1132C5025041EE710939B031093B20310932205DF
S1132C601093690548E150E060E070E08BE993E07F
S1132C700E940E2710939B0383E090E090939D03A2
S1132C8080939C031093B203609194068BE993E0C4
S1132C900E94C00740EA5FE060E070E088E00E94C4
S1132CA0B501A4C588EB9BE0909333048093320470
S1132CB080915B038D7F80935B0348EB5BE060E076
S1132CC070E089E09EC0809152038D7F809352030F
S1132CD0E0908E03F0909D058F2D99279F938F93FD
S1132CE08E2D99279F938F938091170190911801AE
S1132CF09F938F9388EB91E09F938F9304E416E066
S1132D001F930F930E9415274DB75EB7465F5F4F21
S1132D100FB6F8945EBF0FBE4DBFF80101900020BE
S1132D20E9F73197E01BF10B8091BD029091BE024F
S1132D308F37910520F01092BE021092BD02EE234F
S1132D40C9F02091BB023091BC02D8014E2F2F371D
S1132D50310510F020E030E0F901E456FB4F8D918D
S1132D608083C90101969C01415089F79093BC026C
S1132D708093BB028091BF02882361F481E0809339
S1132D80BF02E091BD02F091BE02E456FB4F808188
S1132D900E94520555E0F51611F087E09FC4E092B9
S1132DA01F05F092B30644EF51E060E070E087E065
S1132DB028C080915404813051F49091B80391302B
S1132DC011F483E011C0933009F010C50DC08630B2
S1132DD009F00CC58091B803813011F482E004C07D
S1132DE0823009F003C581E08093B803FFC4809169
S1132DF064038D7F8093640344E650E060E070E0F8
S1132E008AE00E942805F2C480919D058231E9F48C
S1132E1082E190E09F938F93809117019091180124
S1132E209F938F9388ED91E09F938F938AE695E02B
S1132E309F938F930E9415278DB79EB708960FB660
S1132E40F8949EBF0FBE8DBF96C0863019F08D30AA
S1132E5009F047C08091D40299279F938F93809162
S1132E609D0599279F938F93809117019091180145
S1132E709F938F938BEE91E09F938F938AE695E0D7
S1132E809F938F930E941527ADB7BEB71A960FB6BE
S1132E90F894BEBF0FBEADBF80919D058D3019F46F
S1132EA084E00E94480520919D053091D4028EE76C
S1132EB080939B038093B2038AE090E090939D03F8
S1132EC080939C03822F992790939F0380939E0362
S1132ED03093A003609194068BE993E00E94C007AD
S1132EE085C4893009F482C499279F938F93809174
S1132EF01701909118019F938F9386E092E09F931E
S1132F008F938AE695E09F938F930E941527EDB7E0
S1132F10FEB738960FB6F894FEBF0FBEEDBF2DC0B6
S1132F208091960690919706029761F58091980694
S1132F30909199069F938F93809117019091180116
S1132F409F938F9389E192E09F938F938AE695E014
S1132F509F938F930E9415272DB73EB7285F3F4F4D
S1132F600FB6F8943EBF0FBE2DBF80919806909186
S1132F709906429711F480E06FC180919D050E94EB
S1132F80230834C4809195060AE615E0209198063A
S1132F9030919906882309F040C0809132049091C1
S1132FA033048217930789F0309333042093320457
S1132FB080915B038D7F80935B03C901AA27BB27A4
S1132FC0AC01BD0189E00E9428058091980690918A
S1132FD099069F938F938091970699279F938F9338
S1132FE08091960699279F938F93809117019091D2
S1132FF018019F938F938DE292E09F938F931F9379
S11330000F930E9415274DB75EB7445F5F4F0FB60D
S1133010F8945EBF0FBE4DBFE9C380919B0699270C
S11330209F938F9380919A0699279F938F933F93B1
S11330302F9380911701909118019F938F938AE4A5
S113304092E09F938F931F930F930E9415278DB740
S11330509EB70C960FB6F8949EBF0FBE8DBF80919D
S11330609D0540919B0660919A06ACE9B6E08930D3
S113307041F58EE780939B038093B20389E090E04F
S113308090939D0380939C0390939F0380939E034E
S11330906093A0034093A10322EA33E080E1F901A5
S11330A00D9001928A95E1F760919406C901079702
S11330B00E94C0078AE090E090939D0380939C0354
S11330C095C39D010E94FB0791C382E08093960300
S11330D0E091B603F091B70380918E038083E09171
S11330E0B603F091B70380919D058183E091B60307
S11330F0F091B703809132049091330482839383D7
S11331008091150190911601848395838091130118
S113311090911401868397838091110190911201FB
S11331208087918780910F01909110018287938706
S1133130148615861686178680919603825F80937F
S113314096038AE0CBC28091CE02882309F44EC351
S1133150809176038D7F809376030E940A059927D8
S1133160182F00270E940A059927082B192B0E9463
S11331700A050E9423058091E0069091E1068330C0
S1133180910519F0059751F031C31092CE02A801B0
S113319060E08091B2060E94EC0D28C31092CE022A
S11331A0A80160E08091B2060E94160E1FC38091B0
S11331B0E0069091E1068630910531F0079709F019
S11331C015C31092CE0212C31092CE021092CC02FA
S11331D00DC38091C902813031F46BE070E080E06E
S11331E090E00E946D038FB7F89499271092C9025A
S11331F01092CA02B3C18FB7F894992720919B0407
S113320020930B01E3E0FE2EF092CB028FBF022F3E
S113321011270130110519F10230110524F40115AB
S1133220110541F0E3C20230110569F103301105C3
S1133230D9F1DCC280E00E94B00DE82EFF24EE201C
S113324009F4D4C280E00E94B705EE2021F4109363
S113325016010093150181E00E94BF04C7C281E0FA
S11332600E94CE0D082F1127002309F4BFC281E06C
S11332700E94B705002321F4109214011092130147
S11332800E948B03B3C282E00E94B00D082F112765
S1133290002309F4ABC282E00E94B70560E070E04D
S11332A0802F0E94FC04A2C28F2D0E94CE0D082FF5
S11332B01127002309F49AC28F2D0E94B70560E0FC
S11332C070E0802F0E94BD0391C26BE070E080E04B
S11332D090E00E946D038AC288989098899891988A
S11332E082E1FCC18FB7F894282F332790911B05F6
S11332F090930A0183E08093C7022FBF892F9927F7
S1133300009711F4BE9AC69A8130910579F0823003
S113331091051CF4892B21F069C2029759F066C209
S113332081E08093FF05109213060AC081E0809328
S1133330FF0504C081E08093FF0582E080931306BB
S11333400E94DD0253C21092FF0580911306E090A3
S11333509903F0909A03082F11270130110569F0A1
S11333600230110524F40115110529F00BC00230B7
S1133370110529F007C080E003C081E001C082E0AC
S11333800E94280201301105B9F0023011051CF425
S1133390012B29F02BC202301105C9F027C276E0B7
S11333A0F694E7947A95E1F7F0921201E092110114
S11333B081E00E9493021AC266E0F694E7946A954B
S11333C0E1F7F0921001E0920F018FE087C156E01F
S11333D0F694E7945A95E1F780919B0590919C05AA
S11333E0209197033091980380932507892F99277B
S11333F08093240720932707832F992780932607F8
S1133400E09229078F2D99278093280781E066C1D0
S11334108091BA02813019F582E08093BA020E9449
S1133420D500DC01CB0180938F068FB7F894282F49
S113343033278091B7029091B802892B11F02FBFE6
S11334400EC081E090E09093B8028093B7022FBF42
S1133450DD9A64E170E080E090E00E94EA0888E18F
S11334603DC101EFE02E06E0F02E88E0E4E8F6E04E
S1133470D70101900D928A95E1F7E5EFFFEFEE0E8B
S1133480FF1E8FEF9FEF8093EC068FEF90E0809309
S1133490ED061EEDC12EC092F00600918C03109132
S11334A08D030115110519F085E090E025C0F09217
S11334B08D03E0928C038DE08093E606D0900001AA
S11334C0FFEFDF16C1F4C7010E94BB001092000198
S11334D021E0A701BC018C2D0E94480C9927282FBC
S11334E0882331F0D092000110938D0300938C0354
S11334F0822F992701C0C801882309F477C189E183
S1133500EDC083E08093BA0268EE73E080E090E05F
S11335100E94D6016BC181E08093BA0267C18FB764
S1133520F89499278FBF83E08093BA022091DA063A
S11335303091DB0680910001E82FFF27EE0FFF1F7B
S1133540E457FC4F808191818217930709F04EC1A3
S113355049C18FB7F8949927109220048FBF46C1B0
S11335608FB7F894082F11278091B602882339F475
S113357041E050E060E070E08EE00E94B5010FBFD2
S113358035C18FB7F894282F33278091B60288234A
S113359029F0809188038D7F809388032FBF26C1F3
S11335A08FB7F894282F3327909100069093030146
S11335B082E08093B3022FBF992309F017C18FB71C
S11335C0F8949927209106018FBF332721303105C4
S11335D009F453C0223031051CF4232B51F006C1E9
S11335E02230310509F47DC02330310509F490C03F
S11335F0FDC0C0988FB7F894E82EFF248091B702DD
S11336009091B8020297B9F583E090E09093B802E4
S11336108093B70268E170E08DE10E947D0911E0BA
S113362010938A031092B60280B39927B6E0969558
S11336308795BA95E1F78123809321058EE10E9455
S11336409100812F0E9479096FE772E08CE10E945A
S11336507D099091090185E0989FC0011124825D44
S11336609E4F9064BC0188E10E947D0962EF7AE27A
S113367081E10E947D09EFBEB9C08FB7F894282F6D
S1133680332740910901809107019091080189A392
S1133690892F99278AA38091B4069091B5068BA3AC
S11336A0892F99278CA32FBFC09885E0489FC0011C
S11336B01124825D9E4F9064BC0188E10E947D09C3
S11336C024E0AE014F5D5F4F60E088E691E00E9428
S11336D08D09C09A81E00E94730A8DE10E949100D5
S11336E085C08FB7F89499272091B1028FBF3327F3
S11336F02230310521F02430310521F006C00E942A
S1133700140C74C00E94FE0A71C00E94F90A6EC0B3
S11337100E94B10B6BC0A0910003B09101038C9186
S11337209D01280F311DF9018081881F8827881F7A
S1133730FD0182A7F90182919F012F5F3F4FFD0197
S113374080A7F90180818F77FD0181A70091000393
S113375010910103EBE0EE2EF12CE00EF11EC801F6
S11337600E94BB009C0180910101909102012817E5
S1133770390719F02F5F3F4F31F5F80182858E3DEF
S113378011F5F70186819927582F4427F80182897A
S11337909927482B592B80912A079927982F8827F6
S11337A020912B073327822B932B8417950758F4EA
S11337B088E0E4E2F7E0D7010D9001928A95E1F701
S11337C080E00E94910010930103009300030E9483
S11337D0DE0B0CC080910001E82FFF27EE0FFF1FC6
S11337E0E457FC4F108211820E94C10CA4960FB6BC
S11337F0F894DEBF0FBECDBFDF91CF911F910F9123
S1133800FF90EF90DF90CF90BF90AF909F908F90FC
S11338107F906F905F904F9008958091B1068F3F95
S1133820D1F09091B1068091B106E82FFF27EA54B8
S1133830F94F80818093B1068091B1068F3F11F4D6
S11338408093DC06892F9927FC01EA54F94F2FEF66
S113385020839C0102C02FEF30E02F3F19F480E059
S113386090E00895822F0E94E51281E090E008958F
S1133870CFEFD0E1DEBFCDBF8FB7F894C82F43E2BE
S113388050E06FEF70E086EB96E00E940E278FEF1A
S11338908093B1068093DC0681E08EBD88E080BF12
S11338A083E083BF2CB53DB54AE78CB59DB582173F
S11338B0930708F441509C014423B9F792B782B7A7
S11338C08917E9F32CB53DB592B782B78917E9F3A7
S11338D08CB59DB5821B930B4096A5E09695879574
S11338E0AA95E1F790939A058093990513BE83B73F
S11338F08EBD8EB580BF12BE1DBC1CBC8FEF86BFB3
S113390086B780937C0080B7282F332727703070C8
S113391021153105C1F7D29AD19AD09ADA9AD99A57
S1133920D89A25BB8FEF84BBD498DC983DBD2CBDC1
S113393087B7846087BF8EB5887F84608EBD16B8D4
S113394080B7886080BF80E285BF0E940D1C8823F9
S1133950E1F780911701909118010196AA27BB27DE
S11339608093260490932704A0932804B0932904F9
S11339708FEF80938F038091BA02882319F481E03A
S11339808093BA02B89AD69AD59A809101019091FF
S113399002019093B5068093B4068E98B89A8C98D9
S11339A084E196E0909301038093000300919905CC
S11339B010919A05C801AA27BB27FCE0880F991F1C
S11339C0AA1FBB1FFA95D1F7BC01CD0120E031EE4F
S11339D040E050E00E94302CDA01C901019789B916
S11339E0892F99278093900082E08BB986E0809399
S11339F095001AB8C801AA27BB277CE0880F991F35
S1133A00AA1FBB1F7A95D1F7BC01CD0120E031EE8E
S1133A1040E050E00E94302CDA01C9010197809304
S1133A209900892F99278093980082E080939B00C6
S1133A3086E080939D0010929A001092B5038FEF58
S1133A409FEFAFEFBFEF8093E2069093E306A0935E
S1133A50E406B093E50600B602FCFDCF12BE87B7BC
S1133A60816087BF83B7887F836000B600FCFDCF89
S1133A7083BF0E940D1C8823E1F7CFBF7894C0E078
S1133A80D0E082E00E949100E29681E0C43FD80732
S1133A90D9F783E00E9491008FB7F894482F4AC069
S1133AA087B79927887B892B41F480917D00282F43
S1133AB033272B7F2115310519F020E030E02AC08F
S1133AC06F9928C08AB1807C29F580919A00807C06
S1133AD009F5379B03C021E030E01CC087B7992764
S1133AE083709070892BA1F080B7992787709070AC
S1133AF0892BD1F781B792B7891B8C3018F082B724
S1133B00853F18F022E030E005C023E030E002C039
S1133B1025E030E0E5E02E1708F4E22F85B7837E38
S1133B20FF27EE52FF4F9491892B806285BF7894D2
S1133B308895F8948091B1068F3FC9F09091B106B1
S1133B408091B106E82FFF27EA54F94F80818093D2
S1133B50B1068091B1068F3F11F48093DC06892F62
S1133B609927FC01EA54F94F2FEF208302C08FEF0D
S1133B7090E08F3F09F494CF4FBF0E94E5128CCFA1
S1133B8083B783BF00B600FCFDCF08951F920F9248
S1133B900FB60F9211242F933F934F935F936F931C
S1133BA07F938F939F93AF93BF93CF93EF93FF93A1
S1133BB00E94C01D87B78D7F87BF78948FB7F89414
S1133BC0C82F80912A0490912B04A0912C04B091C9
S1133BD02D040097A105B10521F485E00E94910010
S1133BE002C00E94CB06CFBFFF91EF91CF91BF914E
S1133BF0AF919F918F917F916F915F914F913F9181
S1133C002F910F900FBE0F901F9018951F920F9237
S1133C100FB60F9211242F933F934F935F936F939B
S1133C207F938F939F93AF93BF93EF93FF930E94E0
S1133C30C01D80918B0590918C05A0918D05B0914C
S1133C408E050196A11DB11D80938B0590938C0563
S1133C50A0938D05B0938E0580919804882339F044
S1133C60815080939804882311F40E94CB06FF911D
S1133C70EF91BF91AF919F918F917F916F915F91E0
S1133C804F913F912F910F900FBE0F901F90189559
S1133C901F920F920FB60F9211240F900FBE0F9028
S1133CA01F9018951F920F920FB60F9211242F9305
S1133CB03F934F935F936F937F938F939F93AF93B0
S1133CC0BF93EF93FF9389B78D7F89BF80E10E94F3
S1133CD09100FF91EF91BF91AF919F918F917F914F
S1133CE06F915F914F913F912F910F900FBE0F9065
S1133CF01F9018951F920F920FB60F9211240F90D8
S1133D000FBE0F901F9018951F920F920FB60F922F
S1133D1011240F900FBE0F901F9018951F920F92B1
S1133D200FB60F9211240F900FBE0F901F9018958D
S1133D301F920F920FB60F9211240F900FBE0F9087
S1133D401F9018951F920F920FB60F9211242F9364
S1133D503F934F935F936F937F938F939F93AF930F
S1133D60BF93EF93FF9380912304909124040197D0
S1133D7019F40E94CC0B05C08091DE068F5F8093FE
S1133D80DE06FF91EF91BF91AF919F918F917F914B
S1133D906F915F914F913F912F910F900FBE0F90B4
S1133DA01F9018951F920F920FB60F9211240F9027
S1133DB00FBE0F901F9018951F920F920FB60F927F
S1133DC011242F933F934F935F936F937F938F931C
S1133DD09F93AF93BF93EF93FF9364B175B17894BE
S1133DE08FB7F894282F33278091D906482F46950A
S1133DF041702FBF282F217080FD1CC03398809103
S1133E00FF0599278130910519F0029759F028C0D0
S1133E10442351F070939A036093990387E10E94BD
S1133E2091001EC0442319F40E94DD0219C020939E
S1133E30FF0516C08FB7F89499278FBF8FB7F894F2
S1133E40482F552786B180618777282F332726B9D5
S1133E508F7B282F332726B98068992786B94FBFCF
S1133E60FF91EF91BF91AF919F918F917F916F914E
S1133E705F914F913F912F910F900FBE0F901F9024
S1133E8018951F920F920FB60F9211248F935F997A
S1133E908CB18F910F900FBE0F901F90189578944E
S1133EA01F920F920FB60F9211242F933F934F93AB
S1133EB05F936F937F938F939F93AF93BF93EF938E
S1133EC0FF938091BD029091BE0201969093BE0231
S1133ED08093BD028F37910520F01092BE0210929C
S1133EE0BD028091BB029091BC028F37910520F0F6
S1133EF01092BC021092BB02E091BD02F091BE028E
S1133F008091BB029091BC02E817F90731F0E456A6
S1133F10FB4F80810E94520502C01092BF02FF91A4
S1133F20EF91BF91AF919F918F917F916F915F912D
S1133F304F913F912F910F900FBE0F901F901895A6
S1133F401F920F920FB60F9211242F933F934F930A
S1133F505F936F937F938F939F93AF93BF93EF93ED
S1133F60FF9380919B0087FFD1C140919C00809179
S1133F70C002882321F44E3709F0C8C106C020913D
S1133F80C102233050F44E3741F481E08093C002E3
S1133F9040939E058093C102B9C1E22FFF27E256E8
S1133FA0FA4F40832F5F2093C10230919F05333035
S1133FB049F580919406281709F098C11092C0021F
S1133FC04E3709F09BC18091A10580939D058630F1
S1133FD021F0893011F08D3081F48AE080938E03D2
S1133FE080919D058D3061F48FEF80939203109240
S1133FF08C068BE00E94910003C082E080938E03C4
S113400089E071C1323009F04CC0809194062817C0
S113401009F06CC11092C0024E3709F06FC13093A1
S11340209603E091B603F091B70380918E038083E9
S1134030E091B603F091B70380919D058183E091EF
S1134040B603F091B70380913204909133048283D4
S113405093838091A5059091A6058483958380918F
S1134060A7059091A805868397838091A9059091CF
S1134070AA05808791878091AB059091AC058287D2
S113408093878091AD059091AE0584879587809143
S1134090AF059091B0058687978780919603825FDC
S11340A01FC1393009F09DC080919406281709F08A
S11340B01DC11092C0024E3709F020C182E08093E6
S11340C0960380919D058D30F1F48091A305833191
S11340D009F016C180911701909118019F938F9355
S11340E087E692E09F938F938AE695E09F938F9360
S11340F00E9415278DB79EB706960FB6F8949EBFFB
S11341000FBE8DBFFDC0893059F488E1AEE9B5E03A
S1134110E4E3F4E00D9001928A95E1F78CE0E3C0CA
S11341208E3029F0843019F0853009F0E9C0E0912F
S1134130B603F091B70380918E038083E091B603B8
S1134140F091B70380919D058183E091B603F091CE
S1134150B7038091320490913304828393838091D6
S1134160A5059091A605848395838091A7059091D8
S1134170A805868397838091A9059091AA058087D5
S113418091878091AB059091AC058287938780914C
S1134190AD059091AE05848795878091AF05909188
S11341A0B0058687978780919603825F80939603F4
S11341B080911701909118019F938F938EE792E05D
S11341C09F938F938AE695E09F938F930E94152780
S11341D08DB79EB706960FB6F8949EBF0FBE8DBFDF
S11341E081C0313019F03A3009F08AC08091250439
S11341F0281709F07BC01092C0024E3709F07EC028
S113420082E080939603E091B603F091B703809126
S11342108E038083E091B603F091B70380919D05EE
S1134220818380919D058D3009F03FC01092CF02AB
S11342308FEF809392038091A30599279F938F9387
S113424080911701909118019F938F9388E992E0D0
S11342509F938F938AE695E09F938F930E941527EF
S11342608DB79EB708960FB6F8949EBF0FBE8DBF4C
S11342709091A305903F19F41092D40216C0809136
S1134280A5058A3029F48091A6058A3A39F00AC036
S11342908A3A41F48091A6058A3021F484E00E9490
S11342A0480503C09F5F9093D402E091B603F09158
S11342B0B7038091A40582832091B6033091B7039C
S11342C08091A4059927AC0165EA75E0C9010396BC
S11342D00E940527809196039091A405890F8F5F12
S11342E0809396038AE00E9491000AC0992702975E
S11342F033278217930724F44E3711F41092C00227
S11343008091C102813610F01092C002FF91EF91AA
S1134310BF91AF919F918F917F916F915F914F91D9
S11343203F912F910F900FBE0F901F901895789486
S11343301F920F920FB60F9211242F933F934F9316
S11343405F936F937F938F939F93AF93BF93EF93F9
S1134350FF938091C4029091C50201969093C50287
S11343608093C4028036910520F01092C502109209
S1134370C4028091C2029091C3028036910520F05C
S11343801092C3021092C202E091C402F091C502DD
S11343908091C2029091C302E817F90731F0E35407
S11343A0FC4F80810E94B20702C01092C602FF91A6
S11343B0EF91BF91AF919F918F917F916F915F9199
S11343C04F913F912F910F900FBE0F901F90189512
S11343D078941F920F920FB60F9211240F931F938C
S11343E02F933F934F935F936F937F938F939F93F9
S11343F0AF93BF93CF93EF93FF9387B78F7E87BF1E
S113440078948FB7F894C82F8091AC069091AD063C
S1134410A091AE06B091AF060097A105B10509F0D1
S113442066C08091B1029091B20284309105D9F1B5
S11344308530910518F4039721F047C00797D1F10F
S113444044C080B39927B6E096958795BA95E1F76D
S113445080FF26C084E090E09093B2028093B10282
S11344600E94F401DC01CB012FB7F894022F11272D
S113447080932E0490932F04A0933004B0933104BE
S113448087E090E0A0E0B0E08093AC069093AD06A6
S1134490A093AE06B093AF060E943C080FBF15C0B0
S11344A00E94140912C00E94640A882371F40E94B5
S11344B0FE0A0BC081E090E09093B2028093B102B7
S11344C01092B9028CE10E9491008091B702909100
S11344D0B802019771F482E090E09093B80280935F
S11344E0B702DE98DE9A80E00E94410A02C00E9470
S11344F03C08CFBFFF91EF91CF91BF91AF919F91B6
S11345008F917F916F915F914F913F912F911F9167
S11345100F910F900FBE0F901F90189578941F92D3
S11345200F920FB60F9211240F900FBE0F901F9091
S1134530189578941F920F920FB60F9211240F9032
S11345400FBE0F901F90189578941F920F920FB67C
S11345500F921124FF920F931F932F933F934F9326
S11345605F936F937F938F939F93AF93BF93CF93F7
S1134570DF93EF93FF93CCB5DDB580E286BF8FB7B1
S1134580F894F82E8091B1029091B2028530910591
S113459019F0069739F16AC080E00E94600982E050
S11345A00E94730A87B78F7E87BF86E090E090935E
S11345B0B2028093B102E0914E04F0914F048181E4
S11345C0992787709070019721F4C5A78D2F99279B
S11345D084A780B3992724E0969587952A95E1F7D7
S11345E080FD8AC081E00E946009E0914E04F09150
S11345F04F04818185FF26C087E090E09093B2024A
S11346008093B1020E94F401DC01CB012FB7F8942E
S1134610022F112780932E0490932F04A09330042B
S1134620B093310480E890E0A0E0B0E08093AC0661
S11346309093AD06A093AE06B093AF060E943C08DB
S11346400FBF0BC081E090E09093B2028093B1025F
S11346501092B9028CE10E94910080B3992704E082
S1134660969587950A95E1F780FF46C08091B00240
S1134670882351F50E9460094091FE054830A0F45A
S113468080918A05840F912D911D9C01887F9370E0
S1134690281BE22FFF27EE0FFF1FEC5EF84FC083AD
S11346A0D1834F5F4093FE0581E08093B002D093A5
S11346B08E06C0938D0680B3992714E0969587954E
S11346C01A95E1F780FD18C08091B0028823A1F00B
S11346D081E00E9460091092B00280918D06909151
S11346E08E06C81BD90B2A9738F48091FE058823BF
S11346F019F081508093FE05FFBEFF91EF91DF9189
S1134700CF91BF91AF919F918F917F916F915F9165
S11347104F913F912F911F910F91FF900F900FBEDA
S11347200F901F90189578941F920F920FB60F92C6
S113473011242F933F938F939F938FB7F894282F2F
S113474033278091B3039091B40301969093B403FB
S11347508093B3032FBF9F918F913F912F910F901F
S11347600FBE0F901F9018951F920F920FB60F92C5
S11347701124CF92DF92EF92FF920F931F932F9306
S11347803F934F935F936F937F938F939F93AF93D5
S1134790BF93CF93DF93EF93FF938FB1282F3327EA
S11347A0E0919003F0919103309739F08091B9032F
S11347B09091BA03E80FF91F20838091B903909177
S11347C0BA0301969093BA038093B90380E00E94E0
S11347D0B6092091B9033091BA03809111069091E2
S11347E012062817390718F40E94290B46C1E090D5
S11347F09003F09091031092910310929003109201
S11348009A041092990410921206109211061092B2
S1134810BA031092B9038FB1809142069091430676
S11348202091420686FFD3C02F7B822F99278E3397
S1134830910509F422C1CF9709F01FC1C09100036B
S1134840D091010318818091230490912404823033
S1134850910521F0039709F444C0B4C083E090E0CB
S11348609093240480932304412F55279A012F5FAA
S11348703F4F60919303862F9927821793077CF407
S11348800E94F905C09AC09888E00E94730988E0E4
S11348900E947309C09A83E00E94730A90C080E06A
S11348A090E0B79B02C081E090E0892B69F481B16C
S11348B0992776E0969587957A95E1F780FD04C06F
S11348C0611B615060939303193220F4BE016F5F42
S11348D07F4F02C060E070E080E090E00E94970BA0
S11348E0CCC0C09A83E00E94730A8091FE0588239D
S11348F009F11B3028F180918A05E82FFF27EE0F7C
S1134900FF1FEC5EF84F808191818DA7892F992735
S11349108CA780918A05992701969C01287F317084
S1134920821B930B80938A058091FE0581508093AE
S1134930FE0506C08FEF9FEF8DA78FEF90E08CA749
S1134940FE01E10FF11D808187FF39C0EF28B9F125
S113495069816770E0910003F0910103623049F5C9
S1134960A0914E04B0914F0420818091B1029091A6
S1134970B202079721F5ED019B8183818917F9F430
S113498087B78F7E87BF81E08BA7E20FF11D8291ED
S1134990319688A780818F7789A781E090E09093F2
S11349A0B2028093B1021092B9028CE10E9491008C
S11349B006C0613021F481E20E9491005EC00E9431
S11349C0DE0B5BC0C09A83E00E94730A56C02E338C
S11349D009F053C0C09A8091B1029091B202089735
S11349E039F481E090E09093B2028093B10245C023
S11349F080919704882349F484E090E09093B20274
S1134A008093B1020E94FE0A38C082E00E94730AB9
S1134A1083E090E09093B2028093B1020E94D500AB
S1134A20DC01CB018F71907001969C0143E0220F51
S1134A30331F4A95E1F7280F391F280F391F7901D1
S1134A40002711270E94F401DC01CB012FB7F89451
S1134A50C22EDD2480932E0490932F04A09330045F
S1134A60B0933104E092AC06F092AD060093AE062A
S1134A701093AF060E943C08CFBEFF91EF91DF91E7
S1134A80CF91BF91AF919F918F917F916F915F91E2
S1134A904F913F912F911F910F91FF90EF90DF90D5
S1134AA0CF900F900FBE0F901F901895A0E3B0E029
S1134AB0ECE5F5E20C94712C222E332E442E552E67
S1134AC0662E772E882E992E2A2D3B2DA8E0FE01E6
S1134AD03196AA2E1192AA94E9F729823A824B823E
S1134AE05C826D827E828F829886FE013996BA2E10
S1134AF01192BA94E9F729873A87CB86DC86ED864A
S1134B00FE860F87188BFE0171961192AA95E9F71C
S1134B10C980DA80EB80FC80C9A6DAA6EBA6FCA6E5
S1134B20870176018FEF9FEFA0E0B0E0E822F92241
S1134B300A231B23A9A4BAA4CBA4DCA416014424ED
S1134B40552489859A85AB85BC858DA79EA7AFA77B
S1134B50B8AB5C016D018FEF9FEFA0E0B0E0A8223D
S1134B60B922CA22DB228DA59EA5AFA5B8A93D0115
S1134B7088249924C801B701A60195010E94522CEA
S1134B8069A37AA38BA39CA3C801B701A4019301D1
S1134B900E94522C6DA37EA38FA398A7C201B101DA
S1134BA0A60195010E94522C7B018C01C201B10126
S1134BB0A40193010E94522C9B01AC01A9A0BAA0AC
S1134BC0CBA0DCA0C601AA27BB27ADA0BEA0CFA066
S1134BD0D8A4A80EB91ECA1EDB1EAE0CBF1CC01E74
S1134BE0D11EADA2BEA2CFA2D8A6AE14BF04C006E9
S1134BF0D10620F4205030404F4F5F4FCDA0DEA0AF
S1134C00EFA0F8A4C701AA27BB27820F931FA41FF4
S1134C10B51F8D8F9E8FAF8FB8A3A6013327222790
S1134C2089A19AA1ABA1BCA1A070B070280F391FB3
S1134C304A1F5B1F298F3A8F4B8F5C8FA98CBA8CCC
S1134C40CB8CDC8CED8CFE8C0F8D18A1ED8AFE8A4A
S1134C500F8B188F2D853E854F85588969A57AA5B8
S1134C608BA59CA50E94522C3B014C018D819E81F9
S1134C70AF81B885BC01CD012DA53EA54FA558A98E
S1134C800E94522CDC01CB01680E791E8A1E9B1EE9
S1134C908D899E89AF89B88D860D971DA81DB91D74
S1134CA08D8B9E8BAF8BB88F6D897E898F89988D04
S1134CB02A2D3B2D4C2D5D2DE2E1E0960C948D2C9C
S1134CC08F929F92AF92BF92CF92DF92EF92FF9218
S1134CD00F93CF93DF93CDB7DEB768970FB6F894F1
S1134CE0DEBF0FBECDBFE82E002349F4298B3A8BDB
S1134CF04B8B5C8B6D8B7E8B8F8B988F6CC088E01D
S1134D00FE01319611928A95E9F729833A834B8300
S1134D105C836D837E83EF82988740E2401B141688
S1134D200CF041C08D819E81AF81B8856C017D01FD
S1134D3004C0CC0CDD1CEE1CFF1C4A95D2F7202FBE
S1134D40332727FD3095022E04C0B695A795979575
S1134D5087950A94D2F78D879E87AF87B88B898110
S1134D609A81AB81BC8104C0B695A7959795879528
S1134D702A95D2F78C299D29AE29BF2989879A873C
S1134D80AB87BC8729853A854B855C856D857E8597
S1134D908F859889298B3A8B4B8B5C8B6D8B7E8BA3
S1134DA08F8B988F18C01D861E861F86188A842FA5
S1134DB0992787FD909522273327281B390B8D814E
S1134DC09E81AF81B88504C0B695A79597958795C0
S1134DD02A95D2F7D3CF29893A894B895C896D8981
S1134DE07E898F89988D68960FB6F894DEBF0FBEC2
S1134DF0CDBFDF91CF910F91FF90EF90DF90CF90D7
S1134E00BF90AF909F908F900895FB01DC0102C08A
S1134E1001900D9241505040D8F70895DC0101C033
S1134E206D9341505040E0F708950F931F93CF9333
S1134E30DF93CDB7DEB72C970FB6F894DEBF0FBE65
S1134E40CDBF0B891C892D893E8946E04C8309839B
S1134E501A838FEF9FE78D839E83AE01495E5F4F78
S1134E60B901CE0101960E944527EF81F885E00F34
S1134E70F11F10822C960FB6F894DEBF0FBECDBF83
S1134E80DF91CF911F910F9108952F923F924F92EE
S1134E905F926F927F928F929F92AF92BF92CF92C6
S1134EA0DF92EF92FF920F931F93CF93DF93CDB7CF
S1134EB0DEB762970FB6F894DEBF0FBECDBFEE2407
S1134EC0FF2487011C016D877E872A01CC24DD2401
S1134ED0FC01C682D782838181FD80C28FEF9FEF60
S1134EE090C28D859E8501968D879E87C0FE63C284
S1134EF08F8580538A30D0F49F85903339F46620AF
S1134F0029F4C3FC03C0E0E0F1E093C08AE0689EAA
S1134F10602C1124FF856F0E20ED620E67FE02C027
S1134F20EFE76E2EC3FC5AC2762C58C2960173E08A
S1134F30369527957A95E1F720FF04C0662011F491
S1134F4061E0662E4F85842F992787FD90958836DA
S1134F5091058CF5853691050CF06EC0833591056D
S1134F6009F493C084359105CCF48B32910509F48E
S1134F7049C08C3291054CF48032910509F446C045
S1134F808332910509F44AC010C28D32910509F4A7
S1134F9040C08E32910509F444C007C2833691059E
S1134FA009F450C0843691050CF08AC08835910507
S1134FB009F4BCC0FAC18037910509F4B1C0813746
S1134FC0910584F48C36910591F18D3691052CF47C
S1134FD08936910509F474C0E8C18F36910509F446
S1134FE09CC0E3C18537910509F4A2C086379105B9
S1134FF024F48337910571F1D8C18837910509F4F8
S113500095C0D3C180E190E0C82AD92AE0E2F0E05B
S113501010C080E890E0C82AD92AE0C1E0E4F0E0BA
S113502008C088E090E0C82AD92A6624D7C1E4E001
S1135030F0E0CE2ADF2AD2C15FE3E52E7A94F3E6CC
S1135040FF8744C1F20182E090E0480E591EE080DF
S11350507A943CC1F20182E090E0480E591EA0818E
S1135060B1817D0120FF09C0862D992787FD909588
S1135070BC01CD010E94562A1FC0FD0101900020F1
S1135080E9F73197EA1BE88B18C0F20182E090E05F
S1135090480E591E0190F081E02D7F0120FF09C0C8
S11350A0862D992787FD9095BC01CF010E94612A26
S11350B003C0CF010E944D2A888B9889791A06C1B2
S11350C0C2FE0AC0F20184E090E0480E591E20811D
S11350D03181428153810CC0F20182E090E0480E9C
S11350E0591E808191819C01442737FD4095542F9E
S11350F079018A0157FF0CC0E2E0F0E0CE2ADF2AF2
S113510010950095F094E094E11CF11C011D111D13
S11351108FEB9FEFC822D92227C098E0988B08C054
S1135120E0E4F0E0CE2ADF2AF8E7FF8720E1288BCD
S1135130C2FE0AC0F20184E090E0480E591E2081AC
S11351403181428153810AC0F20182E090E0480E2D
S1135150591E808191819C014427552779018A0138
S1135160EFECFFEFCE22DF22CE010196898B9A8BE2
S11351709889892E9924AA24BB24C801B701A501C2
S113518094010E94302CDC01CB01E989FA898083E7
S11351908A3024F0FF858F0F815201C0805DE98938
S11351A0FA898193E98BFA8BC801B701A5019401AF
S11351B00E94302C79018A012115310541055105E0
S11351C0E1F6E98881E090E08C0F9D1FE81AC601A2
S11351D082739070892B09F07A94C6FE0DC0872DD6
S11351E0992787FD9095E889E03121F44EEF742EDC
S11351F0780E02C0782E7A94C3FE0FC0262D332772
S113520027FD30958E2D9927821793072CF087EF71
S11352109FEFC822D92201C06E18560133E0B6941C
S1135220A7943A95E1F7A0FE02C0761801C07E1853
S1135230C60180789170892B51F4872D7A941816C1
S113524034F4B10180E290E00E941A2AF6CFC1FE44
S113525004C0B1018DE290E00BC0C4FE04C0B101F2
S11352608BE290E005C0C5FE05C0B10180E290E08C
S11352700E941A2AC6FE10C0B10180E390E00E9489
S11352801A2A9889903141F4B101EF858E2F99271C
S113529087FD90950E941A2A8D2D992780FF0AC0B8
S11352A0872D7A94181634F4B10180E390E00E94BB
S11352B01A2AF6CFA0FE0AC0862D6A94181634F472
S11352C0B10180E390E00E941A2AF6CF5601AA0C9D
S11352D0AB2CAA1CBB08B194A0FC0AC0872D7A94FD
S11352E0181634F4B10180E290E00E941A2AF6CF35
S11352F0FF85F33641F48E2DB101992787FD9095F2
S11353000E941A2A46C02F852337B9F44889415090
S1135310488B4F3F09F43DC0F70180810894E11C9C
S1135320F11CB101992787FD90950E941A2A88895A
S11353308150888B8F3F81F72CC09F859335A1F4D2
S1135340E889E150E88BEF3F21F1F7018491B10145
S113535099270E941A2A0894E11CF11CF889F1503B
S1135360F88BFF3F91F715C06E010894C11CD11C46
S113537089899A898C159D0561F0E989FA89829158
S1135380E98BFA8BB101992787FD90950E941A2A1F
S1135390EFCFA0FE0DC0872D7A9418164CF4B101FE
S11353A080E290E00E941A2AF6CFB1010E941A2AE4
S11353B0CC24DD2413C09F85953241F481E0C82EAE
S11353C0D12C6624762CEAE0E88B08C0B101FF8575
S11353D08F2F992787FD90950E941A2AF1018381C6
S11353E083FF04C0ED85FE85F49103C0ED85FE8541
S11353F0F081FF872F85222309F073CDF101868187
S1135400978162960FB6F894DEBF0FBECDBFDF91D1
S1135410CF911F910F91FF90EF90DF90CF90BF90AD
S1135420AF909F908F907F906F905F904F903F9040
S11354302F9008950F931F93CF93DF938C01EB016B
S11354408B81992781FF22C082FF14C02E813F8166
S11354508C819D81281739073CF4E881F9810193F7
S1135460E883F9832E813F812F5F3F4F2E833F8353
S1135470C8010EC0E885F985802F0995892B31F480
S1135480AE81BF811196AE83BF83F2CF8FEF9FEFC2
S1135490DF91CF911F910F910895FC010590002099
S11354A0E9F7809590958E0F9F1F0895FC01615038
S11354B0704001900110D8F7809590958E0F9F1F32
S11354C00895FC016150704005900110D8F7809553
S11354D090958E0F9F1F08955058192EF7D001D024
S11354E0DAC0BA176207730784079507B1F188F425
S11354F00EF410940B2EBA2FA02D062E622F202D01
S1135500072E732F302D082E842F402D092E952F12
S1135510502DFF275523B9F0591B49F0573E98F0F9
S1135520469537952795A795F0405395C9F776F09A
S1135530BA0F621F731F841F30F4879577956795A0
S1135540B795F040939517FA0F2E0895BF1BBB270C
S1135550BA0B620B730B840BF6CFDEF6D4C0592F53
S1135560482F372F262F9FE380E877276627AED072
S113557001D091C0552359F0992369F09F575F5783
S1135580951B33F442F4903811F4915805C09BC034
S113559091589F3F09F4B7C0BB27112462177307C2
S11355A0840730F4660F771F881FBB1F915098F350
S11355B011D00F920FD00F920DD0A0E82617370705
S11355C048071B0609F0A048BA2F602D7F918F91E0
S11355D000240895A0E80024621773078407B10526
S11355E028F0621B730B840BB1090A2A660F771F1C
S11355F0881FBB1FA69581F7089597FB73D09F372B
S113560038F0FEE9F91B982F872F762F6B2F05C0F2
S113561077C09695879577956795F150D0F73EF4C6
S113562090958095709561957F4F8F4F9F4F08950A
S1135630E89403C097FB0EF4F3DFB62F672F782F9F
S1135640892F9EE9002427C00ED05EF004C00BD041
S113565026F001C008D019F020F48FEF089580E0FF
S1135660089581E0089597FB092E052600F86894B3
S113567030D0E89407FC07C06217730784079507C6
S113568021F008F400940794989408959A95BB0F18
S1135690661F771F881F11249923A1F08823B2F76E
S11356A09F3F59F0BB0F48F421F4002011F460FF30
S11356B004C06F5F7F4F8F4F9F4F881F97958795CB
S11356C097F908951DC09FEF80EC0895052E0926D3
S11356D007FA440F551F5F3F79F0AA27A51708F072
S11356E051E04795880F991F9F3F31F0BB27B917A9
S11356F008F091E0879508959F919F911124E3CF3D
S113570066277727882799270895592F482F372FF9
S1135710262FDCDF01D0BFCF992339F0552329F0A0
S11357209F575F57950F13F4CAF1EDCF91589F3FE0
S1135730E1F3A62F00241124BB2766275527F8E0A0
S1135740A69520F4020E131EB41F651F220F331FEB
S1135750441F551FFA95A1F7F8E0E72F7727F8E0E3
S1135760E69520F4130EB41F651F7A1F330F441FF0
S1135770551FAA1FFA95A1F7F82F8827F69520F44C
S1135780B40F651F7A1F8E1F440F551FAA1FEE1FEB
S1135790FF23A1F788231AF4939539F494CF000CCE
S11357A0111CBB1F661F771F881F0128089597FDD2
S11357B08ACF482F9923F9F195DFF92FFF57F595F3
S11357C09F1B9F1BFF934058479533272227406810
S11357D05FE7E894FF92EF92DF92CF92BF92AF928D
S11357E09F928F92C92ED82EE72EF62E6F2D7E2DE6
S11357F08D2D9C2D852E942EA32EB22EBBDE582DDE
S1135800492D3A2D2B2D11246CDE9A95592F482FB2
S1135810372F262FB216A3069406850639F78F90E4
S11358209F90AF90BF90CF90DF90EF90FF900F903C
S1135830900D002430CF0895AA1BBB1B51E107C073
S1135840AA1FBB1FA617B70710F0A61BB70B881F0C
S1135850991F5A95A9F780959095BC01CD0108959B
S1135860A1E21A2EAA1BBB1BFD010DC0AA1FBB1F60
S1135870EE1FFF1FA217B307E407F50720F0A21BD2
S1135880B30BE40BF50B661F771F881F991F1A943F
S113589069F760957095809590959B01AC01BD0169
S11358A0CF010895629FD001739FF001829FE00DA4
S11358B0F11D649FE00DF11D929FF00D839FF00D8B
S11358C0749FF00D659FF00D9927729FB00DE11D37
S11358D0F91F639FB00DE11DF91FBD01CF01112414
S11358E008952F923F924F925F926F927F928F9280
S11358F09F92AF92BF92CF92DF92EF92FF920F935B
S11359001F93CF93DF93CDB7DEB7CA1BDB0B0FB664
S1135910F894DEBF0FBECDBF09942A883988488821
S11359205F846E847D848C849B84AA84B984C884B7
S1135930DF80EE80FD800C811B81AA81B981CE0FAE
S1135940D11D0FB6F894DEBF0FBECDBFED01089593
S1135950FF0100FFFFFFFF22001A0304FFFF01FF06
S1135960FFFFFFFFFFFFFF010046494E44494E473A
S1135970204F5448455253200054454D500048553B
S11359804D494400555265640053454E4400524508
S113599043454956450025357320415647205374E5
S11359A04465762000253475202534752025367508
S11359B0005052494F524954593A00253973202511
S11359C0366C750043505052494F52493A002539BC
S11359D073202536750025327825327825327825CE
S11359E032782532782532782532782532780025A8
S11359F06420433332385F52657365745F54696D54
S1135A0065723A25640D0A002564206D7941707031
S1135A10547970653A25582C206D794F70745479F7
S1135A2070653A25580D0A0025642067657453464D
S1135A306972655F423A25640D0A00256420676532
S1135A407453466972655F4C3A25582C205365712E
S1135A503A25640D0A00256420676574534669720B
S1135A60655F533A25640D0A00256420522D47656D
S1135A7074532D434D445B25645D0D0A0025642059
S1135A80522D53432D434D442121205B25642C206A
S1135A9025642C2025645D0D0A00256420522D4FB9
S1135AA0432D434D442121205B25642C2025642C67
S1135AB02025645D0D0A00256420726563762053F9
S1135AC05542434D44315F4641494C0D0A0025641B
S1135AD020726563762070617273696E675F636FAD
S1135AE06E74726F6C0D0A002564207061727369A4
S1135AF06E675F6C6F6E6744543A25640D0A00004C
S9030000FC
