S01900006275696C642F7A69676265782F6D61696E2E737265636F
S11300000C946C000C946E200C9478200C94A0201A
S11300100C94AA200C94B4200C94BE200C94C820F8
S11300200C94F8200C9489000C9489000C94CA2434
S11300300C940E240C94B4240C94B9250C94EC1F49
S11300400C942C200C94DA250C9467210C948900D0
S11300500C9475210C9402210C9489000C94890051
S11300600C94BF240C9489000C9489000C9489008E
S11300700C9489000C9489000C94C6210C9489007A
S11300800C94BD230C9489000C948900CE140E1694
S11300901016A3160D171A174C17A11714182518A4
S11300A09B18B918121EC6185219271A661A9A1ADA
S11300B0AC1ABA1A201B231B291B5A1BDC1B031C5A
S11300C0531C5D1C611C7B1C821C931CA21C5C1DAC
S11300D0061E00081C18141011241FBECFEFD0E117
S11300E0DEBFCDBF12E0A0E0B1E0ECECFEE500E045
S11300F00BBF02C007900D92AA3BB107D9F717E0D6
S1130100AAEBB2E001C01D92A633B107E1F70C944B
S1130110541E0C9400008FB7F894992708958FBF4C
S11301200895982F8FB7F894282FE92FFF27E054CC
S1130130F94F80818F3FB1F48091E606891791F0E1
S11301408091BB068F3F19F49093BB0607C0809142
S1130150E606E82FFF27E054F94F90839093E606D4
S113016080E001C085E02FBF99270895FC018081BC
S11301708C5099270895FC0187819927382F2227CD
S113018086819927822B932B08958EE10E949100FA
S113019099270895882311F06E9A08956E9808950A
S11301A08091BD02882319F480E090E0089581E0F5
S11301B090E008952F923F924F925F926F927F92B8
S11301C08F929F92AF92BF92CF92DF92EF92FF9263
S11301D00F931F93CF93DF93CDB7DEB72A970FB654
S11301E0F894DEBF0FBECDBF8FB7F894282F332706
S11301F029873A87209030043090310440903204AB
S11302005090330466245EE4A52E43E8B42EC62C35
S1130210D62CE62CF62C062D162D222D332D442D0E
S1130220552D662D762D862D962D0E940128298325
S11302303A834B835C836D837E838F839887822E7E
S1130240932EA42EB52EC62ED72EE82EF92E2401D9
S11302503501769467945794479400E2282D392DFC
S11302604A2D5B2D6C2D7D2D8E2D9F2D0E940B29EB
S1130270A22EB32EC42ED52ED601C501840D951DF4
S1130280A61DB71DB7FF04C0BF770196A11DB11D00
S11302908093300490933104A0933204B0933304D8
S11302A039853FBF2A960FB6F894DEBF0FBECDBF87
S11302B0DF91CF911F910F91FF90EF90DF90CF903E
S11302C0BF90AF909F908F907F906F905F904F9072
S11302D03F902F900895EF920F931F93AE2D99E0C6
S11302E0899FF0011124E45FFC4F408351836283B2
S11302F073830483158326833783A17080858E7F5F
S11303008A2B8260808786E00E9491001F910F9162
S1130310EF900895CF93DF938FB7F894682F7727E2
S1130320A0919505B0919605C0919705D091980537
S113033082B706B600FE04C01196C11DD11D82B756
S1130340282F33274427552788279A2FAB2FBC2FD4
S1130350822B932BA42BB52B6FBFBC01CD01DF9156
S1130360CF9108950E948A01DC01CB01BC01CD012B
S11303700895AF92BF92CF92DF92EF92FF920F93C4
S11303801F93F82E5A016B010E948A01DC01CB01F4
S1130390E1E0EE2E96018501AC01BD018F2D0E9496
S11303A06B011F910F91FF90EF90DF90CF90BF9062
S11303B0AF900895AF92BF92CF92DF92EF920F93D6
S11303C01F935B016C010E948A01DC01CB01F1E007
S11303D0EF2E96018501AC01BD0180E00E946B0106
S11303E01F910F91EF90DF90CF90BF90AF90089541
S11303F08FB7F894682F77278091BD039091BE033F
S11304002CB53DB506B602FE03C001962CB53DB52C
S1130410AA27BB2744275527DC0199278827822B45
S1130420932BA42BB52B6FBFBC01CD010895282FAE
S1130430869586958695E82FFF27E154FC4F277013
S113044081E090E002C0880F991F2A95E2F720818D
S11304502823822F99270895FF920F931F93CF93F8
S1130460DF93082F8FB7F894F82E8091D102833050
S113047009F054C080910A01801709F04FC080919F
S1130480BF03882309F03EC081E090E0892BE9F5A1
S11304901091D202C12FDD272196C330D10511F46A
S11304A0C0E0D0E08C2F0E941702882381F4812FB2
S11304B09927C817D90781F78FEF90E08093250516
S11304C081E08093D10286E10E94910024C08C2FA8
S11304D0869586958695E82FFF27E154FC4F2C2FAF
S11304E0277081E090E002C0880F991F2A95E2F7F7
S11304F0982F9095808189238083C093D2028C2F7A
S11305009927DCCF80E090E0C1CF83E080930A019B
S11305101092D1023798002309F4C698FFBE81E0F7
S113052090E0DF91CF911F910F91FF9008951F9359
S1130530CF93DF93C82F8FB7F894282F3327122F28
S11305408091D102882301F18C2F0E941702882305
S1130550B1F48C2F869586958695E82FFF27E15474
S1130560FC4FC77081E090E002C0880F991FCA95C4
S1130570E2F72081282B208380E090E002C085E010
S113058090E01FBF992719C081E08093D102C093E6
S113059025052FBF8FB7F8949927379A8FBF8FB748
S11305A0F894C82FDD2780910A01833019F486E17D
S11305B00E949100CFBF80E090E0DF91CF911F9126
S11305C0089599278130910559F0823091051CF4E2
S11305D0892B21F00BC0029729F008C080E003C0EA
S11305E081E001C082E00E94970201C081E0992766
S11305F0089520911D06822F99278130910559F085
S1130600823091051CF4009731F004C0029711F474
S113061081E001C08FE1582F822F99278130910505
S113062041F0823091051CF4892B19F004C0029723
S113063011F428E001C020E033278FB7F894E82FA5
S11306408091E3068E7F8093E306322F27B160E02A
S113065070E0922F929596959695937080E0891705
S113066049F4852F8850863118F42F71521711F4EC
S113067061E070E0862F880F2091E3062D7F282B00
S1130680852F8F71982F990F990F2378292B2093F9
S1130690E3068062992787B9406C21702295220F66
S11306A0207E4F7D422B4861383059F58091A30557
S11306B09091A40521E08638920718F087E090E035
S11306C01FC0833C910518F086E090E019C0813684
S11306D0910518F085E090E013C08033910518F07F
S11306E084E090E00DC08831910518F083E090E03B
S11306F007C00C9718F082E090E002C080E090E020
S1130700382F3770487F432B842F992786B9EFBF42
S11307100895EF920F931F930E948A01DC01CB018D
S1130720E1E0EE2E0BE010E020E030E0AC01BD0192
S11307308BE00E946B0180E090E01F910F91EF909D
S1130740089580E00E9497029927089597E087FF13
S113075002C0919A01C09198880F909A90989150F4
S113076097FFF5CF0895982F8FB7F894282F89B75E
S11307708D7F89BF82E088BF80916A008860809302
S11307806A00992321F080916A00846003C08091FB
S11307906A008B7F80936A0089B7826089BF2FBF0C
S11307A080E090E008952F923F924F925F926F9273
S11307B07F928F929F92AF92BF92CF92DF92EF92ED
S11307C0FF920F931F938B01882309F0DDC08FB72D
S11307D0F894992770931206609311068FBFE090E6
S11307E09E03F0909F03CB01AA2797FDA095BA2FF3
S11307F0BC01CD010E94C52D3B014C0117FF08C06F
S113080020E030E040E857E40E94182D3B014C0101
S1130810C701AA2797FDA095BA2FBC01CD010E945C
S1130820C52DF7FE06C020E030E040E857E40E9402
S1130830182D2AE037ED43E25CE30E94342EDC01FC
S1130840CB0120E030E040E252E4BC01CD010E9443
S1130850172D1B012C0122EA37EE4BE356EBC401A2
S1130860B3010E94342EDC01CB01A4019301BC012D
S1130870CD010E94342E7B018C0124E533EE45E248
S11308805DE3C401B3010E94342EDC01CB019C0161
S1130890AD01C801B7010E94182DDC01CB0120E095
S11308A030E040E850ECBC01CD010E94182D5B0102
S11308B06C0120E030E048EC51E4C201B1010E9437
S11308C0172D7B018C012CEA35EC47EA58E3C4016F
S11308D0B3010E94342EDC01CB012AE037ED43E260
S11308E05CE3BC01CD010E94182DDC01CB019C010D
S11308F0AD01C801B7010E94342EDC01CB01A60171
S11309009501BC01CD010E94182D7B018C0120E0D2
S113091030E048EC52E40E94D22D181654F40F2E05
S1130920F0E0EF2EF0E0FF2EF8EC0F2FF2E41F2F93
S1130930F02D2DEC3CEC4CEC5DE3C801B7010E94BA
S1130940CF2D882354F40F2EFDECEF2EFCECFF2E5C
S1130950FCEC0F2FFDE31F2FF02DC201B1010E940B
S1130960A82DDC01CB019093A6058093A505C801B1
S1130970B7010E94A82DDC01CB019093A2038093C0
S1130980A10382E00E9497021F910F91FF90EF90C4
S1130990DF90CF90BF90AF909F908F907F906F909B
S11309A05F904F903F902F900895982F8FB7F894B1
S11309B0282F3327422F8091D502882301F1E92F74
S11309C0FF27E451F94F80818F3FA1F4E0910C019E
S11309D0E91781F080910D018F3F19F490930D0177
S11309E004C0FF27E451F94F908390930C0180E0F9
S11309F090E002C085E090E04FBF9927089541E060
S1130A004093D5029093A5042FBF8091D4028823EC
S1130A1021F484E10E94910002C04093D30280E05B
S1130A2090E00895882359F48FB7F8949927709328
S1130A309F0360939E038FBF83E00E94D5040895B3
S1130A4030E0232F909A80B399279695879580FD5F
S1130A503160273009F0330F90982F5F283090F3DE
S1130A60899A9198909A90988998919A832F992726
S1130A700895899A919A909A909808958AE00E948C
S1130A80910099270895AF92BF92CF92DF92EF928F
S1130A90FF920F931F93F82E5A016B010E948A0153
S1130AA0DC01CB01EE2496018501AC01BD018F2D43
S1130AB00E946B011F910F91FF90EF90DF90CF90F8
S1130AC0BF90AF90089590919606980F90939C03D1
S1130AD09F3F11F410929C030895282F8FB7F89428
S1130AE099272CB95E9A8FBF0895CF93DF93CDB722
S1130AF0DEB724970FB6F894DEBF0FBECDBFDC017E
S1130B00CB0189839A83AB83BC838C81282F3327C1
S1130B10442755278B819927AA27BB27BA2FA92FAA
S1130B20982F8827282B392B4A2B5B2B8A819927CE
S1130B30AA27BB27DC0199278827282B392B4A2B86
S1130B405B2B89819927AA27BB27B82FAA27992726
S1130B508827282B392B4A2B5B2BCA01B9012496F1
S1130B600FB6F894DEBF0FBECDBFDF91CF910895CD
S1130B70CF93DF93CDB7DEB726970FB6F894DEBFD9
S1130B800FBECDBF8D839E838D819E81AF81B8853D
S1130B9089839A83AB83BC838A81282F33278981F5
S1130BA09927982F8827822B932B26960FB6F89493
S1130BB0DEBF0FBECDBFDF91CF910895CF93982FA5
S1130BC08FB7F894C82F8091D5028330A1F5809116
S1130BD00B01891781F520E030E080910D018F3FF2
S1130BE011F421E030E0232BD9F48F3F81F0282F3A
S1130BF03327F901E451F94F808180930D018F3F30
S1130C0011F480930C018FEF8083C90102C08FEF30
S1130C1090E08093A50481E08093D50283E109C02C
S1130C2084E080930B011092D50281E08093D4027A
S1130C3085E10E949100CFBF81E090E0CF910895BB
S1130C4080E00E94DE059927089582E00E94DE0577
S1130C509927089583E00E94DE059927089580E886
S1130C6080939D0310920806109294051092E80652
S1130C700895CF93DF93CDB7DEB767970FB6F89497
S1130C80DEBF0FBECDBF282FDB0189E0898389E059
S1130C9090E08A839B8385E090E08C839D8322236C
S1130CA011F0213009F42E8380E1FE0138960D9075
S1130CB001928A95E1F787E1DE011196EFE9F6E00A
S1130CC00D9001928A95E1F78EE00E94910067965B
S1130CD00FB6F894DEBF0FBECDBFDF91CF9108955C
S1130CE0AF92BF92CF92DF92EF920F931F93DA9855
S1130CF080919D0590919E0503E0969587950A95B0
S1130D00E1F75C01CC24DD240E948A01DC01CB01E3
S1130D1011E0E12E96018501AC01BD0183E00E9442
S1130D206B011F910F91EF90DF90CF90BF90AF9028
S1130D300895AF92BF92CF92DF92EF920F931F93D9
S1130D40D8988091A1059091A20533E09695879556
S1130D503A95E1F75C01CC24DD240E948A01DC0190
S1130D60CB0121E0E22E96018501AC01BD0182E0B8
S1130D700E946B011F910F91EF90DF90CF90BF9075
S1130D80AF900895AF92BF92CF92DF92EF92FF920D
S1130D900F931F93D99880919F059091A00553E0DC
S1130DA0969587955A95E1F75C01CC24DD2441E0C2
S1130DB0F42E0E948A01DC01CB01EF2C96018501FF
S1130DC0AC01BD018F2D0E946B011F910F91FF900B
S1130DD0EF90DF90CF90BF90AF9008950E94C2062D
S1130DE008950E9470060895982F8091C203882365
S1130DF019F481E08093C20390932A0570935704F9
S1130E006093560450932C0440932B04309327058D
S1130E10209326050895909195039923C9F4992761
S1130E20009711F481E090E080932704282F332762
S1130E3080E797E1B9010E94C72ECB0170939E050C
S1130E4060939D05AA27BB27AC01BD0186E01AC0AB
S1130E509130D9F49927009711F481E090E08093C0
S1130E602804282F332780E797E1B9010E94C72E71
S1130E70CB017093A00560939F05AA27BB27AC0103
S1130E80BD0184E00E94430508959230D1F499276E
S1130E90009711F481E090E080932904282F3327F0
S1130EA080E797E1B9010E94C72ECB017093A20598
S1130EB06093A105AA27BB27AC01BD0185E00E9470
S1130EC043050895AF92BF92CF92DF92EF92FF92C3
S1130ED00F931F93CF93DF930E948A01FC01EB01D0
S1130EE020919D0430919E0440919F045091A00450
S1130EF07B018C01E21AF30A040B150B1092A20475
S1130F008091340490913504A0913604B091370453
S1130F10E816F9060A071B07C0F0EE24FF24870130
S1130F20280F391F4A1F5B1F20939D0430939E0492
S1130F3040939F045093A004E0923404F09235044B
S1130F40009336041093370463C05C016D01AE183E
S1130F50BF08C00AD10A8601750161E0A61661E0E6
S1130F60B60660E0C60660E0D60690F080E0A816FB
S1130F7080E0B80681E0C80680E0D80610F08FEF64
S1130F8004C0BB27AD2D9C2D8B2D8093A20458C08B
S1130F9061E8A616B104C104D10430F1C058DF4F92
S1130FA0EF4FFF4FC0939D04D0939E04E0939F04A2
S1130FB0F093A004C058D040E040F04080E89FEF98
S1130FC0AFEFBFEFE80EF91E0A1F1B1FE0923404B7
S1130FD0F0923504009336041093370460E8E62E4B
S1130FE0F12C012D112D14C0280F391F4A1F5B1F2E
S1130FF020939D0430939E0440939F045093A00437
S1131000109234041092350410923604109237046E
S11310106E2D82B7282F8C1B8E5F8E1518F0622FD1
S11310206E5F01C06C0F662309F461E0615000B685
S113103001FCFDCF61BF82E086BF87B7826087BFB6
S1131040DF91CF911F910F91FF90EF90DF90CF90A0
S1131050BF90AF9008950F931F93DC01CB016FB73E
S1131060F894062F112780939D0490939E04A093D7
S11310709F04B093A0042093340430933504409328
S11310803604509337040E9462070FBF1F910F91DB
S11310900895982F8FB7F894282F332790939C00A6
S11310A080919B00806480939B002FBF08959C01D6
S11310B08091CE029091CF028036910520F010925B
S11310C0CF021092CE026623E1F0D9018091CC02C6
S11310D09091CD028036910520F01092CD021092AD
S11310E0CC028091CC029091CD02FC01E953FC4FDB
S11310F02D91208301969093CD028093CC02615070
S113110029F78091D002882361F481E08093D00292
S1131110E091CE02F091CF02E953FC4F80810E940E
S113112049080895CF93DF93D9019EE79093A503CF
S11311309093BC0329E030E03093A7032093A603E7
S113114099279093A9038093A8036093AA034093DB
S1131150AB03ECEAF3E080E1EF010D9009928A958C
S1131160E1F7379760919E06CF010E945708DF91FF
S1131170CF9108959EE79093A5039093BC0322E03A
S113118030E03093A7032093A60399279093A903F3
S11311908093A8031092AA0360919E0685EA93E0C7
S11311A00E9457080895AF92BF92CF92DF92EF92B8
S11311B0FF920F931F93CF93DF930E94F801FC01DA
S11311C0EB018091380490913904A0913A04B091D4
S11311D03B04A090B606B090B706C090B806D09075
S11311E0B9069C01AD012A0D3B1D4C1D5D1D790105
S11311F08A01EC1AFD0A0E0B1F0BC817D907EA0760
S1131200FB0730F0281739074A075B0770F005C061
S1131210281739074A075B0728F4C217D307E407DE
S1131220F50718F0EE24FF24870121E0E21620E8F8
S1131230F20620E0020720E0120730F1C050D04847
S1131240EF4FFF4FC0933804D0933904E0933A042E
S1131250F0933B04C050D048E040F04080E090E878
S1131260AFEFBFEFE80EF91E0A1F1B1FE092B60690
S1131270F092B7060093B8061093B906E12CE0E8A3
S1131280FE2E012D112D14C08A0D9B1DAC1DBD1DFC
S11312908093380490933904A0933A04B0933B04A8
S11312A01092B6061092B7061092B8061092B906BC
S11312B0B7012CB53DB5C9018C1B9D0B03968E154A
S11312C09F0520F0B9016D5F7F4F02C06C0F7D1F39
S11312D06115710511F461E070E0615070407BBDEF
S11312E06ABD80E186BF87B7806187BFDF91CF91F8
S11312F01F910F91FF90EF90DF90CF90BF90AF9030
S11313000895CF92DF92EF92FF920F931F937B0188
S11313108C010E94F801DC01CB012FB7F894C22E96
S1131320DD248093380490933904A0933A04B09355
S11313303B04E092B606F092B7060093B806109309
S1131340B9060E94D308CFBE1F910F91FF90EF9072
S1131350DF90CF9008952F923F924F925F926F92B9
S11313607F928F929F92AF92BF92CF92DF92EF9231
S1131370FF920F931F93CF93DF93CDB7DEB72B97D5
S11313800FB6F894DEBF0FBECDBF8FB7F894898334
S11313908FB7F894282F33272A873B87209030046F
S11313A030903104409032045090330466241EE49B
S11313B0A12EB3E8BB2EC62CD62CE62CF62C062D7B
S11313C0162D222D332D442D552D662D762D862D4B
S11313D0962D0E9401282A833B834C835D836E8370
S11313E07F8388879987822E932EA42EB52E24017D
S11313F03501769467945794479400E20E940B2930
S1131400A22EB32EC42ED52ED601C501840D951D52
S1131410A61DB71DB7FF04C0BF770196A11DB11D5E
S11314208093300490933104A0933204B093330436
S11314303A853FBF5C0187E0A822BB240894A11C25
S1131440B11CA114B10449F1C501F3E0880F991F3F
S1131450FA95E1F78A0D9B1D8A0D9B1D7C010027DF
S113146011270E94F801DC01CB012FB7F894C22E9A
S1131470DD248093380490933904A0933A04B09304
S11314803B04E092B606F092B7060093B8061093B8
S1131490B9060E94D308CFBE06C081E090E09093C5
S11314A0BC028093BB02E981EFBF2B960FB6F89480
S11314B0DEBF0FBECDBFDF91CF911F910F91FF9083
S11314C0EF90DF90CF90BF90AF909F908F907F90E0
S11314D06F905F904F903F902F90089597B79F7DA6
S11314E097BF90E296BF882319F08EB5806402C03E
S11314F08EB58F7B8EBD87B7806287BF80E090E01A
S113150008958FB9779BFECF8FB1992708950E94D4
S1131510810A992708950F931F938B010E94810AD2
S1131520812F99270E94810A802F0E94810A99277E
S11315301F910F910895DF92EF92FF920F931F93E3
S1131540CF937A01C22FDD248C01060F111D802F49
S113155080680E94810A16950795802F807C0E94DE
S1131560810ACC2341F0F70181917F010E94810A15
S1131570D82EC150F6CF8D2D9927CF911F910F9161
S1131580FF90EF90DF900895882311F06F9A0895EB
S11315906F9808951F9310E0812F0E94CA00BA9A91
S11315A0BB98B99AB89A6C9AC098812F0E94C40AC1
S11315B0709A6B986A98689881E00E94CA001F919B
S11315C008950F931F93CF93082F8FB7F894282F64
S11315D03327122F8091BF02882321F02FBF85E08B
S11315E090E021C09091BD02992341F482E0809360
S11315F0BD029093030180E090E002C081E090E09E
S11316009927C82F882311F40E94CA0A8C2F99277E
S1131610282F882329F40093060181E08093BF02D8
S11316201FBF822F9927CF911F910F910895CF93B8
S1131630C82F0E94D000882311F40E94CA0A809106
S1131640BD02882359F481E08093BD02C0930A0649
S113165080E20E94910080E090E01EC0EC2FFF2702
S1131660E756FC4F80818F3FA1F4E0910401EC1711
S113167081F0809105018F3F19F4C093050104C0E6
S1131680FF27E756FC4FC083C093040180E090E03D
S113169002C085E090E099279927CF910895CF93D0
S11316A0282F8FB7F894C82F9091BF02992369F01F
S11316B081E090E002C0880F991F2A95E2F72091FB
S11316C0BE02282B2093BE0208C02093060181E0AD
S11316D08093BF02892F0E94170BCFBF80E090E058
S11316E0CF910895CF9382E00E94E10A9927C82FF1
S11316F0882319F082E00E944F0B8C2F9927CF91F9
S113170008951F93CF93DF93982F8FB7F894282FC2
S11317103327122F80910601891721F02FBF81E012
S113172090E071C04FEF409306018091BD0282307A
S113173009F03FC0909103019923D9F520E030E0EE
S113174080910501841711F421E030E0232B69F521
S11317508F3F79F0282F3327F901E756FC4F80811A
S1131760809305018F3F11F4409304014083C90124
S113177002C08FEF90E080930A0681E08093BD025F
S113178080E20E94910015C02093060181E090E060
S113179002C0880F991F4A95E2F780953823309349
S11317A0BE0280E00E94170B2BC04093030190936C
S11317B0BD020E94D000C82FDD27CC2331F48C2F2A
S11317C00E94CA00C093E706C09A3091BE02332338
S11317D0A9F0209106012F5F632F7727243008F0AA
S11317E020E0422F5527CB01042E02C09595879502
S11317F00A94E2F780FDC8CF2F5FF0CF1092BF02AA
S11318001FBF80E090E0DF91CF911F91089582E0A7
S11318100E94810B99270895CF93C1E0C0988091CD
S1131820A104882311F085E001C084E00E94870AA6
S113183083FD05C080E00E94870A83FDC0E08FB766
S1131840F894CC2319F023E030E002C025E030E026
S11318503093BC022093BB028FBFC09ACC2329F0E3
S113186082E00E94810B0E94AB09CF9108958F9270
S11318709F92AF92BF92CF92DF92EF92FF920F931B
S11318801F93CF93DF938FB7F894C090A304D090A5
S1131890A40480909A0390909B03C091C303D091B9
S11318A0C403AE01465F5F4F20911B0630911C06B6
S11318B02417350708F09A018FBF59010894A1082D
S11318C0B108CA15DB05E8F47E01E80CF91C8E01A9
S11318D00C0D1D1DC114D10419F0F801808101C043
S11318E080E00E94810A8114910411F0F701808341
S11318F021960F5F1F4F0894E11CF11CCA15DB05EC
S113190048F381E00E94C40A8FB7F894982FC11459
S1131910D10431F0CC0EDD1EF60180818FB901C0F7
S11319201FB8D093C403C093C3039FBF80E090E06B
S1131930DF91CF911F910F91FF90EF90DF90CF90A7
S1131940BF90AF909F908F9008959C018FB7F894AB
S113195099273093A4042093A30470939B0360936A
S11319609A0350931C0640931B061092C4031092D2
S1131970C3038FBF8FB10E94370C992708950F932B
S11319801F93C09800910A0310910B038FE790E016
S113199090934D0680934C0680914C060E94810AD8
S11319A041E050E0B80180E090E00E94A50C1F9156
S11319B00F91089582E090E090932E0480932D047B
S11319C083E00E94E10A882319F40E94BF0C089561
S11319D083E00E944F0B0895CF938FB7F894282F7C
S11319E03327C22F80912D0490912E04892B11F45A
S11319F02FBF26C02091E806222341F080E090E02A
S1131A00B79B02C081E090E0892B49F481B199270A
S1131A1036E0969587953A95E1F780FD08C0222334
S1131A2019F021502093E8060E94DA0C08C081E0E6
S1131A3090E090932E0480932D041092E806CFBF7B
S1131A40CF9108951F93CF93DF93C0915804D09101
S1131A5059048FA19927182F882309F41FE1C098EE
S1131A608091BA06811741F0812F9927806E906882
S1131A70BC0185E10E948B0A1093BA0618811150AB
S1131A808EE390E090934D0680934C0680914C0633
S1131A900E94810A812F9927AC0160E070E0CE0199
S1131AA00E94A50CDF91CF911F910895CF93DF93EE
S1131AB0DA01EA018A876E83872F99278F8382E26E
S1131AC090E08C8360E070E06D83245F8FB7F894BE
S1131AD0482F55278091C402833021F04FBF81E005
S1131AE090E059C085E08093C402B093E506A093CA
S1131AF0E406809199068F5F80939906FD018383A4
S1131B004FBF2193ED018981992780729070898359
S1131B10892F992781839927982F8827298133270B
S1131B20822B932B816498688983892F99278183D9
S1131B3080910101909102018887892F99278987D3
S1131B406BA768A769A71DA66CA74091E4065091EE
S1131B50E5068FB7F894282F33278091BB02909124
S1131B60BC02019711F02FBF14C082E090E0909363
S1131B70BC028093BB0281E08093A104509359047A
S1131B80409358042FBF0E94720B882311F40E94C3
S1131B90220D80E090E09927DF91CF910895CF92B4
S1131BA0DF92EF92FF920F931F93209100012F3F3A
S1131BB009F420E03327C90101962817390748F4AE
S1131BC08091960390919703892B19F0109200014C
S1131BD003C08FEF80930001E0910001EF3FF1F02B
S1131BE0FF27EE0FFF1FEA56FC4F00811181F80119
S1131BF08285C82EDD24C8010E94BB007C01C80177
S1131C000E94B6009927282FA801B7018C2D0E94A5
S1131C10560D882319F082E20E9491001F910F91C2
S1131C20FF90EF90DF90CF9008958998919A909AC1
S1131C3080B399279695879580FF03C081E090E053
S1131C400895909880E090E00895AF92BF92CF926B
S1131C50DF92EF920F931F935B016C010E948A0144
S1131C60DC01CB0131E0E32E96018501AC01BD011D
S1131C708CE00E946B011F910F91EF90DF90CF9049
S1131C80BF90AF9008951F93889A90988998919ADD
S1131C9089B78D7F89BF899A919A909888E0909AA4
S1131CA09098815087FFFBCF899A919A9098909A47
S1131CB091989098909A919A90988091EA06909130
S1131CC0EB068F7190709093EB068093EA068091F7
S1131CD0EA060E94A6030E94150E882329F010929A
S1131CE0D80281E090E048C02091EA063091EB06EA
S1131CF02630310561F12730310538F423303105C0
S1131D0079F02530310561F035C02730310599F07F
S1131D102E31310579F56BE070E080E090E008C089
S1131D208998919A0E94B3036EE571E080E090E097
S1131D300E94250E1FC00E942005182F0E94200516
S1131D400E9439051093D70281E10E94910080918D
S1131D5028050E94A6030E94150E882321F081E025
S1131D608093D60204C0809128058093D70281E134
S1131D700E94910080E090E01F910895282F8091A7
S1131D800E01882319F484E090E008958091D8022C
S1131D90882319F085E090E0089581E08093D802CB
S1131DA083E090E09093EB068093EA062093BC06D0
S1131DB00E94430E99270895282F80910E018823AD
S1131DC019F484E090E008958091D802882319F0F2
S1131DD085E090E0089581E08093D80285E090E06A
S1131DE09093EB068093EA062093BC060E94430E70
S1131DF0992708951F93CF93DF93162FEA0199270C
S1131E0081309105E9F0823091051CF4892B21F091
S1131E1017C0029771F014C080E00E94DE05112300
S1131E2021F4D0931601C093150181E00E94D504DA
S1131E3007C082E00E94DE05BE01812F0E941205C8
S1131E40DF91CF911F9108951F93CF93DF93162FA6
S1131E50EA0199278130910549F082309105CCF04F
S1131E6082309105B1F0039769F013C081E00E94BC
S1131E70DE05112321F4D0931401C09313010E94B1
S1131E80A10307C083E00E94DE05BE01812F0E94EA
S1131E90D303DF91CF911F9108952F923F924F92D8
S1131EA05F926F927F928F929F92AF92BF92CF92E6
S1131EB0DF92EF92FF920F931F93CF93DF93CDB7EF
S1131EC0DEB7C354D0400FB6F894DEBF0FBECDBF0B
S1131ED06BAF7CAF8DAF9EAF1FAE442455248CE016
S1131EE093E024968EAF9FAF24972496EEADFFAD7A
S1131EF02497608561FF10C4208131814281538120
S1131F008BAD9CADADADBEAD821B930BA40BB50BDD
S1131F10E480F580068117818E159F05A007B1071F
S1131F2008F4FAC360FF03C06D7F60870DC02E0DF7
S1131F303F1D401F511F2496AEADBFAD24972D9376
S1131F403D934D935C931397B6E04B16510409F4FB
S1131F5073C0E7E04E165104DCF4F2E04F1651046E
S1131F6009F446C083E04816510444F44114510472
S1131F7099F191E049165104C9F1CEC3A4E04A167F
S1131F805104D1F1B5E04B1651040CF045C032C0F8
S1131F90EAE04E16510409F494C2FBE04F165104D2
S1131FA05CF488E04816510409F483C299E04916A8
S1131FB051040CF0D2C250C0ACE04A16510409F4EA
S1131FC0ECC2BCE04B1651040CF4C9C2EEE04E1650
S1131FD0510409F409C3A0C382E00E94D50460E45B
S1131FE07FE180E090E00E94DA0196C3D99A94C31D
S1131FF0D89A92C3DA9A90C30E94C20680912804A8
S1132000815080932804882309F086C38091380383
S11320108D7F8093380380C30E94990680912904A0
S1132020815080932904882309F076C38091410369
S11320308D7F8093410370C30E94700680912704B2
S1132040815080932704882309F066C380914A0352
S11320508D7F80934A0360C31091C203112309F05A
S1132060D8C0B2ED8B2EB4E09B2EA12CB12CACE0E9
S11320706A2E712C69AA7AAA8BAA9CAAADAABEAAB6
S1132080809106031E010894211C311C882309F049
S11320906EC080E1E9E1F1E0D10101900D928A95F1
S11320A0E1F789A99927382F22278AA99927822B12
S11320B0932B0E94B8056C018BA99927AA27BB27EB
S11320C0B82FAA27992788272CA9332744275527CF
S11320D0A90133272227822B932BA42BB52B2DA9BF
S11320E0332744275527542F432F322F2227822B5F
S11320F0932BA42BB52B2EA9332744275527822BAA
S1132100932BA42BB52BBC01CD010E9475057B013B
S11321108C01C3010E94B8059F938F93C501B4013C
S11321200E947505DC01CB01BF93AF939F938F93FE
S1132130DF92CF921F930F93FF92EF92E9E2F1E0C7
S1132140FF93EF933F922F920E94C0298DB79EB7C1
S113215040960FB6F8949EBF0FBE8DBFB10180911B
S113216006030E94390681E08093060352C089A9C0
S11321709927782F66278AA99927682B792B8BA909
S11321809927AA27BB27582F4427332722278CA90E
S11321909927AA27BB27DC0199278827282B392BC5
S11321A04A2B5B2B8DA99927AA27BB27BA2FA92FC6
S11321B0982F8827282B392B4A2B5B2B8EA99927FC
S11321C0AA27BB27282B392B4A2B5B2B7F926F9294
S11321D0BF92AF929F928F927F936F935F934F932F
S11321E03F932F93A9E2B1E0BF93AF933F922F9215
S11321F00E94C029EDB7FEB770960FB6F894FEBFE3
S11322000FBEEDBFB101809106030E943906109301
S113221006038091C203813009F079C080910703DD
S1132220882309F048C080912A05882319F48BE398
S113223091E012C0813019F4A0E4B1E016C08230FC
S113224039F4E6E4F1E02296EEAFFFAF229711C035
S1132250833039F48BE491E022968EAF9FAF2297BE
S113226008C0843031F4A0E5B1E02296AEAFBFAF30
S113227022972296EEADFFAD2297FF93EF9388E568
S113228091E09F938F938E010F5F1F4F1F930F93C6
S11322900E94C0298DB79EB706960FB6F8949EBFCC
S11322A00FBE8DBFB801809107030E94390681E0FB
S11322B0809307032CC080912605909127059F9356
S11322C08F9380912B0490912C049F938F938091F2
S11322D05604909157049F938F9387E691E09F93C0
S11322E08F938E010F5F1F4F1F930F930E94C0297E
S11322F0ADB7BEB71A960FB6F894BEBF0FBEADBF4A
S1132300B801809107030E94390610920703809157
S1132310C203823009F052C0809108031E01089460
S1132320211C311C882349F58091990590919A05C7
S1132330A0919B05B0919C05BF93AF939F938F93FE
S113234083E791E09F938F938DE791E09F938F9321
S11323503F922F920E94C029EDB7FEB73A960FB66E
S1132360F894FEBF0FBEEDBFB101809108030E9437
S1132370390681E08093080321C08091C5039091C0
S1132380C6039F938F9386E891E09F938F9380E990
S113239091E09F938F933F922F920E94C0298DB713
S11323A09EB708960FB6F8949EBF0FBE8DBFB101BD
S11323B0809108030E943906109208038091C20399
S11323C0833009F0A9C1809109031E010894211CDE
S11323D0311C0091C5031091C60378E9E72E71E022
S11323E0F72E8823E1F580910F06909110060E9444
S11323F0B8059F938F9380910D0690910E060E94CD
S1132400B8059F938F9380910B0690910C060E94C0
S1132410B8059F938F93C801AA27BB27BC01CD01A0
S11324200E947505DC01CB01BF93AF939F938F93FB
S1132430FF92EF923F922F920E94C029ADB7BEB790
S11324401E960FB6F894BEBF0FBEADBFB10180910A
S113245009030E94390681E0809309035DC18091DC
S11324600F06909110069F938F9380910D06909183
S11324700E069F938F9380910B0690910C069F9369
S11324808F931F930F93FF92EF923F922F920E948C
S1132490C029EDB7FEB73C960FB6F894FEBF0FBE49
S11324A0EDBFB101809109030E943906109209031E
S11324B033C182E08093980382E18093A70589E089
S11324C029C1809196068F5F809396068F3F11F401
S11324D0109296069091960680919C03981709F0A5
S11324E01BC18091D90299279F938F9380911701E3
S11324F0909118019F938F9389EA91E09F938F9312
S113250084E795E09F938F930E94C0298DB79EB76F
S113251008960FB6F8949EBF0FBE8DBF8091D90266
S11325208630B8F48F5F8093D9028630B0F0FE0114
S1132530B19680E1DF011D928A95E9F79F0140E0A1
S113254065E18091A7050E9492088EE10E946305CF
S1132550E3C01092D9021092DE028DE0DBC08FB787
S1132560F894082F1127902F80910B01843099F44F
S11325708091D502813021F483E10E94910009C049
S1132580823049F48091A50480930B0183E0809309
S1132590D5020FBFC1C09FBFBFC08091EA06909112
S11325A0EB0685309105B1F08630910518F4039758
S11325B039F0B2C04E9709F0AFC01092D802ACC047
S11325C01092D80240E050E061E08091BC060E9485
S11325D0FA0EA2C01092D80240E050E061E080916F
S11325E0BC060E94240F98C08FB7F8949927C09016
S11325F0C002CC2011F08FBF8FC08FBF80B399274A
S113260066E0969587956A95E1F7B82EB1E0BB220E
S113261080912B0590919403891709F478C0B91619
S113262009F075C084E090E09093C2028093C102E7
S113263080910701909108018FAB892F992788AF6A
S11326408091BE069091BF0689AF892F99278AAFE2
S11326508FB7F89499271B2FB093C0028FBF8FE1D7
S11326600E94910060E070E08DE10E948B0A24E0FA
S1132670AE01495C5F4F6C2D88E691E00E949B0A95
S1132680C09AC0988FB7F894E82EFF24812F0E9437
S11326906E0A01E010E01093BC020093BB02C092EA
S11326A0BA02C092BA06EFBE8FB7F894E82EFF24A0
S11326B00E942F0610932E0400932D0489B78F7B5C
S11326C089BF80E488BF8AB780628ABF8AB78F7E59
S11326D08ABF89B7806489BFEFBE8FB7F894082F8B
S11326E011278091C1029091C202049719F483E0EA
S11326F00E94870A0FBF8FB7F894082F1127C09A3A
S113270080E00E94810B0FBF8AE10E949100B09289
S11327102B058EE10E949100EFADEF5FEFAF2496A1
S11327208EAD9FAD2497099624968EAF9FAF2497C4
S11327300894411C511CEF3008F4D7CB86E00E946A
S11327409100CD5BDF4F0FB6F894DEBF0FBECDBF57
S1132750DF91CF911F910F91FF90EF90DF90CF9079
S1132760BF90AF909F908F907F906F905F904F90AD
S11327703F902F9008952F923F924F925F926F92C5
S11327807F928F929F92AF92BF92CF92DF92EF92FD
S1132790FF920F931F93CF93DF93CDB7DEB72697A6
S11327A00FB6F894DEBF0FBECDBF4C01062FC40197
S11327B0AA2797FDA095BA2F89839A83AB83BC83FC
S11327C0BC01CD010E94C52D97FE06C020E030E07B
S11327D040E857E40E94182D11271801220C331CDD
S11327E0220C331C27EFA22E22E0B22EA20CB31C23
S11327F0D501CD90DD90ED90FC90A70196010E944B
S1132800172D2B013C01F801ED5FFC4F10811F5F78
S11328101083E12FFF27ED83FE83CF01AA2797FDC5
S1132820A095BA2FBC01CD010E94C52DDC01CB01BE
S11328309C01AD01C301B2010E94622DDC01CB01F8
S11328409C01AD01C701B6010E94182D6B017C01EA
S1132850D5016D937D938D939C931397113009F457
S11328605CC069817A818B819C810E94C52D97FE11
S113287006C020E030E040E857E40E94182DA7018C
S113288096010E94172DDC01CB011FEDC12E12E031
S1132890D12EC20CD31C9C01AD01C301B2010E9414
S11328A0342EDC01CB01F601E080F180028113813A
S11328B09C01AD01C801B7010E94182D7B018C0158
S11328C0D6016D937D938D939C9313976101EBEEE9
S11328D0F2E0CE0EDF1E2D813E8121503040C90131
S11328E0AA2797FDA095BA2FBC01CD010E94C52D42
S11328F0DC01CB019C01AD01C801B7010E94622D2E
S1132900DC01CB01BC01CD010E94822EDC01CB0194
S1132910F60180839183A283B38326960FB6F8943D
S1132920DEBF0FBECDBFDF91CF911F910F91FF90FE
S1132930EF90DF90CF90BF90AF909F908F907F905B
S11329406F905F904F903F902F9008954F925F92B9
S11329506F927F928F929F92AF92BF92CF92DF92AB
S1132960EF92FF920F931F93CF93DF93CDB7DEB710
S1132970A4970FB6F894DEBF0FBECDBF9927AA2740
S1132980BB27FC01839710F00C94121EEA5BFF4FE7
S1132990EE0FFF1F0590F491E02D099480912E070E
S11329A09927582E442480912F079927482A592A79
S11329B0809130079927782E6624809131079927D2
S11329C0682A792A809132079927982E8824809141
S11329D033079927882A992A60E0C2010E94BB1311
S11329E061E0C3010E94BB1362E0C4010E94BB13F7
S11329F080919503882309F057C0C201AA2797FD47
S1132A00A095BA2FBC01CD010E94C52D7B018C017C
S1132A1057FE08C020E030E040E857E40E94182D3B
S1132A207B018C018091F7029091F802A091F90248
S1132A30B091FA029C01AD01C801B7010E94172DA3
S1132A40DC01CB01BC01CD010E94A82DDC01CB012E
S1132A500E940B07B09095030B2D1127000F111F37
S1132A60000F111FF801E950FD4F80819181A2816F
S1132A70B381BC01CD010E94A82D6B017C01F8013A
S1132A80E551FD4F80819181A281B381BC01CD01CB
S1132A900E94A82DDC01CB019C01A601B2018B2D63
S1132AA00E94F40681E059C0813009F05AC0C30184
S1132AB0AA2797FDA095BA2FBC01CD010E94C52D70
S1132AC07B018C0177FE08C020E030E040E857E449
S1132AD00E94182D7B018C018091FB029091FC02D5
S1132AE0A091FD02B091FE029C01AD01C801B701A5
S1132AF00E94172DDC01CB01BC01CD010E94A82D41
S1132B00DC01CB010E940B07B09095030B2D11271C
S1132B10000F111F000F111FF801E950FD4F8081B4
S1132B209181A281B381BC01CD010E94A82D6B01CA
S1132B307C01F801E551FD4F80819181A281B3812F
S1132B40BC01CD010E94A82DDC01CB019C01A60192
S1132B50B3018B2D0E94F40682E0809395030C94BC
S1132B60121E823011F00C94121EC401AA2797FD84
S1132B70A095BA2FBC01CD010E94C52D7B018C010B
S1132B8097FE08C020E030E040E857E40E94182D8A
S1132B907B018C018091FF0290910003A0910103BD
S1132BA0B09102039C01AD01C801B7010E94172D29
S1132BB0DC01CB01BC01CD010E94A82DDC01CB01BD
S1132BC00E940B07B09095030B2D1127000F111FC6
S1132BD0000F111FF801E950FD4F80819181A281FE
S1132BE0B381BC01CD010E94A82D6B017C01F801C9
S1132BF0E551FD4F80819181A281B381BC01CD015A
S1132C000E94A82DDC01CB019C01A601B4018B2DEF
S1132C100E94F406109295030C94121E80E02FC7B4
S1132C20AE014F5F5F4F82E190E0FA01818320E0C3
S1132C3030E0298384E390E08C832B8386E590E065
S1132C408E832D8388E790E088872F8388E0FE01B8
S1132C503996DA010D9001928A95E1F789819927D5
S1132C60382F2227FA0181819927282B392B8B8130
S1132C709927F82EEE248C819927E82AF92A8D8148
S1132C809927182F00278E819927082B192B223179
S1132C90310511F00E94F106F4E3EF16F10411F08E
S1132CA00E94F1060635110511F00E94F10689858E
S1132CB09927982F88272A853327822B932B42978D
S1132CC011F00E94EE068B859927982F88272C8572
S1132CD03327822B932BC49711F00E94EE068D8527
S1132CE09927982F88272E853327822B932B863577
S1132CF0910511F00E94EE0689859927982F88275F
S1132D002A853327822B932B429711F00E94990630
S1132D108B859927982F88272C853327822B932BF3
S1132D20C49711F00E9499068D859927982F8827BA
S1132D302E853327822B932B8635910509F472C790
S1132D400E9499066FC782E190E08A8B20E030E010
S1132D50298B84E390E08C8B2B8B86E590E08E8B23
S1132D602D8B88E790E0888F2F8B88E0DE015196C9
S1132D70FE0179960D9001928A95E1F7898D992744
S1132D80982F88272A8D3327822B932B429711F073
S1132D900E94F1068B8D9927982F88272C8D332735
S1132DA0822B932BC49711F00E94F1068D8D9927E5
S1132DB0982F88272E8D3327822B932B86359105C8
S1132DC011F00E94F106898D9927382F22278A8DC8
S1132DD09927282B392B8B8D9927F82EEE248C8D4F
S1132DE09927E82AF92A8D8D9927182F00278E8D87
S1132DF09927082B192B2231310511F00E94EE0678
S1132E0024E3E216F10411F00E94EE0606351105E2
S1132E1009F408C70E94EE0605C700E010E082E04E
S1132E200E9491000E5C1F4F31E0043F1307D1F75D
S1132E3083E025C640919303442339F58FB7F89472
S1132E40282F3327E0909D04F0909E0400919F0466
S1132E501091A0048091340490913504A09136041B
S1132E60B0913704E80EF91E0A1F1B1F2FBF809173
S1132E709A0690919B06A0919C06B0919D069C0198
S1132E80AD01C801B7010E942B080E94B201DC0108
S1132E90CB01BC01CD0140C00E94B2017B018C0179
S1132EA0FFEFAF2EFFEFBF2EFFEFCF2EFFE7DF2E9A
S1132EB070E087B78D7F87BFECE0F3E06EE080853C
S1132EC081FF1CC080819181A281B381A8019701F7
S1132ED0281B390B4A0B5B0BDA01C90124813581AC
S1132EE046815781281B390B4A0B5B0B2A153B057E
S1132EF04C055D051CF459016A0171E06150399675
S1132F0067FFDDCF772309F48DC61A141B041C0454
S1132F101D042CF0C801B7010E944D0F83C6A09276
S1132F209A06B0929B06C0929C06D0929D0681E0C0
S1132F3080939303A6019501C801B7010E942B0851
S1132F4071C68AE594E09093C1038093C00382E044
S1132F508093980382E18093A70588EB9BE090938C
S1132F603D0480933C041092DD021092DC02109226
S1132F70DB021092DA021092D9021092D00210925F
S1132F80CF021092CE021092CD021092CC02809108
S1132F909A00806480939A0080919A00886080935C
S1132FA09A0080919A00806880939A0080919A0098
S1132FB0806180939A0080919A00886080939A003F
S1132FC080919A00806180939A0088E180939E06A4
S1132FD088E480932F041EE71093A5031093BC0389
S1132FE010932C051093730548E150E060E070E005
S1132FF085EA93E00E94B9291093A50383E090E049
S11330009093A7038093A6031093BC0360919E063C
S113301085EA93E00E94570840EA5FE060E070E0D0
S113302088E00E94B901FEC588EB9BE090933D04C3
S113303080933C04809165038D7F8093650348EB06
S11330405BE060E070E089E09EC080915C038D7F6E
S113305080935C03E0909803F090A7058F2D992747
S11330609F938F938E2D99279F938F938091170110
S1133070909118019F938F9382EC91E09F938F938B
S11330800EE416E01F930F930E94C0294DB75EB75C
S1133090465F5F4F0FB6F8945EBF0FBE4DBFF80199
S11330A001900020E9F73197E01BF10B8091C702F2
S11330B09091C8028F37910520F01092C8021092A7
S11330C0C702EE23C9F02091C5023091C602D8018F
S11330D04E2F2F37310510F020E030E0F901EA558A
S11330E0FB4F8D918083C90101969C01415089F762
S11330F09093C6028093C5028091C902882361F42B
S113310081E08093C902E091C702F091C802EA55B8
S1133110FB4F80810E946D0555E0F51611F087E0A4
S1133120AEC4E0922905F092BD0644EF51E060E0A0
S113313070E087E028C080915E04813051F4909162
S1133140C203913011F483E011C0933009F06AC5D1
S11331500DC0863009F066C58091C203813011F438
S113316082E004C0823009F05DC581E08093C2032F
S113317059C580916E038D7F80936E0344E650E0C1
S113318060E070E08AE00E9443054CC58091A70589
S11331908231E9F482E190E09F938F93809117014B
S11331A0909118019F938F9382EE91E09F938F9358
S11331B084E795E09F938F930E94C0298DB79EB7B3
S11331C008960FB6F8949EBF0FBE8DBF96C086308A
S11331D019F08D3009F047C08091DE0299279F9342
S11331E08F938091A70599279F938F9380911701BF
S11331F0909118019F938F9385EF91E09F938F9304
S113320084E795E09F938F930E94C029ADB7BEB722
S11332101A960FB6F894BEBF0FBEADBF8091A70536
S11332208D3019F484E00E9463052091A705309144
S1133230DE028EE78093A5038093BC038AE090E0CE
S11332409093A7038093A603822F99279093A903B1
S11332508093A8033093AA0360919E0685EA93E0C5
S11332600E945708DFC4893009F4DCC499279F936E
S11332708F9380911701909118019F938F9380E110
S113328092E09F938F9384E795E09F938F930E949E
S1133290C029EDB7FEB738960FB6F894FEBF0FBE3F
S11332A0EDBF2DC08091A0069091A106029761F513
S11332B08091A2069091A3069F938F93809117010A
S11332C0909118019F938F9383E292E09F938F9341
S11332D084E795E09F938F930E94C0292DB73EB752
S11332E0285F3F4F0FB6F8943EBF0FBE2DBF8091AD
S11332F0A2069091A306429711F480E06AC18091DE
S1133300A7050E94BA088EC480919F0604E715E0C1
S11333102091A2063091A306882309F040C0809131
S11333203C0490913D048217930789F030933D0447
S113333020933C04809165038D7F80936503C901CC
S1133340AA27BB27AC01BD0189E00E9443058091F7
S1133350A2069091A3069F938F938091A10699272B
S11333609F938F938091A00699279F938F93809129
S11333701701909118019F938F9387E392E09F9395
S11333808F931F930F930E94C0294DB75EB7445F7C
S11333905F4F0FB6F8945EBF0FBE4DBF43C480911C
S11333A0A50699279F938F938091A40699279F93AD
S11333B08F933F932F9380911701909118019F93BE
S11333C08F9384E592E09F938F931F930F930E94B2
S11333D0C0298DB79EB70C960FB6F8949EBF0FBE4A
S11333E08DBF8091A7054091A5066091A406A6EA29
S11333F0B6E0893041F58EE78093A5038093BC0342
S113340089E090E09093A7038093A6039093A90387
S11334108093A8036093AA034093AB032CEA33E0A0
S113342080E1F9010D9001928A95E1F760919E0681
S1133430C90107970E9457088AE090E09093A70378
S11334408093A603EFC39D010E949208EBC382E020
S11334508093A003E091C003F091C103809198038D
S11334608083E091C003F091C1038091A70581831B
S1133470E091C003F091C10380913C0490913D041C
S1133480828393838091150190911601848395839F
S11334908091130190911401868397838091110187
S11334A0909112018087918780910F019091100172
S11334B08287938714861586168617868091A003C3
S11334C0825F8093A0030E943E05ACC38091D80222
S11334D0882309F4A7C3809180038D7F80938003A0
S11334E00E9420059927182F00270E94200599275C
S11334F0082B192B0E9420050E9439058091EA06A9
S11335009091EB068330910519F0059751F08AC329
S11335101092D802A80160E08091BC060E94FA0EC5
S113352081C31092D802A80160E08091BC060E9479
S1133530240F78C38091EA069091EB0686309105BA
S113354031F0079709F06EC31092D8026BC3109242
S1133550D8021092D60266C38091D302813011F44E
S11335600E9489038FB7F89499271092D30210927E
S1133570D402C6C18FB7F89499272091A50420934B
S11335800B0133E03093D5028FBF022F1127013096
S1133590110511F10230110524F40115110541F052
S11335A041C30230110561F103301105C9F13AC379
S11335B080E00E94BE0EE82EFF24EE2009F432C300
S11335C00E942006EE2021F41093160100931501A9
S11335D081E00E94D50426C381E00E94DC0E082FFE
S11335E01127002309F41EC381E00E94DE05002395
S11335F021F410921401109213010E94A10312C32A
S113360082E00E94BE0E082F1127002309F40AC38A
S11336100E94250660E070E0802F0E94120502C31C
S1133620832F0E94DC0E082F1127002309F4FAC20D
S11336300E942A0660E070E0802F0E94D303F2C249
S11336400E948903EFC2889890988998919882E1A2
S113365016C28FB7F894282F33279091250590939D
S11336600A0183E08093D1022FBF892F9927009705
S113367011F4BE9AC69A8130910579F08230910591
S11336801CF4892B21F0CEC2029759F0CBC281E001
S11336908093090610921D060AC081E080930906F2
S11336A004C081E08093090682E080931D060E9495
S11336B0F902B8C21092090680911D06E090A30396
S11336C0F090A403082F11270130110569F002308E
S11336D0110524F40115110529F00BC00230110560
S11336E029F007C080E003C081E001C082E00E94AD
S11336F02C0201301105B9F0023011051CF4012B24
S113370029F090C202301105C9F08CC276E0F6941B
S1133710E7947A95E1F7F0921201E092110181E0C9
S11337200E94E1027FC266E0F694E7946A95E1F7AD
S1133730F0921001E0920F018FE0A1C156E0F694DF
S1133740E7945A95E1F78091A5059091A6052091FB
S1133750A1033091A20380932F07892F9927809387
S11337602E0720933107832F992780933007E09207
S113377033078F2D99278093320780913407992737
S1133780382F2227809135079927282B392BC901F7
S1133790AA27BB278093990590939A05A0939B052C
S11337A0B0939C05C901019680933507892F992709
S11337B08093340781E063C18091C402813009F5AC
S11337C082E08093C4020E94DA00809399068FB746
S11337D0F894282F33278091C1029091C202892B3B
S11337E011F02FBF0EC081E090E09093C20280934D
S11337F0C1022FBFDD9A64E170E080E090E00E9496
S1133800810988E13CC1BBEFEB2EB6E0FB2E88E0DA
S1133810EEE8F6E0D70101900D928A95E1F7E5EF25
S1133820FFEFEE0EFF1E8FEF9FEF8093F6068FEFF4
S113383090E08093F706AEEDCA2EC092FA0600918E
S11338409603109197030115110519F085E090E096
S113385025C0F0929703E09296038DE08093F006E2
S1133860D0900001FFEFDF16C1F4C7010E94BB0036
S11338701092000121E0A701BC018C2D0E94560D7D
S11338809927282F882331F0D092000110939703B1
S113389000939603822F992701C0C801882309F455
S11338A0C1C189E1ECC083E08093C40268EE73E097
S11338B080E090E00E94DA01B5C181E08093C40207
S11338C0B1C18FB7F89499278FBF83E08093C40266
S11338D02091E4063091E50680910001E82FFF274E
S11338E0EE0FFF1FEA56FC4F8081918182179307E8
S11338F009F098C193C18FB7F894992710922A04BC
S11339008FBF90C18FB7F894082F11278091C00200
S1133910882339F441E050E060E070E08EE00E94DA
S1133920B9010FBF7FC18FB7F894282F3327809137
S1133930C002882329F0809192038D7F80939203A3
S11339402FBF70C18FB7F894282F332790910A06A0
S11339509093030182E08093BD022FBF992309F065
S113396061C18FB7F8949927209106018FBF33273F
S11339702130310509F452C0223031051CF4232BC7
S113398051F050C12230310509F47CC02330310597
S113399009F48FC047C1C0988FB7F894E82EFF246C
S11339A08091C1029091C2020297B1F583E090E048
S11339B09093C2028093C10268E170E08DE10E949D
S11339C08B0A11E0109394031092C00280B39927DC
S11339D0F6E096958795FA95E1F7812380932B0578
S11339E00E94C500812F0E94870A6FE772E08CE174
S11339F00E948B0A9091090185E0989FC0011124CF
S1133A00825D9E4F9064BC0188E10E948B0A62EF44
S1133A107AE281E10E948B0AEFBE04C18FB7F89469
S1133A20282F3327409109018091070190910801C3
S1133A3089A3892F99278AA38091BE069091BF06F6
S1133A408BA3892F99278CA32FBFC09885E0489F0B
S1133A50C0011124825D9E4F9064BC0188E10E94E4
S1133A608B0A24E0AE014F5D5F4F60E088E691E091
S1133A700E949B0AC09A81E00E94810B8DE10E9402
S1133A809100D0C08FB7F89499272091BB028FBFC3
S1133A9033272230310521F02430310521F006C0CE
S1133AA00E94220DBFC00E940C0CBCC00E94070CD7
S1133AB0B9C00E94BF0CB6C0A0910A03B0910B0319
S1133AC08C919D01280F311DF9018081881F882761
S1133AD0881FFD0182A7F90182919F012F5F3F4F4B
S1133AE0FD0180A7F90180818F77FD0181A70091F5
S1133AF00A0310910B036BE0E62EF12CE00EF11E8D
S1133B00C8010E94BB009C018091010190910201B7
S1133B102817390721F02F5F3F4F09F070C0F801D3
S1133B2082858E3D09F06BC053E1C52E56E0D52E3B
S1133B3068E0D601F701262F01900D922A95E1F74E
S1133B40809119069927582F442780911A0699279E
S1133B50482B592B5093C6034093C50380911306F9
S1133B609927062E02C0880F991F0A94E2F7209124
S1133B7014063327822B932B90930C0680930B0609
S1133B80809115069927062E02C0880F991F0A9462
S1133B90E2F7209116063327822B932B90930E067F
S1133BA080930D06809117069927062E02C0880F70
S1133BB0991F0A94E2F7209118063327822B932B3E
S1133BC09093100680930F06809134079927062E50
S1133BD002C0880F991F0A94E2F720913507332712
S1133BE0822B932B8417950750F4EEE2F7E0D6016D
S1133BF00D9001926A95E1F780E00E949100109384
S1133C000B0300930A030E94EC0C0CC0809100018A
S1133C10E82FFF27EE0FFF1FEA56FC4F1082118298
S1133C200E94CF0DA4960FB6F894DEBF0FBECDBF91
S1133C30DF91CF911F910F91FF90EF90DF90CF9084
S1133C40BF90AF909F908F907F906F905F904F90B8
S1133C5008958091BB068F3FD1F09091BB0680916F
S1133C60BB06E82FFF27E054F94F80818093BB0601
S1133C708091BB068F3F11F48093E606892F992724
S1133C80FC01E054F94F2FEF20839C0102C02FEF79
S1133C9030E02F3F19F480E090E00895822F0E94D5
S1133CA0A61481E090E00895CFEFD0E1DEBFCDBF50
S1133CB08FB7F894C82F43E250E06FEF70E080ECC8
S1133CC096E00E94B9298FEF8093BB068093E606A5
S1133CD081E08EBD88E080BF83E083BF2CB53DB515
S1133CE04AE78CB59DB58217930708F441509C01AF
S1133CF04423B9F792B782B78917E9F32CB53DB5D8
S1133D0092B782B78917E9F38CB59DB5821B930BE3
S1133D104096A5E096958795AA95E1F79093A4051A
S1133D208093A30513BE83B78EBD8EB580BF12BE2C
S1133D301DBC1CBC8FEF86BF86B780937C0080B708
S1133D40282F33272770307021153105C1F7D29AF7
S1133D50D19AD09ADA9AD99AD89A25BB8FEF84BB94
S1133D60D498DC983DBD2CBD87B7846087BF8EB5E1
S1133D70887F84608EBD16B880B7886080BF80E27B
S1133D8085BF0E94291E8823E1F780911701909135
S1133D9018010196AA27BB2780933004909331041D
S1133DA0A0933204B09333048FEF809399038091EE
S1133DB0C402882319F481E08093C402B89AD69A85
S1133DC0D59A80910101909102019093BF0680934E
S1133DD0BE068E98B89A8C988EE196E090930B0369
S1133DE080930A030091A3051091A405C801AA2792
S1133DF0BB27FCE0880F991FAA1FBB1FFA95D1F7B8
S1133E00BC01CD0120E031EE40E050E00E94DA2E0A
S1133E10DA01C901019789B9892F99278093900004
S1133E2082E08BB986E0809395001AB8C801AA276E
S1133E30BB277CE0880F991FAA1FBB1F7A95D1F777
S1133E40BC01CD0120E031EE40E050E00E94DA2ECA
S1133E50DA01C901019780939900892F99278093EA
S1133E60980082E080939B0086E080939D001092EE
S1133E709A001092BF038FEF9FEFAFEFBFEF8093D5
S1133E80EC069093ED06A093EE06B093EF0600B611
S1133E9002FCFDCF12BE87B7816087BF83B7887FDE
S1133EA0836000B600FCFDCF83BF0E94291E9927C2
S1133EB08823D9F7CFBF78948093C9021092C8029F
S1133EC01092C7021092C6021092C502569A539AD3
S1133ED0579A549A539A549A87E00E94910088E121
S1133EE00E9491008FB7F894482F4AC087B799274A
S1133EF0887B892B41F480917D00282F33272B7FE9
S1133F002115310519F020E030E02AC06F9928C04E
S1133F108AB1807C29F580919A00807C09F5379BD1
S1133F2003C021E030E01CC087B7992783709070EC
S1133F30892BA1F080B7992787709070892BD1F7CE
S1133F4081B792B7891B8C3018F082B7853F18F07F
S1133F5022E030E005C023E030E002C025E030E09C
S1133F60E5E02E1708F4E22F85B7837EFF27EE5293
S1133F70FF4F9491892B806285BF78948895F8943B
S1133F808091BB068F3FC9F09091BB068091BB0620
S1133F90E82FFF27E054F94F80818093BB0680917E
S1133FA0BB068F3F11F48093E606892F9927FC0105
S1133FB0E054F94F2FEF208302C08FEF90E08F3F42
S1133FC009F494CF4FBF0E94A6148CCF83B783BF4C
S1133FD000B600FCFDCF08951F920F920FB60F920A
S1133FE011242F933F934F935F936F937F938F93FA
S1133FF09F93AF93BF93CF93EF93FF930E94E61FDA
S113400087B78D7F87BF78948FB7F894C82F809136
S1134010340490913504A0913604B091370400978C
S1134020A105B10521F485E00E94910002C00E941F
S11340306207CFBFFF91EF91CF91BF91AF919F9155
S11340408F917F916F915F914F913F912F910F903D
S11340500FBE0F901F9018951F920F920FB60F92DC
S113406011242F933F934F935F936F937F938F9379
S11340709F93AF93BF93EF93FF930E94E61F8091AA
S1134080950590919605A0919705B0919805019694
S1134090A11DB11D8093950590939605A093970556
S11340A0B09398058091A204882339F081508093BD
S11340B0A204882311F40E946207FF91EF91BF913B
S11340C0AF919F918F917F916F915F914F913F91AC
S11340D02F910F900FBE0F901F9018951F920F9263
S11340E00FB60F9211240F900FBE0F901F901895CA
S11340F01F920F920FB60F9211242F933F934F9359
S11341005F936F937F938F939F93AF93BF93EF933B
S1134110FF9389B78D7F89BF80E10E949100FF9151
S1134120EF91BF91AF919F918F917F916F915F912B
S11341304F913F912F910F900FBE0F901F901895A4
S11341401F920F920FB60F9211240F900FBE0F9073
S11341501F9018951F920F920FB60F9211240F9073
S11341600FBE0F901F9018951F920F920FB60F92CB
S113417011240F900FBE0F901F9018951F920F924D
S11341800FB60F9211240F900FBE0F901F90189529
S11341901F920F920FB60F9211242F933F934F93B8
S11341A05F936F937F938F939F93AF93BF93EF939B
S11341B0FF9380912D0490912E04019719F40E948D
S11341C0DA0C05C08091E8068F5F8093E806FF91C2
S11341D0EF91BF91AF919F918F917F916F915F917B
S11341E04F913F912F910F900FBE0F901F901895F4
S11341F01F920F920FB60F9211240F900FBE0F90C3
S11342001F9018951F920F920FB60F9211242F939F
S11342103F934F935F936F937F938F939F93AF934A
S1134220BF93EF93FF9364B175B178948FB7F8940B
S1134230282F33278091E306482F469541702FBFDE
S1134240282F217080FD1CC033988091090699277E
S11342508130910519F0029759F028C0442351F098
S11342607093A4036093A30387E10E9491001EC08E
S1134270442319F40E94F90219C02093090616C0B8
S11342808FB7F89499278FBF8FB7F894482F552785
S113429086B180618777282F332726B98F7B282F13
S11342A0332726B98068992786B94FBFFF91EF91CC
S11342B0BF91AF919F918F917F916F915F914F913A
S11342C03F912F910F900FBE0F901F9018951F9242
S11342D00F920FB60F9211248F935F998CB18F9127
S11342E00F900FBE0F901F90189578941F920F9205
S11342F00FB60F9211242F933F934F935F936F93B5
S11343007F938F939F93AF93BF93EF93FF9380918A
S1134310C7029091C80201969093C8028093C70285
S11343208F37910520F01092C8021092C702809135
S1134330C5029091C6028F37910520F01092C602F3
S11343401092C502E091C702F091C8028091C502A3
S11343509091C602E817F90731F0EA55FB4F8081C6
S11343600E946D0502C01092C902FF91EF91BF91A6
S1134370AF919F918F917F916F915F914F913F91F9
S11343802F910F900FBE0F901F9018951F920F92B0
S11343900FB60F9211242F933F934F935F936F9314
S11343A07F938F939F93AF93BF93EF93FF938091EA
S11343B09B0087FFD1C140919C008091CA02882351
S11343C021F44E3709F0C8C106C02091CB02233036
S11343D050F44E3741F481E08093CA024093A8051B
S11343E08093CB02B9C1E22FFF27E855FA4F4083EF
S11343F02F5F2093CB023091A905333049F580918A
S11344009E06281709F098C11092CA024E3709F087
S11344109BC18091AB058093A705863021F089303C
S113442011F08D3081F48AE0809398038091A70580
S11344308D3061F48FEF80939C03109296068BE08D
S11344400E94910003C082E08093980389E071C1C7
S1134450323009F04CC080919E06281709F06CC1D7
S11344601092CA024E3709F06FC13093A003E09155
S1134470C003F091C103809198038083E091C0034D
S1134480F091C1038091A7058183E091C003F0916D
S1134490C10380913C0490913D0482839383809175
S11344A0AF059091B005848395838091B105909177
S11344B0B205868397838091B3059091B405808774
S11344C091878091B5059091B605828793878091F5
S11344D0B7059091B805848795878091B905909127
S11344E0BA05868797878091A003825F1FC1393000
S11344F009F09DC080919E06281709F01DC11092F5
S1134500CA024E3709F020C182E08093A003809153
S1134510A7058D30F1F48091AD05833109F016C102
S113452080911701909118019F938F9381E792E0F6
S11345309F938F9384E795E09F938F930E94C02964
S11345408DB79EB706960FB6F8949EBF0FBE8DBF6B
S1134550FDC0893059F488E1A8EAB5E0EEE3F4E05F
S11345600D9001928A95E1F78CE0E3C08E3029F03A
S1134570843019F0853009F0E9C0E091C003F0916E
S1134580C103809198038083E091C003F091C1033B
S11345908091A7058183E091C003F091C1038091CC
S11345A03C0490913D04828393838091AF05909164
S11345B0B005848395838091B1059091B20586837B
S11345C097838091B3059091B405808791878091FA
S11345D0B5059091B605828793878091B705909130
S11345E0B805848795878091B9059091BA05868727
S11345F097878091A003825F8093A0038091170125
S1134600909118019F938F9388E892E09F938F93E2
S113461084E795E09F938F930E94C0298DB79EB73E
S113462006960FB6F8949EBF0FBE8DBF81C0313081
S113463019F03A3009F08AC080912F04281709F044
S11346407BC01092CA024E3709F07EC082E080938C
S1134650A003E091C003F091C1038091980380838B
S1134660E091C003F091C1038091A70581838091FB
S1134670A7058D3009F03FC01092D9028FEF8093C7
S11346809C038091AD0599279F938F938091170187
S1134690909118019F938F9382EA92E09F938F9356
S11346A084E795E09F938F930E94C0298DB79EB7AE
S11346B008960FB6F8949EBF0FBE8DBF9091AD05BE
S11346C0903F19F41092DE0216C08091AF058A3033
S11346D029F48091B0058A3A39F00AC08A3A41F443
S11346E08091B0058A3021F484E00E94630503C000
S11346F09F5F9093DE02E091C003F091C10380912B
S1134700AE0582832091C0033091C1038091AE0530
S11347109927AC016FEA75E0C90103960E94B0299C
S11347208091A0039091AE05890F8F5F8093A003C1
S11347308AE00E9491000AC09927029733278217C2
S1134740930724F44E3711F41092CA028091CB02DD
S1134750813610F01092CA02FF91EF91BF91AF9190
S11347609F918F917F916F915F914F913F912F9185
S11347700F900FBE0F901F90189578941F920F9270
S11347800FB60F9211242F933F934F935F936F9320
S11347907F938F939F93AF93BF93EF93FF938091F6
S11347A0CE029091CF0201969093CF028093CE02D5
S11347B08036910520F01092CF021092CE028091A3
S11347C0CC029091CD028036910520F01092CD025A
S11347D01092CC02E091CE02F091CF028091CC02F3
S11347E09091CD02E817F90731F0E953FC4F80812D
S11347F00E94490802C01092D002FF91EF91BF912C
S1134800AF919F918F917F916F915F914F913F9164
S11348102F910F900FBE0F901F90189578941F92B0
S11348200F920FB60F9211240F931F932F933F9360
S11348304F935F936F937F938F939F93AF93BF93A4
S1134840CF93EF93FF9387B78F7E87BF78948FB70B
S1134850F894C82F8091B6069091B706A091B80637
S1134860B091B9060097A105B10509F066C0809121
S1134870BB029091BC0284309105D9F18530910539
S113488018F4039721F047C00797D1F144C080B3CF
S11348909927B6E096958795BA95E1F780FF26C0EB
S11348A084E090E09093BC028093BB020E94F801E4
S11348B0DC01CB012FB7F894022F11278093380421
S11348C090933904A0933A04B0933B0487E090E0BA
S11348D0A0E0B0E08093B6069093B706A093B80624
S11348E0B093B9060E94D3080FBF15C00E94AB094C
S11348F012C00E94720B882371F40E940C0C0BC02E
S113490081E090E09093BC028093BB021092C302BA
S11349108CE10E9491008091C1029091C2020197A2
S113492071F482E090E09093C2028093C102DE9819
S1134930DE9A80E00E944F0B02C00E94D308CFBFD2
S1134940FF91EF91CF91BF91AF919F918F917F9103
S11349506F915F914F913F912F911F910F910F9004
S11349600FBE0F901F90189578941F920F920FB658
S11349700F9211240F900FBE0F901F9018957894EA
S11349801F920F920FB60F9211240F900FBE0F902B
S11349901F90189578941F920F920FB60F921124BE
S11349A0FF920F931F932F933F934F935F936F93B4
S11349B07F938F939F93AF93BF93CF93DF93EF93A3
S11349C0FF93CCB5DDB580E286BF8FB7F894F82E9F
S11349D08091BB029091BC028530910519F0069735
S11349E039F16AC080E00E946E0A82E00E94810B65
S11349F087B78F7E87BF86E090E09093BC02809358
S1134A00BB02E0915804F091590481819927877081
S1134A109070019721F4C5A78D2F992784A780B39F
S1134A20992724E0969587952A95E1F780FD8AC019
S1134A3081E00E946E0AE0915804F091590481814A
S1134A4085FF26C087E090E09093BC028093BB0270
S1134A500E94F801DC01CB012FB7F894022F112733
S1134A608093380490933904A0933A04B0933B04A0
S1134A7080E890E0A0E0B0E08093B6069093B7069B
S1134A80A093B806B093B9060E94D3080FBF0BC019
S1134A9081E090E09093BC028093BB021092C30229
S1134AA08CE10E94910080B3992704E09695879544
S1134AB00A95E1F780FF46C08091BA02882351F538
S1134AC00E946E0A409108064830A0F48091940533
S1134AD0840F912D911D9C01887F9370281BE22FD8
S1134AE0FF27EE0FFF1FE25EF84FC083D1834F5FB5
S1134AF04093080681E08093BA02D0939806C0934D
S1134B00970680B3992714E0969587951A95E1F74F
S1134B1080FD18C08091BA028823A1F081E00E9430
S1134B206E0A1092BA028091970690919806C81B5B
S1134B30D90B2A9738F480910806882319F08150FC
S1134B4080930806FFBEFF91EF91DF91CF91BF9153
S1134B50AF919F918F917F916F915F914F913F9111
S1134B602F911F910F91FF900F900FBE0F901F90E8
S1134B70189578941F920F920FB60F9211242F93C9
S1134B803F938F939F938FB7F894282F3327809167
S1134B90BD039091BE0301969093BE038093BD0321
S1134BA02FBF9F918F913F912F910F900FBE0F9028
S1134BB01F9018951F920F920FB60F9211242F92E7
S1134BC03F924F925F926F927F928F929F92AF9299
S1134BD0BF92CF92DF92EF92FF920F931F932F9386
S1134BE03F934F935F936F937F938F939F93AF9371
S1134BF0BF93EF93FF93CF93DF93CDB7DEB72A979D
S1134C00DEBFCDBF8FB1282F3327E0919A03F091F7
S1134C109B03309739F08091C3039091C403E80F4C
S1134C20F91F20838091C3039091C403019690934C
S1134C30C4038093C30380E00E94C40A2091C30389
S1134C403091C40380911B0690911C0628173907E4
S1134C5018F40E94370CAEC1E0909A03F0909B03C5
S1134C6010929B0310929A031092A4041092A3042E
S1134C7010921C0610921B061092C4031092C303D8
S1134C808FB180914C0690914D0620914C0686FF81
S1134C90E1C02F7B822F99278E33910509F48AC1B5
S1134CA0CF9709F087C1C0900A03D0900B03F60197
S1134CB0108180912D0490912E048230910521F071
S1134CC0039709F444C0C1C083E090E090932E049C
S1134CD080932D04412F55279A012F5F3F4F6091F8
S1134CE09D03862F9927821793077CF40E942F0631
S1134CF0C09AC09888E00E94870A88E00E94870AC8
S1134D00C09A83E00E94810B9DC080E090E0B79B35
S1134D1002C081E090E0892B69F481B19927B6E063
S1134D2096958795BA95E1F780FD04C0611B6150A3
S1134D3060939D03193220F4B6016F5F7F4F02C068
S1134D4060E070E080E090E00E94A50C33C1C09A5E
S1134D5083E00E94810B80910806882311F11B30A7
S1134D6038F180919405E82FFF27EE0FFF1FE25ED4
S1134D70F84F80819181F60185A7892F992784A70F
S1134D8080919405992701969C01287F3170821B9C
S1134D90930B8093940580910806815080930806B4
S1134DA007C08FEF9FEFF60185A78FEF90E084A7F0
S1134DB0F601E10FF11D808187FF44C0EF2809F45B
S1134DC041C0F6016181677040910A0350910B0361
S1134DD0623091F5A0915804B0915904FA012081F0
S1134DE08091BB029091BC02079761F5FD0193810C
S1134DF0FA018381891731F587B78F7E87BF81E0F8
S1134E00FD0183A7420F511DFA0182919F012F5F7B
S1134E103F4FFD0180A7F90180818F77FD0181A7B4
S1134E2081E090E09093BC028093BB021092C30295
S1134E308CE10E94910006C0613021F481E20E945D
S1134E409100B8C00E94EC0CB5C0C09A83E00E94E7
S1134E50810BB0C02E3309F0ADC0C09A8091BB0263
S1134E609091BC02089739F481E090E09093BC02E1
S1134E708093BB029FC08091A104882349F484E0FD
S1134E8090E09093BC028093BB020E940C0C92C0F1
S1134E9082E00E94810B83E090E09093BC028093B7
S1134EA0BB028FB7F894282F332729873A8720909D
S1134EB0300430903104409032045090330466241E
S1134EC07EE4A72E63E8B62EC62CD62CE62CF62C50
S1134ED0062D162D222D332D442D552D662D762D80
S1134EE0862D962D0E94012829833A834B835C8367
S1134EF06D837E838F839887822E932EA42EB52E66
S1134F00C62ED72EE82EF92E240135017694679407
S1134F105794479400E2282D392D4A2D5B2D6C2D92
S1134F207D2D8E2D9F2D0E940B29A22EB32EC42ED3
S1134F30D52ED601C501840D951DA61DB71DB7FF3D
S1134F4004C0BF770196A11DB11D809330049093D6
S1134F503104A0933204B093330439853FBF8F7179
S1134F60907001969C0143E0220F331F4A95E1F7AC
S1134F70280F391F280F391F7901002711270E9494
S1134F80F801DC01CB012FB7F894C22EDD24809305
S1134F90380490933904A0933A04B0933B04E0920C
S1134FA0B606F092B7060093B8061093B9060E94AD
S1134FB0D308CFBE2A96F894DEBFCDBFDF91CF9140
S1134FC0FF91EF91BF91AF919F918F917F916F91DD
S1134FD05F914F913F912F911F910F91FF90EF900F
S1134FE0DF90CF90BF90AF909F908F907F906F9005
S1134FF05F904F903F902F900F900FBE0F901F9097
S11350001895A0E3B0E0E7E0F8E20C942F2F222EED
S1135010332E442E552E662E772E882E992E2A2D29
S11350203B2DA8E0FE013196AA2E1192AA94E9F72D
S113503029823A824B825C826D827E828F8298863C
S1135040FE013996BA2E1192BA94E9F729873A8764
S1135050CB86DC86ED86FE860F87188BFE01719663
S11350601192AA95E9F7C980DA80EB80FC80C9A681
S1135070DAA6EBA6FCA6870176018FEF9FEFA0E0EE
S1135080B0E0E822F9220A231B23A9A4BAA4CBA4E2
S1135090DCA416014424552489859A85AB85BC85F6
S11350A08DA79EA7AFA7B8AB5C016D018FEF9FEFF3
S11350B0A0E0B0E0A822B922CA22DB228DA59EA5D9
S11350C0AFA5B8A93D0188249924C801B701A60158
S11350D095010E94FC2E69A37AA38BA39CA3C8010B
S11350E0B701A40193010E94FC2E6DA37EA38FA39C
S11350F098A7C201B101A60195010E94FC2E7B0173
S11351008C01C201B101A40193010E94FC2E9B01F8
S1135110AC01A9A0BAA0CBA0DCA0C601AA27BB27DA
S1135120ADA0BEA0CFA0D8A4A80EB91ECA1EDB1E77
S1135130AE0CBF1CC01ED11EADA2BEA2CFA2D8A66B
S1135140AE14BF04C006D10620F4205030404F4FA7
S11351505F4FCDA0DEA0EFA0F8A4C701AA27BB270C
S1135160820F931FA41FB51F8D8F9E8FAF8FB8A37F
S1135170A6013327222789A19AA1ABA1BCA1A070C3
S1135180B070280F391F4A1F5B1F298F3A8F4B8F2E
S11351905C8FA98CBA8CCB8CDC8CED8CFE8C0F8D47
S11351A018A1ED8AFE8A0F8B188F2D853E854F85B9
S11351B0588969A57AA58BA59CA50E94FC2E3B0164
S11351C04C018D819E81AF81B885BC01CD012DA597
S11351D03EA54FA558A90E94FC2EDC01CB01680E08
S11351E0791E8A1E9B1E8D899E89AF89B88D860D76
S11351F0971DA81DB91D8D8B9E8BAF8BB88F6D89A4
S11352007E898F89988D2A2D3B2D4C2D5D2DE2E1D1
S1135210E0960C944B2F8F929F92AF92BF92CF92B5
S1135220DF92EF92FF920F93CF93DF93CDB7DEB768
S113523068970FB6F894DEBF0FBECDBFE82E0023EB
S113524049F4298B3A8B4B8B5C8B6D8B7E8B8F8BCC
S1135250988F6CC088E0FE01319611928A95E9F727
S113526029833A834B835C836D837E83EF829887A3
S113527040E2401B14160CF041C08D819E81AF8129
S1135280B8856C017D0104C0CC0CDD1CEE1CFF1C38
S11352904A95D2F7202F332727FD3095022E04C0DC
S11352A0B695A795979587950A94D2F78D879E878B
S11352B0AF87B88B89819A81AB81BC8104C0B695D4
S11352C0A795979587952A95D2F78C299D29AE297C
S11352D0BF2989879A87AB87BC8729853A854B85FF
S11352E05C856D857E858F859889298B3A8B4B8B60
S11352F05C8B6D8B7E8B8F8B988F18C01D861E8662
S11353001F86188A842F992787FD90952227332793
S1135310281B390B8D819E81AF81B88504C0B69559
S1135320A795979587952A95D2F7D3CF29893A8956
S11353304B895C896D897E898F89988D68960FB6B3
S1135340F894DEBF0FBECDBFDF91CF910F91FF90D8
S1135350EF90DF90CF90BF90AF909F908F90089583
S1135360FB01DC0102C001900D9241505040D8F77E
S11353700895DC0101C06D9341505040E0F7089559
S11353800F931F93CF93DF93CDB7DEB72C970FB650
S1135390F894DEBF0FBECDBF0B891C892D893E89D1
S11353A046E04C8309831A838FEF9FE78D839E83A6
S11353B0AE01495E5F4FB901CE0101960E94F0290A
S11353C0EF81F885E00FF11F10822C960FB6F89448
S11353D0DEBF0FBECDBFDF91CF911F910F91089516
S11353E02F923F924F925F926F927F928F929F92F1
S11353F0AF92BF92CF92DF92EF92FF920F931F93DF
S1135400CF93DF93CDB7DEB762970FB6F894DEBFC4
S11354100FBECDBFEE24FF2487011C016D877E875C
S11354202A01CC24DD24FC01C682D782838181FD3C
S113543080C28FEF9FEF90C28D859E8501968D87E8
S11354409E87C0FE63C28F8580538A30D0F49F85C7
S1135450903339F4662029F4C3FC03C0E0E0F1E0A2
S113546093C08AE0689E602C1124FF856F0E20EDA6
S1135470620E67FE02C0EFE76E2EC3FC5AC2762CA2
S113548058C2960173E0369527957A95E1F720FF87
S113549004C0662011F461E0662E4F85842F99279D
S11354A087FD9095883691058CF5853691050CF02D
S11354B06EC08335910509F493C084359105CCF40D
S11354C08B32910509F449C08C3291054CF4803239
S11354D0910509F446C08332910509F44AC010C20B
S11354E08D32910509F440C08E32910509F444C00F
S11354F007C28336910509F450C0843691050CF037
S11355008AC08835910509F4BCC0FAC18037910579
S113551009F4B1C08137910584F48C36910591F179
S11355208D3691052CF48936910509F474C0E8C1CF
S11355308F36910509F49CC0E3C18537910509F4C0
S1135540A2C08637910524F48337910571F1D8C13F
S11355508837910509F495C0D3C180E190E0C82A49
S1135560D92AE0E2F0E010C080E890E0C82AD92A05
S1135570E0C1E0E4F0E008C088E090E0C82AD92A5D
S11355806624D7C1E4E0F0E0CE2ADF2AD2C15FE38B
S1135590E52E7A94F3E6FF8744C1F20182E090E0BD
S11355A0480E591EE0807A943CC1F20182E090E0FA
S11355B0480E591EA081B1817D0120FF09C0862DAE
S11355C0992787FD9095BC01CD010E94012D1FC034
S11355D0FD0101900020E9F73197EA1BE88B18C020
S11355E0F20182E090E0480E591E0190F081E02D16
S11355F07F0120FF09C0862D992787FD9095BC0166
S1135600CF010E940C2D03C0CF010E94F82C888B7F
S11356109889791A06C1C2FE0AC0F20184E090E0BA
S1135620480E591E20813181428153810CC0F20100
S113563082E090E0480E591E808191819C014427AC
S113564037FD4095542F79018A0157FF0CC0E2E0E1
S1135650F0E0CE2ADF2A10950095F094E094E11C46
S1135660F11C011D111D8FEB9FEFC822D92227C009
S113567098E0988B08C0E0E4F0E0CE2ADF2AF8E74F
S1135680FF8720E1288BC2FE0AC0F20184E090E08B
S1135690480E591E20813181428153810AC0F20192
S11356A082E090E0480E591E808191819C0144273C
S11356B0552779018A01EFECFFEFCE22DF22CE01DC
S11356C00196898B9A8B9889892E9924AA24BB24C4
S11356D0C801B701A50194010E94DA2EDC01CB01B7
S11356E0E989FA8980838A3024F0FF858F0F8152FB
S11356F001C0805DE989FA898193E98BFA8BC8013D
S1135700B701A50194010E94DA2E79018A012115BD
S1135710310541055105E1F6E98881E090E08C0FFF
S11357209D1FE81AC60182739070892B09F07A9440
S1135730C6FE0DC0872D992787FD9095E889E03135
S113574021F44EEF742E780E02C0782E7A94C3FEA4
S11357500FC0262D332727FD30958E2D99278217CC
S113576093072CF087EF9FEFC822D92201C06E184F
S1135770560133E0B694A7943A95E1F7A0FE02C02F
S1135780761801C07E18C60180789170892B51F477
S1135790872D7A94181634F4B10180E290E00E94C7
S11357A0C52CF6CFC1FE04C0B1018DE290E00BC060
S11357B0C4FE04C0B1018BE290E005C0C5FE05C083
S11357C0B10180E290E00E94C52CC6FE10C0B10178
S11357D080E390E00E94C52C9889903141F4B10196
S11357E0EF858E2F992787FD90950E94C52C8D2DCE
S11357F0992780FF0AC0872D7A94181634F4B101D2
S113580080E390E00E94C52CF6CFA0FE0AC0862D4E
S11358106A94181634F4B10180E390E00E94C52C18
S1135820F6CF5601AA0CAB2CAA1CBB08B194A0FC61
S11358300AC0872D7A94181634F4B10180E290E0FE
S11358400E94C52CF6CFFF85F33641F48E2DB101AD
S1135850992787FD90950E94C52C46C02F85233734
S1135860B9F448894150488B4F3F09F43DC0F701D2
S113587080810894E11CF11CB101992787FD909562
S11358800E94C52C88898150888B8F3F81F72CC05A
S11358909F859335A1F4E889E150E88BEF3F21F12E
S11358A0F7018491B10199270E94C52C0894E11C49
S11358B0F11CF889F150F88BFF3F91F715C06E0188
S11358C00894C11CD11C89899A898C159D0561F0A5
S11358D0E989FA898291E98BFA8BB101992787FDCD
S11358E090950E94C52CEFCFA0FE0DC0872D7A9411
S11358F018164CF4B10180E290E00E94C52CF6CF5A
S1135900B1010E94C52CCC24DD2413C09F8595329F
S113591041F481E0C82ED12C6624762CEAE0E88B91
S113592008C0B101FF858F2F992787FD90950E94AC
S1135930C52CF101838183FF04C0ED85FE85F491BC
S113594003C0ED85FE85F081FF872F85222309F0B2
S113595073CDF1018681978162960FB6F894DEBF0C
S11359600FBECDBFDF91CF911F910F91FF90EF90AC
S1135970DF90CF90BF90AF909F908F907F906F906B
S11359805F904F903F902F9008950F931F93CF9364
S1135990DF938C01EB018B81992781FF22C082FF69
S11359A014C02E813F818C819D81281739073CF4D6
S11359B0E881F9810193E883F9832E813F812F5F88
S11359C03F4F2E833F83C8010EC0E885F985802FA1
S11359D00995892B31F4AE81BF811196AE83BF83C3
S11359E0F2CF8FEF9FEFDF91CF911F910F91089529
S11359F0FC0105900020E9F7809590958E0F9F1F7C
S1135A000895FC016150704001900110D8F7809511
S1135A1090958E0F9F1F0895FC0161507040059072
S1135A200110D8F7809590958E0F9F1F08955058B8
S1135A30192EF7D001D0DAC0BA17620773078407AA
S1135A409507B1F188F40EF410940B2EBA2FA02D03
S1135A50062E622F202D072E732F302D082E842F13
S1135A60402D092E952F502DFF275523B9F0591B92
S1135A7049F0573E98F0469537952795A795F040FD
S1135A805395C9F776F0BA0F621F731F841F30F461
S1135A90879577956795B795F040939517FA0F2EEC
S1135AA00895BF1BBB27BA0B620B730B840BF6CF95
S1135AB0DEF6D4C0592F482F372F262F9FE380E8D6
S1135AC077276627AED001D091C0552359F099238A
S1135AD069F09F575F57951B33F442F4903811F4E3
S1135AE0915805C09BC091589F3F09F4B7C0BB278C
S1135AF0112462177307840730F4660F771F881F19
S1135B00BB1F915098F311D00F920FD00F920DD06C
S1135B10A0E82617370748071B0609F0A048BA2F44
S1135B20602D7F918F9100240895A0E800246217CE
S1135B3073078407B10528F0621B730B840BB1094A
S1135B400A2A660F771F881FBB1FA69581F7089541
S1135B5097FB73D09F3738F0FEE9F91B982F872FF6
S1135B60762F6B2F05C077C09695879577956795A7
S1135B70F150D0F73EF490958095709561957F4FE4
S1135B808F4F9F4F0895E89403C097FB0EF4F3DF03
S1135B90B62F672F782F892F9EE9002427C00ED0B7
S1135BA05EF004C00BD026F001C008D019F020F438
S1135BB08FEF089580E0089581E0089597FB092E02
S1135BC0052600F8689430D0E89407FC07C06217F3
S1135BD073078407950721F008F4009407949894B8
S1135BE008959A95BB0F661F771F881F1124992368
S1135BF0A1F08823B2F79F3F59F0BB0F48F421F47A
S1135C00002011F460FF04C06F5F7F4F8F4F9F4FE0
S1135C10881F9795879597F908951DC09FEF80EC8D
S1135C200895052E092607FA440F551F5F3F79F0A2
S1135C30AA27A51708F051E04795880F991F9F3FA1
S1135C4031F0BB27B91708F091E0879508959F912B
S1135C509F911124E3CF66277727882799270895F2
S1135C60592F482F372F262FDCDF01D0BFCF9923A0
S1135C7039F0552329F09F575F57950F13F4CAF154
S1135C80EDCF91589F3FE1F3A62F00241124BB27A9
S1135C9066275527F8E0A69520F4020E131EB41FBC
S1135CA0651F220F331F441F551FFA95A1F7F8E013
S1135CB0E72F7727F8E0E69520F4130EB41F651F4D
S1135CC07A1F330F441F551FAA1FFA95A1F7F82F07
S1135CD08827F69520F4B40F651F7A1F8E1F440F92
S1135CE0551FAA1FEE1FFF23A1F788231AF49395CB
