S01900006275696C642F7A69676265782F6D61696E2E737265636F
S11300000C946C000C948D220C9497220C94BF22B7
S11300100C94C9220C94D3220C94DD220C94E72274
S11300200C9417230C9489000C9489000C94E126F9
S11300300C9423260C94CB260C94D0270C940B22DE
S11300400C944B220C94F1270C9486230C94890075
S11300500C9494230C9421230C9489000C9489000F
S11300600C94D6260C9489000C9489000C94890075
S11300700C9489000C9489000C94DB230C94890063
S11300800C94D2250C9489000C948900B016B717EF
S1130090F9178C18F618031935198019F319051A6C
S11300A07C1AB21A3220BF1A4B1B261C651C991CE1
S11300B0AB1CB91C191D1C1D221D481DC81DF01D9B
S11300C0411E4B1E4F1E731E7A1E8B1E9A1E4D1F01
S11300D0222000081C18141011241FBECFEFD0E1F9
S11300E0DEBFCDBF12E0A0E0B1E0E2EEF2E600E058
S11300F00BBF02C007900D92A23CB107D9F717E0DD
S1130100A2ECB2E001C01D92A735B107E1F70C944F
S113011073200C9400008FB7F894992708958FBF2B
S11301200895982F8FB7F894282FE92FFF27E552C9
S1130130F94F80818F3FB1F480910107891791F0C5
S11301408091D6068F3F19F49093D60607C080910C
S11301500107E82FFF27E552F94F90839093010799
S113016080E001C085E02FBF99270895FC018081BC
S11301708C5099270895FC0187819927382F2227CD
S113018086819927822B932B08958EE10E949100FA
S113019099270895882311F06E9A08956E9808950A
S11301A08091C502882319F480E090E0089581E0ED
S11301B090E008952F923F924F925F926F927F92B8
S11301C08F929F92AF92BF92CF92DF92EF92FF9263
S11301D00F931F93CF93DF93CDB7DEB72A970FB654
S11301E0F894DEBF0FBECDBF8FB7F894282F332706
S11301F029873A8720903B0430903C0440903D048A
S113020050903E0466245EE4A52E43E8B42EC62C2A
S1130210D62CE62CF62C062D162D222D332D442D0E
S1130220552D662D762D862D962D0E940C2A298318
S11302303A834B835C836D837E838F839887822E7E
S1130240932EA42EB52EC62ED72EE82EF92E2401D9
S11302503501769467945794479400E2282D392DFC
S11302604A2D5B2D6C2D7D2D8E2D9F2D0E94162BDE
S1130270A22EB32EC42ED52ED601C501840D951DF4
S1130280A61DB71DB7FF04C0BF770196A11DB11D00
S113029080933B0490933C04A0933D04B0933E04AC
S11302A039853FBF2A960FB6F894DEBF0FBECDBF87
S11302B0DF91CF911F910F91FF90EF90DF90CF903E
S11302C0BF90AF909F908F907F906F905F904F9072
S11302D03F902F900895EF920F931F93AE2D99E0C6
S11302E0899FF0011124E95EFC4F408351836283AE
S11302F073830483158326833783A17080858E7F5F
S11303008A2B8260808786E00E9491001F910F9162
S1130310EF900895CF93DF938FB7F894682F7727E2
S1130320A091A205B091A305C091A405D091A50503
S113033082B706B600FE04C01196C11DD11D82B756
S1130340282F33274427552788279A2FAB2FBC2FD4
S1130350822B932BA42BB52B6FBFBC01CD01DF9156
S1130360CF9108950E948A01DC01CB01BC01CD012B
S11303700895AF92BF92CF92DF92EF92FF920F93C4
S11303801F93F82E5A016B010E948A01DC01CB01F4
S1130390E1E0EE2E96018501AC01BD018F2D0E9496
S11303A06B011F910F91FF90EF90DF90CF90BF9062
S11303B0AF900895AF92BF92CF92DF92EF920F93D6
S11303C01F935B016C010E948A01DC01CB01F1E007
S11303D0EF2E96018501AC01BD0180E00E946B0106
S11303E01F910F91EF90DF90CF90BF90AF90089541
S11303F089E10E949100992708950E94BB00089505
S113040088E10E949100992708958FB7F894682F86
S113041077278091C8039091C9032CB53DB506B6E2
S113042002FE03C001962CB53DB5AA27BB2744277D
S11304305527DC0199278827822B932BA42BB52BD6
S11304406FBFBC01CD010895282F869586958695AA
S1130450E82FFF27E653FC4F277081E090E002C0AD
S1130460880F991F2A95E2F720812823822F992744
S11304700895FF920F931F93CF93DF93082F8FB7A5
S1130480F894F82E8091DA02833009F054C08091F8
S11304900A01801709F04FC08091CA03882309F02C
S11304A03EC081E090E0892BE9F51091DB02C12F79
S11304B0DD272196C330D10511F4C0E0D0E08C2FA4
S11304C00E942402882381F4812F9927C817D90711
S11304D081F78FEF90E08093320581E08093DA0218
S11304E086E10E94910024C08C2F8695869586957E
S11304F0E82FFF27E653FC4F2C2F277081E090E074
S113050002C0880F991F2A95E2F7982F9095808151
S113051089238083C093DB028C2F9927DCCF80E072
S113052090E0C1CF83E080930A011092DA023798F9
S1130530002309F4C698FFBE81E090E0DF91CF91DB
S11305401F910F91FF9008951F93CF93DF93C82FAE
S11305508FB7F894282F3327122F8091DA0288233B
S113056001F18C2F0E9424028823B1F48C2F8695EC
S113057086958695E82FFF27E653FC4FC77081E0E8
S113058090E002C0880F991FCA95E2F72081282BBA
S1130590208380E090E002C085E090E01FBF9927AF
S11305A019C081E08093DA02C09332052FBF8FB760
S11305B0F8949927379A8FBF8FB7F894C82FDD27FF
S11305C080910A01833019F486E10E949100CFBF23
S11305D080E090E0DF91CF911F91089599278130B9
S11305E0910559F0823091051CF4892B21F00BC040
S11305F0029729F008C080E003C081E001C082E0D6
S11306000E94A40201C081E0992708952091360632
S1130610822F99278130910559F0823091051CF47D
S1130620009731F004C0029711F481E001C08FE11A
S1130630582F822F99278130910541F082309105FE
S11306401CF4892B19F004C0029711F428E001C0AE
S113065020E033278FB7F894E82F8091FE068E7F31
S11306608093FE06322F27B160E070E0922F9295BE
S113067096959695937080E0891749F4852F885054
S1130680863118F42F71521711F461E070E0862F4F
S1130690880F2091FE062D7F282B852F8F71982F90
S11306A0990F990F2378292B2093FE0680629927AE
S11306B087B9406C21702295220F207E4F7D422BFA
S11306C04861383059F58091B4059091B50521E021
S11306D08638920718F087E090E01FC0833C9105AC
S11306E018F086E090E019C08136910518F085E095
S11306F090E013C08033910518F084E090E00DC0C1
S11307008831910518F083E090E007C00C9718F049
S113071082E090E002C080E090E0382F3770487F9C
S1130720432B842F992786B9EFBF089591E09093C6
S11307301A06809336060E9406030895EF920F93DB
S11307401F930E948A01DC01CB01E1E0EE2E0BE055
S113075010E020E030E0AC01BD018BE00E946B01B1
S113076080E090E01F910F91EF90089580E00E9447
S1130770A4029927089597E087FF02C0919A01C0C7
S11307809198880F909A9098915097FFF5CF08957B
S1130790982F8FB7F894282F89B78D7F89BF82E06F
S11307A088BF80916A00886080936A00992321F051
S11307B080916A00846003C080916A008B7F80937B
S11307C06A0089B7826089BF2FBF80E090E00895F6
S11307D02F923F924F925F926F927F928F929F924D
S11307E0AF92BF92CF92DF92EF92FF920F931F933B
S11307F08B01882309F0DDC08FB7F8949927709393
S11308002306609322068FBFE090A903F090AA0309
S1130810CB01AA2797FDA095BA2FBC01CD010E9458
S1130820D02F3B014C0117FF08C020E030E040E826
S113083057E40E94232F3B014C01C701AA2797FDCF
S1130840A095BA2FBC01CD010E94D02FF7FE06C09F
S113085020E030E040E857E40E94232F2AE037EDFF
S113086043E25CE30E943F30DC01CB0120E030E056
S113087040E252E4BC01CD010E94222F1B012C0155
S113088022EA37EE4BE356EBC401B3010E943F303A
S1130890DC01CB01A4019301BC01CD010E943F30D6
S11308A07B018C0124E533EE45E25DE3C401B30131
S11308B00E943F30DC01CB019C01AD01C801B701AE
S11308C00E94232FDC01CB0120E030E040E850EC13
S11308D0BC01CD010E94232F5B016C0120E030E0BC
S11308E048EC51E4C201B1010E94222F7B018C012A
S11308F02CEA35EC47EA58E3C401B3010E943F30C7
S1130900DC01CB012AE037ED43E25CE3BC01CD011D
S11309100E94232FDC01CB019C01AD01C801B7016A
S11309200E943F30DC01CB01A6019501BC01CD0141
S11309300E94232F7B018C0120E030E048EC52E43C
S11309400E94DD2F181654F40F2EF0E0EF2EF0E085
S1130950FF2EF8EC0F2FF2E41F2FF02D2DEC3CECC2
S11309604CEC5DE3C801B7010E94DA2F882354F4EC
S11309700F2EFDECEF2EFCECFF2EFCEC0F2FFDE315
S11309801F2FF02DC201B1010E94B32FDC01CB0156
S11309909093B7058093B605C801B7010E94B32FA1
S11309A0DC01CB019093AD038093AC0382E00E9401
S11309B0A4021F910F91FF90EF90DF90CF90BF9012
S11309C0AF909F908F907F906F905F904F903F90EB
S11309D02F900895982F8FB7F894282F3327422FFC
S11309E08091DE02882301F1E92FFF27E95FF84FA8
S11309F080818F3FA1F4E0910C01E91781F080918F
S1130A000D018F3F19F490930D0104C0FF27E95F96
S1130A10F84F908390930C0180E090E002C085E051
S1130A2090E04FBF9927089541E04093DE029093F0
S1130A30B2042FBF8091DD02882321F484E10E9457
S1130A40910002C04093DC0280E090E00895882386
S1130A5021F4709316016093150181E00E94EA0469
S1130A600895882359F48FB7F89499277093AA03AB
S1130A706093A9038FBF83E00E94EA04089530E0E5
S1130A80232F909A80B399279695879580FD31609E
S1130A90273009F0330F90982F5F283090F3899A0C
S1130AA09198909A90988998919A832F992708956C
S1130AB0899A919A909A909808958AE00E94910058
S1130AC099270895AF92BF92CF92DF92EF92FF924F
S1130AD00F931F93F82E5A016B010E948A01DC01C7
S1130AE0CB01EE2496018501AC01BD018F2D0E943E
S1130AF06B011F910F91FF90EF90DF90CF90BF900B
S1130B00AF900895DC01CB01AC01BD0189E00E94E6
S1130B106205089580E00E94EA0480E090E0089570
S1130B209091AF06980F9093A7039F3F11F41092F2
S1130B30A703089587E00E94910099270895282F1C
S1130B408FB7F89499272CB95E9A8FBF0895CF93E5
S1130B50DF93CDB7DEB726970FB6F894DEBF0FBE8E
S1130B60CDBF8D839E838D819E81AF81B88589831E
S1130B709A83AB83BC838A81282F33278981992761
S1130B80982F8827822B932B26960FB6F894DEBFD6
S1130B900FBECDBFDF91CF910895CF93DF93CDB733
S1130BA0DEB724970FB6F894DEBF0FBECDBFDC01CD
S1130BB0CB0189839A83AB83BC838C81282F332711
S1130BC0442755278B819927AA27BB27BA2FA92FFA
S1130BD0982F8827282B392B4A2B5B2B8A8199271E
S1130BE0AA27BB27DC0199278827282B392B4A2BD6
S1130BF05B2B89819927AA27BB27B82FAA27992776
S1130C008827282B392B4A2B5B2BCA01B901249640
S1130C100FB6F894DEBF0FBECDBFDF91CF9108951C
S1130C20CF93982F8FB7F894C82F8091DE0283302A
S1130C30A1F580910B01891781F520E030E08091C6
S1130C400D018F3F11F421E030E0232BD9F48F3FC5
S1130C5081F0282F3327F901E95FF84F80818093D1
S1130C600D018F3F11F480930C018FEF8083C90134
S1130C7002C08FEF90E08093B20481E08093DE02A3
S1130C8083E109C084E080930B011092DE0281E0CD
S1130C908093DD0285E10E949100CFBF81E090E066
S1130CA0CF91089580E00E9410069927089582E06C
S1130CB00E9410069927089581E00E941006992742
S1130CC0089583E00E9410069927089580E8809390
S1130CD0A803109219061092A10510920307089513
S1130CE0CF93DF93CDB7DEB767970FB6F894DEBF27
S1130CF00FBECDBF282FDB0189E0898389E090E016
S1130D008A839B8385E090E08C839D83222311F06A
S1130D10213009F42E8380E1FE0138960D90019272
S1130D208A95E1F787E1DE011196EAEBF6E00D9092
S1130D3001928A95E1F78EE00E94910067960FB6C2
S1130D40F894DEBF0FBECDBFDF91CF910895AF926F
S1130D50BF92CF92DF92EF920F931F93DA98809114
S1130D60AE059091AF05A3E096958795AA95E1F716
S1130D705C01CC24DD240E948A01DC01CB01F1E07A
S1130D80EF2E96018501AC01BD0183E00E946B0149
S1130D901F910F91EF90DF90CF90BF90AF90089587
S1130DA0AF92BF92CF92DF92EF920F931F93D89896
S1130DB08091B2059091B30503E0969587950A95C5
S1130DC0E1F75C01CC24DD240E948A01DC01CB0123
S1130DD011E0E12E96018501AC01BD0182E00E9483
S1130DE06B011F910F91EF90DF90CF90BF90AF9068
S1130DF00895AF92BF92CF92DF92EF92FF920F933A
S1130E001F93D9988091B0059091B10523E09695F0
S1130E1087952A95E1F75C01CC24DD2481E0F82E46
S1130E200E948A01DC01CB01EF2C96018501AC0103
S1130E30BD018F2D0E946B011F910F91FF90EF90C8
S1130E40DF90CF90BF90AF9008950E94F906089567
S1130E500E94A70608950E94D0060895982F8091B5
S1130E60CD03882319F481E08093CD039093370553
S1130E707093620460936104509337044093360482
S1130E80309334052093330508959091A00399235A
S1130E90C9F49927009711F481E090E0809332041B
S1130EA0282F332780E797E1B9010E94D230CB0184
S1130EB07093AF056093AE05AA27BB27AC01BD01B3
S1130EC086E01AC09130D9F49927009711F481E093
S1130ED090E080933304282F332780E797E1B9010A
S1130EE00E94D230CB017093B1056093B005AA275C
S1130EF0BB27AC01BD0184E00E94620508959230D5
S1130F00D1F49927009711F481E090E080933404A0
S1130F10282F332780E797E1B9010E94D230CB0113
S1130F207093B3056093B205AA27BB27AC01BD013A
S1130F3085E00E9462050895AF92BF92CF92DF923E
S1130F40EF92FF920F931F93CF93DF930E948A0136
S1130F50FC01EB012091A8043091A9044091AA045A
S1130F605091AB047B018C01E21AF30A040B150BBC
S1130F701092AD0480913F0490914004A0914104EB
S1130F80B0914204E816F9060A071B07C0F0EE24E4
S1130F90FF248701280F391F4A1F5B1F2093A804D1
S1130FA03093A9044093AA045093AB04E0923F0405
S1130FB0F0924004009341041093420463C05C0126
S1130FC06D01AE18BF08C00AD10A8601750161E03F
S1130FD0A61661E0B60660E0C60660E0D60690F0AC
S1130FE080E0A81680E0B80681E0C80680E0D80654
S1130FF010F08FEF04C0BB27AD2D9C2D8B2D80935B
S1131000AD0458C061E8A616B104C104D10430F19E
S1131010C058DF4FEF4FFF4FC093A804D093A904EB
S1131020E093AA04F093AB04C058D040E040F040F1
S113103080E89FEFAFEFBFEFE80EF91E0A1F1B1FFA
S1131040E0923F04F0924004009341041093420460
S113105030E8E32EF12C012D112D14C0280F391F77
S11310604A1F5B1F2093A8043093A9044093AA0449
S11310705093AB0410923F04109240041092410428
S1131080109242046E2D82B7282F8C1B8E5F8E1512
S113109018F0622F6E5F01C06C0F662309F461E0E3
S11310A0615000B601FCFDCF61BF82E086BF87B707
S11310B0826087BFDF91CF911F910F91FF90EF90D6
S11310C0DF90CF90BF90AF900895CF92DF92EF92D0
S11310D0FF920F931F936B017C01DA01C901809386
S11310E0B5069093B606A093B706B093B8060093DE
S11310F09E032FB7F894022F1127C092A804D09210
S1131100A904E092AA04F092AB0480933F04909364
S11311104004A0934104B09342040E949C070FBF73
S11311201F910F91FF90EF90DF90CF900895982F2B
S11311308FB7F894282F332790939C0080919B00BD
S1131140806480939B002FBF08959C018091D702F7
S11311509091D8028036910520F01092D802109216
S1131160D7026623E1F0D9018091D5029091D6028D
S11311708036910520F01092D6021092D50280910B
S1131180D5029091D602FC01EE52FC4F2D912083A2
S113119001969093D6028093D502615029F78091ED
S11311A0D902882361F481E08093D902E091D702C7
S11311B0F091D802EE52FC4F80810E949708089566
S11311C0CF93DF93D9019EE79093B0039093C70325
S11311D029E030E03093B2032093B1039927909330
S11311E0B4038093B3036093B5034093B603E7EB72
S11311F0F3E080E1EF010D9009928A95E1F73797CA
S11312006091B906CF010E94A508DF91CF9108959E
S11312109EE79093B0039093C70322E030E03093AD
S1131220B2032093B10399279093B4038093B3033B
S11312301092B5036091B90680EB93E00E94A50873
S11312400895AF92BF92CF92DF92EF92FF920F93E5
S11312501F93CF93DF930E940502FC01EB01809161
S1131260430490914404A0914504B0914604A09095
S1131270D106B090D206C090D306D090D4069C017B
S1131280AD012A0D3B1D4C1D5D1D79018A01EC1A2F
S1131290FD0A0E0B1F0BC817D907EA07FB0730F02E
S11312A0281739074A075B0770F005C02817390764
S11312B04A075B0728F4C217D307E407F50718F0B9
S11312C0EE24FF24870121E0E21620E8F20620E064
S11312D0020720E0120730F1C050D048EF4FFF4F13
S11312E0C0934304D0934404E0934504F09346042C
S11312F0C050D048E040F04080E090E8AFEFBFEF4E
S1131300E80EF91E0A1F1B1FE092D106F092D206C6
S11313100093D3061093D406E12C50E8F52E012D4A
S1131320112D14C08A0D9B1DAC1DBD1D809343045B
S113133090934404A0934504B09346041092D106BC
S11313401092D2061092D3061092D406B7012CB58F
S11313503DB5C9018C1B9D0B03968E159F0520F08E
S1131360B9016D5F7F4F02C06C0F7D1F6115710560
S113137011F461E070E0615070407BBD6ABD80E1B2
S113138086BF87B7806187BFDF91CF911F910F918F
S1131390FF90EF90DF90CF90BF90AF900895CF92E1
S11313A0DF92EF92FF920F931F937B018C010E94B7
S11313B00502DC01CB012FB7F894C22EDD24809303
S11313C0430490934404A0934504B0934604E092EC
S11313D0D106F092D2060093D3061093D4060E944D
S11313E02109CFBE1F910F91FF90EF90DF90CF9016
S11313F008952F923F924F925F926F927F928F92B5
S11314009F92AF92BF92CF92DF92EF92FF920F938F
S11314101F93CF93DF93CDB7DEB72B970FB6F89416
S1131420DEBF0FBECDBF8FB7F89489838FB7F89412
S1131430282F33272A873B8720903B0430903C0495
S113144040903D0450903E046624FEE4AF2EE3E851
S1131450BE2EC62CD62CE62CF62C062D162D222DAF
S1131460332D442D552D662D762D862D962D0E94D7
S11314700C2A2A833B834C835D836E837F83888716
S11314809987822E932EA42EB52EC62ED72EE82E03
S1131490F92E24013501769467945794479400E219
S11314A0282D392D4A2D5B2D6C2D7D2D8E2D9F2DB4
S11314B00E94162BA22EB32EC42ED52ED601C50102
S11314C0840D951DA61DB71DB7FF04C0BF770196F7
S11314D0A11DB11D80933B0490933C04A0933D0453
S11314E0B0933E043A853FBF5C0187E0A822BB2449
S11314F00894A11CB11CA114B10449F1C50163E015
S1131500880F991F6A95E1F78A0D9B1D8A0D9B1D13
S11315107C01002711270E940502DC01CB012FB7B3
S1131520F894C22EDD248093430490934404A09342
S11315304504B0934604E092D106F092D20600939B
S1131540D3061093D4060E942109CFBE06C081E0C1
S113155090E09093C4028093C302E981EFBF2B967D
S11315600FB6F894DEBF0FBECDBFDF91CF911F91B0
S11315700F91FF90EF90DF90CF90BF90AF909F902E
S11315808F907F906F905F904F903F902F90089531
S113159097B79F7D97BF90E296BF882319F08EB5C9
S11315A0806402C08EB58F7B8EBD87B7806287BF93
S11315B080E090E008958FB9779BFECF8FB1992793
S11315C008950E94DB0A992708950F931F938B01B6
S11315D00E94DB0A812F99270E94DB0A802F0E9438
S11315E0DB0A99271F910F910895BC018DE10E9498
S11315F0E50A99270895BC0188E10E94E50A992724
S11316000895DF92EF92FF920F931F93CF937B0184
S1131610C42FDD24082F112708591E4F802F8068FE
S11316200E94DB0A16950795802F807C0E94DB0AB6
S1131630CC2341F0F70181917F010E94DB0AD82E6F
S1131640C150F6CF8D2D9927CF911F910F91FF9007
S1131650EF90DF900895882311F06F9A08956F98A2
S113166008951F9310E0812F0E94CA00BA9ABB9874
S1131670B99AB89A6C9AC098812F0E942B0B709AD1
S11316806B986A98689881E00E94CA001F91089537
S11316900F931F93CF93082F8FB7F894282F3327D6
S11316A0122F8091C702882321F02FBF85E090E09C
S11316B021C09091C502992341F482E08093C50230
S11316C09093030180E090E002C081E090E09927CC
S11316D0C82F882311F40E94310B8C2F9927282FAF
S11316E0882329F40093060181E08093C7021FBF79
S11316F0822F9927CF911F910F910895CF93C82FCF
S11317000E94D000882311F40E94310B8091C502FD
S1131710882359F481E08093C502C0931B0680E2BC
S11317200E94910080E090E01EC0EC2FFF27EC5552
S1131730FC4F80818F3FA1F4E0910401EC1781F00C
S1131740809105018F3F19F4C093050104C0FF2760
S1131750EC55FC4FC083C093040180E090E002C0CC
S113176085E090E099279927CF910895CF93282F6A
S11317708FB7F894C82F9091C702992369F081E03C
S113178090E002C0880F991F2A95E2F72091C602C3
S1131790282B2093C60208C02093060181E0809381
S11317A0C702892F0E947E0BCFBF80E090E0CF91CB
S11317B00895CF9382E00E94480B9927C82F88236D
S11317C019F082E00E94B60B8C2F9927CF910895CF
S11317D01F93CF93DF93982F8FB7F894282F332735
S11317E0122F80910601891721F02FBF81E090E02C
S11317F071C04FEF409306018091C502823009F019
S11318003FC0909103019923D9F520E030E0809105
S11318100501841711F421E030E0232B69F58F3F93
S113182079F0282F3327F901EC55FC4F8081809300
S113183005018F3F11F4409304014083C90102C0A4
S11318408FEF90E080931B0681E08093C50280E2D5
S11318500E94910015C02093060181E090E002C02F
S1131860880F991F4A95E2F7809538233093C60272
S113187080E00E947E0B2BC0409303019093C5022D
S11318800E94D000C82FDD27CC2331F48C2F0E9476
S1131890CA00C0930207C09A3091C6023323A9F04C
S11318A0209106012F5F632F7727243008F020E072
S11318B0422F5527CB01042E02C0959587950A9493
S11318C0E2F780FDC8CF2F5FF0CF1092C7021FBF91
S11318D080E090E0DF91CF911F91089582E00E9413
S11318E0E80B99270895CF93C1E0C0988091AC0488
S11318F0882311F085E001C084E00E94DB0A83FDA7
S113190005C080E00E94DB0A83FDC0E08FB7F89435
S1131910CC2319F023E030E002C025E030E030931E
S1131920C4022093C3028FBFC09ACC2329F082E063
S11319300E94E80B0E94F909CF9108958F929F921B
S1131940AF92BF92CF92DF92EF92FF920F931F93C9
S1131950CF93DF938FB7F894C090B004D090B104C4
S11319608090A5039090A603C091CE03D091CF039D
S1131970AE01465F5F4F209134063091350624173F
S1131980350708F09A018FBF59010894A108B108DE
S1131990CA15DB05E8F47E01E80CF91C8E010C0D78
S11319A01D1DC114D10419F0F801808101C080E02B
S11319B00E94DB0A8114910411F0F70180832196BF
S11319C00F5F1F4F0894E11CF11CCA15DB0548F397
S11319D081E00E942B0B8FB7F894982FC114D10487
S11319E031F0CC0EDD1EF60180818FB901C01FB825
S11319F0D093CF03C093CE039FBF80E090E0DF91EC
S1131A00CF911F910F91FF90EF90DF90CF90BF90F7
S1131A10AF909F908F9008959C018FB7F894992769
S1131A203093B1042093B0047093A6036093A5038C
S1131A3050933506409334061092CF031092CE0390
S1131A408FBF8FB10E949E0C992708950F931F9307
S1131A50C09800911503109116038FE790E09093BE
S1131A60660680936506809165060E94DB0A41E064
S1131A7050E0B80180E090E00E940C0D1F910F919E
S1131A80089582E090E0909339048093380483E0D1
S1131A900E94480B882319F40E94260D089583E0C0
S1131AA00E94B60B0895CF938FB7F894282F33274D
S1131AB0C22F8091380490913904892B11F42FBFDF
S1131AC026C020910307222341F080E090E0B79BD9
S1131AD002C081E090E0892B49F481B1992736E076
S1131AE0969587953A95E1F780FD08C0222319F071
S1131AF02150209303070E94410D08C081E090E02B
S1131B00909339048093380410920307CFBFCF9188
S1131B1008951F93CF93DF93C0916304D09164041D
S1131B208FA19927182F882309F41FE1C098809169
S1131B30D506811741F0812F9927806E9068BC01EA
S1131B4085E10E94E50A1093D506188111508EE3B1
S1131B5090E09093660680936506809165060E94E6
S1131B60DB0A812F9927AC0160E070E0CE010E946E
S1131B700C0DDF91CF911F910895CF93DF93DA017C
S1131B80EA018A876E83872F99278F8382E290E008
S1131B908C8360E070E06D83245F8FB7F894482FE6
S1131BA055278091CC02833021F04FBF81E090E033
S1131BB059C085E08093CC02B0930007A093FF0640
S1131BC08091B4068F5F8093B406FD0183834FBF79
S1131BD02193ED0189819927807290708983892FDF
S1131BE0992781839927982F882729813327822B46
S1131BF0932B816498688983892F992781838091A5
S1131C000101909102018887892F992789876BA701
S1131C1068A769A71DA66CA74091FF06509100070D
S1131C208FB7F894282F33278091C3029091C40270
S1131C30019711F02FBF14C082E090E09093C4028A
S1131C408093C30281E08093AC0450936404409376
S1131C5063042FBF0E94D90B882311F40E94890DBD
S1131C6080E090E09927DF91CF9108950E94BD0D07
S1131C7099270895CF92DF92EF92FF920F931F93CB
S1131C80209100012F3F09F420E03327C901019678
S1131C902817390748F48091A1039091A203892B56
S1131CA019F01092000103C08FEF80930001E091BE
S1131CB00001EF3FF1F0FF27EE0FFF1FEF55FC4F40
S1131CC000811181F8018285C82EDD24C8010E949B
S1131CD0BB007C01C8010E94B6009927282FA801E7
S1131CE0B7018C2D0E94BD0D882319F082E20E9459
S1131CF091001F910F91FF90EF90DF90CF90089586
S1131D008998919A909A80B399279695879580FFA0
S1131D1003C081E090E00895909880E090E00895F9
S1131D20AF92BF92CF92DF92EF920F931F935B011A
S1131D306C010E948A01DC01CB0131E0E32E9601A3
S1131D408501AC01BD018CE00E946B011F910F91D4
S1131D50EF90DF90CF90BF90AF9008951F93889A33
S1131D6090988998919A89B78D7F89BF899A919A19
S1131D70909888E0909A9098815087FFFBCF899A39
S1131D80919A9098909A91989098909A919A909804
S1131D9080910507909106078F71907090930607C4
S1131DA080930507809105070E94BB030E94800E63
S1131DB0882329F01092E10281E090E048C020914C
S1131DC00507309106072630310561F127303105CA
S1131DD038F42330310579F02530310561F035C010
S1131DE02730310599F02E31310579F56BE070E03B
S1131DF080E090E008C08998919A0E94C8036EE53B
S1131E0071E080E090E00E94900E1FC00E943F05A8
S1131E10182F0E943F050E9458051093E00281E1AB
S1131E200E949100809135050E94BB030E94800EA0
S1131E30882321F081E08093DF0204C0809135057E
S1131E408093E00281E10E94910080E090E01F9184
S1131E500895282F80910E01882319F484E090E0DE
S1131E6008958091E102882319F085E090E00895B7
S1131E7081E08093E10283E090E0909306078093F1
S1131E8005072093D7060E94AE0E99270895282FA0
S1131E9080910E01882319F484E090E008958091E4
S1131EA0E102882319F085E090E0089581E08093B1
S1131EB0E10285E090E09093060780930507209364
S1131EC0D7060E94AE0E992708951F93CF93DF93F0
S1131ED0162FEA0199278130910521F1823091056D
S1131EE01CF4892B21F01EC0029761F01BC080E016
S1131EF00E941006112321F4D0931601C0931501FA
S1131F0081E00EC082E00E941006112359F48FB7BD
S1131F10F8949927D093AA03C093A9038FBF83E0B1
S1131F200E94EA04DF91CF911F9108952F923F926E
S1131F304F925F926F927F928F929F92AF92BF92D5
S1131F40CF92DF92EF92FF920F931F93F62E8A01A6
S1131F5099278130910559F0823091050CF4F6C02F
S1131F608230910509F4F2C0039769F0EFC081E073
S1131F700E941006FF2021F4109314010093130112
S1131F800E94B603E3C083E00E941006FF2009F01C
S1131F90DDC08FB7F8949927109323060093220687
S1131FA08FBFE090A903F090AA03C801AA2797FD68
S1131FB0A095BA2FBC01CD010E94D02F3B014C014A
S1131FC017FF08C020E030E040E857E40E94232FC8
S1131FD03B014C01C701AA2797FDA095BA2FBC016C
S1131FE0CD010E94D02FF7FE06C020E030E040E88B
S1131FF057E40E94232F2AE037ED43E25CE30E947A
S11320003F30DC01CB0120E030E040E252E4BC018F
S1132010CD010E94222F1B012C0122EA37EE4BE353
S113202056EBC401B3010E943F30DC01CB01A40193
S11320309301BC01CD010E943F307B018C0124E55A
S113204033EE45E25DE3C401B3010E943F30DC019D
S1132050CB019C01AD01C801B7010E94232FDC0113
S1132060CB0120E030E040E850ECBC01CD010E94FF
S1132070232F5B016C0120E030E048EC51E4C20105
S1132080B1010E94222F7B018C012CEA35EC47EA36
S113209058E3C401B3010E943F30DC01CB012AE0C4
S11320A037ED43E25CE3BC01CD010E94232FDC0148
S11320B0CB019C01AD01C801B7010E943F30DC0196
S11320C0CB01A6019501BC01CD010E94232F7B0108
S11320D08C0120E030E048EC52E40E94DD2F181619
S11320E054F40F2EF0E0EF2EF0E0FF2EF8EC0F2F5B
S11320F0F2E41F2FF02D2DEC3CEC4CEC5DE3C80119
S1132100B7010E94DA2F882354F40F2EFDECEF2E32
S1132110FCECFF2EFCEC0F2FFDE31F2FF02DC20172
S1132120B1010E94B32FDC01CB019093B7058093DA
S1132130B605C801B7010E94B32FDC01CB0190930F
S1132140AD038093AC0382E00E94A4021F910F911F
S1132150FF90EF90DF90CF90BF90AF909F908F90C3
S11321607F906F905F904F903F902F9008952F92A3
S11321703F924F925F926F927F928F929F92AF9213
S1132180BF92CF92DF92EF92FF920F931F93CF9360
S1132190DF93CDB7DEB7E9970FB6F894DEBF0FBE75
S11321A0CDBF1B012C0119AEAA24BB2477E1872ED5
S11321B073E0972EF401608561FF97C4208131811B
S11321C042815381D201C101821B930BA40BB50B35
S11321D0E480F580068117818E159F05A007B1075D
S11321E008F483C460FF03C06D7F60870AC02E0DAE
S11321F03F1D401F511FD4012D933D934D935C937C
S11322001397B6E0AB16B10409F473C0E7E0AE1659
S1132210B104DCF4F2E0AF16B10409F446C083E083
S1132220A816B10444F4A114B10499F191E0A916DB
S1132230B104C9F15AC4A4E0AA16B104D1F1B5E0BD
S1132240AB16B1040CF045C032C0EAE0AE16B104DE
S113225009F4F8C2FBE0AF16B1045CF488E0A816F8
S1132260B10409F4E7C299E0A916B1040CF054C30F
S113227050C0ACE0AA16B10409F46EC3BCE0AB16BE
S1132280B1040CF44BC3EEE0AE16B10409F48BC3F5
S11322902CC482E00E94EA0460E47FE180E090E0E4
S11322A00E94DA0122C4D99A20C4D89A1EC4DA9AA8
S11322B01CC40E94F9068091330481508093330436
S11322C0882309F012C4809143038D7F80934303D4
S11322D00CC40E94D006809134048150809334044D
S11322E0882309F002C480914C038D7F80934C03B2
S11322F0FCC30E94A706809132048150809332046B
S1132300882309F0F2C3809155038D7F8093550390
S1132310ECC31091CD03112309F06EC042ED54E0DB
S11323202CE030E029AB3AAB4BAB5CAB80910F03B4
S11323306E010894C11CD11C69E1E62E61E0F62E01
S1132340882309F040C080E1E2E2F1E0D601019087
S11323500D928A95E1F789A99927382F22278AA90E
S11323609927822B932B0E94A7058C018BA999276F
S1132370982F88272CA93327822B932BAA27BB2796
S1132380BC01CD010E94CD05DC01CB011F930F934D
S1132390BF93AF939F938F93FF92EF92DF92CF926D
S11323A00E94CB2BEDB7FEB73A960FB6F894FEBF5A
S11323B00FBEEDBFB60180910F030E94700681E04D
S11323C080930F0319C03F932F935F934F93FF9212
S11323D0EF92DF92CF920E94CB2B8DB79EB70896D7
S11323E00FB6F8949EBF0FBE8DBFB60180910F0348
S11323F00E94700610930F038091CD03813009F081
S113240073C080911003882309F042C0809137057E
S1132410882329F402E3602E01E0702E1BC0813072
S113242029F417E3612E11E0712E14C0823029F4CF
S1132430BDE36B2EB1E07B2E0DC0833029F4A2E402
S11324406A2EA1E07A2E06C0843021F4F7E46F2EC0
S1132450F1E07F2E7F926F928FE491E09F938F93B0
S11324608E010F5F1F4F1F930F930E94CB2BADB7AD
S1132470BEB716960FB6F894BEBF0FBEADBFB80177
S1132480809110030E94700681E0809310032CC099
S113249080913305909134059F938F9380913604F6
S11324A0909137049F938F9380916104909162047B
S11324B09F938F938EE591E09F938F938E010F5F8F
S11324C01F4F1F930F930E94CB2BEDB7FEB73A9685
S11324D00FB6F894FEBF0FBEEDBFB8018091100394
S11324E00E947006109210038091CD03823009F08F
S11324F04CC0809111036E010894C11CD11C882327
S113250019F58091AC059091AD059F938F938AE660
S113251091E09F938F9384E791E09F938F93DF9251
S1132520CF920E94CB2B8DB79EB708960FB6F89426
S11325309EBF0FBE8DBFB601809111030E9470062D
S113254081E08093110321C08091D0039091D10345
S11325509F938F938DE791E09F938F9387E891E00A
S11325609F938F93DF92CF920E94CB2BADB7BEB7D0
S113257018960FB6F894BEBF0FBEADBFB6018091DA
S113258011030E947006109211038091CD038330D1
S113259009F075C0809112036E010894C11CD11C0E
S11325A00091D0031091D103EFE8EE2EE1E0FE2E6E
S11325B08823E1F580912006909121060E94A705C9
S11325C09F938F9380911E0690911F060E94A705EA
S11325D09F938F9380911C0690911D060E94A705DE
S11325E09F938F93C801AA27BB27BC01CD010E94EA
S11325F0CD05DC01CB01BF93AF939F938F93FF92E3
S1132600EF92DF92CF920E94CB2BEDB7FEB73E96AE
S11326100FB6F894FEBF0FBEEDBFB6018091120352
S11326200E94700681E08093120329C080912006E5
S1132630909121069F938F9380911E0690911F067F
S11326409F938F9380911C0690911D069F938F9367
S11326501F930F93FF92EF92DF92CF920E94CB2BA6
S11326608DB79EB70C960FB6F8949EBF0FBE8DBF64
S1132670B601809112030E94700610921203809199
S1132680CD03843009F068C0809113036E0108946F
S1132690C11CD11C2091B2063091B30600EA11E0AE
S11326A0882359F53F932F938091AA059091AB0508
S11326B09F938F938091A8059091A9059F938F93E1
S11326C08091A6059091A7059F938F931F930F93D5
S11326D0DF92CF920E94CB2BADB7BEB71C960FB63C
S11326E0F894BEBF0FBEADBFB601809113030E9424
S11326F0700681E0809313032FC03F932F93809142
S1132700AA059091AB050E94A7059F938F93809192
S1132710A8059091A9050E94A7059F938F93809186
S1132720A6059091A7050E94A7059F938F931F93D9
S11327300F93DF92CF920E94CB2BEDB7FEB73C965E
S11327400FB6F894FEBF0FBEEDBFB6018091130320
S11327500E947006109213038091CD03853009F016
S1132760C4C1809114036E010894C11CD11C00EAF9
S113277011E02091AE043091AF04882359F53F93C2
S11327802F9380914D0790914E079F938F93809143
S11327904B0790914C079F938F9380914907909199
S11327A04A079F938F931F930F93DF92CF920E94B8
S11327B0CB2B8DB79EB70C960FB6F8949EBF0FBE69
S11327C08DBFB601809114030E94700681E080934E
S11327D014038BC13F932F9380914D0790914E0723
S11327E00E94A7059F938F9380914B0790914C076C
S11327F00E94A7059F938F938091490790914A0760
S11328000E94A7059F938F931F930F93DF92CF92FC
S11328100E94CB2BADB7BEB71C960FB6F894BEBFC3
S11328200FBEADBFB601809114030E9470061092D2
S113283014035BC182E08093A30382E18093B80513
S113284089E051C18091AF068F5F8093AF068F3FBF
S113285011F41092AF069091AF068091A7039817D8
S113286009F043C18091E20299279F938F9380914D
S11328701701909118019F938F9381EB91E09F939F
S11328808F9381E895E09F938F930E94CB2BEDB7B4
S1132890FEB738960FB6F894FEBF0FBEEDBF809119
S11328A0E2028630A8F58F5F8093E2028630A0F1C1
S11328B030E1DE019196FD01832F11928A95E9F7AB
S11328C02091B8058EE78093B0038093C70389E015
S11328D090E09093B2038093B103822F9927909351
S11328E0B4038093B30385E18093B5031092B603D8
S11328F087EB93E0FC010D9001923A95E1F760912A
S1132900B90607970E94A5088EE10E949005EDC0C4
S11329101092E2021092E7028DE0E5C08FB7F894BE
S1132920082F1127902F80910B01843099F4809106
S1132930DE02813021F483E10E94910009C08230DB
S113294049F48091B20480930B0183E08093DE020A
S11329500FBFCBC09FBFC9C08091050790910607E8
S113296085309105B1F08630910518F4039739F05C
S1132970BCC04E9709F0B9C01092E102B6C01092E3
S1132980E10240E050E061E08091D7060E94650FCB
S1132990ACC01092E10240E050E061E08091D706C3
S11329A00E94960FA2C08FB7F894282F33278091E6
S11329B0C802882311F02FBF98C02FBF80B3992776
S11329C076E0969587957A95E1F7C82EF1E0CF22C7
S11329D08091380590919F03891709F481C0C91625
S11329E009F07EC084E090E09093CA028093C9020B
S11329F080910701909108018DAB892F99278EABA7
S1132A008091D9069091DA068FAB892F992788AFE8
S1132A108FB7F894282F3327F093C8022FBF8FE184
S1132A200E94910060E070E08DE10E94E50A8E0151
S1132A300B5C1F4F44E0D42E88EE0E94DB0A80E832
S1132A400E94DB0AD8018D918D010E94DB0ADA9481
S1132A50C9F7C09AC0988FB7F894E82EFF2481E094
S1132A600E94C80A01E010E01093C4020093C3025C
S1132A70D092C202D092D506EFBE8FB7F894E82E5A
S1132A80FF240E946606109339040093380489B722
S1132A908F7B89BF80E488BF8AB780628ABF8AB788
S1132AA08F7E8ABF89B7806489BFEFBE8FB7F894E1
S1132AB0082F11278091C9029091CA02049719F432
S1132AC083E00E94DB0A0FBF8FB7F894082F112709
S1132AD0C09A80E00E94E80B0FBF8AE10E94910037
S1132AE0C09238058EE10E949100B9ADBF5FB9AFC5
S1132AF0E9E0F0E08E0E9F1E0894A11CB11CBF30CB
S1132B0008F458CB86E00E949100E9960FB6F89439
S1132B10DEBF0FBECDBFDF91CF911F910F91FF900C
S1132B20EF90DF90CF90BF90AF909F908F907F9069
S1132B306F905F904F903F902F9008952F923F9207
S1132B404F925F926F927F928F929F92AF92BF92B9
S1132B50CF92DF92EF92FF920F931F93CF93DF9365
S1132B60CDB7DEB726970FB6F894DEBF0FBECDBF44
S1132B704C01062FC401AA2797FDA095BA2F89837B
S1132B809A83AB83BC83BC01CD010E94D02F97FEF6
S1132B9006C020E030E040E857E40E94232F1127CC
S1132BA01801220C331C220C331CF0E0AF2EF3E08E
S1132BB0BF2EA20CB31CD501CD90DD90ED90FC90FE
S1132BC0A70196010E94222F2B013C01F801E45F2A
S1132BD0FC4F10811F5F1083E12FFF27ED83FE83DD
S1132BE0CF01AA2797FDA095BA2FBC01CD010E9461
S1132BF0D02FDC01CB019C01AD01C301B2010E94C5
S1132C006D2FDC01CB019C01AD01C701B6010E940F
S1132C10232F6B017C01D5016D937D938D939C9340
S1132C201397113009F45CC069817A818B819C818E
S1132C300E94D02F97FE06C020E030E040E857E421
S1132C400E94232FA70196010E94222FDC01CB01B1
S1132C50E8EECE2EE2E0DE2EC20CD31C9C01AD01C8
S1132C60C301B2010E943F30DC01CB01F601E080D8
S1132C70F180028113819C01AD01C801B7010E945A
S1132C80232F7B018C01D6016D937D938D939C93AF
S1132C9013976101E4EFF2E0CE0EDF1E2D813E8139
S1132CA021503040C901AA2797FDA095BA2FBC0135
S1132CB0CD010E94D02FDC01CB019C01AD01C801E4
S1132CC0B7010E946D2FDC01CB01BC01CD010E9434
S1132CD08D30DC01CB01F60180839183A283B38321
S1132CE026960FB6F894DEBF0FBECDBFDF91CF910D
S1132CF01F910F91FF90EF90DF90CF90BF90AF9016
S1132D009F908F907F906F905F904F903F902F9007
S1132D1008954F925F926F927F928F929F92BF928B
S1132D20CF92DF92EF92FF920F931F93CF93DF9393
S1132D30CDB7DEB7A4970FB6F894DEBF0FBECDBFF4
S1132D409927AA27BB27FC01839710F00C94322003
S1132D50EA5BFF4FEE0FFF1F0590F491E02D0994FD
S1132D6080914F079927582E442480915007992722
S1132D70482A592A809151079927782E66248091F0
S1132D8052079927682A792A809153079927982E00
S1132D908824809154079927882A992A60E0C201DF
S1132DA00E949E1561E0C3010E949E1562E0C40169
S1132DB00E949E158091A003882309F044C080914D
S1132DC0000390910103A0910203B0910303BC019D
S1132DD0CD010E94B32FDC01CB014816590618F42B
S1132DE08419950904C09201281B390BC9010E945A
S1132DF04507B090A0030B2D1127000F111F000FE2
S1132E00111FF801EC50FD4F80819181A281B381A3
S1132E10BC01CD010E94B32F6B017C01F801E0508D
S1132E20FD4F80819181A281B381BC01CD010E94BB
S1132E30B32FDC01CB019601AC01B2018B2D0E94B2
S1132E402E0781E046C0813009F047C08091040319
S1132E5090910503A0910603B0910703BC01CD0135
S1132E600E94B32FDC01CB016816790618F4861989
S1132E70970904C0A301481B590BCA010E944507C6
S1132E80B090A0030B2D1127000F111F000F111F6D
S1132E90F801EC50FD4F80819181A281B381BC0186
S1132EA0CD010E94B32F6B017C01F801E050FD4F6E
S1132EB080819181A281B381BC01CD010E94B32F95
S1132EC0DC01CB019601AC01B3018B2D0E942E07CE
S1132ED082E08093A0030C943220823011F00C9491
S1132EE032208091080390910903A0910A03B091C4
S1132EF00B03BC01CD010E94B32FDC01CB0188166A
S1132F00990618F48819990904C0D401A81BB90BAF
S1132F10CD010E944507B090A0030B2D1127000F8F
S1132F20111F000F111FF801EC50FD4F808191819A
S1132F30A281B381BC01CD010E94B32F6B017C013E
S1132F40F801E050FD4F80819181A281B381BC01E1
S1132F50CD010E94B32FDC01CB019601AC01B40179
S1132F608B2D0E942E071092A0030C943220809186
S1132F7024069927F82FEE27809125069927E82B18
S1132F80F92B809126069927782F662780912706AA
S1132F909927682B792B809128069927582F442745
S1132FA0809129069927482B592B80912A06992725
S1132FB0382F222780912B069927282B392BF09321
S1132FC04A07E093490770934C0760934B0750936B
S1132FD04E0740934D073093AF042093AE0488E02E
S1132FE0A4E2B6E0E7EAF6E00D9001928A95E1F7F3
S1132FF045C6AE014F5F5F4F82E190E0FA018183E5
S113300020E030E0298384E390E08C832B8386E501
S113301090E08E832D8388E790E088872F8388E073
S1133020FE013996DA010D9001928A95E1F78981C2
S11330309927382F2227FA0181819927282B392BA8
S11330408B819927F82EEE248C819927E82AF92A76
S11330508D819927182F00278E819927082B192BEA
S11330602231310511F00E942807F4E3EF16F10430
S113307011F00E9428070635110511F00E94280757
S113308089859927982F88272A853327822B932B84
S1133090429711F00E9425078B859927982F88273E
S11330A02C853327822B932BC49711F00E9425077C
S11330B08D859927982F88272E853327822B932B4C
S11330C08635910511F00E94250789859927982F47
S11330D088272A853327822B932B429711F00E944D
S11330E02B078B859927982F88272C853327822BAC
S11330F0932BC49711F00E942B078D859927982F45
S113310088272E853327822B932B8635910509F446
S1133110A9C70E942B07A6C782E190E08A8B20E012
S113312030E0298B84E390E08C8B2B8B86E590E058
S11331308E8B2D8B88E790E0888F2F8B88E0DE01C3
S11331405196FE0179960D9001928A95E1F7898D49
S11331509927982F88272A8D3327822B932B4297E0
S113316011F00E9428078B8D9927982F88272C8D82
S11331703327822B932BC49711F00E9428078D8D3F
S11331809927982F88272E8D3327822B932B8635CA
S1133190910511F00E942807898D9927382F22273D
S11331A08A8D9927282B392B8B8D9927F82EEE247D
S11331B08C8D9927E82AF92A8D8D9927182F0027B5
S11331C08E8D9927082B192B2231310511F00E947D
S11331D0250724E3E216F10411F00E9425070635C1
S11331E0110509F43FC70E9425073CC700E010E021
S11331F082E00E9491000E5C1F4F31E0043F1307F0
S1133200D1F783E02DC600919E03002339F58FB7D3
S1133210F894282F3327C090A804D090A904E090F4
S1133220AA04F090AB0480913F0490914004A091D3
S11332304104B0914204C80ED91EEA1EFB1E2FBFE2
S11332408091B5069091B606A091B706B091B806E4
S11332509C01AD01C701B6010E9465080E94B2013C
S1133260DC01CB01BC01CD0140C00E94B2016B0165
S11332707C01FFEF6F2EFFEF7F2EFFEF8F2EFFE716
S11332809F2E70E087B78D7F87BFE7E1F3E06EE0A4
S1133290808581FF1CC080819181A281B381A701B7
S11332A09601281B390B4A0B5B0BDA01C9012481F7
S11332B0358146815781281B390B4A0B5B0B261538
S11332C03705480559051CF439014A0171E061507C
S11332D0399667FFDDCF772309F4C4C616141704A3
S11332E0180419042CF0C701B6010E94B710BAC61D
S11332F001E0A4019301C701B6010E946508B2C6AA
S113330085E694E09093CC038093CB0382E0809392
S1133310A30382E18093B80588EB9BE09093480473
S1133320809347041092E6021092E5021092E402A0
S11333301092E3021092E2021092D9021092D80283
S11333401092D7021092D6021092D50280919A0060
S1133350806480939A0080919A00886080939A0098
S113336080919A00806880939A0080919A0080618D
S113337080939A0080919A00886080939A0080914B
S11333809A00806180939A0088E18093B90688E46A
S113339080933A041EE71093B0031093C70310936D
S11333A039051093800548E150E060E070E080EB5F
S11333B093E00E94C42B1093B00383E090E09093B9
S11333C0B2038093B1031093C7036091B90680EBF5
S11333D093E00E94A50840EA5FE060E070E088E0C6
S11333E00E94B9013FC688EB9BE090934804809308
S11333F04704809170038D7F8093700368EB7BE0BA
S113340080E090E00E9482052DC6809167038D7F45
S113341080936703E090A303F090B8058F2D99275C
S11334209F938F938E2D99279F938F93809117014C
S1133430909118019F938F938AEC91E09F938F93BF
S113344007E616E01F930F930E94CB2B4DB75EB790
S1133450465F5F4F0FB6F8945EBF0FBE4DBFF801D5
S113346001900020E9F73197E01BF10B8091D00225
S11334709091D1028F37910520F01092D1021092D1
S1133480D002EE23C9F02091CE023091CF02D801B0
S11334904E2F2F37310510F020E030E0F901ED54C4
S11334A0FB4F8D918083C90101969C01415089F79E
S11334B09093CF028093CE028091D202882361F44C
S11334C081E08093D202E091D002F091D102ED54D8
S11334D0FB4F80810E949F0555E0F51619F00E946C
S11334E09A05C0C5E0923605F092D80644EF51E043
S11334F060E070E087E040C080916904813051F45D
S11335009091CD03913011F483E01CC0933009F005
S1133510A9C518C0833051F48091CD03813011F4D2
S113352084E010C0843009F09DC50BC0843069F478
S11335308091CD03813011F485E004C0853009F019
S113354091C581E08093CD038DC5863009F08AC58D
S11335508091CD03813011F482E0F4CF823009F000
S113356081C5EFCF809179038D7F8093790344E601
S113357050E060E070E08AE00E94620573C58091CB
S1133580B8058231E9F482E190E09F938F938091B2
S11335901701909118019F938F938AEE91E09F9366
S11335A08F9381E895E09F938F930E94CB2B8DB7E7
S11335B09EB708960FB6F8949EBF0FBE8DBF96C0F7
S11335C0863019F08D3009F047C08091E7029927C1
S11335D09F938F938091B80599279F938F938091A0
S11335E01701909118019F938F938DEF91E09F9312
S11335F08F9381E895E09F938F930E94CB2BADB777
S1133600BEB71A960FB6F894BEBF0FBEADBF809179
S1133610B8058D3019F484E00E9490052091B80516
S11336203091E7028EE78093B0038093C7038AE06A
S113363090E09093B2038093B103822F99279093E3
S1133640B4038093B3033093B5036091B90680EB60
S113365093E00E94A50806C5893009F403C599279B
S11336609F938F9380911701909118019F938F934B
S113367088E192E09F938F9381E895E09F938F93E5
S11336800E94CB2BEDB7FEB738960FB6F894FEBF69
S11336900FBEEDBF2EC08091BB069091BC06029771
S11336A069F58091BD069091BE069F938F9380919A
S11336B01701909118019F938F938BE292E09F934F
S11336C08F9381E895E09F938F930E94CB2B2DB726
S11336D03EB7285F3F4F0FB6F8943EBF0FBE2DBFD5
S11336E08091BD069091BE06429719F40E948A0506
S11336F0B9C48091B8050E940809B4C48091BA067F
S113370001E815E02091BD063091BE06882309F03A
S11337103FC080914704909148048217930781F039
S11337203093480420934704809170038D7F8093E5
S11337307003C901AA27BB27BC01CD010E948205E1
S11337408091BD069091BE069F938F938091BC0695
S113375099279F938F938091BB0699279F938F936B
S113376080911701909118019F938F938FE392E0BA
S11337709F938F931F930F930E94CB2B4DB75EB7EC
S1133780445F5F4F0FB6F8945EBF0FBE4DBF6AC46F
S11337908091C00699279F938F938091BF069927A4
S11337A09F938F933F932F938091170190911801CA
S11337B09F938F938CE592E09F938F931F930F9326
S11337C00E94CB2B8DB79EB70C960FB6F8949EBF74
S11337D00FBE8DBF8091B805893079F52091BF0661
S11337E03091C0068EE78093B0038093C70389E0CD
S11337F090E09093B2038093B1039093B4038093C9
S1133800B3032093B5033093B60347EB53E080E151
S113381021EC36E0DA01F90101900D928A95E1F785
S11338206091B906CA0107970E94A5088AE090E052
S11338309093B2038093B10315C421EC36E0409118
S1133840C0066091BF060E94E0080CC482E0809329
S1133850AB03E091CB03F091CC038091A30380836D
S1133860E091CB03F091CC038091B8058183E09182
S1133870CB03F091CC038091470490914804828358
S1133880938380911501909116018483958380918F
S11338901301909114018683978380911101909173
S11338A012018087918780910F0190911001828786
S11338B0938714861586168617868091AB03825FDC
S11338C08093AB030E945D05CDC38091E102882300
S11338D009F4C8C380918B038D7F80938B030E946E
S11338E03F059927182F00270E943F059927082B89
S11338F0192B0E943F050E9458058091050790915D
S113390006078330910519F0059751F0ABC3109267
S1133910E102A80160E08091D7060E94650FA2C36E
S11339201092E102A80160E08091D7060E94960FF0
S113393099C380910507909106078630910531F06F
S1133940079709F08FC31092E1028CC31092E10231
S11339501092DF0287C38091DC02813011F40E944F
S11339609E038FB7F89499271092DC021092DD021F
S1133970BFC18FB7F89499272091B20420930B010B
S113398033E03093DE028FBF022F1127013011057F
S1133990E9F00230110524F40115110541F062C368
S11339A00230110531F10330110599F15BC380E058
S11339B00E94290FE82EFF24EE2009F453C30E942D
S11339C05206B8018E2D0E9427054CC381E00E9447
S11339D0470F082F1127002309F444C30E945C06F3
S11339E0002321F410921401109213010E94B603D3
S11339F039C382E00E94290F082F1127002309F4FC
S1133A0031C30E94570660E070E0802F0E943105A8
S1133A1029C3832F0E94470F082F1127002309F47D
S1133A2021C30E94610660E070E0802F0E94E803D9
S1133A3019C30E949E0316C38898909889989198F8
S1133A4082E10EC28FB7F894282F33279091320564
S1133A5090930A0183E08093DA022FBF892F99277C
S1133A60009711F4BE9AC69A8130910559F08230BC
S1133A7091051CF4892B21F0F5C2029729F0F2C2BA
S1133A8080E003C081E001C082E00E949603EAC2A4
S1133A9010921A0680913606E090AE03F090AF03C0
S1133AA0082F11270130110569F00230110524F4A3
S1133AB00115110529F00BC00230110529F007C0CA
S1133AC080E003C081E001C082E00E94390201303D
S1133AD01105B9F0023011051CF4012B29F0C2C202
S1133AE002301105C9F0BEC276E0F694E7947A95E7
S1133AF0E1F7F0921201E092110181E00E94EE02DE
S1133B00B1C266E0F694E7946A95E1F7F092100189
S1133B10E0920F018FE0A4C156E0F694E7945A9521
S1133B20E1F78091B6059091B7052091AC033091EF
S1133B30AD0380932506892F99278093240620932B
S1133B402706832F992780932606E09229068F2D36
S1133B5099278093280680912A069927982F8827E9
S1133B6020912B063327822B932B019680932B06CF
S1133B70292F332720932A063327322F22279927E8
S1133B80282B392B3093AD052093AC0581E068C117
S1133B908091CC02813009F582E08093CC020E94AE
S1133BA0DA008093B4068FB7F894282F33278091D6
S1133BB0C9029091CA02892B11F02FBF0EC081E077
S1133BC090E09093CA028093C9022FBFDD9A64E10A
S1133BD070E080E090E00E94CF090E94000242C29F
S1133BE0F6E1EF2EF7E0FF2E88E0E7EAF6E0D701F2
S1133BF001900D928A95E1F7E5EFFFEFEE0EFF1EBF
S1133C008FEF9FEF809311078FEF90E0809312075F
S1133C10EEEDCE2EC09215070091A1031091A203E0
S1133C200115110519F085E090E022C0F092A2037D
S1133C30E092A1038CE080930B07D0900001FFEF8A
S1133C40DF16A9F4C7010E94FD011092000120E0D3
S1133C50A701BC018C2D0E94360E882331F0D0922E
S1133C6000011093A2030093A103992701C0C80186
S1133C70882321F081E08093CD02F4C10E94F801F1
S1133C80F1C183E08093CC0268EE73E080E090E0C1
S1133C900E94DA01E7C181E08093CC02E3C18FB7CF
S1133CA0F89499278FBF83E08093CC022091FF067C
S1133CB03091000780910001082F1127F801E00FCF
S1133CC0F11FEF55FC4F808191818217930709F012
S1133CD0C9C1108211820E943A0E012B09F0C2C19F
S1133CE01092CD02BFC18FB7F89499271092350472
S1133CF08FBFB8C18FB7F894082F11278091C802DD
S1133D00882339F441E050E060E070E08EE00E94E6
S1133D10B9010FBFA7C18FB7F894282F332780911B
S1133D20C802882329F080919D038D7F80939D0391
S1133D302FBF98C18FB7F894282F332790911B0673
S1133D409093030182E08093C5022FBF992309F069
S1133D5089C18FB7F8949927209106018FBF332723
S1133D602130310509F44FC0223031051CF4232BD6
S1133D7051F078C12230310509F475C02330310582
S1133D8009F488C06FC1C0988FB7F894E82EFF2457
S1133D908091C9029091CA02029799F583E090E05C
S1133DA09093CA028093C90288E190E00E94F50AC8
S1133DB011E010939F031092C80280B3992776E014
S1133DC0969587957A95E1F78123809338050E942B
S1133DD0C500812F0E94E10A6FE772E08CE10E9426
S1133DE0E50A9091090185E0989FC0011124825D44
S1133DF09E4F90640E94FB0A62EF7AE281E10E9486
S1133E00E50AEFBE2FC18FB7F894282F33274091CE
S1133E100901809107019091080189A3892F9927AD
S1133E208AA38091D9069091DA068BA3892F9927CA
S1133E308CA32FBFC09885E0489FC0011124825DE8
S1133E409E4F90640E94FB0A44E0BE016F5D7F4F69
S1133E5080E00E94010BC09A81E00E94E80B8DE192
S1133E600E949100FFC08FB7F89499272091C30254
S1133E708FBF33272230310521F02430310521F062
S1133E8006C00E94890DEEC00E94730CEBC00E9414
S1133E906E0CE8C00E94260DE5C0A0911503B091F8
S1133EA016038C919D01280F311DF9018081881F13
S1133EB08827881FFD0182A7F90182919F012F5F46
S1133EC03F4FFD0180A7F90180818F77FD0181A714
S1133ED0E0901503F09016038701055F1F4FC7019B
S1133EE00E94BB009C01809101019091020128175E
S1133EF0390721F02F5F3F4F09F09DC0F7018285FC
S1133F008E3D09F098C083859927D82ECC24F801DA
S1133F1081819927C82AD92A82819927982E8824B1
S1133F20F70186859927882A992AF8018481992797
S1133F30782F6627F70180899927682B792BF80158
S1133F4086819927582F4427F70182899927482B7E
S1133F50592B88E0ECE2F6E0D8010D9001928A95A5
S1133F60E1F7D092A705C092A6059092A905809288
S1133F70A8057093AB056093AA055093B3064093CC
S1133F80B206809132069927982F8827209133060C
S1133F903327822B932B9093D1038093D00380916A
S1133FA02C069927982F882720912D063327822BBA
S1133FB0932B90931D0680931C0680912E069927BF
S1133FC0982F882720912F063327822B932B9093A9
S1133FD01F0680931E06809130069927982F882704
S1133FE0209131063327822B932B909321068093C3
S1133FF02006809155079927982F882720915607E6
S11340003327822B932B84179507A8F4C09250076B
S11340108D2D992780934F0780925207892D9927D8
S11340208093510760935407872F992780935307F0
S113403080E00E949100F0921603E09215030E9422
S1134040530D10C0809100019927FC01E80FF91F5E
S1134050EF55FC4F10821182892B11F41092CD027E
S11340600E943A0EA4960FB6F894DEBF0FBECDBFE1
S1134070DF91CF911F910F91FF90EF90DF90CF9040
S1134080BF909F908F907F906F905F904F90089516
S11340908091D6068F3FD1F09091D6068091D606B6
S11340A0E82FFF27E552F94F80818093D60680914F
S11340B0D6068F3F11F480930107892F9927FC01BD
S11340C0E552F94F2FEF20839C0102C02FEF30E01F
S11340D02F3F19F480E090E00895822F0E94891602
S11340E081E090E00895CFEFD0E1DEBFCDBF8FB780
S11340F0F894C82F43E250E06FEF70E08BED96E048
S11341000E94C42B8FEF8093D6068093010781E031
S11341108EBD88E080BF83E083BF2CB53DB54AE700
S11341208CB59DB58217930708F441509C01442334
S1134130B9F792B782B78917E9F32CB53DB592B7B1
S113414082B78917E9F38CB59DB5821B930B409612
S113415045E0969587954A95E1F79093B505809348
S1134160B40513BE83B78EBD8EB580BF12BE1DBC11
S11341701CBC8FEF86BF86B780937C0080B7282F46
S113418033272770307021153105C1F7D29AD19A9F
S1134190D09ADA9AD99AD89A25BB8FEF84BBD4984F
S11341A0DC983DBD2CBD87B7846087BF8EB5887F02
S11341B084608EBD16B880B7886080BF80E285BFFA
S11341C00E9448208823E1F78091170190911801FB
S11341D00196AA27BB2780933B0490933C04A093A9
S11341E03D04B0933E048FEF8093A4038091CC02EE
S11341F0882319F481E08093CC02B89AD69AD59A90
S113420080910101909102019093DA068093D9067E
S11342108E98B89A8C9887E396E0909316038093CF
S113422015030091B4051091B505C801AA27BB2751
S11342303CE0880F991FAA1FBB1F3A95D1F7BC0118
S1134240CD0120E031EE40E050E00E94E530DA019B
S1134250C901019789B9892F99278093900082E039
S11342608BB986E0809395001AB8C801AA27BB27AA
S11342701CE0880F991FAA1FBB1F1A95D1F7BC0118
S1134280CD0120E031EE40E050E00E94E530DA015B
S1134290C901019780939900892F992780939800E9
S11342A082E080939B0086E080939D0010929A00A8
S11342B01092CA038FEF9FEFAFEFBFEF8093070712
S11342C090930807A0930907B0930A0700B602FC6D
S11342D0FDCF12BE87B7816087BF83B7887F8360B5
S11342E000B600FCFDCF83BF0E9448209927882395
S11342F0D9F7CFBF78948093D2021092D102109252
S1134300D0021092CF021092CE02569A539A579A24
S1134310549A539A549A87E00E94910088E10E942B
S113432091008FB7F894482F4AC087B79927887BA4
S1134330892B41F480917D00282F33272B7F211571
S1134340310519F020E030E02AC06F9928C08AB105
S1134350807C29F580919A00807C09F5379B03C005
S113436021E030E01CC087B7992783709070892BB7
S1134370A1F080B7992787709070892BD1F781B706
S113438092B7891B8C3018F082B7853F18F022E071
S113439030E005C023E030E002C025E030E0E5E095
S11343A02E1708F4E22F85B7837EFF27EE52FF4FC6
S11343B09491892B806285BF78948895F894809134
S11343C0D6068F3FC9F09091D6068091D606E82F85
S11343D0FF27E552F94F80818093D6068091D60657
S11343E08F3F11F480930107892F9927FC01E5522F
S11343F0F94F2FEF208302C08FEF90E08F3F09F435
S113440094CF4FBF0E9489168CCF83B783BF00B669
S113441000FCFDCF08951F920F920FB60F92112446
S11344202F933F934F935F936F937F938F939F93B8
S1134430AF93BF93CF93EF93FF930E94052287B767
S11344408D7F87BF78948FB7F894C82F80913F04ED
S113445090914004A0914104B09142040097A105B9
S1134460B10521F485E00E94910002C00E949C07DE
S1134470CFBFFF91EF91CF91BF91AF919F918F915A
S11344807F916F915F914F913F912F910F900FBE4C
S11344900F901F9018951F920F920FB60F92112430
S11344A02F933F934F935F936F937F938F939F9338
S11344B0AF93BF93EF93FF930E9405228091A205CF
S11344C09091A305A091A405B091A5050196A11D05
S11344D0B11D8093A2059093A305A093A405B09366
S11344E0A5058091AD04882339F081508093AD04F3
S11344F0882311F40E949C07FF91EF91BF91AF9123
S11345009F918F917F916F915F914F913F912F91E7
S11345100F900FBE0F901F9018951F920F920FB619
S11345200F9211240F900FBE0F901F9018951F9299
S11345300F920FB60F9211242F933F934F935F93D3
S11345406F937F938F939F93AF93BF93EF93FF9357
S113455089B78D7F89BF80E10E949100FF91EF911F
S1134560BF91AF919F918F917F916F915F914F9187
S11345703F912F910F900FBE0F901F9018951F928F
S11345800F920FB60F9211240F900FBE0F901F9031
S113459018951F920F920FB60F9211240F900FBE11
S11345A00F901F9018951F920F920FB60F9211241F
S11345B00F900FBE0F901F9018951F920F920FB679
S11345C00F9211240F900FBE0F901F9018951F92F9
S11345D00F920FB60F9211242F933F934F935F9333
S11345E06F937F938F939F93AF93BF93EF93FF93B7
S11345F08091380490913904019719F40E94410D77
S113460005C0809103078F5F80930307FF91EF91AB
S1134610BF91AF919F918F917F916F915F914F91D6
S11346203F912F910F900FBE0F901F9018951F92DE
S11346300F920FB60F9211240F900FBE0F901F9080
S113464018951F920F920FB60F9211242F933F9338
S11346504F935F936F937F938F939F93AF93BF9386
S1134660EF93FF9364B175B178948FB7F894282FC2
S113467033278091FE06482F469541702FBF282F7F
S1134680217080FD1CC0339880911A0699278130CF
S1134690910519F0029759F028C0442351F0709302
S11346A0AF036093AE0387E10E9491001EC04423D0
S11346B019F40E94060319C020931A0616C08FB776
S11346C0F89499278FBF8FB7F894482F552786B150
S11346D080618777282F332726B98F7B282F3327AC
S11346E026B98068992786B94FBFFF91EF91BF9192
S11346F0AF919F918F917F916F915F914F913F9176
S11347002F910F900FBE0F901F9018951F920F922C
S11347100FB60F9211248F935F998CB18F910F90E4
S11347200FBE0F901F90189578941F920F920FB69A
S11347300F9211242F938F939F93EF93FF93809164
S1134740D0029091D10201969093D1028093D0022D
S11347508F37910520F01092D1021092D0028091EF
S1134760CE029091CF028F37910520F01092CF02A4
S11347701092CE02E091D002F091D1028091CE024B
S11347809091CF02E817F90751F0ED54FB4F2081C7
S11347908FB7F89499272CB95E9A8FBF02C01092F4
S11347A0D202FF91EF919F918F912F910F900FBEA5
S11347B00F901F9018951F920F920FB60F9211240D
S11347C02F933F934F935F936F937F938F939F9315
S11347D0AF93BF93EF93FF9380919B0087FFD1C169
S11347E040919C008091D302882321F44E3709F034
S11347F0C8C106C02091D402233050F44E3741F48E
S113480081E08093D3024093B9058093D402B9C167
S1134810E22FFF27E754FA4F40832F5F2093D402FF
S11348203091BA05333049F58091B906281709F05B
S113483098C11092D3024E3709F09BC18091BC05F8
S11348408093B805863021F0893011F08D3081F4E1
S11348508AE08093A3038091B8058D3061F48FEFD3
S11348608093A7031092AF068BE00E94910003C0CF
S113487082E08093A30389E071C1323009F04CC017
S11348808091B906281709F06CC11092D3024E37F3
S113489009F06FC13093AB03E091CB03F091CC03EB
S11348A08091A3038083E091CB03F091CC038091AA
S11348B0B8058183E091CB03F091CC038091470448
S11348C090914804828393838091C0059091C1059F
S11348D0848395838091C2059091C30586839783D1
S11348E08091C4059091C505808791878091C60504
S11348F09091C705828793878091C8059091C905D7
S1134900848795878091CA059091CB058687978780
S11349108091AB03825F1FC1393009F09DC0809143
S1134920B906281709F01DC11092D3024E3709F0B9
S113493020C182E08093AB038091B8058D30F1F4FF
S11349408091BE05833109F016C1809117019091C1
S113495018019F938F9389E792E09F938F9381E847
S113496095E09F938F930E94CB2B8DB79EB70696AD
S11349700FB6F8949EBF0FBE8DBFFDC0893059F4A9
S113498088E1A9EBB5E0E9E4F4E00D9001928A95A1
S1134990E1F78CE0E3C08E3029F0843019F08530E3
S11349A009F0E9C0E091CB03F091CC038091A3031B
S11349B08083E091CB03F091CC038091B80581838F
S11349C0E091CB03F091CC0380914704909148048B
S11349D0828393838091C0059091C10584839583DC
S11349E08091C2059091C305868397838091C40505
S11349F09091C505808791878091C6059091C705E0
S1134A00828793878091C8059091C905848795878B
S1134A108091CA059091CB05868797878091AB03D7
S1134A20825F8093AB0380911701909118019F934B
S1134A308F9380E992E09F938F9381E895E09F9311
S1134A408F930E94CB2B8DB79EB706960FB6F89422
S1134A509EBF0FBE8DBF81C0313019F03A3009F0CE
S1134A608AC080913A04281709F07BC01092D302BF
S1134A704E3709F07EC082E08093AB03E091CB0314
S1134A80F091CC038091A3038083E091CB03F09158
S1134A90CC038091B80581838091B8058D3009F0ED
S1134AA03FC01092E2028FEF8093A7038091BE056E
S1134AB099279F938F9380911701909118019F9349
S1134AC08F938AEA92E09F938F9381E895E09F9376
S1134AD08F930E94CB2B8DB79EB708960FB6F89490
S1134AE09EBF0FBE8DBF9091BE05903F19F41092EA
S1134AF0E70216C08091C0058A3029F48091C1056F
S1134B008A3A39F00AC08A3A41F48091C1058A3060
S1134B1021F484E00E94900503C09F5F9093E70214
S1134B20E091CB03F091CC038091BF058283209167
S1134B30CB033091CC038091BF059927AC0160EC85
S1134B4075E0C90103960E94BB2B8091AB03909141
S1134B50BF05890F8F5F8093AB038AE00E949100A9
S1134B600AC09927029733278217930724F44E37F4
S1134B7011F41092D3028091D402813610F0109275
S1134B80D302FF91EF91BF91AF919F918F917F914C
S1134B906F915F914F913F912F910F900FBE0F90A6
S1134BA01F90189578941F920F920FB60F921124AC
S1134BB02F933F934F935F936F937F938F939F9321
S1134BC0AF93BF93EF93FF938091D7029091D80254
S1134BD001969093D8028093D7028036910520F0F5
S1134BE01092D8021092D7028091D5029091D602E9
S1134BF08036910520F01092D6021092D502E091F1
S1134C00D702F091D8028091D5029091D602E8178C
S1134C10F90731F0EE52FC4F80810E94970802C0E0
S1134C201092D902FF91EF91BF91AF919F918F9113
S1134C307F916F915F914F913F912F910F900FBE94
S1134C400F901F90189578941F920F920FB60F92A1
S1134C5011240F931F932F933F934F935F936F935D
S1134C607F938F939F93AF93BF93CF93EF93FF93D0
S1134C7087B78F7E87BF78948FB7F894C82F8091B9
S1134C80D1069091D206A091D306B091D406009794
S1134C90A105B10509F068C08091C3029091C402D6
S1134CA08430910509F43CC08530910518F40397CC
S1134CB021F048C00797D9F145C080B3992768947B
S1134CC015F8969587951694E1F780FF26C084E041
S1134CD090E09093C4028093C3020E940502DC0119
S1134CE0CB012FB7F894022F11278093430490939C
S1134CF04404A0934504B093460487E090E0A0E008
S1134D00B0E08093D1069093D206A093D306B093DB
S1134D10D4060E9421090FBF15C00E94F90912C0D0
S1134D200E94D90B882371F40E94730C0BC081E09C
S1134D3090E09093C4028093C3021092CB028CE162
S1134D400E9491008091C9029091CA02019771F466
S1134D5082E090E09093CA028093C902DE98DE9AC2
S1134D6080E00E94B60B02C00E942109CFBFFF91D0
S1134D70EF91CF91BF91AF919F918F917F916F915F
S1134D805F914F913F912F911F910F910F900FBE03
S1134D900F901F90189578941F920F920FB60F9250
S1134DA011240F900FBE0F901F90189578941F92A6
S1134DB00F920FB60F9211240F900FBE0F901F90F9
S1134DC0189578941F920F920FB60F921124FF92A8
S1134DD00F931F932F933F934F935F936F937F93FF
S1134DE08F939F93AF93BF93CF93DF93EF93FF93EF
S1134DF0CCB5DDB580E286BF8FB7F894F82E8091EC
S1134E00C3029091C4028530910519F0069739F1D7
S1134E106AC080E00E94C80A82E00E94E80B87B75B
S1134E208F7E87BF86E090E09093C4028093C30294
S1134E30E0916304F09164048181992787709070F4
S1134E40019721F4C5A78D2F992784A780B39927AB
S1134E50E4E096958795EA95E1F780FD8AC081E0C4
S1134E600E94C80AE0916304F0916404818185FF83
S1134E7026C087E090E09093C4028093C3020E940E
S1134E800502DC01CB012FB7F894022F1127809380
S1134E90430490934404A0934504B093460480E8EB
S1134EA090E0A0E0B0E08093D1069093D206A09366
S1134EB0D306B093D4060E9421090FBF0BC081E032
S1134EC090E09093C4028093C3021092CB028CE1D1
S1134ED00E94910080B3992774E0969587957A95FE
S1134EE0E1F780FF46C08091C202882351F50E94F9
S1134EF0C80A409119064830A0F48091A105840F96
S1134F00912D911D9C01887F9370281BE22FFF2710
S1134F10EE0FFF1FE75CF84FC083D1834F5F4093D0
S1134F20190681E08093C202D093B106C093B00603
S1134F3080B3992764E0969587956A95E1F780FD9B
S1134F4018C08091C2028823A1F081E00E94C80A9F
S1134F501092C2028091B0069091B106C81BD90B81
S1134F602A9738F480911906882319F08150809388
S1134F701906FFBEFF91EF91DF91CF91BF91AF91E1
S1134F809F918F917F916F915F914F913F912F915D
S1134F901F910F91FF900F900FBE0F901F901895C7
S1134FA078941F920F920FB60F9211242F933F9370
S1134FB08F939F938FB7F894282F33278091C8033A
S1134FC09091C90301969093C9038093C8032FBF9E
S1134FD09F918F913F912F910F900FBE0F901F9033
S1134FE018951F920F920FB60F9211242F923F9291
S1134FF04F925F926F927F928F929F92AF92BF92E5
S1135000CF92DF92EF92FF920F931F932F933F93D0
S11350104F935F936F937F938F939F93AF93BF93BC
S1135020EF93FF93CF93DF93CDB7DEB72A97DEBF1D
S1135030CDBF8FB1282F3327E091A503F091A603AC
S1135040309739F08091CE039091CF03E80FF91F88
S113505020838091CE039091CF0301969093CF0348
S11350608093CE0380E00E942B0B2091CE033091DD
S1135070CF0380913406909135062817390718F428
S11350800E949E0CA2C1E090A503F090A60310928A
S1135090A6031092A5031092B1041092B0041092CA
S11350A03506109234061092CF031092CE038FB1BE
S11350B080916506909166062091650686FFE1C0A1
S11350C02F7B822F99278E33910509F47EC1CF97C8
S11350D009F07BC1C0901503D0901603F60110812E
S11350E080913804909139048230910521F003971E
S11350F009F444C0C1C083E090E0909339048093E4
S11351003804412F55279A012F5F3F4F6091A80320
S1135110862F9927821793077CF40E946606C09A0B
S1135120C09888E00E94DB0A88E00E94DB0AC09AEB
S113513083E00E94E80B9DC080E090E0B79B02C032
S113514081E090E0892B69F481B1992736E0969546
S113515087953A95E1F780FD04C0611B6150609327
S1135160A803193220F4B6016F5F7F4F02C060E0DC
S113517070E080E090E00E940C0D27C1C09A83E0AB
S11351800E94E80B80911906882311F11B3038F135
S11351908091A105E82FFF27EE0FFF1FE75CF84F72
S11351A080819181F60185A7892F992784A7809111
S11351B0A105992701969C01287F3170821B930BCE
S11351C08093A1058091190681508093190607C028
S11351D08FEF9FEFF60185A78FEF90E084A7F6018C
S11351E0E10FF11D808187FF44C0EF2809F441C01D
S11351F0F601618167704091150350911603623086
S113520091F5A0916304B0916404FA012081809126
S1135210C3029091C402079761F5FD019381FA01DD
S11352208381891731F587B78F7E87BF81E0FD01C0
S113523083A7420F511DFA0182919F012F5F3F4FB7
S1135240FD0180A7F90180818F77FD0181A781E0AD
S113525090E09093C4028093C3021092CB028CE13D
S11352600E94910006C0613021F481E20E94910005
S1135270ACC00E94530DA9C0C09A83E00E94E80B01
S1135280A4C02E3309F0A1C0C09A8091C3029091AA
S1135290C402089739F481E090E09093C4028093AB
S11352A0C30293C08091AC04882349F484E090E065
S11352B09093C4028093C3020E94730C86C082E060
S11352C00E94E80B83E090E09093C4028093C302B1
S11352D08FB7F894282F332729873A8720903B04E7
S11352E030903C0440903D0450903E0466248EE48B
S11352F0A82E03E8B02EC62CD62CE62CF62C062DB0
S1135300162D222D332D442D552D662D762D862DCB
S1135310962D0E940C2A29833A834B835C836D83E8
S11353207E838F839887822E932EA42EB52E2401FC
S11353303501769467945794479400E20E94162BA3
S1135340A22EB32EC42ED52ED601C501840D951DD3
S1135350A61DB71DB7FF04C0BF770196A11DB11DDF
S113536080933B0490933C04A0933D04B0933E048B
S113537039853FBF8F71907001969C01B3E0220F75
S1135380331FBA95E1F7280F391F280F391F790108
S1135390002711270E940502DC01CB012FB7F894E6
S11353A0C22EDD248093430490934404A0934504C7
S11353B0B0934604E092D106F092D2060093D3064D
S11353C01093D4060E942109CFBE2A96F894DEBF1A
S11353D0CDBFDF91CF91FF91EF91BF91AF919F919D
S11353E08F917F916F915F914F913F912F911F9179
S11353F00F91FF90EF90DF90CF90BF90AF909F9070
S11354008F907F906F905F904F903F902F900F9070
S11354100FBE0F901F901895A0E3B0E0E2E1FAE20E
S11354200C943A31222E332E442E552E662E772E8E
S1135430882E992E2A2D3B2DA8E0FE013196AA2E06
S11354401192AA94E9F729823A824B825C826D8296
S11354507E828F829886FE013996BA2E1192BA9472
S1135460E9F729873A87CB86DC86ED86FE860F87A7
S1135470188BFE0171961192AA95E9F7C980DA801A
S1135480EB80FC80C9A6DAA6EBA6FCA68701760110
S11354908FEF9FEFA0E0B0E0E822F9220A231B235C
S11354A0A9A4BAA4CBA4DCA4160144245524898558
S11354B09A85AB85BC858DA79EA7AFA7B8AB5C01C9
S11354C06D018FEF9FEFA0E0B0E0A822B922CA22BD
S11354D0DB228DA59EA5AFA5B8A93D0188249924FA
S11354E0C801B701A60195010E94073169A37AA3F7
S11354F08BA39CA3C801B701A40193010E940731A7
S11355006DA37EA38FA398A7C201B101A601950143
S11355100E9407317B018C01C201B101A4019301F6
S11355200E9407319B01AC01A9A0BAA0CBA0DCA0CA
S1135530C601AA27BB27ADA0BEA0CFA0D8A4A80EA1
S1135540B91ECA1EDB1EAE0CBF1CC01ED11EADA2EE
S1135550BEA2CFA2D8A6AE14BF04C006D10620F4C2
S1135560205030404F4F5F4FCDA0DEA0EFA0F8A4F5
S1135570C701AA27BB27820F931FA41FB51F8D8FB6
S11355809E8FAF8FB8A3A6013327222789A19AA1A2
S1135590ABA1BCA1A070B070280F391F4A1F5B1FBC
S11355A0298F3A8F4B8F5C8FA98CBA8CCB8CDC8C77
S11355B0ED8CFE8C0F8D18A1ED8AFE8A0F8B188F4F
S11355C02D853E854F85588969A57AA58BA59CA50F
S11355D00E9407313B014C018D819E81AF81B885CA
S11355E0BC01CD012DA53EA54FA558A90E940731A8
S11355F0DC01CB01680E791E8A1E9B1E8D899E8953
S1135600AF89B88D860D971DA81DB91D8D8B9E8BF6
S1135610AF8BB88F6D897E898F89988D2A2D3B2D0C
S11356204C2D5D2DE2E1E0960C9456318F929F92C1
S1135630AF92BF92CF92DF92EF92FF920F93CF93EC
S1135640DF93CDB7DEB768970FB6F894DEBF0FBE11
S1135650CDBFE82E002349F4298B3A8B4B8B5C8B0E
S11356606D8B7E8B8F8B988F6CC088E0FE0131969A
S113567011928A95E9F729833A834B835C836D837E
S11356807E83EF82988740E2401B14160CF041C0E1
S11356908D819E81AF81B8856C017D0104C0CC0CE5
S11356A0DD1CEE1CFF1C4A95D2F7202F332727FD63
S11356B03095022E04C0B695A795979587950A94C0
S11356C0D2F78D879E87AF87B88B89819A81AB810A
S11356D0BC8104C0B695A795979587952A95D2F76E
S11356E08C299D29AE29BF2989879A87AB87BC87D6
S11356F029853A854B855C856D857E858F8598895E
S1135700298B3A8B4B8B5C8B6D8B7E8B8F8B988F1D
S113571018C01D861E861F86188A842F992787FD28
S1135720909522273327281B390B8D819E81AF81C9
S1135730B88504C0B695A795979587952A95D2F70D
S1135740D3CF29893A894B895C896D897E898F8970
S1135750988D68960FB6F894DEBF0FBECDBFDF916B
S1135760CF910F91FF90EF90DF90CF90BF90AF90CB
S11357709F908F900895FB01DC0102C001900D926F
S113578041505040D8F70895DC0101C06D93415059
S11357905040E0F708950F931F93CF93DF93CDB755
S11357A0DEB72C970FB6F894DEBF0FBECDBF0B89C2
S11357B01C892D893E8946E04C8309831A838FEF27
S11357C09FE78D839E83AE01495E5F4FB901CE0191
S11357D001960E94FB2BEF81F885E00FF11F1082E8
S11357E02C960FB6F894DEBF0FBECDBFDF91CF91DC
S11357F01F910F9108952F923F924F925F926F9253
S11358007F928F929F92AF92BF92CF92DF92EF924C
S1135810FF920F931F93CF93DF93CDB7DEB76297B9
S11358200FB6F894DEBF0FBECDBFEE24FF24870170
S11358301C016D877E872A01CC24DD24FC01C682ED
S1135840D782838181FD80C28FEF9FEF90C28D85C7
S11358509E8501968D879E87C0FE63C28F85805387
S11358608A30D0F49F85903339F4662029F4C3FC40
S113587003C0E0E0F1E093C08AE0689E602C11244C
S1135880FF856F0E20ED620E67FE02C0EFE76E2EFD
S1135890C3FC5AC2762C58C2960173E036952795FC
S11358A07A95E1F720FF04C0662011F461E0662ECA
S11358B04F85842F992787FD9095883691058CF51F
S11358C0853691050CF06EC08335910509F493C0BB
S11358D084359105CCF48B32910509F449C08C329E
S11358E091054CF48032910509F446C08332910548
S11358F009F44AC010C28D32910509F440C08E32B9
S1135900910509F444C007C28336910509F450C0D7
S1135910843691050CF08AC08835910509F4BCC021
S1135920FAC18037910509F4B1C08137910584F437
S11359308C36910591F18D3691052CF489369105BB
S113594009F474C0E8C18F36910509F49CC0E3C121
S11359508537910509F4A2C08637910524F483376D
S1135960910571F1D8C18837910509F495C0D3C167
S113597080E190E0C82AD92AE0E2F0E010C080E893
S113598090E0C82AD92AE0C1E0E4F0E008C088E049
S113599090E0C82AD92A6624D7C1E4E0F0E0CE2AF0
S11359A0DF2AD2C15FE3E52E7A94F3E6FF8744C190
S11359B0F20182E090E0480E591EE0807A943CC1E6
S11359C0F20182E090E0480E591EA081B1817D0170
S11359D020FF09C0862D992787FD9095BC01CD0134
S11359E00E940C2F1FC0FD0101900020E9F73197A0
S11359F0EA1BE88B18C0F20182E090E0480E591EC1
S1135A000190F081E02D7F0120FF09C0862D9927A8
S1135A1087FD9095BC01CF010E94172F03C0CF01D1
S1135A200E94032F888B9889791A06C1C2FE0AC086
S1135A30F20184E090E0480E591E208131814281B8
S1135A4053810CC0F20182E090E0480E591E80811F
S1135A5091819C01442737FD4095542F79018A0197
S1135A6057FF0CC0E2E0F0E0CE2ADF2A1095009543
S1135A70F094E094E11CF11C011D111D8FEB9FEFCC
S1135A80C822D92227C098E0988B08C0E0E4F0E04F
S1135A90CE2ADF2AF8E7FF8720E1288BC2FE0AC05E
S1135AA0F20184E090E0480E591E20813181428148
S1135AB053810AC0F20182E090E0480E591E8081B1
S1135AC091819C014427552779018A01EFECFFEF6E
S1135AD0CE22DF22CE010196898B9A8B9889892E5A
S1135AE09924AA24BB24C801B701A50194010E94EA
S1135AF0E530DC01CB01E989FA8980838A3024F01E
S1135B00FF858F0F815201C0805DE989FA898193F5
S1135B10E98BFA8BC801B701A50194010E94E53015
S1135B2079018A012115310541055105E1F6E9881C
S1135B3081E090E08C0F9D1FE81AC601827390707B
S1135B40892B09F07A94C6FE0DC0872D992787FD0D
S1135B509095E889E03121F44EEF742E780E02C05E
S1135B60782E7A94C3FE0FC0262D332727FD309557
S1135B708E2D9927821793072CF087EF9FEFC82269
S1135B80D92201C06E18560133E0B694A7943A9511
S1135B90E1F7A0FE02C0761801C07E18C601807825
S1135BA09170892B51F4872D7A94181634F4B1012D
S1135BB080E290E00E94D02EF6CFC1FE04C0B10175
S1135BC08DE290E00BC0C4FE04C0B1018BE290E012
S1135BD005C0C5FE05C0B10180E290E00E94D02E50
S1135BE0C6FE10C0B10180E390E00E94D02E9889D7
S1135BF0903141F4B101EF858E2F992787FD90955F
S1135C000E94D02E8D2D992780FF0AC0872D7A946B
S1135C10181634F4B10180E390E00E94D02EF6CF40
S1135C20A0FE0AC0862D6A94181634F4B10180E3EC
S1135C3090E00E94D02EF6CF5601AA0CAB2CAA1CE1
S1135C40BB08B194A0FC0AC0872D7A94181634F4CA
S1135C50B10180E290E00E94D02EF6CFFF85F336AA
S1135C6041F48E2DB101992787FD90950E94D02E85
S1135C7046C02F852337B9F448894150488B4F3F9C
S1135C8009F43DC0F70180810894E11CF11CB101C5
S1135C90992787FD90950E94D02E88898150888B02
S1135CA08F3F81F72CC09F859335A1F4E889E1509B
S1135CB0E88BEF3F21F1F7018491B10199270E940C
S1135CC0D02E0894E11CF11CF889F150F88BFF3FA9
S1135CD091F715C06E010894C11CD11C89899A8959
S1135CE08C159D0561F0E989FA898291E98BFA8B1B
