S01900006275696C642F7A69676265782F6D61696E2E737265636F
S11300000C945C000C94F6120C9400130C942813BA
S11300100C9432130C943C130C9446130C9450130C
S11300200C945A130C9479000C9479000C94790074
S11300300C9479000C9479000C9479000C9474124B
S11300400C94B4120C9479000C94C9130C94790098
S11300500C94D7130C9464130C9479000C947900C9
S11300600C9479000C9479000C9479000C94790028
S11300700C9479000C9479000C9428140C94790055
S11300800C941F160C9479000C947900D80B0A0C6C
S1130090630CDE0CEF0C320D550DCD10620DEF0D1F
S11300A0C30E010F350F470F5A0FC40FCB0FD10FDB
S11300B0021000081C18141011241FBECFEFD0E149
S11300C0DEBFCDBF12E0A0E0B1E0E2E5F7E300E07F
S11300D00BBF02C007900D92AA3BB107D9F716E0F7
S11300E0AAEBB2E001C01D92A034B107E1F70C9471
S11300F005110C9400008FB7F894992708958FBFC9
S11301000895282F869586958695E82FFF27E7562C
S1130110FC4F277081E090E002C0880F991F2A9558
S1130120E2F720812823822F99270895982F8FB7EB
S1130130F894282FE92FFF27EE5DF94F80818F3F38
S1130140B1F480913606891791F080911F068F3F94
S113015019F490931F0607C080913606E82FFF27F5
S1130160EE5DF94F90839093360680E001C085E000
S11301702FBF99270895EF920F931F93AE2D99E007
S1130180899FF0011124EF5FFC4F40835183628308
S113019073830483158326833783A17080858E7FC0
S11301A08A2B8260808781E00E9496001F910F91C4
S11301B0EF900895CF93DF938FB7F894682F772744
S11301C0A0915505B0915605C0915705D091580599
S11301D082B706B600FE04C01196C11DD11D82B7B8
S11301E0282F33274427552788279A2FAB2FBC2F36
S11301F0822B932BA42BB52B6FBFBC01CD01DF91B8
S1130200CF910895982F8FB7F894282F3327422F32
S11302108091CA02882301F1E92FFF27E45CF94F9A
S113022080818F3FA1F4E0910201E91781F0809170
S113023003018F3F19F49093030104C0FF27E45C8A
S1130240F94F90839093020180E090E002C085E032
S113025090E04FBF9927089541E04093CA029093DC
S113026067042FBF8091C902882321F48FE00E9484
S1130270960002C04093C80280E090E00895FF9287
S11302800F931F93CF93DF93082F8FB7F894F82E13
S11302908091C602833009F054C080910001801718
S11302A009F04FC080919903882309F03EC081E092
S11302B090E0892BE9F51091C702C12FDD27219623
S11302C0C330D10511F4C0E0D0E08C2F0E9481002E
S11302D0882381F4812F9927C817D90781F78FEFD5
S11302E090E08093E70481E08093C60281E10E945C
S11302F0960024C08C2F869586958695E82FFF2737
S1130300E756FC4F2C2F277081E090E002C0880F45
S1130310991F2A95E2F7982F9095808189238083ED
S1130320C093C7028C2F9927DCCF80E090E0C1CF27
S113033083E0809300011092C6023798002309F4E9
S1130340C698FFBE81E090E0DF91CF911F910F919D
S1130350FF9008951F93CF93DF93C82F8FB7F8941E
S1130360282F3327122F8091C602882301F18C2F66
S11303700E9481008823B1F48C2F869586958695FA
S1130380E82FFF27E756FC4FC77081E090E002C0DA
S1130390880F991FCA95E2F72081282B208380E0DB
S11303A090E002C085E090E01FBF992719C081E06A
S11303B08093C602C093E7042FBF8FB7F8949927A0
S11303C0379A8FBF8FB7F894C82FDD27809100012B
S11303D0833019F481E10E949600CFBF80E090E061
S11303E0DF91CF911F9108952091C105822F992704
S11303F08130910559F0823091051CF4009731F059
S113040004C0029711F481E001C08FE1582F822FBC
S113041099278130910541F0823091051CF4892B94
S113042019F004C0029711F428E001C020E033273A
S11304308FB7F894E82F809135068E7F8093350628
S1130440322F27B160E070E0922F929596959695A1
S1130450937080E0891749F4852F8850863118F409
S11304602F71521711F461E070E0862F880F2091EC
S113047035062D7F282B852F8F71982F990F990F73
S11304802378292B209335068062992787B9406CFD
S113049021702295220F207E4F7D422B48613830F7
S11304A059F58091590590915A0521E086389207B3
S11304B018F087E090E01FC0833C910518F086E0B7
S11304C090E019C08136910518F085E090E013C0E2
S11304D08033910518F084E090E00DC088319105D7
S11304E018F083E090E007C00C9718F082E090E0E9
S11304F002C080E090E0382F3770487F432B842F70
S1130500992786B9EFBF0895AF92BF92CF92DF9239
S1130510EF920F931F935B016C010E94DA00DC01E0
S1130520CB0121E0E22E96018501AC01BD018AE0F8
S11305300E94BB001F910F91EF90DF90CF90BF906E
S1130540AF90089580E00E94AA019927089597E04A
S113055087FF02C0919A01C09198880F909A909851
S1130560915097FFF5CF0895982F8FB7F894282FBF
S113057089B78D7F89BF82E088BF80916A008860D7
S113058080936A00992321F080916A00846003C0FB
S113059080916A008B7F80936A0089B7826089BFEB
S11305A02FBF80E090E00895AF92BF92CF92DF9288
S11305B0EF92FF920F931F935B016C0131E0F32ED6
S11305C00E94DA00DC01CB01EF2C96018501AC011D
S11305D0BD018F2D0E94BB001F910F91FF90EF90E2
S11305E0DF90CF90BF90AF9008952F923F924F929B
S11305F05F926F927F928F929F92AF92BF92CF92AF
S1130600DF92EF92FF920F931F93882309F0E9C0C2
S11306108FB7F89499277093C0056093BF058FBF77
S1130620D99868EC70E080E090E00E94D4020091D8
S1130630BF051091C005E0907A03F0907B03C801D8
S1130640AA2797FDA095BA2FBC01CD010E94851A57
S11306503B014C0117FF08C020E030E040E857E4BC
S11306600E94D8193B014C01C701AA2797FDA09508
S1130670BA2FBC01CD010E94851AF7FE06C020E006
S113068030E040E857E40E94D8192AE037ED43E20D
S11306905CE30E94F41ADC01CB0120E030E040E28C
S11306A052E4BC01CD010E94D7191B012C0122EA9E
S11306B037EE4BE356EBC401B3010E94F41ADC019C
S11306C0CB01A4019301BC01CD010E94F41A7B016A
S11306D08C0124E533EE45E25DE3C401B3010E94DD
S11306E0F41ADC01CB019C01AD01C801B7010E94E1
S11306F0D819DC01CB0120E030E040E850ECBC012B
S1130700CD010E94D8195B016C0120E030E048EC77
S113071051E4C201B1010E94D7197B018C012CEA7A
S113072035EC47EA58E3C401B3010E94F41ADC0132
S1130730CB012AE037ED43E25CE3BC01CD010E942A
S1130740D819DC01CB019C01AD01C801B7010E949D
S1130750F41ADC01CB01A6019501BC01CD010E9474
S1130760D8197B018C0120E030E048EC52E40E946F
S1130770921A181654F40F2EF0E0EF2EF0E0FF2E2C
S1130780F8EC0F2FF2E41F2FF02D2DEC3CEC4CEC89
S11307905DE3C801B7010E948F1A882354F40F2E19
S11307A0FDECEF2EFCECFF2EFCEC0F2FFDE31F2FD6
S11307B0F02DC201B1010E94681ADC01CB019093B3
S11307C05C0580935B05C801B7010E94681ADC01CF
S11307D0CB0190937E0380937D0382E00E94AA0163
S11307E003C082E00E9402011F910F91FF90EF90DD
S11307F0DF90CF90BF90AF909F908F907F906F903D
S11308005F904F903F902F900895AF92BF92CF92F8
S1130810DF92EF920F931F935B016C010E94DA0049
S1130820DC01CB0141E0E42E96018501AC01BD0160
S113083083E00E94BB001F910F91EF90DF90CF9057
S1130840BF90AF900895882389F48FB7F8949927BF
S113085070937B0360937A038FBFDA9868EC70E03F
S113086080E090E00E94050483E001C082E00E94E1
S11308700201089530E0232F909A80B3992796952A
S1130880879580FD3160273009F0330F90982F5FF2
S1130890283090F3899A9198909A90988998919A8F
S11308A0832F99270895899A919A909A90980895F8
S11308B0AF92BF92CF92DF92EF92FF920F931F936A
S11308C0F82E5A016B010E94DA00DC01CB01EE2400
S11308D096018501AC01BD018F2D0E94BB001F91C3
S11308E00F91FF90EF90DF90CF90BF90AF9008955D
S11308F090910206980F909379039F3F11F4109200
S113090079030895992782FF02C0DA9801C0D99A21
S113091081FF02C0D99801C0D99A80FF02C0D8983B
S11309200895D89A0895AF92BF92CF92DF92EF9232
S11309300F931F935B016C010E94DA00DC01CB0171
S113094061E0E62E96018501AC01BD0184E00E94C0
S1130950BB001F910F91EF90DF90CF90BF90AF90AD
S11309600895AF92BF92CF92DF92EF920F931F93AD
S11309705B016C010E94DA00DC01CB0171E0E72E1F
S113098096018501AC01BD0185E00E94BB001F9169
S11309900F91EF90DF90CF90BF90AF900895CF93D9
S11309A0982F8FB7F894C82F8091CA028330A1F58D
S11309B080910101891781F520E030E080910301E5
S11309C08F3F11F421E030E0232BD9F48F3F81F0E5
S11309D0282F3327F901E45CF94F808180930301C8
S11309E08F3F11F4809302018FEF8083C90102C00D
S11309F08FEF90E08093670481E08093CA028EE0D9
S1130A0009C084E0809301011092CA0281E08093BE
S1130A10C90280E10E949600CFBF81E090E0CF91AF
S1130A2008958FB7F894482F552720E089B3992764
S1130A30969587959695879580FD21E089B39927AA
S1130A409695879580FD2260C89924604FBF822FB8
S1130A5099270895AF92BF92CF92DF92EF92FF92BF
S1130A600F931F93CF93DF930E94DA00FC01EB01F5
S1130A7020916204309163044091640450916504B0
S1130A807B018C01E21AF30A040B150B1092660425
S1130A908091FF0390910004A0910104B09102049D
S1130AA0E816F9060A071B07C0F0EE24FF248701A5
S1130AB0280F391F4A1F5B1F20936204309363047D
S1130AC04093640450936504E092FF03F0920004A1
S1130AD0009301041093020463C05C016D01AE181D
S1130AE0BF08C00AD10A8601750161E0A61661E05B
S1130AF0B60660E0C60660E0D60690F080E0A81670
S1130B0080E0B80681E0C80680E0D80610F08FEFD8
S1130B1004C0BB27AD2D9C2D8B2D8093660458C03B
S1130B2061E8A616B104C104D10430F1C058DF4F06
S1130B30EF4FFF4FC0936204D0936304E0936404C7
S1130B40F0936504C058D040E040F04080E89FEF47
S1130B50AFEFBFEFE80EF91E0A1F1B1FE092FF0361
S1130B60F09200040093010410930204A0E8EA2E1A
S1130B70F12C012D112D14C0280F391F4A1F5B1FA2
S1130B802093620430936304409364045093650497
S1130B901092FF03109200041092010410920204B8
S1130BA06E2D82B7282F8C1B8E5F8E1518F0622F46
S1130BB06E5F01C06C0F662309F461E0615000B6FA
S1130BC001FCFDCF61BF82E086BF87B7826087BF2B
S1130BD0DF91CF911F910F91FF90EF90DF90CF9015
S1130BE0BF90AF9008950F931F93DC01CB016FB7B3
S1130BF0F894062F11278093620490936304A093C2
S1130C006404B09365042093FF033093000440937D
S1130C100104509302040E942A050FBF1F910F91F3
S1130C200895282F8FB7F89499272CB95E9A8FBF0F
S1130C3008959C018091BC029091BD028F3791056B
S1130C4020F01092BD021092BC026623E1F0D9019B
S1130C508091BA029091BB028F37910520F01092D7
S1130C60BB021092BA028091BA029091BB02FC01BD
S1130C70E859FB4F2D91208301969093BB028093FA
S1130C80BA02615029F78091BE02882361F481E0A1
S1130C908093BE02E091BC02F091BD02E859FB4F83
S1130CA080810E9411060895982F8FB7F894282FF9
S1130CB0332790939C0080919B00806480939B00D9
S1130CC02FBF08959C018091C3029091C402803685
S1130CD0910520F01092C4021092C3026623E1F041
S1130CE0D9018091C1029091C2028036910520F011
S1130CF01092C2021092C1028091C1029091C2026C
S1130D00FC01E456FC4F2D91208301969093C2027E
S1130D108093C102615029F78091C502882361F450
S1130D2081E08093C502E091C302F091C402E456CD
S1130D30FC4F80810E9454060895CF93DF93D9011C
S1130D409EE7909381039093980329E030E03093D9
S1130D5083032093820399279093850380938403CC
S1130D606093860340938703E8E8F3E080E1EF01B2
S1130D700D9009928A95E1F7379760910706CF01A4
S1130D800E946206DF91CF9108959EE790938103BC
S1130D909093980322E030E03093830320938203FE
S1130DA0992790938503809384031092860360911E
S1130DB0070681E893E00E94620608952F923F920D
S1130DC04F925F926F927F928F929F92AF92BF9257
S1130DD0CF92DF92EF92FF920F931F93CF93DF9303
S1130DE0CDB7DEB760970FB6F894DEBF0FBECDBFA8
S1130DF01C0186E0A1E0B0E0AC0FBD1F1D928A95F6
S1130E00E9F7C101AA2797FDA095BA2F8B879C8784
S1130E10AD87BE87BC01CD010E94851A3B014C0100
S1130E2037FE08C020E030E040E857E40E94D819BB
S1130E303B014C0180917703082F1127D801AA0F99
S1130E40BB1FAA0FBB1FAF87B88B5D01EAEDF2E0B1
S1130E50AE0EBF1ED501CD90DD90ED90FC90A701A4
S1130E609601C401B3010E94D7196F8378878987DB
S1130E709A87F801E952FD4F10811F5F1083412EBC
S1130E805524C201AA2797FDA095BA2FBC01CD0114
S1130E900E94851ADC01CB019C01AD016F8178852C
S1130EA089859A850E94221ADC01CB019C01AD013F
S1130EB0C701B6010E94D8193B014C01F5016083BA
S1130EC0718382839383113009F45EC06B857C85C2
S1130ED08D859E850E94851A37FE06C020E030E08D
S1130EE040E857E40E94D819A40193010E94D7193D
S1130EF0DC01CB01CF84D88822EF32E0C20ED31EAE
S1130F009C01AD016F81788589859A850E94F41AC8
S1130F10DC01CB01F601E080F180028113819C01A8
S1130F20AD01C801B7010E94D8197B018C01D6011B
S1130F306D937D938D939C931397CF84D888E6EE1D
S1130F40F2E0CE0EDF1E089441085108C201AA2720
S1130F5097FDA095BA2FBC01CD010E94851ADC0132
S1130F60CB019C01AD01C801B7010E94221ADC012A
S1130F70CB01BC01CD010E94421BDC01CB01F60177
S1130F8080839183A283B38381E090E08C0F9D1FC3
S1130F9060960FB6F894DEBF0FBECDBFDF91CF9140
S1130FA01F910F91FF90EF90DF90CF90BF90AF9083
S1130FB09F908F907F906F905F904F903F902F9075
S1130FC008958998919A909A80B3992796958795D0
S1130FD080FF03C081E090E00895909880E090E065
S1130FE00895AF92BF92CF92DF92EF920F931F9327
S1130FF05B016C010E94DA00DC01CB0131E0E32EDD
S113100096018501AC01BD018BE00E94BB001F91DC
S11310100F91EF90DF90CF90BF90AF9008951F9302
S1131020889A90988998919A89B78D7F89BF899A6F
S1131030919A909888E0909A9098815087FFFBCF7E
S1131040899A919A9098909A91989098909A919A56
S1131050909880913A0690913B068F71907090938E
S11310603B0680933A0680913A060E94A7020E94AA
S1131070E107882329F01092CD0281E090E048C076
S113108020913A0630913B062630310561F1273034
S1131090310538F42330310579F02530310561F01C
S11310A035C02730310599F02E31310579F56BE0E3
S11310B070E080E090E008C08998919A0E94B402A0
S11310C06EE571E080E090E00E94F1071FC00E948D
S11310D03A04182F0E943A040E9453041093CC023D
S11310E08CE00E9496008091EA040E94A7020E946C
S11310F0E107882321F081E08093CB0204C0809132
S1131100EA048093CC028CE00E94960080E090E098
S11311101F910895282F80910401882319F484E0F5
S113112090E008958091CD02882319F085E090E045
S1131130089581E08093CD0283E090E090933B0694
S113114080933A06209320060E940F089927089559
S1131150282F80910401882319F484E090E00895F5
S11311608091CD02882319F085E090E0089581E014
S11311708093CD0285E090E090933B0680933A06FD
S1131180209320060E940F08992708951F93CF9358
S1131190DF93162FEA01992781309105E9F0823017
S11311A091051CF4892B21F017C0029771F014C02B
S11311B080E00E94CF04112321F4D0930C01C0934A
S11311C00B0181E00E94020107C082E00E94CF046B
S11311D0BE01812F0E942304DF91CF911F910895B6
S11311E01F93CF93DF93162FEA019927813091053E
S11311F049F082309105CCF082309105B1F003972B
S113120069F013C081E00E94CF04112321F4D0932C
S11312100A01C09309010E94A20207C083E00E9450
S1131220CF04BE01812F0E94F502DF91CF911F915F
S113123008953F924F925F926F927F928F929F9206
S1131240AF92BF92CF92DF92EF92FF920F931F93D0
S1131250CF93DF93CDB7DEB7C754D0400FB6F89421
S1131260DEBF0FBECDBF3B014C013324CC24DD24B3
S1131270E1E0AE2EE3E0BE2EF501608561FF55C2CC
S11312802081318142815381D401C301821B930B9C
S1131290A40BB50BE480F580068117818E159F059C
S11312A0A007B10708F441C260FF03C06D7F6087E7
S11312B00AC02E0D3F1D401F511FD5012D933D9394
S11312C04D935C931397B5E0CB16D10409F472C027
S11312D0E6E0CE16D104D4F4F2E0CF16D10409F43A
S11312E046C083E0C816D10444F4C114D10491F17A
S11312F091E0C916D104C9F118C2A3E0CA16D104F9
S1131300C1F1B4E0CB16D104B1F10FC2E8E0CE16BE
S1131310D10409F4C3C1F9E0CF16D1045CF486E02A
S1131320C816D10409F4D4C097E0C916D10409F44D
S113133061C1FBC1AAE0CA16D10409F4B3C1BAE081
S1131340CB16D1040CF45EC1EBE0CE16D10409F443
S1131350C7C1EBC1DA9868EC70E080E090E00E94CD
S1131360050482E00E940201E0C1D99ADEC1D89A44
S1131370DCC1DA9ADAC18091D602882339F487E095
S11313800E94820481E08093D6020AC01092D602A1
S11313908091D50281508093D502DA9AD99AD89A4D
S11313A08091D502882309F4C0C168E572E080E029
S11313B090E015C02091D402E22FFF27E95CF94F99
S11313C0E081223078F084E08093D5028091360366
S11313D08D7F8093360368EE73E080E090E00E9496
S11313E09304A3C18091FE029091FF02892B51F4D2
S11313F08AE0E89FC0011124815F9E4F9093FF0211
S11314008093FE0282E0821B0E948204E091FE022D
S1131410F091FF028081992787FD90958D32910587
S1131420C1F08E3291051CF4809721F02EC08E9766
S113143031F02BC060E679E080E090E01BC00E94B0
S1131440110580FF12C0DA9868EC70E080E090E04B
S113145009C00E94110580FF08C0DA9868E572E0AF
S113146080E090E00E94B10410C0DA9A68EC70E069
S113147080E090E00E94B1048091FE029091FF020E
S113148001969093FF028093FE02E091FE02F09198
S1131490FF028081882309F048C18091D4028F5FC4
S11314A08093D402E82FFF27E95CF94FE0818AE0BA
S11314B0E89FC0011124815F9E4F9093FF028093A7
S11314C0FE0268EC70E080E090E00E94B1042DC15F
S11314D079E0F72EF98289E090E08A839B8385E0A6
S11314E090E08C839D8380910003882309F044C09D
S11314F08E838091EC04882329F463E7462E61E00F
S1131500562E0DC0813029F459E7452E51E0552E51
S113151006C0823021F44FE7442E41E0542E5F92FE
S11315204F9285E891E09F938F938E01085E1F4F41
S11315301F930F930E9480168DB79EB706960FB621
S1131540F8949EBF0FBE8DBF80E1FE013896D8018E
S11315500D9001928A95E1F787E1DE011196E8E0AA
S1131560F6E00D9001928A95E1F789E00E949600D9
S113157081E080930003D9C081E08E838091E804E8
S11315809091E9049F938F938091FC039091FD03C4
S11315909F938F9380911D0490911E049F938F932A
S11315A083E991E09F938F938E01085E1F4F1F93F1
S11315B00F930E948016EDB7FEB73A960FB6F894D3
S11315C0FEBF0FBEEDBF80E1FE013896D8010D903D
S11315D001928A95E1F787E1DE011196E8E0F6E0F1
S11315E00D9001928A95E1F78F2D0E94960010923A
S11315F000039BC082E08093780382E180935D05C1
S113160084E04DC0809102068F5F809302068F3F75
S113161011F41092020690910206809179039817B2
S113162009F083C08091CE0299279F938F93809174
S11316300D0190910E019F938F938CE991E09F93FC
S11316408F9385E395E09F938F930E948016EDB767
S1131650FEB738960FB6F894FEBF0FBEEDBF80916B
S1131660CE028630B8F48F5F8093CE028630B0F01D
S1131670FE01F89680E1DF011D928A95E9F79F014A
S113168040E065E180915D050E949D068EE10E9427
S113169078044BC01092CE021092D30288E00E94CC
S11316A0960043C08FB7F894082F1127902F80918C
S11316B00101843099F48091CA02813021F48EE0D2
S11316C00E94960009C0823049F480916704809397
S11316D0010183E08093CA020FBF27C09FBF25C0CA
S11316E080913A0690913B0685309105A9F08630A9
S11316F0910518F4039731F018C04E97B1F4109285
S1131700CD0213C01092CD0240E050E061E0809120
S113171020060E94C60809C01092CD0240E050E0A5
S113172061E0809120060E94F0083394E9E0F0E043
S1131730AE0EBF1E0894C11CD11CFCE0F31508F0CA
S11317409BCD81E00E949600C95BDF4F0FB6F894F1
S1131750DEBF0FBECDBFDF91CF911F910F91FF90E0
S1131760EF90DF90CF90BF90AF909F908F907F903D
S11317706F905F904F903F9008958F929F92AF9299
S1131780BF92CF92DF92EF92FF920F931F93CF936A
S1131790DF939927AA27BB27FC01439708F0FDC4D0
S11317A0EA5BFF4FEE0FFF1F0590F491E02D0994C3
S11317B040917603442339F58FB7F894282F3327C3
S11317C0E0906204F0906304009164041091650455
S11317D08091FF0390910004A0910104B091020450
S11317E0E80EF91E0A1F1B1F2FBF8091030690915C
S11317F00406A0910506B09106069C01AD01C8013E
S1131800B7010E94F3050E94DA00DC01CB01BC01A0
S1131810CD0144C00E94DA004B015C016FEFE62E5B
S11318206FEFF62E6FEF062F6FE7162FCC2487B7D6
S11318308D7F87BF61E073E05CE0D52EEB01888586
S113184081FF1DC088819981AA81BB81A501940172
S1131850281B390B4A0B5B0BDA01C9012C813D8132
S11318604E815F81281B390B4A0B5B0B2E153F05FC
S11318704007510724F479018A0141E0C42EDA9427
S1131880675F7F4FD7FEDACFCC2009F486C41E14DD
S11318901F04100611062CF0C501B4010E94190999
S11318A07CC4E0920306F0920406009305061093AC
S11318B0060681E080937603A8019701C501B4016F
S11318C00E94F3056AC48FE194E090939B03809394
S11318D09A0382E08093780382E180935D0588EB2C
S11318E09BE090930404809303041092D20210921C
S11318F0D1021092D0021092CF021092CE02109216
S1131900C5021092C4021092C3021092C202109235
S1131910C10280919A00806480939A0080919A0019
S1131920886080939A0080919A00806880939A00DE
S113193080919A00806180939A0080919A008860D7
S113194080939A0080919A00806180939A0088E144
S11319508093070688E48093FE031EE710938103B7
S1131960109398031093ED041093340548E150E06C
S113197060E070E081E893E00E947916109381039F
S113198083E090E090938303809382031093980301
S11319906091070681E893E00E9462060E94DA00E3
S11319A0DC01CB0131E0E32E00EA1FE020E030E06F
S11319B0AC01BD0187E00E94BB00EFC388EB9BE054
S11319C09093040480930304809151038D7F80934A
S11319D0510348EB5BE060E070E088E070C0809108
S11319E048038D7F80934803F0907803C0915D0590
S11319F08C2F99279F938F938F2D99279F938F9344
S1131A0080910D0190910E019F938F9385EB91E04E
S1131A109F938F9302EC15E01F930F930E948016FF
S1131A204DB75EB7465F5F4F0FB6F8945EBF0FBE0B
S1131A304DBFF80101900020E9F73197E01BF10B4D
S1131A406E2FC8010E941906C53011F082E01DC333
S1131A50F092EB04C093210644EF51E060E070E0A3
S1131A6086E02DC08091230499279F938F9385ED61
S1131A7091E09F938F9302EC15E01F930F930E94C4
S1131A8080168DB79EB706960FB6F8949EBF0FBE0C
S1131A908DBFF80101900020E9F73197E01BF10BAD
S1131AA06E2FC8010E94190678C380915A038D7F56
S1131AB080935A0344E650E060E070E089E00E94BD
S1131AC058046BC380915D058231E9F482E190E0B2
S1131AD09F938F9380910D0190910E019F938F930B
S1131AE082EE91E09F938F9385E395E09F938F938C
S1131AF00E948016CDB7DEB728960FB6F894DEBFE5
S1131B000FBECDBF97C0863019F08D3009F047C0A5
S1131B108091D30299279F938F9380915D05992794
S1131B209F938F9380910D0190910E019F938F93BA
S1131B3085EF91E09F938F9385E395E09F938F9337
S1131B400E948016EDB7FEB73A960FB6F894FEBF22
S1131B500FBEEDBF80915D058D3019F484E00E94C5
S1131B60780420915D053091D3028EE78093810340
S1131B70809398038AE090E0909383038093820398
S1131B80822F99279093850380938403309386034F
S1131B906091070681E893E00E946206FEC28930E4
S1131BA009F4FBC299279F938F9380910D01909123
S1131BB00E019F938F9380E192E09F938F9385E32F
S1131BC095E09F938F930E9480162DB73EB7285FB0
S1131BD03F4F0FB6F8943EBF0FBE2DBF2DC080916E
S1131BE0090690910A06029761F580910B0690917F
S1131BF00C069F938F9380910D0190910E019F93FA
S1131C008F9383E292E09F938F9385E395E09F9374
S1131C108F930E9480164DB75EB7485F5F4F0FB633
S1131C20F8945EBF0FBE4DBF80910B0690910C06D9
S1131C30429711F480E06FC180915D050E94C50652
S1131C40ACC280910806C5E3D5E020910B06309123
S1131C500C06882309F03FC080910304909104048A
S1131C608217930789F0309304042093030480912E
S1131C7051038D7F80935103C901AA27BB27AC016F
S1131C80BD0188E00E94580480910B0690910C06D7
S1131C909F938F9380910A0699279F938F938091A6
S1131CA0090699279F938F9380910D0190910E01BE
S1131CB09F938F9387E392E09F938F93DF93CF93C8
S1131CC00E9480168DB79EB70C960FB6F8949EBFEF
S1131CD00FBE8DBF62C280910E0699279F938F938A
S1131CE080910D0699279F938F933F932F93809113
S1131CF00D0190910E019F938F9384E592E09F9341
S1131D008F93DF93CF930E948016CDB7DEB72C96C6
S1131D100FB6F894DEBF0FBECDBF80915D05409134
S1131D200E0660910D06AFE0B6E0893041F58EE70E
S1131D30809381038093980389E090E090938303D8
S1131D408093820390938503809384036093860336
S1131D5040938703E8E8F3E080E1EF010D900992F6
S1131D608A95E1F760910706CF0107970E94620602
S1131D708AE090E090938303809382030EC29D01D6
S1131D800E949D060AC282E080937C03E0919A033C
S1131D90F0919B03809178038083E0919A03F09102
S1131DA09B0380915D058183E0919A03F0919B03ED
S1131DB080910304909104048283938380910B01A6
S1131DC090910C01848395838091090190910A017B
S1131DD0868397838091070190910801808791877A
S1131DE08091050190910601828793871486158658
S1131DF01686178680917C03825F80937C0385E03E
S1131E0044C18091CD02882309F4C7C180916C0339
S1131E108D7F80936C030E943A049927D82FCC2796
S1131E200E943A049927C82BD92B0E943A040E9495
S1131E30530480913A0690913B068330910519F042
S1131E40059751F0AAC11092CD02AE0160E08091D5
S1131E5020060E94C608A1C11092CD02AE0160E026
S1131E60809120060E94F00898C180913A069091D2
S1131E703B068630910531F0079709F08EC1109228
S1131E80CD028BC11092CD021092CB0286C18091FB
S1131E90C802813031F46BE070E080E090E00E9491
S1131EA084028FB7F89499271092C8021092C9023D
S1131EB08FBF73C18FB7F89499272091670420933B
S1131EC0010193E0F92EF092CA028FBF022F11276D
S1131ED00130110519F10230110524F40115110521
S1131EE041F05BC10230110569F103301105D9F1EC
S1131EF054C180E00E948A08C82FDD27CC2309F44E
S1131F004CC180E00E94CF04CC2321F410930C0137
S1131F1000930B0181E00E9402013FC181E00E9415
S1131F20A808C82FDD27CC2309F437C181E00E941B
S1131F30CF04CC2321F410920A01109209010E94CB
S1131F40A2022BC182E00E948A08C82FDD27CC237D
S1131F5009F423C182E00E94CF0460E070E08C2F7A
S1131F600E9423041AC18F2D0E94A808C82FDD27C0
S1131F70CC2309F412C18F2D0E94CF0460E070E0DD
S1131F808C2F0E94F50209C16BE070E080E090E0C4
S1131F900E94840202C188989098899891988DE053
S1131FA074C08FB7F894282F33279091E704909347
S1131FB0000183E08093C6022FBF892F99270097E1
S1131FC011F4BE9AC69A8130910579F08230910558
S1131FD01CF4892B21F0E1C0029759F0DEC081E0A6
S1131FE08093BE051092C1050AC081E08093BE05AE
S1131FF004C081E08093BE0582E08093C1050E9405
S1132000F401CBC01092BE058091C105C0917F033D
S1132010D0918003082F11270130110569F0023097
S1132020110524F40115110529F00BC00230110526
S113203029F007C080E003C081E001C082E00E9473
S11320403F0101301105B9F0023011051CF4012BD8
S113205029F0A3C002301105D9F09FC006E0D6953F
S1132060C7950A95E1F7D0930801C093070181E071
S11320700E94AA0192C016E0D695C7951A95E1F779
S1132080D0930601C09305018AE00E94960085C0A2
S11320906E01B6E0D694C794BA95E1F7D898A2E059
S11320A0FA2E0E94DA00DC01CB01F1E0EF2E08ECFD
S11320B010E020E030E0AC01BD018F2D0E94BB0098
S11320C020915B0530915C05C0917D03D0917E0326
S11320D08FB7F894082F1127809177038823E1F4B0
S11320E0C9010E94DE06FC01609177038081918121
S11320F022813381448155816093EC0490931E04C2
S113210080931D043093FD032093FC035093E90452
S11321104093E804E0927703809177038130E1F4FF
S1132120CE010E94DE06FC016091770380819181DB
S113213022813381448155816093EC0490931E0481
S113214080931D043093FD032093FC035093E90412
S11321504093E804F0927703809177038230E1F4AE
S1132160C6010E94DE06FC016091770380819181A3
S113217022813381448155816093EC0490931E0441
S113218080931D043093FD032093FC035093E904D2
S11321904093E804109277030FBFDF91CF911F9112
S11321A00F91FF90EF90DF90CF90BF90AF909F90F2
S11321B08F90089580911F068F3FD1F090911F0654
S11321C080911F06E82FFF27EE5DF94F80818093F1
S11321D01F0680911F068F3F11F480933606892FC6
S11321E09927FC01EE5DF94F2FEF20839C0102C07B
S11321F02FEF30E02F3F19F480E090E00895822F14
S11322000E94BD0B81E090E00895CFEFD0E1DEBFE6
S1132210CDBF8FB7F894E82E43E150E06FEF70E044
S113222082E296E00E9479168FEF80931F068093D6
S1132230360681E08EBD88E080BF83E083BF2CB585
S11322403DB54AE78CB59DB58217930708F4415014
S11322509C014423B9F792B782B78917E9F32CB5E7
S11322603DB592B782B78917E9F38CB59DB5821B4A
S1132270930B4096A5E096958795AA95E1F79093E0
S11322805A058093590513BE83B78EBD8EB580BFA2
S113229012BE1DBC1CBC8FEF86BF86B780937C002A
S11322A080B79927877090700097D1F7D29AD19A06
S11322B0D09ADA9AD99AD89A85BB8FEF84BBD498EE
S11322C0DC9816B880B7886080BF80E285BF0E9422
S11322D0DA10C82FDD27CC23D1F712E006E0809175
S11322E0590590915A05AA27BB27FCE0880F991F2E
S11322F0AA1FBB1FFA95D1F7BC01CD0120E031EE36
S113230040E050E00E94871BDA01C901019789B9B6
S1132310492F5527409390001BB900939500CAB9E3
S113232020E030E0809399004093980010939B0044
S113233000939D0020939A00209399038FEF9FEFC1
S1132340AFEFBFEF80933C0690933D06A0933E060B
S1132350B0933F0600B602FCFDCF12BE87B7816082
S113236087BF83B7887F836000B600FCFDCF83BF3F
S11323700E94DA10C82FDD27CC23D1F7EFBE789462
S1132380C093BE021092BD021092BC021092BB0216
S11323901092BA02569A539A579A549A539A549A44
S11323A082E00E949600C0937703DA9868EC70E0AC
S11323B080E090E00E940504D99868EC70E080E029
S11323C090E00E94D402D8980E94DA00DC01CB018C
S11323D071E0E72E08EC10E020E030E0AC01BD0134
S11323E082E00E94BB0048EE53E060E070E08C2F76
S11323F00E9458048FB7F894482F4AC087B799278A
S1132400887B892B41F480917D00282F33272B7FF3
S11324102115310519F020E030E02AC06F9928C059
S11324208AB1807C29F580919A00807C09F5379BDC
S113243003C021E030E01CC087B7992783709070F7
S1132440892BA1F080B7992787709070892BD1F7D9
S113245081B792B7891B8C3018F082B7853F18F08A
S113246022E030E005C023E030E002C025E030E0A7
S1132470E5E02E1708F4E22F85B7837EFF27EE549C
S1132480FF4F9491892B806285BF78948895F89446
S113249080911F068F3FC9F090911F0680911F06FF
S11324A0E82FFF27EE5DF94F808180931F0680910E
S11324B01F068F3F11F480933606892F9927FC015C
S11324C0EE5DF94F2FEF208302C08FEF90E08F3F36
S11324D009F494CF4FBF0E94BD0B8CCF83B783BF49
S11324E000B600FCFDCF08951F920F920FB60F9215
S11324F011242F933F934F935F936F937F938F9305
S11325009F93AF93BF93CF93EF93FF930E946E1269
S113251087B78D7F87BF78948FB7F894C82F809141
S1132520FF0390910004A0910104B091020400976C
S1132530A105B10521F480E00E94960002C00E942A
S11325402A05CFBFFF91EF91CF91BF91AF919F919A
S11325508F917F916F915F914F913F912F910F9048
S11325600FBE0F901F9018951F920F920FB60F92E7
S113257011242F933F934F935F936F937F938F9384
S11325809F93AF93BF93EF93FF930E946E1280913A
S1132590550590915605A0915705B091580501969F
S11325A0A11DB11D8093550590935605A093570521
S11325B0B093580580916604882339F08150809344
S11325C06604882311F40E942A05FF91EF91BF91BC
S11325D0AF919F918F917F916F915F914F913F91B7
S11325E02F910F900FBE0F901F9018951F920F926E
S11325F00FB60F9211240F900FBE0F901F901895D5
S11326001F920F920FB60F9211242F933F934F9363
S11326105F936F937F938F939F93AF93BF93EF9346
S1132620FF9389B78D7F89BF8BE00E949600FF914D
S1132630EF91BF91AF919F918F917F916F915F9136
S11326404F913F912F910F900FBE0F901F901895AF
S11326501F920F920FB60F9211240F900FBE0F907E
S11326601F9018951F920F920FB60F9211240F907E
S11326700FBE0F901F9018951F920F920FB60F92D6
S113268011240F900FBE0F901F9018951F920F9258
S11326900FB60F9211240F900FBE0F901F90189534
S11326A01F920F920FB60F9211240F900FBE0F902E
S11326B01F9018951F920F920FB60F9211240F902E
S11326C00FBE0F901F9018951F920F920FB60F9286
S11326D011242F933F934F935F936F937F938F9323
S11326E09F93AF93BF93EF93FF9364B175B17894C5
S11326F08FB7F894282F332780913506482F4695B5
S113270041702FBF282F217080FD1CC03398809109
S1132710BE0599278130910519F0029759F028C018
S1132720442351F07093800360937F0382E10E94FD
S113273096001EC0442319F40E94F40119C020938A
S1132740BE0516C08FB7F89499278FBF8FB7F8943A
S1132750482F552786B180618777282F332726B9DC
S11327608F7B282F332726B98068992786B94FBFD6
S1132770FF91EF91BF91AF919F918F917F916F9155
S11327805F914F913F912F910F900FBE0F901F902B
S113279018951F920F920FB60F9211248F935F9981
S11327A08CB18F910F900FBE0F901F901895789455
S11327B01F920F920FB60F9211242F933F934F93B2
S11327C05F936F937F938F939F93AF93BF93EF9395
S11327D0FF938091BC029091BD0201969093BD023B
S11327E08093BC028F37910520F01092BD021092A5
S11327F0BC028091BA029091BB028F37910520F000
S11328001092BB021092BA02E091BC02F091BD0298
S11328108091BA029091BB02E817F90731F0E859A8
S1132820FB4F80810E94110602C01092BE02FF91EC
S1132830EF91BF91AF919F918F917F916F915F9134
S11328404F913F912F910F900FBE0F901F901895AD
S11328501F920F920FB60F9211242F933F934F9311
S11328605F936F937F938F939F93AF93BF93EF93F4
S1132870FF9380919B0087FFD1C140919C00809180
S1132880BF02882321F44E3709F0C8C106C0209145
S1132890C002233050F44E3741F481E08093BF02EC
S11328A040935E058093C002B9C1E22FFF27E25A2C
S11328B0FA4F40832F5F2093C00230915F0533307D
S11328C049F580910706281709F098C11092BF02B4
S11328D04E3709F09BC18091610580935D05863078
S11328E021F0893011F08D3081F48AE080937803EF
S11328F080915D058D3061F48FEF809379031092A0
S1132900020686E00E94960003C082E0809378036A
S113291084E071C1323009F04CC080910706281759
S113292009F06CC11092BF024E3709F06FC13093A9
S11329307C03E0919A03F0919B0380917803808358
S1132940E0919A03F0919B0380915D058183E0916E
S11329509A03F0919B038091030490910404828371
S11329609383809165059091660584839583809116
S11329706705909168058683978380916905909196
S11329806A058087918780916B0590916C05828799
S1132990938780916D0590916E05848795878091CA
S11329A06F05909170058687978780917C03825F7D
S11329B01FC1393009F09DC080910706281709F01E
S11329C01DC11092BF024E3709F020C182E08093EE
S11329D07C0380915D058D30F1F480916305833132
S11329E009F016C180910D0190910E019F938F9370
S11329F081E792E09F938F9385E395E09F938F9374
S1132A000E9480168DB79EB706960FB6F8949EBFA7
S1132A100FBE8DBFFDC0893059F488E1AEE5B5E045
S1132A20E5E0F4E00D9001928A95E1F787E0E3C0D8
S1132A308E3029F0843019F0853009F0E9C0E09136
S1132A409A03F0919B03809178038083E0919A0329
S1132A50F0919B0380915D058183E0919A03F0914D
S1132A609B03809103049091040482839383809157
S1132A70650590916605848395838091670590919F
S1132A806805868397838091690590916A0580879C
S1132A90918780916B0590916C05828793878091D3
S1132AA06D0590916E058487958780916F0590914F
S1132AB070058687978780917C03825F80937C036F
S1132AC080910D0190910E019F938F9388E892E07D
S1132AD09F938F9385E395E09F938F930E94801635
S1132AE08DB79EB706960FB6F8949EBF0FBE8DBFE6
S1132AF081C0313019F03A3009F08AC08091FE0368
S1132B00281709F07BC01092BF024E3709F07EC02F
S1132B1082E080937C03E0919A03F0919B0380917F
S1132B2078038083E0919A03F0919B0380915D0583
S1132B30818380915D058D3009F03FC01092CE02F3
S1132B408FEF809379038091630599279F938F93E7
S1132B5080910D0190910E019F938F9382EA92E0F0
S1132B609F938F9385E395E09F938F930E948016A4
S1132B708DB79EB708960FB6F8949EBF0FBE8DBF53
S1132B8090916305903F19F41092D30216C080917E
S1132B9065058A3029F4809166058A3A39F00AC0BD
S1132BA08A3A41F4809166058A3021F484E00E94D7
S1132BB0780403C09F5F9093D302E0919A03F0914D
S1132BC09B0380916405828320919A0330919B0337
S1132BD0809164059927AC0165E675E0C901039607
S1132BE00E94701680917C0390916405890F8F5F19
S1132BF080937C0385E00E9496000AC0992702977F
S1132C0033278217930724F44E3711F41092BF022E
S1132C108091C002813610F01092BF02FF91EF91B3
S1132C20BF91AF919F918F917F916F915F914F91E0
S1132C303F912F910F900FBE0F901F90189578948D
S1132C401F920F920FB60F9211242F933F934F931D
S1132C505F936F937F938F939F93AF93BF93EF9300
S1132C60FF938091C3029091C40201969093C40291
S1132C708093C3028036910520F01092C402109212
S1132C80C3028091C1029091C2028036910520F066
S1132C901092C2021092C102E091C302F091C402E8
S1132CA08091C1029091C202E817F90731F0E4560D
S1132CB0FC4F80810E94540602C01092C502FF910D
S1132CC0EF91BF91AF919F918F917F916F915F91A0
S1132CD04F913F912F910F900FBE0F901F90189519
S1132CE0FB01DC0102C001900D9241505040D8F725
S1132CF00895DC0101C06D9341505040E0F7089500
S1132D000F931F93CF93DF93CDB7DEB72C970FB6F6
S1132D10F894DEBF0FBECDBF0B891C892D893E8977
S1132D2046E04C8309831A838FEF9FE78D839E834C
S1132D30AE01495E5F4FB901CE0101960E94B01603
S1132D40EF81F885E00FF11F10822C960FB6F894EE
S1132D50DEBF0FBECDBFDF91CF911F910F910895BC
S1132D602F923F924F925F926F927F928F929F9297
S1132D70AF92BF92CF92DF92EF92FF920F931F9385
S1132D80CF93DF93CDB7DEB762970FB6F894DEBF6B
S1132D900FBECDBFEE24FF2487011C016D877E8703
S1132DA02A01CC24DD24FC01C682D782838181FDE3
S1132DB080C28FEF9FEF90C28D859E8501968D878F
S1132DC09E87C0FE63C28F8580538A30D0F49F856E
S1132DD0903339F4662029F4C3FC03C0E0E0F1E049
S1132DE093C08AE0689E602C1124FF856F0E20ED4D
S1132DF0620E67FE02C0EFE76E2EC3FC5AC2762C49
S1132E0058C2960173E0369527957A95E1F720FF2D
S1132E1004C0662011F461E0662E4F85842F992743
S1132E2087FD9095883691058CF5853691050CF0D3
S1132E306EC08335910509F493C084359105CCF4B3
S1132E408B32910509F449C08C3291054CF48032DF
S1132E50910509F446C08332910509F44AC010C2B1
S1132E608D32910509F440C08E32910509F444C0B5
S1132E7007C28336910509F450C0843691050CF0DD
S1132E808AC08835910509F4BCC0FAC18037910520
S1132E9009F4B1C08137910584F48C36910591F120
S1132EA08D3691052CF48936910509F474C0E8C176
S1132EB08F36910509F49CC0E3C18537910509F467
S1132EC0A2C08637910524F48337910571F1D8C1E6
S1132ED08837910509F495C0D3C180E190E0C82AF0
S1132EE0D92AE0E2F0E010C080E890E0C82AD92AAC
S1132EF0E0C1E0E4F0E008C088E090E0C82AD92A04
S1132F006624D7C1E4E0F0E0CE2ADF2AD2C15FE331
S1132F10E52E7A94F3E6FF8744C1F20182E090E063
S1132F20480E591EE0807A943CC1F20182E090E0A0
S1132F30480E591EA081B1817D0120FF09C0862D54
S1132F40992787FD9095BC01CD010E94C1191FC02E
S1132F50FD0101900020E9F73197EA1BE88B18C0C6
S1132F60F20182E090E0480E591E0190F081E02DBC
S1132F707F0120FF09C0862D992787FD9095BC010C
S1132F80CF010E94CC1903C0CF010E94B819888BCD
S1132F909889791A06C1C2FE0AC0F20184E090E061
S1132FA0480E591E20813181428153810CC0F201A7
S1132FB082E090E0480E591E808191819C01442753
S1132FC037FD4095542F79018A0157FF0CC0E2E088
S1132FD0F0E0CE2ADF2A10950095F094E094E11CED
S1132FE0F11C011D111D8FEB9FEFC822D92227C0B0
S1132FF098E0988B08C0E0E4F0E0CE2ADF2AF8E7F6
S1133000FF8720E1288BC2FE0AC0F20184E090E031
S1133010480E591E20813181428153810AC0F20138
S113302082E090E0480E591E808191819C014427E2
S1133030552779018A01EFECFFEFCE22DF22CE0182
S11330400196898B9A8B9889892E9924AA24BB246A
S1133050C801B701A50194010E94871BDC01CB01C3
S1133060E989FA8980838A3024F0FF858F0F8152A1
S113307001C0805DE989FA898193E98BFA8BC801E3
S1133080B701A50194010E94871B79018A012115CA
S1133090310541055105E1F6E98881E090E08C0FA6
S11330A09D1FE81AC60182739070892B09F07A94E7
S11330B0C6FE0DC0872D992787FD9095E889E031DC
S11330C021F44EEF742E780E02C0782E7A94C3FE4B
S11330D00FC0262D332727FD30958E2D9927821773
S11330E093072CF087EF9FEFC822D92201C06E18F6
S11330F0560133E0B694A7943A95E1F7A0FE02C0D6
S1133100761801C07E18C60180789170892B51F41D
S1133110872D7A94181634F4B10180E290E00E946D
S11331208519F6CFC1FE04C0B1018DE290E00BC059
S1133130C4FE04C0B1018BE290E005C0C5FE05C029
S1133140B10180E290E00E948519C6FE10C0B10171
S113315080E390E00E9485199889903141F4B1018F
S1133160EF858E2F992787FD90950E9485198D2DC7
S1133170992780FF0AC0872D7A94181634F4B10178
S113318080E390E00E948519F6CFA0FE0AC0862D48
S11331906A94181634F4B10180E390E00E94851912
S11331A0F6CF5601AA0CAB2CAA1CBB08B194A0FC08
S11331B00AC0872D7A94181634F4B10180E290E0A5
S11331C00E948519F6CFFF85F33641F48E2DB101A7
S11331D0992787FD90950E94851946C02F8523372E
S11331E0B9F448894150488B4F3F09F43DC0F70179
S11331F080810894E11CF11CB101992787FD909509
S11332000E94851988898150888B8F3F81F72CC053
S11332109F859335A1F4E889E150E88BEF3F21F1D4
S1133220F7018491B10199270E9485190894E11C42
S1133230F11CF889F150F88BFF3F91F715C06E012E
S11332400894C11CD11C89899A898C159D0561F04B
S1133250E989FA898291E98BFA8BB101992787FD73
S113326090950E948519EFCFA0FE0DC0872D7A940A
S113327018164CF4B10180E290E00E948519F6CF53
S1133280B1010E948519CC24DD2413C09F85953299
S113329041F481E0C82ED12C6624762CEAE0E88B38
S11332A008C0B101FF858F2F992787FD90950E9453
S11332B08519F101838183FF04C0ED85FE85F491B6
S11332C003C0ED85FE85F081FF872F85222309F059
S11332D073CDF1018681978162960FB6F894DEBFB3
S11332E00FBECDBFDF91CF911F910F91FF90EF9053
S11332F0DF90CF90BF90AF909F908F907F906F9012
S11333005F904F903F902F9008950F931F93CF930A
S1133310DF938C01EB018B81992781FF22C082FF0F
S113332014C02E813F818C819D81281739073CF47C
S1133330E881F9810193E883F9832E813F812F5F2E
S11333403F4F2E833F83C8010EC0E885F985802F47
S11333500995892B31F4AE81BF811196AE83BF8369
S1133360F2CF8FEF9FEFDF91CF911F910F910895CF
S1133370FC0105900020E9F7809590958E0F9F1F22
S11333800895FC016150704001900110D8F78095B8
S113339090958E0F9F1F0895FC0161507040059019
S11333A00110D8F7809590958E0F9F1F089550585F
S11333B0192EF7D001D0DAC0BA1762077307840751
S11333C09507B1F188F40EF410940B2EBA2FA02DAA
S11333D0062E622F202D072E732F302D082E842FBA
S11333E0402D092E952F502DFF275523B9F0591B39
S11333F049F0573E98F0469537952795A795F040A4
S11334005395C9F776F0BA0F621F731F841F30F407
S1133410879577956795B795F040939517FA0F2E92
S11334200895BF1BBB27BA0B620B730B840BF6CF3B
S1133430DEF6D4C0592F482F372F262F9FE380E87C
S113344077276627AED001D091C0552359F0992330
S113345069F09F575F57951B33F442F4903811F489
S1133460915805C09BC091589F3F09F4B7C0BB2732
S1133470112462177307840730F4660F771F881FBF
S1133480BB1F915098F311D00F920FD00F920DD013
S1133490A0E82617370748071B0609F0A048BA2FEB
S11334A0602D7F918F9100240895A0E80024621775
S11334B073078407B10528F0621B730B840BB109F1
S11334C00A2A660F771F881FBB1FA69581F70895E8
S11334D097FB73D09F3738F0FEE9F91B982F872F9D
S11334E0762F6B2F05C077C096958795779567954E
S11334F0F150D0F73EF490958095709561957F4F8B
S11335008F4F9F4F0895E89403C097FB0EF4F3DFA9
S1133510B62F672F782F892F9EE9002427C00ED05D
S11335205EF004C00BD026F001C008D019F020F4DE
S11335308FEF089580E0089581E0089597FB092EA8
S1133540052600F8689430D0E89407FC07C0621799
S113355073078407950721F008F40094079498945E
S113356008959A95BB0F661F771F881F112499230E
S1133570A1F08823B2F79F3F59F0BB0F48F421F420
S1133580002011F460FF04C06F5F7F4F8F4F9F4F87
S1133590881F9795879597F908951DC09FEF80EC34
S11335A00895052E092607FA440F551F5F3F79F049
S11335B0AA27A51708F051E04795880F991F9F3F48
S11335C031F0BB27B91708F091E0879508959F91D2
S11335D09F911124E3CF6627772788279927089599
S11335E0592F482F372F262FDCDF01D0BFCF992347
S11335F039F0552329F09F575F57950F13F4CAF1FB
S1133600EDCF91589F3FE1F3A62F00241124BB274F
S113361066275527F8E0A69520F4020E131EB41F62
S1133620651F220F331F441F551FFA95A1F7F8E0B9
S1133630E72F7727F8E0E69520F4130EB41F651FF3
S11336407A1F330F441F551FAA1FFA95A1F7F82FAD
S11336508827F69520F4B40F651F7A1F8E1F440F38
S1133660551FAA1FEE1FFF23A1F788231AF4939571
S113367039F494CF000C111CBB1F661F771F881FE1
S11336800128089597FD8ACF482F9923F9F195DFF2
S1133690F92FFF57F5959F1B9F1BFF9340584795A4
S11336A03327222740685FE7E894FF92EF92DF9286
S11336B0CF92BF92AF929F928F92C92ED82EE72EAF
S11336C0F62E6F2D7E2D8D2D9C2D852E942EA32EC2
S11336D0B22EBBDE582D492D3A2D2B2D11246CDE34
S11336E09A95592F482F372F262FB216A3069406E2
S11336F0850639F78F909F90AF90BF90CF90DF9061
S1133700EF90FF900F90900D002430CF0895A1E228
S11337101A2EAA1BBB1BFD010DC0AA1FBB1FEE1F47
S1133720FF1FA217B307E407F50720F0A21BB30B92
S1133730E40BF50B661F771F881F991F1A9469F70E
S113374060957095809590959B01AC01BD01CF016A
S10537500895D6
S11337520304FFFF01FFFFFFFFFFFFFFFF01002044
S11337620000000000000000002E20000000000005
S11337720000002D2000000000000000002D2E207B
S1133782000000000000002D2D20000000000000B9
S1133792002D2D2E200000000000002D2D2D2000D4
S11337A200000000002D2D2D2E2000000000002D11
S11337B22D2D2D2000000000002D2D2D2D2E20005A
S11337C200000054454D50200048554D49440055D1
S11337D25265642000257320415647205374446582
S11337E27620002564202564202564002564204376
S11337F23332385F52657365745F54696D65723A2A
S113380225640D0A002564206D7941707054797025
S1133812653A25582C206D794F7074547970653A45
S113382225580D0A00544C43442053573A25640D3D
S11338320A0025642067657453466972655F423ADB
S113384225640D0A00256420676574534669726510
S11338525F4C3A25582C205365713A25640D0A00B1
S113386225642067657453466972655F533A25641B
S11338720D0A00256420522D476574532D434D448F
S11338825B25645D0D0A00256420522D53432D43AC
S11338924D442121205B25642C2025642C202564A1
S11338A25D0D0A00256420522D4F432D434D4421C2
S11338B221205B25642C2025642C2025645D0D0ABF
S11338C2002564207265637620535542434D44318A
S11338D25F4641494C0D0A002564207265637620D7
S11338E270617273696E675F636F6E74726F6C0D71
S11338F20A0025642070617273696E675F6C6F6E73
S10D39026744543A25640D0A0000DE
S9030000FC
