S01900006275696C642F7A69676265782F6D61696E2E737265636F
S11300000C9468000C941A1C0C94241C0C944C1C26
S11300100C94561C0C94601C0C946A1C0C94741C58
S11300200C94A41C0C9485000C9485000C94602002
S11300300C94BA1F0C944A200C9438210C94981BED
S11300400C94D81B0C9459210C94131D0C9485000A
S11300500C94211D0C94AE1C0C9485000C9485000A
S11300600C9455200C9485000C9485000C94850008
S11300700C9485000C9485000C94721D0C948500DE
S11300800C94691F0C9485000C94850000114C118C
S11300900F1241129612111322139813B613B919A1
S11300A0C3134F14241562159615A815BA152416F2
S11300B02B1631166216C716F616A817B217B41700
S11300C0BC17C317DC17EB17A71800081C1814106B
S11300D011241FBECFEFD0E1DEBFCDBF12E0A0E000
S11300E0B1E0E8E4F4E500E00BBF02C007900D9234
S11300F0AA39B107D9F717E0AAE9B2E001C01D9205
S1130100A232B107E1F70C94F9190C9400008FB7EF
S1130110F894992708958FBF0895982F8FB7F8946E
S1130120282FE92FFF27E655F94F80818F3FB1F43F
S11301308091CC06891791F08091A1068F3F19F424
S11301409093A10607C08091CC06E82FFF27E655BF
S1130150F94F90839093CC0680E001C085E02FBFD7
S113016099270895882311F06E9A08956E9808953A
S113017080919D02882319F480E090E0089581E045
S113018090E008952F923F924F925F926F927F92E8
S11301908F929F92AF92BF92CF92DF92EF92FF9293
S11301A00F931F93CF93DF93CDB7DEB72A970FB684
S11301B0F894DEBF0FBECDBF8FB7F894282F332736
S11301C029873A8720901304309014044090150432
S11301D05090160466242EE4A22E93E8B92EC62C61
S11301E0D62CE62CF62C062D162D222D332D442D3F
S11301F0552D662D762D862D962D0E94E622298377
S11302003A834B835C836D837E838F839887822EAE
S1130210932EA42EB52EC62ED72EE82EF92E240109
S11302203501769467945794479400E2282D392D2C
S11302304A2D5B2D6C2D7D2D8E2D9F2D0E94F0233C
S1130240A22EB32EC42ED52EC601B501640D751D84
S1130250861D971D97FF05C09F776F5F7F4F8F4F58
S11302609F4F609313047093140480931504909328
S1130270160439853FBF2A960FB6F894DEBF0FBE29
S1130280CDBFDF91CF911F910F91FF90EF90DF9041
S1130290CF90BF90AF909F908F907F906F905F9022
S11302A04F903F902F900895EF920F931F93AE2D90
S11302B099E0899FF0011124E551FD4F408351835A
S11302C0628373830483158326833783A1708085B7
S11302D08E7F8A2B8260808783E00E948D001F912D
S11302E00F91EF900895CF93DF938FB7F894682F11
S11302F07727A0918305B0918405C0918505D0919D
S1130300860582B706B600FE04C01196C11DD11D34
S113031082B7282F33274427552788279A2FAB2FB6
S1130320BC2F822B932BA42BB52B6FBFBC01CD010B
S1130330DF91CF910895AF92BF92CF92DF92EF9267
S11303400F931F935B016C010E947301DC01CB01CD
S1130350E1E0EE2E96018501AC01BD0180E00E9432
S113036054011F910F91EF90DF90CF90BF90AF9009
S11303700895FC018285992708958FB7F894682F12
S113038077278091A3039091A4032CB53DB506B6BD
S113039002FE03C001962CB53DB5AA27BB2744270E
S11303A05527DC0199278827822B932BA42BB52B67
S11303B06FBFBC01CD010895282F8695869586953B
S11303C0E82FFF27EB55FC4F277081E090E002C037
S11303D0880F991F2A95E2F720812823822F9927D5
S11303E00895FF920F931F93CF93DF93082F8FB736
S11303F0F894F82E8091B102833009F054C08091B2
S11304000A01801709F04FC08091A503882309F0E1
S11304103EC081E090E0892BE9F51091B202C12F32
S1130420DD272196C330D10511F4C0E0D0E08C2F34
S11304300E94DC01882381F4812F9927C817D907EA
S113044081F78FEF90E08093130581E08093B102F0
S113045083E10E948D0024C08C2F86958695869515
S1130460E82FFF27EB55FC4F2C2F277081E090E0FD
S113047002C0880F991F2A95E2F7982F90958081E2
S113048089238083C093B2028C2F9927DCCF80E02C
S113049090E0C1CF83E080930A011092B1023798B3
S11304A0002309F4C698FFBE81E090E0DF91CF916C
S11304B01F910F91FF9008951F93CF93DF93C82F3F
S11304C08FB7F894282F3327122F8091B1028823F5
S11304D001F18C2F0E94DC018823B1F48C2F8695C6
S11304E086958695E82FFF27EB55FC4FC77081E072
S11304F090E002C0880F991FCA95E2F72081282B4B
S1130500208380E090E002C085E090E01FBF99273F
S113051019C081E08093B102C09313052FBF8FB738
S1130520F8949927379A8FBF8FB7F894C82FDD278F
S113053080910A01833019F483E10E948D00CFBFBA
S113054080E090E0DF91CF911F91089520910906FA
S1130550822F99278130910559F0823091051CF43E
S1130560009731F004C0029711F481E001C08FE1DB
S1130570582F822F99278130910541F082309105BF
S11305801CF4892B19F004C0029711F428E001C06F
S113059020E033278FB7F894E82F8091C9068E7F27
S11305A08093C906322F27B160E070E0922F9295B4
S11305B096959695937080E0891749F4852F885015
S11305C0863118F42F71521711F461E070E0862F10
S11305D0880F2091C9062D7F282B852F8F71982F86
S11305E0990F990F2378292B2093C90680629927A4
S11305F087B9406C21702295220F207E4F7D422BBB
S11306004861383059F580918D0590918E0521E02F
S11306108638920718F087E090E01FC0833C91056C
S113062018F086E090E019C08136910518F085E055
S113063090E013C08033910518F084E090E00DC081
S11306408831910518F083E090E007C00C9718F00A
S113065082E090E002C080E090E0382F3770487F5D
S1130660432B842F992786B9EFBF0895AF92BF9289
S1130670CF92DF92EF920F931F935B016C010E9464
S11306807301DC01CB0111E0E12E96018501AC017F
S1130690BD018BE00E9454011F910F91EF90DF90F8
S11306A0CF90BF90AF90089580E00E945C0299279C
S11306B0089597E087FF02C0919A01C09198880F2E
S11306C0909A9098915097FFF5CF0895982F8FB7EF
S11306D0F894282F89B78D7F89BF82E088BF8091E5
S11306E06A00886080936A00992321F080916A00EF
S11306F0846003C080916A008B7F80936A0089B70D
S1130700826089BF2FBF80E090E008952F923F92CE
S11307104F925F926F927F928F929F92AF92BF920D
S1130720CF92DF92EF92FF920F931F938B01882356
S113073009F0DDC08FB7F89499277093FC05609396
S1130740FB058FBFE0908403F0908503CB01AA27BB
S113075097FDA095BA2FBC01CD010E94AA283B01A8
S11307604C0117FF08C020E030E040E857E40E9445
S1130770FD273B014C01C701AA2797FDA095BA2F7D
S1130780BC01CD010E94AA28F7FE06C020E030E09B
S113079040E857E40E94FD272AE037ED43E25CE39A
S11307A00E941929DC01CB0120E030E040E252E450
S11307B0BC01CD010E94FC271B012C0122EA37EE6B
S11307C04BE356EBC401B3010E941929DC01CB01B0
S11307D0A4019301BC01CD010E9419297B018C0164
S11307E024E533EE45E25DE3C401B3010E94192917
S11307F0DC01CB019C01AD01C801B7010E94FD27BA
S1130800DC01CB0120E030E040E850ECBC01CD013C
S11308100E94FD275B016C0120E030E048EC51E4CC
S1130820C201B1010E94FC277B018C012CEA35EC4A
S113083047EA58E3C401B3010E941929DC01CB0142
S11308402AE037ED43E25CE3BC01CD010E94FD27C1
S1130850DC01CB019C01AD01C801B7010E9419293B
S1130860DC01CB01A6019501BC01CD010E94FD274D
S11308707B018C0120E030E048EC52E40E94B72870
S1130880181654F40F2EF0E0EF2EF0E0FF2EF8ECE3
S11308900F2FF2E41F2FF02D2DEC3CEC4CEC5DE31C
S11308A0C801B7010E94B428882354F40F2EFDEC2C
S11308B0EF2EFCECFF2EFCEC0F2FFDE31F2FF02D91
S11308C0C201B1010E948D28DC01CB0190939005F7
S11308D080938F05C801B7010E948D28DC01CB01EC
S11308E0909388038093870382E00E945C021F91A7
S11308F00F91FF90EF90DF90CF90BF90AF909F90BB
S11309008F907F906F905F904F903F902F900895BD
S1130910982F8FB7F894282F3327422F8091B50250
S1130920882301F1E92FFF27EA52F94F80818F3F95
S1130930A1F4E0910C01E91781F080910D018F3F42
S113094019F490930D0104C0FF27EA52F94F9083E4
S113095090930C0180E090E002C085E090E04FBFEE
S11309609927089541E04093B502909393042FBFD3
S11309708091B402882321F481E10E948D0002C099
S11309804093B30280E090E00895882359F48FB730
S1130990F894992770938503609384038FBF83E051
S11309A00E948804089530E0232F909A80B39927F9
S11309B09695879580FD3160273009F0330F909824
S11309C02F5F283090F3899A9198909A90988998FB
S11309D0919A832F99270895899A919A909A909839
S11309E00895AF92BF92CF92DF92EF92FF920F934E
S11309F01F93F82E5A016B010E947301DC01CB0195
S1130A00EE2496018501AC01BD018F2D0E94540195
S1130A101F910F91FF90EF90DF90CF90BF90AF9018
S1130A20089590917A06980F909382039F3F11F452
S1130A30109282030895282F8FB7F89499272CB920
S1130A405E9A8FBF0895AF92BF92CF92DF92EF92DA
S1130A500F931F935B016C010E947301DC01CB01B6
S1130A6051E0E52E96018501AC01BD0186E00E94AE
S1130A7054011F910F91EF90DF90CF90BF90AF90F2
S1130A800895CF93982F8FB7F894C82F8091B5020B
S1130A908330A1F580910B01891781F520E030E0C6
S1130AA080910D018F3F11F421E030E0232BD9F424
S1130AB08F3F81F0282F3327F901EA52F94F8081C3
S1130AC080930D018F3F11F480930C018FEF80838D
S1130AD0C90102C08FEF90E08093930481E080937A
S1130AE0B50280E109C084E080930B011092B50245
S1130AF081E08093B40282E10E948D00CFBF81E047
S1130B0090E0CF91089580E8809383031092F205DA
S1130B10109282051092CE060895CF93DF93CDB73D
S1130B20DEB767970FB6F894DEBF0FBECDBF282F90
S1130B30DB0189E0898389E090E08A839B8385E0F7
S1130B4090E08C839D83222311F0213009F42E83BD
S1130B5080E1FE0138960D9001928A95E1F787E1D4
S1130B60DE011196E5E8F6E00D9001928A95E1F731
S1130B708BE00E948D0067960FB6F894DEBF0FBE1F
S1130B80CDBFDF91CF910895EF920F931F93CF9331
S1130B90C0917D03CC2379F4DA980E947301DC01BF
S1130BA0CB0171E0E72E08EC10E020E030E0AC016E
S1130BB0BD0183E019C0C13039F4D9980E94730192
S1130BC0DC01CB01EC2E09C0C23081F4D8980E941C
S1130BD07301DC01CB0161E0E62E08EC10E020E0BB
S1130BE030E0AC01BD018C2F0E945401CF911F91C4
S1130BF00F91EF900895AF92BF92CF92DF92EF9250
S1130C00FF920F931F93CF93DF930E947301FC0114
S1130C10EB0120918104309182044091830450912E
S1130C2084047B018C01E21AF30A040B150B109265
S1130C3086048091170490911804A0911904B0912E
S1130C401A04E816F9060A071B07C0F0EE24FF246D
S1130C508701280F391F4A1F5B1F2093810430939B
S1130C6082044093830450938404E0921704F09226
S1130C7018040093190410931A0463C05C016D01F5
S1130C80AE18BF08C00AD10A8601750161E0A61634
S1130C9061E0B60660E0C60660E0D60690F080E04B
S1130CA0A81680E0B80681E0C80680E0D80610F0F7
S1130CB08FEF04C0BB27AD2D9C2D8B2D8093860414
S1130CC058C061E8A616B104C104D10430F1C0587B
S1130CD0DF4FEF4FFF4FC0938104D0938204E09322
S1130CE08304F0938404C058D040E040F04080E88E
S1130CF09FEFAFEFBFEFE80EF91E0A1F1B1FE09234
S1130D001704F09218040093190410931A04E0E8ED
S1130D10EE2EF12C012D112D14C0280F391F4A1F5E
S1130D205B1F209381043093820440938304509387
S1130D30840410921704109218041092190410924B
S1130D401A046E2D82B7282F8C1B8E5F8E1518F017
S1130D50622F6E5F01C06C0F662309F461E061507D
S1130D6000B601FCFDCF61BF82E086BF87B7826019
S1130D7087BFDF91CF911F910F91FF90EF90DF908C
S1130D80CF90BF90AF9008950F931F93DC01CB01D8
S1130D906FB7F894062F11278093810490938204EF
S1130DA0A0938304B093840420931704309318040D
S1130DB04093190450931A040E94FB050FBF1F911E
S1130DC00F910895982F8FB7F894282F3327909375
S1130DD09C0080919B00806480939B002FBF0895AA
S1130DE09C018091AE029091AF028036910520F073
S1130DF01092AF021092AE026623E1F0D901809105
S1130E00AC029091AD028036910520F01092AD02B3
S1130E101092AC028091AC029091AD02FC01E655B7
S1130E20FC4F2D91208301969093AD028093AC02E8
S1130E30615029F78091B002882361F481E08093A6
S1130E40B002E091AE02F091AF02E655FC4F808112
S1130E500E94E2060895CF93DF93D9019EE7909311
S1130E608B039093A20329E030E030938D03209309
S1130E708C03992790938F0380938E036093900340
S1130E8040939103E2E9F3E080E1EF010D900992D0
S1130E908A95E1F7379760918406CF010E94F006A6
S1130EA0DF91CF9108959EE790938B039093A203D3
S1130EB022E030E030938D0320938C0399279093A4
S1130EC08F0380938E0310929003609184068BE8C5
S1130ED093E00E94F0060895AF92BF92CF92DF9202
S1130EE0EF92FF920F931F93CF93DF930E94BD0164
S1130EF0FC01EB0180911C0490911D04A0911E043F
S1130F00B0911F04A0909C06B0909D06C0909E06D0
S1130F10D0909F069C01AD012A0D3B1D4C1D5D1D0B
S1130F2079018A01EC1AFD0A0E0B1F0BC817D907A9
S1130F30EA07FB0730F0281739074A075B0770F008
S1130F4005C0281739074A075B0728F4C217D307D7
S1130F50E407F50718F0EE24FF24870121E0E216E8
S1130F6020E8F20620E0020720E0120730F1C0502A
S1130F70D048EF4FFF4FC0931C04D0931D04E0935F
S1130F801E04F0931F04C050D048E040F04080E0BD
S1130F9090E8AFEFBFEFE80EF91E0A1F1B1FE092A7
S1130FA09C06F0929D0600939E0610939F06E12CEA
S1130FB0A0E8FA2E012D112D14C08A0D9B1DAC1D25
S1130FC0BD1D80931C0490931D04A0931E04B09334
S1130FD01F0410929C0610929D0610929E06109279
S1130FE09F06B7012CB53DB5C9018C1B9D0B03961B
S1130FF08E159F0520F0B9016D5F7F4F02C06C0F05
S11310007D1F6115710511F461E070E0615070405D
S11310107BBD6ABD80E186BF87B7806187BFDF91F2
S1131020CF911F910F91FF90EF90DF90CF90BF90E1
S1131030AF9008950F931F93DC01CB016FB7F89421
S1131040062F112780931C0490931D04A0931E0463
S1131050B0931F0420939C0630939D0640939E06F4
S113106050939F060E946C070FBF1F910F91089524
S1131070EF92FF920F931F93CF938FB7F894C82FDB
S11310800E94C200DC01CB019C01277030702F5FED
S11310903F4FC1F0C901B3E0880F991FBA95E1F73A
S11310A0820F931F820F931F7C01002711270E9438
S11310B0BD01DC01CB01A8019701BC01CD010E9457
S11310C01A0806C081E090E090939C0280939B02F2
S11310D0CFBFCF911F910F91FF90EF90089597B7D5
S11310E09F7D97BF90E296BF882319F08EB58064E8
S11310F002C08EB58F7B8EBD87B7806287BF80E0CC
S113110090E008958FB9779BFECF8FB1992708950A
S11311100F931F938B010E948208812F99270E94AD
S11311208208802F0E94820899271F910F910895A9
S1131130DF92EF92FF920F931F93CF937A01C22F06
S1131140DD248C01060F111D802F80680E94820807
S113115016950795802F807C0E948208CC2341F04D
S1131160F70181917F010E948208D82EC150F6CFE9
S11311708D2D9927CF911F910F91FF90EF90DF90C4
S11311800895882311F06F9A08956F9808951F9316
S113119010E0812F0E94B200BA9ABB98B99AB89A0B
S11311A06C9AC098812F0E94C108709A6B986A98B3
S11311B0689881E00E94B2001F9108950F931F93D5
S11311C0CF93082F8FB7F894282F3327122F8091AD
S11311D09F02882321F02FBF85E090E021C09091E9
S11311E09D02992341F482E080939D029093020131
S11311F080E090E002C081E090E09927C82F882326
S113120011F40E94C7088C2F9927282F882329F4CA
S11312100093050181E080939F021FBF822F9927CD
S1131220CF911F910F910895CF93C82F0E94B800BA
S1131230882311F40E94C70880919D02882359F4E1
S113124081E080939D02C093F4058DE10E948D009E
S113125080E090E01EC0EC2FFF27E158FC4F808116
S11312608F3FA1F4E0910301EC1781F08091040118
S11312708F3F19F4C093040104C0FF27E158FC4FC9
S1131280C083C093030180E090E002C085E090E059
S113129099279927CF910895CF93282F8FB7F89442
S11312A0C82F90919F02992369F081E090E002C0D9
S11312B0880F991F2A95E2F720919E02282B2093EC
S11312C09E0208C02093050181E080939F02892F2C
S11312D00E941409CFBF80E090E0CF910895CF938E
S11312E082E00E94DE089927C82F882319F082E043
S11312F00E944C098C2F9927CF9108951F93CF9367
S1131300DF93982F8FB7F894282F3327122F8091CB
S11313100501891721F02FBF81E090E071C04FEFE4
S11313204093050180919D02823009F03FC0909165
S113133002019923D9F520E030E08091040184175B
S113134011F421E030E0232B69F58F3F79F0282F49
S11313503327F901E158FC4F8081809304018F3FCA
S113136011F4409303014083C90102C08FEF90E060
S11313708093F40581E080939D028DE10E948D00AD
S113138015C02093050181E090E002C0880F991FE9
S11313904A95E2F78095382330939E0280E00E94BC
S11313A014092BC04093020190939D020E94B8003F
S11313B0C82FDD27CC2331F48C2F0E94B200C093B8
S11313C0CD06C09A30919E023323A9F020910501E5
S11313D02F5F632F7727243008F020E0422F552712
S11313E0CB01042E02C0959587950A94E2F780FDFF
S11313F0C8CF2F5FF0CF10929F021FBF80E090E014
S1131400DF91CF911F910895CF93C1E0C09880914F
S11314108504882311F085E001C084E00E948208DD
S113142083FD05C080E00E94820883FDC0E08FB781
S1131430F894CC2319F023E030E002C025E030E03A
S113144030939C0220939B028FBFC09ACC2329F037
S113145082E00E947E090E943808CF9108958F92FD
S11314609F92AF92BF92CF92DF92EF92FF920F932F
S11314701F93CF93DF938FB7F894C0908704D090D5
S113148088048090800390908103C091A803D09138
S1131490A903AE01465F5F4F20910706309108060D
S11314A02417350708F09A018FBF59010894A10841
S11314B0B108CA15DB05E8F47E01E80CF91C8E01BD
S11314C00C0D1D1DC114D10419F0F801808101C057
S11314D080E00E9482088114910411F0F701808356
S11314E021960F5F1F4F0894E11CF11CCA15DB0500
S11314F048F381E00E94C1088FB7F894982FC11473
S1131500D10431F0CC0EDD1EF60180818FB901C00B
S11315101FB8D093A903C093A8039FBF80E090E0B5
S1131520DF91CF911F910F91FF90EF90DF90CF90BB
S1131530BF90AF909F908F9008959C018FB7F894BF
S113154099273093880420938704709381036093D0
S1131550800350930806409307061092A903109243
S1131560A8038FBF8FB10E942F0A992708950F9364
S11315701F93C0980091E9021091EA028FE790E06E
S11315809093390680933806809138060E94820829
S113159041E050E0B80180E090E00E949D0A1F9174
S11315A00F91089582E090E09093110480931004C9
S11315B083E00E94DE08882319F40E94B70A089584
S11315C083E00E944C090895CF938FB7F894282F95
S11315D03327C22F8091100490911104892B11F4A8
S11315E02FBF26C02091CE06222341F080E090E058
S11315F0B79B02C081E090E0892B49F481B199271F
S113160036E0969587953A95E1F780FD08C0222348
S113161019F021502093CE060E94D20A08C081E01E
S113162090E090931104809310041092CE06CFBFE3
S1131630CF9108951F93CF93DF93C0913C04D09131
S11316403D048FA19927182F882309F41FE1C0981E
S11316508091A006811741F0812F9927806E9068B0
S1131660BC0185E10E9488081093A00618811150DE
S11316708EE390E090933906809338068091380683
S11316800E948208812F9927AC0160E070E0CE01AE
S11316900E949D0ADF91CF911F9108958998919A94
S11316A0909A80B399279695879580FF03C081E02F
S11316B090E00895909880E090E00895AF92BF92F2
S11316C0CF92DF92EF920F931F935B016C010E9404
S11316D07301DC01CB0151E0E52E96018501AC01DB
S11316E0BD018CE00E9454011F910F91EF90DF9097
S11316F0CF90BF90AF9008951F93889A909889983F
S1131700919A89B78D7F89BF899A919A909888E038
S1131710909A9098815087FFFBCF899A919A9098DC
S1131720909A91989098909A919A90988091D406D2
S11317309091D5068F7190709093D5068093D406BE
S11317408091D4060E9459030E944E0B882329F0ED
S11317501092B80281E090E048C02091D406309104
S1131760D5062630310561F12730310538F42330B0
S1131770310579F02530310561F035C02730310568
S113178099F02E31310579F56BE070E080E090E05E
S113179008C08998919A0E9466036EE571E080E022
S11317A090E00E945E0B1FC00E94D304182F0E9479
S11317B0D3040E94EC041093B7028EE00E948D00C3
S11317C0809116050E9459030E944E0B882321F034
S11317D081E08093B60204C0809116058093B7021D
S11317E08EE00E948D0080E090E01F910895282FE4
S11317F080910E01882319F484E090E0089580918B
S1131800B802882319F085E090E0089581E0809380
S1131810B80283E090E09093D5068093D406209399
S1131820A2060E947C0B99270895282F80910E010F
S1131830882319F484E090E008958091B802882305
S113184019F085E090E0089581E08093B80285E086
S113185090E09093D5068093D4062093A2060E942C
S11318607C0B992708951F93CF93DF93162FEA01DA
S1131870992781309105E9F0823091051CF4892B78
S113188021F017C0029771F014C080E00E94410556
S1131890112321F4D0931601C093150181E00E9415
S11318A0880407C082E00E944105BE01812F0E9486
S11318B0C504DF91CF911F9108951F93CF93DF93B8
S11318C0162FEA0199278130910549F0823091055C
S11318D0CCF082309105B1F0039769F013C081E038
S11318E00E944105112321F4D0931401C0931301E4
S11318F00E94540307C083E00E944105BE01812F6A
S11319000E948603DF91CF911F9108954F925F92B9
S11319106F927F928F929F92AF92BF92CF92DF92FB
S1131920EF92FF920F931F93CF93DF93CDB7DEB760
S1131930C855D0400FB6F894DEBF0FBECDBF699630
S11319406CAF7DAF8EAF9FAF69978824AA24BB2468
S11319508BEE682E82E0782EF301608561FF18C358
S1131960208131814281538169968CAD9DADAEADAC
S1131970BFAD6997821B930BA40BB50BE480F58074
S1131980068117818E159F05A007B10708F400C3CF
S113199060FF03C06D7F60870AC02E0D3F1D401F8E
S11319A0511FD3012D933D934D935C931397B7E04F
S11319B0AB16B10409F490C0E8E0AE16B10414F516
S11319C0F3E0AF16B10409F454C024E0A216B10444
S11319D074F481E0A816B10409F447C092E0A91692
S11319E0B1040CF044C0A114B104A9F1D1C2A5E022
S11319F0AA16B10409F44DC0B6E0AB16B1040CF05C
S1131A0056C039C0EBE0AE16B10409F4B9C1FCE02C
S1131A10AF16B1045CF429E0A216B10409F4AEC116
S1131A208AE0A816B1040CF05CC153C19EE0A9166B
S1131A30B10409F4EAC1AFE0AA16B10434F4BCE07D
S1131A40AB16B10409F4BAC1A3C2EFE0AE16B104F7
S1131A5009F476C29DC282E00E94880460E47FE1BA
S1131A6080E090E00E949B0193C2D99A91C2D89AD7
S1131A708FC2DA9A8DC2DA9A80910B0481508093D6
S1131A800B04882309F484C28091890590918A0506
S1131A901BC0DA9A80910C04815080930C04882333
S1131AA009F476C280918B0590918C050DC0DA9A69
S1131AB080910A04815080930A04882309F468C23F
S1131AC08091870590918805DA98AA27BB27BC01E5
S1131AD0CD010E9423055CC280911701813009F079
S1131AE073C08091E602882309F042C080911805F2
S1131AF0882329F40AE1402E01E0502E1BC08130D6
S1131B0029F41FE1412E11E0512E14C0823029F432
S1131B10B5E24B2EB1E05B2E0DC0833029F4AAE26E
S1131B204A2EA1E05A2E06C0843021F4FFE24F2E43
S1131B30F1E05F2E5F924F9287E391E09F938F9342
S1131B408E010F5F1F4F1F930F930E94A5248DB723
S1131B509EB706960FB6F8949EBF0FBE8DBFB80110
S1131B608091E6020E948D0581E08093E6022CC0FC
S1131B7080911405909115059F938F9380910E0485
S1131B8090910F049F938F9380913A0490913B041A
S1131B909F938F9386E491E09F938F938E010F5FC1
S1131BA01F4F1F930F930E94A524ADB7BEB71A967B
S1131BB00FB6F894BEBF0FBEADBFB8018091E60268
S1131BC00E948D051092E60280911701823041F542
S1131BD08091CF069091D006A091D106B091D20603
S1131BE0BF93AF939F938F9382E591E09F938F93DD
S1131BF08CE591E09F938F938E010F5F1F4F1F938E
S1131C000F930E94A524EDB7FEB73A960FB6F89449
S1131C10FEBF0FBEEDBFB8018091E7020E948D05A3
S1131C2080911701833009F0B3C18091E8028E01DD
S1131C300F5D1F4F8823E9F484E691E09F938F930F
S1131C4084E791E09F938F931F930F930E94A524A1
S1131C508DB79EB706960FB6F8949EBF0FBE8DBF84
S1131C60B8018091E8020E948D0581E08093E8022A
S1131C708FC18091F9059091FA059F938F9380917C
S1131C80F7059091F8059F938F938091F5059091B6
S1131C90F6059F938F9380918206909183069F937C
S1131CA08F9389E791E09F938F931F930F930E94E3
S1131CB0A524ADB7BEB71C960FB6F894BEBF0FBE31
S1131CC0ADBFB8018091E8020E948D051092E80230
S1131CD05FC182E080937E0382E18093910586E078
S1131CE02CC180917A068F5F80937A068F3F11F41E
S1131CF010927A0690917A0680918203981709F0DF
S1131D0047C18091B90299279F938F9380911801BD
S1131D10909119019F938F9389E891E09F938F93FA
S1131D2082E695E09F938F930E94A524EDB7FEB7BA
S1131D3038960FB6F894FEBF0FBEEDBF8091B9027E
S1131D408630C0F48F5F8093B9028630B8F0FE010C
S1131D50EF5BFF4F80E1DF011D928A95E9F79F0158
S1131D6040E065E1809191050E942B078EE10E947D
S1131D7011050EC11092B9021092BE028AE0DDC0B4
S1131D808FB7F894082F1127902F80910B0184307E
S1131D9099F48091B502813021F480E10E948D0094
S1131DA009C0823049F48091930480930B0183E04D
S1131DB08093B5020FBFECC09FBFEAC08091D406E8
S1131DC09091D50685309105B1F08630910518F4CF
S1131DD0039739F0DDC04E9709F0DAC01092B802CB
S1131DE0D7C01092B80240E050E061E08091A206B2
S1131DF00E94330CCDC01092B80240E050E061E084
S1131E008091A2060E945D0CC3C08FB7F8949927F5
S1131E10C090A002CC2011F08FBFBAC08FBF80B396
S1131E209927E6E096958795EA95E1F7982EB1E033
S1131E309B228091190590917C03891709F47AC03B
S1131E40991609F077C084E090E09093A202809301
S1131E50A1028E010F5A1F4F809106019091070134
S1131E60F8018083892F992781838091A806909116
S1131E70A9068283892F992783838FB7F89499279A
S1131E80DB2EB093A0028FBF8CE10E948D0060E036
S1131E9070E08DE10E94880824E0A8016C2D88E69A
S1131EA091E00E949808C09AC0988FB7F894E82EE1
S1131EB0FF248D2D0E946F0801E010E010939C0216
S1131EC000939B02C0929A02C092A006EFBE8FB705
S1131ED0F894E82EFF240E948305109311040093C4
S1131EE0100489B78F7B89BF80E488BF8AB780627A
S1131EF08ABF8AB78F7E8ABF89B7806489BFEFBEE5
S1131F008FB7F894082F11278091A1029091A20213
S1131F10049719F483E00E9482080FBF8FB7F894E6
S1131F20082F1127C09A80E00E947E090FBF87E125
S1131F300E948D00909219058BE10E948D0028C0AB
S1131F408091A4069091A506A091A606B091A7063B
S1131F500196A11DB11D8093A4069093A506A0939C
S1131F60A606B093A7068093CF069093D006A093BD
S1131F70D106B093D206805A9648A140B04041F4AD
S1131F8080917A038D7F80937A0381E080931B0490
S1131F90839489E090E0680E791E0894A11CB11C1A
S1131FA09FE0981508F0D8CC83E00E948D00C85AB1
S1131FB0DF4F0FB6F894DEBF0FBECDBFDF91CF91D8
S1131FC01F910F91FF90EF90DF90CF90BF90AF9053
S1131FD09F908F907F906F905F904F9008952F9275
S1131FE03F924F925F926F927F928F929F92AF92A5
S1131FF0BF92CF92DF92EF92FF920F931F93CF93F2
S1132000DF93CDB7DEB726970FB6F894DEBF0FBEC9
S1132010CDBF4C01062FC401AA2797FDA095BA2F66
S113202089839A83AB83BC83BC01CD010E94AA2817
S113203097FE06C020E030E040E857E40E94FD2708
S113204011271801220C331C220C331C37EDA32E4C
S113205032E0B32EA20CB31CD501CD90DD90ED90EF
S1132060FC90A70196010E94FC272B013C01F8017A
S1132070ED51FD4F10811F5F1083E12FFF27ED838A
S1132080FE83CF01AA2797FDA095BA2FBC01CD01ED
S11320900E94AA28DC01CB019C01AD01C301B2015D
S11320A00E944728DC01CB019C01AD01C701B601A8
S11320B00E94FD276B017C01D5016D937D938D9367
S11320C09C931397113009F45CC069817A818B81E8
S11320D09C810E94AA2897FE06C020E030E040E8D8
S11320E057E40E94FD27A70196010E94FC27DC010A
S11320F0CB012FEBC22E22E0D22EC20CD31C9C01AA
S1132100AD01C301B2010E941929DC01CB01F60122
S1132110E080F180028113819C01AD01C801B70107
S11321200E94FD277B018C01D6016D937D938D93D5
S11321309C9313976101EBECF2E0CE0EDF1E2D8130
S11321403E8121503040C901AA2797FDA095BA2F9E
S1132150BC01CD010E94AA28DC01CB019C01AD0188
S1132160C801B7010E944728DC01CB01BC01CD01A5
S11321700E946729DC01CB01F60180839183A2834D
S1132180B38326960FB6F894DEBF0FBECDBFDF91A2
S1132190CF911F910F91FF90EF90DF90CF90BF9060
S11321A0AF909F908F907F906F905F904F903F90F3
S11321B02F9008956F927F928F929F92AF92BF92C9
S11321C0CF92DF92EF92FF920F931F93CF93DF93FF
S11321D0CDB7DEB72A970FB6F894DEBF0FBECDBFDA
S11321E09927AA27BB27FC014F9710F00C94B91923
S11321F0EA5BFF4FEE0FFF1F0590F491E02D099469
S11322008091FD059927982F88272091FE05332773
S1132210822B932B80938A04892F99278093890496
S11322208091FF059927982F88272091000633274E
S1132230822B932B80938C04892F992780938B0472
S1132240809101069927982F882720910206332729
S1132250822B932B80938E04892F992780938D044E
S11322602091A4063091A5064091A6065091A70698
S113227020939204BB27A52F942F832F809391043E
S1132280CA01AA27BB2780939004852F9927AA27E0
S1132290BB2780938F045AC6809118079927982EDC
S11322A08824809119079927882A992A80911A07E6
S11322B09927B82EAA2480911B079927A82AB92AFE
S11322C080911C079927D82ECC2480911D0799272B
S11322D0C82AD92A60E0C4010E94EF0F61E0C50159
S11322E00E94EF0F62E0C6010E94EF0F80917D0310
S11322F0882379F5C401AA2797FDA095BA2FBC01BC
S1132300CD010E94AA287B018C0197FE08C020E021
S113231030E040E857E40E94FD277B018C01809166
S1132320D7029091D802A091D902B091DA029C010F
S1132330AD01C801B7010E94FC27DC01CB01BC013F
S1132340CD010E948D28DC01CB010E94C40581E0EF
S113235030C0813089F5C501AA2797FDA095BA2F11
S1132360BC01CD010E94AA287B018C01B7FE08C0E4
S113237020E030E040E857E40E94FD277B018C0117
S11323808091DB029091DC02A091DD02B091DE022B
S11323909C01AD01C801B7010E94FC27DC01CB01FF
S11323A0BC01CD010E948D28DC01CB010E94C40533
S11323B082E080937D03DDC7823009F0DAC7C6016D
S11323C0AA2797FDA095BA2FBC01CD010E94AA2887
S11323D07B018C01D7FE08C020E030E040E857E4E0
S11323E00E94FD277B018C018091DF029091E00225
S11323F0A091E102B091E2029C01AD01C801B701D4
S11324000E94FC27DC01CB01BC01CD010E948D2878
S1132410DC01CB010E94C40510927D03AAC7409140
S11324207B03442339F58FB7F894282F3327E090A2
S11324308104F090820400918304109184048091BB
S1132440170490911804A0911904B0911A04E80E8D
S1132450F91E0A1F1B1F2FBF80917E0690917F06D5
S1132460A0918006B09181069C01AD01C801B7011D
S11324700E94C4060E947301DC01CB01BC01CD01A2
S113248040C00E9473017B018C013FEFA32E3FEFFC
S1132490B32E3FEFC32E3FE7D32E70E087B78D7F77
S11324A087BFEBEEF2E06FE0808581FF1CC0808186
S11324B09181A281B381A8019701281B390B4A0B92
S11324C05B0BDA01C9012481358146815781281BC0
S11324D0390B4A0B5B0B2A153B054C055D051CF4B7
S11324E059016A0171E06150399667FFDDCF7723A6
S11324F009F43FC71A141B041C041D042CF0C80162
S1132500B7010E94860C35C7A0927E06B0927F0662
S1132510C0928006D092810681E080937B03A6015D
S11325209501C801B7010E94C40623C78EE394E055
S11325309093A7038093A60382E080937E0382E1B5
S11325408093910588EB9BE0909321048093200471
S11325501092BD021092BC021092BB021092BA02F9
S11325601092B9021092B0021092AF021092AE0211
S11325701092AD021092AC0280919A008064809314
S11325809A0080919A00886080939A0080919A00C2
S1132590806880939A0080919A00806180939A0069
S11325A080919A00886080939A0080919A0080615B
S11325B080939A0088E18093840688E480931204CF
S11325C01EE710938B031093A20310931A05109324
S11325D0610548E150E060E070E08BE893E00E9420
S11325E09E2410938B0383E090E090938D0380935B
S11325F08C031093A203609184068BE893E00E94FD
S1132600F0060E947301DC01CB0121E0E22E00EA16
S11326101FE020E030E0AC01BD0188E00E945401DD
S1132620A8C688EB9BE090932104809320048091BA
S113263044038D7F8093440348EB5BE060E070E0EB
S113264089E09EC080913B038D7F80933B03E090A3
S11326507E03F09091058F2D99279F938F938E2D54
S113266099279F938F9380911801909119019F93BB
S11326708F9382EA91E09F938F930AE316E01F936E
S11326800F930E94A5244DB75EB7465F5F4F0FB608
S1132690F8945EBF0FBE4DBFF80101900020E9F72A
S11326A03197E01BF10B8091A7029091A8028F371C
S11326B0910520F01092A8021092A702EE23C9F00F
S11326C02091A5023091A602D8014E2F2F37310553
S11326D010F020E030E0F901EC56FB4F8D9180833F
S11326E0C90101969C01415089F79093A6028093F9
S11326F0A5028091A902882361F481E08093A90254
S1132700E091A702F091A802EC56FB4F80810E9451
S11327101B0555E0F51611F084E0FBC4E0921705A3
S1132720F092A30644EF51E060E070E087E028C037
S113273080914204813051F490911701913011F449
S113274083E011C0933009F014C60DC0863009F03F
S113275010C680911701813011F482E004C08230E8
S113276009F007C681E08093170103C680914D03E9
S11327708D7F80934D0344E650E060E070E08AE092
S11327800E94F104F6C5809191058231E9F482E159
S113279090E09F938F9380911801909119019F93DA
S11327A08F9382EC91E09F938F9382E695E09F93C1
S11327B08F930E94A5248DB79EB708960FB6F89400
S11327C09EBF0FBE8DBF96C0863019F08D3009F0C4
S11327D047C08091BE0299279F938F938091910562
S11327E099279F938F9380911801909119019F933A
S11327F08F9385ED91E09F938F9382E695E09F936D
S11328008F930E94A524ADB7BEB71A960FB6F8945D
S1132810BEBF0FBEADBF809191058D3019F484E029
S11328200E941105209191053091BE028EE780939C
S11328308B038093A2038AE090E090938D038093AE
S11328408C03822F992790938F0380938E03309368
S11328509003609184068BE893E00E94F00689C59A
S1132860893009F486C599279F938F938091180125
S1132870909119019F938F9380EF91E09F938F9391
S113288082E695E09F938F930E94A524EDB7FEB74F
S113289038960FB6F894FEBF0FBEEDBF2DC08091E1
S11328A0860690918706029761F58091880690913B
S11328B089069F938F9380911801909119019F939A
S11328C08F9383E092E09F938F9382E695E09F93AA
S11328D08F930E94A5242DB73EB7285F3F4F0FB6B4
S11328E0F8943EBF0FBE2DBF809188069091890653
S11328F0429711F480E06FC1809191050E945307C3
S113290038C58091850602E615E02091880630914D
S11329108906882309F040C0809120049091210405
S11329208217930789F03093210420932004809127
S113293044038D7F80934403C901AA27BB27AC01BC
S1132940BD0189E00E94F104809188069091890676
S11329509F938F938091870699279F938F9380915C
S1132960860699279F938F9380911801909119015E
S11329709F938F9387E192E09F938F931F930F937D
S11329800E94A5244DB75EB7445F5F4F0FB6F8941D
S11329905EBF0FBE4DBFEDC480918B0699279F93F8
S11329A08F9380918A0699279F938F933F932F93B8
S11329B080911801909119019F938F9384E392E081
S11329C09F938F931F930F930E94A5248DB79EB757
S11329D00C960FB6F8949EBF0FBE8DBF80919105E3
S11329E040918B0660918A06ACE8B6E0893041F5E7
S11329F08EE780938B038093A20389E090E0909309
S1132A008D0380938C0390938F0380938E03609344
S1132A1090034093910322E933E080E1F9010D90A2
S1132A2001928A95E1F760918406C90107970E9493
S1132A30F0068AE090E090938D0380938C0399C410
S1132A409D010E942B0795C482E080938603E09148
S1132A50A603F091A70380917E038083E091A603EF
S1132A60F091A703809191058183E091A603F091F1
S1132A70A703809120049091210482839383809101
S1132A80150190911601848395838091130190918F
S1132A90140186839783809111019091120180879C
S1132AA0918780910F0190911001828793871486FA
S1132AB015861686178680918603825F8093860327
S1132AC087E027C38091B802882309F452C4809117
S1132AD05F038D7F80935F030E94D3049927182F8F
S1132AE000270E94D3049927082B192B0E94D30492
S1132AF00E94EC048091D4069091D5068330910510
S1132B0019F0059751F035C41092B802A80160E09D
S1132B108091A2060E94330C2CC41092B802A80122
S1132B2060E08091A2060E945D0C23C48091D406CB
S1132B309091D5068630910531F0079709F019C4B4
S1132B401092B80216C41092B8021092B60211C4C0
S1132B508091B302813031F46BE070E080E090E06A
S1132B600E9436038FB7F89499271092B3021092FB
S1132B70B40207C28FB7F894992720919304209345
S1132B800B0113E0F12EF092B5028FBF022F112733
S1132B900130110519F10230110524F40115110554
S1132BA041F0E7C30230110569F103301105D9F191
S1132BB0E0C380E00E94F70BE82EFF24EE2009F426
S1132BC0D8C380E00E944105EE2021F41093160141
S1132BD00093150181E00E948804CBC381E00E9428
S1132BE0150C082F1127002309F4C3C381E00E94A8
S1132BF04105002321F410921401109213010E9444
S1132C005403B7C382E00E94F70B082F1127002357
S1132C1009F4AFC382E00E94410560E070E0802FB8
S1132C200E94C504A6C38F2D0E94150C082F1127DE
S1132C30002309F49EC38F2D0E94410560E070E0DB
S1132C40802F0E94860395C36BE070E080E090E0E3
S1132C500E9436038EC388989098899891988FE043
S1132C6058C28FB7F894282F332790911305909367
S1132C700A0183E08093B1022FBF892F992700971F
S1132C8011F4BE9AC69A8130910579F0823091058B
S1132C901CF4892B21F06DC3029759F06AC381E0BB
S1132CA08093F305109209060AC081E08093F3052E
S1132CB004C081E08093F30582E0809309060E94BA
S1132CC0A60257C31092F30580910906E090890388
S1132CD0F0908A03082F11270130110569F00230A2
S1132CE0110524F40115110529F00BC0023011055A
S1132CF029F007C080E003C081E001C082E00E94A7
S1132D00F10101301105B9F0023011051CF4012B59
S1132D1029F02FC302301105C9F02BC3B6E0F69495
S1132D20E794BA95E1F7F0921201E092110181E083
S1132D300E945C021EC3A6E0F694E794AA95E1F70C
S1132D40F0921001E0920F018CE0E3C1F6E0F694FA
S1132D50E794FA95E1F780918F0590919005209181
S1132D608703309188038093FE05892F99278093E8
S1132D70FD0520930006832F99278093FF05E09299
S1132D8002068F2D99278093010680E0C2C18091AD
S1132D90A402813049F582E08093A4020E94C2001B
S1132DA0DC01CB0180937D068FB7F894282F33275D
S1132DB08091A1029091A202892B11F02FBF14C01F
S1132DC081E090E09093A2028093A1022FBFDD9A4C
S1132DD00E94BD01DC01CB0124E130E040E050E081
S1132DE0BC01CD010E941A0885E193C18091890438
S1132DF09927782F662780918A049927682B792B45
S1132E0080918B049927582F442780918C0499270B
S1132E10482B592B80918D049927382F2227809194
S1132E208E049927282B392B83E0809318057093FF
S1132E303B0460933A0450930F0440930E04309380
S1132E4015052093140540E050E065EE76E08AE035
S1132E5029E834E0DB01F90101900D928A95E1F74C
S1132E606B50704083E98093E4068FEF9FEF80936B
S1132E70E0068FEF90E08093E10682E290E0809399
S1132E80DE064093DF068FB7F894282F332780910E
S1132E90A402833021F02FBF81E090E054C085E08C
S1132EA08093A4027093CB066093CA0680917D063A
S1132EB08F5F80937D068093DD062FBF8DE0809326
S1132EC0DA068091DB068072992781649868809382
S1132ED0DB06892F99278093DC068091000190916D
S1132EE001018093E206892F99278093E30640939A
S1132EF00507409302074093030740930707409355
S1132F0006078FB7F894282F332780919B0290915E
S1132F109C02019711F02FBF14C082E090E09093BF
S1132F209C0280939B0281E08093850470933D040E
S1132F3060933C042FBF0E946F09882311F40E9400
S1132F401A0B80E090E0892B09F413C286E1E1C0FA
S1132F5083E08093A40268EE73E080E090E00E9436
S1132F609B0107C281E005C08FB7F89499278FBFF2
S1132F7083E08093A402FDC18FB7F894992710923F
S1132F800D048FBFF6C18FB7F894C82EDD2480914D
S1132F90A002882379F40E947301DC01CB0111E0C3
S1132FA0E12E01E010E020E030E0AC01BD018EE054
S1132FB00E945401CFBEDDC18FB7F894282F332768
S1132FC08091A002882329F0809171038D7F8093E2
S1132FD071032FBFCEC18FB7F894282F3327909158
S1132FE0F4059093020182E080939D022FBF992300
S1132FF009F0BFC18FB7F8949927209105018FBFBD
S113300033272130310509F453C0223031051CF433
S1133010232B51F0AEC12230310509F47DC0233099
S1133020310509F491C0A5C1C0988FB7F894E82E72
S1133030FF248091A1029091A2020297B9F583E046
S113304090E09093A2028093A10268E170E08DE188
S11330500E94880811E010937C031092A00280B3B0
S11330609927F6E096958795FA95E1F78123809361
S113307019058BE10E948D00812F0E9482086FE761
S113308072E08CE10E9488089091080185E0989F85
S1133090C0011124825D9E4F9064BC0188E10E94AE
S11330A0880862EF7AE281E10E948808EFBE61C17C
S11330B08FB7F894282F3327409108018091060197
S11330C0909107018F83892F992788878091A8067B
S11330D09091A9068987892F99278A872FBFC0983D
S11330E085E0489FC0011124825D9E4F9064BC011D
S11330F088E10E94880824E0AE01495F5F4F60E0E8
S113310088E691E00E949808C09A81E00E947E09B6
S11331108AE10E948D002DC18FB7F89499272091E0
S11331209B028FBF33272230310521F02430310533
S113313021F006C00E941A0B1CC10E94040A19C186
S113314082E00E947E0915C10E94B70A12C1A091B3
S1133150E902B091EA028C919D01280F311DF90119
S11331608081881F8827881FFD0182A7F901829129
S11331709F012F5F3F4FFD0180A7F90180818F7769
S1133180FD0181A7C090E902D090EA026BE0A62E6F
S1133190B12CAC0CBD1CF60187819927382F22274E
S11331A086819927282B392B809100019091010168
S11331B02817390721F02F5F3F4F09F0D4C0C6010B
S11331C00E94B901833909F0CEC096012F5E3F4FAA
S11331D0F50186819927AA27BB27182F0027FF24EA
S11331E0EE24F90181819927AA27BB27DC019927BD
S11331F08827E82AF92A0A2B1B2B82819927AA27D8
S1133200BB27BA2FA92F982F8827E82AF92A0A2B37
S11332101B2B83819927AA27BB27E82AF92A0A2B83
S11332201B2BF60183859927782F6627F501818169
S11332309927682B792B69837A835DE0652E712C3D
S11332406C0C7D1C82819927582F4427F3018181BE
S11332509927482B592B4B835C833FE0832E912C79
S11332608C0C9D1CF50184819927382F2227F401A9
S113327081819927282B392B2D833E83F092830655
S1133280E09282067093F6056093F5055093F80575
S11332904093F7053093FA052093F90580910901CD
S11332A0882329F01092090181E08093170180910D
S11332B0A4069091A506A091A606B091A7068E1526
S11332C09F05A007B10708F04EC080917A0381FFE3
S11332D003C08D7F80937A0329813A814B815C817D
S11332E06D817E8184E08093180530933B042093A4
S11332F03A0450930F0440930E04709315056093A1
S11333001405F60183859927982F8827F5012181D3
S11333103327822B932B80931907892F9927809326
S1133320180782819927982F8827F3012181332751
S1133330822B932B80931B07892F992780931A073D
S1133340F50184819927982F8827F4012181332757
S1133350822B932B80931D07892F992780931C0719
S113336081E00E948D00D092EA02C092E9020E949C
S1133370E40A2A960FB6F894DEBF0FBECDBFDF91E4
S1133380CF911F910F91FF90EF90DF90CF90BF905E
S1133390AF909F908F907F906F9008958091A10639
S11333A08F3FD1F09091A1068091A106E82FFF27CD
S11333B0E655F94F80818093A1068091A1068F3F45
S11333C011F48093CC06892F9927FC01E655F94F17
S11333D02FEF20839C0102C02FEF30E02F3F19F420
S11333E080E090E00895822F0E94DA1081E090E05E
S11333F00895CFEFD0E1DEBFCDBF8FB7F894C82FCB
S11334004FE150E06FEF70E08AEA96E00E949E245C
S11334108FEF8093A1068093CC0681E08EBD88E077
S113342080BF83E083BF2CB53DB54AE78CB59DB51D
S11334308217930708F441509C014423B9F792B7CB
S113344082B78917E9F32CB53DB592B782B78917CE
S1133450E9F38CB59DB5821B930B4096E5E09695F8
S11334608795EA95E1F790938E0580938D0513BEB9
S113347083B78EBD8EB580BF12BE1DBC1CBC8FEF42
S113348086BF86B780937C0080B7282F33272770A8
S1133490307021153105C1F7D29AD19AD09ADA9AAF
S11334A0D99AD89A25BB8FEF84BBD498DC983DBDBC
S11334B02CBD87B7846087BF8EB5887F84608EBD3E
S11334C016B880B7886080BF80E285BF0E94CE199D
S11334D08823E1F780911801909119010196AA2798
S11334E0BB278093130490931404A0931504B09302
S11334F016048FEF80937F038091A402882319F42C
S113350081E08093A402B89AD69AD59A809100015A
S1133510909101019093A9068093A8068E98B89A79
S11335208C988AE096E09093EA028093E9020091F5
S11335308D0510918E05C801AA27BB277CE0880F52
S1133540991FAA1FBB1F7A95D1F7BC01CD0120E0BA
S113355031EE40E050E00E94AC29DA01C901019744
S113356089B9892F99278093900082E08BB986E0EE
S1133570809395001AB8C801AA27BB275CE0880F7E
S1133580991FAA1FBB1F5A95D1F7BC01CD0120E09A
S113359031EE40E050E00E94AC29DA01C901019704
S11335A080939900892F99278093980082E08093D3
S11335B09B0086E080939D0010929A001092A503D0
S11335C08FEF9FEFAFEFBFEF8093D6069093D706B0
S11335D0A093D806B093D90600B602FCFDCF12BE64
S11335E087B7816087BF83B7887F836000B600FC9C
S11335F0FDCF83BF0E94CE1999278823D9F7CFBF67
S113360078948093A9021092A8021092A7021092B3
S1133610A6021092A502569A539A579A549A539A0C
S1133620549A84E00E948D004BE650E060E070E024
S11336308FE00E94F10485E10E948D008FB7F89419
S1133640482F4AC087B79927887B892B41F48091FA
S11336507D00282F33272B7F2115310519F020E019
S113366030E02AC06F9928C08AB1807C29F5809106
S11336709A00807C09F5379B03C021E030E01CC030
S113368087B7992783709070892BA1F080B7992709
S113369087709070892BD1F781B792B7891B8C30D2
S11336A018F082B7853F18F022E030E005C023E02F
S11336B030E002C025E030E0E5E02E1708F4E22F08
S11336C085B7837EFF27E653FF4F9491892B806251
S11336D085BF78948895F8948091A1068F3FC9F0AE
S11336E09091A1068091A106E82FFF27E655F94F96
S11336F080818093A1068091A1068F3F11F480936D
S1133700CC06892F9927FC01E655F94F2FEF20832A
S113371002C08FEF90E08F3F09F494CF4FBF0E9417
S1133720DA108CCF83B783BF00B600FCFDCF0895B9
S11337301F920F920FB60F9211242F933F934F9322
S11337405F936F937F938F939F93AF93BF93CF9325
S1133750EF93FF930E94921B87B78D7F87BF789466
S11337608FB7F894C82F8091170490911804A091F2
S11337701904B0911A040097A105B10521F482E05F
S11337800E948D0002C00E94FB05CFBFFF91EF9104
S1133790CF91BF91AF919F918F917F916F915F91E5
S11337A04F913F912F910F900FBE0F901F9018953E
S11337B01F920F920FB60F9211242F933F934F93A2
S11337C05F936F937F938F939F93AF93BF93EF9385
S11337D0FF930E94921B8091830590918405A09190
S11337E08505B09186050196A11DB11D80938305C1
S11337F090938405A0938505B093860580918604F3
S1133800882339F0815080938604882311F40E9420
S1133810FB05FF91EF91BF91AF919F918F917F91A4
S11338206F915F914F913F912F910F900FBE0F9029
S11338301F9018951F920F920FB60F9211240F909C
S11338400FBE0F901F9018951F920F920FB60F92F4
S113385011242F933F934F935F936F937F938F9391
S11338609F93AF93BF93EF93FF9389B78D7F89BFE6
S11338708DE00E948D00FF91EF91BF91AF919F91D8
S11338808F917F916F915F914F913F912F910F9005
S11338900FBE0F901F9018951F920F920FB60F92A4
S11338A011240F900FBE0F901F9018951F920F9226
S11338B00FB60F9211240F900FBE0F901F90189502
S11338C01F920F920FB60F9211240F900FBE0F90FC
S11338D01F9018951F920F920FB60F9211240F90FC
S11338E00FBE0F901F9018951F920F920FB60F9254
S11338F011242F933F934F935F936F937F938F93F1
S11339009F93AF93BF93EF93FF9380911004909193
S11339101104019719F40E94D20A05C08091CE06C1
S11339208F5F8093CE06FF91EF91BF91AF919F91EE
S11339308F917F916F915F914F913F912F910F9054
S11339400FBE0F901F9018951F920F920FB60F92F3
S113395011240F900FBE0F901F9018951F920F9275
S11339600FB60F9211242F933F934F935F936F934E
S11339707F938F939F93AF93BF93EF93FF9364B120
S113398075B178948FB7F894282F33278091C9069E
S1133990482F469541702FBF282F217080FD1CC0F1
S11339A033988091F30599278130910519F0029796
S11339B059F028C0442351F070938A03609389031B
S11339C084E10E948D001EC0442319F40E94A602C3
S11339D019C02093F30516C08FB7F89499278FBFA9
S11339E08FB7F894482F552786B180618777282FA1
S11339F0332726B98F7B282F332726B98068992748
S1133A0086B94FBFFF91EF91BF91AF919F918F9175
S1133A107F916F915F914F913F912F910F900FBEC6
S1133A200F901F9018951F920F920FB60F921124AA
S1133A308F935F998CB18F910F900FBE0F901F9051
S1133A40189578941F920F920FB60F9211242F930A
S1133A503F934F935F936F937F938F939F93AF9312
S1133A60BF93EF93FF938091A7029091A8020196D0
S1133A709093A8028093A7028F37910520F01092AB
S1133A80A8021092A7028091A5029091A6028F37F6
S1133A90910520F01092A6021092A502E091A702CF
S1133AA0F091A8028091A5029091A602E817F90767
S1133AB031F0EC56FB4F80810E941B0502C010922E
S1133AC0A902FF91EF91BF91AF919F918F917F9147
S1133AD06F915F914F913F912F910F900FBE0F9077
S1133AE01F9018951F920F920FB60F9211242F93C7
S1133AF03F934F935F936F937F938F939F93AF9372
S1133B00BF93EF93FF9380919B0087FFD1C14091B6
S1133B109C008091AA02882321F44E3709F0C8C181
S1133B2006C02091AB02233050F44E3741F481E0BB
S1133B308093AA02409392058093AB02B9C1E22F0D
S1133B40FF27EE56FA4F40832F5F2093AB029091EC
S1133B509305933049F580918406281709F098C19C
S1133B601092AA024E3709F09BC18091950580936B
S1133B709105863021F0893011F08D3081F48AE08E
S1133B8080937E03809191058D3061F48FEF809353
S1133B90820310927A0688E00E948D0003C082E0BE
S1133BA080937E0386E071C1923009F04CC080910D
S1133BB08406281709F06CC11092AA024E3709F046
S1133BC06FC190938603E091A603F091A7038091BF
S1133BD07E038083E091A603F091A7038091910571
S1133BE08183E091A603F091A70380912004909132
S1133BF02104828393838091990590919A0584830B
S1133C00958380919B0590919C05868397838091F1
S1133C109D0590919E058087918780919F05909145
S1133C20A005828793878091A1059091A20584873E
S1133C3095878091A3059091A405868797878091A5
S1133C408603825F1FC1993009F09DC0809184066C
S1133C50281709F01DC11092AA024E3709F020C19D
S1133C6082E080938603809191058D30F1F48091F8
S1133C709705833109F016C18091180190911901BB
S1133C809F938F9381E592E09F938F9382E695E0D3
S1133C909F938F930E94A5248DB79EB706960FB667
S1133CA0F8949EBF0FBE8DBFFDC0893059F488E1E2
S1133CB0A2E9B5E0E2E2F4E00D9001928A95E1F721
S1133CC0892FE3C08E3029F0843019F0853009F053
S1133CD0E9C0E091A603F091A70380917E0380835D
S1133CE0E091A603F091A703809191058183E0916F
S1133CF0A603F091A703809120049091210482836C
S1133D0093838091990590919A05848395838091FA
S1133D109B0590919C058683978380919D05909146
S1133D209E058087918780919F059091A005828749
S1133D3093878091A1059091A205848795878091AE
S1133D40A3059091A4058687978780918603825F57
S1133D508093860380911801909119019F938F930A
S1133D6088E692E09F938F9382E695E09F938F93EA
S1133D700E94A5248DB79EB706960FB6F8949EBFF1
S1133D800FBE8DBF81C0913019F09A3009F08AC0FE
S1133D9080911204281709F07BC01092AA024E37B2
S1133DA009F07EC082E080938603E091A603F0913F
S1133DB0A70380917E038083E091A603F091A7037B
S1133DC0809191058183809191058D3009F03FC0E8
S1133DD01092B9028FEF80938203809197059927FF
S1133DE09F938F9380911801909119019F938F93C2
S1133DF082E892E09F938F9382E695E09F938F935E
S1133E000E94A5248DB79EB708960FB6F8949EBF5E
S1133E100FBE8DBF90919705903F19F41092BE028A
S1133E2016C0809199058A3029F480919A058A3ABE
S1133E3039F00AC08A3A41F480919A058A3021F413
S1133E4084E00E94110503C09F5F9093BE02E0913D
S1133E50A603F091A7038091980582832091A6037D
S1133E603091A703809198059927AC0169E975E021
S1133E70C90103960E949524809186039091980528
S1133E80890F8F5F8093860387E00E948D000AC0AC
S1133E909927029733278217930724F44E3711F496
S1133EA01092AA028091AB02813610F01092AA02FD
S1133EB0FF91EF91BF91AF919F918F917F916F91FE
S1133EC05F914F913F912F910F900FBE0F901F90D4
S1133ED0189578941F920F920FB60F9211242F9376
S1133EE03F934F935F936F937F938F939F93AF937E
S1133EF0BF93EF93FF938091AE029091AF0201962E
S1133F009093AF028093AE028036910520F0109218
S1133F10AF021092AE028091AC029091AD02803655
S1133F20910520F01092AD021092AC02E091AE0225
S1133F30F091AF028091AC029091AD02E817F907BD
S1133F4031F0E655FC4F80810E94E20602C01092D7
S1133F50B002FF91EF91BF91AF919F918F917F91AB
S1133F606F915F914F913F912F910F900FBE0F90E2
S1133F701F90189578941F920F920FB60F921124E8
S1133F802F933F934F935F936F937F938F939F935D
S1133F90AF93BF93CF93EF93FF9387B78F7E87BF82
S1133FA078948FB7F894C82F80919C0690919D06C1
S1133FB0A0919E06B0919F060097A105B10509F056
S1133FC054C080919B0290919C028430910549F1E8
S1133FD08530910518F4039721F035C0079741F116
S1133FE032C080B39927689415F8969587951694EE
S1133FF0E1F780FF13C084E090E090939C028093EB
S11340009B020E94BD01DC01CB0127E030E040E0CF
S113401050E0BC01CD010E941A0815C00E94380866
S113402012C00E946F09882371F40E94040A0BC015
S113403081E090E090939C0280939B021092A302F3
S113404089E10E948D008091A1029091A2020197C2
S113405071F482E090E09093A2028093A102DE9832
S1134060DE9A80E00E944C0902C00E946C07CFBF18
S1134070FF91EF91CF91BF91AF919F918F917F91DC
S11340806F915F914F913F912F910F900FBE0F90C1
S11340901F90189578941F920F920FB60F921124C7
S11340A00F900FBE0F901F90189578941F920F9247
S11340B00FB60F9211240F900FBE0F901F901895FA
S11340C078941F920F920FB60F9211241F932F937F
S11340D03F934F935F936F937F938F939F93AF938C
S11340E0BF93CF93DF93EF93FF93CCB5DDB580E21D
S11340F086BF8FB7F894182F80919B0290919C02F1
S11341008530910519F0069739F157C080E00E9477
S11341106F0882E00E947E0987B78F7E87BF86E0A2
S113412090E090939C0280939B02E0913C04F09178
S11341303D048181992787709070019721F4C5A768
S11341408D2F992784A780B3992724E09695879586
S11341502A95E1F780FD77C081E00E946F08E09125
S11341603C04F0913D04818185FF13C087E090E019
S113417090939C0280939B020E94BD01DC01CB01C1
S113418020E830E040E050E0BC01CD010E941A0874
S11341900BC081E090E090939C0280939B0210926C
S11341A0A30289E10E948D0080B39927B4E096951B
S11341B08795BA95E1F780FF46C080919A028823DB
S11341C051F50E946F084091F2054830A0F48091A7
S11341D08205840F912D911D9C01887F9370281B6B
S11341E0E22FFF27EE0FFF1FE85FF84FC083D18354
S11341F04F5F4093F20581E080939A02D0937C064E
S1134200C0937B0680B39927A4E096958795AA95D9
S1134210E1F780FD18C080919A028823A1F081E023
S11342200E946F0810929A0280917B0690917C06FE
S1134230C81BD90B2A9738F48091F205882319F00A
S113424081508093F2051FBFFF91EF91DF91CF91D1
S1134250BF91AF919F918F917F916F915F914F919A
S11342603F912F911F910F900FBE0F901F901895A3
S113427078941F920F920FB60F9211242F933F93AD
S11342808F939F938FB7F894282F33278091A3039C
S11342909091A40301969093A4038093A3032FBF4A
S11342A09F918F913F912F910F900FBE0F901F9070
S11342B018951F920F920FB60F921124EF92FF924E
S11342C00F931F932F933F934F935F936F937F931A
S11342D08F939F93AF93BF93CF93DF93EF93FF930A
S11342E08FB1282F3327E0918003F0918103309719
S11342F039F08091A8039091A903E80FF91F208356
S11343008091A8039091A90301969093A9038093A7
S1134310A80380E00E94C1082091A8033091A9035A
S113432080910706909108062817390718F40E940F
S11343302F0A35C1E0908003F0908103109281032D
S11343401092800310928804109287041092080639
S1134350109207061092A9031092A8038FB18091BE
S11343603806909139062091380686FFD3C02F7BFA
S1134370822F99278E33910509F411C1CF9709F043
S11343800EC1C091E902D091EA0218818091100413
S1134390909111048230910521F0039709F444C0EF
S11343A0B4C083E090E09093110480931004412FF3
S11343B055279A012F5F3F4F60918303862F9927DA
S11343C0821793077CF40E948305C09AC09888E002
S11343D00E94820888E00E948208C09A83E00E94BA
S11343E07E0990C080E090E0B79B02C081E090E03D
S11343F0892B69F481B1992776E0969587957A950A
S1134400E1F780FD04C0611B61506093830319329E
S113441020F4BE016F5F7F4F02C060E070E080E077
S113442090E00E949D0ABBC0C09A83E00E947E096E
S11344308091F205882309F11B3028F180918205CF
S1134440E82FFF27EE0FFF1FE85FF84F808191816F
S11344508DA7892F99278CA780918205992701968A
S11344609C01287F3170821B930B8093820580917D
S1134470F20581508093F20506C08FEF9FEF8DA760
S11344808FEF90E08CA7FE01E10FF11D808187FF83
S113449039C0EF28B9F169816770E091E902F091C0
S11344A0EA02623049F5A0913C04B0913D042081B8
S11344B080919B0290919C02079721F5ED019B81CD
S11344C083818917F9F487B78F7E87BF81E08BA733
S11344D0E20FF11D8291319688A780818F7789A799
S11344E081E090E090939C0280939B021092A3023F
S11344F089E10E948D0006C0613021F48EE10E94A2
S11345008D004DC00E94E40A4AC0C09A83E00E9414
S11345107E0945C02E3309F042C0C09A80919B02A7
S113452090919C02089739F481E090E090939C026A
S113453080939B0234C080918504882349F484E0ED
S113454090E090939C0280939B020E94040A27C0EF
S113455082E00E947E0983E090E090939C02809325
S11345609B020E94C200DC01CB018F719070019606
S11345709C0143E0220F331F4A95E1F7280F391FAE
S1134580280F391F7901002711270E94BD01DC0182
S1134590CB01A8019701BC01CD010E941A08FF912B
S11345A0EF91DF91CF91BF91AF919F918F917F91C7
S11345B06F915F914F913F912F911F910F91FF90B8
S11345C0EF900F900FBE0F901F901895A0E3B0E0EE
S11345D0ECEEF2E20C94ED29222E332E442E552ECD
S11345E0662E772E882E992E2A2D3B2DA8E0FE01CB
S11345F03196AA2E1192AA94E9F729823A824B8223
S11346005C826D827E828F829886FE013996BA2EF4
S11346101192BA94E9F729873A87CB86DC86ED862E
S1134620FE860F87188BFE0171961192AA95E9F701
S1134630C980DA80EB80FC80C9A6DAA6EBA6FCA6CA
S1134640870176018FEF9FEFA0E0B0E0E822F92226
S11346500A231B23A9A4BAA4CBA4DCA416014424D2
S1134660552489859A85AB85BC858DA79EA7AFA760
S1134670B8AB5C016D018FEF9FEFA0E0B0E0A82222
S1134680B922CA22DB228DA59EA5AFA5B8A93D01FA
S113469088249924C801B701A60195010E94CE2956
S11346A069A37AA38BA39CA3C801B701A4019301B6
S11346B00E94CE296DA37EA38FA398A7C201B10146
S11346C0A60195010E94CE297B018C01C201B10192
S11346D0A40193010E94CE299B01AC01A9A0BAA018
S11346E0CBA0DCA0C601AA27BB27ADA0BEA0CFA04B
S11346F0D8A4A80EB91ECA1EDB1EAE0CBF1CC01E59
S1134700D11EADA2BEA2CFA2D8A6AE14BF04C006CD
S1134710D10620F4205030404F4F5F4FCDA0DEA093
S1134720EFA0F8A4C701AA27BB27820F931FA41FD9
S1134730B51F8D8F9E8FAF8FB8A3A6013327222775
S113474089A19AA1ABA1BCA1A070B070280F391F98
S11347504A1F5B1F298F3A8F4B8F5C8FA98CBA8CB1
S1134760CB8CDC8CED8CFE8C0F8D18A1ED8AFE8A2F
S11347700F8B188F2D853E854F85588969A57AA59D
S11347808BA59CA50E94CE293B014C018D819E8165
S1134790AF81B885BC01CD012DA53EA54FA558A973
S11347A00E94CE29DC01CB01680E791E8A1E9B1E55
S11347B08D899E89AF89B88D860D971DA81DB91D59
S11347C08D8B9E8BAF8BB88F6D897E898F89988DE9
S11347D02A2D3B2D4C2D5D2DE2E1E0960C94092A07
S11347E08F929F92AF92BF92CF92DF92EF92FF92FD
S11347F00F93CF93DF93CDB7DEB768970FB6F894D6
S1134800DEBF0FBECDBFE82E002349F4298B3A8BBF
S11348104B8B5C8B6D8B7E8B8F8B988F6CC088E001
S1134820FE01319611928A95E9F729833A834B83E5
S11348305C836D837E83EF82988740E2401B14166D
S11348400CF041C08D819E81AF81B8856C017D01E2
S113485004C0CC0CDD1CEE1CFF1C4A95D2F7202FA3
S1134860332727FD3095022E04C0B695A79597955A
S113487087950A94D2F78D879E87AF87B88B8981F5
S11348809A81AB81BC8104C0B695A795979587950D
S11348902A95D2F78C299D29AE29BF2989879A8721
S11348A0AB87BC8729853A854B855C856D857E857C
S11348B08F859889298B3A8B4B8B5C8B6D8B7E8B88
S11348C08F8B988F18C01D861E861F86188A842F8A
S11348D0992787FD909522273327281B390B8D8133
S11348E09E81AF81B88504C0B695A79597958795A5
S11348F02A95D2F7D3CF29893A894B895C896D8966
S11349007E898F89988D68960FB6F894DEBF0FBEA6
S1134910CDBFDF91CF910F91FF90EF90DF90CF90BB
S1134920BF90AF909F908F900895FB01DC0102C06F
S113493001900D9241505040D8F70895DC0101C018
S11349406D9341505040E0F708950F931F93CF9318
S1134950DF93CDB7DEB72C970FB6F894DEBF0FBE4A
S1134960CDBF0B891C892D893E8946E04C83098380
S11349701A838FEF9FE78D839E83AE01495E5F4F5D
S1134980B901CE0101960E94D524EF81F885E00F8C
S1134990F11F10822C960FB6F894DEBF0FBECDBF68
S11349A0DF91CF911F910F9108952F923F924F92D3
S11349B05F926F927F928F929F92AF92BF92CF92AB
S11349C0DF92EF92FF920F931F93CF93DF93CDB7B4
S11349D0DEB762970FB6F894DEBF0FBECDBFEE24EC
S11349E0FF2487011C016D877E872A01CC24DD24E6
S11349F0FC01C682D782838181FD80C28FEF9FEF45
S1134A0090C28D859E8501968D879E87C0FE63C268
S1134A108F8580538A30D0F49F85903339F4662093
S1134A2029F4C3FC03C0E0E0F1E093C08AE0689E8F
S1134A30602C1124FF856F0E20ED620E67FE02C00C
S1134A40EFE76E2EC3FC5AC2762C58C2960173E06F
S1134A50369527957A95E1F720FF04C0662011F476
S1134A6061E0662E4F85842F992787FD90958836BF
S1134A7091058CF5853691050CF06EC08335910552
S1134A8009F493C084359105CCF48B32910509F473
S1134A9049C08C3291054CF48032910509F446C02A
S1134AA08332910509F44AC010C28D32910509F48C
S1134AB040C08E32910509F444C007C28336910583
S1134AC009F450C0843691050CF08AC088359105EC
S1134AD009F4BCC0FAC18037910509F4B1C081372B
S1134AE0910584F48C36910591F18D3691052CF461
S1134AF08936910509F474C0E8C18F36910509F42B
S1134B009CC0E3C18537910509F4A2C0863791059D
S1134B1024F48337910571F1D8C18837910509F4DC
S1134B2095C0D3C180E190E0C82AD92AE0E2F0E040
S1134B3010C080E890E0C82AD92AE0C1E0E4F0E09F
S1134B4008C088E090E0C82AD92A6624D7C1E4E0E6
S1134B50F0E0CE2ADF2AD2C15FE3E52E7A94F3E6B1
S1134B60FF8744C1F20182E090E0480E591EE080C4
S1134B707A943CC1F20182E090E0480E591EA08173
S1134B80B1817D0120FF09C0862D992787FD90956D
S1134B90BC01CD010E94E6271FC0FD010190002049
S1134BA0E9F73197EA1BE88B18C0F20182E090E044
S1134BB0480E591E0190F081E02D7F0120FF09C0AD
S1134BC0862D992787FD9095BC01CF010E94F1277E
S1134BD003C0CF010E94DD27888B9889791A06C10A
S1134BE0C2FE0AC0F20184E090E0480E591E208102
S1134BF03181428153810CC0F20182E090E0480E81
S1134C00591E808191819C01442737FD4095542F82
S1134C1079018A0157FF0CC0E2E0F0E0CE2ADF2AD6
S1134C2010950095F094E094E11CF11C011D111DF8
S1134C308FEB9FEFC822D92227C098E0988B08C039
S1134C40E0E4F0E0CE2ADF2AF8E7FF8720E1288BB2
S1134C50C2FE0AC0F20184E090E0480E591E208191
S1134C603181428153810AC0F20182E090E0480E12
S1134C70591E808191819C014427552779018A011D
S1134C80EFECFFEFCE22DF22CE010196898B9A8BC7
S1134C909889892E9924AA24BB24C801B701A501A7
S1134CA094010E94AC29DC01CB01E989FA89808353
S1134CB08A3024F0FF858F0F815201C0805DE9891D
S1134CC0FA898193E98BFA8BC801B701A501940194
S1134CD00E94AC2979018A0121153105410551054C
S1134CE0E1F6E98881E090E08C0F9D1FE81AC60187
S1134CF082739070892B09F07A94C6FE0DC0872DBB
S1134D00992787FD9095E889E03121F44EEF742EC0
S1134D10780E02C0782E7A94C3FE0FC0262D332756
S1134D2027FD30958E2D9927821793072CF087EF56
S1134D309FEFC822D92201C06E18560133E0B69401
S1134D40A7943A95E1F7A0FE02C0761801C07E1838
S1134D50C60180789170892B51F4872D7A941816A6
S1134D6034F4B10180E290E00E94AA27F6CFC1FE9C
S1134D7004C0B1018DE290E00BC0C4FE04C0B101D7
S1134D808BE290E005C0C5FE05C0B10180E290E071
S1134D900E94AA27C6FE10C0B10180E390E00E94E1
S1134DA0AA279889903141F4B101EF858E2F992774
S1134DB087FD90950E94AA278D2D992780FF0AC010
S1134DC0872D7A94181634F4B10180E390E00E94A0
S1134DD0AA27F6CFA0FE0AC0862D6A94181634F4CA
S1134DE0B10180E390E00E94AA27F6CF5601AA0CF5
S1134DF0AB2CAA1CBB08B194A0FC0AC0872D7A94E2
S1134E00181634F4B10180E290E00E94AA27F6CF8C
S1134E10FF85F33641F48E2DB101992787FD9095D6
S1134E200E94AA2746C02F852337B9F448894150E8
S1134E30488B4F3F09F43DC0F70180810894E11C81
S1134E40F11CB101992787FD90950E94AA278889B2
S1134E508150888B8F3F81F72CC09F859335A1F4B7
S1134E60E889E150E88BEF3F21F1F7018491B1012A
S1134E7099270E94AA270894E11CF11CF889F15093
S1134E80F88BFF3F91F715C06E010894C11CD11C2B
S1134E9089899A898C159D0561F0E989FA8982913D
S1134EA0E98BFA8BB101992787FD90950E94AA2777
S1134EB0EFCFA0FE0DC0872D7A9418164CF4B101E3
S1134EC080E290E00E94AA27F6CFB1010E94AA27AF
S1134ED0CC24DD2413C09F85953241F481E0C82E93
S1134EE0D12C6624762CEAE0E88B08C0B101FF855A
S1134EF08F2F992787FD90950E94AA27F10183811E
S1134F0083FF04C0ED85FE85F49103C0ED85FE8525
S1134F10F081FF872F85222309F073CDF10186816B
S1134F20978162960FB6F894DEBF0FBECDBFDF91B6
S1134F30CF911F910F91FF90EF90DF90CF90BF9092
S1134F40AF909F908F907F906F905F904F903F9025
S1134F502F9008950F931F93CF93DF938C01EB0150
S1134F608B81992781FF22C082FF14C02E813F814B
S1134F708C819D81281739073CF4E881F9810193DC
S1134F80E883F9832E813F812F5F3F4F2E833F8338
S1134F90C8010EC0E885F985802F0995892B31F465
S1134FA0AE81BF811196AE83BF83F2CF8FEF9FEFA7
S1134FB0DF91CF911F910F910895FC01059000207E
S1134FC0E9F7809590958E0F9F1F0895FC0161501D
S1134FD0704001900110D8F7809590958E0F9F1F17
S1134FE00895FC016150704005900110D8F7809538
S1134FF090958E0F9F1F08955058192EF7D001D009
S1135000DAC0BA176207730784079507B1F188F409
S11350100EF410940B2EBA2FA02D062E622F202DE5
S1135020072E732F302D082E842F402D092E952FF7
S1135030502DFF275523B9F0591B49F0573E98F0DE
S1135040469537952795A795F0405395C9F776F07F
S1135050BA0F621F731F841F30F487957795679585
S1135060B795F040939517FA0F2E0895BF1BBB27F1
S1135070BA0B620B730B840BF6CFDEF6D4C0592F38
S1135080482F372F262F9FE380E877276627AED057
S113509001D091C0552359F0992369F09F575F5768
S11350A0951B33F442F4903811F4915805C09BC019
S11350B091589F3F09F4B7C0BB27112462177307A7
S11350C0840730F4660F771F881FBB1F915098F335
S11350D011D00F920FD00F920DD0A0E826173707EA
S11350E048071B0609F0A048BA2F602D7F918F91C5
S11350F000240895A0E80024621773078407B1050B
S113510028F0621B730B840BB1090A2A660F771F00
S1135110881FBB1FA69581F7089597FB73D09F370F
S113512038F0FEE9F91B982F872F762F6B2F05C0D7
S113513077C09695879577956795F150D0F73EF4AB
S113514090958095709561957F4F8F4F9F4F0895EF
S1135150E89403C097FB0EF4F3DFB62F672F782F84
S1135160892F9EE9002427C00ED05EF004C00BD026
S113517026F001C008D019F020F48FEF089580E0E4
S1135180089581E0089597FB092E052600F8689498
S113519030D0E89407FC07C06217730784079507AB
S11351A021F008F400940794989408959A95BB0FFD
S11351B0661F771F881F11249923A1F08823B2F753
S11351C09F3F59F0BB0F48F421F4002011F460FF15
S11351D004C06F5F7F4F8F4F9F4F881F97958795B0
S11351E097F908951DC09FEF80EC0895052E0926B8
S11351F007FA440F551F5F3F79F0AA27A51708F057
S113520051E04795880F991F9F3F31F0BB27B9178D
S113521008F091E0879508959F919F911124E3CF21
S113522066277727882799270895592F482F372FDE
S1135230262FDCDF01D0BFCF992339F0552329F085
S11352409F575F57950F13F4CAF1EDCF91589F3FC5
S1135250E1F3A62F00241124BB2766275527F8E085
S1135260A69520F4020E131EB41F651F220F331FD0
S1135270441F551FFA95A1F7F8E0E72F7727F8E0C8
S1135280E69520F4130EB41F651F7A1F330F441FD5
S1135290551FAA1FFA95A1F7F82F8827F69520F431
S11352A0B40F651F7A1F8E1F440F551FAA1FEE1FD0
S11352B0FF23A1F788231AF4939539F494CF000CB3
S11352C0111CBB1F661F771F881F0128089597FDB7
S11352D08ACF482F9923F9F195DFF92FFF57F595D8
S11352E09F1B9F1BFF9340584795332722274068F5
S11352F05FE7E894FF92EF92DF92CF92BF92AF9272
S11353009F928F92C92ED82EE72EF62E6F2D7E2DCA
S11353108D2D9C2D852E942EA32EB22EBBDE582DC2
S1135320492D3A2D2B2D11246CDE9A95592F482F97
S1135330372F262FB216A3069406850639F78F90C9
S11353409F90AF90BF90CF90DF90EF90FF900F9021
S1135350900D002430CF0895A1E21A2EAA1BBB1B86
S1135360FD010DC0AA1FBB1FEE1FFF1FA217B3072D
S1135370E407F50720F0A21BB30BE40BF50B661F43
S1135380771F881F991F1A9469F760957095809507
S113539090959B01AC01BD01CF010895629FD0019E
S11353A0739FF001829FE00DF11D649FE00DF11DDC
S11353B0929FF00D839FF00D749FF00D659FF00D8B
S11353C09927729FB00DE11DF91F639FB00DE11D78
S11353D0F91FBD01CF01112408952F923F924F92DE
S11353E05F926F927F928F929F92AF92BF92CF9271
S11353F0DF92EF92FF920F931F93CF93DF93CDB77A
S1135400DEB7CA1BDB0B0FB6F894DEBF0FBECDBFF1
S113541009942A88398848885F846E847D848C84C2
S11354209B84AA84B984C884DF80EE80FD800C81CB
S11354301B81AA81B981CE0FD11D0FB6F894DEBFAE
S10B54400FBECDBFED0108957C
S11354480100FFFFFFFF22001A010304FFFF01FF11
S1135458FFFFFFFFFFFFFF02010054454D500048C6
S1135468554D494400555265640053454E44005215
S11354784543454956450025357320415647205331
S11354887444657620002534752025347520253626
S113549875005052494F524954593A0025397320DE
S11354A82536750052454345495645205041434BDE
S11354B845543A0025313673002533752025337554
S11354C8202533752025337500256420433332386D
S11354D85F52657365745F54696D65723A25640D2E
S11354E80A002564206D79417070547970653A25F5
S11354F8582C206D794F7074547970653A25580D7D
S11355080A0025642067657453466972655F423AE8
S113551825640D0A0025642067657453466972651D
S11355285F4C3A25582C205365713A25640D0A00BE
S113553825642067657453466972655F533A256428
S11355480D0A00256420522D476574532D434D449C
S11355585B25645D0D0A00256420522D53432D43B9
S11355684D442121205B25642C2025642C202564AE
S11355785D0D0A00256420522D4F432D434D4421CF
S113558821205B25642C2025642C2025645D0D0ACC
S1135598002564207265637620535542434D443197
S11355A85F4641494C0D0A002564207265637620E4
S11355B870617273696E675F636F6E74726F6C0D7E
S11355C80A0025642070617273696E675F6C6F6E80
S10D55D86744543A25640D0A0000EC
S9030000FC
