S01900006275696C642F7A69676265782F6D61696E2E737265636F
S11300000C946B000C94F61B0C94001C0C94281C90
S11300100C94321C0C943C1C0C94461C0C94501CE8
S11300200C94801C0C9488000C9488000C943B2045
S11300300C94961F0C9425200C9413210C94741B7F
S11300400C94B41B0C9434210C94EF1C0C94880075
S11300500C94FD1C0C948A1C0C9488000C9488004D
S11300600C9430200C9488000C9488000C94880024
S11300700C9488000C9488000C944E1D0C948800F9
S11300800C94451F0C9488000C9488001F11601177
S11300909211E71103121A123612B112C212061388
S11300A0291398193613C3139714D51409151B155E
S11300B02D1597159E15A415D5153A1669168C1687
S11300C0A716AC16AE16B616BD16D616E516A317A9
S11300D000081C18141011241FBECFEFD0E1DEBF9E
S11300E0CDBF12E0A0E0B1E0ECE4F4E500E00BBF2A
S11300F002C007900D92A236B107D9F716E0A2E626
S1130100B2E001C01D92A43CB107E1F70C94DC19E4
S11301100C9400008FB7F894992708958FBF089521
S1130120982F8FB7F894282FE92FFF27E95AF94F12
S113013080818F3FB1F480917C06891791F0809182
S113014050068F3F19F49093500607C080917C06A7
S1130150E82FFF27E95AF94F908390937C0680E0BB
S113016001C085E02FBF99270895EF920F931F9345
S1130170AE2D99E0899FF0011124EF54FD4F408387
S11301805183628373830483158326833783A17029
S113019080858E7F8A2B8260808782E00E94900017
S11301A01F910F91EF900895CF93DF938FB7F89439
S11301B0682F7727A0914A05B0914B05C0914C0553
S11301C0D0914D0582B706B600FE04C01196C11D3C
S11301D0D11D82B7282F33274427552788279A2FE4
S11301E0AB2FBC2F822B932BA42BB52B6FBFBC0141
S11301F0CD01DF91CF910895AF92BF92CF92DF925C
S1130200EF920F931F935B016C010E94D400DC01F9
S1130210CB0121E0E22E96018501AC01BD0186E00F
S11302200E94B5001F910F91EF90DF90CF90BF9087
S1130230AF900895AF92BF92CF92DF92EF920F9357
S11302401F935B016C010E94D400DC01CB0131E0FF
S1130250E32E96018501AC01BD0184E00E94B50046
S11302601F910F91EF90DF90CF90BF90AF900895C2
S1130270AF92BF92CF92DF92EF920F931F935B01E5
S11302806C010E94D400DC01CB0141E0E42E960114
S11302908501AC01BD0185E00E94B5001F910F915D
S11302A0EF90DF90CF90BF90AF90089590913A0374
S11302B09923C1F4282F882309F421E084E0809352
S11302C04B04332788EE93E0B9010E948729CB01C0
S11302D0609363039927AA27BB27BC01CD010E9421
S11302E0FC0008959130C1F4282F882309F4292FA4
S11302F084E080934C04332788EE93E0B9010E9494
S11303008729CB01609364039927AA27BB27BC01E3
S1130310CD010E941A0108959230B9F4282F882340
S113032009F421E084E080934D04332788EE93E0C0
S1130330B9010E948729CB01609365039927AA27F5
S1130340BB27BC01CD010E9438010895882311F018
S11303506E9A08956E98089580916502882319F421
S113036080E090E0089581E090E008952F923F921C
S11303704F925F926F927F928F929F92AF92BF92B1
S1130380CF92DF92EF92FF920F931F93CF93DF935D
S1130390CDB7DEB72A970FB6F894DEBF0FBECDBF38
S11303A08FB7F894282F332729873A872090DA03C8
S11303B03090DB034090DC035090DD0366247EE440
S11303C0A72E63E8B62EC62CD62CE62CF62C062DCA
S11303D0162D222D332D442D552D662D762D862D4B
S11303E0962D0E94C12229833A834B835C836D83BB
S11303F07E838F839887822E932EA42EB52EC62EAD
S1130400D72EE82EF92E240135017694679457945B
S1130410479400E2282D392D4A2D5B2D6C2D7D2D1E
S11304208E2D9F2D0E94CB23A22EB32EC42ED52E0B
S1130430C601B501640D751D861D971D97FF05C086
S11304409F776F5F7F4F8F4F9F4F6093DA03709357
S1130450DB038093DC039093DD0339853FBF2A9649
S11304600FB6F894DEBF0FBECDBFDF91CF911F91C1
S11304700F91FF90EF90DF90CF90BF90AF909F903F
S11304808F907F906F905F904F903F902F90089542
S1130490FC01828599270895DC01FB01672B19F083
S11304A08C918C508083CD010B9608958FB7F8946E
S11304B0682F772780916103909162032CB53DB535
S11304C006B602FE03C001962CB53DB5AA27BB278C
S11304D044275527DC0199278827822B932BA42BAB
S11304E0B52B6FBFBC01CD010895282F8695869545
S11304F08695E82FFF27E959FC4F277081E090E0AB
S113050002C0880F991F2A95E2F720812823822FA1
S113051099270895FF920F931F93CF93DF93082F8A
S11305208FB7F894F82E80917902833009F054C083
S113053080910A01801709F04FC0809167038823D6
S113054009F03EC081E090E0892BE9F510917A0230
S1130550C12FDD272196C330D10511F4C0E0D0E0CE
S11305608C2F0E947502882381F4812F9927C81744
S1130570D90781F78FEF90E08093DA0481E08093CC
S1130580790285E10E94900024C08C2F869586957F
S11305908695E82FFF27E959FC4F2C2F277081E01F
S11305A090E002C0880F991F2A95E2F7982F909542
S11305B0808189238083C0937A028C2F9927DCCF92
S11305C080E090E0C1CF83E080930A011092790229
S11305D03798002309F4C698FFBE81E090E0DF91CC
S11305E0CF911F910F91FF9008951F93CF93DF93A5
S11305F0C82F8FB7F894282F3327122F80917902B0
S1130600882301F18C2F0E9475028823B1F48C2F6A
S1130610869586958695E82FFF27E959FC4FC77084
S113062081E090E002C0880F991FCA95E2F720810B
S1130630282B208380E090E002C085E090E01FBF7B
S1130640992719C081E080937902C093DA042FBFFF
S11306508FB7F8949927379A8FBF8FB7F894C82F1C
S1130660DD2780910A01833019F485E10E9490000E
S1130670CFBF80E090E0DF91CF911F91089520914A
S1130680BA05822F99278130910559F0823091055E
S11306901CF4009731F004C0029711F481E001C00A
S11306A08FE1582F822F99278130910541F08230B4
S11306B091051CF4892B19F004C0029711F428E069
S11306C001C020E033278FB7F894E82F8091790692
S11306D08E7F80937906322F27B160E070E0922FED
S11306E0929596959695937080E0891749F4852F95
S11306F08850863118F42F71521711F461E070E0BC
S1130700862F880F209179062D7F282B852F8F71B6
S1130710982F990F990F2378292B209379068062BB
S1130720992787B9406C21702295220F207E4F7D36
S1130730422B4861383059F580914E0590914F0510
S113074021E08638920718F087E090E01FC0833CD0
S1130750910518F086E090E019C08136910518F0F3
S113076085E090E013C08033910518F084E090E0B8
S11307700DC08831910518F083E090E007C00C9714
S113078018F082E090E002C080E090E0382F3770EB
S1130790487F432B842F992786B9EFBF0895AF92E2
S11307A0BF92CF92DF92EF920F931F935B016C0184
S11307B00E94D400DC01CB01F1E0EF2E960185010B
S11307C0AC01BD018BE00E94B5001F910F91EF9029
S11307D0DF90CF90BF90AF90089580E00E94F50223
S11307E09927089597E087FF02C0919A01C09198D4
S11307F0880F909A9098915097FFF5CF0895982F6D
S11308008FB7F894282F89B78D7F89BF82E088BF7E
S113081080916A00886080936A00992321F0809116
S11308206A00846003C080916A008B7F80936A00B1
S113083089B7826089BF2FBF80E090E008952F922E
S11308403F924F925F926F927F928F929F92AF925C
S1130850BF92CF92DF92EF92FF920F931F938B017F
S1130860882309F0DDC08FB7F89499277093B705F2
S11308706093B6058FBFE0904203F0904303CB0131
S1130880AA2797FDA095BA2FBC01CD010E94852807
S11308903B014C0117FF08C020E030E040E857E47A
S11308A00E94D8273B014C01C701AA2797FDA095B8
S11308B0BA2FBC01CD010E948528F7FE06C020E0B6
S11308C030E040E857E40E94D8272AE037ED43E2BD
S11308D05CE30E94F428DC01CB0120E030E040E23C
S11308E052E4BC01CD010E94D7271B012C0122EA4E
S11308F037EE4BE356EBC401B3010E94F428DC014C
S1130900CB01A4019301BC01CD010E94F4287B0119
S11309108C0124E533EE45E25DE3C401B3010E949A
S1130920F428DC01CB019C01AD01C801B7010E9490
S1130930D827DC01CB0120E030E040E850ECBC01DA
S1130940CD010E94D8275B016C0120E030E048EC27
S113095051E4C201B1010E94D7277B018C012CEA2A
S113096035EC47EA58E3C401B3010E94F428DC01E2
S1130970CB012AE037ED43E25CE3BC01CD010E94E8
S1130980D827DC01CB019C01AD01C801B7010E944D
S1130990F428DC01CB01A6019501BC01CD010E9424
S11309A0D8277B018C0120E030E048EC52E40E941F
S11309B09228181654F40F2EF0E0EF2EF0E0FF2EDC
S11309C0F8EC0F2FF2E41F2FF02D2DEC3CEC4CEC47
S11309D05DE3C801B7010E948F28882354F40F2EC9
S11309E0FDECEF2EFCECFF2EFCEC0F2FFDE31F2F94
S11309F0F02DC201B1010E946828DC01CB01909363
S1130A00510580935005C801B7010E946828DC0194
S1130A10CB01909346038093450382E00E94F50244
S1130A201F910F91FF90EF90DF90CF90BF90AF9008
S1130A309F908F907F906F905F904F903F902F90FA
S1130A400895982F8FB7F894282F3327422F809139
S1130A507D02882301F1E92FFF27EE57F94F8081AA
S1130A608F3FA1F4E0910C01E91781F080910D0111
S1130A708F3F19F490930D0104C0FF27EE57F94FEF
S1130A80908390930C0180E090E002C085E090E0B8
S1130A904FBF9927089541E040937D0290935A04F3
S1130AA02FBF80917C02882321F483E10E9490006F
S1130AB002C040937B0280E090E00895882359F4BB
S1130AC08FB7F894992770934303609342038FBFC1
S1130AD083E00E942105089530E0232F909A80B38B
S1130AE099279695879580FD3160273009F0330F5B
S1130AF090982F5F283090F3899A9198909A9098C3
S1130B008998919A832F99270895899A919A909A0E
S1130B1090980895AF92BF92CF92DF92EF92FF9296
S1130B200F931F93F82E5A016B010E94D400DC012D
S1130B30CB01EE2496018501AC01BD018F2D0E94ED
S1130B40B5001F910F91FF90EF90DF90CF90BF9071
S1130B50AF90089590912B06980F90933F039F3F79
S1130B6011F410923F0308958FB7F894282F332778
S1130B708BB392E089278BBB2FBF0895CF93982F17
S1130B808FB7F894C82F80917D028330A1F58091AE
S1130B900B01891781F520E030E080910D018F3F32
S1130BA011F421E030E0232BD9F48F3F81F0282F7A
S1130BB03327F901EE57F94F808180930D018F3F60
S1130BC011F480930C018FEF8083C90102C08FEF71
S1130BD090E080935A0481E080937D0282E109C011
S1130BE084E080930B0110927D0281E080937C026B
S1130BF084E10E949000CFBF81E090E0CF910895FE
S1130C0080E8809341031092B30510924905109235
S1130C107E060895AF92BF92CF92DF92EF92FF9239
S1130C200F931F93CF93DF930E94D400FC01EB0139
S1130C3020914704309148044091490450914A045A
S1130C407B018C01E21AF30A040B150B10924F047A
S1130C508091DE039091DF03A091E003B091E10362
S1130C60E816F9060A071B07C0F0EE24FF248701E3
S1130C70280F391F4A1F5B1F2093470430934804F1
S1130C804093490450934A04E092DE03F092DF0358
S1130C900093E0031093E10363C05C016D01AE189F
S1130CA0BF08C00AD10A8601750161E0A61661E099
S1130CB0B60660E0C60660E0D60690F080E0A816AE
S1130CC080E0B80681E0C80680E0D80610F08FEF17
S1130CD004C0BB27AD2D9C2D8B2D80934F0458C091
S1130CE061E8A616B104C104D10430F1C058DF4F45
S1130CF0EF4FFF4FC0934704D0934804E093490457
S1130D00F0934A04C058D040E040F04080E89FEFA0
S1130D10AFEFBFEFE80EF91E0A1F1B1FE092DE03C0
S1130D20F092DF030093E0031093E103B0E8EB2EAD
S1130D30F12C012D112D14C0280F391F4A1F5B1FE0
S1130D4020934704309348044093490450934A0441
S1130D501092DE031092DF031092E0031092E1037D
S1130D606E2D82B7282F8C1B8E5F8E1518F0622F84
S1130D706E5F01C06C0F662309F461E0615000B638
S1130D8001FCFDCF61BF82E086BF87B7826087BF69
S1130D90DF91CF911F910F91FF90EF90DF90CF9053
S1130DA0BF90AF9008950F931F93DC01CB016FB7F1
S1130DB0F894062F11278093470490934804A09336
S1130DC04904B0934A042093DE033093DF03409335
S1130DD0E0035093E1030E940A060FBF1F910F9195
S1130DE00895282F8FB7F89499272CB95E9A8FBF4E
S1130DF008959C0180916F02909170028F37910544
S1130E0020F01092700210926F026623E1F0D90173
S1130E1080916D0290916E028F37910520F01092AF
S1130E206E0210926D0280916D0290916E02FC012F
S1130E30E55AFB4F2D912083019690936E02809387
S1130E406D02615029F780917102882361F481E079
S1130E5080937102E0916F02F0917002E55AFB4FAA
S1130E6080810E94F1060895982F8FB7F894282F57
S1130E70332790939C0080919B00806480939B0017
S1130E802FBF08959C01809176029091770280365D
S1130E90910520F010927702109276026623E1F019
S1130EA0D90180917402909175028036910520F0E9
S1130EB010927502109274028091740290917502DE
S1130EC0FC01EC58FC4F2D91208301969093750200
S1130ED080937402615029F780917802882361F429
S1130EE081E080937802E0917602F0917702EC58E9
S1130EF0FC4F80810E9434070895CF93DF93D9017A
S1130F009EE7909349039093600329E030E0309387
S1130F104B0320934A03992790934D0380934C03EA
S1130F2060934E0340934F03E0E5F3E080E1EF016B
S1130F300D9009928A95E1F7379760913306CF01B6
S1130F400E944207DF91CF9108959EE79093490351
S1130F509093600322E030E030934B0320934A03E4
S1130F60992790934D0380934C0310924E03609104
S1130F70330689E493E00E9442070895AF92BF923A
S1130F80CF92DF92EF92FF920F931F93CF93DF9351
S1130F900E945602FC01EB018091E2039091E3036D
S1130FA0A091E403B091E503A0904B06B0904C06E9
S1130FB0C0904D06D0904E069C01AD012A0D3B1DFC
S1130FC04C1D5D1D79018A01EC1AFD0A0E0B1F0BE5
S1130FD0C817D907EA07FB0730F0281739074A076B
S1130FE05B0770F005C0281739074A075B0728F428
S1130FF0C217D307E407F50718F0EE24FF2487018E
S113100021E0E21620E8F20620E0020720E01207C1
S113101030F1C050D048EF4FFF4FC093E203D0935C
S1131020E303E093E403F093E503C050D048E040C9
S1131030F04080E090E8AFEFBFEFE80EF91E0A1F22
S11310401B1FE0924B06F0924C0600934D06109342
S11310504E06E12C10E8F12E012D112D14C08A0D3D
S11310609B1DAC1DBD1D8093E2039093E303A093ED
S1131070E403B093E50310924B0610924C061092D1
S11310804D0610924E06B7012CB53DB5C9018C1B17
S11310909D0B03968E159F0520F0B9016D5F7F4F60
S11310A002C06C0F7D1F6115710511F461E070E0E1
S11310B0615070407BBD6ABD80E186BF87B78061A7
S11310C087BFDF91CF911F910F91FF90EF90DF9039
S11310D0CF90BF90AF9008950F931F93DC01CB0185
S11310E06FB7F894062F11278093E2039093E303DC
S11310F0A093E403B093E50320934B0630934C068E
S113110040934D0650934E060E94BE070FBF1F9199
S11311100F910895EF92FF920F931F93CF938FB780
S1131120F894C82F0E94B601DC01CB019C01277002
S113113030702F5F3F4FC1F0C90103E0880F991F42
S11311400A95E1F7820F931F820F931F7C010027FA
S113115011270E945602DC01CB01A8019701BC01B2
S1131160CD010E946C0806C081E090E09093640277
S113117080936302CFBFCF911F910F91FF90EF90A7
S1131180089597B79F7D97BF90E296BF882319F083
S11311908EB5806402C08EB58F7B8EBD87B78062AA
S11311A087BF80E090E008958FB9779BFECF8FB121
S11311B0992708950F931F938B010E94D408812FC0
S11311C099270E94D408802F0E94D40899271F9140
S11311D00F910895DF92EF92FF920F931F93CF9395
S11311E07A01C22FDD248C01060F111D802F806827
S11311F00E94D40816950795802F807C0E94D408FD
S1131200CC2341F0F70181917F010E94D408D82EAC
S1131210C150F6CF8D2D9927CF911F910F91FF903B
S1131220EF90DF900895882311F06F9A08956F98D6
S113123008951F9310E0812F0E94A601BA9ABB98CB
S1131240B99AB89A6C9AC098812F0E941309709A1F
S11312506B986A98689881E00E94A6011F9108958E
S11312600F931F93CF93082F8FB7F894282F33270A
S1131270122F80916702882321F02FBF85E090E030
S113128021C090916502992341F482E08093650224
S11312909093020180E090E002C081E090E0992701
S11312A0C82F882311F40E9419098C2F9927282FFD
S11312B0882329F40093050181E0809367021FBF0E
S11312C0822F9927CF911F910F910895CF93C82F03
S11312D00E94AC01882311F40E94190980916502CF
S11312E0882359F481E080936502C093B50580E2B8
S11312F00E94900080E090E01EC0EC2FFF27E45C89
S1131300FC4F80818F3FA1F4E0910301EC1781F041
S1131310809104018F3F19F4C093040104C0FF2796
S1131320E45CFC4FC083C093030180E090E002C002
S113133085E090E099279927CF910895CF93282F9E
S11313408FB7F894C82F90916702992369F081E0D0
S113135090E002C0880F991F2A95E2F72091660257
S1131360282B2093660208C02093050181E0809316
S11313706702892F0E946609CFBF80E090E0CF9179
S11313800895CF9382E00E9430099927C82F8823BB
S113139019F082E00E949E098C2F9927CF9108951D
S11313A01F93CF93DF93982F8FB7F894282F332769
S11313B0122F80910501891721F02FBF81E090E061
S11313C071C04FEF4093050180916502823009F0AE
S11313D03FC0909102019923D9F520E030E080913B
S11313E00401841711F421E030E0232B69F58F3FC9
S11313F079F0282F3327F901E45CFC4F8081809336
S113140004018F3F11F4409303014083C90102C0DA
S11314108FEF90E08093B50581E08093650280E2D0
S11314200E94900015C02093050181E090E002C065
S1131430880F991F4A95E2F7809538233093660206
S113144080E00E9466092BC04093020190936502DC
S11314500E94AC01C82FDD27CC2331F48C2F0E94CD
S1131460A601C0937D06C09A309166023323A9F089
S1131470209105012F5F632F7727243008F020E0A7
S1131480422F5527CB01042E02C0959587950A94C7
S1131490E2F780FDC8CF2F5FF0CF109267021FBF25
S11314A080E090E0DF91CF911F910895CF93C1E048
S11314B0C09880914E04882311F085E001C084E037
S11314C00E94D40883FD05C080E00E94D40883FDF7
S11314D0C0E08FB7F894CC2319F023E030E002C0C9
S11314E025E030E030936402209363028FBFC09AFA
S11314F0CC2329F082E00E94D0090E948A08CF916F
S113150008958F929F92AF92BF92CF92DF92EF9203
S1131510FF920F931F93CF93DF938FB7F894C090EC
S11315205004D090510480903D0390903E03C091AC
S11315306A03D0916B03AE01465F5F4F2091B805FB
S11315403091B9052417350708F09A018FBF590166
S11315500894A108B108CA15DB05E8F47E01E80C7B
S1131560F91C8E010C0D1D1DC114D10419F0F801D4
S1131570808101C080E00E94D4088114910411F09C
S1131580F701808321960F5F1F4F0894E11CF11C23
S1131590CA15DB0548F381E00E9413098FB7F8945C
S11315A0982FC114D10431F0CC0EDD1EF6018081D8
S11315B08FB901C01FB8D0936B03C0936A039FBF58
S11315C080E090E0DF91CF911F910F91FF90EF9019
S11315D0DF90CF90BF90AF909F908F9008959C0123
S11315E08FB7F89499273093510420935004709343
S11315F03E0360933D035093B9054093B8051092A0
S11316006B0310926A038FBF8FB10E94810A9927DE
S113161008950F931F93C0980091AF021091B002E8
S11316208FE790E09093EA058093E9058091E905BE
S11316300E94D40841E050E0B80180E090E00E94AC
S1131640EF0A1F910F91089582E090E09093D803E0
S11316508093D70383E00E943009882319F40E9401
S1131660090B089583E00E949E090895CF938FB7D4
S1131670F894282F3327C22F8091D7039091D80351
S1131680892B11F42FBF26C020917E06222341F01E
S113169080E090E0B79B02C081E090E0892B49F4A0
S11316A081B1992736E0969587953A95E1F780FDC3
S11316B008C0222319F0215020937E060E94240B97
S11316C008C081E090E09093D8038093D7031092F0
S11316D07E06CFBFCF9108951F93CF93DF93C09120
S11316E00204D09103048FA19927182F882309F4A9
S11316F01FE1C09880914F06811741F0812F9927EF
S1131700806E9068BC0185E10E94DA0810934F0650
S1131710188111508EE390E09093EA058093E905D7
S11317208091E9050E94D408812F9927AC0160E0DB
S113173070E0CE010E94EF0ADF91CF911F910895CE
S1131740CF93DF93DA01EA018A876E83872F992783
S11317508F8382E290E08C8360E070E06D83245F8D
S11317608FB7F894482F552780916C02833021F06D
S11317704FBF81E090E059C085E080936C02B09344
S11317807B06A0937A0680912E068F5F80932E06A7
S1131790FD0183834FBF2193ED01898199278072D5
S11317A090708983892F992781839927982F882777
S11317B029813327822B932B816498688983892F0D
S11317C09927818380910001909101018887892F55
S11317D0992789876BA768A769A71DA66CA740915D
S11317E07A0650917B068FB7F894282F332780917F
S11317F0630290916402019711F02FBF14C082E03C
S113180090E0909364028093630281E080934E049D
S113181050930304409302042FBF0E94C1098823FC
S113182011F40E946C0B80E090E09927DF91CF9136
S113183008952F923F924F925F926F927F928F9270
S11318409F92AF92BF92CF92DF92EF92FF920F934B
S11318501F93CF93DF93CDB7DEB726970FB6F894D7
S1131860DEBF0FBECDBF4C01C401AA2797FDA095D2
S1131870BA2F89839A83AB83BC83BC01CD010E94B8
S113188085282B013C0197FE08C020E030E040E8A9
S113189057E40E94D8272B013C0180913A03082F7A
S11318A011271801220C331C220C331C3FE9A32EF0
S11318B032E0B32EA20CB31CD501CD90DD90ED9097
S11318C0FC90A7019601C301B2010E94D7272B0106
S11318D03C01F801E555FD4F10811F5F1083E12F96
S11318E0FF27ED83FE83CF01AA2797FDA095BA2F8A
S11318F0BC01CD010E948528DC01CB019C01AD0116
S1131900C301B2010E942228DC01CB019C01AD017C
S1131910C701B6010E94D8276B017C01D5016D93E4
S11319207D938D939C931397113009F45CC0698166
S11319307A818B819C810E94852897FE06C020E0D5
S113194030E040E857E40E94D827A70196010E949E
S1131950D727DC01CB0127E8C22E22E0D22EC20C0D
S1131960D31C9C01AD01C301B2010E94F428DC0127
S1131970CB01F601E080F180028113819C01AD016D
S1131980C801B7010E94D8277B018C01D6016D9351
S11319907D938D939C9313976101E3E9F2E0CE0E5E
S11319A0DF1E2D813E8121503040C901AA2797FDB9
S11319B0A095BA2FBC01CD010E948528DC01CB0182
S11319C09C01AD01C801B7010E942228DC01CB01B2
S11319D0BC01CD010E944229DC01CB01F6018083C8
S11319E09183A283B38326960FB6F894DEBF0FBE0D
S11319F0CDBFDF91CF911F910F91FF90EF90DF90BA
S1131A00CF90BF90AF909F908F907F906F905F909A
S1131A104F903F902F9008958998919A909A80B30F
S1131A2099279695879580FF03C081E090E00895FB
S1131A30909880E090E00895AF92BF92CF92DF92A9
S1131A40EF920F931F935B016C010E94D400DC01A1
S1131A50CB0161E0E62E96018501AC01BD018CE06D
S1131A600E94B5001F910F91EF90DF90CF90BF902F
S1131A70AF9008951F93889A90988998919A89B7FE
S1131A808D7F89BF899A919A909888E0909A9098CE
S1131A90815087FFFBCF899A919A9098909A919858
S1131AA09098909A919A909880918006909181064E
S1131AB08F71907090938106809380068091800648
S1131AC00E94F2030E940C0D882329F010928002D8
S1131AD081E090E048C02091800630918106263054
S1131AE0310561F12730310538F42330310579F0BF
S1131AF02530310561F035C02730310599F02E319C
S1131B00310579F56BE070E080E090E008C08998D9
S1131B10919A0E94FF036EE571E080E090E00E94DC
S1131B201C0D1FC00E946C05182F0E946C050E949A
S1131B30850510937F0280E10E9490008091DD046E
S1131B400E94F2030E940C0D882321F081E080930F
S1131B507E0204C08091DD0480937F0280E10E94B4
S1131B60900080E090E01F910895282F80910E014D
S1131B70882319F484E090E00895809180028823FA
S1131B8019F085E090E0089581E08093800283E07D
S1131B9090E09093810680938006209351060E94E2
S1131BA03A0D99270895282F80910E01882319F45E
S1131BB084E090E0089580918002882319F085E004
S1131BC090E0089581E08093800285E090E0909316
S1131BD0810680938006209351060E943A0D99272E
S1131BE008951F93CF93DF93162FEA01992781302D
S1131BF09105E9F0823091051CF4892B21F017C07E
S1131C00029771F014C080E00E94BE05112321F4F4
S1131C10D0931601C093150181E00E94210507C0ED
S1131C2082E00E94BE05BE01812F0E945E05DF9105
S1131C30CF911F9108951F93CF93DF93162FEA013D
S1131C4099278130910549F082309105CCF082309A
S1131C509105B1F0039769F013C081E00E94BE05BD
S1131C60112321F4D0931401C09313010E94ED03B6
S1131C7007C083E00E94BE05BE01812F0E941F049D
S1131C80DF91CF911F9108952F923F924F925F92CF
S1131C906F927F928F929F92AF92BF92CF92DF9278
S1131CA0EF92FF920F931F93CF93DF93CDB7DEB7DD
S1131CB0CD54D0400FB6F894DEBF0FBECDBF1B018C
S1131CC02C018824AA24BB2411EB612E12E0712E6E
S1131CD0F301608561FF60C22081318142815381BB
S1131CE0D201C101821B930BA40BB50BE480F580D8
S1131CF0068117818E159F05A007B10708F44CC211
S1131D0060FF03C06D7F60870AC02E0D3F1D401F1A
S1131D10511FD3012D933D934D935C931397B6E0DC
S1131D20AB16B10409F466C0E7E0AE16B104ECF4F6
S1131D30F2E0AF16B10409F455C083E0A816B1046B
S1131D404CF4A114B104A9F191E0A916B10409F469
S1131D5047C022C2A4E0AA16B10409F447C0B5E002
S1131D60AB16B1040CF044C03FC0EAE0AE16B104B7
S1131D7009F4E5C0FBE0AF16B1045CF488E0A816F2
S1131D80B10409F4D4C099E0A916B1040CF023C13C
S1131D9033C0ACE0AA16B10409F43DC1BCE0AB16F3
S1131DA0B1040CF41AC1EEE0AE16B10409F45AC140
S1131DB0F3C110914003113009F0EEC182E00E949A
S1131DC021050E94D400DC01CB01E12E00E41FE1D7
S1131DD020E030E0AC01BD0180E00E94B500DCC130
S1131DE0D99ADAC1D89AD8C1DA9AD6C184E0D2C1D4
S1131DF085E0D0C183E0CEC189E0898389E090E0A9
S1131E008A839B8385E090E08C839D838091AE02DE
S1131E10882309F04EC08E838091DF04882339F42F
S1131E2089E191E02E968EAF9FAF2E9711C081303D
S1131E3039F4AFE1B1E02E96AEAFBFAF2E9708C034
S1131E40823031F4E5E2F1E02E96EEAFFFAF2E974B
S1131E502E968EAD9FAD2E979F938F938BE291E03C
S1131E609F938F938E01085E1F4F1F930F930E94C1
S1131E708024ADB7BEB716960FB6F894BEBF0FBE9A
S1131E80ADBF80E1FE013896D8010D9001928A958C
S1131E90E1F787E1DE011196E4E3F6E00D900192AB
S1131EA08A95E1F78DE00E94900081E08093AE0274
S1131EB073C181E08E838091DB049091DC049F9355
S1131EC08F938091D5039091D6039F938F938091A4
S1131ED00004909101049F938F9389E391E09F9371
S1131EE08F938E01085E1F4F1F930F930E948024CF
S1131EF0EDB7FEB73A960FB6F894FEBF0FBEEDBF2E
S1131F0080E1FE013896D8010D9001928A95E1F79F
S1131F1087E1DE011196E4E3F6E00D9001928A95E3
S1131F20E1F78DE00E9490001092AE0235C182E08C
S1131F3080933B0382E18093520588E02BC180911A
S1131F402B068F5F80932B068F3F11F410922B0684
S1131F5090912B0680913F03981709F01DC1809141
S1131F60810299279F938F93809117019091180173
S1131F709F938F9385E491E09F938F9389E295E0FB
S1131F809F938F930E948024EDB7FEB738960FB6C7
S1131F90F894FEBF0FBEEDBF809181028630B8F485
S1131FA08F5F809381028630B0F0FE01F89680E165
S1131FB0DF011D928A95E9F79F0140E065E1809178
S1131FC052050E947D078EE10E94AA05E5C0109289
S1131FD08102109286028CE0DDC08FB7F894082F3E
S1131FE01127902F80910B01843099F480917D0208
S1131FF0813021F482E10E94900009C0823049F4CA
S113200080915A0480930B0183E080937D020FBF7B
S1132010C3C09FBFC1C08091800690918106853066
S11320209105B1F08630910518F4039739F0B4C0E6
S11320304E9709F0B1C010928002AEC01092800297
S113204040E050E061E0809151060E94F10DA4C08F
S11320501092800240E050E061E0809151060E94BD
S11320601B0E9AC08FB7F8949927C0906802CC20B1
S113207011F08FBF91C08FBF80B39927B6E09695BA
S11320808795BA95E1F7982EB1E09B228091E00400
S113209090913903891709F47AC0991609F077C029
S11320A084E090E090936A02809369028E01085B59
S11320B01F4F8091060190910701F8018083892FB9
S11320C09927818380915506909156068283892FA2
S11320D0992783838FB7F8949927DB2EB0936802EE
S11320E08FBF8FE10E94900060E070E08DE10E945C
S11320F0DA0824E0A8016C2D88E691E00E94EA0841
S1132100C09AC0988FB7F894E82EFF248D2D0E94B2
S1132110C10801E010E01093640200936302C092CE
S11321206202C0924F06EFBE8FB7F894E82EFF24E8
S11321300E9400061093D8030093D70389B78F7BBE
S113214089BF80E488BF8AB780628ABF8AB78F7EDE
S11321508ABF89B7806489BFEFBE8FB7F894082F10
S113216011278091690290916A02049719F483E01F
S11321700E94D4080FBF8FB7F894082F1127C09A74
S113218080E00E94D0090FBF8AE10E9490009092E3
S1132190E0048EE10E949000839489E090E0680E50
S11321A0791E0894A11CB11C9EE0981508F090CDEE
S11321B082E00E949000C35BDF4F0FB6F894DEBF4D
S11321C00FBECDBFDF91CF911F910F91FF90EF9084
S11321D0DF90CF90BF90AF909F908F907F906F9043
S11321E05F904F903F902F9008952F923F924F927F
S11321F05F926F927F928F929F92AF92BF92CF9293
S1132200DF92EF92FF920F931F93CF93DF93CDB79B
S1132210DEB725970FB6F894DEBF0FBECDBF992762
S1132220AA27BB27FC01829710F00C949819EA5B4B
S1132230FF4FEE0FFF1F0590F491E02D099480915C
S11322406C039927982F882720916D033327822BBD
S1132250932B80935304892F992780935204809160
S11322606E039927982F882720916F033327822B99
S1132270932B80935504892F99278093540480913C
S113228070039927982F8827209171033327822B75
S1132290932B80935704892F992780935604809118
S11322A072039927982F8827209173033327822B51
S11322B0932B80935904892F99278093580445C5FB
S11322C040913803442339F58FB7F894282F3327E6
S11322D0E0904704F09048040091490410914A04A6
S11322E08091DE039091DF03A091E003B091E103BC
S11322F0E80EF91E0A1F1B1F2FBF80912F06909115
S11323003006A0913106B09132069C01AD01C8019E
S1132310B7010E94D3060E94D400DC01CB01BC01AA
S1132320CD0140C00E94D4007B018C014FEFA42E4C
S11323304FEFB42E4FEFC42E4FE7D42E70E087B783
S11323408D7F87BFE1EBF2E06EE0808581FF1CC0EA
S113235080819181A281B381A8019701281B390B47
S11323604A0B5B0BDA01C90124813581468157810F
S1132370281B390B4A0B5B0B2A153B054C055D05E5
S11323801CF459016A0171E06150399667FFDDCF91
S1132390772309F4CDC71A141B041C041D042CF064
S11323A0C801B7010E94440EC3C7A0922F06B09281
S11323B03006C0923106D092320681E08093380311
S11323C0A6019501C801B7010E94D306B1C78FB712
S11323D0F894282F33278BB394E089278BBB2FBF26
S11323E080914B04815080934B048F3F51F0809136
S11323F063039927AA27BB27BC01CD010E94FC00D7
S113240097C7DA9A95C70E94B40580914C0481500D
S113241080934C048F3F61F00E94B4058091640363
S11324209927AA27BB27BC01CD010E941A0180C7A6
S1132430D99A7EC78FB7F894282F33278BB391E0AE
S113244089278BBB2FBF80914D04815080934D040D
S11324508F3F51F0809165039927AA27BB27BC01C0
S1132460CD010E94380164C7D89A62C784E094E021
S1132470909369038093680382E080933B0382E135
S11324808093520588EB9BE09093E7038093E603E7
S1132490109285021092840210928302109282029A
S11324A010928102109278021092770210927602B2
S11324B0109275021092740280919A008064809345
S11324C09A0080919A00886080939A0080919A0083
S11324D0806880939A0080919A00806180939A002A
S11324E080919A00886080939A0080919A0080611C
S11324F080939A0088E18093330688E48093D9031B
S11325001EE710934903109360031093E1041093A2
S1132510280548E150E060E070E089E493E00E941F
S113252079241093490383E090E090934B038093C4
S11325304A03109360036091330689E493E00E9498
S113254042070E94D400DC01CB0131E0E32E00EA13
S11325501FE020E030E0AC01BD0188E00E94B5003E
S1132560E7C688EB9BE09093E7038093E6038091B2
S11325700A038D7F80930A0348EB5BE060E070E020
S113258089E071C0809101038D7F80930103E09005
S11325903B03F09052058F2D99279F938F938E2D97
S11325A099279F938F9380911701909118019F937E
S11325B08F938EE591E09F938F930BEE15E01F931D
S11325C00F930E9480244DB75EB7465F5F4F0FB6EE
S11325D0F8945EBF0FBE4DBFF80101900020E9F7EB
S11325E03197E01BF10B6E2FC8010E94F90655E0EC
S11325F0F51611F086E089C4E092DE04F0925206EA
S113260044EF51E060E070E087E02DC08091080461
S113261099279F938F938EE791E09F938F930BEE6F
S113262015E01F930F930E9480248DB79EB70696E2
S11326300FB6F8949EBF0FBE8DBFF8010190002025
S1132640E9F73197E01BF10B6E2FC8010E94F906E0
S11326506FC6809113038D7F8093130344E650E08B
S113266060E070E08AE00E948A0562C680915205AB
S11326708231E9F482E190E09F938F938091170176
S1132680909118019F938F938BE891E09F938F9380
S113269089E295E09F938F930E948024ADB7BEB7E3
S11326A018960FB6F894BEBF0FBEADBF97C0863064
S11326B019F08D3009F047C08091860299279F93C5
S11326C08F938091520599279F938F93809117013F
S11326D0909118019F938F938EE991E09F938F932C
S11326E089E295E09F938F930E948024EDB7FEB713
S11326F03A960FB6F894FEBF0FBEEDBF8091520517
S11327008D3019F484E00E94AA052091520530917D
S113271086028EE780934903809360038AE090E009
S113272090934B0380934A03822F992790934D03F0
S113273080934C0330934E036091330689E493E015
S11327400E944207F5C5893009F4F2C599279F9381
S11327508F9380911701909118019F938F9389EB28
S113276091E09F938F9389E295E09F938F930E94CA
S113277080242DB73EB7285F3F4F0FB6F8943EBF75
S11327800FBE2DBF2DC0809135069091360602975D
S113279061F580913706909138069F938F938091CD
S11327A01701909118019F938F938CEC91E09F9364
S11327B08F9389E295E09F938F930E9480244DB775
S11327C05EB7485F5F4F0FB6F8945EBF0FBE4DBF54
S11327D08091370690913806429711F480E06EC1DB
S11327E0809152050E94A507A3C58091340609E291
S11327F015E02091370630913806882309F03FC050
S11328008091E6039091E7038217930789F0309350
S1132810E7032093E60380910A038D7F80930A03E4
S1132820C901AA27BB27AC01BD0189E00E948A0522
S113283080913706909138069F938F938091360646
S113284099279F938F938091350699279F938F9310
S113285080911701909118019F938F9380EE91E0DE
S11328609F938F931F930F930E9480248DB79EB7DD
S11328700C960FB6F8949EBF0FBE8DBF59C58091BC
S11328803A0699279F938F938091390699279F93AE
S11328908F933F932F9380911701909118019F93E9
S11328A08F938DEF91E09F938F931F930F930E94CB
S11328B08024ADB7BEB71C960FB6F894BEBF0FBE4A
S11328C0ADBF8091520540913A0660913906ABE361
S11328D0B6E0893041F58EE7809349038093600325
S11328E089E090E090934B0380934A0390934D03C7
S11328F080934C0360934E0340934F0320E533E0F1
S113290080E1F9010D9001928A95E1F76091330617
S1132910C90107970E9442078AE090E090934B0315
S113292080934A0305C59D010E947D0701C582E08D
S113293080934403E0916803F091690380913B0321
S11329408083E0916803F09169038091520581834B
S1132950E0916803F09169038091E6039091E703A5
S113296082839383809115019091160184839583CA
S113297080911301909114018683978380911101B2
S1132980909112018087918780910F01909110019D
S1132990828793871486158616861786809144034A
S11329A0825F8093440389E0B0C2809180028823CF
S11329B009F4BEC4809125038D7F809325030E9472
S11329C06C059927182F00270E946C059927082B5E
S11329D0192B0E946C050E948505809180069091B8
S11329E081068330910519F0059751F0A1C4109226
S11329F08002A80160E0809151060E94F10D98C404
S1132A0010928002A80160E0809151060E941B0E82
S1132A108FC480918006909181068630910531F0B3
S1132A20079709F085C41092800282C41092800234
S1132A3010927E027DC480917B02813031F46BE080
S1132A4070E080E090E00E94CF038FB7F89499275C
S1132A5010927B0210927C028EC18FB7F894992752
S1132A6020915A0420930B0193E0F92EF0927D02F9
S1132A708FBF022F11270130110519F10230110502
S1132A8024F40115110541F053C40230110569F114
S1132A9003301105D9F14CC480E00E94B50DE82E35
S1132AA0FF24EE2009F444C480E00E94BE05EE2019
S1132AB021F4109316010093150181E00E94210571
S1132AC037C481E00E94D30D082F1127002309F495
S1132AD02FC481E00E94BE05002321F4109214014A
S1132AE0109213010E94ED0323C482E00E94B50DED
S1132AF0082F1127002309F41BC482E00E94BE059D
S1132B0060E070E0802F0E945E0512C48F2D0E9449
S1132B10D30D082F1127002309F40AC48F2D0E9416
S1132B20BE0560E070E0802F0E941F0401C46BE0CA
S1132B3070E080E090E00E94CF03FAC388989098F8
S1132B408998919881E1E1C18FB7F894282F3327B0
S1132B509091DA0490930A0183E0809379022FBF65
S1132B60892F9927009711F4BE9AC69A813091054E
S1132B7079F0823091051CF4892B21F0D9C3029796
S1132B8059F0D6C381E08093B4051092BA050AC007
S1132B9081E08093B40504C081E08093B40582E0B1
S1132BA08093BA050E943F03C3C31092B405809179
S1132BB0BA05E0904703F0904803082F112701302D
S1132BC0110569F00230110524F40115110529F0ED
S1132BD00BC00230110529F007C080E003C081E07A
S1132BE001C082E00E948A0201301105B9F002306E
S1132BF011051CF4012B29F09BC302301105C9F007
S1132C0097C386E0F694E7948A95E1F7F09212016F
S1132C10E092110181E00E94F5028AC306E0F69475
S1132C20E7940A95E1F7F0921001E0920F018EE02B
S1132C306CC116E0F694E7941A95E1F7809150057B
S1132C4090915105209145033091460380936D0383
S1132C50892F992780936C0320936F03832F9927DF
S1132C6080936E03E09271038F2D992780937003F4
S1132C7080E04BC180916C02813049F582E0809301
S1132C806C020E94B601DC01CB0180932E068FB743
S1132C90F894282F33278091690290916A02892B36
S1132CA011F02FBF14C081E090E090936A028093EA
S1132CB069022FBFDD9A0E945602DC01CB0124E198
S1132CC030E040E050E0BC01CD010E946C0887E197
S1132CD01CC10E94B601DC01CB0180935406892FEC
S1132CE099278093530660E070E086E896E00E949E
S1132CF04C02FC0180915306909154068083918389
S1132D0021E046E856E06FEF7FEF83E90E94A00BD5
S1132D10882309F40DC31EC060E070E086E896E0E5
S1132D200E944C02E2E5F4E028E0DC0101900D92FF
S1132D302A95E1F721E046E856E06FEF7FEF83E95B
S1132D400E94A00B882309F4F3C289E1DEC083E06A
S1132D5080936C0288E1D9C081E005C08FB7F894F4
S1132D6099278FBF83E080936C02E2C28FB7F894F7
S1132D7099271092D4038FBFDBC28FB7F894C82E63
S1132D80DD2480916802882379F40E94D400DC0158
S1132D90CB0171E0E72E01E010E020E030E0AC016F
S1132DA0BD018EE00E94B500CFBEC2C28FB7F894B9
S1132DB0282F332780916802882329F080913703D4
S1132DC08D7F809337032FBFB3C28FB7F894282F1A
S1132DD033279091B5059093020182E080936502B8
S1132DE02FBF992309F0A4C28FB7F8949927209193
S1132DF005018FBF33272130310509F453C0223038
S1132E0031051CF4232B51F093C22230310509F40F
S1132E107FC02330310509F493C08AC2C0988FB7AC
S1132E20F894E82EFF248091690290916A02029737
S1132E30B9F583E090E090936A028093690268E1B7
S1132E4070E08DE10E94DA0811E0109339031092CA
S1132E50680280B3992766E0969587956A95E1F7AD
S1132E6081238093E0048EE10E949000812F0E94D0
S1132E70D4086FE772E08CE10E94DA0890910801AF
S1132E8085E0989FC0011124825D9E4F9064BC012F
S1132E9088E10E94DA0862EF7AE281E10E94DA08AE
S1132EA0EFBE46C28FB7F894282F3327409108010C
S1132EB08E010F5F1F4F8091060190910701898356
S1132EC0892F9927F80181838091550690915606A0
S1132ED08B83892F99278C832FBFC09885E0489FC7
S1132EE0C0011124825D9E4F9064BC0188E10E9460
S1132EF0DA0824E0A80160E088E691E00E94EA088C
S1132F00C09A81E00E94D0098DE10E94900010C215
S1132F108FB7F8949927209163028FBF332722300B
S1132F20310521F02430310521F006C00E946C0BDC
S1132F30FFC10E94560AFCC182E00E94D009F8C178
S1132F400E94090BF5C1A091AF02B091B0028C911F
S1132F509D01280F311DF9018081881F8827881F52
S1132F60FD0182A7F90182919F012F5F3F4FFD016F
S1132F7080A7F90180818F77FD0181A72090AF029E
S1132F803090B0028101055F1F4FF10187819927BD
S1132F90382F222786819927282B392B80910001ED
S1132FA0909101012817390721F02F5F3F4F09F055
S1132FB0B9C1C1010E944802833909F0B3C18091AB
S1132FC009018823D1F1809153069927582F44276A
S1132FD0809154069927482B592BF1018385992711
S1132FE0382F2227F80181819927282B392B421762
S1132FF0530721F488E10E94900094C142175307BB
S113300024F481E08093660302C010926603109258
S1133010090180916603809340030E94D400DC017F
S1133020CB01F1E0EF2E08EE13E020E030E0AC013C
S1133030BD0180E00E94B50075C1A0904003AA20A4
S113304009F070C188E0ECE6F3E0D8010D9001923C
S11330508A95E1F780916C039927582E4424809136
S11330606D039927482A592A80916E039927782E4F
S1133070662480916F039927682A792A80917003C6
S11330809927982E8824809171039927882A992A50
S11330908FB7F8948D8380913A03882309F068C030
S11330A0C2010E94190CC201AA2797FDA095BA2F4C
S11330B0BC01CD010E9485287B018C0157FE08C00C
S11330C020E030E040E857E40E94D8277B018C01DF
S11330D080913A03E82FFF27EE0FFF1FEE0FFF1F2B
S11330E0E156FD4F80819181A281B3819C01AD01A4
S11330F0C801B7010E94D727DC01CB01BC01CD0177
S11331000E946828DC01CB010E945601B0903A036A
S11331100B2D1127000F111F000F111FF801E1568D
S1133120FD4F80819181A281B381BC01CD010E94B8
S113313068286B017C01F801ED56FD4F8081918177
S1133140A281B381BC01CD010E946828DC01CB01BE
S1133150B092DF045092010440920004D092D6034E
S1133160C092D5039093DC048093DB0481E06AC0B1
S1133170813009F06AC0C3010E94190CC301AA2757
S113318097FDA095BA2FBC01CD010E9485287B0133
S11331908C0177FE08C020E030E040E857E40E944C
S11331A0D8277B018C0180913A03E82FFF27EE0F8B
S11331B0FF1FEE0FFF1FE156FD4F80819181A28119
S11331C0B3819C01AD01C801B7010E94D727DC017E
S11331D0CB01BC01CD010E946828DC01CB010E9417
S11331E05601B0903A030B2D1127000F111F000F49
S11331F0111FF801E156FD4F80819181A281B381B5
S1133200BC01CD010E9468286B017C01F801ED56D8
S1133210FD4F80819181A281B381BC01CD010E94C7
S11332206828DC01CB01B092DF0470920104609243
S11332300004D092D603C092D5039093DC0480930B
S1133240DB0482E080933A036BC0823009F068C0EB
S1133250C4010E94190CC401AA2797FDA095BA2F96
S1133260BC01CD010E9485287B018C0197FE08C01A
S113327020E030E040E857E40E94D8277B018C012D
S113328080913A03E82FFF27EE0FFF1FEE0FFF1F79
S1133290E156FD4F80819181A281B3819C01AD01F2
S11332A0C801B7010E94D727DC01CB01BC01CD01C5
S11332B00E946828DC01CB010E945601B0903A03B9
S11332C00B2D1127000F111F000F111FF801E156DC
S11332D0FD4F80819181A281B381BC01CD010E9407
S11332E068286B017C01F801ED56FD4F80819181C6
S11332F0A281B381BC01CD010E946828DC01CB010D
S1133300B092DF049092010480920004D092D6031C
S1133310C092D5039093DC048093DB04A0923A031B
S1133320BD81BFBF3092B0022092AF020E94360B23
S113333025960FB6F894DEBF0FBECDBFDF91CF91B7
S11333401F910F91FF90EF90DF90CF90BF90AF90BF
S11333509F908F907F906F905F904F903F902F90B1
S11333600895809150068F3FD1F09091500680913E
S11333705006E82FFF27E95AF94F808180935006C1
S1133380809150068F3F11F480937C06892F9927F2
S1133390FC01E95AF94F2FEF20839C0102C02FEF63
S11333A030E02F3F19F480E090E00895822F0E94CE
S11333B0F51081E090E00895CFEFD0E1DEBFCDBFFE
S11333C08FB7F894C82F42E250E06FEF70E087E5C2
S11333D096E00E9479248FEF8093500680937C06B8
S11333E081E08EBD88E080BF83E083BF2CB53DB50E
S11333F04AE78CB59DB58217930708F441509C01A8
S11334004423B9F792B782B78917E9F32CB53DB5D0
S113341092B782B78917E9F38CB59DB5821B930BDC
S1133420409655E0969587955A95E1F790934F0508
S113343080934E0513BE83B78EBD8EB580BF12BE7A
S11334401DBC1CBC8FEF86BF86B780937C0080B701
S1133450282F33272770307021153105C1F7D29AF0
S1133460D19AD09ADA9AD99AD89A25BB8FEF84BB8D
S1133470D498DC983DBD2CBD87B7846087BF8EB5DA
S1133480887F84608EBD16B880B7886080BF80E274
S113349085BF0E94B1198823E1F7809117019091AB
S11334A018010196AA27BB278093DA039093DB03C4
S11334B0A093DC03B093DD038FEF80933C038091F2
S11334C06C02882319F481E080936C02B89AD69A2E
S11334D0D59A8091000190910101909356068093B2
S11334E055068E98B89A8C988BEB95E09093B00221
S11334F08093AF0200914E0510914F05C801AA2791
S1133500BB274CE0880F991FAA1FBB1F4A95D1F710
S1133510BC01CD0120E031EE40E050E00E949A2948
S1133520DA01C901019789B9892F992780939000FD
S113353082E08BB986E0809395001AB8C801AA2767
S1133540BB272CE0880F991FAA1FBB1F2A95D1F710
S1133550BC01CD0120E031EE40E050E00E949A2908
S1133560DA01C901019780939900892F99278093E3
S1133570980082E080939B0086E080939D001092E7
S11335809A00109267038FEF9FEFAFEFBFEF809326
S1133590820690938306A0938406B093850600B6B2
S11335A002FCFDCF12BE87B7816087BF83B7887FD7
S11335B0836000B600FCFDCF83BF0E94B119992738
S11335C08823D9F7CFBF7894809371021092700248
S11335D010926F0210926E0210926D02569A539AD4
S11335E0579A549A539A549A86E00E94900087E11D
S11335F00E9490008FB7F894482F4AC087B7992744
S1133600887B892B41F480917D00282F33272B7FE1
S11336102115310519F020E030E02AC06F9928C047
S11336208AB1807C29F580919A00807C09F5379BCA
S113363003C021E030E01CC087B7992783709070E5
S1133640892BA1F080B7992787709070892BD1F7C7
S113365081B792B7891B8C3018F082B7853F18F078
S113366022E030E005C023E030E002C025E030E095
S1133670E5E02E1708F4E22F85B7837EFF27E05399
S1133680FF4F9491892B806285BF78948895F89434
S1133690809150068F3FC9F090915006809150065A
S11336A0E82FFF27E95AF94F8081809350068091D3
S11336B050068F3F11F480937C06892F9927FC01D3
S11336C0E95AF94F2FEF208302C08FEF90E08F3F2C
S11336D009F494CF4FBF0E94F5108CCF83B783BFFA
S11336E000B600FCFDCF08951F920F920FB60F9203
S11336F011242F933F934F935F936F937F938F93F3
S11337009F93AF93BF93CF93EF93FF930E946E1B4E
S113371087B78D7F87BF78948FB7F894C82F80912F
S1133720DE039091DF03A091E003B091E1030097E1
S1133730A105B10521F481E00E94900002C00E941D
S11337400A06CFBFFF91EF91CF91BF91AF919F91A7
S11337508F917F916F915F914F913F912F910F9036
S11337600FBE0F901F9018951F920F920FB60F92D5
S113377011242F933F934F935F936F937F938F9372
S11337809F93AF93BF93EF93FF930E946E1B80911F
S11337904A0590914B05A0914C05B0914D050196B9
S11337A0A11DB11D80934A0590934B05A0934C0530
S11337B0B0934D0580914F04882339F08150809354
S11337C04F04882311F40E940A06FF91EF91BF91E0
S11337D0AF919F918F917F916F915F914F913F91A5
S11337E02F910F900FBE0F901F9018951F920F925C
S11337F00FB60F9211240F900FBE0F901F901895C3
S11338001F920F920FB60F9211242F933F934F9351
S11338105F936F937F938F939F93AF93BF93EF9334
S1133820FF9389B78D7F89BF8FE00E949000FF913D
S1133830EF91BF91AF919F918F917F916F915F9124
S11338404F913F912F910F900FBE0F901F9018959D
S11338501F920F920FB60F9211240F900FBE0F906C
S11338601F9018951F920F920FB60F9211240F906C
S11338700FBE0F901F9018951F920F920FB60F92C4
S113388011240F900FBE0F901F9018951F920F9246
S11338900FB60F9211240F900FBE0F901F90189522
S11338A01F920F920FB60F9211242F933F934F93B1
S11338B05F936F937F938F939F93AF93BF93EF9394
S11338C0FF938091D7039091D803019719F40E9434
S11338D0240B05C080917E068F5F80937E06FF9146
S11338E0EF91BF91AF919F918F917F916F915F9174
S11338F04F913F912F910F900FBE0F901F901895ED
S11339001F920F920FB60F9211240F900FBE0F90BB
S11339101F9018951F920F920FB60F9211242F9398
S11339203F934F935F936F937F938F939F93AF9343
S1133930BF93EF93FF9364B175B178948FB7F89404
S1133940282F332780917906482F469541702FBF41
S1133950282F217080FD1CC033988091B4059927CD
S11339608130910519F0029759F028C0442351F091
S1133970709348036093470386E10E9490001EC041
S1133980442319F40E943F0319C02093B40516C0C0
S11339908FB7F89499278FBF8FB7F894482F55277E
S11339A086B180618777282F332726B98F7B282F0C
S11339B0332726B98068992786B94FBFFF91EF91C5
S11339C0BF91AF919F918F917F916F915F914F9133
S11339D03F912F910F900FBE0F901F9018951F923B
S11339E00F920FB60F9211248F935F998CB18F9120
S11339F00F900FBE0F901F90189578941F920F92FE
S1133A000FB60F9211242F933F934F935F936F93AD
S1133A107F938F939F93AF93BF93EF93FF93809183
S1133A206F029091700201969093700280936F02DE
S1133A308F37910520F01092700210926F028091DE
S1133A406D0290916E028F37910520F010926E02F4
S1133A5010926D02E0916F02F091700280916D02FC
S1133A6090916E02E817F90731F0E55AFB4F808117
S1133A700E94F10602C010927102FF91EF91BF9172
S1133A80AF919F918F917F916F915F914F913F91F2
S1133A902F910F900FBE0F901F9018951F920F92A9
S1133AA00FB60F9211242F933F934F935F936F930D
S1133AB07F938F939F93AF93BF93EF93FF938091E3
S1133AC09B0087FFD1C140919C00809172028823A2
S1133AD021F44E3709F0C8C106C020917302233087
S1133AE050F44E3741F481E08093720240935305C1
S1133AF080937302B9C1E22FFF27ED5AFA4F408336
S1133B002F5F2093730230915405333049F580912F
S1133B103306281709F098C1109272024E3709F043
S1133B209BC18091560580935205863021F08930DF
S1133B3011F08D3081F49AE090933B03809152050B
S1133B408D3061F48FEF80933F0310922B06892F01
S1133B500E94900003C082E080933B0388E071C11F
S1133B60323009F04CC080913306281709F06CC13B
S1133B70109272024E3709F06FC130934403E09102
S1133B806803F091690380913B038083E0916803AB
S1133B90F0916903809152058183E0916803F0916B
S1133BA069038091E6039091E70382839383809174
S1133BB05A0590915B058483958380915C0590916F
S1133BC05D058683978380915E0590915F0580876C
S1133BD09187809160059091610582879387809198
S1133BE0620590916305848795878091640590911F
S1133BF065058687978780914403825F1FC13930AA
S1133C0009F09DC080913306281709F01DC1109258
S1133C1072024E3709F020C182E080934403809100
S1133C2052058D30F1F480915805833109F016C1A5
S1133C3080911701909118019F938F938AE192E0EC
S1133C409F938F9389E295E09F938F930E948024A2
S1133C508DB79EB706960FB6F8949EBF0FBE8DBF64
S1133C60FDC0893059F488E1A3E5B5E0E8EEF3E05E
S1133C700D9001928A95E1F78BE0E3C08E3029F034
S1133C80843019F0853009F0E9C0E0916803F091BF
S1133C90690380913B038083E0916803F091690399
S1133CA0809152058183E0916803F09169038091CA
S1133CB0E6039091E7038283938380915A05909160
S1133CC05B058483958380915C0590915D05868373
S1133CD0978380915E0590915F058087918780919D
S1133CE06005909161058287938780916205909128
S1133CF0630584879587809164059091650586871F
S1133D00978780914403825F8093440380911701D5
S1133D10909118019F938F9381E392E09F938F93E7
S1133D2089E295E09F938F930E9480248DB79EB77C
S1133D3006960FB6F8949EBF0FBE8DBF81C031307A
S1133D4019F03A3009F08AC08091D903281709F094
S1133D507BC0109272024E3709F07EC082E08093DD
S1133D604403E0916803F091690380913B038083ED
S1133D70E0916803F09169038091520581838091F9
S1133D8052058D3009F03FC0109281028FEF80936D
S1133D903F038091580599279F938F938091170132
S1133DA0909118019F938F938BE492E09F938F934C
S1133DB089E295E09F938F930E9480248DB79EB7EC
S1133DC008960FB6F8949EBF0FBE8DBF909158050C
S1133DD0903F19F41092860216C080915A058A30D9
S1133DE029F480915B058A3A39F00AC08A3A41F491
S1133DF080915B058A3021F484E00E94AA0503C007
S1133E009F5F90938602E0916803F091690380912B
S1133E105905828320916803309169038091590583
S1133E209927AC016AE575E0C90103960E947024E4
S1133E308091440390915905890F8F5F80934403C7
S1133E4089E00E9490000AC09927029733278217BD
S1133E50930724F44E3711F4109272028091730286
S1133E60813610F010927202FF91EF91BF91AF91E1
S1133E709F918F917F916F915F914F913F912F917E
S1133E800F900FBE0F901F90189578941F920F9269
S1133E900FB60F9211242F933F934F935F936F9319
S1133EA07F938F939F93AF93BF93EF93FF938091EF
S1133EB0760290917702019690937702809376022E
S1133EC08036910520F0109277021092760280914C
S1133ED07402909175028036910520F0109275025B
S1133EE010927402E0917602F0917702809174024C
S1133EF090917502E817F90731F0EC58FC4F808176
S1133F000E94340702C010927802FF91EF91BF9192
S1133F10AF919F918F917F916F915F914F913F915D
S1133F202F910F900FBE0F901F90189578941F92A9
S1133F300F920FB60F9211242F933F934F935F93D9
S1133F406F937F938F939F93AF93BF93CF93EF938D
S1133F50FF9387B78F7E87BF78948FB7F894C82F65
S1133F6080914B0690914C06A0914D06B0914E065F
S1133F700097A105B10509F053C0809163029091A7
S1133F8064028430910541F18530910518F403975A
S1133F9021F034C0079739F131C080B3992766E026
S1133FA0969587956A95E1F780FF13C084E090E0C9
S1133FB090936402809363020E945602DC01CB0159
S1133FC027E030E040E050E0BC01CD010E946C08E5
S1133FD015C00E948A0812C00E94C109882371F486
S1133FE00E94560A0BC081E090E090936402809393
S1133FF0630210926B028CE10E949000809169022E
S113400090916A02019771F482E090E090936A02C1
S113401080936902DE98DE9A80E00E949E0902C0C5
S11340200E94BE07CFBFFF91EF91CF91BF91AF9197
S11340309F918F917F916F915F914F913F912F91BC
S11340400F900FBE0F901F90189578941F920F92A7
S11340500FB60F9211240F900FBE0F901F9018955A
S113406078941F920F920FB60F9211240F900FBEE7
S11340700F901F90189578941F920F920FB60F927D
S113408011241F932F933F934F935F936F937F93C9
S11340908F939F93AF93BF93CF93DF93EF93FF934C
S11340A0CCB5DDB580E286BF8FB7F894182F809128
S11340B06302909164028530910519F0069739F1F5
S11340C057C080E00E94C10882E00E94D00987B7EF
S11340D08F7E87BF86E090E09093640280936302B2
S11340E0E0910204F0910304818199278770907014
S11340F0019721F4C5A78D2F992784A780B3992709
S1134100F4E096958795FA95E1F780FD77C081E014
S11341100E94C108E0910204F0910304818185FFAB
S113412013C087E090E090936402809363020E943E
S11341305602DC01CB0120E830E040E050E0BC0155
S1134140CD010E946C080BC081E090E09093640262
S11341508093630210926B028CE10E94900080B302
S11341609927E4E096958795EA95E1F780FF46C0A4
S113417080916202882351F50E94C1084091B305E1
S11341804830A0F480914905840F912D911D9C0124
S1134190887F9370281BE22FFF27EE0FFF1FEC543C
S11341A0F94FC083D1834F5F4093B30581E080937F
S11341B06202D0932D06C0932C0680B3992774E035
S11341C0969587957A95E1F780FD18C080916202F3
S11341D08823A1F081E00E94C108109262028091BC
S11341E02C0690912D06C81BD90B2A9738F4809180
S11341F0B305882319F081508093B3051FBFFF9145
S1134200EF91DF91CF91BF91AF919F918F917F916A
S11342106F915F914F913F912F911F910F900FBE1E
S11342200F901F90189578941F920F920FB60F92CB
S113423011242F933F938F939F938FB7F894282F34
S113424033278091610390916203019690936203F6
S1134250809361032FBF9F918F913F912F910F9076
S11342600FBE0F901F9018951F920F920FB60F92CA
S11342701124EF92FF920F931F932F933F934F9329
S11342805F936F937F938F939F93AF93BF93CF93DA
S1134290DF93EF93FF938FB1282F3327E0913D03F2
S11342A0F0913E03309739F080916A0390916B034B
S11342B0E80FF91F208380916A0390916B030196A4
S11342C090936B0380936A0380E00E94130920910A
S11342D06A0330916B038091B8059091B905281752
S11342E0390718F40E94810A35C1E0903D03F0902B
S11342F03E0310923E0310923D031092510410921B
S113430050041092B9051092B80510926B031092E4
S11343106A038FB18091E9059091EA052091E9053E
S113432086FFD3C02F7B822F99278E33910509F402
S113433011C1CF9709F00EC1C091AF02D091B00264
S113434018818091D7039091D8038230910521F090
S1134350039709F444C0B4C083E090E09093D80379
S11343608093D703412F55279A012F5F3F4F6091C8
S11343704103862F9927821793077CF40E94000635
S1134380C09AC09888E00E94D40888E00E94D408AB
S1134390C09A83E00E94D00990C080E090E0B79B6F
S11343A002C081E090E0892B69F481B1992726E06D
S11343B0969587952A95E1F780FD04C0611B6150AD
S11343C060934103193220F4BE016F5F7F4F02C036
S11343D060E070E080E090E00E94EF0ABBC0C09A09
S11343E083E00E94D0098091B305882309F11B3032
S11343F028F180914905E82FFF27EE0FFF1FEC54A9
S1134400F94F808191818DA7892F99278CA780915D
S11344104905992701969C01287F3170821B930BD3
S1134420809349058091B30581508093B30506C0FC
S11344308FEF9FEF8DA78FEF90E08CA7FE01E10F28
S1134440F11D808187FF39C0EF28B9F16981677058
S1134450E091AF02F091B002623049F5A0910204FC
S1134460B0910304208180916302909164020797C4
S113447021F5ED019B8183818917F9F487B78F7E3C
S113448087BF81E08BA7E20FF11D8291319688A747
S113449080818F7789A781E090E090936402809374
S11344A0630210926B028CE10E94900006C061309E
S11344B021F481E20E9490004DC00E94360B4AC054
S11344C0C09A83E00E94D00945C02E3309F042C04F
S11344D0C09A8091630290916402089739F481E054
S11344E090E0909364028093630234C080914E0400
S11344F0882349F484E090E09093640280936302FB
S11345000E94560A27C082E00E94D00983E090E00E
S113451090936402809363020E94B601DC01CB0194
S11345208F71907001969C01B3E0220F331FBA95EE
S1134530E1F7280F391F280F391F790100271127A8
S11345400E945602DC01CB01A8019701BC01CD01F8
S11345500E946C08FF91EF91DF91CF91BF91AF91D1
S11345609F918F917F916F915F914F913F912F9187
S11345701F910F91FF90EF900F900FBE0F901F901F
S11345801895A0E3B0E0E7ECF2E20C94EF29222EB8
S1134590332E442E552E662E772E882E992E2A2DB4
S11345A03B2DA8E0FE013196AA2E1192AA94E9F7B8
S11345B029823A824B825C826D827E828F829886C7
S11345C0FE013996BA2E1192BA94E9F729873A87EF
S11345D0CB86DC86ED86FE860F87188BFE017196EE
S11345E01192AA95E9F7C980DA80EB80FC80C9A60C
S11345F0DAA6EBA6FCA6870176018FEF9FEFA0E079
S1134600B0E0E822F9220A231B23A9A4BAA4CBA46C
S1134610DCA416014424552489859A85AB85BC8580
S11346208DA79EA7AFA7B8AB5C016D018FEF9FEF7D
S1134630A0E0B0E0A822B922CA22DB228DA59EA563
S1134640AFA5B8A93D0188249924C801B701A601E2
S113465095010E94BC2969A37AA38BA39CA3C801DA
S1134660B701A40193010E94BC296DA37EA38FA36B
S113467098A7C201B101A60195010E94BC297B0142
S11346808C01C201B101A40193010E94BC299B01C8
S1134690AC01A9A0BAA0CBA0DCA0C601AA27BB2765
S11346A0ADA0BEA0CFA0D8A4A80EB91ECA1EDB1E02
S11346B0AE0CBF1CC01ED11EADA2BEA2CFA2D8A6F6
S11346C0AE14BF04C006D10620F4205030404F4F32
S11346D05F4FCDA0DEA0EFA0F8A4C701AA27BB2797
S11346E0820F931FA41FB51F8D8F9E8FAF8FB8A30A
S11346F0A6013327222789A19AA1ABA1BCA1A0704E
S1134700B070280F391F4A1F5B1F298F3A8F4B8FB8
S11347105C8FA98CBA8CCB8CDC8CED8CFE8C0F8DD1
S113472018A1ED8AFE8A0F8B188F2D853E854F8543
S1134730588969A57AA58BA59CA50E94BC293B0133
S11347404C018D819E81AF81B885BC01CD012DA521
S11347503EA54FA558A90E94BC29DC01CB01680ED7
S1134760791E8A1E9B1E8D899E89AF89B88D860D00
S1134770971DA81DB91D8D8B9E8BAF8BB88F6D892E
S11347807E898F89988D2A2D3B2D4C2D5D2DE2E15C
S1134790E0960C940B2A8F929F92AF92BF92CF9285
S11347A0DF92EF92FF920F93CF93DF93CDB7DEB7F3
S11347B068970FB6F894DEBF0FBECDBFE82E002376
S11347C049F4298B3A8B4B8B5C8B6D8B7E8B8F8B57
S11347D0988F6CC088E0FE01319611928A95E9F7B2
S11347E029833A834B835C836D837E83EF8298872E
S11347F040E2401B14160CF041C08D819E81AF81B4
S1134800B8856C017D0104C0CC0CDD1CEE1CFF1CC2
S11348104A95D2F7202F332727FD3095022E04C066
S1134820B695A795979587950A94D2F78D879E8715
S1134830AF87B88B89819A81AB81BC8104C0B6955E
S1134840A795979587952A95D2F78C299D29AE2906
S1134850BF2989879A87AB87BC8729853A854B8589
S11348605C856D857E858F859889298B3A8B4B8BEA
S11348705C8B6D8B7E8B8F8B988F18C01D861E86EC
S11348801F86188A842F992787FD9095222733271E
S1134890281B390B8D819E81AF81B88504C0B695E4
S11348A0A795979587952A95D2F7D3CF29893A89E1
S11348B04B895C896D897E898F89988D68960FB63E
S11348C0F894DEBF0FBECDBFDF91CF910F91FF9063
S11348D0EF90DF90CF90BF90AF909F908F9008950E
S11348E0FB01DC0102C001900D9241505040D8F709
S11348F00895DC0101C06D9341505040E0F70895E4
S11349000F931F93CF93DF93CDB7DEB72C970FB6DA
S1134910F894DEBF0FBECDBF0B891C892D893E895B
S113492046E04C8309831A838FEF9FE78D839E8330
S1134930AE01495E5F4FB901CE0101960E94B024D9
S1134940EF81F885E00FF11F10822C960FB6F894D2
S1134950DEBF0FBECDBFDF91CF911F910F910895A0
S11349602F923F924F925F926F927F928F929F927B
S1134970AF92BF92CF92DF92EF92FF920F931F9369
S1134980CF93DF93CDB7DEB762970FB6F894DEBF4F
S11349900FBECDBFEE24FF2487011C016D877E87E7
S11349A02A01CC24DD24FC01C682D782838181FDC7
S11349B080C28FEF9FEF90C28D859E8501968D8773
S11349C09E87C0FE63C28F8580538A30D0F49F8552
S11349D0903339F4662029F4C3FC03C0E0E0F1E02D
S11349E093C08AE0689E602C1124FF856F0E20ED31
S11349F0620E67FE02C0EFE76E2EC3FC5AC2762C2D
S1134A0058C2960173E0369527957A95E1F720FF11
S1134A1004C0662011F461E0662E4F85842F992727
S1134A2087FD9095883691058CF5853691050CF0B7
S1134A306EC08335910509F493C084359105CCF497
S1134A408B32910509F449C08C3291054CF48032C3
S1134A50910509F446C08332910509F44AC010C295
S1134A608D32910509F440C08E32910509F444C099
S1134A7007C28336910509F450C0843691050CF0C1
S1134A808AC08835910509F4BCC0FAC18037910504
S1134A9009F4B1C08137910584F48C36910591F104
S1134AA08D3691052CF48936910509F474C0E8C15A
S1134AB08F36910509F49CC0E3C18537910509F44B
S1134AC0A2C08637910524F48337910571F1D8C1CA
S1134AD08837910509F495C0D3C180E190E0C82AD4
S1134AE0D92AE0E2F0E010C080E890E0C82AD92A90
S1134AF0E0C1E0E4F0E008C088E090E0C82AD92AE8
S1134B006624D7C1E4E0F0E0CE2ADF2AD2C15FE315
S1134B10E52E7A94F3E6FF8744C1F20182E090E047
S1134B20480E591EE0807A943CC1F20182E090E084
S1134B30480E591EA081B1817D0120FF09C0862D38
S1134B40992787FD9095BC01CD010E94C1271FC004
S1134B50FD0101900020E9F73197EA1BE88B18C0AA
S1134B60F20182E090E0480E591E0190F081E02DA0
S1134B707F0120FF09C0862D992787FD9095BC01F0
S1134B80CF010E94CC2703C0CF010E94B827888B95
S1134B909889791A06C1C2FE0AC0F20184E090E045
S1134BA0480E591E20813181428153810CC0F2018B
S1134BB082E090E0480E591E808191819C01442737
S1134BC037FD4095542F79018A0157FF0CC0E2E06C
S1134BD0F0E0CE2ADF2A10950095F094E094E11CD1
S1134BE0F11C011D111D8FEB9FEFC822D92227C094
S1134BF098E0988B08C0E0E4F0E0CE2ADF2AF8E7DA
S1134C00FF8720E1288BC2FE0AC0F20184E090E015
S1134C10480E591E20813181428153810AC0F2011C
S1134C2082E090E0480E591E808191819C014427C6
S1134C30552779018A01EFECFFEFCE22DF22CE0166
S1134C400196898B9A8B9889892E9924AA24BB244E
S1134C50C801B701A50194010E949A29DC01CB0186
S1134C60E989FA8980838A3024F0FF858F0F815285
S1134C7001C0805DE989FA898193E98BFA8BC801C7
S1134C80B701A50194010E949A2979018A0121158D
S1134C90310541055105E1F6E98881E090E08C0F8A
S1134CA09D1FE81AC60182739070892B09F07A94CB
S1134CB0C6FE0DC0872D992787FD9095E889E031C0
S1134CC021F44EEF742E780E02C0782E7A94C3FE2F
S1134CD00FC0262D332727FD30958E2D9927821757
S1134CE093072CF087EF9FEFC822D92201C06E18DA
S1134CF0560133E0B694A7943A95E1F7A0FE02C0BA
S1134D00761801C07E18C60180789170892B51F401
S1134D10872D7A94181634F4B10180E290E00E9451
S1134D208527F6CFC1FE04C0B1018DE290E00BC02F
S1134D30C4FE04C0B1018BE290E005C0C5FE05C00D
S1134D40B10180E290E00E948527C6FE10C0B10147
S1134D5080E390E00E9485279889903141F4B10165
S1134D60EF858E2F992787FD90950E9485278D2D9D
S1134D70992780FF0AC0872D7A94181634F4B1015C
S1134D8080E390E00E948527F6CFA0FE0AC0862D1E
S1134D906A94181634F4B10180E390E00E948527E8
S1134DA0F6CF5601AA0CAB2CAA1CBB08B194A0FCEC
S1134DB00AC0872D7A94181634F4B10180E290E089
S1134DC00E948527F6CFFF85F33641F48E2DB1017D
S1134DD0992787FD90950E94852746C02F85233704
S1134DE0B9F448894150488B4F3F09F43DC0F7015D
S1134DF080810894E11CF11CB101992787FD9095ED
S1134E000E94852788898150888B8F3F81F72CC029
S1134E109F859335A1F4E889E150E88BEF3F21F1B8
S1134E20F7018491B10199270E9485270894E11C18
S1134E30F11CF889F150F88BFF3F91F715C06E0112
S1134E400894C11CD11C89899A898C159D0561F02F
S1134E50E989FA898291E98BFA8BB101992787FD57
S1134E6090950E948527EFCFA0FE0DC0872D7A94E0
S1134E7018164CF4B10180E290E00E948527F6CF29
S1134E80B1010E948527CC24DD2413C09F8595326F
S1134E9041F481E0C82ED12C6624762CEAE0E88B1C
S1134EA008C0B101FF858F2F992787FD90950E9437
S1134EB08527F101838183FF04C0ED85FE85F4918C
S1134EC003C0ED85FE85F081FF872F85222309F03D
S1134ED073CDF1018681978162960FB6F894DEBF97
S1134EE00FBECDBFDF91CF911F910F91FF90EF9037
S1134EF0DF90CF90BF90AF909F908F907F906F90F6
S1134F005F904F903F902F9008950F931F93CF93EE
S1134F10DF938C01EB018B81992781FF22C082FFF3
S1134F2014C02E813F818C819D81281739073CF460
S1134F30E881F9810193E883F9832E813F812F5F12
S1134F403F4F2E833F83C8010EC0E885F985802F2B
S1134F500995892B31F4AE81BF811196AE83BF834D
S1134F60F2CF8FEF9FEFDF91CF911F910F910895B3
S1134F70FC0105900020E9F7809590958E0F9F1F06
S1134F800895FC016150704001900110D8F780959C
S1134F9090958E0F9F1F0895FC01615070400590FD
S1134FA00110D8F7809590958E0F9F1F0895505843
S1134FB0192EF7D001D0DAC0BA1762077307840735
S1134FC09507B1F188F40EF410940B2EBA2FA02D8E
S1134FD0062E622F202D072E732F302D082E842F9E
S1134FE0402D092E952F502DFF275523B9F0591B1D
S1134FF049F0573E98F0469537952795A795F04088
S11350005395C9F776F0BA0F621F731F841F30F4EB
S1135010879577956795B795F040939517FA0F2E76
S11350200895BF1BBB27BA0B620B730B840BF6CF1F
S1135030DEF6D4C0592F482F372F262F9FE380E860
S113504077276627AED001D091C0552359F0992314
S113505069F09F575F57951B33F442F4903811F46D
S1135060915805C09BC091589F3F09F4B7C0BB2716
S1135070112462177307840730F4660F771F881FA3
S1135080BB1F915098F311D00F920FD00F920DD0F7
S1135090A0E82617370748071B0609F0A048BA2FCF
S11350A0602D7F918F9100240895A0E80024621759
S11350B073078407B10528F0621B730B840BB109D5
S11350C00A2A660F771F881FBB1FA69581F70895CC
S11350D097FB73D09F3738F0FEE9F91B982F872F81
S11350E0762F6B2F05C077C0969587957795679532
S11350F0F150D0F73EF490958095709561957F4F6F
S11351008F4F9F4F0895E89403C097FB0EF4F3DF8D
S1135110B62F672F782F892F9EE9002427C00ED041
S11351205EF004C00BD026F001C008D019F020F4C2
S11351308FEF089580E0089581E0089597FB092E8C
S1135140052600F8689430D0E89407FC07C062177D
S113515073078407950721F008F400940794989442
S113516008959A95BB0F661F771F881F11249923F2
S1135170A1F08823B2F79F3F59F0BB0F48F421F404
S1135180002011F460FF04C06F5F7F4F8F4F9F4F6B
S1135190881F9795879597F908951DC09FEF80EC18
S11351A00895052E092607FA440F551F5F3F79F02D
S11351B0AA27A51708F051E04795880F991F9F3F2C
S11351C031F0BB27B91708F091E0879508959F91B6
S11351D09F911124E3CF662777278827992708957D
S11351E0592F482F372F262FDCDF01D0BFCF99232B
S11351F039F0552329F09F575F57950F13F4CAF1DF
S1135200EDCF91589F3FE1F3A62F00241124BB2733
S113521066275527F8E0A69520F4020E131EB41F46
S1135220651F220F331F441F551FFA95A1F7F8E09D
S1135230E72F7727F8E0E69520F4130EB41F651FD7
S11352407A1F330F441F551FAA1FFA95A1F7F82F91
S11352508827F69520F4B40F651F7A1F8E1F440F1C
S1135260551FAA1FEE1FFF23A1F788231AF4939555
S113527039F494CF000C111CBB1F661F771F881FC5
S11352800128089597FD8ACF482F9923F9F195DFD6
S1135290F92FFF57F5959F1B9F1BFF934058479588
S11352A03327222740685FE7E894FF92EF92DF926A
S11352B0CF92BF92AF929F928F92C92ED82EE72E93
S11352C0F62E6F2D7E2D8D2D9C2D852E942EA32EA6
S11352D0B22EBBDE582D492D3A2D2B2D11246CDE18
S11352E09A95592F482F372F262FB216A3069406C6
S11352F0850639F78F909F90AF90BF90CF90DF9045
S1135300EF90FF900F90900D002430CF089597FBFD
S1135310092E07260AD077FD04D04DD006D00020F0
S11353201AF4709561957F4F0895F6F790958195DD
S11353309F4F0895A1E21A2EAA1BBB1BFD010DC0AD
S1135340AA1FBB1FEE1FFF1FA217B307E407F50731
S113535020F0A21BB30BE40BF50B661F771F881F0D
S1135360991F1A9469F760957095809590959B01A3
S1135370AC01BD01CF010895629FD001739FF0017C
S1135380829FE00DF11D649FE00DF11D929FF00DD1
S1135390839FF00D749FF00D659FF00D9927729F08
S11353A0B00DE11DF91F639FB00DE11DF91FBD0193
S11353B0CF0111240895AA1BBB1B51E107C0AA1FEA
S11353C0BB1FA617B70710F0A61BB70B881F991FA2
S11353D05A95A9F780959095BC01CD0108952F9217
S11353E03F924F925F926F927F928F929F92AF9271
S11353F0BF92CF92DF92EF92FF920F931F93CF93BE
S1135400DF93CDB7DEB7CA1BDB0B0FB6F894DEBF54
S11354100FBECDBF09942A88398848885F846E847A
S11354207D848C849B84AA84B984C884DF80EE80C4
S1135430FD800C811B81AA81B981CE0FD11D0FB6CD
S10F5440F894DEBF0FBECDBFED0108954F
S113544C0100FFFFFFFF22001A010304FFFF01FF0D
S113545CFFFFFFFFFFFFFF010054454D50200048A4
S113546C554D49440055526564200025732041561E
S113547C4720537444657620002534642025346415
S113548C2025366400256420433332385F5265731B
S113549C65745F54696D65723A25640D0A00256460
S11354AC206D79417070547970653A25582C206DB3
S11354BC794F7074547970653A25580D0A00544C20
S11354CC43442053573A25640D0A0025642067652C
S11354DC7453466972655F423A25640D0A0025646B
S11354EC2067657453466972655F4C3A25582C20C5
S11354FC5365713A25640D0A00256420676574535D
S113550C466972655F533A25640D0A00256420527E
S113551C2D476574532D434D445B25645D0D0A0082
S113552C256420522D53432D434D442121205B25CA
S113553C642C2025642C2025645D0D0A0025642030
S113554C522D4F432D434D442121205B25642C20A7
S113555C25642C2025645D0D0A0025642072656386
S113556C7620535542434D44315F4641494C0D0A14
S113557C00256420726563762070617273696E67AE
S113558C5F636F6E74726F6C0D0A0025642070611A
S113559C7273696E675F6C6F6E6744543A25640D61
S10555AC0A00EF
S9030000FC
