S01900006275696C642F7A69676265782F6D61696E2E737265636F
S11300000C946C000C947A1E0C94841E0C94AC1EFC
S11300100C94B61E0C94C01E0C94CA1E0C94D41ED0
S11300200C94041F0C9489000C9489000C94D6221F
S11300300C941A220C94C0220C94C5230C94F81D21
S11300400C94381E0C94E6230C94731F0C948900B2
S11300500C94811F0C940E1F0C9489000C9489003D
S11300600C94CB220C9489000C9489000C94890084
S11300700C9489000C9489000C94D21F0C94890070
S11300800C94C9210C9489000C9489003A137914B6
S11300908314161580158515B7150C167F16901642
S11300A006172417281C3117BD179218D0180419E5
S11300B016192819921999199F19D019351A5E1A07
S11300C0AE1AB81ABC1AD61ADD1AEE1AFD1AB81BE3
S11300D01C1C00081C18141011241FBECFEFD0E103
S11300E0DEBFCDBF12E0A0E0B1E0E4EBF9E500E053
S11300F00BBF02C007900D92A03BB107D9F717E0E0
S1130100A0EBB2E001C01D92A833B107E1F70C9453
S11301106A1C0C9400008FB7F894992708958FBF38
S11301200895982F8FB7F894282FE92FFF27EF53BE
S1130130F94F80818F3FB1F48091E706891791F0E0
S11301408091BA068F3F19F49093BA0607C0809144
S1130150E706E82FFF27EF53F94F90839093E706C4
S113016080E001C085E02FBF99270895FC018081BC
S11301708C5099270895FC0187819927382F2227CD
S113018086819927822B932B0895882311F06E9AE8
S113019008956E9808958091B302882319F480E03D
S11301A090E0089581E090E008952F923F924F925D
S11301B05F926F927F928F929F92AF92BF92CF92F3
S11301C0DF92EF92FF920F931F93CF93DF93CDB7FC
S11301D0DEB72A970FB6F894DEBF0FBECDBF8FB738
S11301E0F894282F332729873A8720902F043090BA
S11301F03004409031045090320466245EE4A52E0D
S113020043E8B42EC62CD62CE62CF62C062D162D3F
S1130210222D332D442D552D662D762D862D962D8C
S11302200E94882529833A834B835C836D837E8374
S11302308F839887822E932EA42EB52EC62ED72E6A
S1130240E82EF92E24013501769467945794479447
S113025000E2282D392D4A2D5B2D6C2D7D2D8E2D00
S11302609F2D0E949226A22EB32EC42ED52EC601F7
S1130270B501640D751D861D971D97FF05C09F77F9
S11302806F5F7F4F8F4F9F4F60932F0470933004A5
S1130290809331049093320439853FBF2A960FB678
S11302A0F894DEBF0FBECDBFDF91CF911F910F91A8
S11302B0FF90EF90DF90CF90BF90AF909F908F9082
S11302C07F906F905F904F903F902F900895EF92A2
S11302D00F931F93AE2D99E0899FF0011124EE5FD7
S11302E0FC4F408351836283738304831583268385
S11302F03783A17080858E7F8A2B8260808786E019
S11303000E9491001F910F91EF900895CF93DF9376
S11303108FB7F894682F7727A0919405B09195052D
S1130320C0919605D091970582B706B600FE04C029
S11303301196C11DD11D82B7282F33274427552775
S113034088279A2FAB2FBC2F822B932BA42BB52B52
S11303506FBFBC01CD01DF91CF9108950E9486014A
S1130360DC01CB01BC01CD010895AF92BF92CF92C5
S1130370DF92EF92FF920F931F93F82E5A016B01B5
S11303800E948601DC01CB01E1E0EE2E960185019D
S1130390AC01BD018F2D0E9467011F910F91FF9049
S11303A0EF90DF90CF90BF90AF900895AF92BF923F
S11303B0CF92DF92EF920F931F935B016C010E9427
S11303C08601DC01CB01F1E0EF2E96018501AC0141
S11303D0BD0180E00E9467011F910F91EF90DF90B3
S11303E0CF90BF90AF9008958FB7F894682F772778
S11303F08091BC039091BD032CB53DB506B602FEB9
S113040003C001962CB53DB5AA27BB274427552721
S1130410DC0199278827822B932BA42BB52B6FBF44
S1130420BC01CD010895282F869586958695E82FE1
S1130430FF27E254FC4F277081E090E002C0880F50
S1130440991F2A95E2F720812823822F992708955E
S1130450FF920F931F93CF93DF93082F8FB7F894D6
S1130460F82E8091C702833009F054C080910A01AC
S1130470801709F04FC08091BE03882309F03EC065
S113048081E090E0892BE9F51091C802C12FDD27A6
S11304902196C330D10511F4C0E0D0E08C2F0E9426
S11304A01302882381F4812F9927C817D90781F76C
S11304B08FEF90E08093240581E08093C70286E16A
S11304C00E94910024C08C2F869586958695E82FEE
S11304D0FF27E254FC4F2C2F277081E090E002C0EC
S11304E0880F991F2A95E2F7982F90958081892388
S11304F08083C093C8028C2F9927DCCF80E090E0E2
S1130500C1CF83E080930A011092C7023798002379
S113051009F4C698FFBE81E090E0DF91CF911F916E
S11305200F91FF9008951F93CF93DF93C82F8FB738
S1130530F894282F3327122F8091C702882301F1C2
S11305408C2F0E9413028823B1F48C2F86958695F4
S11305508695E82FFF27E254FC4FC77081E090E0B6
S113056002C0880F991FCA95E2F72081282B2083A7
S113057080E090E002C085E090E01FBF992719C099
S113058081E08093C702C09324052FBF8FB7F894EE
S11305909927379A8FBF8FB7F894C82FDD2780919A
S11305A00A01833019F486E10E949100CFBF80E0F4
S11305B090E0DF91CF911F91089520911C06822F26
S11305C099278130910559F0823091051CF40097E8
S11305D031F004C0029711F481E001C08FE1582F7B
S11305E0822F99278130910541F0823091051CF4C6
S11305F0892B19F004C0029711F428E001C020E00F
S113060033278FB7F894E82F8091E4068E7F809388
S1130610E406322F27B160E070E0922F9295969510
S11306209695937080E0891749F4852F8850863118
S113063018F42F71521711F461E070E0862F880FBF
S11306402091E4062D7F282B852F8F71982F990FE9
S1130650990F2378292B2093E4068062992787B980
S1130660406C21702295220F207E4F7D422B4861E1
S1130670383059F58091A2059091A30521E0863880
S1130680920718F087E090E01FC0833C910518F0B2
S113069086E090E019C08136910518F085E090E07D
S11306A013C08033910518F084E090E00DC08831C8
S11306B0910518F083E090E007C00C9718F082E0F1
S11306C090E002C080E090E0382F3770487F432BE1
S11306D0842F992786B9EFBF0895AF92BF92CF9226
S11306E0DF92EF920F931F935B016C010E948601CE
S11306F0DC01CB01E1E0EE2E96018501AC01BD01E8
S11307008BE00E9467011F910F91EF90DF90CF90D3
S1130710BF90AF90089580E00E94930299270895B6
S113072097E087FF02C0919A01C09198880F909A30
S11307309098915097FFF5CF0895982F8FB7F8941C
S1130740282F89B78D7F89BF82E088BF80916A0096
S1130750886080936A00992321F080916A00846004
S113076003C080916A008B7F80936A0089B782609E
S113077089BF2FBF80E090E008952F923F924F925F
S11307805F926F927F928F929F92AF92BF92CF921D
S1130790DF92EF92FF920F931F938B01882309F04E
S11307A0DDC08FB7F89499277093110660931006F3
S11307B08FBFE0909D03F0909E03CB01AA2797FD85
S11307C0A095BA2FBC01CD010E944C2B3B014C01DA
S11307D017FF08C020E030E040E857E40E949F2A59
S11307E03B014C01C701AA2797FDA095BA2FBC0174
S11307F0CD010E944C2BF7FE06C020E030E040E81B
S113080057E40E949F2A2AE037ED43E25CE30E940A
S1130810BB2BDC01CB0120E030E040E252E4BC0120
S1130820CD010E949E2A1B012C0122EA37EE4BE3E4
S113083056EBC401B3010E94BB2BDC01CB01A40124
S11308409301BC01CD010E94BB2B7B018C0124E5EB
S113085033EE45E25DE3C401B3010E94BB2BDC012E
S1130860CB019C01AD01C801B7010E949F2ADC01A4
S1130870CB0120E030E040E850ECBC01CD010E9407
S11308809F2A5B016C0120E030E048EC51E4C20196
S1130890B1010E949E2A7B018C012CEA35EC47EAC7
S11308A058E3C401B3010E94BB2BDC01CB012AE055
S11308B037ED43E25CE3BC01CD010E949F2ADC01D9
S11308C0CB019C01AD01C801B7010E94BB2BDC0127
S11308D0CB01A6019501BC01CD010E949F2A7B0199
S11308E08C0120E030E048EC52E40E94592B1816A9
S11308F054F40F2EF0E0EF2EF0E0FF2EF8EC0F2F63
S1130900F2E41F2FF02D2DEC3CEC4CEC5DE3C80120
S1130910B7010E94562B882354F40F2EFDECEF2EC2
S1130920FCECFF2EFCEC0F2FFDE31F2FF02DC2017A
S1130930B1010E942F2BDC01CB019093A50580937C
S1130940A405C801B7010E942F2BDC01CB019093B1
S1130950A1038093A00382E00E9493021F910F9150
S1130960FF90EF90DF90CF90BF90AF909F908F90CB
S11309707F906F905F904F903F902F900895982FA5
S11309808FB7F894282F3327422F8091CB028823E6
S113099001F1E92FFF27E351F94F80818F3FA1F443
S11309A0E0910C01E91781F080910D018F3F19F45A
S11309B090930D0104C0FF27E351F94F9083909366
S11309C00C0180E090E002C085E090E04FBF9927E1
S11309D0089541E04093CB029093A4042FBF8091EB
S11309E0CA02882321F484E10E94910002C040934A
S11309F0C90280E090E00895882359F48FB7F894F1
S1130A00992770939E0360939D038FBF83E00E9498
S1130A10BF04089530E0232F909A80B399279695C8
S1130A20879580FD3160273009F0330F90982F5F50
S1130A30283090F3899A9198909A90988998919AED
S1130A40832F99270895899A919A909A9098089556
S1130A50AF92BF92CF92DF92EF92FF920F931F93C8
S1130A60F82E5A016B010E948601DC01CB01EE24B1
S1130A7096018501AC01BD018F2D0E9467011F9174
S1130A800F91FF90EF90DF90CF90BF90AF900895BB
S1130A9090919506980F90939B039F3F11F41092A9
S1130AA09B030895282F8FB7F89499272CB95E9A41
S1130AB08FBF0895AF92BF92CF92DF92EF92FF92D1
S1130AC00F931F935B016C01A1E0FA2E0E94860133
S1130AD0DC01CB01EF2C96018501AC01BD018F2D0A
S1130AE00E9467011F910F91FF90EF90DF90CF90CC
S1130AF0BF90AF900895AF92BF92CF92DF92EF92E2
S1130B000F931F935B016C010E948601DC01CB01F2
S1130B1011E0E12E96018501AC01BD0182E00E9445
S1130B2067011F910F91EF90DF90CF90BF90AF902E
S1130B300895AF92BF92CF92DF92EF920F931F93DB
S1130B405B016C010E948601DC01CB0101E0E02E17
S1130B5096018501AC01BD0183E00E9467011F91EC
S1130B600F91EF90DF90CF90BF90AF900895CF9307
S1130B70982F8FB7F894C82F8091CB028330A1F5BA
S1130B8080910B01891781F520E030E080910D01FF
S1130B908F3F11F421E030E0232BD9F48F3F81F013
S1130BA0282F3327F901E351F94F808180930D01F8
S1130BB08F3F11F480930C018FEF8083C90102C031
S1130BC08FEF90E08093A40481E08093CB0283E1D3
S1130BD009C084E080930B011092CB0281E08093E2
S1130BE0CA0285E10E949100CFBF81E090E0CF91DD
S1130BF0089580E880939C03109207061092930551
S1130C001092E9060895CF93DF93CDB7DEB76797C7
S1130C100FB6F894DEBF0FBECDBF282FDB0189E0ED
S1130C20898389E090E08A839B8385E090E08C83CC
S1130C309D83222311F0213009F42E8380E1FE01EB
S1130C4038960D9001928A95E1F787E1DE011196BD
S1130C50EEE9F6E00D9001928A95E1F78EE00E94AC
S1130C60910067960FB6F894DEBF0FBECDBFDF913B
S1130C70CF910895DA9880919C0590919D05AA27BB
S1130C80BB27BC01CD010E9499050895D998809194
S1130C909E0590919F05AA27BB27BC01CD010E9408
S1130CA05A050895D8988091A0059091A105AA2786
S1130CB0BB27BC01CD010E947B050895982F80912C
S1130CC0C103882319F481E08093C103909329051B
S1130CD0709356046093550450932B0440932A0454
S1130CE03093260520932505089590919403992324
S1130CF0C1F4682F77276115710511F461E070E084
S1130D006093260480E797E10E944E2CCB017093F8
S1130D109D0560939C05AA27BB27AC01BD0186E015
S1130D2019C09130D1F4682F77276115710511F43A
S1130D3061E070E06093270480E797E10E944E2C05
S1130D40CB0170939F0560939E05AA27BB27AC0136
S1130D50BD0184E00E94280508959230D9F4682FDB
S1130D6077276115710511F461E070E06093280440
S1130D7080E797E10E944E2CCB017093A10560930C
S1130D80A00596958795AA27BB27AC01BD0185E0F0
S1130D900E9428050895AF92BF92CF92DF92EF92FE
S1130DA0FF920F931F93CF93DF930E948601FC0160
S1130DB0EB0120919C0430919D0440919E0450913C
S1130DC09F047B018C01E21AF30A040B150B1092A9
S1130DD0A1048091330490913404A0913504B0911E
S1130DE03604E816F9060A071B07C0F0EE24FF24B0
S1130DF08701280F391F4A1F5B1F20939C043093DF
S1130E009D0440939E0450939F04E0923304F09217
S1130E103404009335041093360463C05C016D01FF
S1130E20AE18BF08C00AD10A8601750161E0A61692
S1130E3061E0B60660E0C60660E0D60690F080E0A9
S1130E40A81680E0B80681E0C80680E0D80610F055
S1130E508FEF04C0BB27AD2D9C2D8B2D8093A10457
S1130E6058C061E8A616B104C104D10430F1C058D9
S1130E70DF4FEF4FFF4FC0939C04D0939D04E0934A
S1130E809E04F0939F04C058D040E040F04080E8B6
S1130E909FEFAFEFBFEFE80EF91E0A1F1B1FE09292
S1130EA03304F0923404009335041093360430E88C
S1130EB0E32EF12C012D112D14C0280F391F4A1FC8
S1130EC05B1F20939C0430939D0440939E04509395
S1130ED09F0410923304109234041092350410923B
S1130EE036046E2D82B7282F8C1B8E5F8E1518F05A
S1130EF0622F6E5F01C06C0F662309F461E06150DC
S1130F0000B601FCFDCF61BF82E086BF87B7826077
S1130F1087BFDF91CF911F910F91FF90EF90DF90EA
S1130F20CF90BF90AF9008950F931F93DC01CB0136
S1130F306FB7F894062F112780939C0490939D0417
S1130F40A0939E04B0939F042093330430933404FD
S1130F5040933504509336040E94CB060FBF1F9173
S1130F600F910895982F8FB7F894282F33279093D3
S1130F709C0080919B00806480939B002FBF089508
S1130F809C018091C4029091C5028036910520F0A5
S1130F901092C5021092C4026623E1F0D901809137
S1130FA0C2029091C3028036910520F01092C302D0
S1130FB01092C2028091C2029091C302FC01EA53D2
S1130FC0FC4F2D91208301969093C3028093C2021B
S1130FD0615029F78091C602882361F481E08093EF
S1130FE0C602E091C402F091C502EA53FC4F80812D
S1130FF00E94B2070895CF93DF93D9019EE790939F
S1131000A4039093BB0329E030E03093A60320931C
S1131010A50399279093A8038093A7036093A9033A
S11310204093AA03EBEAF3E080E1EF010D9009920B
S11310308A95E1F7379760919D06CF010E94C0071A
S1131040DF91CF9108959EE79093A4039093BB03FF
S113105022E030E03093A6032093A50399279093D0
S1131060A8038093A7031092A90360919D0684EAC4
S113107093E00E94C0070895AF92BF92CF92DF928F
S1131080EF92FF920F931F93CF93DF930E94F4018B
S1131090FC01EB018091370490913804A09139044C
S11310A0B0913A04A090B506B090B606C090B706C9
S11310B0D090B8069C01AD012A0D3B1D4C1D5D1D51
S11310C079018A01EC1AFD0A0E0B1F0BC817D90708
S11310D0EA07FB0730F0281739074A075B0770F067
S11310E005C0281739074A075B0728F4C217D30736
S11310F0E407F50718F0EE24FF24870121E0E21647
S113110020E8F20620E0020720E0120730F1C05088
S1131110D048EF4FFF4FC0933704D0933804E09387
S11311203904F0933A04C050D048E040F04080E0E5
S113113090E8AFEFBFEFE80EF91E0A1F1B1FE09205
S1131140B506F092B6060093B7061093B806E12CE4
S113115050E8F52E012D112D14C08A0D9B1DAC1DD8
S1131160BD1D8093370490933804A0933904B09341
S11311703A041092B5061092B6061092B706109271
S1131180B806B7012CB53DB5C9018C1B9D0B039660
S11311908E159F0520F0B9016D5F7F4F02C06C0F63
S11311A07D1F6115710511F461E070E061507040BC
S11311B07BBD6ABD80E186BF87B7806187BFDF9151
S11311C0CF911F910F91FF90EF90DF90CF90BF9040
S11311D0AF900895CF92DF92EF92FF920F931F93F7
S11311E07B018C010E94F401DC01CB012FB7F89440
S11311F0C22EDD248093370490933804A0933904DD
S1131200B0933A04E092B506F092B6060093B7069E
S11312101093B8060E943C08CFBE1F910F91FF9017
S1131220EF90DF90CF900895CF92DF92EF92FF92EC
S11312300F931F93CF938FB7F894C82F0E94D500B4
S1131240DC01CB019C01277030702F5F3F4F49F1C7
S1131250C90163E0880F991F6A95E1F7820F931F14
S1131260820F931F7C01002711270E94F401DC01E7
S1131270CB012FB7F894C22EDD24809337049093CA
S11312803804A0933904B0933A04E092B506F0927E
S1131290B6060093B7061093B8060E943C08CFBE6A
S11312A006C081E090E09093B2028093B102CFBF78
S11312B0CF911F910F91FF90EF90DF90CF90089501
S11312C097B79F7D97BF90E296BF882319F08EB59C
S11312D0806402C08EB58F7B8EBD87B7806287BF66
S11312E080E090E008958FB9779BFECF8FB1992766
S11312F008950E947309992708950F931F938B01F2
S11313000E947309812F99270E947309802F0E94DC
S1131310730999271F910F910895DF92EF92FF921D
S11313200F931F93CF937A01C22FDD248C01060FF4
S1131330111D802F80680E94730916950795802FD0
S1131340807C0E947309CC2341F0F70181917F01D5
S11313500E947309D82EC150F6CF8D2D9927CF91B5
S11313601F910F91FF90EF90DF900895882311F063
S11313706F9A08956F9808951F9310E0812F0E942B
S1131380C500BA9ABB98B99AB89A6C9AC098812F3A
S11313900E94B609709A6B986A98689881E00E94D6
S11313A0C5001F9108950F931F93CF93082F8FB7F4
S11313B0F894282F3327122F8091B502882321F027
S11313C02FBF85E090E021C09091B302992341F4AE
S11313D082E08093B3029093030180E090E002C026
S11313E081E090E09927C82F882311F40E94BC095A
S11313F08C2F9927282F882329F40093060181E054
S11314008093B5021FBF822F9927CF911F910F910F
S11314100895CF93C82F0E94CB00882311F40E9413
S1131420BC098091B302882359F481E08093B3020C
S1131430C093090680E20E94910080E090E01EC003
S1131440EC2FFF27E856FC4F80818F3FA1F4E091F9
S11314500401EC1781F0809105018F3F19F4C093CA
S1131460050104C0FF27E856FC4FC083C093040164
S113147080E090E002C085E090E099279927CF9121
S11314800895CF93282F8FB7F894C82F9091B50261
S1131490992369F081E090E002C0880F991F2A9592
S11314A0E2F72091B402282B2093B40208C02093C1
S11314B0060181E08093B502892F0E94090ACFBFFB
S11314C080E090E0CF910895CF9382E00E94D30909
S11314D09927C82F882319F082E00E94410A8C2F93
S11314E09927CF9108951F93CF93DF93982F8FB7A8
S11314F0F894282F3327122F80910601891721F0A1
S11315002FBF81E090E071C04FEF409306018091BE
S1131510B302823009F03FC0909103019923D9F5B9
S113152020E030E080910501841711F421E030E0DF
S1131530232B69F58F3F79F0282F3327F901E856DB
S1131540FC4F8081809305018F3F11F44093040187
S11315504083C90102C08FEF90E08093090681E0C7
S11315608093B30280E20E94910015C0209306018B
S113157081E090E002C0880F991F4A95E2F78095B8
S113158038233093B40280E00E94090A2BC04093B0
S113159003019093B3020E94CB00C82FDD27CC2314
S11315A031F48C2F0E94C500C093E806C09A309194
S11315B0B4023323A9F0209106012F5F632F77270C
S11315C0243008F020E0422F5527CB01042E02C01E
S11315D0959587950A94E2F780FDC8CF2F5FF0CFE9
S11315E01092B5021FBF80E090E0DF91CF911F9170
S11315F0089582E00E94730A99270895CF93C1E069
S1131600C0988091A004882311F085E001C084E093
S11316100E94730983FD05C080E00E94730983FD65
S1131620C0E08FB7F894CC2319F023E030E002C077
S113163025E030E03093B2022093B1028FBFC09A0C
S1131640CC2329F082E00E94730A0E941409CF91EE
S113165008958F929F92AF92BF92CF92DF92EF92B2
S1131660FF920F931F93CF93DF938FB7F894C0909B
S1131670A204D090A3048090990390909A03C091FF
S1131680C203D091C303AE01465F5F4F20911A0697
S113169030911B062417350708F09A018FBF5901B2
S11316A00894A108B108CA15DB05E8F47E01E80C2A
S11316B0F91C8E010C0D1D1DC114D10419F0F80183
S11316C0808101C080E00E9473098114910411F0AB
S11316D0F701808321960F5F1F4F0894E11CF11CD2
S11316E0CA15DB0548F381E00E94B6098FB7F89468
S11316F0982FC114D10431F0CC0EDD1EF601808187
S11317008FB901C01FB8D093C303C093C2039FBF56
S113171080E090E0DF91CF911F910F91FF90EF90C7
S1131720DF90CF90BF90AF909F908F9008959C01D1
S11317308FB7F89499273093A3042093A20470934D
S11317409A036093990350931B0640931A061092D0
S1131750C3031092C2038FBF8FB10E94290B992734
S113176008950F931F93C0980091000310910103F3
S11317708FE790E090934C0680934B0680914B0644
S11317800E94730941E050E0B80180E090E00E94BB
S1131790970B1F910F91089582E090E090932D0490
S11317A080932C0483E00E94D309882319F40E94B7
S11317B0B10B089583E00E94410A0895CF938FB737
S11317C0F894282F3327C22F80912C0490912D0454
S11317D0892B11F42FBF26C02091E906222341F062
S11317E080E090E0B79B02C081E090E0892B49F44F
S11317F081B19927F6E096958795FA95E1F780FDF2
S113180008C0222319F021502093E9060E94CC0B32
S113181008C081E090E090932D0480932C041092F2
S1131820E906CFBFCF9108951F93CF93DF93C09163
S11318305704D09158048FA19927182F882309F4AD
S11318401FE1C0988091B906811741F0812F992733
S1131850806E9068BC0185E10E947D091093B906F1
S1131860188111508EE390E090934C0680934B06C0
S113187080914B060E947309812F9927AC0160E087
S113188070E0CE010E94970BDF91CF911F910895D4
S1131890CF93DF93DA01EA018A876E83872F992732
S11318A08F8382E290E08C8360E070E06D83245F3C
S11318B08FB7F894482F55278091BA02833021F0CE
S11318C04FBF81E090E059C085E08093BA02B093A5
S11318D0E606A093E506809198068F5F80939806AC
S11318E0FD0183834FBF2193ED0189819927807284
S11318F090708983892F992781839927982F882726
S113190029813327822B932B816498688983892FBB
S11319109927818380910101909102018887892F01
S1131920992789876BA768A769A71DA66CA740910B
S1131930E5065091E6068FB7F894282F3327809157
S1131940B1029091B202019711F02FBF14C082E04E
S113195090E09093B2028093B10281E08093A0045E
S113196050935804409357042FBF0E94640A88235D
S113197011F40E94140C80E090E09927DF91CF913C
S11319800895CF92DF92EF92FF920F931F932091CD
S113199000012F3F09F420E03327C90101962817DD
S11319A0390748F48091950390919603892B19F097
S11319B01092000103C08FEF80930001E0910001B9
S11319C0EF3FF1F0FF27EE0FFF1FEB56FC4F0081B6
S11319D01181F8018285C82EDD24C8010E94BB0054
S11319E07C01C8010E94B6009927282FA801B701DD
S11319F08C2D0E94480C882319F082E20E949100E9
S1131A001F910F91FF90EF90DF90CF9008958998E8
S1131A10919A909A80B399279695879580FF03C0F1
S1131A2081E090E00895909880E090E00895AF926E
S1131A30BF92CF92DF92EF920F931F935B016C01E1
S1131A400E948601DC01CB0161E0E62E960185014E
S1131A50AC01BD018CE00E9467011F910F91EF90D2
S1131A60DF90CF90BF90AF9008951F93889A90987D
S1131A708998919A89B78D7F89BF899A919A90980C
S1131A8088E0909A9098815087FFFBCF899A919A29
S1131A909098909A91989098909A919A9098809111
S1131AA0EB069091EC068F7190709093EC06809306
S1131AB0EB068091EB060E9490030E94070D882399
S1131AC029F01092CE0281E090E048C02091EB060C
S1131AD03091EC062630310561F12730310538F4B8
S1131AE02330310579F02530310561F035C02730D8
S1131AF0310599F02E31310579F56BE070E080E025
S1131B0090E008C08998919A0E949D036EE571E067
S1131B1080E090E00E94170D1FC00E940A05182F54
S1131B200E940A050E9423051093CD0281E10E94C0
S1131B309100809127050E9490030E94070D88233D
S1131B4021F081E08093CC0204C08091270580932A
S1131B50CD0281E10E94910080E090E01F91089500
S1131B60282F80910E01882319F484E090E00895D1
S1131B708091CE02882319F085E090E0089581E0F9
S1131B808093CE0283E090E09093EC068093EB0682
S1131B902093BB060E94350D99270895282F809124
S1131BA00E01882319F484E090E008958091CE0218
S1131BB0882319F085E090E0089581E08093CE02B7
S1131BC085E090E09093EC068093EB062093BB06AF
S1131BD00E94350D992708951F93CF93DF93162FF5
S1131BE0EA01992781309105E9F0823091051CF4CE
S1131BF0892B21F017C0029771F014C080E00E9475
S1131C00B705112321F4D0931601C093150181E087
S1131C100E94BF0407C082E00E94B705BE01812F65
S1131C200E94FC04DF91CF911F9108951F93CF93DD
S1131C30DF93162FEA0199278130910549F082300C
S1131C409105CCF082309105B1F0039769F013C08F
S1131C5081E00E94B705112321F4D0931401C093AD
S1131C6013010E948B0307C083E00E94B705BE01E5
S1131C70812F0E94BD03DF91CF911F9108952F9270
S1131C803F924F925F926F927F928F929F92AF9208
S1131C90BF92CF92DF92EF92FF920F931F93CF9355
S1131CA0DF93CDB7DEB7E5970FB6F894DEBF0FBE6E
S1131CB0CDBF1B012C011DAAAA24BB2422E0822E25
S1131CC023E0922EF401608561FF98C32081318165
S1131CD042815381D201C101821B930BA40BB50B2A
S1131CE0E480F580068117818E159F05A007B10752
S1131CF008F484C360FF03C06D7F60870AC02E0DA3
S1131D003F1D401F511FD4012D933D934D935C9370
S1131D101397B7E0AB16B10409F4AAC0E8E0AE1615
S1131D20B10414F5F3E0AF16B10409F454C084E02F
S1131D30A816B10474F491E0A916B10409F447C0DB
S1131D40A2E0AA16B1040CF044C0A114B104A9F194
S1131D5055C3B5E0AB16B10409F458C0E6E0AE16BD
S1131D60B1040CF06CC039C0FBE0AF16B10409F447
S1131D7047C28CE0A816B1045CF499E0A916B1043A
S1131D8009F43CC2AAE0AA16B1040CF0EBC1E2C10A
S1131D90BEE0AB16B10409F478C2EFE0AE16B104AC
S1131DA034F4FCE0AF16B10409F448C227C38FE051
S1131DB0A816B10409F48AC221C382E00E94BF04B8
S1131DC060E47FE180E090E00E94D60117C3D99AD5
S1131DD015C3D89A13C3DA9A11C3D99880919E0572
S1131DE090919F05AA27BB27BC01CD010E945A05EB
S1131DF080912704815080932704882309F0FEC230
S1131E0080912E038D7F80932E03F8C2D898809101
S1131E10A0059091A105AA27BB27BC01CD010E9472
S1131E207B0580912804815080932804882309F03D
S1131E30E5C2809137038D7F80933703DFC2DA9840
S1131E4080919C0590919D05AA27BB27BC01CD01DB
S1131E500E9499058091260481508093260488234A
S1131E6009F0CCC2809140038D7F80934003C6C2A9
S1131E708091C1038823A1F49091FC02992381F4F9
S1131E80AE014F5F5F4F80E129E131E0DA01F901F2
S1131E9001900D928A95E1F7BA01892F0E940306F9
S1131EA08091C103813009F073C08091FD028823C1
S1131EB009F042C080912905882329F499E2692E0A
S1131EC091E0792E1BC0813029F48EE2682E81E0E6
S1131ED0782E14C0823029F404E3602E01E0702EC1
S1131EE00DC0833029F419E3612E11E0712E06C070
S1131EF0843021F4BEE36B2EB1E07B2E7F926F928F
S1131F0086E491E09F938F938E010F5F1F4F1F9381
S1131F100F930E9447278DB79EB706960FB6F89485
S1131F209EBF0FBE8DBFB8018091FD020E940306C3
S1131F3081E08093FD022CC08091250590912605B7
S1131F409F938F9380912A0490912B049F938F9356
S1131F5080915504909156049F938F9385E591E069
S1131F609F938F938E010F5F1F4F1F930F930E94B8
S1131F704727ADB7BEB71A960FB6F894BEBF0FBECB
S1131F80ADBFB8018091FD020E9403061092FD02CC
S1131F908091C103823009F051C08091FE028E010C
S1131FA00F5F1F4F882349F58091980590919905FB
S1131FB0A0919A05B0919B05BF93AF939F938F9384
S1131FC081E691E09F938F938BE691E09F938F93AB
S1131FD01F930F930E944727EDB7FEB73A960FB6AB
S1131FE0F894FEBF0FBEEDBFB8018091FE020E94BF
S1131FF0030681E08093FE0221C08091C403909186
S1132000C5039F938F9384E791E09F938F938EE70B
S113201091E09F938F931F930F930E9447278DB74F
S11320209EB708960FB6F8949EBF0FBE8DBFB80139
S11320308091FE020E9403061092FE028091C10369
S1132040833009F0DBC18091FF028E010F5F1F4FC7
S113205026E831E0882309F03FC0809111069927D2
S11320609F938F938091100699279F938F938091CC
S11320700F0699279F938F9380910E0699279F931C
S11320808F9380910D0699279F938F9380910C06CF
S113209099279F938F9380910B0699279F938F93F2
S11320A080910A0699279F938F933F932F931F93B1
S11320B00F930E944727ADB7BEB754960FB6F89456
S11320C0BEBF0FBEADBFB8018091FF020E940306E0
S11320D081E08093FF0292C18091190699279F9312
S11320E08F938091180699279F938F938091170659
S11320F099279F938F938091160699279F938F9387
S11321008091150699279F938F93809114069927A0
S11321109F938F938091130699279F938F93809118
S1132120120699279F938F933F932F931F930F9397
S11321300E944727EDB7FEB774960FB6F894FEBF1A
S11321400FBEEDBFB8018091FF020E9403061092FA
S1132150FF0254C182E08093970382E18093A60535
S113216089E04AC1809195068F5F809395068F3FE1
S113217011F4109295069091950680919B039817FF
S113218009F03CC18091CF0299279F938F9380914E
S11321901701909118019F938F938FE991E09F937A
S11321A08F9383E795E09F938F930E9447278DB782
S11321B09EB708960FB6F8949EBF0FBE8DBF809150
S11321C0CF028630B8F48F5F8093CF028630B0F0B0
S11321D0FE01B19680E1DF011D928A95E9F79F0126
S11321E040E065E18091A6050E94FB078EE10E9414
S11321F0480504C11092CF021092D4028DE0FCC0B5
S11322008FB7F894082F1127902F80910B018430F9
S113221099F48091CB02813021F483E10E949100F2
S113222009C0823049F48091A40480930B0183E0B7
S11322308093CB020FBFE2C09FBFE0C08091EB064A
S11322409091EC0685309105B1F08630910518F433
S1132250039739F0D3C04E9709F0D0C01092CE0244
S1132260CDC01092CE0240E050E061E08091BB0608
S11322700E94EC0DC3C01092CE0240E050E061E039
S11322808091BB060E94160EB9C02091BD06309104
S1132290BE062F5F3F4F3093BE062093BD06C90193
S11322A0AA27BB278093980590939905A0939A0534
S11322B0B0939B052051374209F0A0C08091880358
S11322C08D7F809388031092F10698C08FB7F8949D
S11322D09927D090B602DD2011F08FBF8FC08FBF39
S11322E080B39927A6E096958795AA95E1F7C82E1D
S11322F0E1E0CE2280912A0590919303891709F495
S113230078C0C91609F075C084E090E09093B802D3
S11323108093B702809107019091080189AB892FBE
S113232099278AAB8091BF069091C0068BAB892F09
S113233099278CAB8FB7F89499271E2FE093B60298
S11323408FBF8FE10E94910060E070E08DE10E94F8
S11323507D0924E0AE014F5C5F4F6D2D88E691E06E
S11323600E948D09C09AC0988FB7F894E82EFF2474
S1132370812F0E94600901E010E01093B2020093E3
S1132380B102D092B002D092B906EFBE8FB7F894E2
S1132390E82EFF240E94F90510932D0400932C04C9
S11323A089B78F7B89BF80E488BF8AB780628ABF80
S11323B08AB78F7E8ABF89B7806489BFEFBE8FB723
S11323C0F894082F11278091B7029091B8020497CE
S11323D019F483E00E9473090FBF8FB7F894082F94
S11323E01127C09A80E00E94730A0FBF8AE10E94FD
S11323F09100C0922A058EE10E949100FDA9FF5F21
S1132400FDAB89E090E0880E991E0894A11CB11CD4
S1132410F03108F457CC86E00E949100E5960FB69F
S1132420F894DEBF0FBECDBFDF91CF911F910F9106
S1132430FF90EF90DF90CF90BF90AF909F908F90E0
S11324407F906F905F904F903F902F9008952F92C0
S11324503F924F925F926F927F928F929F92AF9230
S1132460BF92CF92DF92EF92FF920F931F93CF937D
S1132470DF93CDB7DEB726970FB6F894DEBF0FBE55
S1132480CDBF4C01062FC401AA2797FDA095BA2FF2
S113249089839A83AB83BC83BC01CD010E944C2BFE
S11324A097FE06C020E030E040E857E40E949F2AEF
S11324B011271801220C331C220C331C4DEEA42EC0
S11324C042E0B42EA20CB31CD501CD90DD90ED906A
S11324D0FC90A70196010E949E2A2B013C01F80161
S11324E0E750FD4F10811F5F1083E12FFF27ED831D
S11324F0FE83CF01AA2797FDA095BA2FBC01CD0179
S11325000E944C2BDC01CB019C01AD01C301B20143
S11325100E94E92ADC01CB019C01AD01C701B6018F
S11325200E949F2A6B017C01D5016D937D938D934D
S11325309C931397113009F45CC069817A818B8173
S11325409C810E944C2B97FE06C020E030E040E8BE
S113255057E40E949F2AA70196010E949E2ADC014B
S1132560CB0135EDC32E32E0D32EC20CD31C9C011B
S1132570AD01C301B2010E94BB2BDC01CB01F6010A
S1132580E080F180028113819C01AD01C801B70193
S11325900E949F2A7B018C01D6016D937D938D93BC
S11325A09C9313976101E1EEF2E0CE0EDF1E2D81C4
S11325B03E8121503040C901AA2797FDA095BA2F2A
S11325C0BC01CD010E944C2BDC01CB019C01AD016F
S11325D0C801B7010E94E92ADC01CB01BC01CD018D
S11325E00E94092CDC01CB01F60180839183A28334
S11325F0B38326960FB6F894DEBF0FBECDBFDF912E
S1132600CF911F910F91FF90EF90DF90CF90BF90EB
S1132610AF909F908F907F906F905F904F903F907E
S11326202F9008954F925F926F927F928F929F9214
S1132630AF92BF92CF92DF92EF92FF920F931F93CC
S1132640CF93DF93CDB7DEB7A4970FB6F894DEBF70
S11326500FBECDBF9927AA27BB27FC01839710F093
S11326600C94281CEA5BFF4FEE0FFF1F0590F491BA
S1132670E02D0994809130079927582E44248091A5
S113268031079927482A592A809132079927782EA9
S11326906624809133079927682A792A8091340720
S11326A09927982E8824809135079927882A992A72
S11326B060E0C2010E94271261E0C3010E94271258
S11326C062E0C4010E94271280919403882309F0D8
S11326D057C0C201AA2797FDA095BA2FBC01CD010E
S11326E00E944C2B7B018C0157FE08C020E030E097
S11326F040E857E40E949F2A7B018C018091ED02FF
S11327009091EE02A091EF02B091F0029C01AD0114
S1132710C801B7010E949E2ADC01CB01BC01CD0196
S11327200E942F2BDC01CB010E947506B09094030C
S11327300B2D1127000F111F000F111FF801E3517A
S1132740FD4F80819181A281B381BC01CD010E94A2
S11327502F2B6B017C01F801EF51FD4F808191819A
S1132760A281B381BC01CD010E942F2BDC01CB01DE
S11327709C01A601B2018B2D0E945E0681E059C026
S1132780813009F05AC0C301AA2797FDA095BA2F3A
S1132790BC01CD010E944C2B7B018C0177FE08C04B
S11327A020E030E040E857E40E949F2A7B018C013E
S11327B08091F1029091F202A091F302B091F4029F
S11327C09C01AD01C801B7010E949E2ADC01CB0126
S11327D0BC01CD010E942F2BDC01CB010E947506A8
S11327E0B09094030B2D1127000F111F000F111F20
S11327F0F801E351FD4F80819181A281B381BC0135
S1132800CD010E942F2B6B017C01F801EF51FD4F8C
S113281080819181A281B381BC01CD010E942F2BC3
S1132820DC01CB019C01A601B3018B2D0E945E0645
S113283082E0809394030C94281C823011F00C9451
S1132840281CC401AA2797FDA095BA2FBC01CD016D
S11328500E944C2B7B018C0197FE08C020E030E0E5
S113286040E857E40E949F2A7B018C018091F50285
S11328709091F602A091F702B091F8029C01AD018B
S1132880C801B7010E949E2ADC01CB01BC01CD0125
S11328900E942F2BDC01CB010E947506B09094039B
S11328A00B2D1127000F111F000F111FF801E35109
S11328B0FD4F80819181A281B381BC01CD010E9431
S11328C02F2B6B017C01F801EF51FD4F8081918129
S11328D0A281B381BC01CD010E942F2BDC01CB016D
S11328E09C01A601B4018B2D0E945E0610929403F4
S11328F0AFC788E0A2E1B6E0EDE8F6E00D90019202
S11329008A95E1F729C6AE014F5F5F4F82E190E0FF
S1132910FA01818320E030E0298384E390E08C8312
S11329202B8386E590E08E832D8388E790E088876B
S11329302F8388E0FE013996DA010D9001928A9581
S1132940E1F789819927382F2227FA018181992774
S1132950282B392B8B819927F82EEE248C819927EB
S1132960E82AF92A8D819927182F00278E81992723
S1132970082B192B2231310511F00E943A06F4E399
S1132980EF16F10411F00E943A060635110511F014
S11329900E943A0689859927982F88272A85332704
S11329A0822B932B429711F00E9446068B85992720
S11329B0982F88272C853327822B932BC49711F0CB
S11329C00E9446068D859927982F88272E853327C0
S11329D0822B932B8635910511F00E94460689853A
S11329E09927982F88272A853327822B932B429760
S11329F011F00E9452068B859927982F88272C85E1
S1132A003327822B932BC49711F00E9452068D8595
S1132A109927982F88272E853327822B932B863549
S1132A20910509F415C70E94520612C782E190E08D
S1132A308A8B20E030E0298B84E390E08C8B2B8B15
S1132A4086E590E08E8B2D8B88E790E0888F2F8B26
S1132A5088E0DE015196FE0179960D9001928A95E7
S1132A60E1F7898D9927982F88272A8D3327822B80
S1132A70932B429711F00E943A068B8D9927982F39
S1132A8088272C8D3327822B932BC49711F00E9417
S1132A903A068D8D9927982F88272E8D3327822BE0
S1132AA0932B8635910511F00E943A06898D99275A
S1132AB0382F22278A8D9927282B392B8B8D9927FC
S1132AC0F82EEE248C8D9927E82AF92A8D8D9927E2
S1132AD0182F00278E8D9927082B192B22313105A9
S1132AE011F00E94460624E3E216F10411F00E945C
S1132AF046060635110509F4ABC60E944606A8C66B
S1132B0082E00E94910083E016C640919203442320
S1132B1039F58FB7F894282F3327E0909C04F09070
S1132B209D0400919E0410919F0480913304909120
S1132B303404A0913504B0913604E80EF91E0A1F3E
S1132B401B1F2FBF8091990690919A06A0919B0616
S1132B50B0919C069C01AD01C801B7010E94940785
S1132B600E94AE01DC01CB01BC01CD0140C00E943A
S1132B70AE017B018C01AFEFAA2EAFEFBA2EAFEFFF
S1132B80CA2EAFE7DA2E70E087B78D7F87BFE2E009
S1132B90F3E06FE0808581FF1CC080819181A28178
S1132BA0B381A8019701281B390B4A0B5B0BDA018F
S1132BB0C9012481358146815781281B390B4A0B71
S1132BC05B0B2A153B054C055D051CF459016A0194
S1132BD071E06150399667FFDDCF772309F438C679
S1132BE01A141B041C041D042CF0C801B7010E9414
S1132BF03F0E2EC6A0929906B0929A06C0929B06EA
S1132C00D0929C0681E080939203A6019501C801AD
S1132C10B7010E9494071CC689E594E09093C00311
S1132C208093BF0382E08093970382E18093A6059B
S1132C3088EB9BE090933C0480933B041092D30276
S1132C401092D2021092D1021092D0021092CF02AE
S1132C501092C6021092C5021092C4021092C302CE
S1132C601092C20280919A00806480939A008091AD
S1132C709A00886080939A0080919A00806880937B
S1132C809A0080919A00806180939A0080919A00C2
S1132C90886080939A0080919A00806180939A0062
S1132CA088E180939D0688E480932E041EE71093A8
S1132CB0A4031093BB0310932B051093720548E1F2
S1132CC050E060E070E084EA93E00E9440271093B3
S1132CD0A40383E090E09093A6038093A50310934C
S1132CE0BB0360919D0684EA93E00E94C00740EA1A
S1132CF05FE060E070E088E00E94B501A9C588EB60
S1132D009BE090933C0480933B0480915B038D7F14
S1132D1080935B0348EB5BE060E070E089E09EC079
S1132D20809152038D7F80935203E0909703F0903B
S1132D30A6058F2D99279F938F938E2D99279F9367
S1132D408F9380911701909118019F938F9388EB33
S1132D5091E09F938F930DE416E01F930F930E94CD
S1132D6047274DB75EB7465F5F4F0FB6F8945EBF17
S1132D700FBE4DBFF80101900020E9F73197E01B29
S1132D80F10B8091BD029091BE028F37910520F026
S1132D901092BE021092BD02EE23C9F02091BB0234
S1132DA03091BC02D8014E2F2F37310510F020E0AE
S1132DB030E0F901EB55FB4F8D918083C9010196F9
S1132DC09C01415089F79093BC028093BB0280918F
S1132DD0BF02882361F481E08093BF02E091BD02C9
S1132DE0F091BE02EB55FB4F80810E94520555E0E5
S1132DF0F51611F087E09FC4E0922805F092BC0616
S1132E0044EF51E060E070E087E028C080915D0409
S1132E10813051F49091C103913011F483E011C0D9
S1132E20933009F015C50DC0863009F011C58091A5
S1132E30C103813011F482E004C0823009F008C576
S1132E4081E08093C10304C5809164038D7F8093E6
S1132E50640344E650E060E070E08AE00E942805E4
S1132E60F7C48091A6058231E9F482E190E09F9352
S1132E708F9380911701909118019F938F9388ED00
S1132E8091E09F938F9383E795E09F938F930E94A4
S1132E9047278DB79EB708960FB6F8949EBF0FBE0E
S1132EA08DBF96C0863019F08D3009F047C08091EF
S1132EB0D40299279F938F938091A60599279F9376
S1132EC08F9380911701909118019F938F938BEEAC
S1132ED091E09F938F9383E795E09F938F930E9454
S1132EE04727ADB7BEB71A960FB6F894BEBF0FBE4C
S1132EF0ADBF8091A6058D3019F484E00E94480589
S1132F002091A6053091D4028EE78093A403809388
S1132F10BB038AE090E09093A6038093A503822FDD
S1132F2099279093A8038093A7033093A9036091F2
S1132F309D0684EA93E00E94C0078AC4893009F49C
S1132F4087C499279F938F938091170190911801BB
S1132F509F938F9386E092E09F938F9383E795E00E
S1132F609F938F930E944727EDB7FEB738960FB60D
S1132F70F894FEBF0FBEEDBF2DC080919F069091C7
S1132F80A006029761F58091A1069091A2069F93F5
S1132F908F9380911701909118019F938F9389E1EA
S1132FA092E09F938F9383E795E09F938F930E9482
S1132FB047272DB73EB7285F3F4F0FB6F8943EBF63
S1132FC00FBE2DBF8091A1069091A206429711F4E5
S1132FD080E06FC18091A6050E94230839C48091C6
S1132FE09E0603E715E02091A1063091A2068823EE
S1132FF009F040C080913B0490913C0482179307F0
S113300089F030933C0420933B0480915B038D7FD3
S113301080935B03C901AA27BB27AC01BD0189E0EA
S11330200E9428058091A1069091A2069F938F93F8
S11330308091A00699279F938F9380919F0699274B
S11330409F938F9380911701909118019F938F9371
S11330508DE292E09F938F931F930F930E944727D3
S11330604DB75EB7445F5F4F0FB6F8945EBF0FBEB7
S11330704DBFEEC38091A40699279F938F938091AF
S1133080A30699279F938F933F932F9380911701C2
S1133090909118019F938F938AE492E09F938F936A
S11330A01F930F930E9447278DB79EB70C960FB6B8
S11330B0F8949EBF0FBE8DBF8091A6054091A406D3
S11330C06091A306A5EAB6E0893041F58EE78093C6
S11330D0A4038093BB0389E090E09093A6038093BC
S11330E0A5039093A8038093A7036093A903409337
S11330F0AA032BEA33E080E1F9010D9001928A954D
S1133100E1F760919D06C90107970E94C0078AE014
S113311090E09093A6038093A5039AC39D010E9417
S1133120FB0796C382E080939F03E091BF03F09175
S1133130C003809197038083E091BF03F091C003A3
S11331408091A6058183E091BF03F091C003809133
S11331503B0490913C048283938380911501909168
S113316016018483958380911301909114018683C1
S113317097838091110190911201808791878091AA
S11331800F01909110018287938714861586168605
S1133190178680919F03825F80939F038AE0CBC24E
S11331A08091CE02882309F453C3809176038D7FE6
S11331B0809376030E940A059927182F00270E94FE
S11331C00A059927082B192B0E940A050E9423053A
S11331D08091EB069091EC068330910519F00597E8
S11331E051F036C31092CE02A80160E08091BB0674
S11331F00E94EC0D2DC31092CE02A80160E08091D4
S1133200BB060E94160E24C38091EB069091EC0637
S11332108630910531F0079709F01AC31092CE0257
S113322017C31092CE021092CC0212C38091C9022D
S1133230813031F46BE070E080E090E00E946D0337
S11332408FB7F89499271092C9021092CA02B3C199
S11332508FB7F89499272091A40420930B01E3E0FD
S1133260FE2EF092CB028FBF022F112701301105E1
S113327019F10230110524F40115110541F0E8C2D9
S11332800230110569F103301105D9F1E1C280E082
S11332900E94B00DE82EFF24EE2009F4D9C280E08C
S11332A00E94B705EE2021F4109316010093150136
S11332B081E00E94BF04CCC281E00E94CE0D082FA1
S11332C01127002309F4C4C281E00E94B70500233A
S11332D021F410921401109213010E948B03B8C2BE
S11332E082E00E94B00D082F1127002309F4B0C218
S11332F082E00E94B70560E070E0802F0E94FC0429
S1133300A7C28F2D0E94CE0D082F1127002309F488
S11333109FC28F2D0E94B70560E070E0802F0E944D
S1133320BD0396C26BE070E080E090E00E946D0304
S11333308FC2889890988998919882E1FCC18FB740
S1133340F894282F33279091240590930A0183E061
S11333508093C7022FBF892F9927009711F4BE9A33
S1133360C69A8130910579F0823091051CF4892B3D
S113337021F06EC2029759F06BC281E08093080677
S113338010921C060AC081E08093080604C081E004
S11333908093080682E080931C060E94DD0258C2D6
S11333A01092080680911C06E090A203F090A303FB
S11333B0082F11270130110569F00230110524F49A
S11333C00115110529F00BC00230110529F007C0C1
S11333D080E003C081E001C082E00E942802013045
S11333E01105B9F0023011051CF4012B29F030C28B
S11333F002301105C9F02CC276E0F694E7947A9570
S1133400E1F7F0921201E092110181E00E9493022F
S11334101FC266E0F694E7946A95E1F7F092100112
S1133420E0920F018FE087C156E0F694E7945A9535
S1133430E1F78091A4059091A5052091A003309116
S1133440A10380933107892F992780933007209314
S11334503307832F992780933207E09235078F2D06
S113346099278093340781E066C18091BA02813044
S113347019F582E08093BA020E94D500DC01CB01E9
S1133480809398068FB7F894282F33278091B7023A
S11334909091B802892B11F02FBF0EC081E090E00B
S11334A09093B8028093B7022FBFDD9A64E170E075
S11334B080E090E00E94EA0888E13DC11DEFE12E22
S11334C016E0F12E88E0EDE8F6E0D70101900D92C8
S11334D08A95E1F7E5EFFFEFEE0EFF1E8FEF9FEF0A
S11334E08093F8068FEF90E08093F906BEEDCB2E23
S11334F0C092FC06009195031091960301151105E5
S113350019F085E090E025C0F0929603E0929503CF
S11335108DE08093F206D0900001FFEFDF16C1F436
S1133520C7010E94BB001092000121E0A701BC0169
S11335308C2D0E94480C9927282F882331F0D09293
S113354000011093960300939503822F992701C0DD
S1133550C801882309F47CC189E1EDC083E080932C
S1133560BA0268EE73E080E090E00E94D60170C178
S113357081E08093BA026CC18FB7F89499278FBF0A
S113358083E08093BA022091E5063091E6068091AB
S11335900001E82FFF27EE0FFF1FEB56FC4F808141
S11335A091818217930709F053C14EC18FB7F894E4
S11335B09927109229048FBF4BC18FB7F894082F15
S11335C011278091B602882339F441E050E060E08D
S11335D070E08FE00E94B5010FBF3AC18FB7F89435
S11335E0282F33278091B602882329F080919103F4
S11335F08D7F809391032FBF2BC18FB7F894282F11
S11336003327909109069093030182E08093B302DB
S11336102FBF992309F01CC18FB7F89499272091E3
S113362006018FBF33272130310509F453C02230FE
S113363031051CF4232B51F00BC12230310509F460
S11336407DC02330310509F490C002C1C0988FB702
S1133650F894E82EFF248091B7029091B802029763
S1133660B9F583E090E09093B8028093B70268E1E3
S113367070E08DE10E947D0911E010939303109294
S1133680B60280B39927A6E096958795AA95E1F7A7
S1133690812380932A058EE10E949100812F0E944C
S11336A079096FE772E08CE10E947D09909109012C
S11336B085E0989FC0011124825D9E4F9064BC01F7
S11336C088E10E947D0962EF7AE281E10E947D092E
S11336D0EFBEBEC08FB7F894282F3327409109015D
S11336E0809107019091080189A3892F99278AA3C2
S11336F08091BF069091C0068BA3892F99278CA334
S11337002FBFC09885E0489FC0011124825D9E4F61
S11337109064BC0188E10E947D0924E0AE014F5D04
S11337205F4F60E088E691E00E948D09C09A81E0D5
S11337300E94730A8DE10E9491008AC08FB7F894A9
S113374099272091B1028FBF33272230310521F010
S11337502430310521F006C00E94140C79C00E9467
S1133760FE0A76C00E94F90A73C00E94B10B70C0B1
S1133770A0910003B09101038C919D01280F311D8C
S1133780F9018081881F8827881FFD0182A7F9011C
S113379082919F012F5F3F4FFD0180A7F901808136
S11337A08F77FD0181A700910003109101037BE055
S11337B0E72EF12CE00EF11EC8010E94BB009C0113
S11337C080910101909102012817390719F02F5FA8
S11337D03F4F59F5F80182858E3D39F5F701868111
S11337E09927382F2227F80182899927282B392BEA
S11337F08091BD069091BE0682179307B0F4809124
S1133800F106882339F01092F106809188038D7FA8
S11338108093880388E0E0E3F7E0D7010D900192FC
S11338208A95E1F780E00E949100109301030093D0
S113383000030E94DE0B0CC080910001E82FFF27DB
S1133840EE0FFF1FEB56FC4F108211820E94C10C39
S1133850A4960FB6F894DEBF0FBECDBFDF91CF9113
S11338601F910F91FF90EF90DF90CF90BF90AF909A
S11338709F908F907F906F905F904F90089580916C
S1133880BA068F3FD1F09091BA068091BA06E82F1C
S1133890FF27EF53F94F80818093BA068091BA06CF
S11338A08F3F11F48093E706892F9927FC01EF538A
S11338B0F94F2FEF20839C0102C02FEF30E02F3F00
S11338C019F480E090E00895822F0E94121381E0A1
S11338D090E00895CFEFD0E1DEBFCDBF8FB7F8946D
S11338E0C82F43E250E06FEF70E081EC96E00E9455
S11338F040278FEF8093BA068093E70681E08EBD60
S113390088E080BF83E083BF2CB53DB54AE78CB522
S11339109DB58217930708F441509C014423B9F7DD
S113392092B782B78917E9F32CB53DB592B782B740
S11339308917E9F38CB59DB5821B930B4096A5E0DE
S113394096958795AA95E1F79093A3058093A20590
S113395013BE83B78EBD8EB580BF12BE1DBC1CBC0A
S11339608FEF86BF86B780937C0080B7282F3327DC
S11339702770307021153105C1F7D29AD19AD09AA7
S1133980DA9AD99AD89A25BB8FEF84BBD498DC985D
S11339903DBD2CBD87B7846087BF8EB5887F8460AA
S11339A08EBD16B880B7886080BF80E285BF0E9454
S11339B03F1C8823E1F7809117019091180101962B
S11339C0AA27BB2780932F0490933004A09331043B
S11339D0B09332048FEF809398038091BA028823C6
S11339E019F481E08093BA02B89AD69AD59A809154
S11339F00101909102019093C0068093BF068E98B6
S1133A00B89A8C988DE196E090930103809300031B
S1133A100091A2051091A305C801AA27BB27FCE0C9
S1133A20880F991FAA1FBB1FFA95D1F7BC01CD01BE
S1133A3020E031EE40E050E00E94622CDA01C9013E
S1133A40019789B9892F99278093900082E08BB9D7
S1133A5086E0809395001AB8C801AA27BB277CE0AA
S1133A60880F991FAA1FBB1F7A95D1F7BC01CD01FE
S1133A7020E031EE40E050E00E94622CDA01C901FE
S1133A80019780939900892F99278093980082E069
S1133A9080939B0086E080939D0010929A00109280
S1133AA0BE038FEF9FEFAFEFBFEF8093ED069093D0
S1133AB0EE06A093EF06B093F00600B602FCFDCF2D
S1133AC012BE87B7816087BF83B7887F836000B6E3
S1133AD000FCFDCF83BF0E943F1C8823E1F7CFBFCA
S1133AE07894C0E0D0E082E00E949100E29681E008
S1133AF0C43FD807D9F783E00E9491008FB7F894A8
S1133B00482F4AC087B79927887B892B41F4809135
S1133B107D00282F33272B7F2115310519F020E054
S1133B2030E02AC06F9928C08AB1807C29F5809141
S1133B309A00807C09F5379B03C021E030E01CC06B
S1133B4087B7992783709070892BA1F080B7992744
S1133B5087709070892BD1F781B792B7891B8C300D
S1133B6018F082B7853F18F022E030E005C023E06A
S1133B7030E002C025E030E0E5E02E1708F4E22F43
S1133B8085B7837EFF27EE52FF4F9491892B806285
S1133B9085BF78948895F8948091BA068F3FC9F0D0
S1133BA09091BA068091BA06E82FFF27EF53F94F98
S1133BB080818093BA068091BA068F3F11F4809376
S1133BC0E706892F9927FC01EF53F94F2FEF208344
S1133BD002C08FEF90E08F3F09F494CF4FBF0E9453
S1133BE012138CCF83B783BF00B600FCFDCF0895BA
S1133BF01F920F920FB60F9211242F933F934F935E
S1133C005F936F937F938F939F93AF93BF93CF9360
S1133C10EF93FF930E94F21D87B78D7F87BF78943F
S1133C208FB7F894C82F8091330490913404A091F5
S1133C303504B09136040097A105B10521F485E05F
S1133C400E94910002C00E94CB06CFBFFF91EF916A
S1133C50CF91BF91AF919F918F917F916F915F9120
S1133C604F913F912F910F900FBE0F901F90189579
S1133C701F920F920FB60F9211242F933F934F93DD
S1133C805F936F937F938F939F93AF93BF93EF93C0
S1133C90FF930E94F21D8091940590919505A09147
S1133CA09605B09197050196A11DB11D80939405C9
S1133CB090939505A0939605B09397058091A104E0
S1133CC0882339F081508093A104882311F40E9441
S1133CD0CB06FF91EF91BF91AF919F918F917F910F
S1133CE06F915F914F913F912F910F900FBE0F9065
S1133CF01F9018951F920F920FB60F9211240F90D8
S1133D000FBE0F901F9018951F920F920FB60F922F
S1133D1011242F933F934F935F936F937F938F93CC
S1133D209F93AF93BF93EF93FF9389B78D7F89BF21
S1133D3080E10E949100FF91EF91BF91AF919F911B
S1133D408F917F916F915F914F913F912F910F9040
S1133D500FBE0F901F9018951F920F920FB60F92DF
S1133D6011240F900FBE0F901F9018951F920F9261
S1133D700FB60F9211240F900FBE0F901F9018953D
S1133D801F920F920FB60F9211240F900FBE0F9037
S1133D901F9018951F920F920FB60F9211240F9037
S1133DA00FBE0F901F9018951F920F920FB60F928F
S1133DB011242F933F934F935F936F937F938F932C
S1133DC09F93AF93BF93EF93FF9380912C049091B3
S1133DD02D04019719F40E94CC0B05C08091E906CB
S1133DE08F5F8093E906FF91EF91BF91AF919F910F
S1133DF08F917F916F915F914F913F912F910F9090
S1133E000FBE0F901F9018951F920F920FB60F922E
S1133E1011240F900FBE0F901F9018951F920F92B0
S1133E200FB60F9211242F933F934F935F936F9389
S1133E307F938F939F93AF93BF93EF93FF9364B15B
S1133E4075B178948FB7F894282F33278091E406BE
S1133E50482F469541702FBF282F217080FD1CC02C
S1133E6033988091080699278130910519F00297BB
S1133E7059F028C0442351F07093A3036093A20324
S1133E8087E10E9491001EC0442319F40E94DD02C0
S1133E9019C02093080616C08FB7F89499278FBFCE
S1133EA08FB7F894482F552786B180618777282FDC
S1133EB0332726B98F7B282F332726B98068992783
S1133EC086B94FBFFF91EF91BF91AF919F918F91B1
S1133ED07F916F915F914F913F912F910F900FBE02
S1133EE00F901F9018951F920F920FB60F921124E6
S1133EF08F935F998CB18F910F900FBE0F901F908D
S1133F00189578941F920F920FB60F9211242F9345
S1133F103F934F935F936F937F938F939F93AF934D
S1133F20BF93EF93FF938091BD029091BE020196DF
S1133F309093BE028093BD028F37910520F01092BA
S1133F40BE021092BD028091BB029091BC028F37D9
S1133F50910520F01092BC021092BB02E091BD02C8
S1133F60F091BE028091BB029091BC02E817F90760
S1133F7031F0EB55FB4F80810E94520502C0109234
S1133F80BF02FF91EF91BF91AF919F918F917F916C
S1133F906F915F914F913F912F910F900FBE0F90B2
S1133FA01F9018951F920F920FB60F9211242F9302
S1133FB03F934F935F936F937F938F939F93AF93AD
S1133FC0BF93EF93FF9380919B0087FFD1C14091F2
S1133FD09C008091C002882321F44E3709F0C8C1A7
S1133FE006C02091C102233050F44E3741F481E0E1
S1133FF08093C0024093A7058093C102B9C1E22F08
S1134000FF27E955FA4F40832F5F2093C102309177
S1134010A805333049F580919D06281709F098C109
S11340201092C0024E3709F09BC18091AA0580937B
S1134030A605863021F0893011F08D3081F48AE0B4
S1134040809397038091A6058D3061F48FEF809360
S11340509B03109295068BE00E94910003C082E0BE
S11340608093970389E071C1323009F04CC080918C
S11340709D06281709F06CC11092C0024E3709F052
S11340806FC130939F03E091BF03F091C00380910F
S113409097038083E091BF03F091C0038091A6054C
S11340A08183E091BF03F091C00380913B04909120
S11340B03C04828393838091AE059091AF05848301
S11340C095838091B0059091B10586839783809103
S11340D0B2059091B305808791878091B405909142
S11340E0B505828793878091B6059091B70584873B
S11340F095878091B8059091B905868797878091B7
S11341009F03825F1FC1393009F09DC080919D06D5
S1134110281709F01DC11092C0024E3709F020C1C2
S113412082E080939F038091A6058D30F1F4809105
S1134130AC05833109F016C18091170190911801E3
S11341409F938F9387E692E09F938F9383E795E005
S11341509F938F930E9447278DB79EB706960FB6FD
S1134160F8949EBF0FBE8DBFFDC0893059F488E11D
S1134170A7EAB5E0EDE3F4E00D9001928A95E1F74A
S11341808CE0E3C08E3029F0843019F0853009F0DA
S1134190E9C0E091BF03F091C0038091970380834D
S11341A0E091BF03F091C0038091A6058183E09163
S11341B0BF03F091C00380913B0490913C0482833F
S11341C093838091AE059091AF058483958380910C
S11341D0B0059091B105868397838091B205909143
S11341E0B305808791878091B4059091B505828746
S11341F093878091B6059091B705848795878091C0
S1134200B8059091B9058687978780919F03825F4F
S113421080939F0380911701909118019F938F932E
S11342208EE792E09F938F9383E795E09F938F931C
S11342300E9447278DB79EB706960FB6F8949EBF87
S11342400FBE8DBF81C0313019F03A3009F08AC0F9
S113425080912E04281709F07BC01092C0024E37BB
S113426009F07EC082E080939F03E091BF03F09148
S1134270C003809197038083E091BF03F091C00352
S11342808091A60581838091A6058D3009F03FC0F9
S11342901092CF028FEF80939B038091AC059927F6
S11342A09F938F9380911701909118019F938F93FF
S11342B088E992E09F938F9383E795E09F938F9390
S11342C00E9447278DB79EB708960FB6F8949EBFF5
S11342D00FBE8DBF9091AC05903F19F41092D4029B
S11342E016C08091AE058A3029F48091AF058A3AD0
S11342F039F00AC08A3A41F48091AF058A3021F43A
S113430084E00E94480503C09F5F9093D402E0912B
S1134310BF03F091C0038091AD0582832091BF0358
S11343203091C0038091AD059927AC016EEA75E028
S1134330C90103960E94372780919F039091AD0590
S1134340890F8F5F80939F038AE00E9491000AC0C7
S11343509927029733278217930724F44E3711F4D1
S11343601092C0028091C102813610F01092C002F6
S1134370FF91EF91BF91AF919F918F917F916F9139
S11343805F914F913F912F910F900FBE0F901F900F
S1134390189578941F920F920FB60F9211242F93B1
S11343A03F934F935F936F937F938F939F93AF93B9
S11343B0BF93EF93FF938091C4029091C50201963D
S11343C09093C5028093C4028036910520F0109228
S11343D0C5021092C4028091C2029091C302803639
S11343E0910520F01092C3021092C202E091C4021F
S11343F0F091C5028091C2029091C302E817F907B7
S113440031F0EA53FC4F80810E94B20702C010923F
S1134410C602FF91EF91BF91AF919F918F917F91D0
S11344206F915F914F913F912F910F900FBE0F901D
S11344301F90189578941F920F920FB60F92112423
S11344400F931F932F933F934F935F936F937F9398
S11344508F939F93AF93BF93CF93EF93FF9387B7BC
S11344608F7E87BF78948FB7F894C82F8091B50654
S11344709091B606A091B706B091B8060097A10531
S1134480B10509F066C08091B1029091B202843006
S11344909105D9F18530910518F4039721F047C0AF
S11344A00797D1F144C080B39927B6E096958795D4
S11344B0BA95E1F780FF26C084E090E09093B202C1
S11344C08093B1020E94F401DC01CB012FB7F89470
S11344D0022F11278093370490933804A093390452
S11344E0B0933A0487E090E0A0E0B0E08093B50692
S11344F09093B606A093B706B093B8060E943C0802
S11345000FBF15C00E94140912C00E94640A8823B8
S113451071F40E94FE0A0BC081E090E09093B20215
S11345208093B1021092B9028CE10E9491008091B3
S1134530B7029091B802019771F482E090E09093F1
S1134540B8028093B702DE98DE9A80E00E94410AA6
S113455002C00E943C08CFBFFF91EF91CF91BF9161
S1134560AF919F918F917F916F915F914F913F9107
S11345702F911F910F910F900FBE0F901F901895C0
S113458078941F920F920FB60F9211240F900FBEC2
S11345900F901F90189578941F920F920FB60F9258
S11345A011240F900FBE0F901F90189578941F92AE
S11345B00F920FB60F921124FF920F931F932F9314
S11345C03F934F935F936F937F938F939F93AF9397
S11345D0BF93CF93DF93EF93FF93CCB5DDB580E228
S11345E086BF8FB7F894F82E8091B1029091B202F1
S11345F08530910519F0069739F16AC080E00E9470
S1134600600982E00E94730A87B78F7E87BF86E0C5
S113461090E09093B2028093B102E0915704F0913C
S113462058048181992787709070019721F4C5A758
S11346308D2F992784A780B3992724E09695879591
S11346402A95E1F780FD8AC081E00E946009E0912B
S11346505704F0915804818185FF26C087E090E0DB
S11346609093B2028093B1020E94F401DC01CB0169
S11346702FB7F894022F11278093370490933804AE
S1134680A0933904B0933A0480E890E0A0E0B0E04D
S11346908093B5069093B606A093B706B093B80678
S11346A00E943C080FBF0BC081E090E09093B202DF
S11346B08093B1021092B9028CE10E94910080B300
S11346C0992704E0969587950A95E1F780FF46C0FF
S11346D08091B002882351F50E9460094091070639
S11346E04830A0F480919305840F912D911D9C0175
S11346F0887F9370281BE22FFF27EE0FFF1FE05ED9
S1134700F84FC083D1834F5F4093070681E08093C5
S1134710B002D0939706C093960680B3992714E00D
S1134720969587951A95E1F780FD18C08091B0029F
S11347308823A1F081E00E9460091092B002809168
S1134740960690919706C81BD90B2A9738F4809146
S11347500706882319F0815080930706FFBEFF9156
S1134760EF91DF91CF91BF91AF919F918F917F9105
S11347706F915F914F913F912F911F910F91FF90F6
S11347800F900FBE0F901F90189578941F920F9260
S11347900FB60F9211242F933F938F939F938FB74C
S11347A0F894282F33278091BC039091BD03019680
S11347B09093BD038093BC032FBF9F918F913F9132
S11347C02F910F900FBE0F901F9018951F920F926C
S11347D00FB60F921124CF92DF92EF92FF920F93B4
S11347E01F932F933F934F935F936F937F938F9375
S11347F09F93AF93BF93CF93DF93EF93FF938FB1C7
S1134800282F3327E0919903F0919A03309739F0D8
S11348108091C2039091C303E80FF91F2083809114
S1134820C2039091C30301969093C3038093C20380
S113483080E00E94B6092091C2033091C3038091A5
S11348401A0690911B062817390718F40E94290BA1
S113485046C1E0909903F0909A0310929A03109243
S113486099031092A3041092A20410921B061092B2
S11348701A061092C3031092C2038FB180914B06A3
S113488090914C0620914B0686FFD3C02F7B822F3C
S113489099278E33910509F422C1CF9709F01FC1DE
S11348A0C0910003D0910103188180912C04909150
S11348B02D048230910521F0039709F444C0B4C05B
S11348C083E090E090932D0480932C04412F55278E
S11348D09A012F5F3F4F60919C03862F992782177F
S11348E093077CF40E94F905C09AC09888E00E945E
S11348F0730988E00E947309C09A83E00E94730AD6
S113490090C080E090E0B79B02C081E090E0892BEA
S113491069F481B1992776E0969587957A95E1F7C0
S113492080FD04C0611B615060939C03193220F424
S1134930BE016F5F7F4F02C060E070E080E090E0F6
S11349400E94970BCCC0C09A83E00E94730A8091A6
S11349500706882309F11B3028F180919305E82F7D
S1134960FF27EE0FFF1FE05EF84F808191818DA736
S1134970892F99278CA780919305992701969C01EB
S1134980287F3170821B930B8093930580910706D7
S113499081508093070606C08FEF9FEF8DA78FEF9E
S11349A090E08CA7FE01E10FF11D808187FF39C0E3
S11349B0EF28B9F169816770E0910003F091010378
S11349C0623049F5A0915704B09158042081809138
S11349D0B1029091B202079721F5ED019B81838189
S11349E08917F9F487B78F7E87BF81E08BA7E20F21
S11349F0F11D8291319688A780818F7789A781E004
S1134A0090E09093B2028093B1021092B9028CE1CB
S1134A100E94910006C0613021F481E20E9491005D
S1134A205EC00E94DE0B5BC0C09A83E00E94730AE2
S1134A3056C02E3309F053C0C09A8091B1029091B0
S1134A40B202089739F481E090E09093B202809327
S1134A50B10245C08091A004882349F484E090E029
S1134A609093B2028093B1020E94FE0A38C082E0A1
S1134A700E94730A83E090E09093B2028093B102A3
S1134A800E94D500DC01CB018F71907001969C01CE
S1134A9043E0220F331F4A95E1F7280F391F280FEF
S1134AA0391F7901002711270E94F401DC01CB0191
S1134AB02FB7F894C22EDD248093370490933804E2
S1134AC0A0933904B0933A04E092B506F092B60686
S1134AD00093B7061093B8060E943C08CFBEFF911E
S1134AE0EF91DF91CF91BF91AF919F918F917F9182
S1134AF06F915F914F913F912F911F910F91FF9073
S1134B00EF90DF90CF900F900FBE0F901F901895ED
S1134B10A0E3B0E0EEE8F5E20C94A32C222E332EB1
S1134B20442E552E662E772E882E992E2A2D3B2D17
S1134B30A8E0FE013196AA2E1192AA94E9F72982DF
S1134B403A824B825C826D827E828F829886FE01DD
S1134B503996BA2E1192BA94E9F729873A87CB8607
S1134B60DC86ED86FE860F87188BFE017196119206
S1134B70AA95E9F7C980DA80EB80FC80C9A6DAA699
S1134B80EBA6FCA6870176018FEF9FEFA0E0B0E0D3
S1134B90E822F9220A231B23A9A4BAA4CBA4DCA4E7
S1134BA016014424552489859A85AB85BC858DA737
S1134BB09EA7AFA7B8AB5C016D018FEF9FEFA0E09C
S1134BC0B0E0A822B922CA22DB228DA59EA5AFA5FA
S1134BD0B8A93D0188249924C801B701A60195010B
S1134BE00E94842C69A37AA38BA39CA3C801B70158
S1134BF0A40193010E94842C6DA37EA38FA398A784
S1134C00C201B101A60195010E94842C7B018C0193
S1134C10C201B101A40193010E94842C9B01AC0147
S1134C20A9A0BAA0CBA0DCA0C601AA27BB27ADA02F
S1134C30BEA0CFA0D8A4A80EB91ECA1EDB1EAE0CFF
S1134C40BF1CC01ED11EADA2BEA2CFA2D8A6AE1458
S1134C50BF04C006D10620F4205030404F4F5F4FB0
S1134C60CDA0DEA0EFA0F8A4C701AA27BB27820F1E
S1134C70931FA41FB51F8D8F9E8FAF8FB8A3A6015E
S1134C803327222789A19AA1ABA1BCA1A070B0703F
S1134C90280F391F4A1F5B1F298F3A8F4B8F5C8F58
S1134CA0A98CBA8CCB8CDC8CED8CFE8C0F8D18A16E
S1134CB0ED8AFE8A0F8B188F2D853E854F85588986
S1134CC069A57AA58BA59CA50E94842C3B014C0167
S1134CD08D819E81AF81B885BC01CD012DA53EA5F6
S1134CE04FA558A90E94842CDC01CB01680E791EC3
S1134CF08A1E9B1E8D899E89AF89B88D860D971D4E
S1134D00A81DB91D8D8B9E8BAF8BB88F6D897E8945
S1134D108F89988D2A2D3B2D4C2D5D2DE2E1E09657
S1134D200C94BF2C8F929F92AF92BF92CF92DF923E
S1134D30EF92FF920F93CF93DF93CDB7DEB76897CF
S1134D400FB6F894DEBF0FBECDBFE82E002349F4A2
S1134D50298B3A8B4B8B5C8B6D8B7E8B8F8B988FD7
S1134D606CC088E0FE01319611928A95E9F7298397
S1134D703A834B835C836D837E83EF82988740E222
S1134D80401B14160CF041C08D819E81AF81B88503
S1134D906C017D0104C0CC0CDD1CEE1CFF1C4A958B
S1134DA0D2F7202F332727FD3095022E04C0B69565
S1134DB0A795979587950A94D2F78D879E87AF8795
S1134DC0B88B89819A81AB81BC8104C0B695A795C3
S1134DD0979587952A95D2F78C299D29AE29BF29C5
S1134DE089879A87AB87BC8729853A854B855C85FB
S1134DF06D857E858F859889298B3A8B4B8B5C8B4F
S1134E006D8B7E8B8F8B988F18C01D861E861F8698
S1134E10188A842F992787FD909522273327281BEA
S1134E20390B8D819E81AF81B88504C0B695A79555
S1134E30979587952A95D2F7D3CF29893A894B89B3
S1134E405C896D897E898F89988D68960FB6F894F0
S1134E50DEBF0FBECDBFDF91CF910F91FF90EF90DA
S1134E60DF90CF90BF90AF909F908F900895FB01FB
S1134E70DC0102C001900D9241505040D8F70895D2
S1134E80DC0101C06D9341505040E0F708950F9349
S1134E901F93CF93DF93CDB7DEB72C970FB6F8945B
S1134EA0DEBF0FBECDBF0B891C892D893E8946E02C
S1134EB04C8309831A838FEF9FE78D839E83AE0112
S1134EC0495E5F4FB901CE0101960E947727EF81B9
S1134ED0F885E00FF11F10822C960FB6F894DEBF10
S1134EE00FBECDBFDF91CF911F910F9108952F92E7
S1134EF03F924F925F926F927F928F929F92AF9266
S1134F00BF92CF92DF92EF92FF920F931F93CF93B2
S1134F10DF93CDB7DEB762970FB6F894DEBF0FBE4E
S1134F20CDBFEE24FF2487011C016D877E872A01F3
S1134F30CC24DD24FC01C682D782838181FD80C21A
S1134F408FEF9FEF90C28D859E8501968D879E87FA
S1134F50C0FE63C28F8580538A30D0F49F8590331E
S1134F6039F4662029F4C3FC03C0E0E0F1E093C007
S1134F708AE0689E602C1124FF856F0E20ED620E7E
S1134F8067FE02C0EFE76E2EC3FC5AC2762C58C2ED
S1134F90960173E0369527957A95E1F720FF04C0D2
S1134FA0662011F461E0662E4F85842F992787FDD2
S1134FB09095883691058CF5853691050CF06EC078
S1134FC08335910509F493C084359105CCF48B3273
S1134FD0910509F449C08C3291054CF48032910555
S1134FE009F446C08332910509F44AC010C28D32D7
S1134FF0910509F440C08E32910509F444C007C2FA
S11350008336910509F450C0843691050CF08AC0AA
S11350108835910509F4BCC0FAC18037910509F4BB
S1135020B1C08137910584F48C36910591F18D36A8
S113503091052CF48936910509F474C0E8C18F36C2
S1135040910509F49CC0E3C18537910509F4A2C018
S11350508637910524F48337910571F1D8C18837D7
S1135060910509F495C0D3C180E190E0C82AD92AFA
S1135070E0E2F0E010C080E890E0C82AD92AE0C15C
S1135080E0E4F0E008C088E090E0C82AD92A662469
S1135090D7C1E4E0F0E0CE2ADF2AD2C15FE3E52EF7
S11350A07A94F3E6FF8744C1F20182E090E0480E6F
S11350B0591EE0807A943CC1F20182E090E0480EEF
S11350C0591EA081B1817D0120FF09C0862D992739
S11350D087FD9095BC01CD010E94882A1FC0FD0167
S11350E001900020E9F73197EA1BE88B18C0F20120
S11350F082E090E0480E591E0190F081E02D7F017E
S113510020FF09C0862D992787FD9095BC01CF010A
S11351100E94932A03C0CF010E947F2A888B98891A
S1135120791A06C1C2FE0AC0F20184E090E0480E7A
S1135130591E20813181428153810CC0F20182E0E9
S113514090E0480E591E808191819C01442737FDCF
S11351504095542F79018A0157FF0CC0E2E0F0E03A
S1135160CE2ADF2A10950095F094E094E11CF11CFE
S1135170011D111D8FEB9FEFC822D92227C098E093
S1135180988B08C0E0E4F0E0CE2ADF2AF8E7FF8736
S113519020E1288BC2FE0AC0F20184E090E0480EB0
S11351A0591E20813181428153810AC0F20182E07B
S11351B090E0480E591E808191819C014427552717
S11351C079018A01EFECFFEFCE22DF22CE010196B6
S11351D0898B9A8B9889892E9924AA24BB24C80187
S11351E0B701A50194010E94622CDC01CB01E9897D
S11351F0FA8980838A3024F0FF858F0F815201C0A1
S1135200805DE989FA898193E98BFA8BC801B7013A
S1135210A50194010E94622C79018A0121153105AE
S113522041055105E1F6E98881E090E08C0F9D1F6E
S1135230E81AC60182739070892B09F07A94C6FE2D
S11352400DC0872D992787FD9095E889E03121F4D9
S11352504EEF742E780E02C0782E7A94C3FE0FC0DF
S1135260262D332727FD30958E2D992782179307F6
S11352702CF087EF9FEFC822D92201C06E18560187
S113528033E0B694A7943A95E1F7A0FE02C07618ED
S113529001C07E18C60180789170892B51F4872D46
S11352A07A94181634F4B10180E290E00E944C2AFA
S11352B0F6CFC1FE04C0B1018DE290E00BC0C4FE84
S11352C004C0B1018BE290E005C0C5FE05C0B10188
S11352D080E290E00E944C2AC6FE10C0B10180E337
S11352E090E00E944C2A9889903141F4B101EF85F5
S11352F08E2F992787FD90950E944C2A8D2D9927F2
S113530080FF0AC0872D7A94181634F4B10180E323
S113531090E00E944C2AF6CFA0FE0AC0862D6A9423
S1135320181634F4B10180E390E00E944C2AF6CFC1
S11353305601AA0CAB2CAA1CBB08B194A0FC0AC051
S1135340872D7A94181634F4B10180E290E00E941B
S11353504C2AF6CFFF85F33641F48E2DB1019927FF
S113536087FD90950E944C2A46C02F852337B9F4B7
S113537048894150488B4F3F09F43DC0F701808173
S11353800894E11CF11CB101992787FD90950E94B6
S11353904C2A88898150888B8F3F81F72CC09F8548
S11353A09335A1F4E889E150E88BEF3F21F1F7014F
S11353B08491B10199270E944C2A0894E11CF11CA4
S11353C0F889F150F88BFF3F91F715C06E010894EE
S11353D0C11CD11C89899A898C159D0561F0E989C4
S11353E0FA898291E98BFA8BB101992787FD90950F
S11353F00E944C2AEFCFA0FE0DC0872D7A94181678
S11354004CF4B10180E290E00E944C2AF6CFB10145
S11354100E944C2ACC24DD2413C09F85953241F48C
S113542081E0C82ED12C6624762CEAE0E88B08C0F3
S1135430B101FF858F2F992787FD90950E944C2AF3
S1135440F101838183FF04C0ED85FE85F49103C0DF
S1135450ED85FE85F081FF872F85222309F073CD2A
S1135460F1018681978162960FB6F894DEBF0FBE74
S1135470CDBFDF91CF911F910F91FF90EF90DF90FF
S1135480CF90BF90AF909F908F907F906F905F90E0
S11354904F903F902F9008950F931F93CF93DF93D6
S11354A08C01EB018B81992781FF22C082FF14C0FC
S11354B02E813F818C819D81281739073CF4E88136
S11354C0F9810193E883F9832E813F812F5F3F4F58
S11354D02E833F83C8010EC0E885F985802F099586
S11354E0892B31F4AE81BF811196AE83BF83F2CF95
S11354F08FEF9FEFDF91CF911F910F910895FC01E2
S113550005900020E9F7809590958E0F9F1F0895D0
S1135510FC016150704001900110D8F7809590957E
S11355208E0F9F1F0895FC0161507040059001107B
S1135530D8F7809590958E0F9F1F08955058192E77
S1135540F7D001D0DAC0BA1762077307840795074A
S1135550B1F188F40EF410940B2EBA2FA02D062E60
S1135560622F202D072E732F302D082E842F402DCF
S1135570092E952F502DFF275523B9F0591B49F0BB
S1135580573E98F0469537952795A795F040539543
S1135590C9F776F0BA0F621F731F841F30F4879522
S11355A077956795B795F040939517FA0F2E089560
S11355B0BF1BBB27BA0B620B730B840BF6CFDEF653
S11355C0D4C0592F482F372F262F9FE380E8772701
S11355D06627AED001D091C0552359F0992369F0C4
S11355E09F575F57951B33F442F4903811F4915848
S11355F005C09BC091589F3F09F4B7C0BB27112435
S113560062177307840730F4660F771F881FBB1F68
S1135610915098F311D00F920FD00F920DD0A0E8B3
S11356202617370748071B0609F0A048BA2F602D34
S11356307F918F9100240895A0E8002462177307D6
S11356408407B10528F0621B730B840BB1090A2A85
S1135650660F771F881FBB1FA69581F7089597FBD8
S113566073D09F3738F0FEE9F91B982F872F762FD8
S11356706B2F05C077C09695879577956795F15000
S1135680D0F73EF490958095709561957F4F8F4F3C
S11356909F4F0895E89403C097FB0EF4F3DFB62FF1
S11356A0672F782F892F9EE9002427C00ED05EF043
S11356B004C00BD026F001C008D019F020F48FEFFD
S11356C0089580E0089581E0089597FB092E05264A
S11356D000F8689430D0E89407FC07C06217730799
S11356E08407950721F008F400940794989408958A
S11356F09A95BB0F661F771F881F11249923A1F069
S11357008823B2F79F3F59F0BB0F48F421F40020DF
S113571011F460FF04C06F5F7F4F8F4F9F4F881F4E
S11357209795879597F908951DC09FEF80EC08958C
S1135730052E092607FA440F551F5F3F79F0AA2763
S1135740A51708F051E04795880F991F9F3F31F046
S1135750BB27B91708F091E0879508959F919F9111
S11357601124E3CF66277727882799270895592F8F
S1135770482F372F262FDCDF01D0BFCF992339F0F4
S1135780552329F09F575F57950F13F4CAF1EDCFB6
S113579091589F3FE1F3A62F00241124BB276627CD
S11357A05527F8E0A69520F4020E131EB41F651FBA
S11357B0220F331F441F551FFA95A1F7F8E0E72F76
S11357C07727F8E0E69520F4130EB41F651F7A1FBF
S11357D0330F441F551FAA1FFA95A1F7F82F8827E6
S11357E0F69520F4B40F651F7A1F8E1F440F551FC2
S11357F0AA1FEE1FFF23A1F788231AF4939539F407
S113580094CF000C111CBB1F661F771F881F012833
S1135810089597FD8ACF482F9923F9F195DFF92F41
S1135820FF57F5959F1B9F1BFF93405847953327C0
S1135830222740685FE7E894FF92EF92DF92CF92CD
S1135840BF92AF929F928F92C92ED82EE72EF62E3A
S11358506F2D7E2D8D2D9C2D852E942EA32EB22E54
S1135860BBDE582D492D3A2D2B2D11246CDE9A9533
S1135870592F482F372F262FB216A30694068506D4
S113588039F78F909F90AF90BF90CF90DF90EF90BB
S1135890FF900F90900D002430CF0895AA1BBB1BDE
S11358A051E107C0AA1FBB1FA617B70710F0A61B1C
S11358B0B70B881F991F5A95A9F780959095BC013D
S11358C0CD010895A1E21A2EAA1BBB1BFD010DC038
S11358D0AA1FBB1FEE1FFF1FA217B307E407F5079C
S11358E020F0A21BB30BE40BF50B661F771F881F78
S11358F0991F1A9469F760957095809590959B010E
S1135900AC01BD01CF010895629FD001739FF001E6
S1135910829FE00DF11D649FE00DF11D929FF00D3B
S1135920839FF00D749FF00D659FF00D9927729F72
S1135930B00DE11DF91F639FB00DE11DF91FBD01FD
S1135940CF01112408952F923F924F925F926F924C
S11359507F928F929F92AF92BF92CF92DF92EF92FB
S1135960FF920F931F93CF93DF93CDB7DEB7CA1B7C
S1135970DB0B0FB6F894DEBF0FBECDBF09942A88A7
S1135980398848885F846E847D848C849B84AA844F
S1135990B984C884DF80EE80FD800C811B81AA81DC
S11359A0B981CE0FD11D0FB6F894DEBF0FBECDBFA7
S10759B0ED01089564
S11359B4FF0100FFFFFFFF22001A0304FFFF01FFA2
S11359C4FFFFFFFFFFFFFF010046494E44494E47D6
S11359D4204F5448455253200054454D50004855D7
S11359E44D494400555265640053454E44005245A4
S11359F44345495645002535732041564720537481
S1135A0444657620002534752025347520253675A3
S1135A14005052494F524954593A002539732025AC
S1135A24366C750043505052494F52493A00253957
S1135A347320253675002532782532782532782569
S1135A443278253278253278253278253278002543
S1135A546420433332385F52657365745F54696DEF
S1135A6465723A25640D0A002564206D79417070CD
S1135A74547970653A25582C206D794F7074547993
S1135A8470653A25580D0A002564206765745346E9
S1135A946972655F423A25640D0A002564206765CE
S1135AA47453466972655F4C3A25582C20536571CA
S1135AB43A25640D0A0025642067657453466972A7
S1135AC4655F533A25640D0A00256420522D476509
S1135AD474532D434D445B25645D0D0A00256420F5
S1135AE4522D53432D434D442121205B25642C2006
S1135AF425642C2025645D0D0A00256420522D4F55
S1135B04432D434D442121205B25642C2025642C02
S1135B142025645D0D0A0025642072656376205394
S1135B245542434D44315F4641494C0D0A002564B6
S1135B3420726563762070617273696E675F636F48
S1135B446E74726F6C0D0A0025642070617273693F
S1135B546E675F6C6F6E6744543A25640D0A0000E7
S9030000FC
