S01900006275696C642F7A69676265782F6D61696E2E737265636F
S11300000C9449000C9466000C9466000C946600F1
S11300100C9466000C9466000C9466000C946600C4
S11300200C9466000C9466000C9466000C946600B4
S11300300C9466000C9466000C9466000C94CD033A
S11300400C940D040C9466000C9466000C946600E9
S11300500C9466000C9466000C9466000C94660084
S11300600C9466000C9466000C9466000C94660074
S11300700C9466000C9466000C9466000C94660064
S11300800C9466000C9466000C94660000081C181E
S1130090141011241FBECFEFD0E1DEBFCDBF11E09D
S11300A0A0E0B1E0EEE9F8E000E00BBF02C0079089
S11300B00D92A030B107D9F711E0A0E0B1E001C082
S11300C01D92A132B107E1F70C94B2020C94000026
S11300D08FB7F894992708958FBF0895CF93DF932E
S11300E08FB7F894682F7727A0911301B09114016A
S11300F0C0911501D091160182B706B600FE04C066
S11301001196C11DD11D82B7282F332744275527A7
S113011088279A2FAB2FBC2F822B932BA42BB52B84
S11301206FBFBC01CD01DF91CF910895982F8FB798
S1130130F894282FE92FFF27E25EFE4F80818F3F3E
S1130140B1F480912001891791F080911D018F3FB6
S113015019F490931D0107C080912001E82FFF2717
S1130160E25EFE4F90839093200180E001C085E021
S11301702FBF99270895CF93DF93E0910801E1FF02
S113018034C020910001309101014091020150914D
S11301900301621B730B840B950BA0910401B091B6
S11301A00501C0910601D09107016A177B078C07EE
S11301B09D07D8F0E0FF04C0ED7FE09308010CC078
S11301C02A0F3B1F4C1F5D1F209300013093010138
S11301D040930201509303018FB7F894282F3327DB
S11301E08BB394E089278BBB2FBF81E00E949600DC
S11301F0DF91CF910895AF92BF92CF92DF92EF92A9
S1130200FF920F931F93CF93DF930E946E00FC0124
S1130210EB0120910E0130910F014091100150919A
S113022011017B018C01E21AF30A040B150B1092E5
S1130230120180910A0190910B01A0910C01B091DF
S11302400D01E816F9060A071B07C0F0EE24FF2487
S11302508701280F391F4A1F5B1F20930E0130931B
S11302600F014093100150931101E0920A01F092A2
S11302700B0100930C0110930D0163C05C016D012F
S1130280AE18BF08C00AD10A8601750161E0A6163E
S113029061E0B60660E0C60660E0D60690F080E055
S11302A0A81680E0B80681E0C80680E0D80610F001
S11302B08FEF04C0BB27AD2D9C2D8B2D8093120195
S11302C058C061E8A616B104C104D10430F1C05885
S11302D0DF4FEF4FFF4FC0930E01D0930F01E09318
S11302E01001F0931101C058D040E040F04080E884
S11302F09FEFAFEFBFEFE80EF91E0A1F1B1FE0923E
S11303000A01F0920B0100930C0110930D0190E887
S1130310E92EF12C012D112D14C0280F391F4A1F6D
S11303205B1F20930E0130930F01409310015093F3
S1130330110110920A0110920B0110920C011092FB
S11303400D016E2D82B7282F8C1B8E5F8E1518F031
S1130350622F6E5F01C06C0F662309F461E0615087
S113036000B601FCFDCF61BF82E086BF87B7826023
S113037087BFDF91CF911F910F91FF90EF90DF9096
S1130380CF90BF90AF9008950F931F93DC01CB01E2
S11303906FB7F894062F112780930E0190930F01E5
S11303A0A0931001B093110120930A0130930B0123
S11303B040930C0150930D010E94FB000FBF1F914D
S11303C00F910895EF92FF920F931F9340910901AB
S11303D0442339F58FB7F894282F3327E0900E0182
S11303E0F0900F01009110011091110180910A0108
S11303F090910B01A0910C01B0910D01E80EF91E32
S11304000A1F1B1F2FBF8091190190911A01A091FF
S11304101B01B0911C019C01AD01C801B7010E94F0
S1130420C4010E946E00DC01CB01BC01CD010E941D
S1130430BB001F910F91FF90EF900895EF92FF92F0
S11304400F931F93CF93DF930E946E00FC01EB0187
S11304503FEFE32E3FEFF32E3FEF032F3FE7132F42
S113046060E087B78D7F87BF8091080181FF24C03A
S11304708091000190910101A0910201B0910301CA
S11304809E01AF01281B390B4A0B5B0BDA01C90132
S1130490209104013091050140910601509107011A
S11304A0281B390B4A0B5B0B2E153F0540075107E0
S11304B01CF479018A0161E06623D9F01E141F043B
S11304C0100611062CF0BE01CF010E94BB0011C022
S11304D0E0921901F0921A0100931B0110931C0180
S11304E081E080930901A8019701BE01CF010E9418
S11304F0C401DF91CF911F910F91FF90EF90089568
S113050080911D018F3FC9F090911D0180911D01C3
S1130510E82FFF27E25EFE4F808180931D018091CA
S11305201D018F3F11F480932001892F9927FC012D
S1130530E25EFE4F2FEF208302C08FEF90E08F3FEB
S113054019F480E090E008959927009719F0019735
S113055021F005C00E94E20102C00E941E0281E057
S113056090E00895CFEFD0E1DEBFCDBF8FB7F89410
S1130570C82F8FEF9FEF90931F0180931E018FEF81
S113058080931D018093200181E08EBD88E080BFAF
S113059083E083BF2CB53DB54AE78CB59DB5821782
S11305A0930708F441509C014423B9F792B782B7EA
S11305B08917E9F32CB53DB592B782B78917E9F3EA
S11305C08CB59DB5821B930B409645E09695879517
S11305D04A95E1F7909318018093170113BE83B7EE
S11305E08EBD8EB580BF12BE1DBC1CBC8FEF86BFF6
S11305F086B780937C0080B79927877090700097A6
S1130600D1F7D29AD19AD09ADA9AD99AD89A85BB44
S11306108FEF84BBD498DC9880B7886080BF80E279
S113062085BF0E9480028823E1F700B602FCFDCF5B
S113063012BE87B7816087BF83B7887F836000B6A7
S113064000FCFDCF83BF0E9480028823E1F7CFBF67
S113065078940E946E00DC01CB018093000190939A
S11306600101A0930201B093030188EE93E0A0E09E
S1130670B0E08093040190930501A0930601B09328
S11306800701809108018E7F82608093080181E0D8
S11306900E9496008FB7F894482F4AC087B79927CD
S11306A0887B892B41F480917D00282F33272B7F71
S11306B02115310519F020E030E02AC06F9928C0D7
S11306C08AB1807C29F580919A00807C09F5379B5A
S11306D003C021E030E01CC087B799278370907075
S11306E0892BA1F080B7992787709070892BD1F757
S11306F081B792B7891B8C3018F082B7853F18F008
S113070022E030E005C023E030E002C025E030E024
S1130710E5E02E1708F4E22F85B7837EFF27E45720
S1130720FF4F9491892B806285BF78948895F894C3
S113073080911D018F3FC9F090911D0180911D0191
S1130740E82FFF27E25EFE4F808180931D01809198
S11307501D018F3F11F480932001892F9927FC01FB
S1130760E25EFE4F2FEF208302C08FEF90E08F3FB9
S113077009F494CF4FBF9927009719F0019721F0FE
S113078089CF0E94E20186CF0E941E0283CF83B7E5
S113079083BF00B600FCFDCF08951F920F920FB6E1
S11307A00F9211242F933F934F935F936F937F93F3
S11307B08F939F93AF93BF93CF93EF93FF930E9435
S11307C0C70387B78D7F87BF78948FB7F894C82FF6
S11307D080910A0190910B01A0910C01B0910D013F
S11307E00097A105B10521F480E00E94960002C0A3
S11307F00E94FB00CFBFFF91EF91CF91BF91AF91CA
S11308009F918F917F916F915F914F913F912F9124
S11308100F900FBE0F901F9018951F920F920FB656
S11308200F9211242F933F934F935F936F937F9372
S11308308F939F93AF93BF93EF93FF930E94C7034C
S11308408091130190911401A0911501B0911601AA
S11308500196A11DB11D8093130190931401A093DF
S11308601501B093160180911201882339F081504B
S113087080931201882311F40E94FB00FF91EF91F1
S1130880BF91AF919F918F917F916F915F914F91A4
S11108903F912F910F900FBE0F901F9018955F
S9030000FC
