S01900006275696C642F7A69676265782F6D61696E2E737265636F
S11300000C945D000C94510F0C945B0F0C94830FB3
S11300100C948D0F0C94970F0C94A10F0C94AB0FB0
S11300200C94B50F0C947A000C947A000C947A001A
S11300300C947A000C947A000C947A000C94CF0EF1
S11300400C940F0F0C947A000C9424100C947A00E6
S11300500C9432100C94BF0F0C947A000C947A0018
S11300600C947A000C947A000C947A000C947A0024
S11300700C947A000C947A000C9483100C947A00FB
S11300800C947A120C947A000C947A00E608F50821
S113009027098009F9090A0A4D0A700A670D7D0AC1
S11300A00A0BDE0B1C0C590C6B0C860CF30C030DA9
S11300B0090D2E0D00081C18141011241FBECFEFBB
S11300C0D0E1DEBFCDBF12E0A0E0B1E0E0ECFCE2A5
S11300D000E00BBF02C007900D92A23AB107D9F716
S11300E015E0A2EAB2E001C01D92A93EB107E1F712
S11300F00C949F0D0C9400008FB7F89499270895E1
S11301008FBF0895282F869586958695E82FFF271B
S1130110E35BFC4F277081E090E002C0880F991FD9
S11301202A95E2F720812823822F99270895982F72
S11301308FB7F894282FE92FFF27E453FA4F8081D3
S11301408F3FB1F48091E105891791F08091C90541
S11301508F3F19F49093C90507C08091E105E82FFA
S1130160FF27E453FA4F90839093E10580E001C0A8
S113017085E02FBF99270895FF920F931F93CF9384
S1130180DF93082F8FB7F894F82E8091AE02833056
S113019009F054C080910001801709F04FC080918C
S11301A04D03882309F03EC081E090E0892BE9F5F6
S11301B01091AF02C12FDD272196C230D10511F471
S11301C0C0E0D0E08C2F0E948200882381F4812F2C
S11301D09927C817D90781F78FEF90E08093970488
S11301E081E08093AE0282E10E94970024C08C2FAC
S11301F0869586958695E82FFF27E35BFC4F2C2F89
S1130200277081E090E002C0880F991F2A95E2F7D9
S1130210982F9095808189238083C093AF028C2F7F
S11302209927DCCF80E090E0C1CF82E08093000189
S11302301092AE023798002309F4C698FFBE81E0FD
S113024090E0DF91CF911F910F91FF9008951F933C
S1130250CF93DF93C82F8FB7F894282F3327122F0B
S11302608091AE02882301F18C2F0E9482008823A2
S1130270B1F48C2F869586958695E82FFF27E35B4E
S1130280FC4FC77081E090E002C0880F991FCA95A7
S1130290E2F72081282B208380E090E002C085E0F3
S11302A090E01FBF992719C081E08093AE02C093EC
S11302B097042FBF8FB7F8949927379A8FBF8FB7BA
S11302C0F894C82FDD2780910001823019F482E16F
S11302D00E949700CFBF80E090E0DF91CF911F9103
S11302E0089520916A05822F9927009721F0813083
S11302F0910509F08FE1582F822F9927009711F06B
S1130300019711F428E001C020E033278FB7F89457
S1130310E82F8091E0058E7F8093E005322F27B18E
S113032060E070E0922F929596959695937080E098
S1130330891749F4852F8850863118F42F71521784
S113034011F461E070E0862F880F2091E0052D7F85
S1130350282B852F8F71982F990F990F2378292B8C
S11303602093E0058062992787B9406C217022951B
S1130370220F207E4F7D422B4861383059F5809101
S113038006059091070521E08638920718F087E06A
S113039090E01FC0833C910518F086E090E019C0FE
S11303A08136910518F085E090E013C08033910503
S11303B018F084E090E00DC08831910518F083E0D6
S11303C090E007C00C9718F082E090E002C080E053
S11303D090E0382F3770487F432B842F992786B9B4
S11303E0EFBF0895EF920F931F93AE2D99E0899F6D
S11303F0F0011124ED53FD4F4083518362837383D5
S11304000483158326833783A17080858E7F8A2B8E
S11304108260808782E00E9497001F910F91EF9085
S11304200895CF93DF938FB7F894682F7727A0911F
S11304300205B0910305C0910405D091050582B76A
S113044006B600FE04C01196C11DD11D82B7282F27
S113045033274427552788279A2FAB2FBC2F822B6D
S1130460932BA42BB52B6FBFBC01CD01DF91CF9192
S1130470089597E087FF02C0919A01C09198880F70
S1130480909A9098915097FFF5CF0895982F8FB731
S1130490F894282F89B78D7F89BF82E088BF809127
S11304A06A00886080936A00992321F080916A0031
S11304B0846003C080916A008B7F80936A0089B74F
S11304C0826089BF2FBF80E090E00895982F8FB796
S11304D0F894282F3327422F8091B202882301F108
S11304E0E92FFF27E951FA4F80818F3FA1F4E09172
S11304F00201E91781F0809103018F3F19F4909371
S1130500030104C0FF27E951FA4F9083909302013D
S113051080E090E002C085E090E04FBF9927089505
S113052041E04093B202909317042FBF8091B1022F
S1130530882321F480E10E94970002C04093B00216
S113054080E090E0089530E0232F909A80B39927BB
S11305509695879580FD3160273009F0330F909888
S11305602F5F283090F3899A9198909A909889985F
S1130570919A832F99270895899A919A909A90989D
S11305800895AF92BF92CF92DF92EF92FF920F93B2
S11305901F93F82E5A016B010E941102DC01CB015A
S11305A0EE2496018501AC01BD018F2D0E94F2015C
S11305B01F910F91FF90EF90DF90CF90BF90AF907D
S11305C008959091AC05980F909331039F3F11F4D7
S11305D0109231030895992781FF02C0D99801C070
S11305E0D99A80FF02C0D8980895D89A0895AF92F6
S11305F0BF92CF92DF92EF920F931F935B016C0136
S11306000E941102DC01CB0151E0E52E9601850127
S1130610AC01BD0184E00E94F2011F910F91EF90A3
S1130620DF90CF90BF90AF900895AF92BF92CF92DA
S1130630DF92EF920F931F935B016C010E941102F2
S1130640DC01CB0161E0E62E96018501AC01BD0120
S113065085E00E94F2011F910F91EF90DF90CF90FF
S1130660BF90AF900895CF93982F8FB7F894C82F69
S11306708091B2028330A1F580910101891781F53F
S113068020E030E0809103018F3F11F421E030E05D
S1130690232BD9F48F3F81F0282F3327F901E95117
S11306A0FA4F8081809303018F3F11F480930201FC
S11306B08FEF8083C90102C08FEF90E0809317040D
S11306C081E08093B2028FE009C082E0809301014F
S11306D01092B20281E08093B10281E10E949700FE
S11306E0CFBF81E090E0CF9108951F93CF93DF9324
S11306F0182FEB0180E00E943303112321F4D093DF
S11307000C01C0930B0181E00E946602DF91CF913E
S11307101F9108951F93CF93DF93182FEB0181E06E
S11307200E943303112321F4D0930A01C0930901D9
S113073080E00E942701DF91CF911F9108958FB728
S1130740F894482F552720E089B3992796958795E3
S11307509695879580FD21E089B39927969587958D
S113076080FD2260C89924604FBF822F9927089585
S1130770AF92BF92CF92DF92EF92FF920F931F93AB
S1130780CF93DF930E941102FC01EB01209112042C
S11307903091130440911404509115047B018C0191
S11307A0E21AF30A040B150B109216048091B1039C
S11307B09091B203A091B303B091B403E816F90683
S11307C00A071B07C0F0EE24FF248701280F391FF6
S11307D04A1F5B1F209312043093130440931404A4
S11307E050931504E092B103F092B2030093B30363
S11307F01093B40363C05C016D01AE18BF08C00A56
S1130800D10A8601750161E0A61661E0B60660E0D2
S1130810C60660E0D60690F080E0A81680E0B80630
S113082081E0C80680E0D80610F08FEF04C0BB2733
S1130830AD2D9C2D8B2D8093160458C061E8A6160F
S1130840B104C104D10430F1C058DF4FEF4FFF4F62
S1130850C0931204D0931304E0931404F09315048A
S1130860C058D040E040F04080E89FEFAFEFBFEFCA
S1130870E80EF91E0A1F1B1FE092B103F092B203A7
S11308800093B3031093B403F0E8EF2EF12C012D81
S1130890112D14C0280F391F4A1F5B1F2093120407
S11308A03093130440931404509315041092B1032D
S11308B01092B2031092B3031092B4036E2D82B758
S11308C0282F8C1B8E5F8E1518F0622F6E5F01C06F
S11308D06C0F662309F461E0615000B601FCFDCFA2
S11308E061BF82E086BF87B7826087BFDF91CF9107
S11308F01F910F91FF90EF90DF90CF90BF90AF903A
S113090008950F931F93DC01CB016FB7F894062F62
S113091011278093120490931304A0931404B093AA
S113092015042093B1033093B2034093B30350935F
S1130930B4030E94B8030FBF1F910F910895282F8D
S11309408FB7F89499272CB95E9A8FBF08959C01AC
S11309508091A4029091A5028F37910520F0109206
S1130960A5021092A4026623E1F0D9018091A202AB
S11309709091A3028F37910520F01092A302109258
S1130980A2028091A2029091A302FC01E85EFB4FB7
S11309902D91208301969093A3028093A20261502B
S11309A029F78091A602882361F481E08093A6024E
S11309B0E091A402F091A502E85EFB4F80810E94C1
S11309C09F040895982F8FB7F894282F3327909376
S11309D09C0080919B00806480939B002FBF0895AE
S11309E09C018091AB029091AC028036910520F07D
S11309F01092AC021092AB026623E1F0D90180910F
S1130A00A9029091AA028036910520F01092AA02C0
S1130A101092A9028091A9029091AA02FC01E05BC4
S1130A20FC4F2D91208301969093AA028093A902F2
S1130A30615029F78091AD02882361F481E08093AD
S1130A40AD02E091AB02F091AC02E05BFC4F80811F
S1130A500E94E2040895CF93DF93D9019EE7909317
S1130A60350390934C0329E030E03093370320930F
S1130A7036039927909339038093380360933A039C
S1130A8040933B03ECE3F3E080E1EF010D90099226
S1130A908A95E1F737976091B105CF010E94F00480
S1130AA0DF91CF9108955F926F927F928F929F9280
S1130AB0AF92BF92CF92DF92EF92FF920F931F9368
S1130AC0CF93DF93CDB7DEB7C754D0400FB6F894B9
S1130AD0DEBF0FBECDBF3B014C015524CC24DD2429
S1130AE083ECA82E82E0B82EF501608561FF44C234
S1130AF02081318142815381D401C301821B930B34
S1130B00A40BB50BE480F580068117818E159F0533
S1130B10A007B10708F430C260FF03C06D7F60878F
S1130B200AC02E0D3F1D401F511FD5012D933D932B
S1130B304D935C931397B5E0CB16D10409F4BFC071
S1130B40E6E0CE16D104ECF4F2E0CF16D10409F4B9
S1130B5098C083E0C816D1044CF4C114D104A9F19F
S1130B6091E0C916D10409F48AC006C2A3E0CA16EA
S1130B70D10409F488C0B4E0CB16D10409F485C0CB
S1130B80FBC1E8E0CE16D10409F4A7C1F9E0CF1601
S1130B90D1045CF486E0C816D10409F414C197E0CA
S1130BA0C916D10409F445C1E7C1AAE0CA16D104A3
S1130BB009F497C1BAE0CB16D1040CF442C1EBE0BE
S1130BC0CE16D10409F4ABC1D7C18091BE028F5FA8
S1130BD08093BE028093BC0210926B0563E00E9476
S1130BE03216992391F411E010936B05DA980E9460
S1130BF01102DC01CB01E12E04E610E020E030E03C
S1130C00AC01BD0183E00E94F2018091BE0265E067
S1130C100E9432169923A9F480916B058260809317
S1130C206B05D8980E941102DC01CB0101E0E02E93
S1130C3004E610E020E030E0AC01BD0182E00E9457
S1130C40F2018091BE0269E00E9432169923A9F450
S1130C5080916B05846080936B05D9980E94110282
S1130C60DC01CB0111E0E12E04E610E020E030E0ED
S1130C70AC01BD018E2D0E94F20180E02FC1D99AF2
S1130C807BC1D89A79C1DA9A77C18091C00288234E
S1130C9021F487E00E94EB0208C08091BF028150DA
S1130CA08093BF02DA9AD99AD89A8091BF02882396
S1130CB009F462C164E670E080E090E010C08091C5
S1130CC0BD02E82FFF27EE51FA4FE081823050F049
S1130CD084E08093BF0268EE73E080E090E00E94BD
S1130CE0F7024AC18091C1029091C202892B51F44A
S1130CF08AE0E89FC0011124815F9E4F9093C20255
S1130D008093C102E091C102F091C20280819927CF
S1130D1087FD90958D329105C1F08E3291051CF4BA
S1130D20809721F02EC08E9731F02BC068EC70E0D4
S1130D3080E090E01BC00E949F0380FF12C0DA98FD
S1130D4064E670E080E090E009C00E949F0380FFA9
S1130D5008C0DA986CE271E080E090E00E9415032C
S1130D6010C0DA9A64E670E080E090E00E94150317
S1130D708091C1029091C20201969093C202809325
S1130D80C102E091C102F091C2028081882309F07E
S1130D90F3C08091BD028F5F8093BD020E94EB027D
S1130DA09091BD028AE0989FC0011124815F9E4FFB
S1130DB09093C2028093C10264E670E080E090E008
S1130DC00E941503D9C089E0898389E090E08A8371
S1130DD09B8385E090E08C839D831E828091BC027E
S1130DE099279F938F9383E791E09F938F938E012D
S1130DF0085E1F4F1F930F930E94DB128DB79EB79F
S1130E0006960FB6F8949EBF0FBE8DBF80E1FE011B
S1130E103896D8010D9001928A95E1F787E1DE01B9
S1130E201196E2EBF5E00D9001928A95E1F78AE0E4
S1130E3055C082E08093300382E18093080585E009
S1130E404DC08091AC058F5F8093AC058F3F11F44A
S1130E501092AC059091AC0580913103981709F07C
S1130E608BC08091B60299279F938F9380910D0137
S1130E7090910E019F938F9385E891E09F938F93B8
S1130E8082EE94E09F938F930E94DB12EDB7FEB73E
S1130E9038960FB6F894FEBF0FBEEDBF8091B60230
S1130EA08630B8F48F5F8093B6028630B0F0FE01CE
S1130EB0F89680E1DF011D928A95E9F79F0140E0F1
S1130EC065E1809108050E942B058EE10E94E102F4
S1130ED053C01092B6021092BB0289E00E949700A0
S1130EE04BC08FB7F894082F1127902F80910101E0
S1130EF0823099F48091B202813021F48FE00E9413
S1130F00970009C0823049F480911704809301014D
S1130F1083E08093B2020FBF2FC09FBF2DC080918A
S1130F20E5059091E60585309105C1F0863091057F
S1130F3018F4039731F020C04E97F1F41092B502E3
S1130F401BC01092B5028091CA05682F77276115DE
S1130F50710591F481E00E9475030EC01092B502F0
S1130F608091CA059927009739F0019729F460E028
S1130F7070E081E00E948A035394E9E0F0E0AE0E51
S1130F80BF1E0894C11CD11CFBE0F51508F0ACCDC4
S1130F9082E00E949700C95BDF4F0FB6F894DEBF72
S1130FA00FBECDBFDF91CF911F910F91FF90EF90B6
S1130FB0DF90CF90BF90AF909F908F907F906F9075
S1130FC05F9008959EE79093350390934C0322E03D
S1130FD030E03093370320933603992790933903F5
S1130FE08093380310923A036091B10585E393E04E
S1130FF00E94F00408958998919A909A80B3992751
S11310009695879580FF03C081E090E008959098BD
S113101080E090E00895AF92BF92CF92DF92EF927A
S11310200F931F935B016C010E941102DC01CB0141
S113103031E0E32E96018501AC01BD018BE00E94F5
S1131040F2011F910F91EF90DF90CF90BF90AF907E
S113105008951F93889A90988998919A89B78D7F5B
S113106089BF899A919A909888E0909A9098815033
S113107087FFFBCF899A919A9098909A919890982B
S1131080909A919A90988091E5059091E6058F71D8
S113109090709093E6058093E5058091E5050E94A4
S11310A039020E94FB07882329F01092B50281E0DF
S11310B090E048C02091E5053091E60526303105E1
S11310C061F12730310538F42330310579F02530CA
S11310D0310561F035C02730310599F02E313105E5
S11310E079F56BE070E080E090E008C08998919A0F
S11310F00E9446026EE571E080E090E00E940B08D9
S11311001FC00E94A302182F0E94A3020E94BC02C7
S11311101093B4028DE00E949700809198040E947D
S113112039020E94FB07882321F081E08093B302F7
S113113004C0809198048093B4028DE00E949700CB
S113114080E090E01F910895CF93C82F8B3028F052
S11311506AE00E9432160E94A4082091BD02E22F88
S1131160FF27EE51FA4F8C2F6AE00E9432169083CB
S11311702F5F2093BD02CF9108950E94A40810927E
S1131180BD0280E00E94EB0268EE73E080E090E034
S11311900E94150308958F929F92AF92BF92CF92AF
S11311A0DF92EF92FF920F931F93CF93DF939927D0
S11311B0AA27BB27FC01449708F089C4EA5BFF4FC8
S11311C0EE0FFF1F0590F491E02D099480916B05BB
S11311D0873009F07CC48091CB028D7F8093CB0251
S11311E08091BE020E94BD0872C440912F03442323
S11311F039F58FB7F894282F3327E0901204F09034
S1131200130400911404109115048091B10390917A
S1131210B203A091B303B091B403E80EF91E0A1F00
S11312201B1F2FBF8091AD059091AE05A091AF0516
S1131230B091B0059C01AD01C801B7010E948104C1
S11312400E941102DC01CB01BC01CD0144C00E940B
S113125011024B015C01BFEFEB2EBFEFFB2EBFEF82
S11312600B2FBFE71B2FCC2487B78D7F87BF63EC81
S113127072E0ABE0DA2EEB01888581FF1DC0888126
S11312809981AA81BB81A5019401281B390B4A0BC2
S11312905B0BDA01C9012C813D814E815F81281BE2
S11312A0390B4A0B5B0B2E153F054007510724F4FD
S11312B079018A01F1E0CF2EDA94675F7F4FD7FE80
S11312C0DACFCC2009F403C41E141F04100611063F
S11312D02CF0C501B4010E945305F9C3E092AD0599
S11312E0F092AE050093AF051093B00581E08093B2
S11312F02F03A8019701C501B4010E948104E7C32B
S11313008FEC93E090934F0380934E0382E080939D
S1131310300382E18093080588EB9BE09093B60349
S11313208093B5031092BA021092B9021092B802D7
S11313301092B7021092B6021092AD021092AC0253
S11313401092AB021092AA021092A90280919A0004
S1131350806480939A0080919A00886080939A00B8
S113136080919A00806880939A0080919A008061AD
S113137080939A0080919A00886080939A0080916B
S11313809A00806180939A0088E18093B10588E493
S11313908093B0031EE71093350310934C0310930E
S11313A09A041093E10448E150E060E070E085E3C2
S11313B093E00E94D4121093350383E090E090935D
S11313C037038093360310934C036091B10585E392
S11313D093E00E94F0040E941102DC01CB01E1E0E1
S11313E0EE2E00EA1FE020E030E0AC01BD0187E012
S11313F007C388EB9BE09093B6038093B503809179
S113140013038D7F8093130348EB5BE060E070E08F
S113141088E070C080910A038D7F80930A03F09066
S11314203003C09108058C2F99279F938F938F2D9C
S113143099279F938F9380910D0190910E019F9313
S11314408F938EE991E09F938F930CE615E01F93A1
S11314500F930E94DB124DB75EB7465F5F4F0FB626
S1131460F8945EBF0FBE4DBFF80101900020E9F76C
S11314703197E01BF10B6E2FC8010E94A704C53001
S113148011F083E022C3F0929904C093CB0548EE97
S113149053E060E070E086E02DC08091D30399278B
S11314A09F938F938EEB91E09F938F930CE615E0BF
S11314B01F930F930E94DB128DB79EB706960FB64B
S11314C0F8949EBF0FBE8DBFF80101900020E9F78C
S11314D03197E01BF10B6E2FC8010E94A704F7C2DD
S11314E080911C038D7F80931C0344E650E060E0F0
S11314F070E089E00E94C102EAC28091080582314D
S1131500E9F482E190E09F938F9380910D01909193
S11315100E019F938F938BEC91E09F938F9382EEB8
S113152094E09F938F930E94DB12CDB7DEB7289689
S11315300FB6F894DEBF0FBECDBF97C0863019F04A
S11315408D3009F047C08091BB0299279F938F93F8
S11315508091080599279F938F9380910D01909115
S11315600E019F938F938EED91E09F938F9382EE64
S113157094E09F938F930E94DB12EDB7FEB73A96E7
S11315800FB6F894FEBF0FBEEDBF809108058D30F5
S113159019F484E00E94E102209108053091BB0215
S11315A08EE78093350380934C038AE090E0909318
S11315B0370380933603822F9927909339038093BE
S11315C0380330933A036091B10585E393E00E94B8
S11315D0F0047DC2893009F47AC299279F938F93CE
S11315E080910D0190910E019F938F9389EF91E06B
S11315F09F938F9382EE94E09F938F930E94DB12CC
S11316002DB73EB7285F3F4F0FB6F8943EBF0FBECD
S11316102DBF2DC08091B3059091B405029761F55B
S11316208091B5059091B6059F938F9380910D019C
S113163090910E019F938F938CE092E09F938F93F0
S113164082EE94E09F938F930E94DB124DB75EB7B6
S1131650485F5F4F0FB6F8945EBF0FBE4DBF8091D9
S1131660B5059091B605429711F480E08DC1809143
S113167008050E94E2072BC28091B205C2EED4E0B5
S11316802091B5053091B605882309F03FC08091BB
S1131690B5039091B6038217930789F03093B6038C
S11316A02093B503809113038D7F80931303C901A5
S11316B0AA27BB27AC01BD0188E00E94C10280912A
S11316C0B5059091B6059F938F938091B4059927A2
S11316D09F938F938091B30599279F938F938091C4
S11316E00D0190910E019F938F9380E292E09F935E
S11316F08F93DF93CF930E94DB128DB79EB70C9626
S11317000FB6F8949EBF0FBE8DBFE1C18091B8059E
S113171099279F938F938091B70599279F938F93D0
S11317203F932F9380910D0190910E019F938F937E
S11317308DE392E09F938F93DF93CF930E94DB120C
S1131740CDB7DEB72C960FB6F894DEBF0FBECDBF73
S1131750809108054091B8056091B705A9EBB5E003
S1131760893041F58EE78093350380934C0389E0FB
S113177090E09093370380933603909339038093DA
S1131780380360933A0340933B03ECE3F3E080E1D6
S1131790EF010D9009928A95E1F76091B105CF01AF
S11317A007970E94F0048AE090E0909337038093B7
S11317B036038DC19D010E942B0589C182E080936F
S11317C03203E0914E03F0914F0380913003808304
S11317D0E0914E03F0914F03809108058183E091DD
S11317E04E03F0914F038091B5039091B603828329
S11317F0938380910B0190910C0184839583809154
S1131800090190910A018683978380910701909141
S11318100801808791878091050190910601828754
S11318209387148615861686178680913203825F05
S11318308093320386E049C18091B502882309F47C
S113184046C180912E038D7F80932E030E94A302B4
S11318509927D82FCC270E94A3029927C82BD92BCC
S11318600E94A3020E94BC028091E5059091E605C6
S11318708330910519F0059761F029C11092B502E2
S11318808091CA05882309F022C1BE010E94750314
S11318901EC11092B5028091CA059927009709F4D8
S11318A016C1019709F013C1BE0180E00E948A03AA
S11318B00EC18091E5059091E6058630910531F0E1
S11318C0079709F004C11092B50201C11092B50244
S11318D01092B302FCC0C091B002C13071F40E94F6
S11318E01102DC01CB01EC2E0BE010E020E030E033
S11318F0AC01BD018AE00E94F2018FB7F8949927E8
S11319001092B0021092B1028FBFE1C08FB7F89469
S1131910282F3327909117049093010183E080933B
S1131920B2022FBF892F9927009719F0019779F1F7
S1131930CEC080910401882319F484E090E015C09E
S11319402091B502222319F085E090E00EC081E0D9
S11319508093B50283E090E09093E6058093E505DB
S11319602093CA050E9429089927C82FDD27CC2374
S113197009F4ADC080E00E943303CC2321F410921B
S11319800C0110920B0181E00E946602A0C021E0CC
S113199080910401882319F484E090E014C08091BC
S11319A0B502882319F085E090E00DC02093B502BC
S11319B085E090E09093E6058093E5052093CA05C1
S11319C00E9429089927C82FDD27CC2309F47FC05A
S11319D081E00E943303CC2321F410920A01109277
S11319E0090180E065C00E941102DC01CB0161E0C5
S11319F0E62E0BE010E020E030E0AC01BD018AE00F
S1131A000E94F20164C088989098899891988EE019
S1131A105CC08FB7F894282F332790919704909344
S1131A20000183E08093AE022FBF892F992700978E
S1131A3011F4BE9AC69A009719F0019739F047C07D
S1131A4081E08093690510926A0505C081E0809366
S1131A50690580936A050E94710139C01092690575
S1131A6080916A05C0913303D0913403082F112764
S1131A700115110521F00130110529F008C080E09D
S1131A800E94BC000BC081E00E94BC0003C0011591
S1131A90110521F00130110571F019C056E0D695F9
S1131AA0C7955A95E1F7D0930801C093070181E0E7
S1131AB00E9427010CC046E0D695C7954A95E1F7E8
S1131AC0D0930601C09305018BE00E949700DF913B
S1131AD0CF911F910F91FF90EF90DF90CF90BF9027
S1131AE0AF909F908F9008958091C9058F3FD1F05A
S1131AF09091C9058091C905E82FFF27E453FA4F57
S1131B0080818093C9058091C9058F3F11F480932A
S1131B10E105892F9927FC01E453FA4F2FEF208325
S1131B209C0102C02FEF30E02F3F19F480E090E0D9
S1131B300895822F0E94CB0881E090E00895CFEFB2
S1131B40D0E1DEBFCDBF8FB7F894F82E44E150E06A
S1131B506FEF70E08CEC95E00E94D4128FEF8093CD
S1131B60C9058093E10581E08EBD88E080BF83E0F4
S1131B7083BF2CB53DB54AE78CB59DB58217930755
S1131B8008F441509C014423B9F792B782B78917EE
S1131B90E9F32CB53DB592B782B78917E9F38CB553
S1131BA09DB5821B930B409645E0969587954A9583
S1131BB0E1F7909307058093060513BE83B78EBDA6
S1131BC08EB580BF12BE1DBC1CBC8FEF86BF86B70E
S1131BD080937C0080B79927877090700097D1F725
S1131BE0D29AD19AD09ADA9AD99AD89A85BB8FEF99
S1131BF084BBD498DC9816B880B7886080BF80E234
S1131C0085BF0E94740DC82FDD27CC23D1F712E0C5
S1131C1006E08091060590910705AA27BB273CE0C2
S1131C20880F991FAA1FBB1F3A95D1F7BC01CD019C
S1131C3020E031EE40E050E00E943E16DA01C90196
S1131C40019789B9492F5527409390001BB90093F8
S1131C509500CAB920E030E0809399004093980041
S1131C6010939B0000939D0020939A0020934D03B2
S1131C708FEF9FEF9093E8058093E70500B602FC91
S1131C80FDCF12BE87B7816087BF83B7887F83602B
S1131C9000B600FCFDCF83BF0E94740D8823E1F7DA
S1131CA0FFBE78948DE20E94BD088FB7F894482F48
S1131CB04AC087B79927887B892B41F480917D009E
S1131CC0282F33272B7F2115310519F020E030E030
S1131CD02AC06F9928C08AB1807C29F580919A0026
S1131CE0807C09F5379B03C021E030E01CC087B736
S1131CF0992783709070892BA1F080B799278770FA
S1131D009070892BD1F781B792B7891B8C3018F06A
S1131D1082B7853F18F022E030E005C023E030E0D0
S1131D2002C025E030E0E5E02E1708F4E22F85B785
S1131D30837EFF27EC54FF4F9491892B806285BFEB
S1131D4078948895F8948091C9058F3FC9F0909153
S1131D50C9058091C905E82FFF27E453FA4F808114
S1131D608093C9058091C9058F3F11F48093E105E3
S1131D70892F9927FC01E453FA4F2FEF208302C0E7
S1131D808FEF90E08F3F09F494CF4FBF0E94CB08B0
S1131D908CCF83B783BF00B600FCFDCF08951F929C
S1131DA00F920FB60F9211242F933F934F935F938B
S1131DB06F937F938F939F93AF93BF93CF93EF933F
S1131DC0FF930E94C90E87B78D7F87BF78948FB722
S1131DD0F894C82F8091B1039091B203A091B303FA
S1131DE0B091B4030097A105B10521F481E00E94EC
S1131DF0970002C00E94B803CFBFFF91EF91CF912B
S1131E00BF91AF919F918F917F916F915F914F910E
S1131E103F912F910F900FBE0F901F9018951F9216
S1131E200F920FB60F9211242F933F934F935F930A
S1131E306F937F938F939F93AF93BF93EF93FF938E
S1131E400E94C90E8091020590910305A09104059A
S1131E50B09105050196A11DB11D809302059093D3
S1131E600305A0930405B093050580911604882307
S1131E7039F0815080931604882311F40E94B8032A
S1131E80FF91EF91BF91AF919F918F917F916F914E
S1131E905F914F913F912F910F900FBE0F901F9024
S1131EA018951F920F920FB60F9211240F900FBE28
S1131EB00F901F9018951F920F920FB60F92112436
S1131EC02F933F934F935F936F937F938F939F933E
S1131ED0AF93BF93EF93FF9389B78D7F89BF8CE056
S1131EE00E949700FF91EF91BF91AF919F918F91C5
S1131EF07F916F915F914F913F912F910F900FBE02
S1131F000F901F9018951F920F920FB60F921124E5
S1131F100F900FBE0F901F9018951F920F920FB63F
S1131F200F9211240F900FBE0F901F9018951F92BF
S1131F300F920FB60F9211240F900FBE0F901F90A7
S1131F4018951F920F920FB60F9211240F900FBE87
S1131F500F901F9018951F920F920FB60F92112495
S1131F600F900FBE0F901F9018951F920F920FB6EF
S1131F700F9211240F900FBE0F901F9018951F926F
S1131F800F920FB60F9211242F933F934F935F93A9
S1131F906F937F938F939F93AF93BF93EF93FF932D
S1131FA064B175B178948FB7F894282F3327809152
S1131FB0E005482F469541702FBF282F217080FDE2
S1131FC01CC033988091690599278130910519F0D7
S1131FD0029759F028C0442351F07093340360935E
S1131FE0330383E10E9497001EC0442319F40E9426
S1131FF0710119C02093690516C08FB7F894992709
S11320008FBF8FB7F894482F552786B180618777A3
S1132010282F332726B98F7B282F332726B98068AA
S1132020992786B94FBFFF91EF91BF91AF919F91CF
S11320308F917F916F915F914F913F912F910F906D
S11320400FBE0F901F9018951F920F920FB60F920C
S113205011248F935F998CB18F910F900FBE0F90C5
S11320601F90189578941F920F920FB60F92112417
S11320702F933F934F935F936F937F938F939F938C
S1132080AF93BF93EF93FF938091A4029091A50225
S113209001969093A5028093A4028F37910520F0B6
S11320A01092A5021092A4028091A2029091A30220
S11320B08F37910520F01092A3021092A202E091B2
S11320C0A402F091A5028091A2029091A302E817C4
S11320D0F90731F0E85EFB4F80810E949F0402C043
S11320E01092A602FF91EF91BF91AF919F918F91B2
S11320F07F916F915F914F913F912F910F900FBE00
S11321000F901F9018951F920F920FB60F921124E3
S11321102F933F934F935F936F937F938F939F93EB
S1132120AF93BF93EF93FF9380919B0087FFD1C13F
S113213040919C008091A702882321F44E3709F036
S1132140C8C106C02091A802233050F44E3741F490
S113215081E08093A702409309058093A802B9C146
S1132160E22FFF27E75FFA4F40832F5F2093A802F7
S113217030910A05333049F58091B105281709F0EB
S113218098C11092A7024E3709F09BC180910C05AB
S113219080930805863021F0893011F08D3081F468
S11321A08AE080933003809108058D3061F48FEFCD
S11321B0809331031092AC0587E00E94970003C01E
S11321C082E08093300385E071C1323009F04CC065
S11321D08091B105281709F06CC11092A7024E37FF
S11321E009F06FC130933203E0914E03F0914F0335
S11321F0809130038083E0914E03F0914F038091EE
S113220008058183E0914E03F0914F038091B5035B
S11322109091B60382839383809110059091110568
S11322208483958380911205909113058683978307
S113223080911405909115058087918780911605EA
S113224090911705828793878091180590911905BD
S11322508487958780911A0590911B0586879787B7
S113226080913203825F1FC1393009F09DC0809193
S1132270B105281709F01DC11092A7024E3709F0C5
S113228020C182E080933203809108058D30F1F4FF
S113229080910E05833109F016C180910D01909152
S11322A00E019F938F938AE592E09F938F9382EE22
S11322B094E09F938F930E94DB128DB79EB706968E
S11322C00FB6F8949EBF0FBE8DBFFDC0893059F480
S11322D088E1A9E0B5E0E7EBF3E00D9001928A957F
S11322E0E1F788E0E3C08E3029F0843019F08530BE
S11322F009F0E9C0E0914E03F0914F03809130035F
S11323008083E0914E03F0914F038091080581830F
S1132310E0914E03F0914F038091B5039091B60381
S11323208283938380911005909111058483958312
S113233080911205909113058683978380911405EB
S113234090911505808791878091160590911705C6
S113235082879387809118059091190584879587C2
S113236080911A0590911B05868797878091320387
S1132370825F8093320380910D0190910E019F93AF
S11323808F9381E792E09F938F9382EE94E09F93E3
S11323908F930E94DB128DB79EB706960FB6F89402
S11323A09EBF0FBE8DBF81C0313019F03A3009F0A5
S11323B08AC08091B003281709F07BC01092A7024D
S11323C04E3709F07EC082E080933203E0914E03E1
S11323D0F0914F03809130038083E0914E03F0919C
S11323E04F03809108058183809108058D3009F0A1
S11323F03FC01092B6028FEF8093310380910E0597
S113240099279F938F9380910D0190910E019F9333
S11324108F938BE892E09F938F9382EE94E09F9347
S11324208F930E94DB128DB79EB708960FB6F8946F
S11324309EBF0FBE8DBF90910E05903F19F4109270
S1132440BB0216C0809110058A3029F480911105D1
S11324508A3A39F00AC08A3A41F4809111058A30E7
S113246021F484E00E94E10203C09F5F9093BB02C9
S1132470E0914E03F0914F0380910F0582832091E8
S11324804E0330914F0380910F059927AC0160E111
S113249075E0C90103960E94CB128091320390919A
S11324A00F05890F8F5F8093320386E00E949700A7
S11324B00AC09927029733278217930724F44E37CB
S11324C011F41092A7028091A802813610F01092A4
S11324D0A702FF91EF91BF91AF919F918F917F914F
S11324E06F915F914F913F912F910F900FBE0F907D
S11324F01F90189578941F920F920FB60F92112483
S11325002F933F934F935F936F937F938F939F93F7
S1132510AF93BF93EF93FF938091AB029091AC0282
S113252001969093AC028093AB028036910520F023
S11325301092AC021092AB028091A9029091AA026F
S11325408036910520F01092AA021092A902E0911F
S1132550AB02F091AC028091A9029091AA02E81713
S1132560F90731F0E05BFC4F80810E94E20402C075
S11325701092AD02FF91EF91BF91AF919F918F9116
S11325807F916F915F914F913F912F910F900FBE6B
S11325900F901F901895FB01DC0102C001900D9271
S11325A041505040D8F70895DC0101C06D9341506B
S11325B05040E0F708950F931F93CF93DF93CDB767
S11325C0DEB72C970FB6F894DEBF0FBECDBF0B89D4
S11325D01C892D893E8946E04C8309831A838FEF39
S11325E09FE78D839E83AE01495E5F4FB901CE01A3
S11325F001960E940B13EF81F885E00FF11F108202
S11326002C960FB6F894DEBF0FBECDBFDF91CF91ED
S11326101F910F9108952F923F924F925F926F9264
S11326207F928F929F92AF92BF92CF92DF92EF925E
S1132630FF920F931F93CF93DF93CDB7DEB76297CB
S11326400FB6F894DEBF0FBECDBFEE24FF24870182
S11326501C016D877E872A01CC24DD24FC01C682FF
S1132660D782838181FD80C28FEF9FEF90C28D85D9
S11326709E8501968D879E87C0FE63C28F85805399
S11326808A30D0F49F85903339F4662029F4C3FC52
S113269003C0E0E0F1E093C08AE0689E602C11245E
S11326A0FF856F0E20ED620E67FE02C0EFE76E2E0F
S11326B0C3FC5AC2762C58C2960173E0369527950E
S11326C07A95E1F720FF04C0662011F461E0662EDC
S11326D04F85842F992787FD9095883691058CF531
S11326E0853691050CF06EC08335910509F493C0CD
S11326F084359105CCF48B32910509F449C08C32B0
S113270091054CF48032910509F446C08332910559
S113271009F44AC010C28D32910509F440C08E32CA
S1132720910509F444C007C28336910509F450C0E9
S1132730843691050CF08AC08835910509F4BCC033
S1132740FAC18037910509F4B1C08137910584F449
S11327508C36910591F18D3691052CF489369105CD
S113276009F474C0E8C18F36910509F49CC0E3C133
S11327708537910509F4A2C08637910524F483377F
S1132780910571F1D8C18837910509F495C0D3C179
S113279080E190E0C82AD92AE0E2F0E010C080E8A5
S11327A090E0C82AD92AE0C1E0E4F0E008C088E05B
S11327B090E0C82AD92A6624D7C1E4E0F0E0CE2A02
S11327C0DF2AD2C15FE3E52E7A94F3E6FF8744C1A2
S11327D0F20182E090E0480E591EE0807A943CC1F8
S11327E0F20182E090E0480E591EA081B1817D0182
S11327F020FF09C0862D992787FD9095BC01CD0146
S11328000E941C161FC0FD0101900020E9F73197BA
S1132810EA1BE88B18C0F20182E090E0480E591ED2
S11328200190F081E02D7F0120FF09C0862D9927BA
S113283087FD9095BC01CF010E94271603C0CF01EC
S11328400E941316888B9889791A06C1C2FE0AC0A1
S1132850F20184E090E0480E591E208131814281CA
S113286053810CC0F20182E090E0480E591E808131
S113287091819C01442737FD4095542F79018A01A9
S113288057FF0CC0E2E0F0E0CE2ADF2A1095009555
S1132890F094E094E11CF11C011D111D8FEB9FEFDE
S11328A0C822D92227C098E0988B08C0E0E4F0E061
S11328B0CE2ADF2AF8E7FF8720E1288BC2FE0AC070
S11328C0F20184E090E0480E591E2081318142815A
S11328D053810AC0F20182E090E0480E591E8081C3
S11328E091819C014427552779018A01EFECFFEF80
S11328F0CE22DF22CE010196898B9A8B9889892E6C
S11329009924AA24BB24C801B701A50194010E94FB
S11329103E16DC01CB01E989FA8980838A3024F0F0
S1132920FF858F0F815201C0805DE989FA89819307
S1132930E98BFA8BC801B701A50194010E943E16E8
S113294079018A012115310541055105E1F6E9882E
S113295081E090E08C0F9D1FE81AC601827390708D
S1132960892B09F07A94C6FE0DC0872D992787FD1F
S11329709095E889E03121F44EEF742E780E02C070
S1132980782E7A94C3FE0FC0262D332727FD309569
S11329908E2D9927821793072CF087EF9FEFC8227B
S11329A0D92201C06E18560133E0B694A7943A9523
S11329B0E1F7A0FE02C0761801C07E18C601807837
S11329C09170892B51F4872D7A94181634F4B1013F
S11329D080E290E00E94E015F6CFC1FE04C0B10190
S11329E08DE290E00BC0C4FE04C0B1018BE290E024
S11329F005C0C5FE05C0B10180E290E00E94E0156B
S1132A00C6FE10C0B10180E390E00E94E0159889F1
S1132A10903141F4B101EF858E2F992787FD909570
S1132A200E94E0158D2D992780FF0AC0872D7A9486
S1132A30181634F4B10180E390E00E94E015F6CF5B
S1132A40A0FE0AC0862D6A94181634F4B10180E3FE
S1132A5090E00E94E015F6CF5601AA0CAB2CAA1CFC
S1132A60BB08B194A0FC0AC0872D7A94181634F4DC
S1132A70B10180E290E00E94E015F6CFFF85F336C5
S1132A8041F48E2DB101992787FD90950E94E015A0
S1132A9046C02F852337B9F448894150488B4F3FAE
S1132AA009F43DC0F70180810894E11CF11CB101D7
S1132AB0992787FD90950E94E01588898150888B1D
S1132AC08F3F81F72CC09F859335A1F4E889E150AD
S1132AD0E88BEF3F21F1F7018491B10199270E941E
S1132AE0E0150894E11CF11CF889F150F88BFF3FC4
S1132AF091F715C06E010894C11CD11C89899A896B
S1132B008C159D0561F0E989FA898291E98BFA8B2C
S1132B10B101992787FD90950E94E015EFCFA0FEA3
S1132B200DC0872D7A9418164CF4B10180E290E020
S1132B300E94E015F6CFB1010E94E015CC24DD24FB
S1132B4013C09F85953241F481E0C82ED12C6624B0
S1132B50762CEAE0E88B08C0B101FF858F2F992716
S1132B6087FD90950E94E015F101838183FF04C0E5
S1132B70ED85FE85F49103C0ED85FE85F081FF8728
S1132B802F85222309F073CDF10186819781629606
S1132B900FB6F894DEBF0FBECDBFDF91CF911F916A
S1132BA00F91FF90EF90DF90CF90BF90AF909F90E8
S1132BB08F907F906F905F904F903F902F900895EB
S1132BC00F931F93CF93DF938C01EB018B81992794
S1132BD081FF22C082FF14C02E813F818C819D81A0
S1132BE0281739073CF4E881F9810193E883F983D4
S1132BF02E813F812F5F3F4F2E833F83C8010EC03C
S1132C00E885F985802F0995892B31F4AE81BF8140
S1132C101196AE83BF83F2CF8FEF9FEFDF91CF91F9
S1132C201F910F910895FC0105900020E9F780950C
S1132C3090958E0F9F1F0895FC0161507040019084
S1132C400110D8F7809590958E0F9F1F0895FC0171
S1132C506150704005900110D8F7809590958E0FC3
S1132C609F1F0895991B79E004C0991F961708F0D7
S1132C70961B881F7A95C9F780950895A1E21A2EAC
S1132C80AA1BBB1BFD010DC0AA1FBB1FEE1FFF1F0C
S1132C90A217B307E407F50720F0A21BB30BE40B5C
S1132CA0F50B661F771F881F991F1A9469F76095A3
S1132CB07095809590959B01AC01BD01CF0108955D
S1132CC00202FFFF01FFFFFFFFFFFFFFFF01002DD7
S1132CD02D2D2D2D20000000002E2D2D2D2D20001A
S1132CE00000002E2E2D2D2D20000000002E2E2E53
S1132CF02D2D20000000002E2E2E2E2D2000000051
S1132D00002E2E2E2E2E20000000002D2E2E2E2ED4
S1132D1020000000002D2D2E2E2E20000000002D5E
S1132D202D2D2E2E20000000002D2D2D2D2E2000C7
S1132D3000000020202020202020202025642020A6
S1132D402020202000256420433332385F526573ED
S1132D5065745F54696D65723A25640D0A002564D3
S1132D60206D79417070547970653A25582C206D26
S1132D70794F7074547970653A25580D0A00544C93
S1132D8043442053573A25640D0A0025642067659F
S1132D907453466972655F423A25640D0A002564DE
S1132DA02067657453466972655F4C3A25582C2038
S1132DB05365713A25640D0A0025642067657453D0
S1132DC0466972655F533A25640D0A0025642052F2
S1132DD02D476574532D434D445B25645D0D0A00F6
S1132DE0256420522D53432D434D442121205B253E
S1132DF0642C2025642C2025645D0D0A00256420A4
S1132E00522D4F432D434D442121205B25642C201A
S1132E1025642C2025645D0D0A00256420726563F9
S1132E207620535542434D44315F4641494C0D0A87
S1132E3000256420726563762070617273696E6721
S1132E405F636F6E74726F6C0D0A0025642070618D
S1132E507273696E675F6C6F6E6744543A25640DD4
S1052E600A0062
S9030000FC
