S01900006275696C642F7A69676265782F6D61696E2E737265636F
S11300000C945D000C94A20F0C94AC0F0C94D40FC0
S11300100C94DE0F0C94E80F0C94F20F0C94FC0F6C
S11300200C9406100C947A000C947A000C947A00C8
S11300300C947A000C947A000C947A000C94200F9F
S11300400C94600F0C947A000C9475100C947A0044
S11300500C9483100C9410100C947A000C947A0075
S11300600C947A000C947A000C947A000C947A0024
S11300700C947A000C947A000C94D4100C947A00AA
S11300800C94CB120C947A000C947A0025093B0949
S11300906D09C6093F0A500A930AB60AAD0DC30A90
S11300A0500B240C620C9F0CB10CCC0C390D490D77
S11300B04F0D740D00081C18141011241FBECFEF2F
S11300C0D0E1DEBFCDBF12E0A0E0B1E0E2E6FDE2A8
S11300D000E00BBF02C007900D92A23AB107D9F716
S11300E015E0A2EAB2E001C01D92AA3EB107E1F711
S11300F00C94E50D0C9400008FB7F894992708959B
S11301008FBF0895282F869586958695E82FFF271B
S1130110E25BFC4F277081E090E002C0880F991FDA
S11301202A95E2F720812823822F99270895982F72
S11301308FB7F894282FE92FFF27E353FA4F8081D4
S11301408F3FB1F48091E205891791F08091CA053F
S11301508F3F19F49093CA0507C08091E205E82FF8
S1130160FF27E353FA4F90839093E20580E001C0A8
S113017085E02FBF99270895FF920F931F93CF9384
S1130180DF93082F8FB7F894F82E8091AE02833056
S113019009F054C080910001801709F04FC080918C
S11301A04E03882309F03EC081E090E0892BE9F5F5
S11301B01091AF02C12FDD272196C230D10511F471
S11301C0C0E0D0E08C2F0E948200882381F4812F2C
S11301D09927C817D90781F78FEF90E08093980487
S11301E081E08093AE0282E10E94970024C08C2FAC
S11301F0869586958695E82FFF27E25BFC4F2C2F8A
S1130200277081E090E002C0880F991F2A95E2F7D9
S1130210982F9095808189238083C093AF028C2F7F
S11302209927DCCF80E090E0C1CF82E08093000189
S11302301092AE023798002309F4C698FFBE81E0FD
S113024090E0DF91CF911F910F91FF9008951F933C
S1130250CF93DF93C82F8FB7F894282F3327122F0B
S11302608091AE02882301F18C2F0E9482008823A2
S1130270B1F48C2F869586958695E82FFF27E25B4F
S1130280FC4FC77081E090E002C0880F991FCA95A7
S1130290E2F72081282B208380E090E002C085E0F3
S11302A090E01FBF992719C081E08093AE02C093EC
S11302B098042FBF8FB7F8949927379A8FBF8FB7B9
S11302C0F894C82FDD2780910001823019F482E16F
S11302D00E949700CFBF80E090E0DF91CF911F9103
S11302E0089520916B05822F9927009721F0813082
S11302F0910509F08FE1582F822F9927009711F06B
S1130300019711F428E001C020E033278FB7F89457
S1130310E82F8091E1058E7F8093E105322F27B18C
S113032060E070E0922F929596959695937080E098
S1130330891749F4852F8850863118F42F71521784
S113034011F461E070E0862F880F2091E1052D7F84
S1130350282B852F8F71982F990F990F2378292B8C
S11303602093E1058062992787B9406C217022951A
S1130370220F207E4F7D422B4861383059F5809101
S113038007059091080521E08638920718F087E068
S113039090E01FC0833C910518F086E090E019C0FE
S11303A08136910518F085E090E013C08033910503
S11303B018F084E090E00DC08831910518F083E0D6
S11303C090E007C00C9718F082E090E002C080E053
S11303D090E0382F3770487F432B842F992786B9B4
S11303E0EFBF0895EF920F931F93AE2D99E0899F6D
S11303F0F0011124EC53FD4F4083518362837383D6
S11304000483158326833783A17080858E7F8A2B8E
S11304108260808782E00E9497001F910F91EF9085
S11304200895CF93DF938FB7F894682F7727A0911F
S11304300305B0910405C0910505D091060582B766
S113044006B600FE04C01196C11DD11D82B7282F27
S113045033274427552788279A2FAB2FBC2F822B6D
S1130460932BA42BB52B6FBFBC01CD01DF91CF9192
S1130470089597E087FF02C0919A01C09198880F70
S1130480909A9098915097FFF5CF0895982F8FB731
S1130490F894282F89B78D7F89BF82E088BF809127
S11304A06A00886080936A00992321F080916A0031
S11304B0846003C080916A008B7F80936A0089B74F
S11304C0826089BF2FBF80E090E00895982F8FB796
S11304D0F894282F3327422F8091B202882301F108
S11304E0E92FFF27E851FA4F80818F3FA1F4E09173
S11304F00201E91781F0809103018F3F19F4909371
S1130500030104C0FF27E851FA4F9083909302013E
S113051080E090E002C085E090E04FBF9927089505
S113052041E04093B202909318042FBF8091B1022E
S1130530882321F480E10E94970002C04093B00216
S113054080E090E0089530E0232F909A80B39927BB
S11305509695879580FD3160273009F0330F909888
S11305602F5F283090F3899A9198909A909889985F
S1130570919A832F99270895899A919A909A90989D
S11305800895AF92BF92CF92DF92EF92FF920F93B2
S11305901F93F82E5A016B010E941102DC01CB015A
S11305A0EE2496018501AC01BD018F2D0E94F2015C
S11305B01F910F91FF90EF90DF90CF90BF90AF907D
S11305C008959091AD05980F909332039F3F11F4D5
S11305D0109232030895992782FF02C0DA9801C06D
S11305E0D99A81FF02C0D99801C0D99A80FF02C06C
S11305F0D8980895D89A0895AF92BF92CF92DF9277
S1130600EF920F931F935B016C010E941102DC01B6
S1130610CB0151E0E52E96018501AC01BD0184E0DA
S11306200E94F2011F910F91EF90DF90CF90BF9045
S1130630AF900895AF92BF92CF92DF92EF920F9353
S11306401F935B016C010E941102DC01CB0161E08C
S1130650E62E96018501AC01BD0185E00E94F20100
S11306601F910F91EF90DF90CF90BF90AF900895BE
S1130670CF93982F8FB7F894C82F8091B20283300C
S1130680A1F580910101891781F520E030E0809186
S113069003018F3F11F421E030E0232BD9F48F3F85
S11306A081F0282F3327F901E851FA4F8081809394
S11306B003018F3F11F4809302018FEF8083C901FE
S11306C002C08FEF90E08093180481E08093B2021F
S11306D08FE009C082E0809301011092B20281E0B0
S11306E08093B10281E10E949700CFBF81E090E046
S11306F0CF9108951F93CF93DF93182FEB0180E0E0
S11307000E943803112321F4D0930C01C0930B01F0
S113071081E00E946602DF91CF911F9108951F939B
S1130720CF93DF93182FEB0181E00E94380311234C
S113073021F4D0930A01C093090180E00E942701AB
S1130740DF91CF911F9108958FB7F894482F5527C3
S113075020E089B39927969587959695879580FD8E
S113076021E089B399279695879580FD2260C899E1
S113077024604FBF822F992708951092A6021092E9
S1130780A5021092A4021092A3021092A202569AF9
S1130790539A579A549A539A549A80E090E0089541
S11307A0AF92BF92CF92DF92EF92FF920F931F937B
S11307B0CF93DF930E941102FC01EB0120911304FB
S11307C03091140440911504509116047B018C015E
S11307D0E21AF30A040B150B109217048091B2036A
S11307E09091B303A091B403B091B503E816F90650
S11307F00A071B07C0F0EE24FF248701280F391FC6
S11308004A1F5B1F20931304309314044093150470
S113081050931604E092B203F092B3030093B4032E
S11308201093B50363C05C016D01AE18BF08C00A24
S1130830D10A8601750161E0A61661E0B60660E0A2
S1130840C60660E0D60690F080E0A81680E0B80600
S113085081E0C80680E0D80610F08FEF04C0BB2703
S1130860AD2D9C2D8B2D8093170458C061E8A616DE
S1130870B104C104D10430F1C058DF4FEF4FFF4F32
S1130880C0931304D0931404E0931504F093160456
S1130890C058D040E040F04080E89FEFAFEFBFEF9A
S11308A0E80EF91E0A1F1B1FE092B203F092B30375
S11308B00093B4031093B503F0E8EF2EF12C012D4F
S11308C0112D14C0280F391F4A1F5B1F20931304D6
S11308D03093140440931504509316041092B203F9
S11308E01092B3031092B4031092B5036E2D82B725
S11308F0282F8C1B8E5F8E1518F0622F6E5F01C03F
S11309006C0F662309F461E0615000B601FCFDCF71
S113091061BF82E086BF87B7826087BFDF91CF91D6
S11309201F910F91FF90EF90DF90CF90BF90AF9009
S113093008950F931F93DC01CB016FB7F894062F32
S113094011278093130490931404A0931504B09377
S113095016042093B2033093B3034093B40350932B
S1130960B5030E94D0030FBF1F910F910895282F44
S11309708FB7F89499272CB95E9A8FBF08959C017C
S11309808091A4029091A5028F37910520F01092D6
S1130990A5021092A4026623E1F0D9018091A2027B
S11309A09091A3028F37910520F01092A302109228
S11309B0A2028091A2029091A302FC01E75EFB4F88
S11309C02D91208301969093A3028093A2026150FB
S11309D029F78091A602882361F481E08093A6021E
S11309E0E091A402F091A502E75EFB4F80810E9492
S11309F0B7040895982F8FB7F894282F332790932E
S1130A009C0080919B00806480939B002FBF08957D
S1130A109C018091AB029091AC028036910520F04C
S1130A201092AC021092AB026623E1F0D9018091DE
S1130A30A9029091AA028036910520F01092AA0290
S1130A401092A9028091A9029091AA02FC01EF5A86
S1130A50FC4F2D91208301969093AA028093A902C2
S1130A60615029F78091AD02882361F481E080937D
S1130A70AD02E091AB02F091AC02EF5AFC4F8081E1
S1130A800E94FA040895CF93DF93D9019EE79093CF
S1130A90360390934D0329E030E0309338032093DC
S1130AA03703992790933A038093390360933B0368
S1130AB040933C03EDE3F3E080E1EF010D900992F4
S1130AC08A95E1F737976091B205CF010E94080536
S1130AD0DF91CF9108959EE79093360390934D0351
S1130AE022E030E030933803209337039927909322
S1130AF03A038093390310923B036091B20586E375
S1130B0093E00E94080508958998919A909A80B379
S1130B1099279695879580FF03C081E090E008951A
S1130B20909880E090E00895AF92BF92CF92DF92C8
S1130B30EF920F931F935B016C010E941102DC0181
S1130B40CB0111E0E12E96018501AC01BD018BE0E2
S1130B500E94F2011F910F91EF90DF90CF90BF9010
S1130B60AF9008951F93889A90988998919A89B71D
S1130B708D7F89BF899A919A909888E0909A9098ED
S1130B80815087FFFBCF899A919A9098909A919877
S1130B909098909A919A90988091E6059091E705A3
S1130BA08F7190709093E7058093E6058091E60538
S1130BB00E9439020E948405882329F01092B5020C
S1130BC081E090E048C02091E6053091E7052630A9
S1130BD0310561F12730310538F42330310579F0DE
S1130BE02530310561F035C02730310599F02E31BB
S1130BF0310579F56BE070E080E090E008C08998F9
S1130C00919A0E9446026EE571E080E090E00E94B5
S1130C1094051FC00E94A302182F0E94A3020E94E1
S1130C20BC021093B4028DE00E9497008091990455
S1130C300E9439020E948405882321F081E0809378
S1130C40B30204C0809199048093B4028DE00E94A1
S1130C50970080E090E01F910895CF93C82F8B30C8
S1130C6028F06AE00E9483160E942D062091BE029D
S1130C70E22FFF27ED51FA4F8C2F6AE00E94831672
S1130C8090832F5F2093BE02CF910895853620F084
S1130C9084E68093BC0208958093BD0242E050E054
S1130CA06FEF7FEF83EE95E00E9425138091BD02E4
S1130CB00E942D061092BE0280E00E94EB0268EEB4
S1130CC073E080E090E00E941A0308955F926F92AF
S1130CD07F928F929F92AF92BF92CF92DF92EF92C8
S1130CE0FF920F931F93CF93DF93CDB7DEB7C75413
S1130CF0D0400FB6F894DEBF0FBECDBF3B014C0110
S1130D005524CC24DD2434ECA32E32E0B32EF5019B
S1130D10608561FF59C22081318142815381D401B0
S1130D20C301821B930BA40BB50BE480F5800681F1
S1130D3017818E159F05A007B10708F445C260FF0F
S1130D4003C06D7F60870AC02E0D3F1D401F511FD9
S1130D50D5012D933D934D935C931397B5E0CB163A
S1130D60D10409F4CAC0E6E0CE16D104ECF4F2E0F2
S1130D70CF16D10409F49AC083E0C816D1044CF408
S1130D80C114D104A9F191E0C916D10409F48CC0AD
S1130D901BC2A3E0CA16D10409F48AC0B4E0CB167E
S1130DA0D10409F487C010C2E8E0CE16D10409F4D6
S1130DB0BCC1F9E0CF16D1045CF486E0C816D104B6
S1130DC009F429C197E0C916D10409F45AC1FCC138
S1130DD0AAE0CA16D10409F4ACC1BAE0CB16D10416
S1130DE00CF457C1EBE0CE16D10409F4C0C1ECC138
S1130DF010926C058091BF02882309F44FC063E010
S1130E000E948316992391F411E010936C05DA98EB
S1130E100E941102DC01CB01E12E08EC10E020E07D
S1130E2030E0AC01BD0183E00E94F2018091BF0279
S1130E3065E00E9483169923A9F480916C05826071
S1130E4080936C05D8980E941102DC01CB0121E04B
S1130E50E22E08EC10E020E030E0AC01BD0182E0BD
S1130E600E94F2018091BF0269E00E9483169923D7
S1130E70A9F480916C05846080936C05D9980E94D4
S1130E801102DC01CB0101E0E02E08EC10E020E0CF
S1130E9030E0AC01BD018E2D0E94F2018091BF02B1
S1130EA08093BC0280E042C1D99A8EC1D89A8CC189
S1130EB0DA9A8AC18091C102882339F487E00E94BA
S1130EC0EB0281E08093C1020AC01092C1028091BA
S1130ED0C00281508093C002DA9AD99AD89A80913C
S1130EE0C002882329F068E572E080E090E01AC02F
S1130EF08091BD020E94460667C12091BE02E22F86
S1130F00FF27ED51FA4FE081223078F084E080939E
S1130F10C0028091F9028D7F8093F90268EE73E03C
S1130F2080E090E00E94FC024FC18091C202909147
S1130F30C302892B51F48AE0E89FC0011124815F28
S1130F409E4F9093C3028093C20282E0821B0E9450
S1130F50EB02E091C202F091C3028081992787FDE0
S1130F6090958D329105C1F08E3291051CF48097D5
S1130F7021F02EC08E9731F02BC060E679E080E03E
S1130F8090E01BC00E94A40380FF12C0DA9868ECB2
S1130F9070E080E090E009C00E94A40380FF08C0D4
S1130FA0DA9868E572E080E090E00E941A0310C0CD
S1130FB0DA9A68EC70E080E090E00E941A03809175
S1130FC0C2029091C30201969093C3028093C2021D
S1130FD0E091C202F091C3028081882309F0F4C039
S1130FE08091BE028F5F8093BE02E82FFF27ED51F0
S1130FF0FA4FE0818AE0E89FC0011124815F9E4F8F
S11310009093C3028093C20268EC70E080E090E0A9
S11310100E941A03D9C089E0898389E090E08A8319
S11310209B8385E090E08C839D831E828091BC022B
S113103099279F938F9383E791E09F938F938E01DA
S1131040085E1F4F1F930F930E942C138DB79EB7FA
S113105006960FB6F8949EBF0FBE8DBF80E1FE01C9
S11310603896D8010D9001928A95E1F787E1DE0167
S11310701196E3EBF5E00D9001928A95E1F78AE091
S113108055C082E08093310382E18093090585E0B5
S11310904DC08091AD058F5F8093AD058F3F11F4F6
S11310A01092AD059091AD0580913203981709F027
S11310B08BC08091B60299279F938F9380910D01E5
S11310C090910E019F938F9385E891E09F938F9366
S11310D083EE94E09F938F930E942C13EDB7FEB799
S11310E038960FB6F894FEBF0FBEEDBF8091B602DE
S11310F08630B8F48F5F8093B6028630B0F0FE017C
S1131100F89680E1DF011D928A95E9F79F0140E09E
S113111065E1809109050E9443058EE10E94E10288
S113112053C01092B6021092BB0289E00E9497004D
S11311304BC08FB7F894082F1127902F809101018D
S1131140823099F48091B202813021F48FE00E94C0
S1131150970009C0823049F48091180480930101FA
S113116083E08093B2020FBF2FC09FBF2DC0809138
S1131170E6059091E70585309105C1F0863091052B
S113118018F4039731F020C04E97F1F41092B50291
S11311901BC01092B5028091CB05682F772761158B
S11311A0710591F481E00E947A030EC01092B50299
S11311B08091CB059927009739F0019729F460E0D5
S11311C070E081E00E948F035394E9E0F0E0AE0EFA
S11311D0BF1E0894C11CD11CFBE0F51508F097CD87
S11311E082E00E949700C95BDF4F0FB6F894DEBF20
S11311F00FBECDBFDF91CF911F910F91FF90EF9064
S1131200DF90CF90BF90AF909F908F907F906F9022
S11312105F9008958F929F92AF92BF92CF92DF9288
S1131220EF92FF920F931F93CF93DF939927AA27EF
S1131230BB27FC01449708F090C4EA5BFF4FEE0F14
S1131240FF1F0590F491E02D09949091BF0299231A
S113125061F080916C05873041F48091CC028D7FE0
S11312608093CC02892F0E9446068091BF028F5F33
S11312708093BF0272C440913003442339F58FB781
S1131280F894282F3327E0901304F090140400916D
S11312901504109116048091B2039091B303A091A8
S11312A0B403B091B503E80EF91E0A1F1B1F2FBF2C
S11312B08091AE059091AF05A091B005B091B105B4
S11312C09C01AD01C801B7010E9499040E9411025A
S11312D0DC01CB01BC01CD0144C00E9411024B01D1
S11312E05C01BFEFEB2EBFEFFB2EBFEF0B2FBFE771
S11312F01B2FCC2487B78D7F87BF64EC72E0ABE0F3
S1131300DA2EEB01888581FF1DC088819981AA812D
S1131310BB81A5019401281B390B4A0B5B0BDA0135
S1131320C9012C813D814E815F81281B390B4A0BF9
S11313305B0B2E153F054007510724F479018A0100
S1131340F1E0CF2EDA94675F7F4FD7FEDACFCC205F
S113135009F403C41E141F04100611062CF0C50161
S1131360B4010E946606F9C3E092AE05F092AF059F
S11313700093B0051093B10581E080933003A80178
S11313809701C501B4010E949904E7C380ED93E07D
S11313909093500380934F0382E08093310382E162
S11313A08093090588EB9BE09093B7038093B60381
S11313B01092BA021092B9021092B8021092B702B7
S11313C01092B6021092AD021092AC021092AB02CF
S11313D01092AA021092A90280919A0080648093CC
S11313E09A0080919A00886080939A0080919A0074
S11313F0806880939A0080919A00806180939A001B
S113140080919A00886080939A0080919A0080610C
S113141080939A0088E18093B20588E48093B103B5
S11314201EE71093360310934D0310939B041093FF
S1131430E20448E150E060E070E086E393E00E945B
S113144025131093360383E090E090933803809340
S1131450370310934D036091B20586E393E00E9435
S113146008050E941102DC01CB01E1E0EE2E00EA46
S11314701FE020E030E0AC01BD0187E007C388EB4A
S11314809BE09093B7038093B603809114038D7F00
S11314908093140348EB5BE060E070E088E070C088
S11314A080910B038D7F80930B03F0903103C091E7
S11314B009058C2F99279F938F938F2D99279F939D
S11314C08F9380910D0190910E019F938F938EE9DC
S11314D091E09F938F930DE615E01F930F930E9465
S11314E02C134DB75EB7465F5F4F0FB6F8945EBFDF
S11314F00FBE4DBFF80101900020E9F73197E01BC2
S1131500F10B6E2FC8010E94BF04C53011F083E0B7
S113151022C3F0929A04C093CC0548EE53E060E0F5
S113152070E086E02DC08091D40399279F938F9318
S11315308EEB91E09F938F930DE615E01F930F932D
S11315400E942C138DB79EB706960FB6F8949EBFD3
S11315500FBE8DBFF80101900020E9F73197E01B21
S1131560F10B6E2FC8010E94BF04F7C280911D03C6
S11315708D7F80931D0344E650E060E070E089E0D5
S11315800E94C102EAC2809109058231E9F482E134
S113159090E09F938F9380910D0190910E019F9302
S11315A08F938BEC91E09F938F9383EE94E09F93C2
S11315B08F930E942C13CDB7DEB728960FB6F894FC
S11315C0DEBF0FBECDBF97C0863019F08D3009F055
S11315D047C08091BB0299279F938F9380910905FF
S11315E099279F938F9380910D0190910E019F9362
S11315F08F938EED91E09F938F9383EE94E09F936E
S11316008F930E942C13EDB7FEB73A960FB6F89459
S1131610FEBF0FBEEDBF809109058D3019F484E043
S11316200E94E102209109053091BB028EE780936C
S1131630360380934D038AE090E0909338038093BF
S11316403703822F992790933A0380933903309379
S11316503B036091B20586E393E00E9408057DC2D6
S1131660893009F47AC299279F938F9380910D0151
S113167090910E019F938F9389EF91E09F938F93A5
S113168083EE94E09F938F930E942C132DB73EB763
S1131690285F3F4F0FB6F8943EBF0FBE2DBF2DC03D
S11316A08091B4059091B505029761F58091B605D6
S11316B09091B7059F938F9380910D0190910E01A6
S11316C09F938F938CE092E09F938F9383EE94E0AB
S11316D09F938F930E942C134DB75EB7485F5F4F63
S11316E00FB6F8945EBF0FBE4DBF8091B6059091C2
S11316F0B705429711F480E08DC1809109050E94DD
S11317006B052BC28091B305C3EED4E02091B605DE
S11317103091B705882309F03FC08091B6039091BA
S1131720B7038217930789F03093B7032093B60366
S1131730809114038D7F80931403C901AA27BB27CA
S1131740AC01BD0188E00E94C1028091B605909170
S1131750B7059F938F938091B50599279F938F9396
S11317608091B40599279F938F9380910D01909157
S11317700E019F938F9380E292E09F938F93DF9368
S1131780CF930E942C138DB79EB70C960FB6F89486
S11317909EBF0FBE8DBFE1C18091B90599279F936C
S11317A08F938091B80599279F938F933F932F939D
S11317B080910D0190910E019F938F938DE392E0A0
S11317C09F938F93DF93CF930E942C13CDB7DEB7F3
S11317D02C960FB6F894DEBF0FBECDBF80910905DD
S11317E04091B9056091B805AAEBB5E0893041F59F
S11317F08EE78093360380934D0389E090E09093C5
S113180038038093370390933A03809339036093AA
S11318103B0340933C03EDE3F3E080E1EF010D90E3
S113182009928A95E1F76091B205CF0107970E946A
S113183008058AE090E090933803809337038DC1C4
S11318409D010E94430589C182E080933303E091A6
S11318504F03F0915003809131038083E0914F0353
S1131860F0915003809109058183E0914F03F09139
S113187050038091B6039091B70382839383809140
S11318800B0190910C0184839583809109019091BF
S11318900A018683978380910701909108018087CC
S11318A09187809105019091060182879387148620
S11318B015861686178680913303825F80933303DF
S11318C086E049C18091B502882309F446C180911C
S11318D02F038D7F80932F030E94A3029927D82F73
S11318E0CC270E94A3029927C82BD92B0E94A302BC
S11318F00E94BC028091E6059091E7058330910532
S113190019F0059761F029C11092B5028091CB05B9
S1131910882309F022C1BE010E947A031EC11092DD
S1131920B5028091CB059927009709F416C1019758
S113193009F013C1BE0180E00E948F030EC18091A3
S1131940E6059091E7058630910531F0079709F097
S113195004C11092B50201C11092B5021092B302F3
S1131960FCC0C091B002C13071F40E941102DC01CC
S1131970CB01EC2E0BE010E020E030E0AC01BD0127
S11319808AE00E94F2018FB7F89499271092B0026E
S11319901092B1028FBFE1C08FB7F894282F33277C
S11319A0909118049093010183E08093B2022FBFB9
S11319B0892F9927009719F0019779F1CEC080916A
S11319C00401882319F484E090E015C02091B50245
S11319D0222319F085E090E00EC081E08093B502E7
S11319E083E090E09093E7058093E6052093CB0590
S11319F00E94B2059927C82FDD27CC2309F4ADC076
S1131A0080E00E943803CC2321F410920C01109240
S1131A100B0181E00E946602A0C021E080910401D4
S1131A20882319F484E090E014C08091B5028823DF
S1131A3019F085E090E00DC02093B50285E090E0B8
S1131A409093E7058093E6052093CB050E94B205A9
S1131A509927C82FDD27CC2309F47FC081E00E9499
S1131A603803CC2321F410920A011092090180E07A
S1131A7065C00E941102DC01CB0161E0E62E0BE09F
S1131A8010E020E030E0AC01BD018AE00E94F201E8
S1131A9064C088989098899891988EE05CC08FB7BC
S1131AA0F894282F3327909198049093000183E0B1
S1131AB08093AE022FBF892F9927009711F4BE9A05
S1131AC0C69A009719F0019739F047C081E08093D6
S1131AD06A0510926B0505C081E080936A058093C6
S1131AE06B050E94710139C010926A0580916B05E3
S1131AF0C0913403D0913503082F11270115110526
S1131B0021F00130110529F008C080E00E94BC00DA
S1131B100BC081E00E94BC0003C00115110521F037
S1131B200130110571F019C056E0D695C7955A9544
S1131B30E1F7D0930801C093070181E00E942701D7
S1131B400CC046E0D695C7954A95E1F7D0930601B7
S1131B50C09305018BE00E949700DF91CF911F9104
S1131B600F91FF90EF90DF90CF90BF90AF909F9038
S1131B708F9008958091CA058F3FD1F09091CA0546
S1131B808091CA05E82FFF27E353FA4F80818093A1
S1131B90CA058091CA058F3F11F48093E205892F0D
S1131BA09927FC01E353FA4F2FEF20839C0102C0D5
S1131BB02FEF30E02F3F19F480E090E00895822F5A
S1131BC00E940A0981E090E00895CFEFD0E1DEBFE2
S1131BD0CDBF8FB7F894F82E44E150E06FEF70E07A
S1131BE08DEC95E00E9425138FEF8093CA058093B6
S1131BF0E20581E08EBD88E080BF83E083BF2CB521
S1131C003DB54AE78CB59DB58217930708F441505A
S1131C109C014423B9F792B782B78917E9F32CB52D
S1131C203DB592B782B78917E9F38CB59DB5821B90
S1131C30930B409645E0969587954A95E1F79093E6
S1131C4008058093070513BE83B78EBD8EB580BF8C
S1131C5012BE1DBC1CBC8FEF86BF86B780937C0070
S1131C6080B79927877090700097D1F7D29AD19A4C
S1131C70D09ADA9AD99AD89A85BB8FEF84BBD49834
S1131C80DC9816B880B7886080BF80E285BF0E9468
S1131C90BA0DC82FDD27CC23D1F712E006E08091DE
S1131CA0070590910805AA27BB273CE0880F991FD8
S1131CB0AA1FBB1F3A95D1F7BC01CD0120E031EE3C
S1131CC040E050E00E948F16DA01C901019789B9FA
S1131CD0492F5527409390001BB900939500CAB92A
S1131CE020E030E0809399004093980010939B008B
S1131CF000939D0020939A0020934E038FEF9FEF53
S1131D009093E9058093E80500B602FCFDCF12BE6E
S1131D1087B7816087BF83B7887F836000B600FC84
S1131D20FDCF83BF0E94BA0D082F11270023D1F7DE
S1131D30FFBE78940E94BD0383E00E94970048EEA2
S1131D4053E060E070E0802F0E94C1028FB7F894E6
S1131D50482F4AC087B79927887B892B41F4809103
S1131D607D00282F33272B7F2115310519F020E022
S1131D7030E02AC06F9928C08AB1807C29F580910F
S1131D809A00807C09F5379B03C021E030E01CC039
S1131D9087B7992783709070892BA1F080B7992712
S1131DA087709070892BD1F781B792B7891B8C30DB
S1131DB018F082B7853F18F022E030E005C023E038
S1131DC030E002C025E030E0E5E02E1708F4E22F11
S1131DD085B7837EFF27EC54FF4F9491892B806253
S1131DE085BF78948895F8948091CA058F3FC9F08F
S1131DF09091CA058091CA05E82FFF27E353FA4F53
S1131E0080818093CA058091CA058F3F11F4809325
S1131E10E205892F9927FC01E353FA4F2FEF208322
S1131E2002C08FEF90E08F3F09F494CF4FBF0E9420
S1131E300A098CCF83B783BF00B600FCFDCF089599
S1131E401F920F920FB60F9211242F933F934F932B
S1131E505F936F937F938F939F93AF93BF93CF932E
S1131E60EF93FF930E941A0F87B78D7F87BF7894F3
S1131E708FB7F894C82F8091B2039091B303A091C7
S1131E80B403B091B5030097A105B10521F481E035
S1131E900E94970002C00E94D003CFBFFF91EF9130
S1131EA0CF91BF91AF919F918F917F916F915F91EE
S1131EB04F913F912F910F900FBE0F901F90189547
S1131EC01F920F920FB60F9211242F933F934F93AB
S1131ED05F936F937F938F939F93AF93BF93EF938E
S1131EE0FF930E941A0F8091030590910405A0911D
S1131EF00505B09106050196A11DB11D809303054A
S1131F0090930405A0930505B093060580911704EA
S1131F10882339F0815080931704882311F40E9498
S1131F20D003FF91EF91BF91AF919F918F917F91DA
S1131F306F915F914F913F912F910F900FBE0F9032
S1131F401F9018951F920F920FB60F9211240F90A5
S1131F500FBE0F901F9018951F920F920FB60F92FD
S1131F6011242F933F934F935F936F937F938F939A
S1131F709F93AF93BF93EF93FF9389B78D7F89BFEF
S1131F808CE00E949700FF91EF91BF91AF919F91D8
S1131F908F917F916F915F914F913F912F910F900E
S1131FA00FBE0F901F9018951F920F920FB60F92AD
S1131FB011240F900FBE0F901F9018951F920F922F
S1131FC00FB60F9211240F900FBE0F901F9018950B
S1131FD01F920F920FB60F9211240F900FBE0F9005
S1131FE01F9018951F920F920FB60F9211240F9005
S1131FF00FBE0F901F9018951F920F920FB60F925D
S113200011240F900FBE0F901F9018951F920F92DE
S11320100FB60F9211240F900FBE0F901F901895BA
S11320201F920F920FB60F9211242F933F934F9349
S11320305F936F937F938F939F93AF93BF93EF932C
S1132040FF9364B175B178948FB7F894282F332730
S11320508091E105482F469541702FBF282F2170AC
S113206080FD1CC0339880916A05992781309105C1
S113207019F0029759F028C0442351F070933503A6
S11320806093340383E10E9497001EC0442319F433
S11320900E94710119C020936A0516C08FB7F89485
S11320A099278FBF8FB7F894482F552786B1806141
S11320B08777282F332726B98F7B282F332726B9F4
S11320C08068992786B94FBFFF91EF91BF91AF9177
S11320D09F918F917F916F915F914F913F912F913C
S11320E00F900FBE0F901F9018951F920F920FB66E
S11320F00F9211248F935F998CB18F910F900FBE23
S11321000F901F90189578941F920F920FB60F920C
S113211011242F933F934F935F936F937F938F93E8
S11321209F93AF93BF93EF93FF938091A4029091F9
S1132130A50201969093A5028093A4028F3791057E
S113214020F01092A5021092A4028091A202909114
S1132150A3028F37910520F01092A3021092A202DD
S1132160E091A402F091A5028091A2029091A302B1
S1132170E817F90731F0E75EFB4F80810E94B7044E
S113218002C01092A602FF91EF91BF91AF919F916F
S11321908F917F916F915F914F913F912F910F900C
S11321A00FBE0F901F9018951F920F920FB60F92AB
S11321B011242F933F934F935F936F937F938F9348
S11321C09F93AF93BF93EF93FF9380919B0087FFFF
S11321D0D1C140919C008091A702882321F44E37FD
S11321E009F0C8C106C02091A802233050F44E372C
S11321F041F481E08093A70240930A058093A802EA
S1132200B9C1E22FFF27E65FFA4F40832F5F209387
S1132210A80230910B05333049F58091B205281797
S113222009F098C11092A7024E3709F09BC1809122
S11322300D0580930905863021F0893011F08D3029
S113224081F48AE080933103809109058D3061F433
S11322508FEF809332031092AD0587E00E949700C0
S113226003C082E08093310385E071C1323009F00C
S11322704CC08091B205281709F06CC11092A702D6
S11322804E3709F06FC130933303E0914F03F0915F
S11322905003809131038083E0914F03F091500308
S11322A0809109058183E0914F03F091500380915F
S11322B0B6039091B7038283938380911105909123
S11322C01205848395838091130590911405868368
S11322D09783809115059091160580879187809149
S11322E0170590911805828793878091190590911D
S11322F01A058487958780911B0590911C05868714
S1132300978780913303825F1FC1393009F09DC0E4
S11323108091B205281709F01DC11092A7024E370B
S113232009F020C182E080933303809109058D3048
S1132330F1F480910F05833109F016C180910D01EC
S113234090910E019F938F938AE592E09F938F93D0
S113235083EE94E09F938F930E942C138DB79EB7C6
S113236006960FB6F8949EBF0FBE8DBFFDC0893090
S113237059F488E1AAE0B5E0E8EBF3E00D900192AE
S11323808A95E1F788E0E3C08E3029F0843019F0B3
S1132390853009F0E9C0E0914F03F091500380913A
S11323A031038083E0914F03F0915003809109053C
S11323B08183E0914F03F09150038091B603909193
S11323C0B7038283938380911105909112058483CE
S11323D0958380911305909114058683978380914A
S11323E01505909116058087918780911705909126
S11323F01805828793878091190590911A0584871F
S1132400958780911B0590911C05868797878091FD
S11324103303825F8093330380910D0190910E0109
S11324209F938F9381E792E09F938F9383EE94E041
S11324309F938F930E942C138DB79EB706960FB669
S1132440F8949EBF0FBE8DBF81C0313019F03A3071
S113245009F08AC08091B103281709F07BC010925B
S1132460A7024E3709F07EC082E080933303E091E7
S11324704F03F0915003809131038083E0914F0327
S1132480F0915003809109058183809109058D3075
S113249009F03FC01092B6028FEF8093320380910F
S11324A00F0599279F938F9380910D0190910E01B1
S11324B09F938F938BE892E09F938F9383EE94E0A6
S11324C09F938F930E942C138DB79EB708960FB6D7
S11324D0F8949EBF0FBE8DBF90910F05903F19F4E5
S11324E01092BB0216C0809111058A3029F48091A4
S11324F012058A3A39F00AC08A3A41F480911205E9
S11325008A3021F484E00E94E10203C09F5F90932B
S1132510BB02E0914F03F091500380911005828338
S113252020914F0330915003809110059927AC01FD
S113253061E175E0C90103960E941C138091330385
S113254090911005890F8F5F8093330386E00E947A
S113255097000AC09927029733278217930724F418
S11325604E3711F41092A7028091A802813610F020
S11325701092A702FF91EF91BF91AF919F918F911C
S11325807F916F915F914F913F912F910F900FBE6B
S11325900F901F90189578941F920F920FB60F9278
S11325A011242F933F934F935F936F937F938F9354
S11325B09F93AF93BF93EF93FF938091AB0290915E
S11325C0AC0201969093AC028093AB0280369105E5
S11325D020F01092AC021092AB028091A90290916B
S11325E0AA028036910520F01092AA021092A90244
S11325F0E091AB02F091AC028091A9029091AA0201
S1132600E817F90731F0EF5AFC4F80810E94FA0471
S113261002C01092AD02FF91EF91BF91AF919F91D3
S11326208F917F916F915F914F913F912F910F9077
S11326300FBE0F901F901895FB01DC0102C00190A2
S11326400D9241505040D8F70895DC0101C06D93BC
S113265041505040E0F708950F931F93CF93DF93B9
S1132660CDB7DEB72C970FB6F894DEBF0FBECDBF43
S11326700B891C892D893E8946E04C8309831A8382
S11326808FEF9FE78D839E83AE01495E5F4FB90153
S1132690CE0101960E945C13EF81F885E00FF11FD3
S11326A010822C960FB6F894DEBF0FBECDBFDF911B
S11326B0CF911F910F9108952F923F924F925F9265
S11326C06F927F928F929F92AF92BF92CF92DF923E
S11326D0EF92FF920F931F93CF93DF93CDB7DEB7A3
S11326E062970FB6F894DEBF0FBECDBFEE24FF2471
S11326F087011C016D877E872A01CC24DD24FC011F
S1132700C682D782838181FD80C28FEF9FEF90C202
S11327108D859E8501968D879E87C0FE63C28F85B9
S113272080538A30D0F49F85903339F4662029F49D
S1132730C3FC03C0E0E0F1E093C08AE0689E602C33
S11327401124FF856F0E20ED620E67FE02C0EFE7D5
S11327506E2EC3FC5AC2762C58C2960173E036958D
S113276027957A95E1F720FF04C0662011F461E013
S1132770662E4F85842F992787FD9095883691057D
S11327808CF5853691050CF06EC08335910509F4FE
S113279093C084359105CCF48B32910509F449C07A
S11327A08C3291054CF48032910509F446C0833291
S11327B0910509F44AC010C28D32910509F440C054
S11327C08E32910509F444C007C28336910509F499
S11327D050C0843691050CF08AC08835910509F4FF
S11327E0BCC0FAC18037910509F4B1C081379105A5
S11327F084F48C36910591F18D3691052CF489364B
S1132800910509F474C0E8C18F36910509F49CC0A0
S1132810E3C18537910509F4A2C08637910524F4F4
S11328208337910571F1D8C18837910509F495C0B2
S1132830D3C180E190E0C82AD92AE0E2F0E010C0D8
S113284080E890E0C82AD92AE0C1E0E4F0E008C0BA
S113285088E090E0C82AD92A6624D7C1E4E0F0E0F1
S1132860CE2ADF2AD2C15FE3E52E7A94F3E6FF870E
S113287044C1F20182E090E0480E591EE0807A944F
S11328803CC1F20182E090E0480E591EA081B18162
S11328907D0120FF09C0862D992787FD9095BC01F5
S11328A0CD010E946D161FC0FD0101900020E9F7C3
S11328B03197EA1BE88B18C0F20182E090E0480EE1
S11328C0591E0190F081E02D7F0120FF09C0862D63
S11328D0992787FD9095BC01CF010E94781603C00B
S11328E0CF010E946416888B9889791A06C1C2FEAA
S11328F00AC0F20184E090E0480E591E2081318123
S1132900428153810CC0F20182E090E0480E591ECE
S1132910808191819C01442737FD4095542F790192
S11329208A0157FF0CC0E2E0F0E0CE2ADF2A1095BE
S11329300095F094E094E11CF11C011D111D8FEB36
S11329409FEFC822D92227C098E0988B08C0E0E402
S1132950F0E0CE2ADF2AF8E7FF8720E1288BC2FEC9
S11329600AC0F20184E090E0480E591E20813181B2
S1132970428153810AC0F20182E090E0480E591E60
S1132980808191819C014427552779018A01EFECCC
S1132990FFEFCE22DF22CE010196898B9A8B988994
S11329A0892E9924AA24BB24C801B701A501940146
S11329B00E948F16DC01CB01E989FA8980838A3071
S11329C024F0FF858F0F815201C0805DE989FA8967
S11329D08193E98BFA8BC801B701A50194010E9488
S11329E08F1679018A012115310541055105E1F65A
S11329F0E98881E090E08C0F9D1FE81AC60182737C
S1132A009070892B09F07A94C6FE0DC0872D992702
S1132A1087FD9095E889E03121F44EEF742E780E0D
S1132A2002C0782E7A94C3FE0FC0262D332727FDCB
S1132A3030958E2D9927821793072CF087EF9FEFFF
S1132A40C822D92201C06E18560133E0B694A79467
S1132A503A95E1F7A0FE02C0761801C07E18C601BF
S1132A6080789170892B51F4872D7A94181634F458
S1132A70B10180E290E00E943116F6CFC1FE04C09D
S1132A80B1018DE290E00BC0C4FE04C0B1018BE241
S1132A9090E005C0C5FE05C0B10180E290E00E944F
S1132AA03116C6FE10C0B10180E390E00E943116D9
S1132AB09889903141F4B101EF858E2F992787FDD4
S1132AC090950E9431168D2D992780FF0AC0872D7D
S1132AD07A94181634F4B10180E390E00E94311620
S1132AE0F6CFA0FE0AC0862D6A94181634F4B101FC
S1132AF080E390E00E943116F6CF5601AA0CAB2C6D
S1132B00AA1CBB08B194A0FC0AC0872D7A9418169D
S1132B1034F4B10180E290E00E943116F6CFFF85D3
S1132B20F33641F48E2DB101992787FD90950E94CB
S1132B30311646C02F852337B9F448894150488B54
S1132B404F3F09F43DC0F70180810894E11CF11C5A
S1132B50B101992787FD90950E943116888981508B
S1132B60888B8F3F81F72CC09F859335A1F4E8892A
S1132B70E150E88BEF3F21F1F7018491B1019927EE
S1132B800E9431160894E11CF11CF889F150F88B6D
S1132B90FF3F91F715C06E010894C11CD11C8989AF
S1132BA09A898C159D0561F0E989FA898291E98BEE
S1132BB0FA8BB101992787FD90950E943116EFCFCA
S1132BC0A0FE0DC0872D7A9418164CF4B10180E252
S1132BD090E00E943116F6CFB1010E943116CC2448
S1132BE0DD2413C09F85953241F481E0C82ED12C99
S1132BF06624762CEAE0E88B08C0B101FF858F2FAC
S1132C00992787FD90950E943116F101838183FFF6
S1132C1004C0ED85FE85F49103C0ED85FE85F08149
S1132C20FF872F85222309F073CDF10186819781D7
S1132C3062960FB6F894DEBF0FBECDBFDF91CF9181
S1132C401F910F91FF90EF90DF90CF90BF90AF90C6
S1132C509F908F907F906F905F904F903F902F90B8
S1132C6008950F931F93CF93DF938C01EB018B8116
S1132C70992781FF22C082FF14C02E813F818C815D
S1132C809D81281739073CF4E881F9810193E88391
S1132C90F9832E813F812F5F3F4F2E833F83C801ED
S1132CA00EC0E885F985802F0995892B31F4AE8112
S1132CB0BF811196AE83BF83F2CF8FEF9FEFDF9179
S1132CC0CF911F910F910895FC0105900020E9F721
S1132CD0809590958E0F9F1F0895FC016150704060
S1132CE001900110D8F7809590958E0F9F1F08953D
S1132CF0FC016150704005900110D8F780959095C3
S1132D008E0F9F1F0895991B79E004C0991F961791
S1132D1008F0961B881F7A95C9F780950895A1E25B
S1132D201A2EAA1BBB1BFD010DC0AA1FBB1FEE1F41
S1132D30FF1FA217B307E407F50720F0A21BB30B8C
S1132D40E40BF50B661F771F881F991F1A9469F708
S1132D5060957095809590959B01AC01BD01CF0164
S1052D600895D0
S1132D620202FFFF01FFFFFFFFFFFFFFFF01002D34
S1132D722D2D2D2D20000000002E2D2D2D2D200077
S1132D820000002E2E2D2D2D20000000002E2E2EB0
S1132D922D2D20000000002E2E2E2E2D20000000AE
S1132DA2002E2E2E2E2E20000000002D2E2E2E2E32
S1132DB220000000002D2D2E2E2E20000000002DBC
S1132DC22D2D2E2E20000000002D2D2D2D2E200025
S1132DD20000002020202020202020202564202004
S1132DE22020202000256420433332385F5265734B
S1132DF265745F54696D65723A25640D0A00256431
S1132E02206D79417070547970653A25582C206D83
S1132E12794F7074547970653A25580D0A00544CF0
S1132E2243442053573A25640D0A002564206765FC
S1132E327453466972655F423A25640D0A0025643B
S1132E422067657453466972655F4C3A25582C2095
S1132E525365713A25640D0A00256420676574532D
S1132E62466972655F533A25640D0A00256420524F
S1132E722D476574532D434D445B25645D0D0A0053
S1132E82256420522D53432D434D442121205B259B
S1132E92642C2025642C2025645D0D0A0025642001
S1132EA2522D4F432D434D442121205B25642C2078
S1132EB225642C2025645D0D0A0025642072656357
S1132EC27620535542434D44315F4641494C0D0AE5
S1132ED200256420726563762070617273696E677F
S1132EE25F636F6E74726F6C0D0A002564207061EB
S1132EF27273696E675F6C6F6E6744543A25640D32
S1052F020A00BF
S9030000FC
