S01900006275696C642F7A69676265782F6D61696E2E737265636F
S11300000C9449000C9466000C9466000C946600F1
S11300100C9466000C9466000C9466000C946600C4
S11300200C9466000C9466000C9466000C946600B4
S11300300C9466000C9466000C9466000C94000406
S11300400C9440040C9466000C9466000C946600B6
S11300500C9466000C9466000C9466000C94660084
S11300600C9466000C9466000C9466000C94660074
S11300700C9466000C9466000C9466000C94660064
S11300800C9466000C9466000C94660000081C181E
S1130090141011241FBECFEFD0E1DEBFCDBF11E09D
S11300A0A0E0B1E0ECE1F9E000E00BBF02C0079092
S11300B00D92A030B107D9F711E0A0E0B1E001C082
S11300C01D92A332B107E1F70C94F6020C940000E0
S11300D08FB7F894992708958FBF0895CF93DF932E
S11300E08FB7F894682F7727A0911501B091160166
S11300F0C0911701D091180182B706B600FE04C062
S11301001196C11DD11D82B7282F332744275527A7
S113011088279A2FAB2FBC2F822B932BA42BB52B84
S11301206FBFBC01CD01DF91CF910895982F8FB798
S1130130F894282FE92FFF27E05EFE4F80818F3F40
S1130140B1F480912201891791F080911F018F3FB2
S113015019F490931F0107C080912201E82FFF2713
S1130160E05EFE4F90839093220180E001C085E021
S11301702FBF992708951F93CF93DF93F0910A011E
S113018010910F01E0910801E1FF47C020910001A7
S1130190309101014091020150910301621B730BE4
S11301A0840B950BA0910401B0910501C091060147
S11301B0D09107016A177B078C079D0770F1E0FF58
S11301C004C0ED7FE09308010CC02A0F3B1F4C1FB5
S11301D05D1F20930001309301014093020150936D
S11301E00301FF5F10E02F2F3327822F63E00E946B
S11301F08204992309F4DA98822F65E00E9482042C
S1130200992309F4D998822F69E00E9482049923E2
S113021009F4D898DA9AD99AD89A10930F01F093DE
S11302200A0181E00E949600DF91CF911F91089509
S1130230DF92EF92FF920F931F93D82E7A018B01D6
S11302400E946E00DC01CB0129E0D29EF001112452
S1130250E050FF4F80839183A283B383E482F582CD
S11302600683178380858E7F8260808781E00E9469
S113027096001F910F91FF90EF90DF900895AF9239
S1130280BF92CF92DF92EF92FF920F931F93CF937F
S1130290DF930E946E00FC01EB012091100130916C
S11302A0110140911201509113017B018C01E21A5A
S11302B0F30A040B150B1092140180910B01909119
S11302C00C01A0910D01B0910E01E816F9060A0780
S11302D01B07C0F0EE24FF248701280F391F4A1F93
S11302E05B1F20931001309311014093120150932E
S11302F01301E0920B01F0920C0100930D01109395
S11303000E0163C05C016D01AE18BF08C00AD10ABA
S11303108601750161E0A61661E0B60660E0C606D6
S113032060E0D60690F080E0A81680E0B80681E090
S1130330C80680E0D80610F08FEF04C0BB27AD2DAF
S11303409C2D8B2D8093140158C061E8A616B1042E
S1130350C104D10430F1C058DF4FEF4FFF4FC093B9
S11303601001D0931101E0931201F0931301C058CE
S1130370D040E040F04080E89FEFAFEFBFEFE80EE1
S1130380F91E0A1F1B1FE0920B01F0920C0100934F
S11303900D0110930E0190E8E92EF12C012D112D81
S11303A014C0280F391F4A1F5B1F2093100130937C
S11303B01101409312015093130110920B011092FA
S11303C00C0110920D0110920E016E2D82B7282F90
S11303D08C1B8E5F8E1518F0622F6E5F01C06C0F40
S11303E0662309F461E0615000B601FCFDCF61BFF2
S11303F082E086BF87B7826087BFDF91CF911F916C
S11304000F91FF90EF90DF90CF90BF90AF90089541
S11304100F931F93DC01CB016FB7F894062F1127BC
S11304208093100190931101A0931201B0931301D2
S113043020930B0130930C0140930D0150930E0156
S11304400E943F010FBF1F910F910895EF92FF92F9
S11304500F931F9340910901442339F58FB7F89402
S1130460282F3327E0901001F09011010091120120
S11304701091130180910B0190910C01A0910D0139
S1130480B0910E01E80EF91E0A1F1B1F2FBF8091A9
S11304901B0190911C01A0911D01B0911E019C01B2
S11304A0AD01C801B7010E9408020E946E00DC0180
S11304B0CB01BC01CD010E94BB001F910F91FF90A5
S11304C0EF900895EF92FF920F931F93CF93DF93D2
S11304D00E946E00FC01EB013FEFE32E3FEFF32E91
S11304E03FEF032F3FE7132F60E087B78D7F87BF70
S11304F08091080181FF24C0809100019091010145
S1130500A0910201B09103019E01AF01281B390B98
S11305104A0B5B0BDA01C9012091040130910501FA
S11305204091060150910701281B390B4A0B5B0BC4
S11305302E153F05400751071CF479018A0161E03B
S11305406623D9F01E141F04100611062CF0BE01F8
S1130550CF010E94BB0011C0E0921B01F0921C016C
S113056000931D0110931E0181E080930901A801ED
S11305709701BE01CF010E940802DF91CF911F9124
S11305800F91FF90EF90089580911F018F3FC9F064
S113059090911F0180911F01E82FFF27E05EFE4F1D
S11305A0808180931F0180911F018F3F11F48093FC
S11305B02201892F9927FC01E05EFE4F2FEF208353
S11305C002C08FEF90E08F3F19F480E090E008952F
S11305D09927009719F0019721F005C00E9426027F
S11305E002C00E94620281E090E00895CFEFD0E162
S11305F0DEBFCDBF8FB7F894182F8FEF9FEF909386
S11306002101809320018FEF80931F0180932201A9
S113061081E08EBD88E080BF83E083BF2CB53DB50B
S11306204AE78CB59DB58217930708F441509C01A5
S11306304423B9F792B782B78917E9F32CB53DB5CE
S113064092B782B78917E9F38CB59DB5821B930BDA
S1130650409645E0969587954A95E1F790931A015F
S11306608093190113BE83B78EBD8EB580BF12BEB1
S11306701DBC1CBC8FEF86BF86B780937C0080B7FF
S11306809927877090700097D1F7D29AD19AD09A0F
S1130690DA9AD99AD89A85BB8FEF84BBD498DC9820
S11306A080B7886080BF80E285BF0E94C40288232F
S11306B0E1F700B602FCFDCF12BE87B7816087BFA9
S11306C083B7887F836000B600FCFDCF83BF0E94A0
S11306D0C402C82FDD27CC23D1F71FBF789444EF81
S11306E051E060E070E08C2F0E94180148EE53E066
S11306F060E070E08C2F0E9418018FB7F894482FA7
S11307004AC087B79927887B892B41F480917D0063
S1130710282F33272B7F2115310519F020E030E0F5
S11307202AC06F9928C08AB1807C29F580919A00EB
S1130730807C09F5379B03C021E030E01CC087B7FB
S1130740992783709070892BA1F080B799278770BF
S11307509070892BD1F781B792B7891B8C3018F030
S113076082B7853F18F022E030E005C023E030E096
S113077002C025E030E0E5E02E1708F4E22F85B74B
S1130780837EFF27E457FF4F9491892B806285BFB6
S113079078948895F89480911F018F3FC9F09091C7
S11307A01F0180911F01E82FFF27E05EFE4F80812B
S11307B080931F0180911F018F3F11F480932201C8
S11307C0892F9927FC01E05EFE4F2FEF208302C0A2
S11307D08FEF90E08F3F09F494CF4FBF9927009794
S11307E019F0019721F089CF0E94260286CF0E943A
S11307F0620283CF83B783BF00B600FCFDCF0895A8
S11308001F920F920FB60F9211242F933F934F9381
S11308105F936F937F938F939F93AF93BF93CF9384
S1130820EF93FF930E94FA0387B78D7F87BF789475
S11308308FB7F894C82F80910B0190910C01A0916F
S11308400D01B0910E010097A105B10521F480E0DE
S11308500E94960002C00E943F01CFBFFF91EF911A
S1130860CF91BF91AF919F918F917F916F915F9144
S11308704F913F912F910F900FBE0F901F9018959D
S11308801F920F920FB60F9211242F933F934F9301
S11308905F936F937F938F939F93AF93BF93EF93E4
S11308A0FF930E94FA038091150190911601A09183
S11308B01701B09118010196A11DB11D8093150176
S11308C090931601A0931701B0931801809114011D
S11308D0882339F0815080931401882311F40E94F5
S11308E03F01FF91EF91BF91AF919F918F917F91C4
S11308F06F915F914F913F912F910F900FBE0F9089
S11309001F901895991B79E004C0991F961708F059
S10F0910961B881F7A95C9F780950895FE
S9030000FC
