S01900006275696C642F7A69676265782F6D61696E2E737265636F
S11300000C9449010C9466010C9466010C946601ED
S11300100C9466010C9466010C9466010C946601C0
S11300200C9466010C9466010C9466010C946601B0
S11300300C9466010C9466010C9466010C944B0BB1
S11300400C948B0B0C9466010C94320C0C9466018A
S11300500C948C0C0C94CD0B0C9466010C946601DE
S11300600C9466010C94D90D0C94B80D0C94C30D2A
S11300700C94CE0D0C94EC0D0C949B0D0C94660119
S11300800C94AD0D0C9466010C94660100081C18C8
S1130090141000002110422063308440A550C66033
S11300A0E770088129914AA16BB18CC1ADD1CEE131
S11300B0EFF13112100273325222B5529442F772A8
S11300C0D662399318837BB35AA3BDD39CC3FFF381
S11300D0DEE36224433420040114E664C774A444B8
S11300E085546AA54BB528850995EEE5CFF5ACC5D1
S11300F08DD55336722611163006D776F666955688
S1130100B4465BB77AA719973887DFF7FEE79DD720
S1130110BCC7C448E5588668A77840086118022817
S11301202338CCC9EDD98EE9AFF9488969990AA970
S11301302BB9F55AD44AB77A966A711A500A333AE7
S1130140122AFDDBDCCBBFFB9EEB799B588B3BBBC0
S11301501AABA66C877CE44CC55C222C033C600C77
S1130160411CAEED8FFDECCDCDDD2AAD0BBD688D10
S1130170499D977EB66ED55EF44E133E322E511EC7
S1130180700E9FFFBEEFDDDFFCCF1BBF3AAF599F60
S1130190788F8891A981CAB1EBA10CD12DC14EF100
S11301A06FE18010A100C230E32004502540467066
S11301B06760B9839893FBA3DAB33DC31CD37FE391
S11301C05EF3B1029012F322D232354214527762B6
S11301D05672EAB5CBA5A89589856EF54FE52CD561
S11301E00DC5E234C324A014810466744764245406
S11301F00544DBA7FAB79987B8975FE77EF71DC771
S11302003CD7D326F2369106B01657667676154655
S113021034564CD96DC90EF92FE9C899E9898AB9C0
S1130220ABA94458654806782768C018E1088238A5
S1130230A3287DCB5CDB3FEB1EFBF98BD89BBBABD0
S11302409ABB754A545A376A167AF10AD01AB32AF5
S1130250923A2EFD0FED6CDD4DCDAABD8BADE89D20
S1130260C98D267C076C645C454CA23C832CE01C45
S1130270C10C1FEF3EFF5DCF7CDF9BAFBABFD98FB0
S1130280F89F176E367E554E745E932EB23ED10E95
S1130290F01E11241FBECFEFD0E1DEBFCDBF11E0B1
S11302A0A0E0B1E0ECE6FCE100E00BBF02C0079087
S11302B00D92AA30B107D9F712E0AAE0B1E001C06B
S11302C01D92A932B107E1F70C94D2090C940000F5
S11302D08FB7F894992708958FBF08958FB7F8942E
S11302E0282F33278BB394E089278BBB2FBF089526
S11302F0982F8FB7F894282FE92FFF27E65EFD4F3C
S113030080818F3FB1F480912402891791F080910C
S113031019028F3F19F49093190207C080912402A7
S1130320E82FFF27E65EFD4F90839093240280E040
S113033001C085E02FBF99270895EF920F931F9373
S1130340AE2D99E0899FF0011124E25EFE4F4083B7
S11303505183628373830483158326833783A17057
S113036080858E7F8A2B8260808781E00E9478015D
S11303701F910F91EF900895CF93DF938FB7F89467
S1130380682F7727A0917801B0917901C0917A0103
S1130390D0917B0182B706B600FE04C01196C11D40
S11303A0D11D82B7282F33274427552788279A2F12
S11303B0AB2FBC2F822B932BA42BB52B6FBFBC016F
S11303C0CD01DF91CF91089520E08FB7F894982F55
S11303D080910C028A3029F48091A101843009F4BF
S11303E021E09FBF222351F086E00E9478018FB75D
S11303F0F894992710921B018FBF08958FB7F89432
S1130400282F332781E080931B012FBF0895CF93BA
S11304108FB7F894C82F80916A01882341F484E04F
S11304200E947801882319F481E080936A01CFBF88
S1130430CF910895282F869586958695E82FFF27D6
S1130440ED59FE4F277081E090E002C0880F991F9C
S11304502A95E2F720812823822F99270895509125
S11304600202852F9927009709F08FE1E82F20E0F9
S113047030E0F22F552309F428E033278FB7F8949E
S1130480582F809123028E7F80932302322F97B1BD
S113049060E070E0892F8295869586958370F817C1
S11304A049F48E2F8850863118F49F71E91711F49E
S11304B061E070E0862F880F209123022D7F282B86
S11304C08E2F8F71982F990F990F2378292B2093B2
S11304D023028062992787B9406C21702295220FEC
S11304E0207E4F7D422B4861383059F580917F0141
S11304F09091800121E08638920718F087E090E01F
S11305001FC0833C910518F086E090E019C0813645
S1130510910518F085E090E013C08033910518F040
S113052084E090E00DC08831910518F083E090E0FC
S113053007C00C9718F082E090E002C080E090E0E1
S1130540382F3770487F432B842F992786B95FBF94
S113055008956F927F928F929F92BF92CF92DF9273
S1130560EF92FF920F931F93CF93DF936B017C0164
S1130570BB240EE111E0E801688561FFEDC028812C
S113058039814A815B81D701C601821B930BA40B7D
S1130590B50B6C807D808E809F8086159705A8059D
S11305A0B90508F4D9C060FF03C06D7F688709C02E
S11305B0260D371D481D591DF801208331834283C0
S11305C05383BB2009F0C8C0809125028A3009F00A
S11305D08BC04091A201442309F067C02CE130E0B4
S11305E0A0E4B1E0E5E8F1E0ED01822F0190099289
S11305F08A95E1F71B978FEF9FEF80933A018FEF76
S113060090E08093390183E980933F0120933D0179
S1130610C0911501D0911601209719F085E090E062
S11306203FC082E090E090931601809315014093BF
S11306301001409311018FB7F894282F332740936A
S11306401201B0931801A093170184E090E0809305
S1130650130187E2809314012FBF942F8FB7F8946E
S1130660282F332780918301882331F481E08093FC
S1130670830140938401982F2FBF992321F00E9476
S11306800702CE0102C085E090E0882319F480E0DF
S113069090E006C0109216011092150181E090E0DE
S11306A0892B19F481E08093A2018091A20188230F
S11306B011F40E946E011092250280916401882336
S11306C089F480918B019927982F882720918C0198
S11306D03327822B932B019680938C01892F9927A2
S11306E080938B01109264018FB7F894282F3327DD
S11306F0C22F90911C01992391F080E00E941A026C
S1130700882341F48091630181608093630180E0D8
S113071090E002C085E090E0CFBF992719C081E046
S113072080931C01909371012FBF8FB7F894992780
S1130730379A8FBF8FB7F894C82FDD2780910701B0
S1130740813019F482E00E947801CFBF80E090E00C
S1130750892B11F00E946E01B394075F1F4FBB20D9
S113076009F409CF81E00E947801DF91CF911F91B4
S11307700F91FF90EF90DF90CF90BF909F908F905C
S11307807F906F900895AF92BF92CF92DF92EF92D5
S1130790FF920F931F93CF93DF930E94BC01FC0140
S11307A0EB0120916B0130916C0140916D015091EE
S11307B06E017B018C01E21AF30A040B150B1092F3
S11307C06F018091660190916701A0916801B091D9
S11307D06901E816F9060A071B07C0F0EE24FF2496
S11307E08701280F391F4A1F5B1F20936B01309329
S11307F06C0140936D0150936E01E0926601F0929A
S11308006701009368011093690163C05C016D0185
S1130810AE18BF08C00AD10A8601750161E0A616A8
S113082061E0B60660E0C60660E0D60690F080E0BF
S1130830A81680E0B80681E0C80680E0D80610F06B
S11308408FEF04C0BB27AD2D9C2D8B2D80936F01A2
S113085058C061E8A616B104C104D10430F1C058EF
S1130860DF4FEF4FFF4FC0936B01D0936C01E093C8
S11308706D01F0936E01C058D040E040F04080E834
S11308809FEFAFEFBFEFE80EF91E0A1F1B1FE092A8
S11308906601F0926701009368011093690140E8D2
S11308A0E42EF12C012D112D14C0280F391F4A1FDD
S11308B05B1F20936B0130936C0140936D01509347
S11308C06E011092660110926701109268011092F5
S11308D069016E2D82B7282F8C1B8E5F8E1518F040
S11308E0622F6E5F01C06C0F662309F461E06150F2
S11308F000B601FCFDCF61BF82E086BF87B782608E
S113090087BFDF91CF911F910F91FF90EF90DF9000
S1130910CF90BF90AF9008950F931F93DC01CB014C
S11309206FB7F894062F112780936B0190936C0195
S1130930A0936D01B0936E0120936601309367011B
S113094040936801509369010E94C3030FBF1F9134
S11309500F910895982F80910F01882399F5992379
S113096089F531E030930F018091060180930E01E7
S113097020911A01822F83238093650180910001C5
S11309809091010190930D0180930C0180911901C4
S113099080930B01322731702E7F232B822F81709D
S11309A0E82FFF27EE0FFF1FEE5FFE4F808191813E
S11309B09093010180930001277E20931A0188E01F
S11309C00E9478010895262FE2E9F0E02927220FFA
S11309D0F11DE20FF11DC895982F802D3196C89511
S11309E0902508951F93CF93182FC62F8091A101AE
S11309F099278130910509F1823091051CF4009703
S1130A0049F025C18230910509F454C0039709F4D3
S1130A1064C01DC1112309F441C110922D0110922B
S1130A202C01109203021092050210927701909308
S1130A3029018093280181E04DC0112309F02EC1C2
S1130A4080912801909129010E94E3049093290147
S1130A508093280182E08093A101C0930502C434ED
S1130A6009F0F5C0C43409F0F2C0212F80911A01B5
S1130A7080FF03C0982F969503C0982F969596955E
S1130A80917099F480FF02C0846001C082608093F9
S1130A901A0180911A01877E886080931A0110924E
S1130AA019018FEF8093060101C025E0222309F488
S1130AB0F5C0CDC0112309F0CAC0609377018091BD
S1130AC02801909129010E94E304909329018093C5
S1130AD0280183E08093A101E1C0809103028F3F4C
S1130AE009F4B5C0112309F449C0823008F4AFC039
S1130AF090912C01992319F0E92FE15001C0E2E013
S1130B009E2FFF27E45DFE4F8281282F3327322F4B
S1130B102227992319F0E92FE15001C0E2E0FF27D1
S1130B20E45DFE4F82819927282B392B809128017F
S1130B30909129012817390709F089C080E00E94A3
S1130B40AA04309177018091110220911202982F0A
S1130B509F5F963008F090E0921709F478C0E82F70
S1130B60FF27EF5EFD4F32838F5F80931102863043
S1130B7010F0109211020E94070269C0823008F43A
S1130B8052C080912D01E82FFF27E45DFE4F828142
S1130B90482F5527342F20911A01822F8695869548
S1130BA08695837099278130910519F0029781F019
S1130BB01FC0822F877E806180931A01442311F421
S1130BC084E001C080E0809319013093060110C0D5
S1130BD0809119018E3260F4E0910001F0910101DD
S1130BE0E80FF11D4083809119018F5F80931901F3
S1130BF080912D01E82FFF27E45DFE4F92818F5FE6
S1130C0080932D01833010F010922D01892F9927A4
S1130C10682F80912801909129010E94E304909308
S1130C2029018093280180912C01E82FFF27E45D9E
S1130C30FE4FC2838F5F80932C01833010F010929B
S1130C402C01809103028F5F8093030227C01092CE
S1130C502D0110922C011092A10110920302109206
S1130C6005021092770110922901109228018091B7
S1130C700A018D7F80930A01C1E08C2F0E94AA048F
S1130C8080911B01882331F084E08093A1010E94AC
S1130C90E40104C0112311F0C093A101CF911F916D
S1130CA00895282F8FB7F89499272CB95E9A8FBF8F
S1130CB00895CF93DF93FC016115710519F481E068
S1130CC090E01BC0C0912702D0912802209719F010
S1130CD085E090E012C090932802809327027093DD
S1130CE00F0260930E022196D0932B01C0932A0128
S1130CF0219780810E945106CE01DF91CF91089502
S1130D00982F8D57823068F480910A018160809316
S1130D100A0180E28927809370018DE780930402A1
S1130D2002C09093040261E070E084E092E00E94CB
S1130D3059069927089580910A018E7F80930A01AC
S1130D408EE78093040261E070E084E092E00E9408
S1130D50590699270895AF92BF92CF92DF92EF92EE
S1130D60FF920F931F93CF93DF93992784309105BC
S1130D7009F43EC18530910594F48130910509F45C
S1130D8050C0823091051CF4892BC9F0D5C2823041
S1130D90910509F49DC0039709F4D0C0CDC28630F3
S1130DA0910509F419C2863091050CF4F5C1873018
S1130DB0910509F416C2089709F435C2BDC24091E1
S1130DC02701442339F58FB7F894282F3327E0906F
S1130DD06B01F0906C0100916D0110916E01809196
S1130DE0660190916701A0916801B0916901E80ED4
S1130DF0F91E0A1F1B1F2FBF809108029091090240
S1130E00A0910A02B0910B029C01AD01C801B70187
S1130E100E948C040E94BC01DC01CB01BC01CD0109
S1130E2042C00E94BC01FC01EB016FEFE62E6FEFA4
S1130E30F62E6FEF062F6FE7162F60E087B78D7FD2
S1130E4087BF8091260181FF24C080911E0190916B
S1130E501F01A0912001B09121019E01AF01281B27
S1130E60390B4A0B5B0BDA01C90120912201309145
S1130E7023014091240150912501281B390B4A0B71
S1130E805B0B2E153F05400751071CF479018A01BD
S1130E9061E0662309F450C21E141F0410061106F3
S1130EA02CF0BE01CF010E94A90246C2E0920802C2
S1130EB0F092090200930A0210930B0281E08093DE
S1130EC02701A8019701BE01CF010E948C0434C2FE
S1130ED08FB7F894282F33279091710190930701CD
S1130EE083E080931C012FBF992309F025C2149A33
S1130EF01C9A81E08093A301109202020E942F02A7
S1130F001BC2C9013AC0802F869586958695E82F25
S1130F10FF27ED59FE4F202F277081E090E002C09B
S1130F20880F991F2A95E2F7982F9095808189233D
S1130F30808300931D01802F992739C01092A3014B
S1130F4080910202E0903101F0903201282F332782
S1130F502115310509F0F0C18FB7F894A82E8091BE
S1130F601C018330A1F580910701882381F58091CC
S1130F706301882331F681E090E0882309F5C0916C
S1130F801D010C2F11270F5F1F4F0130110511F4A4
S1130F9000E010E0802F0E941A02882309F0B3CFEA
S1130FA08C2F99270817190771F78FEF90E080931A
S1130FB0710181E080931C0182E00E94780106C0E7
S1130FC081E08093070110921C0137981C98AFBEF2
S1130FD080912502E82FFF27EE0FFF1FE357FE4FF6
S1130FE08F5F80932502E1828F2D99278083A4C18E
S1130FF0A0E0BA2FCA2F8FB7F894382FA0936A01B4
S11310004A2F80910C02882309F441E02C2F883068
S113101009F421E09C2F893009F491E0222311F492
S1131020992359F0C0930C0280910D02E82FFF27F9
S1131030EE0FFF1FEF57FE4FC0833FBF222311F473
S1131040992311F180917C018F5F80937C018091C1
S11310501002833499F48FB7F894282F80911102E9
S113106090911202891741F0892F8F5F80931202A9
S1131070863010F0109212022FBF09C0A0E0222384
S113108009F4A1E0B1E003C0442309F452C08FB7CE
S1131090F894992730911B018FBF332349F08FB700
S11310A0F894282F33278AE080930C022FBF41C085
S11310B08FB7F894992760918101209183018FBFA4
S11310C08FB7F894992770911102E09112027E175C
S11310D009F431E08FBF332311F5662301F58FB78F
S11310E0F894482F552782E080938101262F8FB7EB
S11310F0F8949927362F7E1709F431E08FBF3323F4
S113110021F4FF27EF5EFD4F2281209382014FBF20
S113111083E48093100260930D02C1E00AC0215061
S1131120223038F485E48093100281E080930D022C
S1131130C82FBB2349F08FB7F8949927A0931201C5
S11311408FBF87E00E94780180910C028A3019F4E5
S11311500E94E401F1C0CC2309F4EEC08FB7F894E7
S1131160282F332710927301109272011092760186
S113117081E080930C022FBF0E949B06882309F410
S1131180DBC08FB7F894282F332789E080930C02B3
S11311902FBF0E940702D0C0569A539A579A549A66
S11311A0809187019927982F8827209188013327D8
S11311B0822B932B5C01CC24DD240E94BC01DC0136
S11311C0CB01EE2496018501AC01BD018E2D0E9458
S11311D09D01E0922502B0C05698539857985498B0
S11311E0ABC010921601109215018FB7F89499278D
S11311F0209112018FBF80911101811123E0809110
S11312001001E0911701F0911801882309F094C0AE
S11312108285833909F090C0222311F00E946E0167
S11312201092A20189C08FB7F894992720910E01DA
S1131230C0910C01D0910D01F09065018FBF222364
S113124009F064C08A85FE013B96833909F05EC0CB
S11312508B859927582F442781819927482B592B0F
S1131260809185019927982F88272091860133271B
S1131270822B932B8417950758F540938601852F6D
S11312809927809385018D859927382F22278E856C
S11312909927282B392B20938801832F9927809312
S11312A087019927982F88273327822B932B5C015A
S11312B0CC24DD240E94BC01DC01CB01EE24960188
S11312C08501AC01BD018E2D0E949D01E092250295
S11312D089899927582F44278A899927482B592B7C
S11312E080918B019927982F882720918C0133278F
S11312F0822B932B8417950748F440938C01852FF8
S1131300992780938B0181E0809364018FB7F894CF
S1131310EF2DFF27EE0FFF1FEE5FFE4FC083D1833B
S113132090911A01FF2011F09B7F01C09D7F909343
S11313301A0110920F018FBFDF91CF911F910F916E
S1131340FF90EF90DF90CF90BF90AF900895809181
S113135019028F3FD1F09091190280911902E82F60
S1131360FF27E65EFD4F8081809319028091190268
S11313708F3F11F480932402892F9927FC01E65EA4
S1131380FD4F2FEF20839C0102C02FEF30E02F3F51
S113139019F480E090E00895822F0E94AB0681E06A
S11313A090E00895CFEFD0E1DEBFCDBF8FB7F894C2
S11313B0F82E49E050E06FEF70E08AE192E00E947D
S11313C00D0E8FEF809319028093240281E08EBD6D
S11313D088E080BF83E083BF2CB53DB54AE78CB578
S11313E09DB58217930708F441509C014423B9F733
S11313F092B782B78917E9F32CB53DB592B782B796
S11314008917E9F38CB59DB5821B930B4096A5E033
S113141096958795AA95E1F79093800180937F0133
S113142013BE83B78EBD8EB580BF12BE1DBC1CBC5F
S11314308FEF86BF86B780937C0080B7282F332731
S11314402770307021153105C1F7D29AD19AD09AFC
S1131450DA9AD99AD89A25BB8FEF84BBD498DC98B2
S1131460309389002093880080917D00846080936C
S11314707D0080918A00887F826080938A0016B8FC
S113148080B7886080BF80E285BF0E94A709C82F0B
S1131490DD27CC23D1F712E006E080917F01909103
S11314A08001AA27BB27FCE0880F991FAA1FBB1F36
S11314B0FA95D1F7BC01CD0120E031EE40E050E0D7
S11314C00E94140EDA01C901019789B9292F332723
S11314D0209390001BB900939500CAB940E050E0F6
S11314E0809399002093980010939B0000939D0093
S11314F0C0939A0084E490E0909375018093740102
S1131500C0938101C0938301C0930C02C093760100
S1131510C0931002C0937C015093730140937201F5
S1131520C0936A01C0930D02C0932D01C0932C0196
S1131530C093A101C0930302C0930502C093770135
S11315405093290140932801C0931202C0931102C1
S11315501092630100B602FCFDCF12BE87B7816012
S113156087BF83B7887F836000B600FCFDCF83BF4D
S11315700E94A7098823E1F7FFBE7894109288019E
S113158081E090E0809387018091080190910901A6
S113159080938A01892F99278093890185E00E948D
S11315A078018FB7F894482F4AC087B79927887B6A
S11315B0892B41F480917D00282F33272B7F21151F
S11315C0310519F020E030E02AC06F9928C08AB1B3
S11315D0807C29F580919A00807C09F5379B03C0B3
S11315E021E030E01CC087B7992783709070892B65
S11315F0A1F080B7992787709070892BD1F781B7B4
S113160092B7891B8C3018F082B7853F18F022E01E
S113161030E005C023E030E002C025E030E0E5E042
S11316202E1708F4E22F85B7837EFF27E457FF4F78
S11316309491892B806285BF78948895F8948091E1
S113164019028F3FC9F09091190280911902E82F75
S1131650FF27E65EFD4F8081809319028091190275
S11316608F3F11F480932402892F9927FC01E65EB1
S1131670FD4F2FEF208302C08FEF90E08F3F09F4DE
S113168094CF4FBF0E94AB068CCF83B783BF00B605
S113169000FCFDCF08951F920F920FB60F921124F4
S11316A02F933F934F935F936F937F938F939F9366
S11316B0AF93BF93CF93EF93FF930E94450B87B7EC
S11316C08D7F87BF78948FB7F894C82F8091660177
S11316D090916701A0916801B09169010097A105FB
S11316E0B10521F480E00E94780102C00E94C30386
S11316F0CFBFFF91EF91CF91BF91AF919F918F9108
S11317007F916F915F914F913F912F910F900FBEF9
S11317100F901F9018951F920F920FB60F921124DD
S11317202F933F934F935F936F937F938F939F93E5
S1131730AF93BF93EF93FF930E94450B8091780181
S113174090917901A0917A01B0917B010196A11D3C
S1131750B11D8093780190937901A0937A01B0939D
S11317607B0180916F01882339F0815080936F0150
S1131770882311F40E94C303FF91EF91BF91AF91AD
S11317809F918F917F916F915F914F913F912F9195
S11317900F900FBE0F901F9018951F920F920FB6C7
S11317A00F9211242F933F934F935F936F937F93E3
S11317B08F939F93AF93BF93EF93FF9364B175B1EE
S11317C078948FB7F894282F332780912302482FD9
S11317D0469541702FBF282F217080FD1CC033987F
S11317E08091A30199278130910519F0029759F04E
S11317F028C0442351F0709332016093310183E097
S11318000E9478011EC0442319F40E942F0219C0BB
S11318102093A30116C08FB7F89499278FBF8FB771
S1131820F894482F552786B180618777282F33276E
S113183026B98F7B282F332726B98068992786B944
S11318404FBFFF91EF91BF91AF919F918F917F9186
S11318506F915F914F913F912F910F900FBE0F9019
S11318601F9018951F920F920FB60F9211242F9369
S11318703F934F935F936F937F938F939F93AF9314
S1131880BF93EF93FF935F9B36C06CB1E091060268
S1131890F09107023097C1F080917D0190917E0113
S11318A0E80FF91F6083019690937E0180937D0178
S11318B02091A4013091A50182179307E0F01092C2
S11318C007021092060217C06E3719F460E081E037
S11318D010C080910A016D3721F4826080930A015F
S11318E00AC081FF05C08D7F80930A0180E26827CA
S11318F080E00E94F204FF91EF91BF91AF919F911C
S11319008F917F916F915F914F913F912F910F90A4
S11319100FBE0F901F90189578941F920F920FB6D8
S11319200F9211241F932F933F934F935F936F93C1
S11319307F938F939F93AF93BF93CF93EF93FF9333
S113194020912A0130912B0180910E0290910F0277
S11319502817390780F4E0912702F0912802E20F5A
S1131960F31F2F5F3F4F30932B0120932A01808177
S11319700E945106CDC01092280210922702809135
S11319800A0180FF0EC08E7F80930A01809170014E
S11319908093040261E070E084E092E00E945906C2
S11319A0B7C080910C0299278430910509F492C044
S11319B0853091054CF48230910509F1833091050D
S11319C09CF5019789F09FC08630910509F490C079
S11319D0863091050CF485C08730910509F48FC0D9
S11319E0089709F493C08FC0809110020E9480066A
S11319F0C82F83E080930C02609110020AC080918A
S1131A007C010E948006C82F83E080930C026091C1
S1131A107C0180917201909173010E94E304909380
S1131A207301809372016DC08FB7F894182F809161
S1131A300D02E82FFF27EE0FFF1FEE57FE4F8081A8
S1131A400E948006C82F80910D02E82FFF27EE0F19
S1131A50FF1FEE57FE4F60818091720190917301D8
S1131A600E94E30490937301809372018091760144
S1131A708F5F8093760180910D02813031F58091E2
S1131A801301E0911701F0911801E80FF11DE081B5
S1131A90982F9F5F9093130180911401891730F45C
S1131AA082E08093830180E090E002C08E2F99272A
S1131AB0E82FFF2780918301823039F080917601ED
S1131AC08F3F19F0E093840103C084E080930C02FB
S1131AD01FBF17C0809172010E948006C82F85E045
S1131AE00BC0809173010E948006C82F86E004C059
S1131AF00E949B06C82F87E080930C0202C088E0F6
S1131B0003C0CC2329F089E080930C020E940702D1
S1131B10FF91EF91CF91BF91AF919F918F917F9161
S1131B206F915F914F913F912F911F910F900FBE35
S1131B300F901F9018951F920F920FB60F921124B9
S1131B408F9380919B0087FF02C080919C008F91AE
S1131B500F900FBE0F901F90189578941F920F92BC
S1131B600FB60F9211240F900FBE0F901F9018956F
S1131B7078941F920F920FB60F9211240F900FBEFC
S1131B800F901F90189578941F920F920FB60F9292
S1131B9011240F900FBE0F901F90189578941F92E8
S1131BA00F920FB60F9211240F900FBE0F901F903B
S1131BB0189578941F920F920FB60F9211248F9359
S1131BC09F9380918800909189009F918F910F90AD
S1131BD00FBE0F901F90189578941F920F920FB616
S1131BE00F9211242F933F938F939F938FB7F89461
S1131BF0282F3327809133019091340101969093DB
S1131C003401809333012FBF9F918F913F912F9186
S1131C100F900FBE0F901F901895DC0101C06D93BB
S1131C2041505040E0F70895A1E21A2EAA1BBB1BB5
S1131C30FD010DC0AA1FBB1FEE1FFF1FA217B30794
S1131C40E407F50720F0A21BB30BE40BF50B661FAA
S1131C50771F881F991F1A9469F76095709580956E
S10F1C6090959B01AC01BD01CF010895DB
S10D1C6CA601A601D401FF01010046
S9030000FC
